:040000007FEF00F09E
:060008005E826CEFA6F021
:100018005E80D8CF02F1E8CF03F1E0CF04F1FACF48
:1000280005F1FBCF06F1E9CF07F1EACF08F1E1CFFF
:1000380009F1E2CF0AF1D9CF0BF1DACF0CF1F3CF06
:100048000DF1F4CF0EF1F6CF0FF1F7CF10F1F8CF95
:1000580011F1F5CF12F15EC013F15FC014F160C069
:1000680015F161C016F10E012EBB38AB03D0E8ECD8
:10007800AFF015D02CBD36AD0DD001D810D005008D
:10008800FA6E0101D251FD6ED351FE6ED451FF6E4E
:10009800FA5012002EBD38AD02D043ECAFF016C1B5
:1000A80061F015C160F014C15FF013C15EF012C1B8
:1000B800F5FF11C1F8FF10C1F7FF0FC1F6FF0EC120
:1000C800F4FF0DC1F3FF0CC1DAFF0BC1D9FF0AC160
:1000D800E2FF09C1E1FF08C1EAFF07C1E9FF06C164
:1000E800FBFF05C1FAFF04C1E0FF03C1E8FF02C13D
:0A00F800D8FF5E901000FDEFACF0A1
:10F3E80000010000000A00000064000000E80300BB
:10F3F8000010270000A086010040420F0080969868
:10F408000000E1F50500CA9A3B00803F002041005A
:10F41800C842007A44401C4650C347247449971890
:10F428004BBCBE4C6B6E4E03155079AD60F3497101
:10F4380000803FCDCC3DD7233C12833AB7D138C6A4
:10F448002737388635C0D633CC2B32708930E7DB86
:10F458002EE53C1E42A20D01000000100000000035
:10F468000100000010000000000100000010000072
:10F47800000001000000103C04429F6A42900142D3
:10F488004DBB40EC473E8E1FBBF44A489595C7C11B
:10F49800DC45DC6DC3B333403C04425A8B42044420
:10F4A800429C4F4100803F3401489DB04500DA42FC
:10F4B80000803F4C697374206F6620737570706F9D
:10F4C8007274656420636F6D6D616E64733A0A0DC2
:10F4D80020202052657365743A20436C656172730D
:10F4E80020746865207465726D696E616C20616E48
:10F4F800642072657365747320746865206D696330
:10F50800726F0A0D202020436C6561723A20436CAB
:10F518006561727320746865207465726D696E61C7
:10F528006C2062757420646F65736E277420726531
:10F5380073657420746865206D6963726F0A0D20A5
:10F5480020202A49444E3F3A2052657475726E73E2
:10F5580020646576696365206964656E74696669A7
:10F56800636174696F6E0A0D2020204D65617375A3
:10F57800726520504F533350333F3A2052657475AB
:10F58800726E73202B332E33562041444320436F31
:10F598006E76657273696F6E20696E20766F6C7413
:10F5A800730A0D2020204D65617375726520504FD8
:10F5B8005331323F3A2052657475726E73202B3185
:10F5C80032562041444320436F6E76657273696FEB
:10F5D8006E20696E20766F6C74730A0D2020204DA2
:10F5E800656173757265204469652054656D703F67
:10F5F8003A2052657475726E7320746865206D695F
:10F6080063726F636F6E74726F6C6C65722064697D
:10F61800652074656D706572617475726520696EB8
:10F62800206465677265657320430A0D2020204DAC
:10F6380065617375726520446574656374656420DB
:10F6480043757272656E743F3A2052657475726EB6
:10F6580073206D65617375726564206F757470755C
:10F66800742063757272656E7420696E20616D70A6
:10F6780073206173207365656E206279204144436D
:10F688000A0D2020204D65617375726520524D5317
:10F698002043757272656E743F3A205265747572B4
:10F6A8006E73207468652063616C63756C61746542
:10F6B8006420524D53206F75747075742063757291
:10F6C80072656E742066726F6D206D6561737572F8
:10F6D800656D656E747320616E64205452494143B0
:10F6E80020666972696E6720616E676C650A0D2015
:10F6F80020204D65617375726520524D5320566FF9
:10F708006C746167653F3A2052657475726E732038
:10F718007468652063616C63756C617465642052FC
:10F728004D53206F757470757420766F6C746167B3
:10F73800652066726F6D2054524941432066697294
:10F74800696E6720616E676C650A0D2020204D6523
:10F758006173757265204656523F3A20526574753A
:10F76800726E732074686520696E7465726E616C60
:10F7780020666978656420766F6C746167652072AD
:10F7880065666572656E636520627566666572207A
:10F7980031206F757470757420696E20766F6C7483
:10F7A800730A0D2020204F6E2054696D653F3A2062
:10F7B80052657475726E7320646576696365206F2F
:10F7C8006E2074696D652073696E6365206C617362
:10F7D80074206465766963652072657365740A0DC3
:10F7E800202020456E61626C652044696D6D696EEC
:10F7F800673A20456E61626C652054524941432046
:10F808006F75747075742064696D6D696E670A0D23
:10F8180020202044697361626C652044696D6D69BC
:10F828006E673A2044697361626C6520545249419D
:10F8380043206F75747075742064696D6D696E67A7
:10F848000A0D202020456E61626C65204C6F616452
:10F858003A20456E61626C657320746865206F7527
:10F868007470757420545249414320776974682034
:10F878006F7220776974686F75742064696D6D693B
:10F888006E670A0D20202044697361626C65204C04
:10F898006F61643A2044697361626C6573207468AF
:10F8A80065206F7574707574205452494143206304
:10F8B8006F6D706C6574656C790A0D202020536536
:10F8C800742044696D6D696E672050657263656E5A
:10F8D80074616765203C783E3A20536574732074E0
:10F8E8006865206F75747075742064696D6D696ED4
:10F8F800672070657263656E746167652061732047
:10F90800782070657263656E740A0D202020486542
:10F918006C703A2054686973206D6573736167650C
:10F928002C206C6973747320636F6D6D616E6473E2
:10F938000A0D0020202020426F6F7420636F6D70C5
:10F948006C6574650A0D20202020504943313846E3
:10F9580036374B3430206D546F75636820546573A7
:10F968007420426F6172640A0D2020202045766160
:10F978006C756174657320746865206D546F756368
:10F9880068206361706163697469766520746F7556
:10F998006368206C69627261727920646973747239
:10F9A800696275746564206279204D6963726F635A
:10F9B8006869700A0D2020202053657473207468CC
:10F9C80065207374617465206F66206669766520AA
:10F9D8004C454473206261736564206F6E206D54DA
:10F9E8006F75636820636170616369746976652007
:10F9F80070757368627574746F6E730A0D202020B9
:10FA0800204261756420726174653A203131353263
:10FA18003030206270730A0D202020204E6F207035
:10FA280061726974792C203820626974732C206E95
:10FA38006F20666C6F7720636F6E74726F6C2C200A
:10FA4800312073746F70206269740A0D20202020A1
:10FA5800436F6D6D616E64732061726520636173BD
:10FA6800652073656E7369746976650A0D202020B8
:10FA780020456E746572206120636F6D6D616E64E0
:10FA88002C206F7220656E7465722048656C70203A
:10FA9800666F72206C697374206F6620636F6D6D7A
:10FAA800616E64730A0D00496620796F75276420BA
:10FAB8006C696B6520746F20636F6D706C6574651D
:10FAC8006C7920656E61626C65206F722064697361
:10FAD80061626C6520746865206C6F61642C2064B9
:10FAE800697361626C652064696D6D696E67206118
:10FAF8006E642075736520726573706563746976CA
:10FB08006520636F6D6D616E64730A0D0045525216
:10FB18004F523A20506C6561736520736574206498
:10FB2800696D6D696E672070657263656E74616773
:10FB38006520746F20616E20696E74656765722038
:10FB480067726561746572207468616E2030206127
:10FB58006E64206C657373207468616E2031303078
:10FB68000A0D005468697320636F72726573706F51
:10FB78006E647320746F20612031362062697420AE
:10FB8800706572696F642076616C7565206F662098
:10FB98003078255820282575204C53427329200A8F
:10FBA8000D0043616C63756C61746564205452493F
:10FBB800414320666972696E6720616E676C6520D3
:10FBC800697320252E33662072616469616E732023
:10FBD80028252E33662064656772656573290A0DCA
:10FBE80000446576696365206F6E2074696D6520D1
:10FBF80073696E6365206C617374207265736574D4
:10FC080020636F6E646974696F6E20697320256460
:10FC1800207365636F6E64730A0D004669786564C6
:10FC280020566F6C74616765205265666572656EF3
:10FC38006365204275666665722031206D65617363
:10FC48007572656420617320256620566F6C747325
:10FC58000A0D004D617271756574746520556E6981
:10FC68007665727369747920454C454E203330337C
:10FC7800352046696E616C2050726F6A6563740A3C
:10FC88000D005452494143206F7574707574206497
:10FC9800696D6D696E6720686173206265656E20A5
:10FCA80064697361626C65640A0D0054524941438A
:10FCB800206F75747075742064696D6D696E672046
:10FCC800686173206265656E20656E61626C65644B
:10FCD8000A0D004D6561737572656D656E747320EC
:10FCE800726573706F6E7365732061707065617291
:10FCF80020696E206379616E0A0D0044696D6D6933
:10FD08006E6720686173206265656E207365742074
:10FD1800746F2025642070657263656E740A0D0027
:10FD28002B332E3356207261696C206D65617375B3
:10FD3800726564206173202B256620566F6C74737E
:10FD48000A0D004469652054656D706572617475AB
:10FD58007265206D65617375726564206173202515
:10FD680066430A0D00524D53204F75747075742008
:10FD780043757272656E7420697320252E33662070
:10FD880041726D730A0D00524D53204F7574707592
:10FD98007420566F6C7461676520697320252E3353
:10FDA800662056726D730A0D002B3132562072612F
:10FDB800696C206D65617375726564206173202BB1
:10FDC800256620566F6C74730A0D0048656C7020A8
:10FDD8006D6573736167657320617070656172200A
:10FDE800696E2079656C6C6F770A0D004D656173DB
:10FDF800757265642043757272656E74206973202C
:10FE0800252E336620416D70730A0D005573657297
:10FE180020696E70757420617070656172732069F5
:10FE28006E2077686974650A0D0049444E20737422
:10FE380072696E67206170706561727320696E20E7
:10FE4800677265656E0A0D004D6561737572652090
:10FE580044657465637465642043757272656E7475
:10FE68003F004C6F616420686173206265656E2095
:10FE780064697361626C65640A0D004C6F6164208B
:10FE8800686173206265656E20656E61626C656489
:10FE98000A0D005365742044696D6D696E672050C2
:10FEA800657263656E7461676520004572726F7272
:10FEB800732061707065617220696E207265640AD2
:10FEC8000D004D65617375726520524D5320566F54
:10FED8006C746167653F004D65617375726520528A
:10FEE8004D532043757272656E743F004D656173A2
:10FEF800757265204469652054656D703F00303126
:10FF08003233343536373839414243444546004167
:10FF18004320506F776572204D657465720A0D0035
:10FF28004D65617375726520504F533350333F00F0
:10FF380044697361626C652044696D6D696E670020
:10FF48004D65617375726520504F5331323F0045DE
:10FF58006E61626C652044696D6D696E67004D6500
:10FF68006173757265204656523F00446973616239
:10FF78006C65204C6F616400456E61626C65204C55
:10FF88006F6164004F6E2054696D653F002A4944D3
:10FF98004E3F00436C65617200526573657400489A
:10FFA800656C70001B5B324A0049444E001B5B487D
:10FFB800001B5B73001B5B75001B5B4B0033300041
:10FFC80034300033310034310033320034320033FE
:10FFD80033003433003334003434003335003435DF
:10FFE800003336003436003337003437001B5B00EB
:07FFF80038003B006D000022
:020000040001F9
:10000000660E01017A6F010E7B6FF8EF84F0250E0A
:100010008D19D8B405D08D51EBECB0F0F8EF84F029
:10002000000E01017D6F000E7C6F64C1F6FF65C19B
:10003000F7FF000EF86E0D0EF76403D00800F550C0
:1000400005D0F6CFE1FFF7CFE2FFE7502E0AD8A4A4
:1000500049D001017D8D644B652B000E8C6F000E25
:100060008B6F2AD08BC125F18CC126F1000E0101C6
:10007000286F0A0E276FD4ECAFF064C1F6FF65C19C
:10008000F7FF000EF86E0D0EF76403D00800F55070
:1000900005D0F6CFE1FFF7CFE2FFE75001016C6F2B
:1000A0006C512527000E2623D00E25258B6FFF0EC1
:1000B00026218C6F644B652B64C1F6FF65C1F7FF89
:1000C000000EF86E0D0EF76403D00800F55005D051
:1000D000F6CFE1FFF7CFE2FFE7506DECB0F0D8A02C
:1000E0003BD0C0D7000E01018C6F000E8B6F7D8955
:1000F00033D07D8562D07C8F60D08B518C11D8B489
:1001000015D078518B5D79518C59D8B00FD08BC1F7
:1001100078F18CC179F10AD076C1D9FF77C1DAFFC5
:10012000DF50EBECB0F00101764B772B7807D8A0CD
:1001300079077829F1E17929D8B4F8EF84F0ECD780
:100140008D0E766F010E776F000E796F010E786F4E
:10015000D4D7C00E7C1331D0010164516C6F65514E
:100160006D6F644B652B6CC1F6FF6DC1F7FF000E20
:10017000F86E0D0EF76403D00800F55005D0F6CFE9
:10018000E1FFF7CFE2FFE75001018D6F8D51000ACB
:10019000D8B41200580AD8B4AED73C0AD8B40DD09F
:1001A000020AD8B4A6D70F0AD8B407D01C0AD8B40C
:1001B000D0D70D0AD8B49FD7C3D7070E7D15D8B4B2
:1001C000C1D27DA904D0000E8C6F060E8B6F7AC150
:1001D000D9FF7BC1DAFFDECF88F1DECF89F1DDCF39
:1001E0008AF1030E7A27000E7B238AAF11D088C1D3
:1001F00023F189C124F18AC125F110ECB0F023C1AB
:1002000088F124C189F125C18AF1030E01017C1313
:10021000000E7F6F000E7E6F885189118A11D8B44D
:1002200088D0820E6C6FFF0E6D6F88C16EF189C130
:100230006FF18AC170F18BC171F1100E05D0D890A9
:10024000713370336F336E33E82EF9D76E516C25EE
:100250007E6F000E6D217F6F7E07D8A07F077EC165
:1002600025F17FC126F1000E286F030E276FD4EC15
:10027000AFF025C17EF126C17FF17EC11DF17FC1A6
:100280001EF1000E0101206F0A0E1F6F46ECA9F04F
:100290001DC17EF11EC17FF101017FAF03D07E073A
:1002A000D8A07F077E51000822EC8EF055C180F166
:1002B00056C181F157C182F180C146F181C147F138
:1002C00082C148F188C149F189C14AF18AC14BF123
:1002D000CEECA2F046C180F147C181F148C182F164
:1002E00080C117F181C118F182C119F1000E01011D
:1002F0001A6F800E1B6F3F0E1C6F27ECA8F00101D8
:10030000D8B004D07E07D8A07F0713D080C117F1E2
:1003100081C118F182C119F1000E1A6F200E1B6FF6
:10032000410E1C6F27ECA8F00101D8A002D07E4B33
:100330007F2B8CBF06D08C511BE10D0E8B5DD8B08E
:1003400017D088C12BF189C12CF18AC12DF18B51B5
:1003500045EC96F055C12EF156C12FF157C130F141
:10036000F2EC9CF02BC188F12CC189F12DC18AF1EE
:1003700001017FBF06D07F511FE10A0E7E5DD8B01C
:100380001BD0885189118A11D8B454D088C155F135
:1003900089C156F18AC157F152ECA2F001015551C1
:1003A000561157115811D8B47FBF44D07F5104E182
:1003B000020E7E5DD8A03ED080C117F181C118F138
:1003C00082C119F1700E1A6F890E1B6F400E1C6FDF
:1003D00027ECA8F00101D8B002D0F70E01D0F80E3A
:1003E0007E27FF0E7F237E5122EC8EF055C180F1D7
:1003F00056C181F157C182F188C117F189C118F145
:100400008AC119F180C11AF181C11BF182C11CF1AD
:1004100068EC9FF017C184F118C185F119C186F10C
:100420001AC187F1000E0101886F000E896F000E5E
:100430008A6F33D088C155F189C156F18AC157F10D
:1004400052ECA2F055C184F156C185F157C186F135
:1004500058C187F188C137F189C138F18AC139F1B2
:1004600084C11FF185C120F186C121F187C122F12C
:10047000A0ECACF01FC13AF120C13BF121C13CF12D
:10048000ADECAEF037C188F138C189F139C18AF1DC
:10049000000E01017F6F000E7E6F010E8D6F0A0E40
:1004A0008D19D8B41BD08D51040DE90EF324F66ECE
:1004B000F30EF420F76EF86A000EF8220900F550EA
:1004C000845D0900F55085590900F55086590900E9
:1004D000F5508759D8A002D08D2BE1D7030E7C159B
:1004E0006C6F000E7D156D6F6C516D11D8B44ED0D0
:1004F0002D0EEBECB0F04AD084C117F185C118F194
:1005000086C119F187C11AF101018D51040DE90E5F
:10051000F324F66EF30EF420F76EF86A000EF8225C
:100520000900F5CF1BF10900F5CF1CF10900F5CF4B
:100530001DF10A00F5CF1EF189ECA9F017C180F179
:1005400018C181F119C182F11AC183F180C124F16E
:1005500081C125F182C126F183C127F10A0E010173
:10056000286F000E296F000E2A6F000E2B6FA4EC6F
:10057000ABF024C180F125C181F126C182F127C1F0
:1005800083F101018051300FEBECB0F001018D07D8
:100590008D29D8B408D0B0D7300EEBECB0F0010103
:1005A0007E07D8A07F077FBF05D07F51F5E17E058C
:1005B000D8B0F2D78CBF09D08C5104E1090E8B5D05
:1005C000D8A003D0080E8D6F02D08BC18DF18D5154
:1005D0008B5F000E8DBFFF0E8C5B8D51D8B403D0A6
:1005E0002E0EEBECB0F001018D5122EC8EF055C1D6
:1005F00072F156C173F157C174F188C149F189C1D3
:100600004AF18AC14BF172C146F173C147F174C11D
:1006100048F1CEECA2F046C155F147C156F148C1B0
:1006200057F152ECA2F055C184F156C185F157C182
:1006300086F158C187F174D084C117F185C118F1D2
:1006400086C119F187C11AF101018D51040DE90E1E
:10065000F324F66EF30EF420F76EF86A000EF8221B
:100660000900F5CF1BF10900F5CF1CF10900F5CF0A
:100670001DF10A00F5CF1EF189ECA9F017C180F138
:1006800018C181F119C182F11AC183F180C124F12D
:1006900081C125F182C126F183C127F10A0E010132
:1006A000286F000E296F000E2A6F000E2B6FA4EC2E
:1006B000ABF024C180F125C181F126C182F127C1AF
:1006C00083F101018051300FEBECB0F084C124F1D3
:1006D00085C125F186C126F187C127F101018D5120
:1006E000040DE90EF324F66EF30EF420F76EF86AAB
:1006F000000EF8220900F5CF28F10900F5CF29F105
:100700000900F5CF2AF10A00F5CF2BF1A4ECABF0EC
:1007100024C184F125C185F126C186F127C187F165
:1007200001018D078D29D8B408D086D7300EEBECA7
:10073000B0F001018B07D8A08C078B518C11D8B475
:1007400057D1F4D7C00E7C156C6F000E7D156D6F00
:100750006C516D11D8A41ED07AC1D9FF7BC1DAFFCC
:10076000DECF84F1DDCF85F1000E85BFFF0E866FF1
:10077000876F020E7A27000E7B2387AF1DD0030EF2
:100780007C13871F861F851F846D000E852386239B
:10079000872312D07AC1D9FF7BC1DAFFDECF6CF19B
:1007A000DDCF6DF16CC184F16DC185F1866B876B16
:1007B000020E7A27000E7B238B518C11D8A44BD0CC
:1007C0008451851186118711D8A445D08B4B8C2B71
:1007D00042D0010E8D6F0A0E8D19D8B447D08D51BD
:1007E000040DE90EF324F66EF30EF420F76EF86AAA
:1007F000000EF8220900F550845D0900F550855976
:100800000900F55086590900F5508759D8A02ED017
:100810008D2BE1D7010E8D6F080E8D19D8B426D01F
:100820008D51040D5F0EF324F66EF40EF420F76E76
:10083000F86A000EF8220900F550845D0900F550B1
:1008400085590900F55086590900F5508759D8A0F7
:100850000DD08D2BE1D77C51C00B000AD8B4B9D78D
:10086000800AD8B4D7D7400AD8B4B3D7800E8DBF8A
:100870007F0E6C6F8B518D5D8C51800A6C59D8B096
:1008800003D08BC18DF110D08C51800A6C6F8D51CB
:100890008B5D800E8DBF7F0E6C59D8B005D08D5109
:1008A0008B6F8C6B8BBF8C07030E7C156C6F000EEF
:1008B0007D156D6F6C516D11D8B491D02D0EEBEC90
:1008C000B0F08DD08BC16CF18CC16DF10101D8906D
:1008D0006C376D37D8906C376D37E90E6C25F66E36
:1008E000F30E6D21F76EF86A000EF8220900F5CFBD
:1008F0001BF10900F5CF1CF10900F5CF1DF10A002D
:10090000F5CF1EF184C117F185C118F186C119F127
:1009100087C11AF189ECA9F017C124F118C125F19A
:1009200019C126F11AC127F10A0E0101286F000E24
:10093000296F000E2A6F000E2B6FA4ECABF00101A3
:100940002451300F8D6F48D084C117F185C118F143
:1009500086C119F187C11AF18BC16CF18CC16DF19F
:10096000D8906C376D37D8906C376D375F0E6C252B
:10097000F66EF40E6D21F76EF86A000EF82209008B
:10098000F5CF1BF10900F5CF1CF10900F5CF1DF1E2
:100990000A00F5CF1EF189ECA9F0010117510F0BE8
:1009A000756F7551010D060EF324F66EFF0EF420DF
:1009B000F76EF86A000EF8220800F5CF8DF10CD022
:1009C00001017C51C00B000AD8B47CD7800AD8B48E
:1009D000BBD7400AD8B476D78D51EBECB0F001010B
:1009E0008B07D8A08C078B29EBE18C29D8A4E8D7FA
:1009F000010164516C6F65516D6F644B652B6CC167
:100A0000F6FF6DC1F7FF000EF86E0D0EF76403D010
:100A10000800F55005D0F6CFE1FFF7CFE2FFE75031
:100A200001018D6F8D51D8B4120007EF80F0680E70
:100A30000001766F000E776F0CEF8AF0250E891992
:100A4000D8B405D0895129ECB1F00CEF8AF0000E32
:100A50000001796F000E786F66C0F6FF67C0F7FF80
:100A6000000EF86E0D0EF76403D00800F55005D0A7
:100A7000F6CFE1FFF7CFE2FFE7502E0AD8A448D027
:100A80000001798D664B672B000E886F000E876F13
:100A900029D087C00FF088C010F0000E126E0A0E29
:100AA000116E36ECB0F066C0F6FF67C0F7FF000EBF
:100AB000F86E0D0EF76403D00800F55005D0F6CFA0
:100AC000E1FFF7CFE2FFE7500001686F68510F26A2
:100AD000000E1022D00E0F24876FFF0E1020886F9B
:100AE000664B672B66C0F6FF67C0F7FF000EF86E17
:100AF0000D0EF76403D00800F55005D0F6CFE1FFE6
:100B0000F7CFE2FFE7507EECB0F0D8A03BD0C1D7E2
:100B1000000E0001886F000E876F798933D07985C8
:100B200062D0788F60D087518811D8B415D07451B5
:100B3000875D75518859D8B00FD087C074F088C0D0
:100B400075F00AD072C0D9FF73C0DAFFDF5029EC0C
:100B5000B1F00001724B732B7407D8A0750774298C
:100B6000F1E17529D8B40CEF8AF0ECD7890E726FD9
:100B7000000E736F000E756F010E746FD4D7C00E28
:100B8000781331D000016651686F6751696F664B09
:100B9000672B68C0F6FF69C0F7FF000EF86E0D0EF8
:100BA000F76403D00800F55005D0F6CFE1FFF7CF8A
:100BB000E2FFE7500001896F8951000AD8B41200A2
:100BC000580AD8B4AED73C0AD8B40DD0020AD8B46B
:100BD000A6D70F0AD8B407D01C0AD8B4D0D70D0AAC
:100BE000D8B49FD7C3D7070E7915D8B4C0D279A986
:100BF00004D0000E886F060E876F76C0D9FF77C0CD
:100C0000DAFFDECF80F0DECF81F0DDCF82F0030EA1
:100C10007627000E772382AF11D080C024F081C0E8
:100C200025F082C026F049ECB0F024C080F025C049
:100C300081F026C082F0030E00017813000E7B6F56
:100C4000000E7A6F805181118211D8B486D0820E45
:100C5000686FFF0E696F80C06AF081C06BF082C060
:100C60006CF083C06DF0100E05D0D8906D336C33EE
:100C70006B336A33E82EF9D76A5168257A6F000E14
:100C800069217B6F7A07D8A07B077AC00FF07BC001
:100C900010F0000E126E030E116E36ECB0F00FC0A5
:100CA0007AF010C07BF07AC007F07BC008F0000E2D
:100CB0000A6E0A0E096ECBECA9F007C07AF008C0E4
:100CC0007BF000017BAF03D07A07D8A07B077A5175
:100CD000000862EC90F036C07CF037C07DF038C080
:100CE0007EF07CC027F07DC028F07EC029F080C057
:100CF0002AF081C02BF082C02CF0C3ECA3F027C0F7
:100D00007CF028C07DF029C07EF07CC02AF07DC038
:100D10002BF07EC02CF0000E2D6E800E2E6E3F0E3E
:100D20002F6EB8ECA8F0D8B005D000017A07D8A093
:100D30007B0713D07CC02AF07DC02BF07EC02CF046
:100D4000000E2D6E200E2E6E410E2F6EB8ECA8F008
:100D5000D8A003D000017A4B7B2B000188BF06D0BE
:100D600088511BE10D0E875DD8B017D080C040F0D0
:100D700081C041F082C042F087518FEC97F036C0BD
:100D800043F037C044F038C045F0C9EC9DF040C096
:100D900080F041C081F042C082F000017BBF06D0EC
:100DA0007B5120E10A0E7A5DD8B01CD080518111B0
:100DB0008211D8B456D080C03DF081C03EF082C0D0
:100DC0003FF049ECA3F03D503E103F104010D8A436
:100DD00048D000017BBF45D07B5104E1020E7A5D13
:100DE000D8A03FD07CC02AF07DC02BF07EC02CF074
:100DF000700E2D6E890E2E6E400E2F6EB8ECA8F080
:100E0000D8B003D00001F70E02D00001F80E7A2707
:100E1000FF0E7B237A5162EC90F036C07CF037C035
:100E20007DF038C07EF080C001F081C002F082C049
:100E300003F07CC004F07DC005F07EC006F002EC3B
:100E4000A0F001C083F002C084F003C085F004C0AC
:100E500086F0000E0001806F000E816F000E826F21
:100E600033D080C03DF081C03EF082C03FF049ECFD
:100E7000A3F03DC083F03EC084F03FC085F040C089
:100E800086F080C060F081C061F082C062F083C0F3
:100E900009F084C00AF085C00BF086C00CF0CFECDE
:100EA000ACF009C063F00AC064F00BC065F0CEEC92
:100EB000AEF060C080F061C081F062C082F0000ED0
:100EC00000017B6F000E7A6F010E896F0A0E89197F
:100ED000D8B41BD08951040DE90EF324F66EF30E3D
:100EE000F420F76EF86A000EF8220900F550835DD1
:100EF0000900F55084590900F55085590900F5504D
:100F00008659D8A002D0892BE1D7030E7815686FD7
:100F1000000E7915696F68516911D8B44DD02D0E46
:100F200029ECB1F049D083C001F084C002F085C043
:100F300003F086C004F000018951040DE90EF3248A
:100F4000F66EF30EF420F76EF86A000EF822090030
:100F5000F5CF05F00900F5CF06F00900F5CF07F051
:100F60000A00F5CF08F00DECAAF001C07CF002C039
:100F70007DF003C07EF004C07FF07CC00EF07DC029
:100F80000FF07EC010F07FC011F00A0E126E000E3E
:100F9000136E000E146E000E156E0BECACF00EC04E
:100FA0007CF00FC07DF010C07EF011C07FF000011A
:100FB0007C51300F29ECB1F0000189078929D8B4A0
:100FC00008D0B1D7300E29ECB1F000017A07D8A0D3
:100FD0007B077BBF05D07B51F5E17A05D8B0F2D70E
:100FE00088BF09D0885104E1090E875DD8A003D0DD
:100FF000080E896F02D087C089F08951875F000E83
:1010000089BFFF0E885B8951D8B403D02E0E29EC1E
:10101000B1F00001895162EC90F036C06EF037C03B
:101020006FF038C070F080C02AF081C02BF082C011
:101030002CF06EC027F06FC028F070C029F0C3EC10
:10104000A3F027C03DF028C03EF029C03FF049EC96
:10105000A3F03DC083F03EC084F03FC085F040C0A7
:1010600086F073D083C001F084C002F085C003F025
:1010700086C004F000018951040DE90EF324F66ED8
:10108000F30EF420F76EF86A000EF8220900F5CF8F
:1010900005F00900F5CF06F00900F5CF07F00A00CA
:1010A000F5CF08F00DECAAF001C07CF002C07DF095
:1010B00003C07EF004C07FF07CC00EF07DC00FF056
:1010C0007EC010F07FC011F00A0E126E000E136E7B
:1010D000000E146E000E156E0BECACF00EC07CF022
:1010E0000FC07DF010C07EF011C07FF000017C5178
:1010F000300F29ECB1F083C00EF084C00FF085C032
:1011000010F086C011F000018951040DE90EF3249E
:10111000F66EF30EF420F76EF86A000EF82209005E
:10112000F5CF12F00900F5CF13F00900F5CF14F058
:101130000A00F5CF15F00BECACF00EC083F00FC039
:1011400084F010C085F011C086F00001890789295C
:10115000D8B408D087D7300E29ECB1F0000187074A
:10116000D8A0880787518811D8B456D1F4D7C00EBB
:101170007815686F000E7915696F68516911D8A4E8
:101180001ED076C0D9FF77C0DAFFDECF83F0DDCF87
:1011900084F0000E84BFFF0E856F866F020E7627E7
:1011A000000E772386AF1DD0030E7813861F851F90
:1011B000841F836D000E84238523862312D076C07E
:1011C000D9FF77C0DAFFDECF68F0DDCF69F068C005
:1011D00083F069C084F0856B866B020E7627000E63
:1011E000772387518811D8A44BD08351841185115E
:1011F0008611D8A445D0874B882B42D0010E896F29
:101200000A0E8919D8B447D08951040DE90EF32488
:10121000F66EF30EF420F76EF86A000EF82209005D
:10122000F550835D0900F55084590900F550855942
:101230000900F5508659D8A02ED0892BE1D7010E90
:10124000896F080E8919D8B426D08951040D5F0E14
:10125000F324F66EF40EF420F76EF86A000EF8220E
:101260000900F550835D0900F55084590900F550D7
:1012700085590900F5508659D8A00DD0892BE1D7A2
:101280007851C00B000AD8B4B9D7800AD8B4D7D7E0
:10129000400AD8B4B3D7800E89BF7F0E686F8751DC
:1012A000895D8851800A6859D8B003D087C089F019
:1012B00010D08851800A686F8951875D800E89BF80
:1012C0007F0E6859D8B005D08951876F886B87BF6A
:1012D0008807030E7815686F000E7915696F6851DD
:1012E0006911D8B490D02D0E29ECB1F08CD087C004
:1012F00068F088C069F00001D89068376937D890E5
:1013000068376937E90E6825F66EF30E6921F76EC6
:10131000F86A000EF8220900F5CF05F00900F5CFB4
:1013200006F00900F5CF07F00A00F5CF08F083C0FA
:1013300001F084C002F085C003F086C004F00DEC1B
:10134000AAF001C00EF002C00FF003C010F004C0FC
:1013500011F00A0E126E000E136E000E146E000EC7
:10136000156E0BECACF00E50300F0001896F48D0B9
:1013700083C001F084C002F085C003F086C004F091
:1013800087C068F088C069F0D89068376937D8900E
:10139000683769375F0E6825F66EF40E6921F76EBF
:1013A000F86A000EF8220900F5CF05F00900F5CF24
:1013B00006F00900F5CF07F00A00F5CF08F00DECB4
:1013C000AAF001500F0B0001716F7151010D060E53
:1013D000F324F66EFF0EF420F76EF86A000EF82282
:1013E0000800F5CF89F00CD000017851C00B000A3D
:1013F000D8B47DD7800AD8B4BBD7400AD8B477D741
:10140000895129ECB1F000018707D8A08807872906
:10141000EBE18829D8A4E8D700016651686F6751CD
:10142000696F664B672B68C0F6FF69C0F7FF000E57
:10143000F86E0D0EF76403D00800F55005D0F6CF16
:10144000E1FFF7CFE2FFE7500001896F8951D8B47F
:1014500012001EEF85F0A0C117F1A1C118F1A10E75
:101460000101196FFF0E1A6FAAECADF001011751BF
:101470001811D8A40FD0AC0E646FFF0E656F00EC8E
:1014800080F0B50E0101646FFF0E656F00EC80F017
:10149000FF001200A0C117F1A1C118F19B0E0101BC
:1014A000196FFF0E1A6FAAECADF001011751181158
:1014B000D8A40ED0AC0E646FFF0E656F00EC80F008
:1014C000B50E0101646FFF0E656F00EC80F0120035
:1014D000A0C117F1A1C118F1950E0101196FFF0EFE
:1014E0001A6FAAECADF0010117511811D8B40FD042
:1014F000A0C117F1A1C118F1B10E196FFF0E1A6F3B
:10150000AAECADF0010117511811D8A41DD0DBECE5
:10151000B0F0000E01018E6F000E8F6F020E91EC85
:1015200094F0170E0101646FFF0E656F00EC80F000
:101530005B0E0101646FFC0E656F00EC80F0C1EC86
:10154000B0F0DBECB0F01200A0C117F1A1C118F1AE
:10155000280E0101196FFF0E1A6FAAECADF0010100
:1015600017511811D8A41CD0DBECB0F0000E01010B
:101570008E6F000E8F6F060E91EC94F0280E010115
:10158000646FFD0E656FCBC066F1CCC067F1CDC056
:1015900068F100EC80F0C1ECB0F0DBECB0F01200D0
:1015A000A0C117F1A1C118F1480E0101196FFF0E7A
:1015B0001A6FAAECADF0010117511811D8A41CD074
:1015C000DBECB0F0000E01018E6F000E8F6F060E87
:1015D00091EC94F0B10E0101646FFD0E656FC9C10D
:1015E00066F1CAC167F1CBC168F100EC80F0C1ECD3
:1015F000B0F0DBECB0F01200A0C117F1A1C118F1FE
:10160000F40E0101196FFE0E1A6FAAECADF0010184
:1016100017511811D8A41CD0DBECB0F0000E01015A
:101620008E6F000E8F6F060E91EC94F04B0E010141
:10163000646FFD0E656FC6C166F1C7C167F1C8C1B1
:1016400068F100EC80F0C1ECB0F0DBECB0F012001F
:10165000A0C117F1A1C118F1660E0101196FFF0EAB
:101660001A6FAAECADF0010117511811D8A41CD0C3
:10167000DBECB0F0000E01018E6F000E8F6F060ED6
:1016800091EC94F0230E0101646FFC0E656FE0C0D5
:1016900066F1E1C067F1E2C068F100EC80F0C1ECF6
:1016A000B0F0DBECB0F01200A0C117F1A1C118F14D
:1016B000500E0101196FFE0E1A6FAAECADF0010178
:1016C00017511811D8A41CD0DBECB0F0000E0101AA
:1016D0008E6F000E8F6F060E91EC94F0F40E0101E8
:1016E000646FFD0E656FC5C066F1C6C067F1C7C007
:1016F00068F100EC80F0C1ECB0F0DBECB0F012006F
:10170000A0C117F1A1C118F1DF0E0101196FFE0E82
:101710001A6FAAECADF0010117511811D8A41CD012
:10172000DBECB0F0000E01018E6F000E8F6F060E25
:1017300091EC94F06D0E0101646FFD0E656FC3C1F5
:1017400066F1C4C167F1C5C168F100EC80F0C1EC7D
:10175000B0F0DBECB0F01200A0C117F1A1C118F19C
:10176000CA0E0101196FFE0E1A6FAAECADF001014D
:1017700017511811D8A41CD0DBECB0F0000E0101F9
:101780008E6F000E8F6F060E91EC94F08F0E01019C
:10179000646FFD0E656FC0C166F1C1C167F1C2C162
:1017A00068F100EC80F0C1ECB0F0DBECB0F01200BE
:1017B000A0C117F1A1C118F1570E0101196FFF0E59
:1017C0001A6FAAECADF0010117511811D8A417D067
:1017D0007F90DBECB0F0000E01018E6F000E8F6F7A
:1017E000060E91EC94F0B30E0101646FFC0E656F70
:1017F00000EC80F0C1ECB0F0DBECB0F01200A0C166
:1018000017F1A1C118F1380E0101196FFF0E1A6FFF
:10181000AAECADF0010117511811D8A418D07F809F
:101820007F82DBECB0F0000E01018E6F000E8F6F37
:10183000060E91EC94F08A0E0101646FFC0E656F48
:1018400000EC80F0C1ECB0F0DBECB0F01200A0C115
:1018500017F1A1C118F1800E0101196FFF0E1A6F67
:10186000AAECADF0010117511811D8A416D0DBEC89
:10187000B0F0000E01018E6F000E8F6F060E91EC1E
:1018800094F0830E0101646FFE0E656F00EC80F032
:10189000C1ECB0F0DBECB0F01200A0C117F1A1C1B7
:1018A00018F1730E0101196FFF0E1A6FAAECADF05B
:1018B000010117511811D8A418D07F927F90DBEC4A
:1018C000B0F0000E01018E6F000E8F6F060E91ECCE
:1018D00094F06A0E0101646FFE0E656F00EC80F0FB
:1018E000C1ECB0F0DBECB0F01200A0C126F1A1C158
:1018F00027F19B0E0101286FFE0E296F00ECA9F065
:10190000010126512711D8B40CD1000EAB6F000E87
:10191000AA6FABBF06D0AB511BE1030EAA5DD8B0D6
:1019200017D0170EAA25A26F000EAB21A36FA251EC
:10193000A025D96EA351A121DA6EA70EAA25E16ECA
:10194000010EAB21E26EDFCFE7FFAA4BAB2BE1D755
:10195000A70E2B6F010E2C6F00ECA6F02BC1ACF183
:101960002CC1ADF10101ADBF06D0AD510BE1640E4C
:10197000AC5DD8B007D0ADBF05D0AD5128E1AC0506
:10198000D8B025D0DBECB0F0000E01018E6F000E58
:101990008F6F010E91EC94F0150E0101646FFB0E38
:1019A000656F00EC80F0000E01018E6F000E8F6FEE
:1019B000030E91EC94F0AF0E0101646FFA0E656FA7
:1019C00000EC80F0C1ECB0F0DBECB0F01200000EE7
:1019D00001013A6FC80E3B6F420E3C6F000E2E6F36
:1019E000C80E2F6F420E306FACC11FF1ADC120F198
:1019F000EFECAEF01FC123F120C124F121C125F18C
:101A000010ECB0F023C12BF124C12CF125C12DF134
:101A1000F2EC9CF02BC137F12CC138F12DC139F11A
:101A20003DECA4F037C146F138C147F139C148F166
:101A3000100E0101496F490E4A6F400E4B6FCEECFC
:101A4000A2F046C1DDF047C1DEF048C1DFF0DDC0E5
:101A500046F1DEC047F1DFC048F12F0E0101496FAA
:101A6000650E4A6F420E4B6FCEECA2F046C1A4F158
:101A700047C1A5F148C1A6F1ACC1A2F1ADC1A3F126
:101A80000101A21FA31FA24BA32B640EA225256F49
:101A9000000EA321266F020E286F8F0E276FD4EC45
:101AA000AFF025C1D7F126C1D8F1DBECB0F0000EC4
:101AB00001018E6F000E8F6F060E91EC94F0030EF5
:101AC0000101646FFD0E656FACC166F1ADC167F1D8
:101AD00000EC80F0AA0E0101646FFB0E656FDDC0A3
:101AE00066F1DEC067F1DFC068F1A4C169F1A5C18C
:101AF0006AF1A6C16BF100EC80F06B0E0101646F1E
:101B0000FB0E656FD7C166F1D8C167F1D7C168F127
:101B1000D8C169F100EC80F0C1ECB0F0DBECB0F0C2
:101B20001200A0C117F1A1C118F18C0E0101196FAB
:101B3000FF0E1A6FAAECADF0010117511811D8A4CD
:101B40001ED0DBECB0F0000E01018E6F000E8F6F27
:101B5000060E91EC94F0E90E0101646FFB0E656FC7
:101B6000B9C166F1BAC167F1BBC168F1BCC169F125
:101B700000EC80F0C1ECB0F0DBECB0F01200A0C1E2
:101B800017F1A1C118F1A70E0101196FFF0E1A6F0D
:101B9000AAECADF0010117511811D8A41200DBEC2A
:101BA000B0F0000E01018E6F000E8F6F030E91ECEE
:101BB00094F0BB0E0101646FF40E656F00EC80F0D1
:101BC000DBECB0F0D30E0101646FFD0E656F00EC2D
:101BD00080F0000E01018E6F000E8F6F020E91ECEF
:101BE00094F0320E0101646FFE0E656F00EC80F020
:101BF000000E01018E6F000E8F6F060E91EC94F0B7
:101C0000DB0E0101646FFC0E656F00EC80F0000ECE
:101C100001018E6F000E8F6F010E91EC94F0B30EE8
:101C20000101646FFE0E656F00EC80F0C1ECB0F056
:101C3000140E0101646FFE0E656F00EC80F0DBECAA
:101C4000B0F0120001015B6F01015BAF1ED15B6D53
:101C50005B51800A120FD8A0A0D0000E286F030E8F
:101C6000276F000E206F0A0E1F6F000E1A6F640E92
:101C7000196F5B51176F186B17BF1807FFECAAF0AD
:101C800017C11DF118C11EF146ECA9F0090E0101A2
:101C90001D25256F000E1E21266FD4ECAFF0380EE7
:101CA00001012525F66EF40E2621F76EF86A000E66
:101CB000F8220900F5CF49F10900F5CF4AF10A00F1
:101CC000F5CF4BF1000E206F640E1F6F5B511D6F3F
:101CD0001E6B1DBF1E0746ECA9F0120E01011D254B
:101CE000256F000E1E21266F000E286F030E276F32
:101CF000D4ECAFF0380E01012525F66EF40E262146
:101D0000F76EF86A000EF8220900F5CF46F10900D7
:101D1000F5CF47F10A00F5CF48F1CEECA2F046C16D
:101D200058F147C159F148C15AF158C146F159C15A
:101D300047F15AC148F1000E0101286F030E276FC9
:101D4000000E1A6F0A0E196F5B51176F186B17BFD1
:101D50001807FFECAAF017C125F118C126F1D4EC41
:101D6000AFF0380E01012525F66EF40E2621F76E30
:101D7000F86A000EF8220900F5CF49F10900F5CF05
:101D80004AF10A00F5CF4BF1CEECA2F046C155F175
:101D900047C156F148C157F1120001015B51800A59
:101DA000750FD8A05CD0000E206F0A0E1F6F5B511C
:101DB0001D6F1E6B1DBF1E0746ECA9F0090E010129
:101DC0001D25256F000E1E21266F000E286F030EA5
:101DD000276FD4ECAFF0380E01012525F66EF40E16
:101DE0002621F76EF86A000EF8220900F5CF46F1B9
:101DF0000900F5CF47F10A00F5CF48F1000E286F32
:101E0000030E276F000E1A6F0A0E196F5B51176FC2
:101E1000186B17BF1807FFECAAF017C125F118C1FE
:101E200026F1D4ECAFF0380E01012525F66EF40E44
:101E30002621F76EF86A000EF8220900F5CF49F165
:101E40000900F5CF4AF10A00F5CF4BF1CEECA2F034
:101E500046C155F147C156F148C157F11200010181
:101E60005B51030D380EF324F66EF40EF420F76E7A
:101E7000F86A000EF8220900F5CF55F10900F5CFF8
:101E800056F10A00F5CF57F112005B51800A120F8C
:101E9000D8A0A0D0000E286F030E276F000E206F71
:101EA0000A0E1F6F000E1A6F640E196F5B51176FC9
:101EB000186B17BF1807FFECAAF017C11DF118C166
:101EC0001EF146ECA9F0090E01011D25256F000E3B
:101ED0001E21266FD4ECAFF0110E01012525F66E00
:101EE000F40E2621F76EF86A000EF8220900F5CFED
:101EF00049F10900F5CF4AF10A00F5CF4BF1000E88
:101F0000206F640E1F6F5B511D6F1E6B1DBF1E0780
:101F100046ECA9F0120E01011D25256F000E1E21B1
:101F2000266F000E286F030E276FD4ECAFF0110E52
:101F300001012525F66EF40E2621F76EF86A000ED3
:101F4000F8220900F5CF46F10900F5CF47F10A0064
:101F5000F5CF48F1CEECA2F046C158F147C159F196
:101F600048C15AF158C146F159C147F15AC148F127
:101F7000000E0101286F030E276F000E1A6F0A0E64
:101F8000196F5B51176F186B17BF1807FFECAAF09A
:101F900017C125F118C126F1D4ECAFF0110E0101E3
:101FA0002525F66EF40E2621F76EF86A000EF8224B
:101FB0000900F5CF49F10900F5CF4AF10A00F5CF44
:101FC0004BF1CEECA2F046C155F147C156F148C1E4
:101FD00057F1120001015B51800A750FD8A05CD047
:101FE000000E206F0A0E1F6F5B511D6F1E6B1DBF11
:101FF0001E0746ECA9F0090E01011D25256F000EF4
:102000001E21266F000E286F030E276FD4ECAFF051
:10201000110E01012525F66EF40E2621F76EF86AE1
:10202000000EF8220900F5CF46F10900F5CF47F17F
:102030000A00F5CF48F1000E286F030E276F000E3F
:102040001A6F0A0E196F5B51176F186B17BF1807BD
:10205000FFECAAF017C125F118C126F1D4ECAFF0BE
:10206000110E01012525F66EF40E2621F76EF86A91
:10207000000EF8220900F5CF49F10900F5CF4AF129
:102080000A00F5CF4BF1CEECA2F046C155F147C1A5
:1020900056F148C157F1120001015B51030D110EB9
:1020A000F324F66EF40EF420F76EF86A000EF822B0
:1020B0000900F5CF55F10900F5CF56F10A00F5CF2B
:1020C00057F112003C6E3CAE13D13C6C3C50800A80
:1020D000120FD8A09AD0000E126E030E116E000ED1
:1020E0000A6E0A0E096E000E046E640E036E3C50FA
:1020F000016E026A01BE020638ECABF001C007F0C7
:1021000002C008F0CBECA9F0090E07240F6E000EF8
:102110000820106E36ECB0F0380E0F24F66EF40E78
:102120001020F76EF86A000EF8220900F5CF2AF0A9
:102130000900F5CF2BF00A00F5CF2CF0000E0A6E47
:10214000640E096E3C50076E086A07BE0806CBECA9
:10215000A9F0120E07240F6E000E0820106E000E5C
:10216000126E030E116E36ECB0F0380E0F24F66EC0
:10217000F40E1020F76EF86A000EF8220900F5CF71
:1021800027F00900F5CF28F00A00F5CF29F0C3ECBD
:10219000A3F027C039F028C03AF029C03BF039C07D
:1021A00027F03AC028F03BC029F0000E126E030E53
:1021B000116E000E046E0A0E036E3C50016E026A30
:1021C00001BE020638ECABF001C00FF002C010F007
:1021D00036ECB0F0380E0F24F66EF40E1020F76EC9
:1021E000F86A000EF8220900F5CF2AF00900F5CFB1
:1021F0002BF00A00F5CF2CF0C3ECA3F027C036F08B
:1022000028C037F029C038F012003C50800A750F02
:10221000D8A059D0000E0A6E0A0E096E3C50076E07
:10222000086A07BE0806CBECA9F0090E07240F6E5A
:10223000000E0820106E000E126E030E116E36ECAA
:10224000B0F0380E0F24F66EF40E1020F76EF86A18
:10225000000EF8220900F5CF27F00900F5CF28F08D
:102260000A00F5CF29F0000E126E030E116E000E5B
:10227000046E0A0E036E3C50016E026A01BE020635
:1022800038ECABF001C00FF002C010F036ECB0F04B
:10229000380E0F24F66EF40E1020F76EF86A000E5A
:1022A000F8220900F5CF2AF00900F5CF2BF00A003B
:1022B000F5CF2CF0C3ECA3F027C036F028C037F0E0
:1022C00029C038F012003C50030D380EF324F66E8E
:1022D000F40EF420F76EF86A000EF8220900F5CF2C
:1022E00036F00900F5CF37F00A00F5CF38F01200CC
:1022F0003C50800A120FD8A09AD0000E126E030E26
:10230000116E000E0A6E0A0E096E000E046E640E47
:10231000036E3C50016E026A01BE020638ECABF05F
:1023200001C007F002C008F0CBECA9F0090E0724A9
:102330000F6E000E0820106E36ECB0F0110E0F2458
:10234000F66EF40E1020F76EF86A000EF8220900FF
:10235000F5CF2AF00900F5CF2BF00A00F5CF2CF0CD
:10236000000E0A6E640E096E3C50076E086A07BEC6
:102370000806CBECA9F0120E07240F6E000E082001
:10238000106E000E126E030E116E36ECB0F0110ED0
:102390000F24F66EF40E1020F76EF86A000EF82285
:1023A0000900F5CF27F00900F5CF28F00A00F5CF96
:1023B00029F0C3ECA3F027C039F028C03AF029C0B7
:1023C0003BF039C027F03AC028F03BC029F0000E9E
:1023D000126E030E116E000E046E0A0E036E3C5058
:1023E000016E026A01BE020638ECABF001C00FF0CC
:1023F00002C010F036ECB0F0110E0F24F66EF40EA1
:102400001020F76EF86A000EF8220900F5CF2AF0C6
:102410000900F5CF2BF00A00F5CF2CF0C3ECA3F0A8
:1024200027C036F028C037F029C038F012003C50E1
:10243000800A750FD8A059D0000E0A6E0A0E096ED8
:102440003C50076E086A07BE0806CBECA9F0090EDF
:1024500007240F6E000E0820106E000E126E030E81
:10246000116E36ECB0F0110E0F24F66EF40E102043
:10247000F76EF86A000EF8220900F5CF27F0090080
:10248000F5CF28F00A00F5CF29F0000E126E030EEA
:10249000116E000E046E0A0E036E3C50016E026A4D
:1024A00001BE020638ECABF001C00FF002C010F024
:1024B00036ECB0F0110E0F24F66EF40E1020F76E0D
:1024C000F86A000EF8220900F5CF2AF00900F5CFCE
:1024D0002BF00A00F5CF2CF0C3ECA3F027C036F0A8
:1024E00028C037F029C038F012003C50030D110EFF
:1024F000F324F66EF40EF420F76EF86A000EF8225C
:102500000900F5CF36F00900F5CF37F00A00F5CF16
:1025100038F012005FCFAFF0F2D1B7ECB0F001C0ED
:1025200009F002C00AF05BECB0F009C027F00AC065
:1025300028F00BC029F0680E2A6E530E2B6E3B0E4E
:102540002C6EC3ECA3F027C0E0F028C0E1F029C056
:10255000E2F0120E156E030E166E400E176EE0C0FE
:1025600018F0E1C019F0E2C01AF0B1ECA4F015C007
:10257000CEF016C0CFF017C0D0F01200CEC02AF0B7
:10258000CFC02BF0D0C02CF0B7ECB0F001C009F0F8
:1025900002C00AF05BECB0F009C027F00AC028F0D6
:1025A0000BC029F0C3ECA3F027C0B0F028C0B1F0F5
:1025B00029C0B2F0B0C027F0B1C028F0B2C029F0F5
:1025C000680E2A6ED30E2B6E3B0E2C6EC3ECA3F05E
:1025D00027C0CBF028C0CCF029C0CDF01200C00E2F
:1025E000186E7F0E196E440E1A6ECBC015F0CCC05B
:1025F00016F0CDC017F0B1ECA4F015C02AF016C04B
:102600002BF017C02CF0B7ECB0F001C009F002C0FD
:102610000AF05BECB0F009C027F00AC028F00BC04C
:1026200029F0C3ECA3F027C0B0F028C0B1F029C056
:10263000B2F0B0C027F0B1C028F0B2C029F05E0EF1
:102640002A6EF20E2B6E3F0E2C6EC3ECA3F027C049
:10265000C5F028C0C6F029C0C7F07FB03DD0C5C0C6
:1026600073F0C6C074F0C7C075F0DDC076F0DEC090
:1026700077F0DFC078F070ECACF073C0C8F074C0D5
:10268000C9F075C0CAF0C8C094F0C9C095F0CAC0FE
:1026900096F0DDC097F0DEC098F0DFC099F02EEC28
:1026A0009BF094C0C3F195C0C4F196C0C5F1E3C0DE
:1026B00094F0E4C095F0E5C096F0DDC097F0DEC080
:1026C00098F0DFC099F02EEC9BF094C0C0F195C05B
:1026D000C1F196C0C2F11200C5C0C8F0C6C0C9F0B1
:1026E000C7C0CAF0C8C094F0C9C095F0CAC096F07F
:1026F000000E0001976F000E986F000E996F2EEC80
:102700009BF094C0C3F195C0C4F196C0C5F1E3C07D
:1027100094F0E4C095F0E5C096F0000E0001976FCC
:10272000000E986F000E996F2EEC9BF094C0C0F1D4
:1027300095C0C1F196C0C2F11200C00E186E7F0E96
:10274000196E440E1A6ECBC015F0CCC016F0CDC079
:1027500017F0B1ECA4F015C02AF016C02BF017C08A
:102760002CF0B7ECB0F001C009F002C00AF05BEC4D
:10277000B0F009C027F00AC028F00BC029F0C3EC64
:10278000A3F027C0B0F028C0B1F029C0B2F0B0C0AB
:1027900027F0B1C028F0B2C029F0F80E2A6E800EE2
:1027A0002B6E400E2C6EC3ECA3F027C0C9F128C0DD
:1027B000CAF129C0CBF11200000E186E000E196E7E
:1027C000400E1A6ECBC015F0CCC016F0CDC017F07D
:1027D000B1ECA4F015C02AF016C02BF017C02CF0F5
:1027E000000E436E800E446E3F0E456EC00E186E96
:1027F0007F0E196E440E1A6EB7ECB0F001C009F0EE
:1028000002C00AF05BECB0F009C015F00AC016F087
:102810000BC017F0B1ECA4F015C024F016C025F0E1
:1028200017C026F049ECB0F024C040F025C041F0BC
:1028300026C042F0C9EC9DF040C027F041C028F00E
:1028400042C029F0C3ECA3F027C0A6F028C0A7F02F
:1028500029C0A8F0040E186EAD0E196E3A0E1A6E4D
:10286000B40E436E280E446E3F0E456EA6C024F093
:10287000A7C025F0A8C026F049ECB0F024C040F075
:1028800025C041F026C042F0C9EC9DF040C015F0D3
:1028900041C016F042C017F0B1ECA4F015C0A9F089
:1028A00016C0AAF017C0ABF0E6C043F0E7C044F092
:1028B000E8C045F0A9C040F0AAC041F0ABC042F06A
:1028C000C9EC9DF040C0ACF041C0ADF042C0AEF0EC
:1028D000ACC040F0ADC041F0AEC042F0000E436E5F
:1028E000200E446EC20E456EC9EC9DF040C0C6F18C
:1028F00041C0C7F142C0C8F112007E86120000013B
:10290000AF51000AD8B46BD6040AD8B416D7260A39
:10291000D8B434D61F0AD8B44FD7020AD8B4FDD5DC
:10292000ECD70101906F910E0101176F010E186F26
:10293000F50E196FFF0E1A6F000E1C6F0F0E1B6F36
:1029400070ECABF054D0910E0101176F010E186FAF
:10295000C60E196FFF0E1A6FF9ECADF05DD0910E37
:102960000101176F010E186FCC0E196FFF0E1A6F51
:10297000F9ECADF051D0910E0101176F010E186FF7
:10298000DE0E196FFF0E1A6FF9ECADF045D0910E07
:102990000101176F010E186FE40E196FFF0E1A6F09
:1029A000F9ECADF039D0910E0101176F010E186FDF
:1029B000F00E196FFF0E1A6FF9ECADF02DD0910EDD
:1029C0000101176F010E186FF80E196FFF0E1A6FC5
:1029D000F9ECADF021D0910E0101176F010E186FC7
:1029E000C60E196FFF0E1A6FF9ECADF015D001018C
:1029F0008F51000AD8B4A7D7010AD8B4B0D7030AB8
:102A0000D8B4B9D7010AD8B4C2D7070AD8B4CBD73B
:102A1000010AD8B4D4D7DFD7910E0101176F010E88
:102A2000186FFA0E196FFF0E1A6FF9ECADF06CD03B
:102A3000910E0101176F010E186FC50E196FFF0E71
:102A40001A6FF9ECADF07BD0910E0101176F010EFA
:102A5000186FCB0E196FFF0E1A6FF9ECADF06FD037
:102A6000910E0101176F010E186FD10E196FFF0E35
:102A70001A6FF9ECADF063D0910E0101176F010EE2
:102A8000186FD70E196FFF0E1A6FF9ECADF057D013
:102A9000910E0101176F010E186FDD0E196FFF0EF9
:102AA0001A6FF9ECADF04BD0910E0101176F010ECA
:102AB000186FE30E196FFF0E1A6FF9ECADF03FD0EF
:102AC000910E0101176F010E186FE90E196FFF0EBD
:102AD0001A6FF9ECADF033D0910E0101176F010EB2
:102AE000186FEF0E196FFF0E1A6FF9ECADF027D0CB
:102AF000910E0101176F010E186FEF0E196FFF0E87
:102B00001A6FF9ECADF01BD001019051000AD8B456
:102B10008FD7010AD8B498D7030AD8B4A1D7010A2D
:102B2000D8B4AAD7070AD8B4B3D7010AD8B4BCD747
:102B3000030AD8B4C5D7010AD8B4CED7D9D7910ED5
:102B40000101176F010E186FFA0E196FFF0E1A6F41
:102B5000F9ECADF06CD0910E0101176F010E186FFA
:102B6000C80E196FFF0E1A6FF9ECADF07BD0910E05
:102B70000101176F010E186FCE0E196FFF0E1A6F3D
:102B8000F9ECADF06FD0910E0101176F010E186FC7
:102B9000D40E196FFF0E1A6FF9ECADF063D0910EE1
:102BA0000101176F010E186FDA0E196FFF0E1A6F01
:102BB000F9ECADF057D0910E0101176F010E186FAF
:102BC000E00E196FFF0E1A6FF9ECADF04BD0910EBD
:102BD0000101176F010E186FE60E196FFF0E1A6FC5
:102BE000F9ECADF03FD0910E0101176F010E186F97
:102BF000EC0E196FFF0E1A6FF9ECADF033D0910E99
:102C00000101176F010E186FF20E196FFF0E1A6F88
:102C1000F9ECADF027D0910E0101176F010E186F7E
:102C2000F20E196FFF0E1A6FF9ECADF01BD0010117
:102C30008E51000AD8B48FD7010AD8B498D7030AA6
:102C4000D8B4A1D7010AD8B4AAD7070AD8B4B3D741
:102C5000010AD8B4BCD7030AD8B4C5D7010AD8B47E
:102C6000CED7D9D7910E0101176F010E186FFC0E48
:102C7000196FFF0E1A6FF9ECADF0910E0101646F40
:102C8000010E656F00EC80F0120001015E6F6D0EA9
:102C900001015E65AFD0000E286F030E276F000E96
:102CA000206F0A0E1F6F000E1A6F640E196F5EC13F
:102CB00017F1186BFFECAAF017C11DF118C11EF136
:102CC00046ECA9F0090E01011D25256F000E1E21FD
:102CD000266FD4ECAFF0380E01012525F66EF40E08
:102CE0002621F76EF86A000EF8220900F5CF49F1A7
:102CF0000900F5CF4AF10A00F5CF4BF1000E206F25
:102D0000640E1F6F5EC11DF11E6B46ECA9F0120E22
:102D100001011D25256F000E1E21266F000E286F54
:102D2000030E276FD4ECAFF0380E01012525F66EA7
:102D3000F40E2621F76EF86A000EF8220900F5CF8E
:102D400046F10900F5CF47F10A00F5CF48F1CEEC86
:102D5000A2F046C15BF147C15CF148C15DF1000ED4
:102D60000101286F030E276F000E1A6F0A0E196FEC
:102D70005EC117F1186BFFECAAF017C125F118C15D
:102D800026F1D4ECAFF0380E01012525F66EF40ED5
:102D90002621F76EF86A000EF8220900F5CF49F1F6
:102DA0000900F5CF4AF10A00F5CF4BF15BC146F1BE
:102DB0005CC147F15DC148F1CEECA2F046C158F1CB
:102DC00047C159F148C15AF158C146F159C147F1BB
:102DD0005AC148F1000E0101496F000E4A6F3F0EC3
:102DE0004B6FCEECA2F046C155F147C156F148C138
:102DF00057F112000A0E01015E656DD0000E286FBA
:102E0000030E276F000E1A6F0A0E196F5EC117F1BD
:102E1000186BFFECAAF017C125F118C126F1D4EC0C
:102E2000AFF0380E01012525F66EF40E2621F76E5F
:102E3000F86A000EF8220900F5CF49F10900F5CF34
:102E40004AF10A00F5CF4BF1000E206F0A0E1F6FFA
:102E50005EC11DF11E6B46ECA9F0090E01011D2596
:102E6000256F000E1E21266F000E286F030E276FA0
:102E7000D4ECAFF0380E01012525F66EF40E2621B4
:102E8000F76EF86A000EF8220900F5CF46F1090046
:102E9000F5CF47F10A00F5CF48F1CEECA2F046C1DC
:102EA0005BF147C15CF148C15DF15BC146F15CC1BA
:102EB00047F15DC148F1000E0101496F000E4A6FF4
:102EC0003F0E4B6FCEECA2F046C155F147C156F113
:102ED00048C157F1120001015E51030D380EF32471
:102EE000F66EF40EF420F76EF86A000EF822090070
:102EF000F5CF46F10900F5CF47F10A00F5CF48F1CB
:102F0000000E496F000E4A6F3F0E4B6FCEECA2F0E1
:102F100046C155F147C156F148C157F112003F6E05
:102F20006D0E3F64A8D0000E126E030E116E000EDF
:102F30000A6E0A0E096E000E046E640E036E3FC028
:102F400001F0026A38ECABF001C007F002C008F0F3
:102F5000CBECA9F0090E07240F6E000E0820106EAE
:102F600036ECB0F0380E0F24F66EF40E1020F76E2B
:102F7000F86A000EF8220900F5CF2AF00900F5CF13
:102F80002BF00A00F5CF2CF0000E0A6E640E096ECD
:102F90003FC007F0086ACBECA9F0120E07240F6EB1
:102FA000000E0820106E000E126E030E116E36EC2D
:102FB000B0F0380E0F24F66EF40E1020F76EF86A9B
:102FC000000EF8220900F5CF27F00900F5CF28F010
:102FD0000A00F5CF29F0C3ECA3F027C03CF028C0CD
:102FE0003DF029C03EF0000E126E030E116E000E71
:102FF000046E0A0E036E3FC001F0026A38ECABF0BB
:1030000001C00FF002C010F036ECB0F0380E0F2403
:10301000F66EF40E1020F76EF86A000EF822090022
:10302000F5CF2AF00900F5CF2BF00A00F5CF2CF0F0
:103030003CC027F03DC028F03EC029F0C3ECA3F00F
:1030400027C039F028C03AF029C03BF039C027F03A
:103050003AC028F03BC029F0000E2A6E000E2B6EFD
:103060003F0E2C6EC3ECA3F027C036F028C037F01B
:1030700029C038F012000A0E3F6469D0000E126EAB
:10308000030E116E000E046E0A0E036E3FC001F0B7
:10309000026A38ECABF001C00FF002C010F036EC61
:1030A000B0F0380E0F24F66EF40E1020F76EF86AAA
:1030B000000EF8220900F5CF2AF00900F5CF2BF019
:1030C0000A00F5CF2CF0000E0A6E0A0E096E3FC002
:1030D00007F0086ACBECA9F0090E07240F6E000E6A
:1030E0000820106E000E126E030E116E36ECB0F05A
:1030F000380E0F24F66EF40E1020F76EF86A000EEC
:10310000F8220900F5CF27F00900F5CF28F00A00D2
:10311000F5CF29F0C3ECA3F027C03CF028C03DF068
:1031200029C03EF03CC027F03DC028F03EC029F049
:10313000000E2A6E000E2B6E3F0E2C6EC3ECA3F019
:1031400027C036F028C037F029C038F012003F50B1
:10315000030D380EF324F66EF40EF420F76EF86AC1
:10316000000EF8220900F5CF27F00900F5CF28F06E
:103170000A00F5CF29F0000E2A6E000E2B6E3F0ECE
:103180002C6EC3ECA3F027C036F028C037F029C05E
:1031900038F01200000E2A6E800E2B6E3F0E2C6E41
:1031A00079C027F07AC028F07BC029F090ECAFF00E
:1031B00027C02DF028C02EF029C02FF0B8ECA8F0C1
:1031C000D8B00CD0000E0001D86F210ED76F000EC2
:1031D000796F000E7A6F000E7B6F1200000E0001F7
:1031E0007C6F800E7D6F3F0E7E6F79C02AF07AC0B3
:1031F0002BF07BC02CF079C027F07AC028F07BC080
:1032000029F0C3ECA3F027C024F028C025F029C082
:1032100026F049ECB0F024C040F025C041F026C0B3
:1032200042F0000E436E800E446E3F0E456EC9ECB8
:103230009DF040C07FF041C080F042C081F07FC06F
:1032400066F080C067F081C068F09FEC9EF066C0B9
:1032500088F067C089F068C08AF079C027F07AC02A
:1032600028F07BC029F090ECAFF027C02AF028C0EE
:103270002BF029C02CF0C30E2D6E350E2E6E3F0E96
:103280002F6EB8ECA8F0D8B023D079C015F07AC072
:1032900016F07BC017F088C018F089C019F08AC0FA
:1032A0001AF0B1ECA4F015C08BF016C08CF017C06A
:1032B0008DF08BC058F08CC059F08DC05AF011ECD5
:1032C0009CF058C079F059C07AF05AC07BF01200D7
:1032D00000017BAF55D079C018F07AC019F07BC0DF
:1032E0001AF088C024F089C025F08AC026F049EC85
:1032F000B0F024C015F025C016F026C017F0B1ECD0
:10330000A4F015C08BF016C08CF017C08DF08BC0E8
:1033100058F08CC059F08DC05AF011EC9CF058C098
:1033200085F059C086F05AC087F0100E436EC90E62
:10333000446E3F0E456E85C024F086C025F087C0E0
:1033400026F049ECB0F024C040F025C041F026C082
:1033500042F0C9EC9DF040C082F041C083F042C011
:1033600084F082C024F083C025F084C026F049ECAC
:10337000B0F024C079F025C07AF026C07BF01200AE
:1033800079C018F07AC019F07BC01AF088C015F027
:1033900089C016F08AC017F0B1ECA4F015C08BF00C
:1033A00016C08CF017C08DF08BC058F08CC059F04F
:1033B0008DC05AF011EC9CF058C085F059C086F0D1
:1033C0005AC087F085C024F086C025F087C026F05B
:1033D00049ECB0F024C040F025C041F026C042F0D6
:1033E000100E436EC90E446E3F0E456EC9EC9DF043
:1033F00040C079F041C07AF042C07BF01200000E6C
:103400000001726F68AF11D066C024F067C025F06C
:1034100068C026F049ECB0F024C066F025C067F023
:1034200026C068F0010E0001726F66C027F067C009
:1034300028F068C029F0FA0E2A6E220E2B6E3E0E7E
:103440002C6EC3ECA3F027C066F028C067F029C03B
:1034500068F066C060F067C061F068C062F066C086
:1034600056F067C057F068C058F024ECA5F056C07D
:1034700063F057C064F058C065F0CEECAEF060C0A9
:1034800066F061C067F062C068F066C027F067C090
:1034900028F068C029F0000E2A6E800E2B6E400EB8
:1034A0002C6EC3ECA3F027C066F028C067F029C0DB
:1034B00068F0000E2A6E000E2B6E400E2C6E66C059
:1034C0002DF067C02EF068C02FF0B8ECA8F0D8B08F
:1034D0001DD066C060F067C061F068C062F0000E89
:1034E0000001636F000E646F400E656FCEECAEF0AE
:1034F00060C066F061C067F062C068F000017251A0
:10350000D8A402D0010E01D0000E726F000E2A6EF8
:10351000800E2B6E3F0E2C6E66C02DF067C02EF015
:1035200068C02FF0B8ECA8F0D8B01CD066C024F06A
:1035300067C025F068C026F049ECB0F024C040F028
:1035400025C041F026C042F0000E436E000E446ECE
:10355000400E456EC9EC9DF040C066F041C067F07A
:1035600042C068F066C027F067C028F068C029F044
:1035700066C02AF067C02BF068C02CF0C3ECA3F043
:1035800027C06FF028C070F029C071F06FC04CF0F8
:1035900070C04DF071C04EF0AF0E4F6EF40E506E15
:1035A000000E526E030E516E93ECA5F04CC069F004
:1035B0004DC06AF04EC06BF069C018F06AC019F0D7
:1035C0006BC01AF0000E526E040E516E910E4F6ECB
:1035D000F40E506E6FC04CF070C04DF071C04EF0E4
:1035E00093ECA5F04CC015F04DC016F04EC017F08E
:1035F000B1ECA4F015C06CF016C06DF017C06EF001
:1036000066C027F067C028F068C029F06CC02AF0B7
:103610006DC02BF06EC02CF0C3ECA3F027C066F099
:1036200028C067F029C068F000017251D8B40FD0EB
:1036300066C024F067C025F068C026F049ECB0F001
:1036400024C066F025C067F026C068F0120066C08E
:1036500066F067C067F068C068F01200000E0001F5
:10366000A36F000EA46F000EA56F000E8E6F800E6C
:103670008F6FBF0E906F56ECADF08EC0A0F08FC074
:10368000A1F090C0A2F0A0C027F0A1C028F0A2C075
:1036900029F0000E2A6E000E2B6E400E2C6EC3EC2D
:1036A000A3F027C0A3F028C0A4F029C0A5F0000E05
:1036B0002A6E000E2B6E400E2C6E97C027F098C01D
:1036C00028F099C029F0C3ECA3F027C024F028C04B
:1036D00025F029C026F049ECB0F024C040F025C008
:1036E00041F026C042F0A3C043F0A4C044F0A5C0FE
:1036F00045F0C9EC9DF040C0A3F041C0A4F042C029
:10370000A5F0000E2A6E000E2B6E400E2C6E97C098
:1037100027F098C028F099C029F0C3ECA3F027C087
:103720009AF028C09BF029C09CF09AC066F09BC01C
:1037300067F09CC068F0FFEC99F066C09DF067C030
:103740009EF068C09FF09DC040F09EC041F09FC0B9
:1037500042F0A3C043F0A4C044F0A5C045F0C9ECBA
:103760009DF040C0A3F041C0A4F042C0A5F0000EFF
:1037700000018E6F800E8F6FBF0E906F56ECADF014
:103780008EC0A0F08FC0A1F090C0A2F0A3C015F031
:10379000A4C016F0A5C017F0000E2A6E800E2B6E86
:1037A000400E2C6EA0C027F0A1C028F0A2C029F0C6
:1037B000C3ECA3F027C018F028C019F029C01AF0F4
:1037C000B1ECA4F015C0A3F016C0A4F017C0A5F08A
:1037D000A3C066F0A4C067F0A5C068F09FEC9EF09F
:1037E00066C0A3F067C0A4F068C0A5F094C027F03D
:1037F00095C028F096C029F0A3C02AF0A4C02BF0F1
:10380000A5C02CF0C3ECA3F027C0A3F028C0A4F0FF
:1038100029C0A5F0A3C094F0A4C095F0A5C096F06F
:10382000120058C027F059C028F05AC029F090EC77
:10383000AFF027C06AF028C06BF029C06CF000011F
:103840006A516B116C11D8A407D0000E586E000E8F
:10385000596E000E5A6E1200000E2A6E800E2B6EEC
:103860003F0E2C6E6AC02DF06BC02EF06CC02FF096
:10387000B8ECA8F0D8B002D0010E01D0000E0001C3
:10388000666F6651D8B414D0000E156E800E166E99
:103890003F0E176E6AC018F06BC019F06CC01AF0BA
:1038A000B1ECA4F015C06AF016C06BF017C06CF054
:1038B0006AC027F06BC028F06CC029F06AC02AF0FB
:1038C0006BC02BF06CC02CF0C3ECA3F027C067F0EA
:1038D00028C068F029C069F067C04CF068C04DF09E
:1038E00069C04EF0A00E4F6EF40E506E000E526E78
:1038F000040E516E93ECA5F04CC060F04DC061F029
:103900004EC062F067C04CF068C04DF069C04EF028
:103910007F0E4F6EF40E506E000E526E050E516EFD
:1039200093ECA5F04CC063F04DC064F04EC065F060
:103930006AC027F06BC028F06CC029F060C018F096
:1039400061C019F062C01AF063C015F064C016F0CF
:1039500065C017F0B1ECA4F015C02AF016C02BF02A
:1039600017C02CF0C3ECA3F027C06AF028C06BF09E
:1039700029C06CF000016651D8B41CD06AC024F094
:103980006BC025F06CC026F049ECB0F024C040F0CC
:1039900025C041F026C042F0100E436EC90E446EA1
:1039A0003F0E456EC9EC9DF040C06AF041C06BF01F
:1039B00042C06CF05ABE07D06AC058F06BC059F0D4
:1039C0006CC05AF012006AC024F06BC025F06CC0C5
:1039D00026F049ECB0F024C058F025C059F026C0BC
:1039E0005AF012002DC131F10101326B336B2C35CD
:1039F000313701E332813151366F30C131F1326BF1
:103A0000336B2F35313701E332813151356F365108
:103A1000D8B40BD03551365DD8B00ED03651000831
:103A20003525316F180E316507D02EC12BF12FC10E
:103A30002CF130C12DF112003551D8B40BD03651D4
:103A4000355DD8B00ED0355100083625316F180ECF
:103A5000316507D02BC12BF12CC12CF12DC12DF1DB
:103A60001200060E346F2DBF348F30BF348D2C8F73
:103A7000FF0E2B17FF0E2C17000E2D172F8FFF0E8A
:103A80002E17FF0E2F17000E30173551365DD8B0A8
:103A90001BD0D8902E372F37303735073651351990
:103AA000D8B40DD0340734C131F1070E3117D8B472
:103AB00006D0EFD7D8902D332C332B33362B3551FE
:103AC0003619D8B41FD0F6D73651355DD8B01AD0D4
:103AD000D8902B372C372D37360736513519D8B4B7
:103AE0000DD0340734C131F1070E3117D8B406D0E8
:103AF000EFD7D89030332F332E33352B355136193D
:103B0000D8A4F7D734AF0CD0FF0E2B1BFF0E2C1B05
:103B1000FF0E2D1B010E2B27000E2C23000E2D2334
:103B200034AD0CD0FF0E2E1BFF0E2F1BFF0E301BD3
:103B3000010E2E27000E2F23000E3023000E346FAF
:103B40002B512E272C512F232D51302330AF0ED047
:103B5000FF0E2E1BFF0E2F1BFF0E301B010E2E27FC
:103B6000000E2F23000E3023010E346F2EC117F1EB
:103B70002FC118F130C119F136C11AF134C11BF14E
:103B8000D2ECA6F017C12BF118C12CF119C12DF1FF
:103B9000120042C046F0476A486A4134463601E3A3
:103BA000478046504B6E45C046F0476A486A4434E9
:103BB000463601E3478046504A6E4B50D8B40BD08E
:103BC0004A504B5CD8B00ED04B5000084A24466E89
:103BD000180E466407D043C040F044C041F045C0D1
:103BE00042F012004A50D8B40BD04B504A5CD8B0C7
:103BF0000ED04A5000084B24466E180E466407D07B
:103C000040C040F041C041F042C042F01200060EF8
:103C1000496E42BE498E45BE498C418EFF0E40160C
:103C2000FF0E4116000E4216448EFF0E4316FF0E85
:103C30004416000E45164A504B5CD8B01BD0D890A5
:103C40004336443645364A064B504A18D8B40DD050
:103C5000490649C046F0070E4616D8B406D0EFD73D
:103C6000D8904232413240324B2A4A504B18D8B495
:103C70001FD0F6D74B504A5CD8B01AD0D8904036F7
:103C8000413642364B064B504A18D8B40DD049063F
:103C900049C046F0070E4616D8B406D0EFD7D890E4
:103CA0004532443243324A2A4A504B18D8A4F7D7F7
:103CB00049AE0CD0FF0E401AFF0E411AFF0E421AF9
:103CC000010E4026000E4122000E422249AC0CD0CB
:103CD000FF0E431AFF0E441AFF0E451A010E43262B
:103CE000000E4422000E4522000E496E405043262D
:103CF000415044224250452245AE0ED0FF0E431A99
:103D0000FF0E441AFF0E451A010E4326000E4422F0
:103D1000000E4522010E496E43C001F044C002F07E
:103D200045C003F04BC004F049C005F02AECA7F0F1
:103D300001C040F002C041F003C042F01200000E8A
:103D40002A6E000E2B6E000E2C6E66C02DF067C022
:103D50002EF068C02FF0B8ECA8F0D8A00ED000016B
:103D600068AF04D0000ED86F210ED76F000E666FBB
:103D7000000E676F000E686F120066C070F067C0BB
:103D800071F068C072F066C069F067C06AF068C020
:103D90006BF00001691F6A1F6B1F692B000E6A23FD
:103DA0006B23C80E6925766F6E0E6A21776FBE0E83
:103DB0006B21786FD890783377337633000E705F4D
:103DC000800E715B000E725B040E6F6F76C06CF03C
:103DD00077C06DF078C06EF076C027F077C028F01D
:103DE00078C029F070C02AF071C02BF072C02CF09E
:103DF000C3ECA3F027C073F028C074F029C075F09D
:103E000073C027F074C028F075C029F076C02AF07E
:103E100077C02BF078C02CF0C3ECA3F027C073F070
:103E200028C074F029C075F073C027F074C028F062
:103E300075C029F076C02AF077C02BF078C02CF03E
:103E4000C3ECA3F027C073F028C074F029C075F04C
:103E500076C027F077C028F078C029F0000E2A6ECF
:103E6000C00E2B6E3F0E2C6EC3ECA3F027C076F075
:103E700028C077F029C078F076C060F077C061F094
:103E800078C062F073C063F074C064F075C065F010
:103E9000CEECAEF060C076F061C077F062C078F032
:103EA00000016F2F93D776C027F077C028F078C035
:103EB00029F066C02AF067C02BF068C02CF0C3EC74
:103EC000A3F027C066F028C067F029C068F0120090
:103ED00019C11DF101011E6B1F6B18351D3701E360
:103EE0001E811D51256F2551D8A409D0000E176FD2
:103EF000000E186F000E196F000E1A6F12001CC111
:103F00001DF11E6B1F6B1B351D3701E31E811D51FB
:103F1000246F2451D8A409D0000E176F000E186F1B
:103F2000000E196F000E1A6F1200188FFF0E171770
:103F3000FF0E1817000E19171B8FFF0E1A17FF0E12
:103F40001B17000E1C17000E206F000E216F000EB5
:103F5000226F000E236F7F0E255F2451980F255F7F
:103F6000180E246FD89020372137223723371A5163
:103F7000175D1B5118591C511959D8A007D01A5157
:103F8000175F1B51185B1C51195B2081D8901737A4
:103F900018371937242FE6D725AF16D02551800AB8
:103FA000970FD8B009D0000E176F000E186F000ED3
:103FB000196F000E1A6F1200D89023332233213369
:103FC0002033253FF9D715D0170E25650FD0000EE9
:103FD000176F000E186F000E196F000E1A6F120087
:103FE000D890203721372237233725072551D8A4E9
:103FF000F7D720C117F121C118F122C119F123C14E
:104000001AF1120003C007F0086A096A0234073681
:1040100001E3088007500F6E0F50D8A409D0000E9E
:10402000016E000E026E000E036E000E046E120092
:1040300006C007F0086A096A0534073601E30880FC
:1040400007500E6E0E50D8A409D0000E016E000E5F
:10405000026E000E036E000E046E1200028EFF0E42
:104060000116FF0E0216000E0316058EFF0E041633
:10407000FF0E0516000E0616000E0A6E000E0B6EE1
:10408000000E0C6E000E0D6E7F0E0F5E0E50980F20
:104090000F5E180E0E6ED8900A360B360C360D36A3
:1040A0000450015C0550025806500358D8A007D0B0
:1040B0000450015E0550025A0650035A0A80D890F7
:1040C0000136023603360E2EE6D70FAE16D00F504D
:1040D000800A970FD8B009D0000E016E000E026E54
:1040E000000E036E000E046E1200D8900D320C32DA
:1040F0000B320A320F3EF9D715D0170E0F640FD0CE
:10410000000E016E000E026E000E036E000E046EB5
:104110001200D8900A360B360C360D360F060F50AB
:10412000D8A4F7D70AC001F00BC002F00CC003F00E
:104130000DC004F01200010119351A35226F225109
:10414000D8A409D0000E176F000E186F000E196F5B
:10415000000E1A6F12001C351D35216F2151D8A495
:1041600009D0000E176F000E186F000E196F000EA9
:104170001A6F1200198FFF0E1717FF0E1817FF0E78
:104180001917000E1A171C8FFF0E1A17FF0E1B1798
:10419000FF0E1C17000E1D17000E1D6F000E1E6F68
:1041A000000E1F6F000E206F7F0E225F2151A00FA7
:1041B000225F200E216FD8901D371E371F37203702
:1041C0001A51175D1B5118591C5119591D511A5973
:1041D000D8A009D01A51175F1B51185B1C51195BED
:1041E0001D511A5B1D81D8901737183719371A37A8
:1041F000212FE1D722AF16D02251800A9F0FD8B0CD
:1042000009D0000E176F000E186F000E196F000E08
:104210001A6F1200D89020331F331E331D33223FF4
:10422000F9D715D01F0E22650FD0000E176F000EA4
:10423000186F000E196F000E1A6F1200D8901D37FC
:104240001E371F37203722072251D8A4F7D71DC1A8
:1042500017F11EC118F11FC119F120C11AF1120086
:10426000033404340C6E0C50D8A409D0000E016E37
:10427000000E026E000E036E000E046E1200063475
:1042800007340B6E0B50D8A409D0000E016E000E3F
:10429000026E000E036E000E046E1200038EFF0EFF
:1042A0000116FF0E0216FF0E0316000E0416068EF0
:1042B000FF0E0416FF0E0516FF0E0616000E07165B
:1042C000000E076E000E086E000E096E000E0A6EDC
:1042D0007F0E0C5E0B50A00F0C5E200E0B6ED89064
:1042E0000736083609360A360450015C0550025874
:1042F0000650035807500458D8A009D00450015E56
:104300000550025A0650035A0750045A0780D890A5
:1043100001360236033604360B2EE1D70CAE16D02A
:104320000C50800A9F0FD8B009D0000E016E000E0D
:10433000026E000E036E000E046E1200D8900A3258
:104340000932083207320C3EF9D715D01F0E0C6423
:104350000FD0000E016E000E026E000E036E000EF6
:10436000046E1200D8900736083609360A360C0655
:104370000C50D8A4F7D707C001F008C002F009C05C
:1043800003F00AC004F01200DBC1B1F10101B26B0D
:10439000000EB66F000EB56FB6BF06D0B6510FE176
:1043A000400EB55DD8B00BD0C00EB525D96E020E4B
:1043B000B621DA6E000EDF6EB54BB62BEDD7000ED0
:1043C000B46F000EB36F0ED08BECAEF00101AE6F88
:1043D000C00EB325D96E020EB421DA6EAEC1DFFF76
:1043E000B34BB42BB151B35DB451800AAE6FB2512F
:1043F000800AAE59D8A0E8D7DCC0DCF117D0FF0E98
:10440000AE6FFF0EAF6FC00E176F020E186F2AEC63
:10441000ADF00101AE511727AF511823C00E17257B
:10442000D96E020E1821DA6E000EDF6EFF0EAE6F2F
:10443000FF0EAF6FC00E176F020E186F2AECADF0B3
:104440000101AE511727AF511823C00E1725D96EA1
:10445000020E1821DA6E0A0EDE18D8B4D0D7FF0E7D
:10446000AE6FFF0EAF6FC00E176F020E186F2AEC03
:10447000ADF00101AE511727AF511823C00E17251B
:10448000D96E020E1821DA6E0D0EDE18D8B4B7D729
:104490000001E991C00E0101A06F020EA16F2BEC8B
:1044A0008AF0120057C159F101015A6B5B6B563506
:1044B000593701E35A815951636F6351D8A409D028
:1044C000000E556F000E566F000E576F000E586F9E
:1044D0001200170E596F55C15AF156C15BF157C101
:1044E0005CF159295D6F04D0D8905C335B335A334B
:1044F0005D2FFAD701015A515E6F568FFF0E551787
:10450000FF0E5617000E571755515F6F5651606FCB
:104510005751616F626B8E0E635F63AF16D063514C
:10452000800A8F0FD8B009D0000E556F000E566F5D
:10453000000E576F000E586F1200D890623361332F
:1045400060335F33633FF9D715D0170E63650FD023
:10455000000E556F000E566F000E576F000E586F0D
:104560001200D8905F376037613762376307635155
:10457000D8A4F7D75E51D8B408D0621F611F601F5E
:104580005F6D000E6023612362235FC155F160C13E
:1045900056F161C157F162C158F1120048C14CF1A6
:1045A00001014D6B4E6B47354C3701E34D814C514A
:1045B0004F6F4F51D8A407D0000E466F000E476FC3
:1045C000000E486F12004BC14CF14D6B4E6B4A35DB
:1045D0004C3701E34D814C51546F5451D8A407D04E
:1045E000000E466F000E476F000E486F12005451C8
:1045F0007B0F4F2748C154F14B51541B800E541769
:10460000478F4A8FFF0E4917FF0E4A17000E4B17B0
:10461000000E506F000E516F000E526F070E536F59
:1046200046A106D0495150274A5151234B5152239C
:10463000D890483347334633D89049374A374B37B9
:10464000532FEED7090E536F46A106D0495150277C
:104650004A5151234B515223D89048334733463364
:10466000D890523351335033532FEED750C117F1F6
:1046700051C118F152C119F14FC11AF154C11BF1C6
:10468000D2ECA6F017C146F118C147F119C148F1A3
:1046900012003FC041F0426A436A3E34413601E3B2
:1046A000428041504B6E4B50D8A409D0000E3D6E55
:1046B000000E3E6E000E3F6E000E406E1200170E92
:1046C000416E3DC042F03EC043F03FC044F041283F
:1046D000456E04D0D890443243324232452EFAD748
:1046E0004250466E3E8EFF0E3D16FF0E3E16000EE9
:1046F0003F163D50476E3E50486E3F50496E4A6AE5
:104700008E0E4B5E4BAE16D04B50800A8F0FD8B03A
:1047100009D0000E3D6E000E3E6E000E3F6E000E84
:10472000406E1200D8904A324932483247324B3EEE
:10473000F9D715D0170E4B640FD0000E3D6E000E4A
:104740003E6E000E3F6E000E406E1200D89047364F
:10475000483649364A364B064B50D8A4F7D7465010
:10476000D8B408D04A1E491E481E476C000E482285
:1047700049224A2247C03DF048C03EF049C03FF0C0
:104780004AC040F0120029C02DF02E6A2F6A28344A
:104790002D3601E32E802D50306E3050D8A407D036
:1047A000000E276E000E286E000E296E12002CC01F
:1047B0002DF02E6A2F6A2B342D3601E32E802D50DA
:1047C000356E3550D8A407D0000E276E000E286E27
:1047D000000E296E120035507B0F302629C035F0AF
:1047E0002C50351A800E3516288E2B8EFF0E2A1669
:1047F000FF0E2B16000E2C16000E316E000E326EC0
:10480000000E336E070E346E27A006D02A503126D4
:104810002B5032222C503322D89029322832273282
:10482000D8902A362B362C36342EEED7090E346E1D
:1048300027A006D02A5031262B5032222C5033226A
:10484000D890293228322732D8903332323231325E
:10485000342EEED731C001F032C002F033C003F085
:1048600030C004F035C005F02AECA7F001C027F0F5
:1048700002C028F003C029F0120039C13DF1010146
:104880003E6B3F6B38353D3701E33E813D51446F10
:104890004451D8A407D0000E376F000E386F000EB9
:1048A000396F12003CC13DF13E6B3F6B3B353D37EC
:1048B00001E33E813D51456F4551D8A407D0000E1C
:1048C000376F000E386F000E396F1200000E416F07
:1048D000000E426F000E436F4551890F445F39C18E
:1048E00045F13C51451B800E4517388FFF0E371799
:1048F000FF0E3817000E39173B8FFF0E3A17FF0EC9
:104900003B17000E3C17180E406FD89041374237C6
:1049100043373A51375D3B5138593C513959D8A04A
:1049200007D03A51375F3B51385B3C51395B41818D
:10493000D890373738373937402FE7D741C117F18B
:1049400042C118F143C119F144C11AF145C11BF12B
:10495000D2ECA6F017C137F118C138F119C139F1FD
:10496000120017C01BF01C6A1D6A16341B3601E3C7
:104970001C801B501F6E1F50D8A407D0000E156E50
:10498000000E166E000E176E12001AC01BF01C6A85
:104990001D6A19341B3601E31C801B50236E235003
:1049A000D8A407D0000E156E000E166E000E176EFE
:1049B0001200000E206E000E216E000E226E23509B
:1049C000890F1F5E17C023F01A50231A800E23167A
:1049D000168EFF0E1516FF0E1616000E1716198EE0
:1049E000FF0E1816FF0E1916000E1A16180E1E6E60
:1049F000D8902036213622361850155C195016589A
:104A00001A501758D8A007D01850155E1950165ACA
:104A10001A50175A2080D8901536163617361E2E83
:104A2000E7D720C001F021C002F022C003F01FC070
:104A300004F023C005F02AECA7F001C015F002C075
:104A400016F003C017F0120056C001F057C002F074
:104A500058C003F05C0E046E000E056E4EECAAF01A
:104A60005DAE10D058AE07D0000E566E800E576E59
:104A7000BF0E586E1200000E566E000E576E000EDE
:104A8000586E12005D5004E1150E5C5CD8A007D092
:104A900056C056F057C057F058C058F0120056C0D4
:104AA0003DF057C03EF058C03FF049ECA3F03DC088
:104AB0004CF03EC04DF03FC04EF040C04FF08AEC8D
:104AC000AAF04CC059F04DC05AF04EC05BF056C031
:104AD0002AF057C02BF058C02CF059C02DF05AC006
:104AE0002EF05BC02FF0B8ECA8F0D8B015D059C0AC
:104AF00040F05AC041F05BC042F0000E436E800EA1
:104B0000446EBF0E456EC9EC9DF040C056F041C0EA
:104B100057F042C058F0120059C056F05AC057F032
:104B20005BC058F0120051C00FF052C010F0000EE0
:104B3000126E030E116E36ECB0F04FC053F050C041
:104B400054F00F5053261050542253C0F6FF54C057
:104B5000F7FF000EF86E0900F5CF55F00900F5CF0C
:104B600056F00A00F5CF57F040D055C02AF056C095
:104B70002BF057C02CF04CC027F04DC028F04EC091
:104B800029F0C3ECA3F027C040F028C041F029C0B1
:104B900042F0000E126E030E116E5106D8A052069E
:104BA00051C00FF052C010F036ECB0F04FC053F0CF
:104BB00050C054F00F5053261050542253C0F6FFEB
:104BC00054C0F7FF000EF86E0900F5CF43F009005E
:104BD000F5CF44F00A00F5CF45F0C9EC9DF040C098
:104BE00055F041C056F042C057F051505210D8A471
:104BF000BCD755C04CF056C04DF057C04EF0120017
:104C000003D001012B4B2C2B2BC1D9FF2CC1DAFF78
:104C1000200EDE18D8B4F5D72BC1D9FF2CC1DAFF8E
:104C2000090EDE18D8B4EDD7000E0101316F000E69
:104C3000306F000E2F6F2BC1D9FF2CC1DAFF2D0E64
:104C4000DE18D8A402D02F2B26D02BC1D9FF2CC11F
:104C5000DAFF2B0EDE18D8A420D01DD030C125F1EC
:104C600031C126F1000E0101286F0A0E276FD4EC26
:104C7000AFF02BC1D9FF2CC1DAFFDF5001012D6F3E
:104C80002E6B25512D2726512E23D00E2D25306F2A
:104C9000FF0E2E21316F2B4B2C2B2BC1D9FF2CC19A
:104CA000DAFFDF506DECB0F0D8B0D8D701012F514A
:104CB000D8B40DD030C12DF131C12EF12D1F2E1FD2
:104CC0002D4B2E2B2DC12BF12EC12CF1120030C1FA
:104CD0002BF131C12CF11200FACFB3F0FBCFB4F0BD
:104CE000E9CFB5F0EACFB6F0E1CFB7F0E2CFB8F058
:104CF000D9CFB9F0DACFBAF0F3CFBBF0F4CFBCF034
:104D0000F6CFBDF0F7CFBEF0F8CFBFF0F5CFC0F0D3
:104D10005EC0C1F05FC0C2F060C0C3F061C0C4F04B
:104D20000E012CBF36AF0DD001D816D00500FA6E9B
:104D30000001D451FD6ED551FE6ED651FF6EFA5072
:104D400012002EB938A903D05DECAFF005D02AB11E
:104D500034A102D0FCECAFF0C4C061F0C3C060F07D
:104D6000C2C05FF0C1C05EF0C0C0F5FFBFC0F8FFB9
:104D7000BEC0F7FFBDC0F6FFBCC0F4FFBBC0F3FF71
:104D8000BAC0DAFFB9C0D9FFB8C0E2FFB7C0E1FFCF
:104D9000B6C0EAFFB5C0E9FFB4C0FBFFB3C0FAFF7D
:104DA0005E92110001011A51D8B405D017511811A3
:104DB0001911D8A40CD0000E176F000E186F000E3A
