:040000007FEF00F09E
:060008005F829EEFA7F0ED
:100018005F80D8CF02F1E8CF03F1E0CF04F1FACF47
:1000280005F1FBCF06F1E9CF07F1EACF08F1E1CFFF
:1000380009F1E2CF0AF1D9CF0BF1DACF0CF1F3CF06
:100048000DF1F4CF0EF1F6CF0FF1F7CF10F1F8CF95
:1000580011F1F5CF12F15FC013F160C014F161C066
:1000680015F162C016F10E012EBB38AB03D02DEC92
:10007800B1F015D02CBD36AD0DD001D810D005008B
:10008800FA6E0101D351FD6ED451FE6ED551FF6E4B
:10009800FA5012002EBD38AD02D09FECB0F016C158
:1000A80062F015C161F014C160F013C15FF012C1B4
:1000B800F5FF11C1F8FF10C1F7FF0FC1F6FF0EC120
:1000C800F4FF0DC1F3FF0CC1DAFF0BC1D9FF0AC160
:1000D800E2FF09C1E1FF08C1EAFF07C1E9FF06C164
:1000E800FBFF05C1FAFF04C1E0FF03C1E8FF02C13D
:0A00F800D8FF5F90100034EFAEF067
:10F1780000010000000A00000064000000E803002D
:10F188000010270000A086010040420F00809698DA
:10F198000000E1F50500CA9A3B00803F00204100CD
:10F1A800C842007A44401C4650C347247449971803
:10F1B8004BBCBE4C6B6E4E03155079AD60F3497174
:10F1C80000803FCDCC3DD7233C12833AB7D138C617
:10F1D8002737388635C0D633CC2B32708930E7DBF9
:10F1E8002EE53C1E42A20D010000001000000000A8
:10F1F80001000000100000000001000000100000E5
:10F20800000001000000103C04429F6A4290014245
:10F218004DBB40EC473E8E1FBBF44A489595C7C18D
:10F22800DC45DC6DC3B333403C04425A8B42044492
:10F23800429C4F4100803F3401489DB04500DA426E
:10F2480000803F4C697374206F6620737570706F0F
:10F258007274656420636F6D6D616E64733A0A0D34
:10F268000A0D486F7573656B656570696E67204335
:10F278006F6D6D616E64733A0A0D202020526573BC
:10F2880065743A20436C65617273207468652074F4
:10F2980065726D696E616C20616E6420726573655C
:10F2A800747320746865206D6963726F0A0D20207D
:10F2B80020436C6561723A20436C656172732074F7
:10F2C8006865207465726D696E616C206275742062
:10F2D800646F65736E277420726573657420746833
:10F2E80065206D6963726F0A0D2020202A49444EFB
:10F2F8003F3A2052657475726E732064657669634F
:10F3080065206964656E74696669636174696F6EA6
:10F3180020737472696E670A0D202020446576692F
:10F328006365204F6E2054696D653F3A20526574BD
:10F3380075726E7320646576696365206F6E2074DC
:10F34800696D652073696E6365206C6173742064F0
:10F3580065766963652072657365740A0D202020DF
:10F3680048656C703A2054686973206D65737361E1
:10F3780067652C206C6973747320737570706F7275
:10F3880074656420636F6D6D616E64730A0D0A0D98
:10F39800486F7573656B656570696E67204D65614B
:10F3A800737572656D656E7420436F6D6D616E6403
:10F3B800733A0A0D2020204D6561737572652050DF
:10F3C8004F533350333F3A2052657475726E732031
:10F3D8002B332E33562041444320436F6E7665729B
:10F3E80073696F6E20696E20766F6C74730A0D20D6
:10F3F80020204D65617375726520504F5331323F3F
:10F408003A2052657475726E73202B313256204142
:10F41800444320436F6E76657273696F6E20696E20
:10F4280020766F6C74730A0D2020204D656173750A
:10F438007265204469652054656D703F3A205265B5
:10F448007475726E7320746865206D6963726F637A
:10F458006F6E74726F6C6C65722064696520746578
:10F468006D706572617475726520696E2064656778
:10F478007265657320430A0D2020204D6561737500
:10F488007265204656523F3A2052657475726E7303
:10F498002074686520696E7465726E616C20666997
:10F4A80078656420766F6C7461676520726566653F
:10F4B80072656E6365206275666665722031206FBD
:10F4C800757470757420696E20766F6C74730A0D8C
:10F4D8002020204D65617375726520415653533F56
:10F4E8003A2052657475726E7320746865206D6574
:10F4F8006173757265642076616C7565206F66202E
:10F50800416E616C6F672056535320696E20766F89
:10F518006C74730A0D0A0D5072696D617279204D11
:10F528006561737572656D656E7420436F6D6D618D
:10F538006E64733A0A0D2020204D656173757265FB
:10F548002044657465637465642043757272656EE2
:10F55800743F3A2052657475726E73206D656173DD
:10F5680075726564206F7574707574206375727236
:10F57800656E7420696E20616D70732061732073ED
:10F5880065656E206279204144430A0D2020204D94
:10F5980065617375726520524D53204375727265AB
:10F5A8006E743F3A2052657475726E732074686584
:10F5B8002063616C63756C6174656420524D5320DF
:10F5C8006F75747075742063757272656E742066D9
:10F5D800726F6D206D6561737572656D656E74739C
:10F5E80020616E6420545249414320666972696EF5
:10F5F8006720616E676C650A0D2020204D65617378
:10F6080075726520524D5320566F6C746167653F63
:10F618003A2052657475726E732074686520636150
:10F628006C63756C6174656420524D53206F7574FA
:10F6380070757420766F6C746167652066726F6D83
:10F6480020545249414320666972696E6720616E91
:10F65800676C650A0D2020204D6561737572652001
:10F66800506F7765723F3A2052657475726E7320D9
:10F678007468652063616C63756C61746564206F80
:10F68800757470757420706F77657220696E205775
:10F69800617474730A0D2020204C6F6164204F6ED2
:10F6A8002054696D653F3A2052657475726E7320F7
:10F6B8006C6F6164206F6E2074696D652073696E6C
:10F6C8006365206C61737420646576696365207274
:10F6D8006573657420696E207365636F6E64730A61
:10F6E8000D0A0D4F757470757420436F6E74726FC8
:10F6F8006C20436F6D6D616E64733A0A0D20202093
:10F70800456E61626C652044696D6D696E673A206B
:10F71800456E61626C65205452494143206F75748F
:10F728007075742064696D6D696E670A0D202020FC
:10F7380044697361626C652044696D6D696E673AEE
:10F748002044697361626C65205452494143206FBB
:10F7580075747075742064696D6D696E670A0D2023
:10F768002020456E61626C65204C6F61643A2045CB
:10F778006E61626C657320746865206F757470754E
:10F788007420545249414320776974682064696D34
:10F798006D696E672064697361626C65640A0D2027
:10F7A800202044697361626C65204C6F61643A2063
:10F7B80044697361626C657320746865206F757441
:10F7C80070757420545249414320636F6D706C65A5
:10F7D80074656C790A0D2020205365742044696D86
:10F7E8006D696E672050657263656E746167653A0E
:10F7F800203C783E3A205365747320746865206F06
:10F8080075747075742064696D6D696E67207065B4
:10F818007263656E74616765206173207820706516
:10F828007263656E740A0D0020202020426F6F7489
:10F8380020636F6D706C6574650A0D202020205060
:10F84800494331384636374B3430206D546F756331
:10F8580068205465737420426F6172640A0D202019
:10F8680020204576616C7561746573207468652025
:10F878006D546F756368206361706163697469763C
:10F888006520746F756368206C6962726172792093
:10F898006469737472696275746564206279204D55
:10F8A8006963726F636869700A0D202020205365B0
:10F8B800747320746865207374617465206F6620A2
:10F8C80066697665204C45447320626173656420DF
:10F8D8006F6E206D546F7563682063617061636932
:10F8E800746976652070757368627574746F6E7369
:10F8F8000A0D202020204261756420726174653AE7
:10F9080020313135323030206270730A0D202020CA
:10F91800204E6F207061726974792C2038206269DA
:10F9280074732C206E6F20666C6F7720636F6E7413
:10F93800726F6C2C20312073746F70206269740AA6
:10F948000D20202020436F6D6D616E6473206172FD
:10F958006520636173652073656E73697469766584
:10F968000A0D20202020456E746572206120636F87
:10F978006D6D616E642C206F7220656E74657220E7
:10F9880048656C7020666F72206C697374206F66AE
:10F9980020636F6D6D616E64730A0D00496620798E
:10F9A8006F752764206C696B6520746F20636F6DB9
:10F9B800706C6574656C7920656E61626C65206F2A
:10F9C800722064697361626C6520746865206C6F6D
:10F9D80061642C2064697361626C652064696D6D73
:10F9E800696E6720616E6420757365207265737037
:10F9F80065637469766520636F6D6D616E64730A03
:10FA08000D004552524F523A20506C656173652083
:10FA18007365742064696D6D696E672070657263C3
:10FA2800656E7461676520746F20616E20696E74FD
:10FA380065676572206772656174657220746861B4
:10FA48006E203020616E64206C6573732074686169
:10FA58006E203130300A0D005468697320636F726C
:10FA6800726573706F6E647320746F206120313615
:10FA7800206269742074696D6572207072652D6CDE
:10FA88006F61642076616C7565206F66203078251B
:10FA98005820282575204C53427329200A0D00430D
:10FAA800616C63756C6174656420545249414320EC
:10FAB800666972696E6720616E676C65206973207C
:10FAC800252E33662072616469616E732028252EA5
:10FAD80033662064656772656573290A0D0044659D
:10FAE80076696365206F6E2074696D652073696E31
:10FAF8006365206C61737420726573657420636F2D
:10FB08006E646974696F6E2069732025642073655B
:10FB1800636F6E64730A0D004F757470757420708E
:10FB28006F7765722063616C63756C6174656420BE
:10FB3800617320252E3366205761747473206672B2
:10FB48006F6D20524D532076616C7565730A0D00F8
:10FB5800466978656420566F6C74616765205265E4
:10FB6800666572656E6365204275666665722031EA
:10FB7800206D656173757265642061732025662048
:10FB8800566F6C74730A0D004C6F6164206F6E20A1
:10FB980074696D652073696E6365206C6173742088
:10FBA800646576696365207265736574206973207E
:10FBB8002564207365636F6E64730A0D004D61726E
:10FBC80071756574746520556E69766572736974AC
:10FBD8007920454C454E20333033352046696E61D7
:10FBE8006C2050726F6A6563740A0D00456E746507
:10FBF80072202748656C702720666F72206C6973C5
:10FC080074206F6620617661696C61626C6520633F
:10FC18006F6D6D616E64730A0D004C6F61642068CE
:10FC28006173206265656E20656E61626C65642C27
:10FC38002064696D6D696E672064697361626C65C3
:10FC4800640A0D005452494143206F7574707574ED
:10FC58002064696D6D696E672068617320626565EF
:10FC68006E2064697361626C65640A0D00545249C0
:10FC78004143206F75747075742064696D6D696E89
:10FC88006720686173206265656E20656E61626CCD
:10FC980065640A0D004D6561737572656D656E74F6
:10FCA80020726573706F6E73657320617070656123
:10FCB8007220696E206379616E0A0D0041565353B4
:10FCC800206D6561737572656420617320252E331C
:10FCD8006620566F6C7473206279204144430A0D84
:10FCE8000044696D6D696E6720686173206265659F
:10FCF8006E2073657420746F2025642070657263AC
:10FD0800656E740A0D002B332E3356207261696CB0
:10FD1800206D65617375726564206173202B25669B
:10FD280020566F6C74730A0D004469652054656D24
:10FD38007065726174757265206D65617375726541
:10FD480064206173202566430A0D00524D53204FED
:10FD580075747075742043757272656E742069735A
:10FD680020252E33662041726D730A0D00524D53C3
:10FD7800204F757470757420566F6C7461676520B8
:10FD8800697320252E33662056726D730A0D002B79
:10FD9800313256207261696C206D656173757265C8
:10FDA80064206173202B256620566F6C74730A0DCE
:10FDB8000048656C70206D657373616765732061B9
:10FDC800707065617220696E2079656C6C6F770A56
:10FDD8000D004D65617375726564204375727265B7
:10FDE8006E7420697320252E336620416D70730A66
:10FDF8000D005573657220696E707574206170709E
:10FE08006561727320696E2077686974650A0D00F0
:10FE180049444E20737472696E6720617070656121
:10FE2800727320696E20677265656E0A0D004D65F4
:10FE380061737572652044657465637465642043F5
:10FE4800757272656E743F004C6F616420686173EF
:10FE5800206265656E2064697361626C65640A0D71
:10FE6800005365742044696D6D696E672050657232
:10FE780063656E746167653A20004572726F7273CC
:10FE88002061707065617220696E207265640A0D68
:10FE9800004D65617375726520524D5320566F6C25
:10FEA800746167653F004D65617375726520524DD9
:10FEB800532043757272656E743F004D65617375AA
:10FEC8007265204469652054656D703F0030313299
:10FED8003334353637383941424344454600414387
:10FEE80020506F776572204D657465720A0D004D5C
:10FEF80065617375726520504F533350333F00442A
:10FF08006576696365204F6E2054696D653F0044CE
:10FF1800697361626C652044696D6D696E67004D37
:10FF280065617375726520504F5331323F004D65DE
:10FF3800617375726520506F7765723F00456E6119
:10FF4800626C652044696D6D696E67004D6561730B
:10FF580075726520415653533F004C6F6164204FC2
:10FF68006E2054696D653F004D656173757265203B
:10FF78004656523F0044697361626C65204C6F615C
:10FF88006400456E61626C65204C6F6164002A49AB
:10FF9800444E3F00436C656172005265736574009E
:10FFA80048656C70001B5B324A0049444E001B5B7D
:10FFB80048001B5B73001B5B75001B5B4B003330F9
:10FFC8000034300033310034310033320034320031
:10FFD80033330034330033340034340033350034E1
:10FFE80035003336003436003337003437001B5BB6
:08FFF8000038003B006D000021
:020000040001F9
:10000000660E01017A6F010E7B6FF8EF84F0250E0A
:100010008D19D8B405D08D5137ECB2F0F8EF84F0DB
:10002000000E01017D6F000E7C6F64C1F6FF65C19B
:10003000F7FF000EF86E0D0EF76403D00800F550C0
:1000400005D0F6CFE1FFF7CFE2FFE7502E0AD8A4A4
:1000500049D001017D8D644B652B000E8C6F000E25
:100060008B6F2AD08BC125F18CC126F1000E0101C6
:10007000286F0A0E276F19ECB1F064C1F6FF65C155
:10008000F7FF000EF86E0D0EF76403D00800F55070
:1000900005D0F6CFE1FFF7CFE2FFE75001016C6F2B
:1000A0006C512527000E2623D00E25258B6FFF0EC1
:1000B00026218C6F644B652B64C1F6FF65C1F7FF89
:1000C000000EF86E0D0EF76403D00800F55005D051
:1000D000F6CFE1FFF7CFE2FFE750B2ECB1F0D8A0E6
:1000E0003BD0C0D7000E01018C6F000E8B6F7D8955
:1000F00033D07D8562D07C8F60D08B518C11D8B489
:1001000015D078518B5D79518C59D8B00FD08BC1F7
:1001100078F18CC179F10AD076C1D9FF77C1DAFFC5
:10012000DF5037ECB2F00101764B772B7807D8A07F
:1001300079077829F1E17929D8B4F8EF84F0ECD780
:100140008D0E766F010E776F000E796F010E786F4E
:10015000D4D7C00E7C1331D0010164516C6F65514E
:100160006D6F644B652B6CC1F6FF6DC1F7FF000E20
:10017000F86E0D0EF76403D00800F55005D0F6CFE9
:10018000E1FFF7CFE2FFE75001018D6F8D51000ACB
:10019000D8B41200580AD8B4AED73C0AD8B40DD09F
:1001A000020AD8B4A6D70F0AD8B407D01C0AD8B40C
:1001B000D0D70D0AD8B49FD7C3D7070E7D15D8B4B2
:1001C000C1D27DA904D0000E8C6F060E8B6F7AC150
:1001D000D9FF7BC1DAFFDECF88F1DECF89F1DDCF39
:1001E0008AF1030E7A27000E7B238AAF11D088C1D3
:1001F00023F189C124F18AC125F155ECB1F023C165
:1002000088F124C189F125C18AF1030E01017C1313
:10021000000E7F6F000E7E6F885189118A11D8B44D
:1002200088D0820E6C6FFF0E6D6F88C16EF189C130
:100230006FF18AC170F18BC171F1100E05D0D890A9
:10024000713370336F336E33E82EF9D76E516C25EE
:100250007E6F000E6D217F6F7E07D8A07F077EC165
:1002600025F17FC126F1000E286F030E276F19ECD0
:10027000B1F025C17EF126C17FF17EC11DF17FC1A4
:100280001EF1000E0101206F0A0E1F6F78ECAAF01C
:100290001DC17EF11EC17FF101017FAF03D07E073A
:1002A000D8A07F077E5100085BEC91F055C180F12A
:1002B00056C181F157C182F180C146F181C147F138
:1002C00082C148F188C149F189C14AF18AC14BF123
:1002D00000ECA4F046C180F147C181F148C182F130
:1002E00080C117F181C118F182C119F1000E01011D
:1002F0001A6F800E1B6F3F0E1C6F59ECA9F00101A5
:10030000D8B004D07E07D8A07F0713D080C117F1E2
:1003100081C118F182C119F1000E1A6F200E1B6FF6
:10032000410E1C6F59ECA9F00101D8A002D07E4B00
:100330007F2B8CBF06D08C511BE10D0E8B5DD8B08E
:1003400017D088C12BF189C12CF18AC12DF18B51B5
:1003500077EC97F055C12EF156C12FF157C130F10E
:1003600024EC9EF02BC188F12CC189F12DC18AF1BA
:1003700001017FBF06D07F511FE10A0E7E5DD8B01C
:100380001BD0885189118A11D8B454D088C155F135
:1003900089C156F18AC157F184ECA3F0010155518E
:1003A000561157115811D8B47FBF44D07F5104E182
:1003B000020E7E5DD8A03ED080C117F181C118F138
:1003C00082C119F1700E1A6F890E1B6F400E1C6FDF
:1003D00059ECA9F00101D8B002D0F70E01D0F80E07
:1003E0007E27FF0E7F237E515BEC91F055C180F19B
:1003F00056C181F157C182F188C117F189C118F145
:100400008AC119F180C11AF181C11BF182C11CF1AD
:100410009AECA0F017C184F118C185F119C186F1D9
:100420001AC187F1000E0101886F000E896F000E5E
:100430008A6F33D088C155F189C156F18AC157F10D
:1004400084ECA3F055C184F156C185F157C186F102
:1004500058C187F188C137F189C138F18AC139F1B2
:1004600084C11FF185C120F186C121F187C122F12C
:1004700005ECAEF01FC13AF120C13BF121C13CF1C6
:10048000EAECAFF037C188F138C189F139C18AF19E
:10049000000E01017F6F000E7E6F010E8D6F0A0E40
:1004A0008D19D8B41BD08D51040D790EF324F66E3E
:1004B000F10EF420F76EF86A000EF8220900F550EC
:1004C000845D0900F55085590900F55086590900E9
:1004D000F5508759D8A002D08D2BE1D7030E7C159B
:1004E0006C6F000E7D156D6F6C516D11D8B44ED0D0
:1004F0002D0E37ECB2F04AD084C117F185C118F146
:1005000086C119F187C11AF101018D51040D790ECF
:10051000F324F66EF10EF420F76EF86A000EF8225E
:100520000900F5CF1BF10900F5CF1CF10900F5CF4B
:100530001DF10A00F5CF1EF1BBECAAF017C180F146
:1005400018C181F119C182F11AC183F180C124F16E
:1005500081C125F182C126F183C127F10A0E010173
:10056000286F000E296F000E2A6F000E2B6FD8EC3B
:10057000ACF024C180F125C181F126C182F127C1EF
:1005800083F101018051300F37ECB2F001018D078A
:100590008D29D8B408D0B0D7300E37ECB2F00101B5
:1005A0007E07D8A07F077FBF05D07F51F5E17E058C
:1005B000D8B0F2D78CBF09D08C5104E1090E8B5D05
:1005C000D8A003D0080E8D6F02D08BC18DF18D5154
:1005D0008B5F000E8DBFFF0E8C5B8D51D8B403D0A6
:1005E0002E0E37ECB2F001018D515BEC91F055C14C
:1005F00072F156C173F157C174F188C149F189C1D3
:100600004AF18AC14BF172C146F173C147F174C11D
:1006100048F100ECA4F046C155F147C156F148C17C
:1006200057F184ECA3F055C184F156C185F157C14F
:1006300086F158C187F174D084C117F185C118F1D2
:1006400086C119F187C11AF101018D51040D790E8E
:10065000F324F66EF10EF420F76EF86A000EF8221D
:100660000900F5CF1BF10900F5CF1CF10900F5CF0A
:100670001DF10A00F5CF1EF1BBECAAF017C180F105
:1006800018C181F119C182F11AC183F180C124F12D
:1006900081C125F182C126F183C127F10A0E010132
:1006A000286F000E296F000E2A6F000E2B6FD8ECFA
:1006B000ACF024C180F125C181F126C182F127C1AE
:1006C00083F101018051300F37ECB2F084C124F185
:1006D00085C125F186C126F187C127F101018D5120
:1006E000040D790EF324F66EF10EF420F76EF86A1D
:1006F000000EF8220900F5CF28F10900F5CF29F105
:100700000900F5CF2AF10A00F5CF2BF1D8ECACF0B7
:1007100024C184F125C185F126C186F127C187F165
:1007200001018D078D29D8B408D086D7300E37EC5B
:10073000B2F001018B07D8A08C078B518C11D8B473
:1007400057D1F4D7C00E7C156C6F000E7D156D6F00
:100750006C516D11D8A41ED07AC1D9FF7BC1DAFFCC
:10076000DECF84F1DDCF85F1000E85BFFF0E866FF1
:10077000876F020E7A27000E7B2387AF1DD0030EF2
:100780007C13871F861F851F846D000E852386239B
:10079000872312D07AC1D9FF7BC1DAFFDECF6CF19B
:1007A000DDCF6DF16CC184F16DC185F1866B876B16
:1007B000020E7A27000E7B238B518C11D8A44BD0CC
:1007C0008451851186118711D8A445D08B4B8C2B71
:1007D00042D0010E8D6F0A0E8D19D8B447D08D51BD
:1007E000040D790EF324F66EF10EF420F76EF86A1C
:1007F000000EF8220900F550845D0900F550855976
:100800000900F55086590900F5508759D8A02ED017
:100810008D2BE1D7010E8D6F080E8D19D8B426D01F
:100820008D51040DEF0EF324F66EF10EF420F76EE9
:10083000F86A000EF8220900F550845D0900F550B1
:1008400085590900F55086590900F5508759D8A0F7
:100850000DD08D2BE1D77C51C00B000AD8B4B9D78D
:10086000800AD8B4D7D7400AD8B4B3D7800E8DBF8A
:100870007F0E6C6F8B518D5D8C51800A6C59D8B096
:1008800003D08BC18DF110D08C51800A6C6F8D51CB
:100890008B5D800E8DBF7F0E6C59D8B005D08D5109
:1008A0008B6F8C6B8BBF8C07030E7C156C6F000EEF
:1008B0007D156D6F6C516D11D8B491D02D0E37EC44
:1008C000B2F08DD08BC16CF18CC16DF10101D8906B
:1008D0006C376D37D8906C376D37790E6C25F66EA6
:1008E000F10E6D21F76EF86A000EF8220900F5CFBF
:1008F0001BF10900F5CF1CF10900F5CF1DF10A002D
:10090000F5CF1EF184C117F185C118F186C119F127
:1009100087C11AF1BBECAAF017C124F118C125F167
:1009200019C126F11AC127F10A0E0101286F000E24
:10093000296F000E2A6F000E2B6FD8ECACF001016E
:100940002451300F8D6F48D084C117F185C118F143
:1009500086C119F187C11AF18BC16CF18CC16DF19F
:10096000D8906C376D37D8906C376D37EF0E6C259B
:10097000F66EF10E6D21F76EF86A000EF82209008E
:10098000F5CF1BF10900F5CF1CF10900F5CF1DF1E2
:100990000A00F5CF1EF1BBECAAF0010117510F0BB5
:1009A000756F7551010DD50EF324F66EFE0EF42011
:1009B000F76EF86A000EF8220800F5CF8DF10CD022
:1009C00001017C51C00B000AD8B47CD7800AD8B48E
:1009D000BBD7400AD8B476D78D5137ECB2F00101BD
:1009E0008B07D8A08C078B29EBE18C29D8A4E8D7FA
:1009F000010164516C6F65516D6F644B652B6CC167
:100A0000F6FF6DC1F7FF000EF86E0D0EF76403D010
:100A10000800F55005D0F6CFE1FFF7CFE2FFE75031
:100A200001018D6F8D51D8B4120007EF80F0680E70
:100A30000001766F000E776F0CEF8AF0250E891992
:100A4000D8B405D0895175ECB2F00CEF8AF0000EE5
:100A50000001796F000E786F66C0F6FF67C0F7FF80
:100A6000000EF86E0D0EF76403D00800F55005D0A7
:100A7000F6CFE1FFF7CFE2FFE7502E0AD8A448D027
:100A80000001798D664B672B000E886F000E876F13
:100A900029D087C00FF088C010F0000E126E0A0E29
:100AA000116E7BECB1F066C0F6FF67C0F7FF000E79
:100AB000F86E0D0EF76403D00800F55005D0F6CFA0
:100AC000E1FFF7CFE2FFE7500001686F68510F26A2
:100AD000000E1022D00E0F24876FFF0E1020886F9B
:100AE000664B672B66C0F6FF67C0F7FF000EF86E17
:100AF0000D0EF76403D00800F55005D0F6CFE1FFE6
:100B0000F7CFE2FFE750C3ECB1F0D8A03BD0C1D79C
:100B1000000E0001886F000E876F798933D07985C8
:100B200062D0788F60D087518811D8B415D07451B5
:100B3000875D75518859D8B00FD087C074F088C0D0
:100B400075F00AD072C0D9FF73C0DAFFDF5075ECC0
:100B5000B2F00001724B732B7407D8A0750774298B
:100B6000F1E17529D8B40CEF8AF0ECD7890E726FD9
:100B7000000E736F000E756F010E746FD4D7C00E28
:100B8000781331D000016651686F6751696F664B09
:100B9000672B68C0F6FF69C0F7FF000EF86E0D0EF8
:100BA000F76403D00800F55005D0F6CFE1FFF7CF8A
:100BB000E2FFE7500001896F8951000AD8B41200A2
:100BC000580AD8B4AED73C0AD8B40DD0020AD8B46B
:100BD000A6D70F0AD8B407D01C0AD8B4D0D70D0AAC
:100BE000D8B49FD7C3D7070E7915D8B4C0D279A986
:100BF00004D0000E886F060E876F76C0D9FF77C0CD
:100C0000DAFFDECF80F0DECF81F0DDCF82F0030EA1
:100C10007627000E772382AF11D080C024F081C0E8
:100C200025F082C026F08EECB1F024C080F025C003
:100C300081F026C082F0030E00017813000E7B6F56
:100C4000000E7A6F805181118211D8B486D0820E45
:100C5000686FFF0E696F80C06AF081C06BF082C060
:100C60006CF083C06DF0100E05D0D8906D336C33EE
:100C70006B336A33E82EF9D76A5168257A6F000E14
:100C800069217B6F7A07D8A07B077AC00FF07BC001
:100C900010F0000E126E030E116E7BECB1F00FC05F
:100CA0007AF010C07BF07AC007F07BC008F0000E2D
:100CB0000A6E0A0E096EFDECAAF007C07AF008C0B1
:100CC0007BF000017BAF03D07A07D8A07B077A5175
:100CD00000089BEC93F036C07CF037C07DF038C044
:100CE0007EF07CC027F07DC028F07EC029F080C057
:100CF0002AF081C02BF082C02CF0F5ECA4F027C0C4
:100D00007CF028C07DF029C07EF07CC02AF07DC038
:100D10002BF07EC02CF0000E2D6E800E2E6E3F0E3E
:100D20002F6EEAECA9F0D8B005D000017A07D8A060
:100D30007B0713D07CC02AF07DC02BF07EC02CF046
:100D4000000E2D6E200E2E6E410E2F6EEAECA9F0D5
:100D5000D8A003D000017A4B7B2B000188BF06D0BE
:100D600088511BE10D0E875DD8B017D080C040F0D0
:100D700081C041F082C042F08751C1EC98F036C08A
:100D800043F037C044F038C045F0FBEC9EF040C063
:100D900080F041C081F042C082F000017BBF06D0EC
:100DA0007B5120E10A0E7A5DD8B01CD080518111B0
:100DB0008211D8B456D080C03DF081C03EF082C0D0
:100DC0003FF07BECA4F03D503E103F104010D8A403
:100DD00048D000017BBF45D07B5104E1020E7A5D13
:100DE000D8A03FD07CC02AF07DC02BF07EC02CF074
:100DF000700E2D6E890E2E6E400E2F6EEAECA9F04D
:100E0000D8B003D00001F70E02D00001F80E7A2707
:100E1000FF0E7B237A519BEC93F036C07CF037C0F9
:100E20007DF038C07EF080C001F081C002F082C049
:100E300003F07CC004F07DC005F07EC006F034EC09
:100E4000A1F001C083F002C084F003C085F004C0AB
:100E500086F0000E0001806F000E816F000E826F21
:100E600033D080C03DF081C03EF082C03FF07BECCB
:100E7000A4F03DC083F03EC084F03FC085F040C088
:100E800086F080C060F081C061F082C062F083C0F3
:100E900009F084C00AF085C00BF086C00CF062EC4B
:100EA000AEF009C063F00AC064F00BC065F00BEC53
:100EB000B0F060C080F061C081F062C082F0000ECE
:100EC00000017B6F000E7A6F010E896F0A0E89197F
:100ED000D8B41BD08951040D790EF324F66EF10EAF
:100EE000F420F76EF86A000EF8220900F550835DD1
:100EF0000900F55084590900F55085590900F5504D
:100F00008659D8A002D0892BE1D7030E7815686FD7
:100F1000000E7915696F68516911D8B44DD02D0E46
:100F200075ECB2F049D083C001F084C002F085C0F6
:100F300003F086C004F000018951040D790EF324FA
:100F4000F66EF10EF420F76EF86A000EF822090032
:100F5000F5CF05F00900F5CF06F00900F5CF07F051
:100F60000A00F5CF08F03FECABF001C07CF002C006
:100F70007DF003C07EF004C07FF07CC00EF07DC029
:100F80000FF07EC010F07FC011F00A0E126E000E3E
:100F9000136E000E146E000E156E3FECADF00EC019
:100FA0007CF00FC07DF010C07EF011C07FF000011A
:100FB0007C51300F75ECB2F0000189078929D8B453
:100FC00008D0B1D7300E75ECB2F000017A07D8A086
:100FD0007B077BBF05D07B51F5E17A05D8B0F2D70E
:100FE00088BF09D0885104E1090E875DD8A003D0DD
:100FF000080E896F02D087C089F08951875F000E83
:1010000089BFFF0E885B8951D8B403D02E0E75ECD2
:10101000B2F0000189519BEC93F036C06EF037C0FE
:101020006FF038C070F080C02AF081C02BF082C011
:101030002CF06EC027F06FC028F070C029F0F5ECDE
:10104000A4F027C03DF028C03EF029C03FF07BEC63
:10105000A4F03DC083F03EC084F03FC085F040C0A6
:1010600086F073D083C001F084C002F085C003F025
:1010700086C004F000018951040D790EF324F66E48
:10108000F10EF420F76EF86A000EF8220900F5CF91
:1010900005F00900F5CF06F00900F5CF07F00A00CA
:1010A000F5CF08F03FECABF001C07CF002C07DF062
:1010B00003C07EF004C07FF07CC00EF07DC00FF056
:1010C0007EC010F07FC011F00A0E126E000E136E7B
:1010D000000E146E000E156E3FECADF00EC07CF0ED
:1010E0000FC07DF010C07EF011C07FF000017C5178
:1010F000300F75ECB2F083C00EF084C00FF085C0E5
:1011000010F086C011F000018951040D790EF3240E
:10111000F66EF10EF420F76EF86A000EF822090060
:10112000F5CF12F00900F5CF13F00900F5CF14F058
:101130000A00F5CF15F03FECADF00EC083F00FC004
:1011400084F010C085F011C086F00001890789295C
:10115000D8B408D087D7300E75ECB2F000018707FD
:10116000D8A0880787518811D8B456D1F4D7C00EBB
:101170007815686F000E7915696F68516911D8A4E8
:101180001ED076C0D9FF77C0DAFFDECF83F0DDCF87
:1011900084F0000E84BFFF0E856F866F020E7627E7
:1011A000000E772386AF1DD0030E7813861F851F90
:1011B000841F836D000E84238523862312D076C07E
:1011C000D9FF77C0DAFFDECF68F0DDCF69F068C005
:1011D00083F069C084F0856B866B020E7627000E63
:1011E000772387518811D8A44BD08351841185115E
:1011F0008611D8A445D0874B882B42D0010E896F29
:101200000A0E8919D8B447D08951040D790EF324F8
:10121000F66EF10EF420F76EF86A000EF82209005F
:10122000F550835D0900F55084590900F550855942
:101230000900F5508659D8A02ED0892BE1D7010E90
:10124000896F080E8919D8B426D08951040DEF0E84
:10125000F324F66EF10EF420F76EF86A000EF82211
:101260000900F550835D0900F55084590900F550D7
:1012700085590900F5508659D8A00DD0892BE1D7A2
:101280007851C00B000AD8B4B9D7800AD8B4D7D7E0
:10129000400AD8B4B3D7800E89BF7F0E686F8751DC
:1012A000895D8851800A6859D8B003D087C089F019
:1012B00010D08851800A686F8951875D800E89BF80
:1012C0007F0E6859D8B005D08951876F886B87BF6A
:1012D0008807030E7815686F000E7915696F6851DD
:1012E0006911D8B490D02D0E75ECB2F08CD087C0B7
:1012F00068F088C069F00001D89068376937D890E5
:1013000068376937790E6825F66EF10E6921F76E38
:10131000F86A000EF8220900F5CF05F00900F5CFB4
:1013200006F00900F5CF07F00A00F5CF08F083C0FA
:1013300001F084C002F085C003F086C004F03FECE9
:10134000ABF001C00EF002C00FF003C010F004C0FB
:1013500011F00A0E126E000E136E000E146E000EC7
:10136000156E3FECADF00E50300F0001896F48D084
:1013700083C001F084C002F085C003F086C004F091
:1013800087C068F088C069F0D89068376937D8900E
:1013900068376937EF0E6825F66EF10E6921F76E32
:1013A000F86A000EF8220900F5CF05F00900F5CF24
:1013B00006F00900F5CF07F00A00F5CF08F03FEC82
:1013C000ABF001500F0B0001716F7151010DD50E83
:1013D000F324F66EFE0EF420F76EF86A000EF82283
:1013E0000800F5CF89F00CD000017851C00B000A3D
:1013F000D8B47DD7800AD8B4BBD7400AD8B477D741
:10140000895175ECB2F000018707D8A088078729B9
:10141000EBE18829D8A4E8D700016651686F6751CD
:10142000696F664B672B68C0F6FF69C0F7FF000E57
:10143000F86E0D0EF76403D00800F55005D0F6CF16
:10144000E1FFF7CFE2FFE7500001896F8951D8B47F
:1014500012001EEF85F0A0C117F1A1C118F1A20E74
:101460000101196FFF0E1A6FE7ECAEF00101175181
:101470001811D8A40FD0AD0E646FFF0E656F00EC8D
:1014800080F0B60E0101646FFF0E656F00EC80F016
:10149000FF001200A0C117F1A1C118F19C0E0101BB
:1014A000196FFF0E1A6FE7ECAEF00101175118111A
:1014B000D8A40ED0AD0E646FFF0E656F00EC80F007
:1014C000B60E0101646FFF0E656F00EC80F0120034
:1014D000A0C117F1A1C118F1960E0101196FFF0EFD
:1014E0001A6FE7ECAEF0010117511811D8B40FD004
:1014F000A0C117F1A1C118F1B20E196FFF0E1A6F3A
:10150000E7ECAEF0010117511811D8A41DD020EC62
:10151000B2F0000E01018E6F000E8F6F020EC3EC51
:1015200095F0E60E0101646FFE0E656F00EC80F031
:10153000C50E0101646FFB0E656F00EC80F006ECD8
:10154000B2F020ECB2F01200A0C117F1A1C118F165
:10155000F70E0101196FFE0E1A6FE7ECAEF00101F4
:1015600017511811D8A41CD020ECB2F0000E0101C4
:101570008E6F000E8F6F060EC3EC95F00E0E0101FC
:10158000646FFD0E656FD7C066F1D8C067F1D9C032
:1015900068F100EC80F006ECB2F020ECB2F0120042
:1015A000A0C117F1A1C118F1270E0101196FFF0E9B
:1015B0001A6FE7ECAEF0010117511811D8A41CD036
:1015C00020ECB2F0000E01018E6F000E8F6F060E40
:1015D000C3EC95F0970E0101646FFD0E656FC7C1F6
:1015E00066F1C8C167F1C9C168F100EC80F006EC92
:1015F000B2F020ECB2F01200A0C117F1A1C118F1B5
:10160000C30E0101196FFE0E1A6FE7ECAEF0010177
:1016100017511811D8A41CD020ECB2F0000E010113
:101620008E6F000E8F6F060EC3EC95F0310E010128
:10163000646FFD0E656FC4C166F1C5C167F1C6C1B7
:1016400068F100EC80F006ECB2F020ECB2F0120091
:10165000A0C117F1A1C118F1700E0101196FFF0EA1
:101660001A6FE7ECAEF0010117511811D8A41CD085
:1016700020ECB2F0000E01018E6F000E8F6F060E8F
:10168000C3EC95F0580E0101646FFB0E656FECC062
:1016900066F1EDC067F1EEC068F100EC80F006EC99
:1016A000B2F020ECB2F01200A0C117F1A1C118F104
:1016B000540E0101196FFF0E1A6FE7ECAEF0010135
:1016C00017511811D8A41CD020ECB2F0000E010163
:1016D0008E6F000E8F6F060EC3EC95F0C40E0101E5
:1016E000646FFC0E656FDDC066F1DEC067F1DFC0C0
:1016F00068F100EC80F006ECB2F020ECB2F01200E1
:10170000A0C117F1A1C118F1360E0101196FFE0E2B
:101710001A6FE7ECAEF0010117511811D8A41CD0D4
:1017200020ECB2F0000E01018E6F000E8F6F060EDE
:10173000C3EC95F0DA0E0101646FFD0E656FCEC04B
:1017400066F1CFC067F1D0C068F100EC80F006EC24
:10175000B2F020ECB2F01200A0C117F1A1C118F153
:10176000AE0E0101196FFE0E1A6FE7ECAEF001012B
:1017700017511811D8A41CD020ECB2F0000E0101B2
:101780008E6F000E8F6F060EC3EC95F0530E0101A5
:10179000646FFD0E656FCBC066F1CCC067F1CDC044
:1017A00068F100EC80F006ECB2F020ECB2F0120030
:1017B000A0C117F1A1C118F1990E0101196FFE0E18
:1017C0001A6FE7ECAEF0010117511811D8A41CD024
:1017D00020ECB2F0000E01018E6F000E8F6F060E2E
:1017E000C3EC95F0750E0101646FFD0E656FC8C006
:1017F00066F1C9C067F1CAC068F100EC80F006EC80
:10180000B2F020ECB2F01200A0C117F1A1C118F1A2
:10181000360E0101196FFF0E1A6FE7ECAEF00101F1
:1018200017511811D8A41CD020ECB2F0000E010101
:101830008E6F000E8F6F060EC3EC95F0200E010127
:10184000646FFB0E656FC1C166F1C2C167F1C3C1B0
:1018500068F100EC80F006ECB2F020ECB2F012007F
:10186000A0C117F1A1C118F1450E0101196FFF0EBA
:101870001A6FE7ECAEF0010117511811D8A417D078
:101880007F9020ECB2F0000E01018E6F000E8F6F82
:10189000060EC3EC95F0750E0101646FFC0E656FCA
:1018A00000EC80F006ECB2F020ECB2F01200A0C127
:1018B00017F1A1C118F1170E0101196FFF0E1A6F70
:1018C000E7ECAEF0010117511811D8A417D07F80B2
:1018D00020ECB2F0000E01018E6F000E8F6F060E2D
:1018E000C3EC95F04C0E0101646FFC0E656F00ECCB
:1018F00080F006ECB2F020ECB2F01200A0C117F1BB
:10190000A1C118F18A0E0101196FFF0E1A6FE7ECE1
:10191000AEF0010117511811D8A419D07F807F9221
:101920005E8020ECB2F0000E01018E6F000E8F6F12
:10193000060EC3EC95F0220E0101646FFC0E656F7C
:1019400000EC80F006ECB2F020ECB2F01200A0C186
:1019500017F1A1C118F17D0E0101196FFF0E1A6F69
:10196000E7ECAEF0010117511811D8A419D07F92FD
:101970007F905E9020ECB2F0000E01018E6F000EA1
:101980008F6F060EC3EC95F0500E0101646FFE0ED2
:10199000656F00EC80F006ECB2F020ECB2F01200C3
:1019A000A0C126F1A1C127F1690E0101286FFE0E29
:1019B000296F32ECAAF0010126512711D8B413D1B6
:1019C000000EAB6F000EAA6FABBF06D0AB511BE190
:1019D000030EAA5DD8B017D0180EAA25A26F000E6C
:1019E000AB21A36FA251A025D96EA351A121DA6E1C
:1019F000A70EAA25E16E010EAB21E26EDFCFE7FF55
:101A0000AA4BAB2BE1D7A70E2B6F010E2C6F32EC3C
:101A1000A7F02BC1ACF12CC1ADF10101ADBF06D0D7
:101A2000AD510BE1640EAC5DD8B007D0ADBF05D0B1
:101A3000AD512FE1AC05D8B02CD020ECB2F0000EA7
:101A400001018E6F000E8F6F010EC3EC95F00A0E30
:101A50000101646FFA0E656F00EC80F0000E010169
:101A60008E6F000E8F6F030EC3EC95F0A40E010174
:101A7000646FF90E656F00EC80F0F40E0101646F85
:101A8000FB0E656F00EC80F006ECB2F020ECB2F0DB
:101A90001200000E01013A6FC80E3B6F420E3C6F00
:101AA000000E2E6FC80E2F6F420E306FACC11FF1AB
:101AB000ADC120F14BECB0F01FC123F120C124F1E6
:101AC00021C125F155ECB1F023C12BF124C12CF13A
:101AD00025C12DF124EC9EF02BC137F12CC138F13A
:101AE0002DC139F16FECA5F037C146F138C147F18E
:101AF00039C148F1100E0101496F490E4A6F400E7D
:101B00004B6F00ECA4F046C1FAF047C1FBF048C1AE
:101B1000FCF0FAC046F1FBC047F1FCC048F12F0EC3
:101B20000101496F650E4A6F420E4B6F00ECA4F045
:101B300046C1A4F147C1A5F148C1A6F1ACC1A2F1CB
:101B4000ADC1A3F10101A21FA31FA24BA32B640EE1
:101B5000A225256F000EA321266F020E286F8F0E7F
:101B6000276F19ECB1F025C1F8F026C1F9F020EC8F
:101B7000B2F0000E01018E6F000E8F6F060EC3ECE7
:101B800095F0E90E0101646FFC0E656FACC166F162
:101B9000ADC167F100EC80F0A70E0101646FFA0E91
:101BA000656FFAC066F1FBC067F1FCC068F1A4C1C3
:101BB00069F1A5C16AF1A6C16BF100EC80F0600E7D
:101BC0000101646FFA0E656FF8C066F1F9C067F144
:101BD000F8C068F1F9C069F100EC80F006ECB2F0F1
:101BE00020ECB2F01200A0C117F1A1C118F1070E4C
:101BF0000101196FFF0E1A6FE7ECAEF001011751EA
:101C00001811D8A41ED020ECB2F0000E01018E6F86
:101C1000000E8F6F060EC3EC95F0E60E0101646FA7
:101C2000FA0E656FBDC166F1BEC167F1BFC168F153
:101C3000C0C169F100EC80F006ECB2F020ECB2F02B
:101C40001200A0C117F1A1C118F1620E0101196FB4
:101C5000FF0E1A6FE7ECAEF0010117511811D8A46E
:101C60001ED020ECB2F0000E01018E6F000E8F6FBF
:101C7000060EC3EC95F0900E0101646FFB0E656FCC
:101C8000B9C166F1BAC167F1BBC168F1BCC169F104
:101C900000EC80F006ECB2F020ECB2F01200A0C133
:101CA00017F1A1C118F1A80E0101196FFF0E1A6FEB
:101CB000E7ECAEF0010117511811D8A4120020EC86
:101CC000B2F0000E01018E6F000E8F6F030EC3EC99
:101CD00095F04B0E0101646FF20E656F00EC80F021
:101CE00020ECB2F0B90E0101646FFD0E656F00ECDF
:101CF00080F0000E01018E6F000E8F6F020EC3EC9C
:101D000095F0180E0101646FFE0E656F00EC80F017
:101D1000000E01018E6F000E8F6F060EC3EC95F062
:101D20009D0E0101646FFC0E656F00EC80F0000EEB
:101D300001018E6F000E8F6F010EC3EC95F0820EC5
:101D40000101646FFE0E656F00EC80F006ECB2F0EE
:101D5000FA0E0101646FFD0E656F00EC80F020EC5F
:101D6000B2F012005FCFAFF091D2FCECB1F001C045
:101D700009F002C00AF0A0ECB1F009C027F00AC0D7
:101D800028F00BC029F0680E2A6E530E2B6E3B0E06
:101D90002C6EF5ECA4F027C0DDF028C0DEF029C0E1
:101DA000DFF01200680E2A6E530E2B6E3B0E2C6E67
:101DB000FCECB1F001C009F002C00AF0A0ECB1F0F7
:101DC00009C027F00AC028F00BC029F0F5ECA4F0F8
:101DD00027C040F028C041F029C042F0DDC043F0E8
:101DE000DEC044F0DFC045F0FBEC9EF040C0ECF0FC
:101DF00041C0EDF042C0EEF0120E156E030E166EED
:101E0000400E176EECC018F0EDC019F0EEC01AF0DD
:101E1000E3ECA5F015C0DAF016C0DBF017C0DCF07B
:101E20001200DAC02AF0DBC02BF0DCC02CF0FCEC96
:101E3000B1F001C009F002C00AF0A0ECB1F009C095
:101E400027F00AC028F00BC029F0F5ECA4F027C059
:101E5000B3F028C0B4F029C0B5F0B3C027F0B4C0C7
:101E600028F0B5C029F0680E2A6ED30E2B6E3B0EFB
:101E70002C6EF5ECA4F027C0D7F028C0D8F029C00C
:101E8000D9F01200C00E186E7F0E196E440E1A6E35
:101E9000D7C015F0D8C016F0D9C017F0E3ECA5F004
:101EA00015C02AF016C02BF017C02CF0FCECB1F0D6
:101EB00001C009F002C00AF0A0ECB1F009C027F09F
:101EC0000AC028F00BC029F0F5ECA4F027C0B3F04D
:101ED00028C0B4F029C0B5F0B3C027F0B4C028F0D2
:101EE000B5C029F05E0E2A6EF20E2B6E3F0E2C6EE0
:101EF000F5ECA4F027C0CEF028C0CFF029C0D0F078
:101F00007FB089D05EA029D0EE0E0001F85D7F0E73
:101F1000F959D8B007D0CEC0D1F0CFC0D2F0D0C0E0
:101F2000D3F014D0CEC073F0CFC074F0D0C075F031
:101F3000FAC076F0FBC077F0FCC078F0D5ECADF0DD
:101F400073C0D1F074C0D2F075C0D3F0F2C0D4F039
:101F5000F3C0D5F0F4C0D6F00DD0000E0001D16F63
:101F6000000ED26F000ED36F000ED46F000ED56F2F
:101F7000000ED66FFAC097F0FBC098F0FCC099F045
:101F8000D1C094F0D2C095F0D3C096F060EC9CF034
:101F900094C0B0F095C0B1F096C0B2F0B0C040F0BF
:101FA000B1C041F0B2C042F0EFC043F0F0C044F025
:101FB000F1C045F0FBEC9EF040C0CBF041C0CCF04E
:101FC00042C0CDF0D4C094F0D5C095F0D6C096F004
:101FD000FAC097F0FBC098F0FCC099F060EC9CF060
:101FE00094C0C8F095C0C9F096C0CAF0C8C027F028
:101FF000C9C028F0CAC029F0CBC02AF0CCC02BF051
:10200000CDC02CF0F5ECA4F027C0C1F128C0C2F17E
:1020100029C0C3F11200CEC0D1F0CFC0D2F0D0C0E1
:10202000D3F0000E0001976F000E986F000E996FAD
:10203000D1C094F0D2C095F0D3C096F060EC9CF083
:1020400094C0B0F095C0B1F096C0B2F0B0C040F00E
:10205000B1C041F0B2C042F0EFC043F0F0C044F074
:10206000F1C045F0FBEC9EF040C0CBF041C0CCF09D
:1020700042C0CDF0F2C094F0F3C095F0F4C096F0F9
:10208000000E0001976F000E986F000E996F60ECC4
:102090009CF094C0C8F095C0C9F096C0CAF0C8C002
:1020A00027F0C9C028F0CAC029F0CBC02AF0CCC0A4
:1020B0002BF0CDC02CF0F5ECA4F027C0C1F128C066
:1020C000C2F129C0C3F11200C00E186E7F0E196E46
:1020D000440E1A6ED7C015F0D8C016F0D9C017F04C
:1020E000E3ECA5F015C02AF016C02BF017C02CF0B9
:1020F000FCECB1F001C009F002C00AF0A0ECB1F0B4
:1021000009C027F00AC028F00BC029F0F5ECA4F0B4
:1021100027C0B3F028C0B4F029C0B5F0B3C027F091
:10212000B4C028F0B5C029F0F80E2A6E800E2B6ED0
:10213000400E2C6EF5ECA4F027C0C7F128C0C8F102
:1021400029C0C9F11200000E186E000E196E400E63
:102150001A6ED7C015F0D8C016F0D9C017F0E3EC4E
:10216000A5F015C02AF016C02BF017C02CF0000EF9
:10217000436E800E446E3F0E456EC00E186E7F0E8D
:10218000196E440E1A6EFCECB1F001C009F002C0E9
:102190000AF0A0ECB1F009C015F00AC016F00BC0AF
:1021A00017F0E3ECA5F015C024F016C025F017C019
:1021B00026F08EECB1F024C040F025C041F026C0DE
:1021C00042F0FBEC9EF040C027F041C028F042C036
:1021D00029F0F5ECA4F027C0A6F028C0A7F029C08C
:1021E000A8F0040E186EAD0E196E3A0E1A6EB40EEB
:1021F000436E280E446E3F0E456EA6C024F0A7C065
:1022000025F0A8C026F08EECB1F024C040F025C027
:1022100041F026C042F0FBEC9EF040C015F041C0FA
:1022200016F042C017F0E3ECA5F015C0A9F016C0F7
:10223000AAF017C0ABF0F5C043F0F6C044F0F7C009
:1022400045F0A9C040F0AAC041F0ABC042F0FBECA1
:102250009EF040C0ACF041C0ADF042C0AEF0ACC0AA
:1022600040F0ADC041F0AEC042F0000E436E200E13
:10227000446EC20E456EFBEC9EF040C0C4F141C0FE
:10228000C5F142C0C6F112007E8612000001AF51B6
:10229000000AD8B4F7D5040AD8B416D7260AD8B499
:1022A000C0D51E0AD8B461D5010AD8B44CD7020AE9
:1022B000D8B478D5E9D701015B6F01015BAF1ED1BE
:1022C0005B6D5B51800A120FD8A0A0D0000E286F62
:1022D000030E276F000E206F0A0E1F6F000E1A6F7D
:1022E000640E196F5B51176F186B17BF180733EC2B
:1022F000ACF017C11DF118C11EF178ECAAF0090E5F
:1023000001011D25256F000E1E21266F19ECB1F06D
:10231000C80E01012525F66EF10E2621F76EF86A2A
:10232000000EF8220900F5CF49F10900F5CF4AF176
:102330000A00F5CF4BF1000E206F640E1F6F5B514A
:102340001D6F1E6B1DBF1E0778ECAAF0120E010157
:102350001D25256F000E1E21266F000E286F030E0F
:10236000276F19ECB1F0C80E01012525F66EF10EAC
:102370002621F76EF86A000EF8220900F5CF46F123
:102380000900F5CF47F10A00F5CF48F100ECA4F0C1
:1023900046C158F147C159F148C15AF158C146F1F7
:1023A00059C147F15AC148F1000E0101286F030ECF
:1023B000276F000E1A6F0A0E196F5B51176F186B9B
:1023C00017BF180733ECACF017C125F118C126F17F
:1023D00019ECB1F0C80E01012525F66EF10E26218B
:1023E000F76EF86A000EF8220900F5CF49F10900EE
:1023F000F5CF4AF10A00F5CF4BF100ECA4F046C14D
:1024000055F147C156F148C157F1120001015B5126
:10241000800A750FD8A05CD0000E206F0A0E1F6FC7
:102420005B511D6F1E6B1DBF1E0778ECAAF0090ED5
:1024300001011D25256F000E1E21266F000E286F3D
:10244000030E276F19ECB1F0C80E01012525F66EB9
:10245000F10E2621F76EF86A000EF8220900F5CF7A
:1024600046F10900F5CF47F10A00F5CF48F1000E1B
:10247000286F030E276F000E1A6F0A0E196F5B513B
:10248000176F186B17BF180733ECACF017C125F1A5
:1024900018C126F119ECB1F0C80E01012525F66E20
:1024A000F10E2621F76EF86A000EF8220900F5CF2A
:1024B00049F10900F5CF4AF10A00F5CF4BF100ECE4
:1024C000A4F046C155F147C156F148C157F1120079
:1024D00001015B51030DC80EF324F66EF10EF420DA
:1024E000F76EF86A000EF8220900F5CF55F10900E1
:1024F000F5CF56F10A00F5CF57F112005B51800A73
:10250000120FD8A0A0D0000E286F030E276F000E68
:10251000206F0A0E1F6F000E1A6F640E196F5B5149
:10252000176F186B17BF180733ECACF017C11DF10C
:1025300018C11EF178ECAAF0090E01011D25256FC6
:10254000000E1E21266F19ECB1F0A10E0101252508
:10255000F66EF10E2621F76EF86A000EF8220900D9
:10256000F5CF49F10900F5CF4AF10A00F5CF4BF15B
:10257000000E206F640E1F6F5B511D6F1E6B1DBF21
:102580001E0778ECAAF0120E01011D25256F000E22
:102590001E21266F000E286F030E276F19ECB1F075
:1025A000A10E01012525F66EF10E2621F76EF86ABF
:1025B000000EF8220900F5CF46F10900F5CF47F1EA
:1025C0000A00F5CF48F100ECA4F046C158F147C12C
:1025D00059F148C15AF158C146F159C147F15AC1A0
:1025E00048F1000E0101286F030E276F000E1A6FCD
:1025F0000A0E196F5B51176F186B17BF180733EC72
:10260000ACF017C125F118C126F119ECB1F0A10EFB
:1026100001012525F66EF10E2621F76EF86A000EEF
:10262000F8220900F5CF49F10900F5CF4AF10A0077
:10263000F5CF4BF100ECA4F046C155F147C156F17E
:1026400048C157F1120001015B51800A750FD8A0F3
:102650005CD0000E206F0A0E1F6F5B511D6F1E6B4A
:102660001DBF1E0778ECAAF0090E01011D25256F7C
:10267000000E1E21266F000E286F030E276F19EC27
:10268000B1F0A10E01012525F66EF10E2621F76E9F
:10269000F86A000EF8220900F5CF46F10900F5CFDF
:1026A00047F10A00F5CF48F1000E286F030E276F9F
:1026B000000E1A6F0A0E196F5B51176F186B17BF58
:1026C000180733ECACF017C125F118C126F119EC4D
:1026D000B1F0A10E01012525F66EF10E2621F76E4F
:1026E000F86A000EF8220900F5CF49F10900F5CF8C
:1026F0004AF10A00F5CF4BF100ECA4F046C155F1C8
:1027000047C156F148C157F1120001015B51030D59
:10271000A10EF324F66EF10EF420F76EF86A000EA7
:10272000F8220900F5CF55F10900F5CF56F10A005E
:10273000F5CF57F112003C6E3CAE13D13C6C3C50CF
:10274000800A120FD8A09AD0000E126E030E116EDE
:10275000000E0A6E0A0E096E000E046E640E036E01
:102760003C50016E026A01BE02066CECACF001C086
:1027700007F002C008F0FDECAAF0090E07240F6E66
:10278000000E0820106E7BECB1F0C80E0F24F66E20
:10279000F10E1020F76EF86A000EF8220900F5CF4E
:1027A0002AF00900F5CF2BF00A00F5CF2CF0000E2F
:1027B0000A6E640E096E3C50076E086A07BE080672
:1027C000FDECAAF0120E07240F6E000E0820106E0A
:1027D000000E126E030E116E7BECB1F0C80E0F24CA
:1027E000F66EF10E1020F76EF86A000EF82209005E
:1027F000F5CF27F00900F5CF28F00A00F5CF29F032
:10280000F5ECA4F027C039F028C03AF029C03BF01D
:1028100039C027F03AC028F03BC029F0000E126EF4
:10282000030E116E000E046E0A0E036E3C50016E14
:10283000026A01BE02066CECACF001C00FF002C0EF
:1028400010F07BECB1F0C80E0F24F66EF10E1020E4
:10285000F76EF86A000EF8220900F5CF2AF0090099
:10286000F5CF2BF00A00F5CF2CF0F5ECA4F027C043
:1028700036F028C037F029C038F012003C50800AEA
:10288000750FD8A059D0000E0A6E0A0E096E3C5082
:10289000076E086A07BE0806FDECAAF0090E0724B9
:1028A0000F6E000E0820106E000E126E030E116ED9
:1028B0007BECB1F0C80E0F24F66EF10E1020F76E0F
:1028C000F86A000EF8220900F5CF27F00900F5CFCD
:1028D00028F00A00F5CF29F0000E126E030E116EDB
:1028E000000E046E0A0E036E3C50016E026A01BEB9
:1028F00002066CECACF001C00FF002C010F07BECF3
:10290000B1F0C80E0F24F66EF10E1020F76EF86AC3
:10291000000EF8220900F5CF2AF00900F5CF2BF0C0
:102920000A00F5CF2CF0F5ECA4F027C036F028C053
:1029300037F029C038F012003C50030DC80EF324C4
:10294000F66EF10EF420F76EF86A000EF822090018
:10295000F5CF36F00900F5CF37F00A00F5CF38F0A3
:1029600012003C50800A120FD8A09AD0000E126EAE
:10297000030E116E000E0A6E0A0E096E000E046E32
:10298000640E036E3C50016E026A01BE02066CECDE
:10299000ACF001C007F002C008F0FDECAAF0090E8F
:1029A00007240F6E000E0820106E7BECB1F0A10E14
:1029B0000F24F66EF10E1020F76EF86A000EF82262
:1029C0000900F5CF2AF00900F5CF2BF00A00F5CF6A
:1029D0002CF0000E0A6E640E096E3C50076E086AF9
:1029E00007BE0806FDECAAF0120E07240F6E000EBB
:1029F0000820106E000E126E030E116E7BECB1F00B
:102A0000A10E0F24F66EF10E1020F76EF86A000E7C
:102A1000F8220900F5CF27F00900F5CF28F00A00C9
:102A2000F5CF29F0F5ECA4F027C039F028C03AF032
:102A300029C03BF039C027F03AC028F03BC029F04C
:102A4000000E126E030E116E000E046E0A0E036E5F
:102A50003C50016E026A01BE02066CECACF001C093
:102A60000FF002C010F07BECB1F0A10E0F24F66E57
:102A7000F10E1020F76EF86A000EF8220900F5CF6B
:102A80002AF00900F5CF2BF00A00F5CF2CF0F5EC79
:102A9000A4F027C036F028C037F029C038F0120063
:102AA0003C50800A750FD8A059D0000E0A6E0A0E4D
:102AB000096E3C50076E086A07BE0806FDECAAF0D6
:102AC000090E07240F6E000E0820106E000E126E05
:102AD000030E116E7BECB1F0A10E0F24F66EF10E19
:102AE0001020F76EF86A000EF8220900F5CF27F0E3
:102AF0000900F5CF28F00A00F5CF29F0000E126E7C
:102B0000030E116E000E046E0A0E036E3C50016E31
:102B1000026A01BE02066CECACF001C00FF002C00C
:102B200010F07BECB1F0A10E0F24F66EF10E102028
:102B3000F76EF86A000EF8220900F5CF2AF00900B6
:102B4000F5CF2BF00A00F5CF2CF0F5ECA4F027C060
:102B500036F028C037F029C038F012003C50030D81
:102B6000A10EF324F66EF10EF420F76EF86A000E53
:102B7000F8220900F5CF36F00900F5CF37F00A004A
:102B8000F5CF38F012000101906F910E0101176F1F
:102B9000010E186FF60E196FFF0E1A6F000E1C6FE4
:102BA0000F0E1B6FA4ECACF054D0910E0101176F07
:102BB000010E186FC70E196FFF0E1A6F36ECAFF0CB
:102BC0005DD0910E0101176F010E186FCD0E196FB8
:102BD000FF0E1A6F36ECAFF051D0910E0101176F56
:102BE000010E186FDF0E196FFF0E1A6F36ECAFF083
:102BF00045D0910E0101176F010E186FE50E196F88
:102C0000FF0E1A6F36ECAFF039D0910E0101176F3D
:102C1000010E186FF10E196FFF0E1A6F36ECAFF040
:102C20002DD0910E0101176F010E186FF90E196F5B
:102C3000FF0E1A6F36ECAFF021D0910E0101176F25
:102C4000010E186FC70E196FFF0E1A6F36ECAFF03A
:102C500015D001018F51000AD8B4A7D7010AD8B402
:102C6000B0D7030AD8B4B9D7010AD8B4C2D7070A73
:102C7000D8B4CBD7010AD8B4D4D7DFD7910E01018D
:102C8000176F010E186FFB0E196FFF0E1A6F36ECDF
:102C9000AFF06CD0910E0101176F010E186FC60EC8
:102CA000196FFF0E1A6F36ECAFF07BD0910E010159
:102CB000176F010E186FCC0E196FFF0E1A6F36ECDE
:102CC000AFF06FD0910E0101176F010E186FD20E89
:102CD000196FFF0E1A6F36ECAFF063D0910E010141
:102CE000176F010E186FD80E196FFF0E1A6F36ECA2
:102CF000AFF057D0910E0101176F010E186FDE0E65
:102D0000196FFF0E1A6F36ECAFF04BD0910E010128
:102D1000176F010E186FE40E196FFF0E1A6F36EC65
:102D2000AFF03FD0910E0101176F010E186FEA0E40
:102D3000196FFF0E1A6F36ECAFF033D0910E010110
:102D4000176F010E186FF00E196FFF0E1A6F36EC29
:102D5000AFF027D0910E0101176F010E186FF00E22
:102D6000196FFF0E1A6F36ECAFF01BD001019051B6
:102D7000000AD8B48FD7010AD8B498D7030AD8B4B8
:102D8000A1D7010AD8B4AAD7070AD8B4B3D7010A81
:102D9000D8B4BCD7030AD8B4C5D7010AD8B4CED7A3
:102DA000D9D7910E0101176F010E186FFB0E196F25
:102DB000FF0E1A6F36ECAFF06CD0910E0101176F59
:102DC000010E186FC90E196FFF0E1A6F36ECAFF0B7
:102DD0007BD0910E0101176F010E186FCF0E196F86
:102DE000FF0E1A6F36ECAFF06FD0910E0101176F26
:102DF000010E186FD50E196FFF0E1A6F36ECAFF07B
:102E000063D0910E0101176F010E186FDB0E196F61
:102E1000FF0E1A6F36ECAFF057D0910E0101176F0D
:102E2000010E186FE10E196FFF0E1A6F36ECAFF03E
:102E30004BD0910E0101176F010E186FE70E196F3D
:102E4000FF0E1A6F36ECAFF03FD0910E0101176FF5
:102E5000010E186FED0E196FFF0E1A6F36ECAFF002
:102E600033D0910E0101176F010E186FF30E196F19
:102E7000FF0E1A6F36ECAFF027D0910E0101176FDD
:102E8000010E186FF30E196FFF0E1A6F36ECAFF0CC
:102E90001BD001018E51000AD8B48FD7010AD8B4D3
:102EA00098D7030AD8B4A1D7010AD8B4AAD7070A79
:102EB000D8B4B3D7010AD8B4BCD7030AD8B4C5D79D
:102EC000010AD8B4CED7D9D7910E0101176F010EE0
:102ED000186FFD0E196FFF0E1A6F36ECAFF0910EE2
:102EE0000101646F010E656F00EC80F012000101BA
:102EF0005E6F6D0E01015E65AFD0000E286F030E90
:102F0000276F000E206F0A0E1F6F000E1A6F640EDF
:102F1000196F5EC117F1186B33ECACF017C11DF1DE
:102F200018C11EF178ECAAF0090E01011D25256FCC
:102F3000000E1E21266F19ECB1F0C80E01012525E7
:102F4000F66EF10E2621F76EF86A000EF8220900DF
:102F5000F5CF49F10900F5CF4AF10A00F5CF4BF161
:102F6000000E206F640E1F6F5EC11DF11E6B78ECAA
:102F7000AAF0120E01011D25256F000E1E21266FDD
:102F8000000E286F030E276F19ECB1F0C80E010177
:102F90002525F66EF10E2621F76EF86A000EF8224E
:102FA0000900F5CF46F10900F5CF47F10A00F5CF4A
:102FB00048F100ECA4F046C15BF147C15CF148C1A7
:102FC0005DF1000E0101286F030E276F000E1A6FCE
:102FD0000A0E196F5EC117F1186B33ECACF017C114
:102FE00025F118C126F119ECB1F0C80E0101252513
:102FF000F66EF10E2621F76EF86A000EF82209002F
:10300000F5CF49F10900F5CF4AF10A00F5CF4BF1B0
:103010005BC146F15CC147F15DC148F100ECA4F031
:1030200046C158F147C159F148C15AF158C146F15A
:1030300059C147F15AC148F1000E0101496F000E14
:103040004A6F3F0E4B6F00ECA4F046C155F147C1EB
:1030500056F148C157F112000A0E01015E656DD0AC
:10306000000E286F030E276F000E1A6F0A0E196FDD
:103070005EC117F1186B33ECACF017C125F118C124
:1030800026F119ECB1F0C80E01012525F66EF10EFE
:103090002621F76EF86A000EF8220900F5CF49F1F3
:1030A0000900F5CF4AF10A00F5CF4BF1000E206F71
:1030B0000A0E1F6F5EC11DF11E6B78ECAAF0090E9F
:1030C00001011D25256F000E1E21266F000E286FA1
:1030D000030E276F19ECB1F0C80E01012525F66E1D
:1030E000F10E2621F76EF86A000EF8220900F5CFDE
:1030F00046F10900F5CF47F10A00F5CF48F100ECA1
:10310000A4F046C15BF147C15CF148C15DF15BC110
:1031100046F15CC147F15DC148F1000E0101496F04
:10312000000E4A6F3F0E4B6F00ECA4F046C155F104
:1031300047C156F148C157F1120001015E51030D1C
:10314000C80EF324F66EF10EF420F76EF86A000E46
:10315000F8220900F5CF46F10900F5CF47F10A0042
:10316000F5CF48F1000E496F000E4A6F3F0E4B6FCE
:1031700000ECA4F046C155F147C156F148C157F1E2
:1031800012003F6E6D0E3F64A8D0000E126E030E4B
:10319000116E000E0A6E0A0E096E000E046E640EA9
:1031A000036E3FC001F0026A6CECACF001C007F0A6
:1031B00002C008F0FDECAAF0090E07240F6E000E05
:1031C0000820106E7BECB1F0C80E0F24F66EF10EE5
:1031D0001020F76EF86A000EF8220900F5CF2AF0E9
:1031E0000900F5CF2BF00A00F5CF2CF0000E0A6E87
:1031F000640E096E3FC007F0086AFDECAAF0120EDB
:1032000007240F6E000E0820106E000E126E030EC3
:10321000116E7BECB1F0C80E0F24F66EF10E10208B
:10322000F76EF86A000EF8220900F5CF27F00900C2
:10323000F5CF28F00A00F5CF29F0F5ECA4F027C06F
:103240003CF028C03DF029C03EF0000E126E030E87
:10325000116E000E046E0A0E036E3FC001F0026A8A
:103260006CECACF001C00FF002C010F07BECB1F0E0
:10327000C80E0F24F66EF10E1020F76EF86A000EDD
:10328000F8220900F5CF2AF00900F5CF2BF00A004B
:10329000F5CF2CF03CC027F03DC028F03EC029F00F
:1032A000F5ECA4F027C039F028C03AF029C03BF073
:1032B00039C027F03AC028F03BC029F0000E2A6E32
:1032C000000E2B6E3F0E2C6EF5ECA4F027C036F0EE
:1032D00028C037F029C038F012000A0E3F6469D0C8
:1032E000000E126E030E116E000E046E0A0E036EB7
:1032F0003FC001F0026A6CECACF001C00FF002C0FC
:1033000010F07BECB1F0C80E0F24F66EF10E102019
:10331000F76EF86A000EF8220900F5CF2AF00900CE
:10332000F5CF2BF00A00F5CF2CF0000E0A6E0A0E36
:10333000096E3FC007F0086AFDECAAF0090E0724E9
:103340000F6E000E0820106E000E126E030E116E2E
:103350007BECB1F0C80E0F24F66EF10E1020F76E64
:10336000F86A000EF8220900F5CF27F00900F5CF22
:1033700028F00A00F5CF29F0F5ECA4F027C03CF0C6
:1033800028C03DF029C03EF03CC027F03DC028F0E9
:103390003EC029F0000E2A6E000E2B6E3F0E2C6EE2
:1033A000F5ECA4F027C036F028C037F029C038F07B
:1033B00012003F50030DC80EF324F66EF10EF420F8
:1033C000F76EF86A000EF8220900F5CF27F0090021
:1033D000F5CF28F00A00F5CF29F0000E2A6E000E76
:1033E0002B6E3F0E2C6EF5ECA4F027C036F028C0F3
:1033F00037F029C038F01200000E2A6E800E2B6EB6
:103400003F0E2C6E79C027F07AC028F07BC029F0DF
:10341000ECECB0F027C02DF028C02EF029C02FF022
:10342000EAECA9F0D8B00CD0000E0001E76F210E35
:10343000E66F000E796F000E7A6F000E7B6F120040
:10344000000E00017C6F800E7D6F3F0E7E6F79C095
:103450002AF07AC02BF07BC02CF079C027F07AC01C
:1034600028F07BC029F0F5ECA4F027C024F028C098
:1034700025F029C026F08EECB1F024C040F025C024
:1034800041F026C042F0000E436E800E446E3F0EA7
:10349000456EFBEC9EF040C07FF041C080F042C022
:1034A00081F07FC066F080C067F081C068F0D1EC29
:1034B0009FF066C088F067C089F068C08AF079C064
:1034C00027F07AC028F07BC029F0ECECB0F027C0E0
:1034D0002AF028C02BF029C02CF0C30E2D6E350E1B
:1034E0002E6E3F0E2F6EEAECA9F0D8B023D079C033
:1034F00015F07AC016F07BC017F088C018F089C0AC
:1035000019F08AC01AF0E3ECA5F015C08BF016C0D4
:103510008CF017C08DF08BC058F08CC059F08DC066
:103520005AF043EC9DF058C079F059C07AF05AC077
:103530007BF0120000017BAF55D079C018F07AC043
:1035400019F07BC01AF088C024F089C025F08AC029
:1035500026F08EECB1F024C015F025C016F026C080
:1035600017F0E3ECA5F015C08BF016C08CF017C077
:103570008DF08BC058F08CC059F08DC05AF043ECE0
:103580009DF058C085F059C086F05AC087F0100EE3
:10359000436EC90E446E3F0E456E85C024F086C052
:1035A00025F087C026F08EECB1F024C040F025C095
:1035B00041F026C042F0FBEC9EF040C082F041C0DA
:1035C00083F042C084F082C024F083C025F084C020
:1035D00026F08EECB1F024C079F025C07AF026C038
:1035E0007BF0120079C018F07AC019F07BC01AF095
:1035F00088C015F089C016F08AC017F0E3ECA5F07A
:1036000015C08BF016C08CF017C08DF08BC058F031
:103610008CC059F08DC05AF043EC9DF058C085F035
:1036200059C086F05AC087F085C024F086C025F0C6
:1036300087C026F08EECB1F024C040F025C041F0E8
:1036400026C042F0100E436EC90E446E3F0E456E0A
:10365000FBEC9EF040C079F041C07AF042C07BF0B4
:103660001200000E0001726F68AF11D066C024F026
:1036700067C025F068C026F08EECB1F024C066F07B
:1036800025C067F026C068F0010E0001726F66C0A9
:1036900027F067C028F068C029F0FA0E2A6E220EC3
:1036A0002B6E3E0E2C6EF5ECA4F027C066F028C001
:1036B00067F029C068F066C060F067C061F068C05C
:1036C00062F066C056F067C057F068C058F056EC1C
:1036D000A6F056C063F057C064F058C065F00BEC1C
:1036E000B0F060C066F061C067F062C068F066C0AC
:1036F00027F067C028F068C029F0000E2A6E800EFF
:103700002B6E400E2C6EF5ECA4F027C066F028C09E
:1037100067F029C068F0000E2A6E000E2B6E400E76
:103720002C6E66C02DF067C02EF068C02FF0EAEC5A
:10373000A9F0D8B01DD066C060F067C061F068C065
:1037400062F0000E0001636F000E646F400E656F43
:103750000BECB0F060C066F061C067F062C068F06A
:1037600000017251D8A402D0010E01D0000E726F78
:10377000000E2A6E800E2B6E3F0E2C6E66C02DF052
:1037800067C02EF068C02FF0EAECA9F0D8B01CD0CA
:1037900066C024F067C025F068C026F08EECB1F05A
:1037A00024C040F025C041F026C042F0000E436E18
:1037B000000E446E400E456EFBEC9EF040C066F07D
:1037C00041C067F042C068F066C027F067C028F0CB
:1037D00068C029F066C02AF067C02BF068C02CF0E2
:1037E000F5ECA4F027C06FF028C070F029C071F08C
:1037F0006FC04CF070C04DF071C04EF03F0E4F6E78
:10380000F20E506E000E526E030E516EC5ECA6F015
:103810004CC069F04DC06AF04EC06BF069C018F042
:103820006AC019F06BC01AF0000E526E040E516E91
:10383000210E4F6EF20E506E6FC04CF070C04DF006
:1038400071C04EF0C5ECA6F04CC015F04DC016F09E
:103850004EC017F0E3ECA5F015C06CF016C06DF08B
:1038600017C06EF066C027F067C028F068C029F066
:103870006CC02AF06DC02BF06EC02CF0F5ECA4F0FB
:1038800027C066F028C067F029C068F000017251B7
:10389000D8B40FD066C024F067C025F068C026F009
:1038A0008EECB1F024C066F025C067F026C068F049
:1038B000120066C066F067C067F068C068F012006A
:1038C000000E0001A36F000EA46F000EA56F000E86
:1038D0008E6F800E8F6FBF0E906FBCECAEF08EC0FF
:1038E000A0F08FC0A1F090C0A2F0A0C027F0A1C0AE
:1038F00028F0A2C029F0000E2A6E000E2B6E400E9A
:103900002C6EF5ECA4F027C0A3F028C0A4F029C0C9
:10391000A5F0000E2A6E000E2B6E400E2C6E97C086
:1039200027F098C028F099C029F0F5ECA4F027C042
:1039300024F028C025F029C026F08EECB1F024C078
:1039400040F025C041F026C042F0A3C043F0A4C01F
:1039500044F0A5C045F0FBEC9EF040C0A3F041C090
:10396000A4F042C0A5F0000E2A6E000E2B6E400E91
:103970002C6E97C027F098C028F099C029F0F5EC7C
:10398000A4F027C09AF028C09BF029C09CF09AC0F0
:1039900066F09BC067F09CC068F031EC9BF066C09D
:1039A0009DF067C09EF068C09FF09DC040F09EC033
:1039B00041F09FC042F0A3C043F0A4C044F0A5C0B2
:1039C00045F0FBEC9EF040C0A3F041C0A4F042C023
:1039D000A5F0000E00018E6F800E8F6FBF0E906FEE
:1039E000BCECAEF08EC0A0F08FC0A1F090C0A2F0F1
:1039F000A3C015F0A4C016F0A5C017F0000E2A6EE3
:103A0000800E2B6E400E2C6EA0C027F0A1C028F0B7
:103A1000A2C029F0F5ECA4F027C018F028C019F0D6
:103A200029C01AF0E3ECA5F015C0A3F016C0A4F06D
:103A300017C0A5F0A3C066F0A4C067F0A5C068F0E9
:103A4000D1EC9FF066C0A3F067C0A4F068C0A5F0F9
:103A500094C027F095C028F096C029F0A3C02AF0A2
:103A6000A4C02BF0A5C02CF0F5ECA4F027C0A3F067
:103A700028C0A4F029C0A5F0A3C094F0A4C095F07C
:103A8000A5C096F0120058C027F059C028F05AC0BF
:103A900029F0ECECB0F027C06AF028C06BF029C028
:103AA0006CF000016A516B116C11D8A407D0000EA4
:103AB000586E000E596E000E5A6E1200000E2A6EDD
:103AC000800E2B6E3F0E2C6E6AC02DF06BC02EF058
:103AD0006CC02FF0EAECA9F0D8B002D0010E01D0F2
:103AE000000E0001666F6651D8B414D0000E156E3A
:103AF000800E166E3F0E176E6AC018F06BC019F07C
:103B00006CC01AF0E3ECA5F015C06AF016C06BF0BB
:103B100017C06CF06AC027F06BC028F06CC029F0A9
:103B20006AC02AF06BC02BF06CC02CF0F5ECA4F04E
:103B300027C067F028C068F029C069F067C04CF062
:103B400068C04DF069C04EF0300E4F6EF20E506EF0
:103B5000000E526E040E516EC5ECA6F04CC060F023
:103B60004DC061F04EC062F067C04CF068C04DF0CF
:103B700069C04EF00F0E4F6EF20E506E000E526E78
:103B8000050E516EC5ECA6F04CC063F04DC064F05C
:103B90004EC065F06AC027F06BC028F06CC029F0F9
:103BA00060C018F061C019F062C01AF063C015F06F
:103BB00064C016F065C017F0E3ECA5F015C02AF05C
:103BC00016C02BF017C02CF0F5ECA4F027C06AF05B
:103BD00028C06BF029C06CF000016651D8B41CD02D
:103BE0006AC024F06BC025F06CC026F08EECB1F0FA
:103BF00024C040F025C041F026C042F0100E436EB4
:103C0000C90E446E3F0E456EFBEC9EF040C06AF05C
:103C100041C06BF042C06CF05ABE07D06AC058F089
:103C20006BC059F06CC05AF012006AC024F06BC02F
:103C300025F06CC026F08EECB1F024C058F025C001
:103C400059F026C05AF012002DC131F10101326B3A
:103C5000336B2C35313701E332813151366F30C14E
:103C600031F1326B336B2F35313701E33281315112
:103C7000356F3651D8B40BD03551365DD8B00ED033
:103C8000365100083525316F180E316507D02EC129
:103C90002BF12FC12CF130C12DF112003551D8B4C8
:103CA0000BD03651355DD8B00ED0355100083625D1
:103CB000316F180E316507D02BC12BF12CC12CF1BF
:103CC0002DC12DF11200060E346F2DBF348F30BF81
:103CD000348D2C8FFF0E2B17FF0E2C17000E2D1777
:103CE0002F8FFF0E2E17FF0E2F17000E3017355196
:103CF000365DD8B01BD0D8902E372F3730373507E8
:103D000036513519D8B40DD0340734C131F1070E0E
:103D10003117D8B406D0EFD7D8902D332C332B33AE
:103D2000362B35513619D8B41FD0F6D73651355DFC
:103D3000D8B01AD0D8902B372C372D3736073651BC
:103D40003519D8B40DD0340734C131F1070E31170D
:103D5000D8B406D0EFD7D89030332F332E33352B4D
:103D600035513619D8A4F7D734AF0CD0FF0E2B1B22
:103D7000FF0E2C1BFF0E2D1B010E2B27000E2C23DC
:103D8000000E2D2334AD0CD0FF0E2E1BFF0E2F1B6B
:103D9000FF0E301B010E2E27000E2F23000E3023A6
:103DA000000E346F2B512E272C512F232D513023F1
:103DB00030AF0ED0FF0E2E1BFF0E2F1BFF0E301B41
:103DC000010E2E27000E2F23000E3023010E346F1C
:103DD0002EC117F12FC118F130C119F136C11AF1F6
:103DE00034C11BF104ECA8F017C12BF118C12CF160
:103DF00019C12DF1120042C046F0476A486A4134A9
:103E0000463601E3478046504B6E45C046F0476A50
:103E1000486A4434463601E3478046504A6E4B5068
:103E2000D8B40BD04A504B5CD8B00ED04B500008E1
:103E30004A24466E180E466407D043C040F044C082
:103E400041F045C042F012004A50D8B40BD04B505C
:103E50004A5CD8B00ED04A5000084B24466E180E6B
:103E6000466407D040C040F041C041F042C042F03B
:103E70001200060E496E42BE498E45BE498C418EE7
:103E8000FF0E4016FF0E4116000E4216448EFF0E26
:103E90004316FF0E4416000E45164A504B5CD8B030
:103EA0001BD0D8904336443645364A064B504A1804
:103EB000D8B40DD0490649C046F0070E4616D8B40E
:103EC00006D0EFD7D8904232413240324B2A4A5086
:103ED0004B18D8B41FD0F6D74B504A5CD8B01AD084
:103EE000D8904036413642364B064B504A18D8B42B
:103EF0000DD0490649C046F0070E4616D8B406D084
:103F0000EFD7D8904532443243324A2A4A504B18B0
:103F1000D8A4F7D749AE0CD0FF0E401AFF0E411AB5
:103F2000FF0E421A010E4026000E4122000E4222D0
:103F300049AC0CD0FF0E431AFF0E441AFF0E451A6F
:103F4000010E4326000E4422000E4522000E496E4B
:103F500040504326415044224250452245AE0ED0A7
:103F6000FF0E431AFF0E441AFF0E451A010E432698
:103F7000000E4422000E4522010E496E43C001F09E
:103F800044C002F045C003F04BC004F049C005F046
:103F90005CECA8F001C040F002C041F003C042F068
:103FA0001200000E2A6E000E2B6E000E2C6E66C0E4
:103FB0002DF067C02EF068C02FF0EAECA9F0D8A071
:103FC0000ED0000168AF04D0000EE76F210EE66F3F
:103FD000000E666F000E676F000E686F120066C0FD
:103FE00070F067C071F068C072F066C069F067C0B9
:103FF0006AF068C06BF00001691F6A1F6B1F692BB4
:10400000000E6A236B23C80E6925766F6E0E6A2137
:10401000776FBE0E6B21786FD89078337733763315
:10402000000E705F800E715B000E725B040E6F6F8E
:1040300076C06CF077C06DF078C06EF076C027F077
:1040400077C028F078C029F070C02AF071C02BF03A
:1040500072C02CF0F5ECA4F027C073F028C074F007
:1040600029C075F073C027F074C028F075C029F01E
:1040700076C02AF077C02BF078C02CF0F5ECA4F0D5
:1040800027C073F028C074F029C075F073C027F002
:1040900074C028F075C029F076C02AF077C02BF0E4
:1040A00078C02CF0F5ECA4F027C073F028C074F0B1
:1040B00029C075F076C027F077C028F078C029F0C5
:1040C000000E2A6EC00E2B6E3F0E2C6EF5ECA4F087
:1040D00027C076F028C077F029C078F076C060F06D
:1040E00077C061F078C062F073C063F074C064F0B0
:1040F00075C065F00BECB0F060C076F061C077F091
:1041000062C078F000016F2F93D776C027F077C098
:1041100028F078C029F066C02AF067C02BF068C08C
:104120002CF0F5ECA4F027C066F028C067F029C099
:1041300068F0120019C11DF101011E6B1F6B1835CB
:104140001D3701E31E811D51256F2551D8A409D0CB
:10415000000E176F000E186F000E196F000E1A6F09
:1041600012001CC11DF11E6B1F6B1B351D3701E3B7
:104170001E811D51246F2451D8A409D0000E176F41
:10418000000E186F000E196F000E1A6F1200188FB4
:10419000FF0E1717FF0E1817000E19171B8FFF0EB3
:1041A0001A17FF0E1B17000E1C17000E206F000EB3
:1041B000216F000E226F000E236F7F0E255F2451AA
:1041C000980F255F180E246FD8902037213722379B
:1041D00023371A51175D1B5118591C511959D8A072
:1041E00007D01A51175F1B51185B1C51195B2081B6
:1041F000D890173718371937242FE6D725AF16D0A0
:104200002551800A970FD8B009D0000E176F000E05
:10421000186F000E196F000E1A6F1200D89023331A
:10422000223321332033253FF9D715D0170E2565CA
:104230000FD0000E176F000E186F000E196F000ED2
:104240001A6F1200D89020372137223723372507DD
:104250002551D8A4F7D720C117F121C118F122C1E7
:1042600019F123C11AF1120003C007F0086A096AA4
:104270000234073601E3088007500F6E0F50D8A4B0
:1042800009D0000E016E000E026E000E036E000ECD
:10429000046E120006C007F0086A096A0534073682
:1042A00001E3088007500E6E0E50D8A409D0000E0E
:1042B000016E000E026E000E036E000E046E120000
:1042C000028EFF0E0116FF0E0216000E0316058E5B
:1042D000FF0E0416FF0E0516000E0616000E0A6EDF
:1042E000000E0B6E000E0C6E000E0D6E7F0E0F5E3C
:1042F0000E50980F0F5E180E0E6ED8900A360B36C1
:104300000C360D360450015C055002580650035817
:10431000D8A007D00450015E0550025A0650035A37
:104320000A80D8900136023603360E2EE6D70FAE3D
:1043300016D00F50800A970FD8B009D0000E016E2A
:10434000000E026E000E036E000E046E1200D89076
:104350000D320C320B320A320F3EF9D715D0170E40
:104360000F640FD0000E016E000E026E000E036E81
:10437000000E046E1200D8900A360B360C360D363D
:104380000F060F50D8A4F7D70AC001F00BC002F0F7
:104390000CC003F00DC004F01200010119351A35EC
:1043A000226F2251D8A409D0000E176F000E186F8B
:1043B000000E196F000E1A6F12001C351D35216F8B
:1043C0002151D8A409D0000E176F000E186F000EEF
:1043D000196F000E1A6F1200198FFF0E1717FF0EBC
:1043E0001817FF0E1917000E1A171C8FFF0E1A1739
:1043F000FF0E1B17FF0E1C17000E1D17000E1D6F62
:10440000000E1E6F000E1F6F000E206F7F0E225FCA
:104410002151A00F225F200E216FD8901D371E372B
:104420001F3720371A51175D1B5118591C51195944
:104430001D511A59D8A009D01A51175F1B51185B8A
:104440001C51195B1D511A5B1D81D8901737183705
:1044500019371A37212FE1D722AF16D02251800AFF
:104460009F0FD8B009D0000E176F000E186F000E06
:10447000196F000E1A6F1200D89020331F331E33AD
:104480001D33223FF9D715D01F0E22650FD0000E25
:10449000176F000E186F000E196F000E1A6F1200C2
:1044A000D8901D371E371F37203722072251D8A436
:1044B000F7D71DC117F11EC118F11FC119F120C195
:1044C0001AF11200033404340C6E0C50D8A409D035
:1044D000000E016E000E026E000E036E000E046EE2
:1044E0001200063407340B6E0B50D8A409D0000E0E
:1044F000016E000E026E000E036E000E046E1200BE
:10450000038EFF0E0116FF0E0216FF0E0316000E9D
:104510000416068EFF0E0416FF0E0516FF0E061675
:10452000000E0716000E076E000E086E000E096ED4
:10453000000E0A6E7F0E0C5E0B50A00F0C5E200E5C
:104540000B6ED8900736083609360A360450015CDF
:10455000055002580650035807500458D8A009D0F7
:104560000450015E0550025A0650035A0750045A7F
:104570000780D89001360236033604360B2EE1D779
:104580000CAE16D00C50800A9F0FD8B009D0000E88
:10459000016E000E026E000E036E000E046E12001D
:1045A000D8900A320932083207320C3EF9D715D0BA
:1045B0001F0E0C640FD0000E016E000E026E000E76
:1045C000036E000E046E1200D890073608360936C6
:1045D0000A360C060C50D8A4F7D707C001F008C063
:1045E00002F009C003F00AC004F01200DAC1B1F110
:1045F0000101B26B000EB66F000EB56FB6BF06D0EC
:10460000B6510FE1400EB55DD8B00BD0C00EB52548
:10461000D96E020EB621DA6E000EDF6EB54BB62BE8
:10462000EDD7000EB46F000EB36F0ED0C8ECAFF034
:104630000101AE6FC00EB325D96E020EB421DA6E41
:10464000AEC1DFFFB34BB42BB151B35DB451800A9F
:10465000AE6FB251800AAE59D8A0E8D7EBC0DBF1FB
:1046600017D0FF0EAE6FFF0EAF6FC00E176F020EAA
:10467000186F90ECAEF00101AE511727AF5118231F
:10468000C00E1725D96E020E1821DA6E000EDF6EED
:10469000FF0EAE6FFF0EAF6FC00E176F020E186FDA
:1046A00090ECAEF00101AE511727AF511823C00EA8
:1046B0001725D96E020E1821DA6E0A0EDE18D8B44C
:1046C000D0D7FF0EAE6FFF0EAF6FC00E176F020E8A
:1046D000186F90ECAEF00101AE511727AF511823BF
:1046E000C00E1725D96E020E1821DA6E0D0EDE18D7
:1046F000D8B4B7D70001FD91C00E0101A06F020E22
:10470000A16F2BEC8AF0120057C159F101015A6BCD
:104710005B6B5635593701E35A815951636F6351C9
:10472000D8A409D0000E556F000E566F000E576FBB
:10473000000E586F1200170E596F55C15AF156C12D
:104740005BF157C15CF159295D6F04D0D8905C339F
:104750005B335A335D2FFAD701015A515E6F568F82
:10476000FF0E5517FF0E5617000E571755515F6F66
:104770005651606F5751616F626B8E0E635F63AF0E
:1047800016D06351800A8F0FD8B009D0000E556F34
:10479000000E566F000E576F000E586F1200D89023
:1047A0006233613360335F33633FF9D715D0170E3F
:1047B00063650FD0000E556F000E566F000E576FD9
:1047C000000E586F1200D8905F376037613762373C
:1047D00063076351D8A4F7D75E51D8B408D0621FDD
:1047E000611F601F5F6D000E6023612362235FC144
:1047F00055F160C156F161C157F162C158F1120023
:1048000048C14CF101014D6B4E6B47354C3701E30C
:104810004D814C514F6F4F51D8A407D0000E466FB9
:10482000000E476F000E486F12004BC14CF14D6BEC
:104830004E6B4A354C3701E34D814C51546F545106
:10484000D8A407D0000E466F000E476F000E486FC9
:10485000120054517B0F4F2748C154F14B51541B48
:10486000800E5417478F4A8FFF0E4917FF0E4A17C5
:10487000000E4B17000E506F000E516F000E526F5E
:10488000070E536F46A106D0495150274A51512374
:104890004B515223D890483347334633D890493749
:1048A0004A374B37532FEED7090E536F46A106D028
:1048B000495150274A5151234B515223D8904833E4
:1048C00047334633D890523351335033532FEED7BA
:1048D00050C117F151C118F152C119F14FC11AF16C
:1048E00054C11BF104ECA8F017C146F118C147F1FF
:1048F00019C148F112003FC041F0426A436A3E3498
:10490000413601E3428041504B6E4B50D8A409D050
:10491000000E3D6E000E3E6E000E3F6E000E406EAD
:104920001200170E416E3DC042F03EC043F03FC042
:1049300044F04128456E04D0D8904432433242328C
:10494000452EFAD74250466E3E8EFF0E3D16FF0EA4
:104950003E16000E3F163D50476E3E50486E3F508B
:10496000496E4A6A8E0E4B5E4BAE16D04B50800A93
:104970008F0FD8B009D0000E3D6E000E3E6E000EB7
:104980003F6E000E406E1200D8904A3249324832D3
:1049900047324B3EF9D715D0170E4B640FD0000E9F
:1049A0003D6E000E3E6E000E3F6E000E406E120019
:1049B000D8904736483649364A364B064B50D8A42D
:1049C000F7D74650D8B408D04A1E491E481E476C37
:1049D000000E482249224A2247C03DF048C03EF01E
:1049E00049C03FF04AC040F0120029C02DF02E6AA5
:1049F0002F6A28342D3601E32E802D50306E305032
:104A0000D8A407D0000E276E000E286E000E296E67
:104A100012002CC02DF02E6A2F6A2B342D3601E3A4
:104A20002E802D50356E3550D8A407D0000E276E3D
:104A3000000E286E000E296E120035507B0F3026B6
:104A400029C035F02C50351A800E3516288E2B8E45
:104A5000FF0E2A16FF0E2B16000E2C16000E316EBE
:104A6000000E326E000E336E070E346E27A006D095
:104A70002A5031262B5032222C503322D890293202
:104A800028322732D8902A362B362C36342EEED7C1
:104A9000090E346E27A006D02A5031262B50322220
:104AA0002C503322D890293228322732D8903332F2
:104AB00032323132342EEED731C001F032C002F042
:104AC00033C003F030C004F035C005F05CECA8F052
:104AD00001C027F002C028F003C029F0120039C13C
:104AE0003DF101013E6B3F6B38353D3701E33E81BF
:104AF0003D51446F4451D8A407D0000E376F000ECB
:104B0000386F000E396F12003CC13DF13E6B3F6BB8
:104B10003B353D3701E33E813D51456F4551D8A4BA
:104B200007D0000E376F000E386F000E396F12007D
:104B3000000E416F000E426F000E436F4551890F0A
:104B4000445F39C145F13C51451B800E4517388FF4
