:0400000085EF00F098
:060008005F82DDEFBEF097
:100018005F80D8CF02F1E8CF03F1E0CF04F1FACF47
:1000280005F1FBCF06F1E9CF07F1EACF08F1E1CFFF
:1000380009F1E2CF0AF1D9CF0BF1DACF0CF1F3CF06
:100048000DF1F4CF0EF1F6CF0FF1F7CF10F1F8CF95
:1000580011F1F5CF12F15FC013F160C014F161C066
:1000680015F162C016F10E012EBB38AB03D040EC7F
:10007800C8F01BD02CBD36AD0DD001D816D0050068
:10008800FA6E02013751FD6E3851FE6E3951FF6E1E
:10009800FA5012002EBD38AD03D06CECC7F005D075
:1000A8002BBF35AF02D0C2ECC9F016C162F015C142
:1000B80061F014C160F013C15FF012C1F5FF11C106
:1000C800F8FF10C1F7FF0FC1F6FF0EC1F4FF0DC115
:1000D800F3FF0CC1DAFF0BC1D9FF0AC1E2FF09C166
:1000E800E1FF08C1EAFF07C1E9FF06C1FBFF05C13F
:1000F800FAFF04C1E0FF03C1E8FF02C1D8FF5F9027
:060108001000EBEFBFF058
:10D84200000000803F000020410000C84200007A32
:10D852004400401C460050C3470024744980961877
:10D862004B20BCBE4C286B6E4EF9021550EC78ADC5
:10D8720060CAF249710000803FCDCCCC3D0AD7236B
:10D882003C6F12833A17B7D138ACC52737BD3786FC
:10D892003595BFD63377CC2B325F708930FFE6DB0C
:10D8A2002E08E53C1E6042A20D010000000A0000A5
:10D8B2000064000000E803000010270000A08601B9
:10D8C2000040420F008096980000E1F50500CA9AD8
:10D8D2003B010000001000000000010000001000E9
:10D8E2000000000100000010000000000100000024
:10D8F20010140010000C00080004000000063C0494
:10D90200427D9F6A425C900142604DBB4051EC47B0
:10D912003EDE8D1FBBECF34A48359595C717C1DC37
:10D9220045FDDB6DC372B33340063C0442C0598BE4
:10D932004274044442F99B4F410000803F2B340162
:10D94200487F9DB045E7FFD9420000803F4C697394
:10D9520074206F6620616C6C20737570706F7274C6
:10D96200656420636F6D6D616E64733A0A0D446580
:10D972007669636520436F6E74726F6C20436F6DBE
:10D982006D616E64733A20436F6D6D616E647320D6
:10D99200746F207669657720616E6420636F6E74A0
:10D9A200726F6C206C6F77206C6576656C20737972
:10D9B2007374656D2066756E6374696F6E616C69F0
:10D9C20074790A0D20202052657365743A20436CE5
:10D9D2006561727320746865207465726D696E6129
:10D9E2006C20616E6420726573657473207468655F
:10D9F200206D6963726F0A0D202020436C6561728D
:10DA02003A20436C65617273207468652074657294
:10DA12006D696E616C2062757420646F65736E2728
:10DA22007420726573657420746865206D69637211
:10DA32006F0A0D2020204361757365206F662052A6
:10DA4200657365743F3A2052657475726E73207403
:10DA52006865206361757365206F66207468652050
:10DA62006D6F737420726563656E74206465766988
:10DA720063652072657365740A0D2020202A49446B
:10DA82004E3F3A2052657475726E732064657669F2
:10DA92006365206964656E74696669636174696F40
:10DAA2006E20737472696E670A0D202020446576B9
:10DAB200696365204F6E2054696D653F3A20526557
:10DAC2007475726E7320646576696365206F6E206B
:10DAD20074696D652073696E6365206C617374206F
:10DAE2006465766963652072657365740A0D20202A
:10DAF200204465766963652049443F3A2052657443
:10DB020075726E732064657669636520494420618D
:10DB120073207072652D70726F6772616D6D6564CE
:10DB220020696E20666C617368206D656D6F727915
:10DB32000A0D2020205265766973696F6E20494470
:10DB42003F3A2052657475726E732064657669631C
:10DB5200652073696C69636F6E207265766973699B
:10DB62006F6E204944206173207072652D70726F50
:10DB72006772616D6D656420696E20666C617368A1
:10DB8200206D656D6F72790A0D20202055736572C4
:10DB9200204944733F3A2052657475726E73206156
:10DBA200206C697374206F66207573657220494416
:10DBB200732028646973706C6179656420696E20D2
:10DBC200686578292061732073746F7265642069B7
:10DBD2006E20666C617368206D656D6F72790A0DD7
:10DBE200202020414443204572726F723F3A2052F6
:10DBF200657475726E7320746865206361757365F0
:10DC0200206F6620616E20414443206572726F72FC
:10DC120020696620616E206572726F72206F636385
:10DC220075727265640A0D202020436C6561722052
:10DC3200414443204572726F723A20436C656172AF
:10DC4200732074686520414443206572726F7220AC
:10DC5200616E6420726573756D6573204144432063
:10DC6200636F6E76657273696F6E730A0D20202082
:10DC7200564343204F766572766F6C746167653FD9
:10DC82003A2053746174657320696620612056439B
:10DC920043206F766572766F6C7461676520636F7F
:10DCA2006E646974696F6E20686173206F63637557
:10DCB20072726564206F72206E6F740A0D202020CC
:10DCC200436C656172204D61782056616C75657395
:10DCD2003A20457261736573206D6178696D756D67
:10DCE200207265636F726465642076616C7565731A
:10DCF2002066726F6D20454550524F4D0A0D20200F
:10DD02002048656C703A2054686973206D6573739E
:10DD12006167652C206C6973747320737570706F02
:10DD22007274656420636F6D6D616E64730A0D0AAF
:10DD32000D446576696365204D6561737572656D25
:10DD4200656E7420436F6D6D616E64733A2056691F
:10DD52006577206C6F77206C6576656C20737973BC
:10DD620074656D206D6561737572656D656E747332
:10DD72000A0D2020204D65617375726520504F5346
:10DD82003350333F3A2052657475726E73202B33D1
:10DD92002E33562041444320436F6E766572736979
:10DDA2006F6E20696E20766F6C74730A0D202020CE
:10DDB2004D65617375726520504F5331323F3A2081
:10DDC20052657475726E73202B3132562041444372
:10DDD20020436F6E76657273696F6E20696E20766E
:10DDE2006F6C74730A0D2020204D65617375726526
:10DDF200204469652054656D703F3A205265747500
:10DE0200726E7320746865206D6963726F636F6EE2
:10DE120074726F6C6C6572206469652074656D70D4
:10DE22006572617475726520696E206465677265DA
:10DE3200657320430A0D2020204D6561737572655C
:10DE4200204656523F3A2052657475726E732074A2
:10DE5200686520696E7465726E616C2066697865AA
:10DE62006420766F6C7461676520726566657265A1
:10DE72006E6365206275666665722031206F757407
:10DE820070757420696E20766F6C74730A0D202091
:10DE9200204D65617375726520415653533F3A2098
:10DEA20052657475726E7320746865206D65617356
:10DEB200757265642076616C7565206F6620416EAF
:10DEC200616C6F672056535320696E20766F6C74B5
:10DED200730A0D2020204D617820504F5333503368
:10DEE20020566F6C746167653F3A20526574757293
:10DEF2006E7320746865206D6178696D756D20722E
:10DF020065636F72646564202B332E335620526131
:10DF1200696C20566F6C74616765206D65617375FD
:10DF22007265640A0D2020204D617820504F5331D4
:10DF32003220566F6C746167653F3A205265747582
:10DF4200726E7320746865206D6178696D756D20DD
:10DF52007265636F72646564202B313256205261A0
:10DF6200696C20566F6C74616765206D65617375AD
:10DF72007265640A0D2020204D6178204469652075
:10DF820054656D703F3A2052657475726E732074D9
:10DF92006865206D6178696D756D207265636F7259
:10DFA200646564206469652074656D70657261746E
:10DFB200757265206D656173757265640A0D202046
:10DFC200204D61782046565220566F6C7461676509
:10DFD2003F3A2052657475726E7320746865206DC5
:10DFE2006178696D756D207265636F726465642016
:10DFF20046565220427566666572203120566F6C15
:10E0020074616765206D656173757265640A0D0AD6
:10E012000D5072696D617279204D6561737572651B
:10E022006D656E7420436F6D6D616E64733A205638
:10E032006965772068696768206C6576656C206F12
:10E042007574707574206D6561737572656D656E3A
:10E05200747320616E642063616C63756C617469B2
:10E062006F6E730A0D2020204D65617375726520F5
:10E0720044657465637465642043757272656E7479
:10E082003F3A2052657475726E73206D65617375C7
:10E09200726564206F757470757420637572726531
:10E0A2006E7420696E20616D7073206173207365D8
:10E0B200656E206279204144430A0D2020204D657F
:10E0C200617375726520524D532043757272656E8D
:10E0D200743F3A2052657475726E732074686520BD
:10E0E20063616C63756C6174656420524D53206F7B
:10E0F20075747075742063757272656E74206672C1
:10E102006F6D206D6561737572656D656E747320D8
:10E11200616E6420545249414320666972696E6798
:10E1220020616E676C650A0D2020204D6561737554
:10E13200726520524D5320566F6C746167653F3A89
:10E142002052657475726E73207468652063616C09
:10E1520063756C6174656420524D53206F757470E1
:10E16200757420766F6C746167652066726F6D20BE
:10E17200545249414320666972696E6720616E6735
:10E182006C650A0D2020204D656173757265205003
:10E192006F7765723F3A2052657475726E732074A0
:10E1A20068652063616C63756C61746564206F756A
:10E1B2007470757420706F77657220696E20576174
:10E1C2007474730A0D2020204C6F6164204F6E20FE
:10E1D20054696D653F3A2052657475726E73206C96
:10E1E2006F6164206F6E2074696D652073696E6360
:10E1F20065206C617374206465766963652072655D
:10E2020073657420696E207365636F6E64730A0DA3
:10E212002020204D617820524D5320437572726543
:10E222006E743F3A205072696E7473207468652070
:10E232006D6178696D756D207265636F7264656476
:10E2420020524D53206F757470757420637572720D
:10E25200656E740A0D2020204D617820506F77651D
:10E26200723F3A205072696E747320746865206D33
:10E272006178696D756D207265636F726465642083
:10E282006F757470757420706F7765720A0D0A0D60
:10E292004F757470757420436F6E74726F6C204387
:10E2A2006F6D6D616E64733A20436F6E74726F6C42
:10E2B20020746865206F757470757420737461744E
:10E2C2006520616E642064696D6D696E67206665A4
:10E2D2006174757265730A0D202020456E61626C4F
:10E2E200652044696D6D696E673A20456E61626CA6
:10E2F20065205452494143206F75747075742064CF
:10E30200696D6D696E670A0D202020446973616230
:10E312006C652044696D6D696E673A20446973616A
:10E32200626C65205452494143206F757470757454
:10E332002064696D6D696E670A0D202020456E614B
:10E34200626C65204C6F61643A20456E61626C6557
:10E352007320746865206F75747075742054524907
:10E36200414320776974682064696D6D696E672026
:10E3720064697361626C65640A0D202020446973CC
:10E3820061626C65204C6F61643A2044697361621A
:10E392006C657320746865206F7574707574205491
:10E3A2005249414320636F6D706C6574656C790AE4
:10E3B2000D2020204C6F616420456E61626C6564A3
:10E3C2003F3A2052657475726E73206966207468D4
:10E3D20065206F7574707574206C6F616420697349
:10E3E20020656E61626C6564206F7220646973617E
:10E3F200626C65640A0D20202044696D6D696E6748
:10E4020020456E61626C65643F3A20526574757294
:10E412006E732069662064696D6D696E67206F6630
:10E4220020746865206F7574707574206C6F6164F8
:10E4320020697320656E61626C6564206F72206E64
:10E442006F740A0D2020205365742044696D6D6934
:10E452006E672050657263656E746167653A203C31
:10E46200783E3A205365747320746865206F757422
:10E472007075742064696D6D696E67207065726372
:10E48200656E7461676520617320782070657263C0
:10E49200656E740A0D0A0D004C697374206F662054
:10E4A200737570706F727465642044657669636514
:10E4B20020436F6E74726F6C20436F6D6D616E647A
:10E4C200733A0A0D20202052657365743A20436C1A
:10E4D2006561727320746865207465726D696E611E
:10E4E2006C20616E64207265736574732074686554
:10E4F200206D6963726F0A0D202020436C65617282
:10E502003A20436C65617273207468652074657289
:10E512006D696E616C2062757420646F65736E271D
:10E522007420726573657420746865206D69637206
:10E532006F0A0D2020204361757365206F6620529B
:10E54200657365743F3A2052657475726E732074F8
:10E552006865206361757365206F66207468652045
:10E562006D6F737420726563656E7420646576697D
:10E5720063652072657365740A0D2020202A494460
:10E582004E3F3A2052657475726E732064657669E7
:10E592006365206964656E74696669636174696F35
:10E5A2006E20737472696E670A0D202020446576AE
:10E5B200696365204F6E2054696D653F3A2052654C
:10E5C2007475726E7320646576696365206F6E2060
:10E5D20074696D652073696E6365206C6173742064
:10E5E2006465766963652072657365740A0D20201F
:10E5F200204465766963652049443F3A2052657438
:10E6020075726E7320646576696365204944206182
:10E6120073207072652D70726F6772616D6D6564C3
:10E6220020696E20666C617368206D656D6F72790A
:10E632000A0D2020205265766973696F6E20494465
:10E642003F3A2052657475726E7320646576696311
:10E65200652073696C69636F6E2072657669736990
:10E662006F6E204944206173207072652D70726F45
:10E672006772616D6D656420696E20666C61736896
:10E68200206D656D6F72790A0D20202055736572B9
:10E69200204944733F3A2052657475726E7320614B
:10E6A200206C697374206F6620757365722049440B
:10E6B200732028646973706C6179656420696E20C7
:10E6C200686578292061732073746F7265642069AC
:10E6D2006E20666C617368206D656D6F72790A0DCC
:10E6E200202020414443204572726F723F3A2052EB
:10E6F200657475726E7320746865206361757365E5
:10E70200206F6620616E20414443206572726F72F1
:10E7120020696620616E206572726F72206F63637A
:10E7220075727265640A0D202020436C6561722047
:10E73200414443204572726F723A20436C656172A4
:10E74200732074686520414443206572726F7220A1
:10E75200616E6420726573756D6573204144432058
:10E76200636F6E76657273696F6E730A0D20202077
:10E77200564343204F766572766F6C746167653FCE
:10E782003A20537461746573206966206120564390
:10E7920043206F766572766F6C7461676520636F74
:10E7A2006E646974696F6E20686173206F6363754C
:10E7B20072726564206F72206E6F740A0D202020C1
:10E7C200436C656172204D61782056616C7565738A
:10E7D2003A20457261736573206D6178696D756D5C
:10E7E200207265636F726465642076616C7565730F
:10E7F2002066726F6D20454550524F4D0A0D202004
:10E802002048656C703A2054686973206D65737393
:10E812006167652C206C6973747320737570706FF7
:10E822007274656420636F6D6D616E64730A0D0AA4
:10E832000D004C697374206F6620737570706F726F
:10E8420074656420446576696365204D65617375FE
:10E8520072656D656E7420436F6D6D616E64733A9F
:10E862000A0D2020204D65617375726520504F534B
:10E872003350333F3A2052657475726E73202B33D6
:10E882002E33562041444320436F6E76657273697E
:10E892006F6E20696E20766F6C74730A0D202020D3
:10E8A2004D65617375726520504F5331323F3A2086
:10E8B20052657475726E73202B3132562041444377
:10E8C20020436F6E76657273696F6E20696E207673
:10E8D2006F6C74730A0D2020204D6561737572652B
:10E8E200204469652054656D703F3A205265747505
:10E8F200726E7320746865206D6963726F636F6EE8
:10E9020074726F6C6C6572206469652074656D70D9
:10E912006572617475726520696E206465677265DF
:10E92200657320430A0D2020204D65617375726561
:10E93200204656523F3A2052657475726E732074A7
:10E94200686520696E7465726E616C2066697865AF
:10E952006420766F6C7461676520726566657265A6
:10E962006E6365206275666665722031206F75740C
:10E9720070757420696E20766F6C74730A0D202096
:10E98200204D65617375726520415653533F3A209D
:10E9920052657475726E7320746865206D6561735B
:10E9A200757265642076616C7565206F6620416EB4
:10E9B200616C6F672056535320696E20766F6C74BA
:10E9C200730A0D2020204D617820504F533350336D
:10E9D20020566F6C746167653F3A20526574757298
:10E9E2006E7320746865206D6178696D756D207233
:10E9F20065636F72646564202B332E335620526137
:10EA0200696C20566F6C74616765206D6561737502
:10EA12007265640A0D2020204D617820504F5331D9
:10EA22003220566F6C746167653F3A205265747587
:10EA3200726E7320746865206D6178696D756D20E2
:10EA42007265636F72646564202B313256205261A5
:10EA5200696C20566F6C74616765206D65617375B2
:10EA62007265640A0D2020204D617820446965207A
:10EA720054656D703F3A2052657475726E732074DE
:10EA82006865206D6178696D756D207265636F725E
:10EA9200646564206469652074656D706572617473
:10EAA200757265206D656173757265640A0D20204B
:10EAB200204D61782046565220566F6C746167650E
:10EAC2003F3A2052657475726E7320746865206DCA
:10EAD2006178696D756D207265636F72646564201B
:10EAE20046565220427566666572203120566F6C1A
:10EAF20074616765206D656173757265640A0D0ADC
:10EB02000D004C697374206F6620737570706F729C
:10EB1200746564205072696D617279204D6561730C
:10EB22007572656D656E7420436F6D6D616E647391
:10EB32003A0A0D2020204D65617375726520446587
:10EB42007465637465642043757272656E743F3ACE
:10EB52002052657475726E73206D6561737572658E
:10EB620064206F75747075742063757272656E744B
:10EB720020696E20616D7073206173207365656E0C
:10EB8200206279204144430A0D2020204D656173A3
:10EB920075726520524D532043757272656E743FD3
:10EBA2003A2052657475726E7320746865206361D1
:10EBB2006C63756C6174656420524D53206F75747B
:10EBC2007075742063757272656E742066726F6DF3
:10EBD200206D6561737572656D656E747320616E0B
:10EBE2006420545249414320666972696E6720610C
:10EBF2006E676C650A0D2020204D65617375726524
:10EC020020524D5320566F6C746167653F3A205213
:10EC1200657475726E73207468652063616C6375C8
:10EC22006C6174656420524D53206F7574707574F5
:10EC320020766F6C746167652066726F6D20545226
:10EC420049414320666972696E6720616E676C652F
:10EC52000A0D2020204D65617375726520506F7713
:10EC620065723F3A2052657475726E7320746865DE
:10EC72002063616C63756C61746564206F75747078
:10EC8200757420706F77657220696E205761747495
:10EC9200730A0D2020204C6F6164204F6E2054694E
:10ECA2006D653F3A2052657475726E73206C6F61A8
:10ECB20064206F6E2074696D652073696E636520D0
:10ECC2006C6173742064657669636520726573652F
:10ECD2007420696E207365636F6E64730A0D202061
:10ECE200204D617820524D532043757272656E74C7
:10ECF2003F3A205072696E747320746865206D61AA
:10ED020078696D756D207265636F726465642052F7
:10ED12004D53206F75747075742063757272656ED1
:10ED2200740A0D2020204D617820506F7765723F64
:10ED32003A205072696E747320746865206D617830
:10ED4200696D756D207265636F72646564206F759D
:10ED52007470757420706F7765720A0D0A0D004C1D
:10ED6200697374206F6620737570706F7274656456
:10ED7200204F757470757420436F6E74726F6C20BF
:10ED8200436F6D6D616E64733A0A0D202020456EEB
:10ED920061626C652044696D6D696E673A20456EEB
:10EDA20061626C65205452494143206F75747075DD
:10EDB200742064696D6D696E670A0D2020204469B4
:10EDC2007361626C652044696D6D696E673A2044B7
:10EDD200697361626C65205452494143206F7574B6
:10EDE2007075742064696D6D696E670A0D2020204C
:10EDF200456E61626C65204C6F61643A20456E61BC
:10EE0200626C657320746865206F75747075742008
:10EE1200545249414320776974682064696D6D6971
:10EE22006E672064697361626C65640A0D2020203C
:10EE320044697361626C65204C6F61643A20446975
:10EE42007361626C657320746865206F7574707588
:10EE52007420545249414320636F6D706C65746530
:10EE62006C790A0D2020204C6F616420456E61622E
:10EE72006C65643F3A2052657475726E73206966E0
:10EE820020746865206F7574707574206C6F61648E
:10EE920020697320656E61626C6564206F72206404
:10EEA200697361626C65640A0D20202044696D6D8E
:10EEB200696E6720456E61626C65643F3A205265F7
:10EEC2007475726E732069662064696D6D696E6710
:10EED200206F6620746865206F7574707574206C7D
:10EEE2006F616420697320656E61626C6564206F76
:10EEF20072206E6F740A0D202020536574204469BD
:10EF02006D6D696E672050657263656E74616765C9
:10EF12003A203C783E3A2053657473207468652029
:10EF22006F75747075742064696D6D696E67207099
:10EF3200657263656E746167652061732078207005
:10EF4200657263656E740A0D0A0D00506C6561731B
:10EF520065207370656369667920776861742074CF
:10EF6200797065206F6620636F6D6D616E647320CA
:10EF7200796F752764206C696B652068656C7020F9
:10EF8200776974683A0A0D547279202748656C7063
:10EF9200203C636F6D6D616E64207365743E270A59
:10EFA2000D0A0D537570706F7274656420436F6D36
:10EFB2006D616E6420536574733A0A0D20202044FB
:10EFC200657669636520436F6E74726F6C20436F60
:10EFD2006D6D616E64733A20436F6D6D616E647323
:10EFE20020746F207669657720616E6420636F6E8E
:10EFF20074726F6C206C6F77206C6576656C207311
:10F00200797374656D2066756E6374696F6E616C79
:10F012006974790A0D202020446576696365204D64
:10F022006561737572656D656E7420436F6D6D6198
:10F032006E64733A2056696577206C6F77206C6531
:10F0420076656C2073797374656D206D6561737577
:10F0520072656D656E74730A0D2020205072696DA1
:10F06200617279204D6561737572656D656E74208C
:10F07200436F6D6D616E64733A20566965772068DF
:10F08200696768206C6576656C206F75747075743D
:10F09200206D6561737572656D656E747320616E46
:10F0A200642063616C63756C6174696F6E730A0DC1
:10F0B2002020204F757470757420436F6E74726FC8
:10F0C2006C20436F6D6D616E64733A20436F6E7492
:10F0D200726F6C20746865206F757470757420731C
:10F0E2007461746520616E642064696D6D696E6718
:10F0F2002066656174757265730A0D0A0D2748658D
:10F102006C7020416C6C272077696C6C206C697381
:10F112007420616C6C20636F6D6D616E64730A0D97
:10F122000020202020426F6F7420636F6D706C6529
:10F1320074650A0D20202020504943313846363765
:10F142004B3430206D546F7563682054657374209E
:10F15200426F6172640A0D202020204576616C7531
:10F162006174657320746865206D546F75636820DF
:10F172006361706163697469766520746F75636831
:10F18200206C696272617279206469737472696257
:10F1920075746564206279204D6963726F63686972
:10F1A200700A0D2020202053657473207468652036
:10F1B2007374617465206F662066697665204C45BC
:10F1C2004473206261736564206F6E206D546F75A5
:10F1D2006368206361706163697469766520707524
:10F1E2007368627574746F6E730A0D20202020425A
:10F1F20061756420726174653A2031313532303084
:10F20200206270730A0D202020204E6F20706172E0
:10F212006974792C203820626974732C206E6F20F7
:10F22200666C6F7720636F6E74726F6C2C20312066
:10F2320073746F70206269740A0D20202020436F5E
:10F242006D6D616E64732061726520636173652008
:10F2520073656E7369746976650A0D2020202045F6
:10F262006E746572206120636F6D6D616E642C2017
:10F272006F7220656E7465722048656C7020666FCF
:10F2820072206C697374206F6620636F6D6D616E9E
:10F2920064730A0D00496620796F752764206C69D2
:10F2A2006B6520746F20636F6D706C6574656C792B
:10F2B20020656E61626C65206F72206469736162A1
:10F2C2006C6520746865206C6F61642C20646973BE
:10F2D20061626C652064696D6D696E6720616E6440
:10F2E2002075736520726573706563746976652035
:10F2F200636F6D6D616E64730A0D004552524F5219
:10F302003A20506C65617365207365742064696D81
:10F312006D696E672070657263656E7461676520E2
:10F32200746F20616E20696E746567657220677202
:10F332006561746572207468616E203020616E644C
:10F34200206C657373207468616E203130300A0D51
:10F35200004465766963652049442073746F726561
:10F362006420696E20466C6173682069733A2030AC
:10F372007825582E205468697320636F7272657302
:10F38200706F6E647320746F2061206465766963A8
:10F39200652070617274206E756D626572206F6691
:10F3A2002025730A0D005468697320636F727265B9
:10F3B20073706F6E647320746F2061203136206227
:10F3C20069742074696D6572207072652D6C6F614D
:10F3D200642076616C7565206F6620307825582030
:10F3E200282575204C53427329200A0D00564343A9
:10F3F200204F766572766F6C7461676520636F6EFD
:10F40200646974696F6E20686173206F63637572DB
:10F4120072656420285643432068617320657863CF
:10F42200656564656420332E363056290A0D005412
:10F43200686520666F6C6C6F77696E6720557365BF
:10F4420072204944732068617665206265656E208A
:10F452007265747269657665642066726F6D206686
:10F462006C617368206D656D6F72793A0A0D0043A5
:10F47200616C63756C617465642054524941432028
:10F48200666972696E6720616E676C6520697320B8
:10F49200252E33662072616469616E732028252EE1
:10F4A20033662064656772656573290A0D005379B6
:10F4B2007374656D20706172616D6574657273201D
:10F4C200616E642061666669726D61746976652039
:10F4D200726573706F6E73657320617070656172AF
:10F4E20020696E20677265656E0A0D004465766953
:10F4F20063652073696C69636F6E207265766973E8
:10F50200696F6E2049442061732073746F72656461
:10F5120020696E20466C6173682069733A20256306
:10F52200253033640A0D00446576696365206F6E89
:10F532002074696D652073696E6365206C617374F4
:10F5420020726573657420636F6E646974696F6E8F
:10F55200206973202564207365636F6E64730A0DDE
:10F5620000466978656420566F6C74616765205245
:10F5720065666572656E63652042756666657220B2
:10F5820031206D6561737572656420617320252E6B
:10F59200336620566F6C74730A0D004F7574707564
:10F5A2007420706F7765722063616C63756C61742F
:10F5B200656420617320252E33662057617474734D
:10F5C2002066726F6D20524D532076616C756573A3
:10F5D2000A0D0048656C70206D6573736167657311
:10F5E20020616E64206E65757472616C2072657341
:10F5F200706F6E7365732061707065617220696EE1
:10F602002079656C6C6F770A0D004D6178696D75B4
:10F612006D207265636F726465642076616C7565D6
:10F6220073206572617365642066726F6D20535238
:10F63200414D20616E6420454550524F4D0A0D00E8
:10F64200202020205573657220494420576F726430
:10F652002025642028466C617368206164647265A9
:10F66200737320307832303030302558293A2030C8
:10F672007825580A0D004D6178696D756D207265A7
:10F68200636F7264656420465652206275666665D1
:10F6920072203120766F6C74616765206973202552
:10F6A2002E336620566F6C74730A0D004C6F6164C2
:10F6B2002069732063757272656E746C7920656E51
:10F6C20061626C65642C206275742064696D6D6979
:10F6D2006E672069732064697361626C65640A0DE8
:10F6E200004C6F6164206F6E2074696D65207369D0
:10F6F2006E6365206C61737420646576696365204E
:10F702007265736574206973202564207365636F65
:10F712006E64730A0D005468652063617573652019
:10F722006F6620746865206D6F73742072656365FF
:10F732006E742064657669636520726573657420F2
:10F742007761733A2025730A0D004D6178696D75F2
:10F752006D207265636F72646564202B332E33569D
:10F76200207261696C20766F6C74616765206973C1
:10F7720020252E336620566F6C74730A0D004D617E
:10F7820078696D756D207265636F7264656420526D
:10F792004D53206F75747075742063757272656E47
:10F7A2007420697320252E33662041726D730A0D11
:10F7B200004D6178696D756D207265636F72646565
:10F7C20064202B313256207261696C20766F6C7422
:10F7D20061676520697320252E336620566F6C742D
:10F7E200730A0D0054686520666F6C6C6F77696EE2
:10F7F20067206368616E6E656C2063617573656412
:10F8020020616E20414443206572726F723A202556
:10F81200730A0D004D617271756574746520556EC1
:10F82200697665727369747920454C454E20333090
:10F8320033352046696E616C2050726F6A6563745D
:10F842000A0D004572726F727320616E64206E65DC
:10F8520067617469766520726573706F6E73657324
:10F862002061707065617220696E207265640A0D94
:10F8720000456E746572202748656C702720666F9C
:10F8820072206C697374206F6620617661696C61A5
:10F89200626C6520636F6D6D616E64730A0D004D5D
:10F8A2006178696D756D207265636F72646564203D
:10F8B2006F757470757420706F776572206973202C
:10F8C200252E33662057617474730A0D004D6178DA
:10F8D200696D756D207265636F7264656420646919
:10F8E200652074656D7065726174757265206973E7
:10F8F20020252E336620430A0D00564343204F76BF
:10F902006572766F6C7461676520636F6E6469748B
:10F91200696F6E20686173206E6F74206F63637508
:10F92200727265640A0D004C6F6164206861732015
:10F932006265656E20656E61626C65642C20646927
:10F942006D6D696E672064697361626C65640A0D2E
:10F95200004C6F616420616E642064696D6D696E34
:10F9620067206172652063757272656E746C7920AE
:10F9720064697361626C65640A0D0057696E646F35
:10F9820077656420576174636820446F6720546907
:10F992006D65722056696F6C6174696F6E20526575
:10F9A200736574005452494143206F7574707574C5
:10F9B2002064696D6D696E67206861732062656598
:10F9C2006E2064697361626C65640A0D0054524969
:10F9D2004143206F75747075742064696D6D696E32
:10F9E2006720686173206265656E20656E61626C76
:10F9F20065640A0D004D6561737572656D656E749F
:10FA020020726573706F6E736573206170706561CB
:10FA12007220696E206379616E0A0D00415653535C
:10FA2200206D6561737572656420617320252E33C4
:10FA32006620566F6C7473206279204144430A0D2C
:10FA4200002B332E3356207261696C206D65617311
:10FA520075726564206173202B252E336620566FE4
:10FA62006C74730A0D0044696D6D696E672068617C
:10FA720073206265656E2073657420746F2025643F
:10FA82002070657263656E740A0D004469652054C6
:10FA9200656D7065726174757265206D65617375EF
:10FAA20072656420617320252E3366430A0D002B94
:10FAB200313256207261696C206D656173757265B1
:10FAC20064206173202B252E336620566F6C74736D
:10FAD2000A0D00524D53204F757470757420437592
:10FAE2007272656E7420697320252E33662041720E
:10FAF2006D730A0D00524D53204F7574707574204A
:10FB0200566F6C7461676520697320252E336620F9
:10FB120056726D730A0D0048656C70205072696DE3
:10FB2200617279204D6561737572656D656E7420C1
:10FB3200436F6D6D616E64730048656C702044653F
:10FB420076696365204D6561737572656D656E7466
:10FB520020436F6D6D616E6473004D6561737572E4
:10FB620065642043757272656E7420697320252E58
:10FB7200336620416D70730A0D0044696D6D696EC4
:10FB8200672069732063757272656E746C79206583
:10FB92006E61626C65640A0D005573657220696E50
:10FBA200707574206170706561727320696E207760
:10FBB200686974650A0D004C6F6164206973206383
:10FBC200757272656E746C792064697361626C65BA
:10FBD200640A0D0048656C7020446576696365208F
:10FBE200436F6E74726F6C20436F6D6D616E6473E0
:10FBF2000048656C70204F757470757420436F6E89
:10FC020074726F6C20436F6D6D616E6473004C6F24
:10FC120061642069732063757272656E746C7920F9
:10FC2200656E61626C65640A0D005245534554204D
:10FC3200496E737472756374696F6E20457865637B
:10FC420075746564004D65617375726520446574F1
:10FC520065637465642043757272656E743F004C0F
:10FC62006F616420686173206265656E20646973E8
:10FC720061626C65640A0D005365742044696D6DA0
:10FC8200696E672050657263656E746167653A20BC
:10FC9200004E6F20414443204572726F72206465AA
:10FCA2007465637465640A0D00537461636B205557
:10FCB2006E646572666C6F77205265736574004975
:10FCC2006E7465726E616C2046565220427566668D
:10FCD2006572203100537461636B204F76657266E2
:10FCE2006C6F7720526573657400436C656172694D
:10FCF2006E6720414443204572726F720A0D004DB7
:10FD020065617375726520524D5320566F6C746134
:10FD120067653F004D65617375726520524D5320D2
:10FD220043757272656E743F004D617820504F5377
:10FD320033503320566F6C746167653F004D6173B9
:10FD420074657220436C656172205265736574003C
:10FD52004D617820504F53313220566F6C74616779
:10FD6200653F004D65617375726520446965205475
:10FD7200656D703F003031323334353637383941B2
:10FD8200424344454600414320506F776572204DFF
:10FD9200657465720A0D0044696D6D696E67204570
:10FDA2006E61626C65643F004D6178204656522058
:10FDB200566F6C746167653F00564343204F76650A
:10FDC20072766F6C746167653F004D617820524DA9
:10FDD200532043757272656E743F00436C656172A5
:10FDE200204D61782056616C75657300556E6465AF
:10FDF20066696E65642052657365740042726F773E
:10FE02006E204F7574205265736574004D65617381
:10FE120075726520504F533350333F004465766905
:10FE22006365204F6E2054696D653F0043617573B1
:10FE320065206F662052657365743F004469736183
:10FE4200626C652044696D6D696E6700436C656123
:10FE52007220414443204572726F7200506F776581
:10FE620072204F6E205265736574004D6561737523
:10FE7200726520504F5331323F004D656173757288
:10FE82006520506F7765723F00456E61626C652038
:10FE920044696D6D696E6700496E7465726E616C5E
:10FEA2002044414331004D656173757265204156AE
:10FEB20053533F004C6F616420456E61626C656410
:10FEC2003F004C6F6164204F6E2054696D653F00A6
:10FED2004D6178204469652054656D703F00496E1C
:10FEE2007465726E616C204156535300496E74659D
:10FEF200726E616C2054656D700050494331384C0C
:10FF02004636374B3430005265766973696F6E201E
:10FF120049443F004D656173757265204656523FF4
:10FF22000044697361626C65204C6F6164005049E2
:10FF32004331384636374B343000456E61626C656A
:10FF4200204C6F6164004465766963652049443FD3
:10FF5200004D617820506F7765723F004144432025
:10FF62004572726F723F0055736572204944733F48
:10FF720000556E646566696E65640048656C702044
:10FF8200416C6C00286E756C6C2900504F533350D5
:10FF92003300504F533132002A49444E3F00436CE4
:10FFA2006561720049534E530048656C70001B5BDB
:10FFB200324A0049444E001B5B48001B5B73001B26
:10FFC2005B75001B5B4B0033300033310034310072
:10FFD20033320034320033330034330033340034EC
:10FFE20034003335003435003336003436003337CD
:0EFFF200003437001B5B0038003B006D000040
:020000040001F9
:10000000B4C117F1B5C118F1F80E0101196FFD0E59
:100010001A6FE3ECC4F0010117511811D8A40FD0E6
:10002000B00E826FFF0E836FD1EC89F0B90E010123
:10003000826FFF0E836FD1EC89F0FF001200B4C114
:1000400017F1B5C118F1A00E0101196FFF0E1A6F5B
:10005000E3ECC4F0010117511811D8A40ED0B00E72
:10006000826FFF0E836FD1EC89F0B90E0101826FB0
:10007000FF0E836FD1EC89F01200B4C117F1B5C146
:1000800018F12E0E0101196FFE0E1A6FE3ECC4F089
:10009000010117511811D8A419D0000EB26F000E2B
:1000A000B36F020E1CECA1F0180E0101826FF70E67
:1000B000836F0201F751B9ECC7F017C184F118C181
:1000C00085F1D1EC89F045ECC9F01200B4C117F10B
:1000D000B5C118F19A0E0101196FFF0E1A6FE3EC0A
:1000E000C4F0010117511811D8B40FD0B4C117F1E1
:1000F000B5C118F1B50E196FFF0E1A6FE3ECC4F01D
:10010000010117511811D8A418D0000EB26F000EBB
:10011000B36F020E1CECA1F0880E0101826FFD0E80
:10012000836FD1EC89F0160E0101826FF80E836F98
:10013000D1EC89F045ECC9F01200B4C117F1B5C19A
:1001400018F1480E0101196FFF0E1A6FE3ECC4F0AD
:10015000010117511811D8A423D0000EB26F000E60
:10016000B36F020E1CECA1F0530E0101826FF30E6F
:10017000836FC4ECC8F022C184F123C185F1C4ECC3
:10018000C8F022C124F123C125F105ECC4F024C13B
:1001900086F125C187F1D1EC89F045ECC9F0120058
:1001A000B4C117F1B5C118F1090E0101196FFF0EA5
:1001B0001A6FE3ECC4F0010117511811D8A422D032
:1001C000000EB26F000EB36F020E1CECA1F0EE0E2B
:1001D0000101826FF40E836FDEECC6F00101B66F91
:1001E000410EB625846F856B000E852368ECC8F040
:1001F0000101B76FB751866F876BD1EC89F045EC81
:10020000C9F01200B4C117F1B5C118F1690E0101AE
:10021000196FFF0E1A6FE3ECC4F0010117511811AA
:10022000D8A43ED0000EB26F000EB36F020E1CECCD
:10023000A1F0310E0101826FF40E836FD1EC89F0D1
:10024000000E0201CA6F000EC96FCABF06D0CA51A4
:1002500024E1080EC95DD8B020D0420E0101826FA2
:10026000F60E836FC9C284F1CAC285F1D89002012B
:10027000C9350101866F0201CA350101876F02018C
:10028000C9515CECC6F022C188F123C189F1D1ECDF
:1002900089F00201C94BCA2BD8D745ECC9F012002E
:1002A000B4C117F1B5C118F15E0E0101196FFF0E4F
:1002B0001A6FE3ECC4F0010117511811D8A4A4D0AF
:1002C0005EA090D0000EB26F000EB36F010E1CEC5A
:1002D000A1F05FCF3CF260D0900E0101176F020ECB
:1002E000186FA60E196FFF0E1A6F36ECC7F06CD0A0
:1002F000900E0101176F020E186F940E196FFF0E0A
:100300001A6F36ECC7F060D0900E0101176F020E25
:10031000186F8D0E196FFF0E1A6F36ECC7F054D0A0
:10032000900E0101176F020E186FE00E196FFE0E8E
:100330001A6F36ECC7F048D0900E0101176F020E0D
:10034000186FEE0E196FFE0E1A6F36ECC7F03CD028
:10035000900E0101176F020E186F9A0E196FFE0EA4
:100360001A6F36ECC7F030D0900E0101176F020EF5
:10037000186FC10E196FFC0E1A6F36ECC7F024D03F
:10038000900E0101176F020E186F730E196FFF0E9A
:100390001A6F36ECC7F018D002013C51000AD8B4ED
:1003A0009BD7040AD8B4A4D7260AD8B4ADD71E0A5E
:1003B000D8B4B6D7010AD8B4BFD7030AD8B4C8D7BF
:1003C000010AD8B4D1D7DCD7E60E0101826FF70E4F
:1003D000836F900E846F020E856FD1EC89F045EC2F
:1003E000C9F01200000E0101B26F000EB36F020ED1
:1003F0001CECA1F0930E0101826FFC0E836FD1EC17
:1004000089F045ECC9F01200B4C117F1B5C118F17B
:100410004E0E0101196FFE0E1A6FE3ECC4F00101DC
:1004200017511811D8A418D07E965E900E012E8D0B
:10043000C9ECC9F0000E0101B26F000EB36F020EDD
:100440001CECA1F0EC0E0101826FFC0E836FD1EC6D
:1004500089F045ECC9F01200B4C117F1B5C118F12B
:10046000BB0E0101196FFD0E1A6FE3ECC4F0010120
:1004700017511811D8A426D05EA412D0000EB26F66
:10048000000EB36F010E1CECA1F0EF0E0101826FA4
:10049000F30E836FD1EC89F045ECC9F05E94120045
:1004A000000E0101B26F000EB36F020E1CECA1F042
:1004B000FC0E0101826FF80E836FD1EC89F045ECE0
:1004C000C9F01200B4C117F1B5C118F10E0E010147
:1004D000196FFE0E1A6FE3ECC4F0010117511811E9
:1004E000D8A419D0000EB26F000EB36F060E1CEC2C
:1004F000A1F0430E0101826FFA0E836FD3C184F124
:10050000D4C185F1D5C186F1D6C187F1D1EC89F08E
:1005100045ECC9F01200B4C117F1B5C118F16D0E68
:100520000101196FFE0E1A6FE3ECC4F001011751BF
:100530001811D8A419D0000EB26F000EB36F060EBA
:100540001CECA1F0B10E0101826FFA0E836FCFC1D6
:1005500084F1D0C185F1D1C186F1D2C187F1D1EC4E
:1005600089F045ECC9F01200B4C117F1B5C118F11A
:10057000650E0101196FFD0E1A6FE3ECC4F0010165
:1005800017511811D8A419D0000EB26F000EB36F16
:10059000060E1CECA1F08D0E0101826FFA0E836F26
:1005A000CBC184F1CCC185F1CDC186F1CEC187F13B
:1005B000D1EC89F045ECC9F01200B4C117F1B5C116
:1005C00018F1160E0101196FFF0E1A6FE3ECC4F05B
:1005D000010117511811D8A419D0000EB26F000EE6
:1005E000B36F060E1CECA1F0630E0101826FF50ED5
:1005F000836FE4C184F1E5C185F1E6C186F1E7C10D
:1006000087F1D1EC89F045ECC9F01200B4C117F1C3
:10061000B5C118F1A80E0101196FFE0E1A6FE3ECB7
:10062000C4F0010117511811D8A419D0000EB26FEF
:10063000000EB36F060E1CECA1F01E0E0101826FBE
:10064000FA0E836FD7C184F1D8C185F1D9C186F183
:10065000DAC187F1D1EC89F045ECC9F01200B4C1E0
:1006600017F1B5C118F1470E0101196FFC0E1A6F91
:10067000E3ECC4F0010117511811D8A419D0000EF1
:10068000B26F000EB36F060E1CECA1F05C0E010100
:10069000826FFB0E836FC7C184F1C8C185F1C9C1E8
:1006A00086F1CAC187F1D1EC89F045ECC9F012009E
:1006B000B4C117F1B5C118F1160E0101196FFD0E85
:1006C0001A6FE3ECC4F0010117511811D8A419D026
:1006D000000EB26F000EB36F060E1CECA1F0D50E2B
:1006E0000101826FFA0E836FC3C184F1C4C185F129
:1006F000C5C186F1C6C187F1D1EC89F045ECC9F0DE
:100700001200B4C117F1B5C118F1010E0101196F42
:10071000FD0E1A6FE3ECC4F0010117511811D8A4B3
:1007200019D0000EB26F000EB36F060E1CECA1F0D4
:10073000F70E0101826FFA0E836FBFC184F1C0C151
:1007400085F1C1C186F1C2C187F1D1EC89F045ECD8
:10075000C9F01200B4C117F1B5C118F17C0E010146
:10076000196FFE0E1A6FE3ECC4F001011751181156
:10077000D8A419D0000EB26F000EB36F060E1CEC99
:10078000A1F09D0E0101826FF50E836FBBC184F154
:10079000BCC185F1BDC186F1BEC187F1D1EC89F044
:1007A00045ECC9F01200B4C117F1B5C118F18B0EB8
:1007B0000101196FFE0E1A6FE3ECC4F0010117512D
:1007C0001811D8A412D07F90000EB26F000EB36F34
:1007D000020E1CECA1F0CF0E0101826FF90E836FA7
:1007E000D1EC89F045ECC9F01200B4C117F1B5C1E4
:1007F00018F13E0E0101196FFE0E1A6FE3ECC4F002
:10080000010117511811D8A412D07F80000EB26FC9
:10081000000EB36F010E1CECA1F0A60E0101826F59
:10082000F90E836FD1EC89F045ECC9F01200B4C128
:1008300017F1B5C118F13C0E0101196FFF0E1A6FC7
:10084000E3ECC4F0010117511811D8A414D07F8033
:100850007F925E82000EB26F000EB36F020E1CEC30
:10086000A1F0290E0101826FF90E836FD1EC89F09E
:1008700045ECC9F01200B4C117F1B5C118F1B60EBC
:100880000101196FFE0E1A6FE3ECC4F0010117515C
:100890001811D8A425D05EA211D0000EB26F000EA0
:1008A000B36F020E1CECA1F0100E0101826FFC0E62
:1008B000836FD1EC89F045ECC9F01200000E010104
:1008C000B26F000EB36F010E1CECA1F0B90E010166
:1008D000826FFB0E836FD1EC89F045ECC9F01200FA
:1008E000B4C117F1B5C118F1990E0101196FFD0ED0
:1008F0001A6FE3ECC4F0010117511811D8A439D0D4
:100900005EB27FB011D0000EB26F000EB36F020E58
:100910001CECA1F07C0E0101826FFB0E836FD1EC09
:1009200089F045ECC9F012005EA211D0000EB26F42
:10093000000EB36F030E1CECA1F0AE0E0101826F2E
:10094000F60E836FD1EC89F045ECC9F01200000E71
:100950000101B26F000EB36F010E1CECA1F0530E3B
:100960000101826FF90E836FD1EC89F045ECC9F07B
:100970001200B4C117F1B5C118F1230E0101196FAE
:10098000FF0E1A6FE3ECC4F0010117511811D8A43F
:1009900014D07F927F905E92000EB26F000EB36F04
:1009A000010E1CECA1F0610E0101826FFC0E836F41
:1009B000D1EC89F045ECC9F01200B4C126F1B5C103
:1009C00027F17A0E0101286FFC0E296FC4ECC0F0EC
:1009D000010126512711D8B431D1000E0201C66F92
:1009E000000EC56FC6BF06D0C6511FE1030EC55D20
:1009F000D8B01BD0180EC5250101B66F000E02013C
:100A0000C6210101B76FB651B425D96EB751B521D2
:100A1000DA6EC20E0201C525E16E020EC621E26E3B
:100A2000DFCFE7FFC54BC62BDDD7C20E01011D6F1F
:100A3000020E1E6F71ECBEF01DC1C7F21EC1C8F2DE
:100A40000201C8BF06D0C8510BE1640EC75DD8B023
:100A500007D0C8BF05D0C8512BE1C705D8B028D0F2
:100A6000000E0101B26F000EB36F010E1CECA1F07D
:100A7000FD0E0101826FF20E836FD1EC89F0000E42
:100A80000101B26F000EB36F030E1CECA1F0970EC4
:100A90000101826FF20E836FD1EC89F0730E0101B8
:100AA000826FF80E836FD1EC89F045ECC9F012002B
:100AB000000E0101416F000E426FC80E436F420EDF
:100AC000446F000E2D6F000E2E6FC80E2F6F420E5A
:100AD000306FC7C217F1C8C218F1000E18BFFF0E61
:100AE000196F1A6F010EA4ECB6F017C125F118C1E9
:100AF00026F119C127F11AC128F1D1ECC7F025C19F
:100B000029F126C12AF127C12BF128C12CF121ECB2
:100B1000A6F029C13DF12AC13EF12BC13FF12CC104
:100B200040F125ECAFF03DC156F13EC157F13FC158
:100B300058F140C159F1DB0E01015A6F0F0E5B6F86
:100B4000490E5C6F400E5D6FD0ECA2F056C1F2F022
:100B500057C1F3F058C1F4F059C1F5F0F2C056F1A5
:100B6000F3C057F1F4C058F1F5C059F1E10E01019D
:100B70005A6F2E0E5B6F650E5C6F420E5D6FD0EC90
:100B8000A2F056C1A6F257C1A7F258C1A8F259C1A6
:100B9000A9F2C7C2B6F1C8C2B7F10101B61FB71FAB
:100BA000B64BB72B640EB625176F000EB721186F22
:100BB000020E1A6F8F0E196F2CECC8F017C1F0F0EF
:100BC00018C1F1F0000E0101B26F000EB36F020EFA
:100BD0001CECA1F0680E0101826FFA0E836FC7C290
:100BE00084F1C8C285F1D1EC89F0710E0101826FE8
:100BF000F40E836FF2C084F1F3C085F1F4C086F186
:100C0000F5C087F1A6C288F1A7C289F1A8C28AF10E
:100C1000A9C28BF1D1EC89F0A80E0101826FF30E0D
:100C2000836FF0C084F1F1C085F1F0C086F1F1C0AE
:100C300087F1D1EC89F045ECC9F01200B4C117F18D
:100C4000B5C118F11E0E0101196FFE0E1A6FE3EC0B
:100C5000C4F0010117511811D8A419D0000EB26FB9
:100C6000000EB36F020E1CECA1F0290E0101826F81
:100C7000F50E836F1CC284F11DC285F11EC286F180
:100C80001FC287F1D1EC89F045ECC9F01200B4C164
:100C900017F1B5C118F1C40E0101196FFE0E1A6FDC
:100CA000E3ECC4F0010117511811D8A419D0000EBB
:100CB000B26F000EB36F020E1CECA1F0E30E010147
:100CC000826FF60E836F18C284F119C285F11AC2C1
:100CD00086F11BC287F1D1EC89F045ECC9F0120016
:100CE000B4C117F1B5C118F1CC0E0101196FFD0E99
:100CF0001A6FE3ECC4F0010117511811D8A430D0D9
:100D0000FD0EF66ED80EF76E000EF86E0900F5CFE8
:100D100019F10A00F5CF1AF191ECC4F019C1AAF249
:100D20001AC1ABF21BC1ACF21CC1ADF2000E010145
:100D3000B26F000EB36F060E1CECA1F0800E010125
:100D4000826FF70E836FAAC284F1ABC285F1ACC289
:100D500086F1ADC287F1D1EC89F045ECC9F0120003
:100D6000B4C117F1B5C118F1530E0101196FFF0E8F
:100D70001A6FE3ECC4F0010117511811D8A430D058
:100D8000FB0EF66ED80EF76E000EF86E0900F5CF6A
:100D900019F10A00F5CF1AF191ECC4F019C1AEF2C5
:100DA0001AC1AFF21BC1B0F21CC1B1F2000E0101B9
:100DB000B26F000EB36F060E1CECA1F0A10E010184
:100DC000826FF80E836FAEC284F1AFC285F1B0C2FC
:100DD00086F1B1C287F1D1EC89F045ECC9F012007F
:100DE000B4C117F1B5C118F12B0E0101196FFD0E39
:100DF0001A6FE3ECC4F0010117511811D8A430D0D8
:100E0000F90EF66ED80EF76E000EF86E0900F5CFEB
:100E100019F10A00F5CF1AF191ECC4F019C1B2F240
:100E20001AC1B3F21BC1B4F21CC1B5F2000E01012C
:100E3000B26F000EB36F060E1CECA1F04C0E010158
:100E4000826FF70E836FB2C284F1B3C285F1B4C270
:100E500086F1B5C287F1D1EC89F045ECC9F01200FA
:100E6000B4C117F1B5C118F1520E0101196FFD0E91
:100E70001A6FE3ECC4F0010117511811D8A430D057
:100E8000F70EF66ED80EF76E000EF86E0900F5CF6D
:100E900019F10A00F5CF1AF191ECC4F019C1B6F2BC
:100EA0001AC1B7F21BC1B8F21CC1B9F2000E0101A0
:100EB000B26F000EB36F060E1CECA1F0B30E010171
:100EC000826FF70E836FB6C284F1B7C285F1B8C2E4
:100ED00086F1B9C287F1D1EC89F045ECC9F0120076
:100EE000B4C117F1B5C118F1D20E0101196FFE0E90
:100EF0001A6FE3ECC4F0010117511811D8A430D0D7
:100F0000F50EF66ED80EF76E000EF86E0900F5CFEE
:100F100019F10A00F5CF1AF191ECC4F019C1BAF237
:100F20001AC1BBF21BC1BCF21CC1BDF2000E010113
:100F3000B26F000EB36F060E1CECA1F0CF0E0101D4
:100F4000826FF80E836FBAC284F1BBC285F1BCC256
:100F500086F1BDC287F1D1EC89F045ECC9F01200F1
:100F6000B4C117F1B5C118F1AA0E0101196FFD0E38
:100F70001A6FE3ECC4F0010117511811D8A430D056
:100F8000F30EF66ED80EF76E000EF86E0900F5CF70
:100F900019F10A00F5CF1AF191ECC4F019C1BEF2B3
:100FA0001AC1BFF21BC1C0F21CC1C1F2000E010187
:100FB000B26F000EB36F060E1CECA1F0780E0101AB
:100FC000826FF60E836FBEC284F1BFC285F1C0C2CC
:100FD00086F1C1C287F1D1EC89F045ECC9F012006D
:100FE000B4C117F1B5C118F1DD0E0101196FFD0E85
:100FF0001A6FE3ECC4F0010117511811D8A4CCD03A
:10100000000E1B6F000E1C6F000E1D6F000E1E6F7A
:10101000FD0EF66ED80EF76E000EF86E0900F5CFD5
:101020001FF10A00F5CF20F10BECC5F0000E010115
:101030001B6F000E1C6F000E1D6F000E1E6FFB0E4F
:10104000F66ED80EF76E000EF86E0900F5CF1FF1A0
:101050000A00F5CF20F10BECC5F0000E01011B6F6B
:10106000000E1C6F000E1D6F000E1E6FF90EF66E47
:10107000D80EF76E000EF86E0900F5CF1FF10A00CA
:10108000F5CF20F10BECC5F0000E01011B6F000E37
:101090001C6F000E1D6F000E1E6FF70EF66ED80E41
:1010A000F76E000EF86E0900F5CF1FF10A00F5CFBC
:1010B00020F10BECC5F0000E01011B6F000E1C6F40
:1010C000000E1D6F000E1E6FF50EF66ED80EF76E39
:1010D000000EF86E0900F5CF1FF10A00F5CF20F1E0
:1010E0000BECC5F0000E01011B6F000E1C6F000E13
:1010F0001D6F000E1E6FF30EF66ED80EF76E000E0B
:10110000F86E0900F5CF1FF10A00F5CF20F10BECC6
:10111000C5F0000E0201146F000E156F000E166F61
:10112000000E176F000E106F000E116F000E126F81
:10113000000E136F000E0C6F000E0D6F000E0E6F81
:10114000000E0F6F000E086F000E096F000E0A6F81
:10115000000E0B6F000E046F000E056F000E066F81
:10116000000E076F000E006F000E016F000E026F81
:10117000000E036F000E0101B26F000EB36F020E7E
:101180001CECA1F00C0E0101826FF60E836FD1EC06
:1011900089F045ECC9F01200B4C117F1B5C118F1DE
:1011A000D60E0101196FFB0E1A6FE3ECC4F00101BA
:1011B00017511811D8A411D0000EB26F000EB36FE2
:1011C000030E1CECA1F09A0E0101826FE40E836FF6
:1011D000D1EC89F045ECC9F01200B4C117F1B5C1EA
:1011E00018F13B0E0101196FFB0E1A6FE3ECC4F00E
:1011F000010117511811D8A411D0000EB26F000EC2
:10120000B36F030E1CECA1F0340E0101826FE80EE7
:10121000836FD1EC89F045ECC9F01200B4C117F12D
:10122000B5C118F1190E0101196FFB0E1A6FE3EC2D
:10123000C4F0010117511811D8A411D0000EB26FDB
:10124000000EB36F030E1CECA1F0040E0101826FBF
:10125000EB0E836FD1EC89F045ECC9F01200B4C1FC
:1012600017F1B5C118F1F30E0101196FFB0E1A6FDA
:10127000E3ECC4F0010117511811D8A411D0000EED
:10128000B26F000EB36F030E1CECA1F0610E0101F2
:10129000826FED0E836FD1EC89F045ECC9F012003E
:1012A000B4C117F1B5C118F17D0E0101196FFF0E20
:1012B0001A6FE3ECC4F0010117511811D8A411D032
:1012C000000EB26F000EB36F030E1CECA1F04F0EB8
:1012D0000101826FD90E836FD1EC89F045ECC9F022
:1012E0001200B4C117F1B5C118F1AB0E0101196FAD
:1012F000FF0E1A6FE3ECC4F0010117511811D8A4C6
:101300001200000EB26F000EB36F030E1CECA1F0C2
:101310004D0E0101826FEF0E836FD1EC89F05FEC0F
:10132000C9F0D50E0101826FF50E836FD1EC89F003
:10133000000E0101B26F000EB36F020E1CECA1F0A3
:10134000B00E0101826FF40E836FD1EC89F0000EB4
:101350000101B26F000EB36F060E1CECA1F0F70E88
:101360000101826FF90E836FD1EC89F0000E01014B
:10137000B26F000EB36F010E1CECA1F0450E01011F
:10138000826FF80E836FD1EC89F045ECC9F09B0EAB
:101390000101826FFB0E836FD1EC89F05FECC9F025
:1013A0001200840E01019B6F010E9C6F99EF90F06B
:1013B000250EB119D8B405D0B15177ECC9F099EF29
:1013C00090F0000E0101AE6F000EAD6F000EAC6F1D
:1013D000000EAB6F04D00101AB85824B832B82C121
:1013E000F6FF83C1F7FF000EF86E0D0EF76403D011
:1013F0000800F55005D0F6CFE9FFF7CFEAFFEF5030
:10140000300AD8B4E8D782C1F6FF83C1F7FF000ED7
:10141000F86E0D0EF76403D00800F55005D0F6CF36
:10142000E9FFF7CFEAFFEF50B3ECC8F0D8A04CD0FB
:10143000000E0101AE6F000EAD6FADC117F1AEC170
:1014400018F1000E01011A6F0A0E196F2CECC8F08A
:1014500017C1ADF118C1AEF1D00E01018C6FFF0EB6
:101460008D6F82C1F6FF83C1F7FF000EF86E0D0E7F
:10147000F76403D00800F55005D0F6CFE9FFF7CFA9
:10148000EAFFEF5001018E6F8F6B8C518E278D51CB
:101490008F238E51AD278F51AE23824B832B82C178
:1014A000F6FF83C1F7FF000EF86E0D0EF76403D050
:1014B0000800F55005D0F6CFE9FFF7CFEAFFEF506F
:1014C000B3ECC8F0D8B0B9D782C1F6FF83C1F7FF3B
:1014D000000EF86E0D0EF76403D00800F55005D02D
:1014E000F6CFE9FFF7CFEAFFEF502E0AD8A449D094
:1014F0000101AC8D824B832B000EB06F000EAF6FDD
:101500002AD0AFC117F1B0C118F1000E01011A6F56
:101510000A0E196F2CECC8F082C1F6FF83C1F7FFE9
:10152000000EF86E0D0EF76403D00800F55005D0DC
:10153000F6CFE9FFF7CFEAFFEF5001018C6F8C5136
:101540001727000E1823D00E1725AF6FFF0E182196
:10155000B06F824B832B82C1F6FF83C1F7FF000E71
:10156000F86E0D0EF76403D00800F55005D0F6CFE5
:10157000E9FFF7CFEAFFEF50B3ECC8F0D8A0A4D052
:10158000C0D7000E0101B06F000EAF6FAC899CD0C8
:10159000AC85D1D0AB8FCFD09BC1D9FF9CC1DAFF36
:1015A000DECF97F1DDCF98F1020E9B27000E9C2332
:1015B00097519811D8A404D0860E976FFF0E986F9C
:1015C000000E9A6F000E996F03D00101994B9A2B70
:1015D000995197258C6F9A5198218D6F8CC1F6FF88
:1015E0008DC1F7FF000EF86E0D0EF76403D00800F2
:1015F000F55005D0F6CFE9FFF7CFEAFFEF5000092D
:10160000D8A4E3D70101AF51B011D8B40AD0995191
:10161000AF5D9A51B059D8B004D0AFC199F1B0C103
:101620009AF1AD51995DAE519A59D8B005D0995102
:10163000AD5F9A51AE5B08D0000EAE6F000EAD6F7D
:1016400003D0200E77ECC9F00101AD07D8A0AE079A
:10165000AD29F7E1AE29D8B417D0F3D797C1F6FF7B
:1016600098C1F7FF000EF86E0D0EF76403D0080066
:10167000F55005D0F6CFE9FFF7CFEAFFEF5077EC52
:10168000C9F00101974B982B9907D8A09A0799297F
:10169000E5E19A29D8B499EF90F0E0D79BC1D9FF42
:1016A0009CC1DAFFDF50B16F020E9B27000E9C2316
:1016B000B10E976F010E986F000E9A6F010E996F21
:1016C000A1D7C00EAB1337D0010182518C6F83516B
:1016D0008D6F824B832B8CC1F6FF8DC1F7FF000EFF
:1016E000F86E0D0EF76403D00800F55005D0F6CF64
:1016F000E9FFF7CFEAFFEF500101B16FB151000AE6
:10170000D8B41200580AD8B445D73B0AD8B4C6D7C3
:10171000070AD8B410D0020AD8B43AD70F0AD8B4FE
:101720000AD01A0AD8B438D7060AD8B4CAD70D0ACC
:10173000D8B430D7BDD7070EAC15D8B43DD3ACA9BB
:1017400004D0000EB06F060EAF6F9BC1D9FF9CC1D5
:10175000DAFFDECFA3F1DECFA4F1DECFA5F1DECF3D
:10176000A6F1040E9B27000E9C23A6AF15D0A3C1A3
:1017700025F1A4C126F1A5C127F1A6C128F1D1EC1C
:10178000C7F025C1A3F126C1A4F127C1A5F128C145
:10179000A6F1030E0101AB13000EA26F000EA16FA4
:1017A000A351A411A511A611D8B484D0A535A6358E
:1017B000820FA16FA26BFF0EA223A107D8A0A207E0
:1017C000A1C117F1A2C118F1000E1A6F030E196F13
:1017D0002CECC8F017C1A1F118C1A2F1A1C11DF1F3
:1017E000A2C11EF1000E0101206F0A0E1F6F0AEC4C
:1017F000C1F01DC1A1F11EC1A2F10101A2AF03D030
:10180000A107D8A0A207A15100088AEC9CF06FC1E3
:101810009DF170C19EF171C19FF172C1A0F19DC196
:1018200056F19EC157F19FC158F1A0C159F1A3C112
:101830005AF1A4C15BF1A5C15CF1A6C15DF1D0EC88
:10184000A2F056C19DF157C19EF158C19FF159C1F7
:10185000A0F19DC117F19EC118F19FC119F1A0C15E
:101860001AF1000E01011B6F000E1C6F800E1D6F20
:101870003F0E1E6FE4ECBAF00101D8B004D0A1070E
:10188000D8A0A20717D09DC117F19EC118F19FC122
:1018900019F1A0C11AF1000E1B6F000E1C6F200E73
:1018A0001D6F410E1E6FE4ECBAF00101D8A002D00A
:1018B000A14BA22BB0BF06D0B05121E10D0EAF5D00
:1018C000D8B01DD0A3C129F1A4C12AF1A5C12BF123
:1018D000A6C12CF1AF51C2ECADF06FC12DF170C1BA
:1018E0002EF171C12FF172C130F121ECA6F029C1A6
:1018F000A3F12AC1A4F12BC1A5F12CC1A6F10101CC
:10190000A2BF06D0A25122E10A0EA15DD8B01ED01E
:10191000A351A411A511A611D8B462D0A3C178F126
:10192000A4C179F1A5C17AF1A6C17BF193ECBDF018
:101930000101785179117A117B11D8B4A2BF50D02E
:10194000A25104E1020EA15DD8A04AD09DC117F1B9
:101950009EC118F19FC119F1A0C11AF15F0E1B6F52
:10196000700E1C6F890E1D6F400E1E6FE4ECBAF0F6
:101970000101D8B002D0F70E01D0F80EA127FF0E5A
:10198000A223A1518AEC9CF06FC19DF170C19EF120
:1019900071C19FF172C1A0F1A3C117F1A4C118F1E7
:1019A000A5C119F1A6C11AF19DC11BF19EC11CF17F
:1019B0009FC11DF1A0C11EF129ECB9F017C1A7F11B
:1019C00018C1A8F119C1A9F11AC1AAF1000E0101AB
:1019D000A36F000EA46F000EA56F000EA66F3CD083
:1019E000A3C178F1A4C179F1A5C17AF1A6C17BF1B7
:1019F00093ECBDF078C1A7F179C1A8F17AC1A9F142
:101A00007BC1AAF1A3C13DF1A4C13EF1A5C13FF143
:101A1000A6C140F1A7C117F1A8C118F1A9C119F1D8
:101A2000AAC11AF1000EA4ECB6F017C141F118C119
:101A300042F119C143F11AC144F114ECC6F03DC1A1
:101A4000A3F13EC1A4F13FC1A5F140C1A6F1000E32
:101A50000101A26F000EA16F010EB16F0A0EB11944
:101A6000D8B41BD0B151040DAB0EF324F66ED80ED2
:101A7000F420F76EF86A000EF8220900F550A75D11
:101A80000900F550A8590900F550A9590900F55069
:101A9000AA59D8A002D0B12BE1D7B1C18CF18D6B7E
:101AA0008CBF8D07AF518C27B0518D23A1518C274E
:101AB000A2518D238C51AD5F8D51AE5BAF51B011F2
:101AC000D8B403D0AD07D8A0AE07030EAB158C6F0A
:101AD000000EAC158D6F8C518D11D8B403D0AD07AD
:101AE000D8A0AE07ABA525D0030EAB158C6F000EAA
:101AF000AC158D6F8C518D11D8B40BD02D0E77ECA9
:101B0000C9F007D0300E77ECC9F00101AD07D8A0BD
:101B1000AE070101AEBF6CD0AE51F4E1AD05D8A067
:101B200067D0F0D7200E77ECC9F00101AD07D8A03F
:101B3000AE07AEBF05D0AE51F5E1AD05D8B0F2D7D6
:101B4000030EAB158C6F000EAC158D6F8C518D1183
:101B5000D8B44ED02D0E77ECC9F04AD0A7C117F1FA
:101B6000A8C118F1A9C119F1AAC11AF10101B15115
:101B7000040DAB0EF324F66ED80EF420F76EF86A5F
:101B8000000EF8220900F5CF1BF10900F5CF1CF17A
:101B90000900F5CF1DF10A00F5CF1EF14DECC1F0A3
:101BA00017C19DF118C19EF119C19FF11AC1A0F191
:101BB0009DC124F19EC125F19FC126F1A0C127F14D
:101BC0000A0E0101286F000E296F000E2A6F000E09
:101BD0002B6F9EECC3F024C19DF125C19EF126C15F
:101BE0009FF127C1A0F101019D51300F77ECC9F0A1
:101BF0000101B107B129D8B408D0B0D7300E77ECC5
:101C0000C9F00101A107D8A0A207A2BF05D0A25127
:101C1000F5E1A105D8B0F2D7B0BF09D0B05104E1C9
:101C2000090EAF5DD8A003D0080EB16F02D0AFC1CE
:101C3000B1F1B151AF5F000EB1BFFF0EB05BB1515A
:101C4000D8B403D02E0E77ECC9F00101B1518AEC63
:101C50009CF06FC192F170C193F171C194F172C1A6
:101C600095F1A3C15AF1A4C15BF1A5C15CF1A6C174
:101C70005DF192C156F193C157F194C158F195C1EC
:101C800059F1D0ECA2F056C178F157C179F158C1A1
:101C90007AF159C17BF193ECBDF078C1A7F179C11C
:101CA000A8F17AC1A9F17BC1AAF174D0A7C117F13B
:101CB000A8C118F1A9C119F1AAC11AF10101B151C4
:101CC000040DAB0EF324F66ED80EF420F76EF86A0E
:101CD000000EF8220900F5CF1BF10900F5CF1CF129
:101CE0000900F5CF1DF10A00F5CF1EF14DECC1F052
:101CF00017C19DF118C19EF119C19FF11AC1A0F140
:101D00009DC124F19EC125F19FC126F1A0C127F1FB
:101D10000A0E0101286F000E296F000E2A6F000EB7
:101D20002B6F9EECC3F024C19DF125C19EF126C10D
:101D30009FF127C1A0F101019D51300F77ECC9F04F
:101D4000A7C124F1A8C125F1A9C126F1AAC127F193
:101D50000101B151040DAB0EF324F66ED80EF42040
:101D6000F76EF86A000EF8220900F5CF28F1090095
:101D7000F5CF29F10900F5CF2AF10A00F5CF2BF1B3
:101D80009EECC3F024C1A7F125C1A8F126C1A9F199
:101D900027C1AAF10101B107B129D8B408D086D76B
:101DA000300E77ECC9F00101AF07D8A0B007AF51F2
:101DB000B011D8B4BED1F4D7C00EAB158C6F000EE5
:101DC000AC158D6F8C518D11D8A41ED09BC1D9FF3D
:101DD0009CC1DAFFDECFA7F1DDCFA8F1000EA8BFCE
:101DE000FF0EA96FAA6F020E9B27000E9C23AAAFBD
:101DF0001DD0030EAB13AA1FA91FA81FA76D000EAD
:101E0000A823A923AA2312D09BC1D9FF9CC1DAFF22
:101E1000DECF8CF1DDCF8DF18CC1A7F18DC1A8F1A2
:101E2000A96BAA6B020E9B27000E9C23AF51B01129
:101E3000D8A44BD0A751A811A911AA11D8A445D054
:101E4000AF4BB02B42D0010EB16F0A0EB119D8B40E
:101E500047D0B151040DAB0EF324F66ED80EF4202A
:101E6000F76EF86A000EF8220900F550A75D090028
:101E7000F550A8590900F550A9590900F550AA597B
:101E8000D8A02ED0B12BE1D7010EB16F080EB11939
:101E9000D8B426D0B151040DD30EF324F66ED80E6B
:101EA000F420F76EF86A000EF8220900F550A75DDD
:101EB0000900F550A8590900F550A9590900F55035
:101EC000AA59D8A00DD0B12BE1D7AB51C00B000A55
:101ED000D8B4B9D7800AD8B4D7D7400AD8B4B3D7C2
:101EE000800EB1BF7F0E8C6FAF51B15DB051800AD3
:101EF0008C59D8B003D0AFC1B1F110D0B051800A25
:101F00008C6FB151AF5D800EB1BF7F0E8C59D8B0D0
:101F100005D0B151AF6FB06BAFBFB007AD51AE11CF
:101F2000D8B40DD0030EAB158C6F000EAC158D6FB1
:101F30008C518D11D8B403D0AD07D8A0AE07ACAD8D
:101F400013D0AD51AF5DB051800A8C6FAE51800A95
:101F50008C59D8B005D0AF51AD5FB051AE5B04D055
:101F6000000EAE6F000EAD6F800EB1BF7F0E8C6F96
:101F7000AD51B15DAE51800A8C59D8B007D0B15186
:101F8000AD5F000EB1BFFF0EAE5B04D0000EAE6FB2
:101F9000000EAD6FABA51AD0030EAB158C6F000E03
:101FA000AC158D6F8C518D11D8B403D02D0E77ECFC
:101FB000C9F00101AD51AE11D8B4B2D0300E77ECFA
:101FC000C9F00101AD07D8A0AE07F4D7AD51AE11ED
:101FD000D8B40BD0200E77ECC9F00101AD07D8A022
:101FE000AE07AD51AE11D8A4F5D7030EAB158C6F6B
:101FF000000EAC158D6F8C518D11D8B491D02D0E73
:1020000077ECC9F08DD0AFC18CF1B0C18DF1010179
:10201000D8908C378D37D8908C378D37AB0E8C2578
:10202000F66ED80E8D21F76EF86A000EF8220900C0
:10203000F5CF1BF10900F5CF1CF10900F5CF1DF11B
:102040000A00F5CF1EF1A7C117F1A8C118F1A9C167
:1020500019F1AAC11AF14DECC1F017C124F118C150
:1020600025F119C126F11AC127F10A0E0101286FC5
:10207000000E296F000E2A6F000E2B6F9EECC3F02E
:1020800001012451300FB16F48D0A7C117F1A8C189
:1020900018F1A9C119F1AAC11AF1AFC18CF1B0C1EF
:1020A0008DF1D8908C378D37D8908C378D37D30EF3
:1020B0008C25F66ED80E8D21F76EF86A000EF82288
:1020C0000900F5CF1BF10900F5CF1CF10900F5CF90
:1020D0001DF10A00F5CF1EF14DECC1F001011751C1
:1020E0000F0B966F9651010D770EF324F66EFD0ED1
:1020F000F420F76EF86A000EF8220800F5CFB1F16F
:102100000CD00101AB51C00B000AD8B47CD7800AB7
:10211000D8B4BBD7400AD8B476D7B15177ECC9F060
:102120000101AF07D8A0B007AF29EBE1B029D8A4CF
:10213000E8D7010182518C6F83518D6F824B832BC5
:102140008CC1F6FF8DC1F7FF000EF86E0D0EF7641F
:1021500003D00800F55005D0F6CFE9FFF7CFEAFF2E
:10216000EF500101B16FB151D8B41200D8EF89F02E
:102170008A0E0001996F000E9A6F7BEF97F0250E83
:10218000AF19D8B405D0AF51B5ECC9F07BEF97F0DB
:10219000000E0001AC6F000EAB6F000EAA6F000EB8
:1021A000A96F04D00001A985884B892B88C0F6FF50
:1021B00089C0F7FF000EF86E0D0EF76403D008001B
:1021C000F55005D0F6CFE9FFF7CFEAFFEF50300A20
:1021D000D8B4E8D788C0F6FF89C0F7FF000EF86EC4
:1021E0000D0EF76403D00800F55005D0F6CFE9FFD7
:1021F000F7CFEAFFEF50D4ECC8F0D8A04BD0000ED8
:102200000001AC6F000EAB6FABC001F0ACC002F0D0
:10221000000E046E0A0E036E8EECC8F001C0ABF027
:1022200002C0ACF0D00E00018A6FFF0E8B6F88C029
:10223000F6FF89C0F7FF000EF86E0D0EF76403D0AD
:102240000800F55005D0F6CFE9FFF7CFEAFFEF50D1
:1022500000018C6F8D6B8A518C278B518D238C5193
:10226000AB278D51AC23884B892B88C0F6FF89C0E2
:10227000F7FF000EF86E0D0EF76403D00800F5505E
:1022800005D0F6CFE9FFF7CFEAFFEF50D4ECC8F066
:10229000D8B0BAD788C0F6FF89C0F7FF000EF86E35
:1022A0000D0EF76403D00800F55005D0F6CFE9FF16
:1022B000F7CFEAFFEF502E0AD8A448D00001AA8D2C
:1022C000884B892B000EAE6F000EAD6F29D0ADC0CC
:1022D00001F0AEC002F0000E046E0A0E036E8EEC2A
:1022E000C8F088C0F6FF89C0F7FF000EF86E0D0E2B
:1022F000F76403D00800F55005D0F6CFE9FFF7CF1B
:10230000EAFFEF5000018A6F8A510126000E022277
:10231000D00E0124AD6FFF0E0220AE6F884B892BCB
:1023200088C0F6FF89C0F7FF000EF86E0D0EF76447
:1023300003D00800F55005D0F6CFE9FFF7CFEAFF4C
:10234000EF50D4ECC8F0D8A0A4D0C1D7000E000143
:10235000AE6F000EAD6FAA899CD0AA85D1D0A98F8F
:10236000CFD099C0D9FF9AC0DAFFDECF95F0DDCF8C
:1023700096F0020E9927000E9A2395519611D8A433
:1023800004D0860E956FFF0E966F000E986F000EAC
:10239000976F03D00001974B982B975195258A6F23
:1023A000985196218B6F8AC0F6FF8BC0F7FF000E05
:1023B000F86E0D0EF76403D00800F55005D0F6CF87
:1023C000E9FFF7CFEAFFEF500009D8A4E3D70001F7
:1023D000AD51AE11D8B40AD09751AD5D9851AE59F8
:1023E000D8B004D0ADC097F0AEC098F0AB51975DB7
:1023F000AC519859D8B005D09751AB5F9851AC5BB0
:1024000008D0000EAC6F000EAB6F03D0200EB5EC01
:10241000C9F00001AB07D8A0AC07AB29F7E1AC29A4
:10242000D8B417D0F3D795C0F6FF96C0F7FF000ECB
:10243000F86E0D0EF76403D00800F55005D0F6CF06
:10244000E9FFF7CFEAFFEF50B5ECC9F00001954B7B
:10245000962B9707D8A098079729E5E19829D8B433
:102460007BEF97F0E0D799C0D9FF9AC0DAFFDF5031
:10247000AF6F020E9927000E9A23AF0E956F000ED4
:10248000966F000E986F010E976FA1D7C00EA9131B
:1024900037D0000188518A6F89518B6F884B892B07
:1024A0008AC0F6FF8BC0F7FF000EF86E0D0EF764C2
:1024B00003D00800F55005D0F6CFE9FFF7CFEAFFCB
:1024C000EF500001AF6FAF51000AD8B41200580AA4
:1024D000D8B445D73B0AD8B4C6D7070AD8B410D069
:1024E000020AD8B43AD70F0AD8B40AD01A0AD8B414
:1024F00038D7060AD8B4CAD70D0AD8B430D7BDD752
:10250000070EAA15D8B43BD3AAA904D0000EAE6F0B
:10251000060EAD6F99C0D9FF9AC0DAFFDECFA5F0E5
:10252000DECFA6F0DECFA7F0DECFA8F0040E99270D
:10253000000E9A23A8AF15D0A5C02CF0A6C02DF090
:10254000A7C02EF0A8C02FF000ECC8F02CC0A5F05A
:102550002DC0A6F02EC0A7F02FC0A8F0030E0001DA
:10256000A913000EA06F000E9F6FA551A611A71111
:10257000A811D8B482D0A735A835820F9F6FA06B61
:10258000FF0EA0239F07D8A0A0079FC001F0A0C006
:1025900002F0000E046E030E036E8EECC8F001C054
:1025A0009FF002C0A0F09FC007F0A0C008F0000E8E
:1025B0000A6E0A0E096E8FECC1F007C09FF008C0CA
:1025C000A0F00001A0AF03D09F07D8A0A0079F51A3
:1025D0000008DCEC9EF049C09BF04AC09CF04BC068
:1025E0009DF04CC09EF09BC030F09CC031F09DC06F
:1025F00032F09EC033F0A5C034F0A6C035F0A7C0BD
:1026000036F0A8C037F079ECA4F030C09BF031C0B0
:102610009CF032C09DF033C09EF09BC034F09CC053
:1026200035F09DC036F09EC037F0000E386E000EBB
:10263000396E800E3A6E3F0E3B6E75ECBBF0D8B033
:1026400005D000019F07D8A0A00717D09BC034F089
:102650009CC035F09DC036F09EC037F0000E386E3D
:10266000000E396E200E3A6E410E3B6E75ECBBF0DB
:10267000D8A003D000019F4BA02B0001AEBF06D015
:10268000AE5121E10D0EAD5DD8B01DD0A5C056F004
:10269000A6C057F0A7C058F0A8C059F0AD51DAEC69
:1026A000B1F049C05AF04AC05BF04BC05CF04CC07E
:1026B0005DF0C0ECA7F056C0A5F057C0A6F058C01A
:1026C000A7F059C0A8F00001A0BF06D0A05122E198
:1026D0000A0E9F5DD8B01ED0A551A611A711A81152
:1026E000D8B463D0A5C06CF0A6C06DF0A7C06EF0E2
:1026F000A8C06FF002ECBEF000016C516D116E11BC
:102700006F11D8B4A0BF51D0A05104E1020E9F5D5B
:10271000D8A04BD09BC034F09CC035F09DC036F0A3
:102720009EC037F05F0E386E700E396E890E3A6EAD
:10273000400E3B6E75ECBBF0D8B003D00001F70E35
:1027400002D00001F80E9F27FF0EA0239F51DCEC62
:102750009EF049C09BF04AC09CF04BC09DF04CC01D
:102760009EF0A5C001F0A6C002F0A7C003F0A8C06B
:1027700004F09BC005F09CC006F09DC007F09EC011
:1027800008F0BEECB9F001C0A1F002C0A2F003C095
:10279000A3F004C0A4F0000E0001A56F000EA66F08
:1027A000000EA76F000EA86F3CD0A5C06CF0A6C0AD
:1027B0006DF0A7C06EF0A8C06FF002ECBEF06CC068
:1027C000A1F06DC0A2F06EC0A3F06FC0A4F0A5C0D0
:1027D00080F0A6C081F0A7C082F0A8C083F0A1C09D
:1027E00005F0A2C006F0A3C007F0A4C008F0000ED8
:1027F0004EECB7F005C084F006C085F007C086F047
:1028000008C087F038ECC6F080C0A5F081C0A6F003
:1028100082C0A7F083C0A8F0000E0001A06F000ED8
:102820009F6F010EAF6F0A0EAF19D8B41BD0AF5116
:10283000040DAB0EF324F66ED80EF420F76EF86A92
:10284000000EF8220900F550A15D0900F550A259CB
:102850000900F550A3590900F550A459D8A002D099
:10286000AF2BE1D7AFC08AF08B6B8ABF8B07AD511E
:102870008A27AE518B239F518A27A0518B238A51DF
:10288000AB5F8B51AC5BAD51AE11D8B403D0AB078D
:10289000D8A0AC07030EA9158A6F000EAA158B6F7E
:1028A0008A518B11D8B403D0AB07D8A0AC07A9A527
:1028B00025D0030EA9158A6F000EAA158B6F8A51B9
:1028C0008B11D8B40BD02D0EB5ECC9F007D0300E5B
:1028D000B5ECC9F00001AB07D8A0AC070001ACBF54
:1028E0006BD0AC51F4E1AB05D8A066D0F0D7200E88
:1028F000B5ECC9F00001AB07D8A0AC07ACBF05D060
:10290000AC51F5E1AB05D8B0F2D7030EA9158A6F2B
:10291000000EAA158B6F8A518B11D8B44DD02D0E95
:10292000B5ECC9F049D0A1C001F0A2C002F0A3C02B
:1029300003F0A4C004F00001AF51040DAB0EF3246A
:10294000F66ED80EF420F76EF86A000EF822090031
:10295000F5CF05F00900F5CF06F00900F5CF07F037
:102960000A00F5CF08F0D1ECC1F001C09BF002C025
:102970009CF003C09DF004C09EF09BC00EF09CC074
:102980000FF09DC010F09EC011F00A0E126E000EE6
:10299000136E000E146E000E156ED2ECC3F00EC056
:1029A0009BF00FC09CF010C09DF011C09EF0000184
:1029B0009B51300FB5ECC9F00001AF07AF29D8B477
:1029C00008D0B1D7300EB5ECC9F000019F07D8A0F0
:1029D000A007A0BF05D0A051F5E19F05D8B0F2D760
:1029E000AEBF09D0AE5104E1090EAD5DD8A003D051
:1029F000080EAF6F02D0ADC0AFF0AF51AD5F000EAB
:102A0000AFBFFF0EAE5BAF51D8B403D02E0EB5EC06
:102A1000C9F00001AF51DCEC9EF049C090F04AC013
:102A200091F04BC092F04CC093F0A5C034F0A6C01A
:102A300035F0A7C036F0A8C037F090C030F091C094
:102A400031F092C032F093C033F079ECA4F030C092
:102A50006CF031C06DF032C06EF033C06FF002EC3C
:102A6000BEF06CC0A1F06DC0A2F06EC0A3F06FC04C
:102A7000A4F073D0A1C001F0A2C002F0A3C003F083
:102A8000A4C004F00001AF51040DAB0EF324F66EA8
:102A9000D80EF420F76EF86A000EF8220900F5CF80
:102AA00005F00900F5CF06F00900F5CF07F00A00A0
:102AB000F5CF08F0D1ECC1F001C09BF002C09CF052
:102AC00003C09DF004C09EF09BC00EF09CC00FF0B0
:102AD0009DC010F09EC011F00A0E126E000E136E13
:102AE000000E146E000E156ED2ECC3F00EC09BF0FB
:102AF0000FC09CF010C09DF011C09EF000019B51D2
:102B0000300FB5ECC9F0A1C00EF0A2C00FF0A3C009
:102B100010F0A4C011F00001AF51040DAB0EF3246E
:102B2000F66ED80EF420F76EF86A000EF82209004F
:102B3000F5CF12F00900F5CF13F00900F5CF14F02E
:102B40000A00F5CF15F0D2ECC3F00EC0A1F00FC013
:102B5000A2F010C0A3F011C0A4F00001AF07AF298C
:102B6000D8B408D087D7300EB5ECC9F00001AD0756
:102B7000D8A0AE07AD51AE11D8B4BDD1F4D7C00EB8
:102B8000A9158A6F000EAA158B6F8A518B11D8A4D4
:102B90001ED099C0D9FF9AC0DAFFDECFA1F0DDCFF9
:102BA000A2F0000EA2BFFF0EA36FA46F020E992722
:102BB000000E9A23A4AF1DD0030EA913A41FA31FB8
:102BC000A21FA16D000EA223A323A42312D099C09B
:102BD000D9FF9AC0DAFFDECF8AF0DDCF8BF08AC052
:102BE000A1F08BC0A2F0A36BA46B020E9927000E7C
:102BF0009A23AD51AE11D8A44BD0A151A211A3116B
:102C0000A411D8A445D0AD4BAE2B42D0010EAF6F6E
:102C10000A0EAF19D8B447D0AF51040DAB0EF32450
:102C2000F66ED80EF420F76EF86A000EF82209004E
:102C3000F550A15D0900F550A2590900F550A359BE
:102C40000900F550A459D8A02ED0AF2BE1D7010E22
:102C5000AF6F080EAF19D8B426D0AF51040DD30E04
:102C6000F324F66ED80EF420F76EF86A000EF82200
:102C70000900F550A15D0900F550A2590900F55071
:102C8000A3590900F550A459D8A00DD0AF2BE1D716
:102C9000A951C00B000AD8B4B9D7800AD8B4D7D785
:102CA000400AD8B4B3D7800EAFBF7F0E8A6FAD5144
:102CB000AF5DAE51800A8A59D8B003D0ADC0AFF035
:102CC00010D0AE51800A8A6FAF51AD5D800EAFBF9C
:102CD0007F0E8A59D8B005D0AF51AD6FAE6BADBF86
:102CE000AE07AB51AC11D8B40DD0030EA9158A6F45
:102CF000000EAA158B6F8A518B11D8B403D0AB0785
:102D0000D8A0AC07AAAD13D0AB51AD5DAE51800ACF
:102D10008A6FAC51800A8A59D8B005D0AD51AB5FEB
:102D2000AE51AC5B04D0000EAC6F000EAB6F800EEA
:102D3000AFBF7F0E8A6FAB51AF5DAC51800A8A592D
:102D4000D8B007D0AF51AB5F000EAFBFFF0EAC5B8A
:102D500004D0000EAC6F000EAB6FA9A51AD0030E05
:102D6000A9158A6F000EAA158B6F8A518B11D8B4E2
:102D700003D02D0EB5ECC9F00001AB51AC11D8B4A5
:102D8000B1D0300EB5ECC9F00001AB07D8A0AC074C
:102D9000F4D7AB51AC11D8B40BD0200EB5ECC9F0C0
:102DA0000001AB07D8A0AC07AB51AC11D8A4F5D744
:102DB000030EA9158A6F000EAA158B6F8A518B110D
:102DC000D8B490D02D0EB5ECC9F08CD0ADC08AF03F
:102DD000AEC08BF00001D8908A378B37D8908A37F5
:102DE0008B37AB0E8A25F66ED80E8B21F76EF86AFC
:102DF000000EF8220900F5CF05F00900F5CF06F026
:102E00000900F5CF07F00A00F5CF08F0A1C001F0E6
:102E1000A2C002F0A3C003F0A4C004F0D1ECC1F042
:102E200001C00EF002C00FF003C010F004C011F09A
:102E30000A0E126E000E136E000E146E000E156E4A
:102E4000D2ECC3F00E50300F0001AF6F48D0A1C0DC
:102E500001F0A2C002F0A3C003F0A4C004F0ADC012
:102E60008AF0AEC08BF0D8908A378B37D8908A37EB
:102E70008B37D30E8A25F66ED80E8B21F76EF86A43
:102E8000000EF8220900F5CF05F00900F5CF06F095
:102E90000900F5CF07F00A00F5CF08F0D1ECC1F03A
:102EA00001500F0B0001946F9451010D770EF32424
:102EB000F66EFD0EF420F76EF86A000EF822080098
:102EC000F5CFAFF00CD00001A951C00B000AD8B467
:102ED0007DD7800AD8B4BBD7400AD8B477D7AF51D2
:102EE000B5ECC9F00001AD07D8A0AE07AD29EBE104
:102EF000AE29D8A4E8D7000188518A6F89518B6F19
:102F0000884B892B8AC0F6FF8BC0F7FF000EF86E46
:102F10000D0EF76403D00800F55005D0F6CFE9FF99
:102F2000F7CFEAFFEF500001AF6FAF51D8B41200F6
:102F3000BFEF90F0D2ECC9F05FCFD5F072EF9CF00C
:102F40003BECC9F001C005F002C006F0076A086A50
:102F5000000E4EECB7F005C030F006C031F007C0EF
:102F600032F008C033F00D0E346E680E356E530E1D
:102F7000366E3B0E376E79ECA4F030C0D7F131C01D
:102F8000D8F132C0D9F133C0DAF10A0E346ED70E5F
:102F9000356E230E366E3C0E376ED7C138F0D8C171
:102FA00039F0D9C13AF0DAC13BF075ECBBF0D8A0EA
:102FB00005D0AFECC9F00009D8B407D07E865E809A
:102FC0000E012E9DCFECC9F012003F0E0101E86FFB
:102FD00012000D0E346E680E356E530E366E3B0EBB
:102FE000376E3BECC9F001C005F002C006F0076A7D
:102FF000086A000E4EECB7F005C030F006C031F0A4
:1030000007C032F008C033F079ECA4F030C056F0BD
:1030100031C057F032C058F033C059F0D7C15AF020
:10302000D8C15BF0D9C15CF0DAC15DF0C0ECA7F0AB
:1030300056C0E4F157C0E5F158C0E6F159C0E7F1D8
:103040006F0E136E120E146E030E156E400E166E7A
:10305000E4C117F0E5C118F0E6C119F0E7C11AF0B4
:1030600080ECB0F013C024F214C025F215C026F293
:1030700016C027F2000E346E000E356E200E366E2E
:10308000400E376EE4C138F0E5C139F0E6C13AF0E0
:10309000E7C13BF075ECBBF0D8A019D0E4C134F027
:1030A000E5C135F0E6C136F0E7C137F0000E386E05
:1030B000000E396E000E3A6E400E3B6E75ECBBF0A2
:1030C000D8A005D0AFECC9F00009D8B407D07E86EF
:1030D0005E800E012E9DCFECC9F01200220E010180
:1030E000E86F120024C234F025C235F026C236F053
:1030F00027C237F031ECC9F001C005F002C006F07C
:10310000076A086A000E4EECB7F005C030F006C042
:1031100031F007C032F008C033F079ECA4F030C0D1
:10312000D6F031C0D7F032C0D8F033C0D9F0D6C015
:1031300030F0D7C031F0D8C032F0D9C033F00D0E26
:10314000346E680E356ED30E366E3B0E376E79ECEC
:10315000A4F030C0D3F131C0D4F132C0D5F133C0C6
:10316000D6F1000E346E000E356E600E366E400ED7
:10317000376ED3C138F0D4C139F0D5C13AF0D6C1D9
:103180003BF075ECBBF0D8A005D0AFECC9F000095E
:10319000D8B407D07E865E800E012E9DCFECC9F09C
:1031A0001200000E0101E86F1200000E176EC00E33
:1031B000186E7F0E196E440E1A6ED3C113F0D4C16F
:1031C00014F0D5C115F0D6C116F080ECB0F013C0E4
:1031D00034F014C035F015C036F016C037F031ECBD
:1031E000C9F001C005F002C006F0076A086A000EC7
:1031F0004EECB7F005C030F006C031F007C032F039
:1032000008C033F079ECA4F030C0D6F031C0D7F06C
