:0400000085EF00F098
:060008005F82A3EFFEF091
:100018005F80D8CF61F2E8CF62F2E0CF63F2FACF27
:1000280064F2FBCF65F2E9CF66F2EACF67F2E1CF7F
:1000380068F2E2CF69F2D9CF6AF2DACF6BF2F3CF86
:100048006CF2F4CF6DF2F6CF6EF2F7CF6FF2F8CF15
:1000580070F2F5CF71F25FC072F260C073F261C0E6
:1000680074F262C075F20E012EBB38AB03D087EC78
:1000780018F01BD02CBD36AD0DD001D816D0050018
:10008800FA6E04012751FD6E2851FE6E2951FF6E4C
:10009800FA5012002EBD38AD03D052EC17F005D03F
:1000A8002EB338A302D0FCEC18F075C262F074C20B
:1000B80061F073C260F072C25FF071C2F5FF70C286
:1000C800F8FF6FC2F7FF6EC2F6FF6DC2F4FF6CC295
:1000D800F3FF6BC2DAFF6AC2D9FF69C2E2FF68C2E6
:1000E800E1FF67C2EAFF66C2E9FF65C2FBFF64C2BF
:1000F800FAFF63C2E0FF62C2E8FF61C2D8FF5F9007
:10010800100087EF01F09BC19DF19CC19EF1010198
:10011800D8909D379E37D8909D379E3799C19FF1CB
:100128009AC1A0F19D519F279E51A0239FC1F6FF20
:10013800A0C1F7FF000EF86E0900F5CFA1F1090084
:10014800F5CFA2F10900F5CFA3F10A00F5CFA4F18C
:100158004CD0A1C13DF1A2C13EF1A3C13FF1A4C160
:1001680040F195C139F196C13AF197C13BF198C177
:100178003CF13FECD3F039C181F13AC182F13BC186
:1001880083F13CC184F101019B07D8A09C079BC166
:100198009DF19CC19EF1D8909D379E37D8909D3790
:1001A8009E3799C19FF19AC1A0F19D519F279E51F9
:1001B800A0239FC1F6FFA0C1F7FF000EF86E09004B
:1001C800F5CF85F10900F5CF86F10900F5CF87F164
:1001D8000A00F5CF88F12FECD8F081C1A1F182C1D6
:1001E800A2F183C1A3F184C1A4F101019B519C1127
:1001F800D8A4AFD7A1C195F1A2C196F1A3C197F137
:10020800A4C198F1120083C085F084C086F0000173
:10021800D89085378637D8908537863781C087F05C
:1002280082C088F0855187278651882387C0F6FFCA
:1002380088C0F7FF000EF86E0900F5CF89F00900B5
:10024800F5CF8AF00900F5CF8BF00A00F5CF8CF0D6
:100258004CD089C013F08AC014F08BC015F08CC044
:1002680016F07DC00FF07EC010F07FC011F080C086
:1002780012F0E8ECD4F00FC06DF010C06EF011C0B1
:100288006FF012C070F000018307D8A0840783C004
:1002980085F084C086F0D89085378637D890853722
:1002A800863781C087F082C088F0855187278651BC
:1002B800882387C0F6FF88C0F7FF000EF86E090094
:1002C800F5CF71F00900F5CF72F00900F5CF73F0A2
:1002D8000A00F5CF74F0CEECD9F06DC089F06EC08D
:1002E8008AF06FC08BF070C08CF0000183518411CC
:1002F800D8A4AFD789C07DF08AC07EF08BC07FF0CC
:100308008CC080F012009A0EF66E350EF76E000E55
:10031800F86E05EEDFF010EE12F00900F5CFEEFFF3
:10032800E550E150FAE1FC0EF66E340EF76E000E61
:10033800F86E04EEE1F010EE18F00900F5CFEEFFCC
:10034800E550E150FAE1D40EF66E360EF76E000E67
:10035800F86E02EECDF010EE0CF00900F5CFEEFFCE
:10036800E550E150FAE1B20EF66E370EF76E000E68
:10037800F86E0900F5CFEBF1580EF66E370EF76EF2
:10038800000EF86E00EEF3F010EE06F00900F5CF5F
:10039800EEFFE550E150FAE106EE00F0800EEE6A5D
:1003A800E806FDE105EE00F0910EEE6AE806FDE1D3
:1003B80004EE00F0BC0EEE6AE806FDE103EEE3F0A1
:1003C8000C0EEE6AE806FDE102EE76F0570EEE6AD4
:1003D800E806FDE101EED6F0150EEE6AE806FDE14D
:1003E8000001FD6B0001FC6BFB6BFA6BF96B5F9016
:1003F8005F920001C1EFF4F00DC311F30301126B1A
:10040800136B0C35113701E312811151186F185114
:10041800D8A407D0000E0B6F000E0C6F000E0D6FE6
:10042800120010C311F3126B136B0F35113701E370
:1004380012811151196F1951D8A407D0000E0B6FF2
:10044800000E0C6F000E0D6F1200000E156F000EDF
:10045800166F000E176F1951890F185F0DC319F326
:100468001051191B800E19170C8FFF0E0B17FF0E5A
:100478000C17000E0D170F8FFF0E0E17FF0E0F171C
:10048800000E1017180E146FD89015371637173737
:100498000E510B5D0F510C5910510D59D8A007D0B2
:1004A8000E510B5F0F510C5B10510D5B1581D890ED
:1004B8000B370C370D37142FE7D715C300F316C3C6
:1004C80001F317C302F318C303F319C304F3A7EC2A
:1004D800FFF000C30BF301C30CF302C30DF31200CA
:1004E8001FC123F10101246B256B1E35233701E35E
:1004F800248123512A6F2A51D8A407D0000E1D6FDA
:10050800000E1E6F000E1F6F120022C123F1246B14
:10051800256B2135233701E3248123512B6F2B5180
:10052800D8A407D0000E1D6F000E1E6F000E1F6F9F
:100538001200000E276F000E286F000E296F2B5136
:10054800890F2A5F1FC12BF122512B1B800E2B17FD
:100558001E8FFF0E1D17FF0E1E17000E1F17218F6F
:10056800FF0E2017FF0E2117000E2217180E266FF8
:10057800D89027372837293720511D5D21511E591A
:1005880022511F59D8A007D020511D5F21511E5B51
:1005980022511F5B2781D8901D371E371F37262F02
:1005A800E7D727C112F128C113F129C114F12AC1D3
:1005B80015F12BC116F182EC06F012C11DF113C121
:1005C8001EF114C11FF11200030110351135176F08
:1005D8001751D8A409D0000E0E6F000E0F6F000E31
:1005E800106F000E116F12000EC312F30FC313F336
:1005F80010C314F311C315F3200E05D0D89015338A
:10060800143313331233E82EF9D71251166F108FA3
:10061800FF0E0E17FF0E0F17FF0E1017000E111703
:10062800960E175F17AF16D01751800A970FD8B0DC
:1006380009D0000E0E6F000E0F6F000E106F000E27
:10064800116F1200D890113310330F330E33173F48
:10065800F9D715D01F0E17650FD0000E0E6F000EBC
:100668000F6F000E106F000E116F1200D8900E372A
:100678000F371037113717071751D8A4F7D7165166
:10068800D8B408D0111F101F0F1F0E6D000E0F23B6
:10069800102311230EC30EF30FC30FF310C310F36F
:1006A80011C311F3120001015D355E35646F6451A9
:1006B800D8A409D0000E5B6F000E5C6F000E5D6F52
:1006C800000E5E6F12005BC15FF15CC160F15DC13D
:1006D80061F15EC162F1200E05D0D89062336133BA
:1006E80060335F33E82EF9D75F51636F5D8FFF0E7C
:1006F8005B17FF0E5C17FF0E5D17000E5E17960E58
:10070800645F64AF16D06451800A970FD8B009D0DF
:10071800000E5B6F000E5C6F000E5D6F000E5E6F6B
:100728001200D8905E335D335C335B33643FF9D796
:1007380015D01F0E64650FD0000E5B6F000E5C6F46
:10074800000E5D6F000E5E6F1200D8905B375C374D
:100758005D375E3764076451D8A4F7D76351D8B4BE
:1007680008D05E1F5D1F5C1F5B6D000E5C235D2360
:100778005E235BC15BF15CC15CF15DC15DF15EC193
:100788005EF11200333434343A6E3A50D8A409D0AA
:10079800000E316E000E326E000E336E000E346E97
:1007A800120031C035F032C036F033C037F034C0F3
:1007B80038F0200E05D0D8903832373236323532FC
:1007C800E82EF9D73550396E338EFF0E3116FF0EED
:1007D8003216FF0E3316000E3416960E3A5E3AAEF7
:1007E80016D03A50800A970FD8B009D0000E316E53
:1007F800000E326E000E336E000E346E1200D8906A
:1008080034323332323231323A3EF9D715D01F0EF4
:100818003A640FD0000E316E000E326E000E336E49
:10082800000E346E1200D8903136323633363436F4
:100838003A063A50D8A4F7D73950D8B408D0341E5D
:10084800331E321E316C000E32223322342231C064
:1008580031F032C032F033C033F034C034F012001B
:1008680003D00301064B072B06C3D9FF07C3DAFFE2
:10087800200EDE18D8B4F5D706C3D9FF07C3DAFFB0
:10088800090EDE18D8B4EDD7000E03010C6F000E68
:100898000B6F000E0A6F06C3D9FF07C3DAFF2D0ED0
:1008A800DE18D8A402D00A2B26D006C3D9FF07C366
:1008B800DAFF2B0EDE18D8A420D01DD00BC300F30E
:1008C8000CC301F3000E0301036F0A0E026F73ECF1
:1008D80018F006C3D9FF07C3DAFFDF500301086F1A
:1008E800096B0051082701510923D00E08250B6F09
:1008F800FF0E09210C6F064B072B06C3D9FF07C350
:10090800DAFFDF50A2EC19F0D8B0D8D703010A51AA
:10091800D8B40DD00BC308F30CC309F3081F091F83
:10092800084B092B08C306F309C307F312000BC3CE
:1009380006F30CC307F31200000E7D6E000E7C6EEA
:10094800000E796E000E7E6E000E7A6E000E7F6EBF
:10095800000E7B6E000E806E040E856E000E866E95
:10096800BD0E816E400E876E000E826E000E886E80
:10097800C00E836E000E846E000E0E01A76F000E6F
:100988009A6F040EAF6F200EBC6F000EB46F9D0EF1
:10099800926F000EA66F000EB36F000EAE6F000EC2
:1009A800996F000EBB6F000E916F000EA16F000EC5
:1009B800C06F000EAD6F010EB26F000E906F000E8B
:1009C800BA6F000E986F000EBF6F000EA06F000E7A
:1009D800A56F8F6997699F69A469AC69B169B9699D
:1009E800BE690E0E896F170E196F050E0D01F06F97
:1009F8001A0E0E01686F360E116F190E696F160EFA
:100A08001A6F12000301206F1F0E0301206503D027
:100A18007F0E206502D0200E206F400E146F000E4E
:100A2800106FFF0E116F2051126F136BD890123791
:100A38001337D89012371337D8901237133710510D
:100A48001227115113237D0E12251D6FCC0E132171
:100A58001E6F150E006F030E016F1DC302F31EC338
:100A680003F3000E056F080E046F32EC07F0090E51
:100A780003011F6F140E096F030E0A6F1FC30BF3D8
:100A8800000E0D6F3C0E0C6FCC0E0E6F020E0F6F2A
:100A9800DCEC11F0020E0201CC19D8B4FBD7CC055E
:100AA800D8B410D0030ECC19D8B40CD0040ECC197D
:100AB800D8B408D0050ECC19D8B404D0060ECC1979
:100AC800D8A41200010E7D6F12000101326F1F0EB3
:100AD8000101326503D07F0E326502D0200E326FDD
:100AE800400E266F000E226FFF0E236F3251246FC7
:100AF800256BD89024372537D89024372537D890B8
:100B08002437253722512427235125237D0E2425D8
:100B18002F6FCC0E2521306F270E126F010E136F29
:100B28002FC114F130C115F1000E176F080E166FA2
:100B380089EC07F0090E0101316F260E1B6F010EBB
:100B48001C6F31C11DF1000E1F6F3C0E1E6FCC0EC5
:100B5800206F020E216F04EC12F0020E0201CC1974
:100B6800D8B4FBD7CC05D8B410D0030ECC19D8B460
:100B78000CD0040ECC19D8B408D0050ECC19D8B4B2
:100B880004D0060ECC19D8A41200010E7D6F1200F5
:100B9800BFC326F3C0C327F3C1C328F3C2C329F3D5
:100BA80082EC08F026C330F327C331F328C332F3AD
:100BB80029C333F3CFEC17F030C334F331C335F323
:100BC80032C336F333C337F3BFC338F3C0C339F383
:100BD800C1C33AF3C2C33BF390ECD6F034C3C3F3BA
:100BE80035C3C4F336C3C5F337C3C6F3BFC334F341
:100BF800C0C335F3C1C336F3C2C337F3C3C338F335
:100C0800C4C339F3C5C33AF3C6C33BF390ECD6F07B
:100C180034C3BFF335C3C0F336C3C1F337C3C2F31C
:100C2800BFC326F3C0C327F3C1C328F3C2C329F344
:100C380082EC08F026C3BFF327C3C0F328C3C1F36F
:100C480029C3C2F3120004C273F105C274F106C2CB
:100C580075F107C276F1D2EC08F073C17DF174C169
:100C68007EF175C17FF176C180F12FEC18F07DC15E
:100C780081F17EC182F17FC183F180C184F104C218
:100C880085F105C286F106C287F107C288F12FEC0B
:100C9800D8F081C108F282C109F283C10AF284C185
:100CA8000BF204C281F105C282F106C283F107C2C8
:100CB80084F108C285F109C286F10AC287F10BC224
:100CC80088F12FECD8F081C104F282C105F283C10A
:100CD80006F284C107F204C273F105C274F106C2B8
:100CE80075F107C276F1D2EC08F073C104F274C151
:100CF80005F275C106F276C107F21200010115511D
:100D0800D8B405D0125113111411D8A40CD0000E68
:100D1800126F000E136F000E146F1200152BD8906F
:100D2800143313331233000E1215176F000E1315F8
:100D3800186FFE0E1415196F175118111911D8B420
:100D48000CD0ECD7152B010E1227000E1323000E22
:100D58001423D890143313331233000E1215176F5F
:100D6800000E1315186FFF0E1415196F175118116F
:100D78001911D8B406D0E6D71507D890123713370B
:100D8800143713BF03D0020E1561F6D715A1139FB0
:100D9800D8901533155114131651D8A4148F12C1B5
:100DA80012F113C113F114C114F112000E01F5A3CD
:100DB80005D0F599F589010E02017E6F0001FA51FF
:100DC800010D000EF324D96E050EF420DA6EF1CE73
:100DD800DFFFFA2B3F0EFA6502D0000EFA6F020110
:100DE800BE2B0A0E0E01F119D8B404D00D0EF1195C
:100DF800D8A406D00001FD83000E0E01F16F02D0C9
:100E08000001FD93080E0E01F119D8A4120000018B
:100E1800FA51010D000EF324D96E050EF420DA6E96
:100E2800000EDF6EFA07C80EC56FFF0EC66F8DEC99
:100E380016F00201BF510001FA19D8B40BD0FA51CB
:100E4800010D000EF324D96E050EF420DA6E000EA3
:100E5800DF6EFA07000E0E01F16F120002C30AF3EB
:100E680003C30BF300C308F301C309F303010851DB
:100E78000A5D09510B59D8B02FD004510A25066FC5
:100E880005510B21076F0651085D07510959D8B064
:100E980023D004510A2705510B2304510827055173
:100EA80009230A07D8A00B070AC3F6FF0BC3F7FFED
:100EB800000EF86E0807D8A0090708C3D9FF09C3B0
:100EC800DAFF0800F5CFDFFF0407D8A005070451B3
:100ED8000511D8B41200E5D704510511D8B4120091
:100EE8000AC3F6FF0BC3F7FF000EF86E08C3D9FF5D
:100EF80009C3DAFF0800F5CFDFFF0A4B0B2B084BBD
:100F0800092B0407D8A00507E7D714C11CF115C1A0
:100F18001DF112C11AF113C11BF101011A511C5D17
:100F28001B511D59D8B02FD016511C25186F1751B9
:100F38001D21196F18511A5D19511B59D8B023D0AA
:100F480016511C2717511D2316511A2717511B23F9
:100F58001C07D8A01D071CC1F6FF1DC1F7FF000E16
:100F6800F86E1A07D8A01B071AC1D9FF1BC1DAFFF0
:100F78000800F5CFDFFF1607D8A01707165117117D
:100F8800D8B41200E5D716511711D8B412001CC1F5
:100F9800F6FF1DC1F7FF000EF86E1AC1D9FF1BC17D
:100FA800DAFF0800F5CFDFFF1C4B1D2B1A4B1B2B5C
:100FB8001607D8A01707E7D70301056F020183B109
:100FC80039D002C3D9FF03C3DAFF020EDF6E20EE69
:100FD80001F07F51D9268051DA2200C3DEFF01C318
:100FE800DDFF7FC2D9FF80C2DAFF05C3DFFF20EE35
:100FF80003F07F51D9268051DA2202C3DEFF03C3F2
:10100800DDFF050E7F27000E8023C80E7F1908E13B
:10101800020E8019D8A404D0C30E7F6F020E806F11
:1010280083937F5181190CE180518219D8A408D08B
:10103800838106D002C3D9FF03C3DAFF010EDF6E36
:1010480002C3D9FF03C3DAFF020EDE18D8A41200C8
:1010580086EC1BF00E01368112000101176F0201A8
:1010680083B139D014C1D9FF15C1DAFF020EDF6E82
:1010780020EE01F07F51D9268051DA2212C1DEFF1D
:1010880013C1DDFF7FC2D9FF80C2DAFF17C1DFFFBE
:1010980020EE03F07F51D9268051DA2214C1DEFFF9
:1010A80015C1DDFF050E7F27000E8023C80E7F19AE
:1010B80008E1020E8019D8A404D0C30E7F6F020E77
:1010C800806F83937F5181190CE180518219D8A4D4
:1010D80008D0838106D014C1D9FF15C1DAFF010EEB
:1010E800DF6E14C1D9FF15C1DAFF020EDE18D8A4CD
:1010F800120095EC1BF00E013681120026C300F396
:1011080027C301F328C302F329C303F32E0E0301F7
:10111800046F030E056FCCEC0BF003012FAF09D061
:10112800000E266F000E276F000E286F000E296F25
:1011380012002F5104E11D0E2E5DD8A009D026C340
:1011480026F327C327F328C328F329C329F312005A
:1011580026C30EF327C30FF328C310F329C311F3D3
:10116800E8EC02F00EC318F30FC319F310C31AF317
:1011780011C31BF3010EABECF5F018C32AF319C326
:101188002BF31AC32CF31BC32DF32AC326F32BC34B
:1011980027F32CC328F32DC329F3120073C112F1CE
:1011A80074C113F175C114F176C115F17B0E0101FB
:1011B800166F010E176F0BEC0CF001017CAF09D014
:1011C800000E736F000E746F000E756F000E766F51
:1011D80012007C5104E11D0E7B5DD8A009D073C1BB
:1011E80073F174C174F175C175F176C176F11200AD
:1011F80073C15BF174C15CF175C15DF176C15EF1DB
:1012080057EC03F05BC165F15CC166F15DC167F144
:101218005EC168F1010E55ECF6F065C177F166C163
:1012280078F167C179F168C17AF177C173F178C152
:1012380074F179C175F17AC176F11200AE0E2EEC17
:101248000FF0D50E2EEC0FF0800E2EEC0FF0A80E3E
:101258002EEC0FF01F0E2EEC0FF0D30E2EEC0FF02D
:10126800000E2EEC0FF0400E2EEC0FF08D0E2EEC33
:101278000FF0AF0E2EEC0FF0200E2EEC0FF0000E3C
:101288002EEC0FF0A10E2EEC0FF0C80E2EEC0FF086
:10129800DA0E2EEC0FF0020E2EEC0FF0810E2EEC73
:1012A8000FF08F0E2EEC0FF0D90E2EEC0FF0F10E82
:1012B8002EEC0FF0DB0E2EEC0FF0400E2EEC0FF0A4
:1012C800A40E2EEC0FF0A60E2EEC0FF0AF0E2EECA7
:1012D8000FF000F0120039D006C3D9FF07C3DAFFB8
:1012E800DF50D8B412D006C3D9FF07C3DAFFDF50E6
:1012F80003010C6F08C3F6FF09C3F7FF000EF86E71
:101308000800F5500C19D8B41CD008C3F6FF09C35F
:10131800F7FF000EF86E0800F55003010C6F0D6B17
:101328000C1F0D1F0C4B0D2B06C3D9FF07C3DAFF8B
:10133800DF500E6F0E510C25066F000E0D21076F42
:101348001200064B072B084B092B03010A07D8A0EC
:101358000B070A29C1E10B29D8A4BED7000E076FD5
:10136800000E066F120034D00FC306F310C307F344
:1013780011C308F312C309F311C300F312C301F335
:101388008DEC10F000C30AF301C30BF36FEC09F006
:10139800030106510711D8A405D00FC30FF310C3DA
:1013A80010F31200010E0F25006F000E1021016FBF
:1013B80011C3F6FF12C3F7FF000EF86E0800F550D0
:1013C800026F036BE6EC16F000C30FF301C310F3D2
:1013D80003010F511011D8B407D00FC3D9FF10C3A0
:1013E800DAFFDF50D8A4C0D7000E0F6F000E106FC1
:1013F8001200000E03010B6F09AF06D0086D091F1C
:10140800D8B0092B010E0B6F07AF06D0066D071F6A
:10141800D8B0072B010E0B1B000E0D6F000E0C6FC2
:1014280008510911D8B41CD0010E0A6F04D0D89005
:10143800083709370A2B09AFFAD7D8900C370D3778
:101448000851065D09510759D8A005D00851065F13
:101458000951075B0C81D890093308330A2FEDD75F
:101468000B51D8B404D00C6D0D1FD8B00D2B0CC384
:1014780006F30DC307F31200000E01011D6F1BAF29
:1014880006D01A6D1B1FD8B01B2B010E1D6F19AF8C
:1014980006D0186D191FD8B0192B010E1D1B000E90
:1014A8001F6F000E1E6F1A511B11D8B41CD0010EED
:1014B8001C6F04D0D8901A371B371C2B1BAFFAD7D8
:1014C800D8901E371F371A51185D1B511959D8A0CB
:1014D80005D01A51185F1B51195B1E81D8901B3318
:1014E8001A331C2FEDD71D51D8B404D01E6D1F1F01
:1014F800D8B01F2B1EC118F11FC119F11200000E20
:101508000301086F000E096F000E0A6F000E0B6FC3
:101518000451051106110711D8B42AD0010E0C6F19
:1015280006D0D89004370537063707370C2B07AF96
:10153800F8D7D890083709370A370B370451005DB8
:10154800055101590651025907510359D8A009D02C
:101558000451005F0551015B0651025B0751035BB3
:101568000881D89007330633053304330C2FE1D7AD
:1015780008C300F309C301F30AC302F30BC303F35F
:101588001200000E01011A6F000E1B6F000E1C6F77
:10159800000E1D6F1651171118111911D8B42AD041
:1015A800010E1E6F06D0D89016371737183719371F
:1015B8001E2B19AFF8D7D8901A371B371C371D3791
:1015C8001651125D175113591851145919511559BB
:1015D800D8A009D01651125F1751135B1851145B2C
:1015E8001951155B1A81D8901933183317331633EC
:1015F8001E2FE1D71AC112F11BC113F11CC114F13E
:101608001DC115F112007B0EF66ECC0EF76E000EA2
:10161800F86E0900F5CF03F00A00F5CF04F053EC9B
:1016280012F003C089F004C08AF005C08BF006C030
:101638008CF089C07DF08AC07EF08BC07FF08CC0B2
:1016480080F09EC281F09FC282F0A0C283F0A1C246
:1016580084F0FAECFCF00001D8B012009EC205F04C
:101668009FC206F0A0C207F0A1C208F07B0EF66E7A
:10167800CC0EF76E000EF86E0900F5CF09F00A00DF
:10168800F5CF0AF0A0EC12F01200000E0C6E0AAEB4
:1016980006D0096C0A1ED8B00A2A010E0C6E08AED4
:1016A80006D0076C081ED8B0082A010E0C1A000EC6
:1016B8000E6E000E0D6E09500A10D8B41CD0010E23
:1016C8000B6E04D0D89009360A360B2A0AAEFAD720
:1016D800D8900D360E360950075C0A500858D8A025
:1016E80005D00950075E0A50085A0D80D8900A3272
:1016F80009320B2EEDD70C50D8B404D00D6C0E1E49
:10170800D8B00E2A0DC007F00EC008F01200000E67
:10171800096E000E0A6E000E0B6E000E0C6E055060
:10172800061007100810D8B42AD0010E0D6E06D086
:10173800D89005360636073608360D2A08AEF8D78B
:10174800D89009360A360B360C360550015C06501F
:1017580002580750035808500458D8A009D005501B
:10176800015E0650025A0750035A0850045A09806D
:10177800D89008320732063205320D2EE1D709C05B
:1017880001F00AC002F00BC003F00CC004F0120014
:1017980003010051011102110311D8A409D004C397
:1017A800D9FF05C3DAFF000EDE6E000EDD6E1200F3
:1017B80003517F0B066F076BD8900637073704C3B2
:1017C800D9FF05C3DAFF06C3DEFF07C3DDFF02AF9B
:1017D80003D0066B062B02D00301066B065104C327
:1017E800D9FF05C3DAFFDE12000EDD1204C3D9FFEC
:1017F80005C3DAFF820EDE26FF0EDD220381038396
:10180800038503870389038B039D029F120001014F
:101818001251131114111511D8A409D016C1D9FFEA
:1018280017C1DAFF000EDE6E000EDD6E12001551D4
:101838007F0B186F196BD8901837193716C1D9FF55
:1018480017C1DAFF18C1DEFF19C1DDFF14AF03D0DD
:10185800186B182B02D00101186B185116C1D9FF4B
:1018680017C1DAFFDE12000EDD1216C1D9FF17C14B
:10187800DAFF820EDE26FF0EDD221581158315851F
:1018880015871589158B159D149F1200000E0001F0
:10189800B46F000EB56F000EB66F000EB76FB0C014
:1018A8009BF0B1C09CF0B2C09DF0B3C09EF005ECB7
:1018B800E0F09BC0B4F09CC0B5F09DC0B6F09EC0EF
:1018C800B7F0ACC049F0ADC04AF0AEC04BF0AFC005
:1018D8004CF0B4C04DF0B5C04EF0B6C04FF0B7C034
:1018E80050F02DECEBF049C0B4F04AC0B5F04BC055
:1018F800B6F04CC0B7F0B4C0ACF0B5C0ADF0B6C0EF
:10190800AEF0B7C0AFF01200000E0301146F000E66
:1019180015EC16F01BEC15F0000E0301146F000E09
:1019280015EC16F02A0E0301216F040E226FB9EC94
:1019380010F0000E0301146F010E15EC16F03B0EAB
:101948000301216F040E226FB9EC10F0000E0301A1
:10195800146F020E15EC16F04C0E0301216F040EE5
:10196800226FB9EC10F0000E0301146F030E15EC92
:1019780016F05D0E0301216F040E226FB9EC10F012
:101988001200000E0101266F000E6FEC16F03BEC02
:1019980015F0000E0101266F000E6FEC16F02A0EEE
:1019A8000101336F040E346FE5EC10F0000E0101F5
:1019B800266F010E6FEC16F03B0E0101336F040E1B
:1019C800346FE5EC10F0000E0101266F020E6FEC8B
:1019D80016F04C0E0101336F040E346FE5EC10F075
:1019E800000E0101266F030E6FEC16F05D0E01016B
:1019F800336F040E346FE5EC10F012000150021042
:101A080003100410D8A409D005C0D9FF06C0DAFF16
:101A1800000EDE6E000EDD6E120004507F0B076EA6
:101A2800086AD8900736083605C0D9FF06C0DAFF1D
:101A380007C0DEFF08C0DDFF03AE03D0076A072A30
:101A480001D0076A075005C0D9FF06C0DAFFDE12C9
:101A5800000EDD1205C0D9FF06C0DAFF820EDE26B1
:101A6800FF0EDD2204800482048404860488048A2C
:101A7800049C039E1200000E0301056F01AF06D0FF
:101A8800006D011FD8B0012B010E056F03AF04D004
:101A9800026D031FD8B0032B02510311D8B418D01C
:101AA800010E046F04D0D89002370337042B03AF1C
:101AB800FAD70251005D03510159D8A004D0025150
:101AC800005F0351015BD89003330233042FF1D731
:101AD8000551D8B404D0006D011FD8B0012B00C344
:101AE80000F301C301F31200000E0101176F13AFD9
:101AF80006D0126D131FD8B0132B010E176F15AF38
:101B080004D0146D151FD8B0152B14511511D8B465
:101B180018D0010E166F04D0D89014371537162B2D
:101B280015AFFAD71451125D15511359D8A004D026
:101B38001451125F1551135BD89015331433162FB7
:101B4800F1D71751D8B404D0126D131FD8B0132B86
:101B580012C112F113C113F11200B7C39FF3B8C336
:101B6800A0F3B9C3A1F3BAC3A2F36DECDBF09FC332
:101B7800BBF3A0C3BCF3A1C3BDF3A2C3BEF3BBC3F5
:101B880030F3BCC331F3BDC332F3BEC333F3CFEC80
:101B980017F030C334F331C335F332C336F333C3EC
:101BA80037F3DB0E0301386F0F0E396FC90E3A6F2A
:101BB8003F0E3B6F90ECD6F034C3B7F335C3B8F3A0
:101BC80036C3B9F337C3BAF31200D2C1BAF1D3C1DD
:101BD800BBF1D4C1BCF1D5C1BDF1F5ECDCF0BAC1A3
:101BE80000F2BBC101F2BCC102F2BDC103F200C2E6
:101BF8007DF101C27EF102C27FF103C280F12FECB8
:101C080018F07DC181F17EC182F17FC183F180C16D
:101C180084F1DB0E0101856F0F0E866FC90E876F89
:101C28003F0E886F2FECD8F081C1D2F182C1D3F179
:101C380083C1D4F184C1D5F11200000E066E02AE44
:101C480006D0016C021ED8B0022A010E066E04AE40
:101C580004D0036C041ED8B0042A03500410D8B46E
:101C680018D0010E056E04D0D89003360436052A24
:101C780004AEFAD70350015C04500258D8A004D02F
:101C88000350015E0450025AD89004320332052EE4
:101C9800F1D70650D8B404D0016C021ED8B0022A7D
:101CA80001C001F002C002F01200BAC0A2F0BBC02D
:101CB800A3F0BCC0A4F0BDC0A5F07DECDEF0A2C0CE
:101CC800BEF0A3C0BFF0A4C0C0F0A5C0C1F0BEC0A4
:101CD80055F0BFC056F0C0C057F0C1C058F047EC2F
:101CE80018F055C06DF056C06EF057C06FF058C070
:101CF80070F0DB0E0001716F0F0E726FC90E736FFB
:101D08003F0E746FCEECD9F06DC0BAF06EC0BBF068
:101D18006FC0BCF070C0BDF01200000E6A6E000EFD
:101D28006B6E000E6C6E000E6D6E000E686E000E0F
:101D3800696E6668000E0F015F6F000E5D6F000E22
:101D4800596F040E5A6F5F0E5B6F000E656E120EB0
:101D5800586F000E566F1F0E576FC40E606E5C6989
:101D68005A895A8B5A8D140E5D6F0E0134932A834B
:101D7800B00E0301006F370E016F000E026F4EECBC
:101D88001BF0120000C306F301C307F318D00301C8
:101D98000407D8A0050702C3F6FF03C3F7FF024BE9
:101DA800032B000EF86E06C3D9FF07C3DAFF064BF4
:101DB800072B0800F5CFDFFFDF50D8B40ED00301A2
:101DC80004510511D8B409D0E2D706C3D9FF07C317
:101DD800DAFF000EDF6E064B072B0407D8A00507B5
:101DE8000429F3E10529D8B41200EFD703011151F2
:101DF800121113111411D8B424D0010E156F06D086
:101E0800D8901137123713371437152B14AFF8D76A
:101E180011510D5D12510E5913510F59145110598A
:101E2800D8A008D011510D5F12510E5B13510F5BF2
:101E38001451105BD8901433133312331133152F08
:101E4800E7D70DC30DF30EC30EF30FC30FF310C383
:101E580010F312000301106F000E0301126F10C37C
:101E680013F3020E116F120E096F030E0A6F11C3DE
:101E78000BF3000E0D6F3C0E0C6FCC0E0E6F020EA6
:101E88000F6FDCEC11F0020E0201CC19D8B4FBD7AD
:101E9800CC05D8B410D0030ECC19D8B40CD0040E8D
:101EA800CC19D8B408D0050ECC19D8B404D0060E75
:101EB800CC19D8A41200010E7D6F12000101235124
:101EC800241125112611D8B424D0010E276F06D06D
:101ED800D8902337243725372637272B26AFF8D72E
:101EE80023511F5D2451205925512159265122592A
:101EF800D8A008D023511F5F2451205B2551215BB6
:101F08002651225BD8902633253324332333272FB9
:101F1800E7D71FC11FF120C120F121C121F122C142
:101F280022F112000101246F000E0101226F24C169
:101F380023F1020E256F220E1B6F010E1C6F25C1A7
:101F48001DF1000E1F6F3C0E1E6FCC0E206F020E8F
:101F5800216F04EC12F0020E0201CC19D8B4FBD7A1
:101F6800CC05D8B410D0030ECC19D8B40CD0040EBC
:101F7800CC19D8B408D0050ECC19D8B404D0060EA4
:101F8800CC19D8A41200010E7D6F12000E012C9FEF
:101F9800B40E0301006F0D0E016F000E026F47ECC7
:101FA8001BF00E012C9D3A0E0301006F2E0E016FDF
:101FB800000E026F40EC1BF0080E0E01F76F900E3A
:101FC800F56F240EF66F8A0EF36F000EF46F000E95
:101FD8000201C26F000EC16F800EC06F000E0001BB
:101FE800FA6F000E0201BF6F000EBE6F0E012C8F3C
:101FF80012001250131014101510D8B424D0010E6A
:10200800166E06D0D8901236133614361536162AA0
:1020180015AEF8D712500E5C13500F5814501058C4
:1020280015501158D8A008D012500E5E13500F5AF0
:102038001450105A1550115AD890153214321332C0
:102048001232162EE7D70EC00EF00FC00FF010C0D8
:1020580010F011C011F0120024EEF3F013EE11F09D
:10206800050EDBCFE3FFE806FCE20FD011C30DF34A
:1020780012C30EF3120013C30DF314C30EF31200B0
:1020880015C30DF316C30EF312000DC30FF30EC3E1
:1020980010F3030110516A0AD8B404D0010AD8B465
:1020A80006D0EED70F51C00AD8B4E0D7E9D70F5100
:1020B800200AD8B4E0D7E4D7D7AE02D0070E1DD097
:1020C800D7AC02D0080E19D0D7BA02D0050E15D059
:1020D800D7B802D0040E11D0D7B602D0030E0DD057
:1020E800D7B402D0060E09D0D7B202D0010E05D05F
:1020F800D7B002D0020E01D0000E0301006FD79EA8
:10210800D79CD78AD788D786D784D782D7800051DB
:10211800120000C304F301C305F303D00301044B09
:10212800052B04C3F6FF05C3F7FF000EF86E0D0E6E
:10213800F76403D00800F55005D0F6CFE9FFF7CFD4
:10214800EAFFEF500009D8A4E9D700C302F301C39E
:1021580003F30301021F031F024B032B0451022543
:10216800006F05510321016F120016D021C3F6FF3D
:1021780022C3F7FF000EF86E0D0EF76403D00800B7
:10218800F55005D0F6CFE9FFF7CFEAFFEF5006ECA0
:1021980005F00301214B222B21C3F6FF22C3F7FFD1
:1021A800000EF86E0D0EF76403D00800F55005D048
:1021B800F6CFE9FFF7CFEAFFEF500009D8B41200D5
:1021C800D5D716D033C1F6FF34C1F7FF000EF86E2D
:1021D8000D0EF76403D00800F55005D0F6CFE9FFDF
:1021E800F7CFEAFFEF5069EC05F00101334B342BD0
:1021F80033C1F6FF34C1F7FF000EF86E0D0EF76419
:1022080003D00800F55005D0F6CFE9FFF7CFEAFF75
:10221800EF500009D8B41200D5D7000E0F01316F66
:10222800000E326F030E336FEC0E2F6F780E2E6F89
:102238002E512FCF03F30301046B03C304F3036B85
:1022480003110101E26F030104510101E36F0E0163
:10225800389D2E8DFE0E0301006FFF0E016F010EDB
:10226800026F16EC1BF0310E0F01306F1200000EDA
:1022780003010B6F000E0A6F0B5119E114D0060E03
:102288000A25D96E030E0B21DA6E02510A25006F5A
:1022980003510B21016F64EC1AF0DF6E03010A4B46
:1022A8000B2B0B5104E1040E0A5DD8A0E8D706C336
:1022B80002F307C303F308C304F309C305F31200C9
:1022C80005D00301004B012B024B032B00C3D9FFA0
:1022D80001C3DAFFDF500301046F02C3F6FF03C333
:1022E800F7FF000EF86E0800F55000080425056F8A
:1022F8000551D8A407D000C3D9FF01C3DAFFDF50C6
:10230800D8A4DFD70551006F016B00BF0107120089
:1023180004C30AF305C30BF306C30CF307C30DF399
:10232800000E03010F6F000E0E6F0F5118E1040E1F
:102338000E5DD8B0120008510E25006F09510F210B
:10234800016F0A0E0E25D96E030E0F21DA6EDF50CB
:10235800026F9AEC15F003010E4B0F2BE6D7120013
:10236800000EC46E000EC56E010EC66E000EC26E63
:10237800000EC16EC150C2CF03F30301046B03C347
:1023880004F3036B03110201B96F03010451020145
:10239800BA6F0E0138992E89AA0E0301006F370E05
:1023A800016F000E026F24EC1BF0130EC36E1200B7
:1023B800020183B11ED0B70E0301006F040E016F36
:1023C80009C302F30AC303F30BC304F30CC305F3F5
:1023D8000DC306F30BEC14F0B70E0301006F040EE7
:1023E800016F0EC302F30FC303F3010EE0EC07F015
:1023F80012000EC3D9FF0FC3DAFF010EDF6E120001
:10240800020183B11ED0B70E0101126F040E136FC3
:102418001BC114F11CC115F11DC116F11EC117F124
:102428001FC118F12EEC14F0B70E0101126F040E43
:10243800136F20C114F121C115F1010E31EC08F020
:10244800120020C1D9FF21C1DAFF010EDF6E120090
:10245800000E0301006F04D00400010E02017E6F1C
:102468000201BE51D8B4F8D7BF51010D000EF324B4
:10247800D96E050EF420DA6EDF500301006F0201F9
:10248800BF2B3F0EBF6502D0000EBF6F0E012C9F01
:102498000201BE070E012C8F030100511200000E2D
:1024A8000C6E000E0B6E0C5018E113D0070E0B24A7
:1024B800D96E000E0C20DA6E03500B24016E045006
:1024C8000C20026E96EC1AF0DF6E0B4A0C2A0C50A8
:1024D80004E1040E0B5CD8A0E9D707C003F008C0DC
:1024E80004F009C005F00AC006F0120000C304F3A6
:1024F80001C305F303D00301044B052B04C3D9FF23
:1025080005C3DAFFDF50D8B406D0F5D70301044B72
:10251800052B024B032B02C3F6FF03C3F7FF000E84
:10252800F86E04C3D9FF05C3DAFF0800F5CFDFFF53
:10253800DF50D8B41200EAD705C00BF006C00CF083
:1025480007C00DF008C00EF0000E106E000E0F6EE2
:10255800105017E1040E0F5CD8B0120009500F2478
:10256800016E0A501020026E0B0E0F24D96E000E59
:102578001020DA6EDF50036EC9EC16F00F4A102AED
:10258800E7D71200CBC102F2CCC103F2000E020160
:10259800046F000E056F000E066FCF0E006F010E60
:1025A800016F020E0101A16F020EA26FCDC1A3F14E
:1025B800CEC1A4F1000EA56F020EA66F9EEC8FF09F
:1025C80002C2D9FF03C2DAFF000EDF6E120003C396
:1025D80007F304C308F305D00301074B082B054B89
:1025E800062B05C3F6FF06C3F7FF000EF86E07C3F8
:1025F800D9FF08C3DAFF0D0EF76403D00800F550C1
:1026080005D0F6CFE9FFF7CFEAFFEF50DF6EDF50D6
:10261800D8B41200E1D7B1C3BFF3B2C3C0F3000E00
:102628000301C16F000EC26F000EC36FB50EBD6F00
:10263800030EBE6FBF0E876F030E886FB3C389F397
:10264800B4C38AF3BD0E8B6F030E8C6F00EC80F061
:10265800BFC3D9FFC0C3DAFF000EDF6E120003014B
:10266800006F01D004000201C051D8B4FBD70E019D
:102678002CBD03D000C3F2FE13D02C9D0201C25121
:10268800010D000EF324D96E060EF420DA6E00C395
:10269800DFFFC22B7F0EC26502D0000EC26FC007DB
:1026A8000E012C8D1200000E03014C1B000E4D1B59
:1026B800000E4E1B800E4F1B48C334F349C335F33D
:1026C8004AC336F34BC337F34CC338F34DC339F31E
:1026D8004EC33AF34FC33BF390ECD6F034C348F300
:1026E80035C349F336C34AF337C34BF3120015C158
:1026F80019F116C11AF105D00101194B1A2B174B04
:10270800182B17C1F6FF18C1F7FF000EF86E19C194
:10271800D9FF1AC1DAFF0D0EF76403D00800F5508F
:1027280005D0F6CFE9FFF7CFEAFFEF50DF6EDF50B5
:10273800D8B41200E1D70101126F01D004000201E0
:10274800C051D8B4FBD70E012CBD03D012C1F2FE84
:1027580013D02C9D0201C251010D000EF324D96E35
:10276800060EF420DA6E12C1DFFFC22B7F0EC2659F
:1027780002D0000EC26FC0070E012C8D1200000E91
:102788000101991B000E9A1B000E9B1B800E9C1BBF
:1027980095C181F196C182F197C183F198C184F105
:1027A80099C185F19AC186F19BC187F19CC188F1D5
:1027B8002FECD8F081C195F182C196F183C197F1D0
:1027C80084C198F11200000E0001971B000E981B9F
:1027D800000E991B800E9A1B93C06DF094C06EF08A
:1027E80095C06FF096C070F097C071F098C072F005
:1027F80099C073F09AC074F0CEECD9F06DC093F024
:102808006EC094F06FC095F070C096F0120005C3CA
:1028180007F306C308F3D89003010737083700C346
:10282800D9FF01C3DAFF07C3DEFF08C3DDFF20EECF
:1028380002F00051D9260151DA2204C3DFFF20EE4D
:1028480003F00051D9260151DA2202C3DEFF03C387
:10285800DDFF120017C119F118C11AF1D890010152
:1028680019371A3712C1D9FF13C1DAFF19C1DEFFB0
:102878001AC1DDFF20EE02F01251D9261351DA22D7
:1028880016C1DFFF20EE03F01251D9261351DA22C8
:1028980014C1DEFF15C1DDFF1200016E01D0040076
:1028A8000201C051D8B4FBD70E012CBD03D001C022
:1028B800F2FE13D02C9D0201C251010D000EF3242B
:1028C800D96E060EF420DA6E01C0DFFFC22B7F0E30
:1028D800C26502D0000EC26FC0070E012C8D120017
:1028E8000301116F000E03010D6F000E0E6F200E15
:1028F8000F6F000E106F1151020DF3CF12F312512A
:102908000D25046F000E0E21056F000E0F21066FB6
:10291800000E1021076FB8EC14F004C30BF305C3C5
:102928000CF312007EB404D00101126B122B02D0FA
:102938000101126B124712477E501219FB0B121934
:102948007E6E010E04011C27000E1D231E231F236B
:102958000001FDA107D0010E04011827000E19235C
:102968001A231B230400120004C300F305C301F358
:1029780006C302F307C303F34AEC1AF00301086F16
:10298800010E0425006F000E0521016F000E0621BF
:10299800026F000E0721036F4AEC1AF00301096F5A
:1029A8000851046F09C305F3120016C112F117C1CB
:1029B80013F118C114F119C115F171EC1AF00101E4
:1029C8001A6F010E1625126F000E1721136F000ED5
:1029D8001821146F000E1921156F71EC1AF00101FE
:1029E8001B6F1A51166F1BC117F11200036E9684E4
:1029F800010120EE03F0DC51D926DD51DA22DE5048
:102A0800DE10D8B410D020EE03F0DC51D926DD5109
:102A1800DA22DECF01F0DDCF02F001C0D9FF02C01B
:102A2800DAFF03C0DFFF000E0001F96F1200000E8D
:102A38000301226F000E216F225118E1080E215D5B
:102A4800D8B01200000E246F000E236F24510BE142
:102A5800100E235DD8B007D0000E06EC05F0030178
:102A6800234B242BF3D7214B222BE6D71200000E41
:102A78000101346F000E336F345118E1080E335DD5
:102A8800D8B01200000E366F000E356F36510BE1CC
:102A9800100E355DD8B007D0000E69EC05F00101C5
:102AA800354B362BF3D7334B342BE6D71200F29E37
:102AB800F29C0E01359F4B9F9EC205F09FC206F007
:102AC800A0C207F0A1C208F07B0EF66ECC0EF76E1E
:102AD800000EF86E0900F5CF09F00A00F5CF0AF0EC
:102AE800A0EC12F00E014B8FF28EF28C1200030153
:102AF80037AF13D034C330F335C331F336C332F3B1
:102B080037C333F3CFEC17F030C334F331C335F3A5
:102B180032C336F333C337F3120034C334F335C347
:102B280035F336C336F337C337F31200000EF2BE5F
:102B3800010E0301036F0151030B756E00C374FF8F
:102B480002C376FF3F0E77167784F29E550E786E95
:102B5800AA0E786E778277B2FED77794030103B115
:102B680002D0F29E01D0F28E1200E4EC19F020ECB3
:102B78001AF0A0EC04F02EEC1AF002EC17F000ECBE
:102B88001BF0A4EC1BF011EC11F091EC0EF0E7EC4B
:102B980017F0FFEC17F0F3EC19F086EC17F0B4EC33
:102BA80011F0CAEC0FF01200010184AF13D081C1FB
:102BB8007DF182C17EF183C17FF184C180F12FEC68
:102BC80018F07DC181F17EC182F17FC183F180C19E
:102BD80084F1120081C181F182C182F183C183F144
:102BE80084C184F11200FC0E0301046FFF0E056F0F
:102BF8003F0E066F000E076FB8EC14F004C30EF317
:102C080005C30FF30EC30BF30FC30CF3060E03013A
:102C18000D6FD8900C330B330D2FFBD70B511F0BB7
:102C280012000301166F03011651B00F2EEC0FF0BE
:102C380003011451080DF3500F0B2EEC0FF0030194
:102C48001451080D040E156FF434F432F332152FB5
:102C5800FBD7F3500F0B100F2EEC0FF01200000EE5
:102C68000301BD6F000EBE6FAE0EBF6F340EC06F96
:102C7800000EC16FB30EBB6F030EBC6FBD0E876F26
:102C8800030E886FB1C389F3B2C38AF3BB0E8B6F8F
:102C9800030E8C6F00EC80F01200FC0E0101166F21
:102CA800FF0E176F3F0E186F000E196FD9EC14F056
:102CB80016C120F117C121F120C11DF121C11EF15A
:102CC800060E01011F6FD8901E331D331F2FFBD72F
:102CD8001D511F0B12000101286F01012851B00F6F
:102CE80096EC0FF001012651080DF3500F0B96ECEE
:102CF8000FF001012651080D040E276FF434F43249
:102D0800F332272FFBD7F3500F0B100F96EC0FF071
:102D18001200000E0001C96F000ECA6F3E0ECB6F85
:102D2800370ECC6F000ECD6FC70EC76F000EC86F81
:102D3800C90E9B6F000E9C6FC5C09DF0C6C09EF06B
:102D4800C70E9F6F000EA06F37EC9FF012005CAEAD
:102D580013D059C055F05AC056F05BC057F05CC04C
:102D680058F047EC18F055C059F056C05AF057C003
:102D78005BF058C05CF0120059C059F05AC05AF0C4
:102D88005BC05BF05CC05CF01200000EF2BE010E8E
:102D9800046E0250030B756E01C074FF03C076FF0A
:102DA8003F0E77167784F29E550E786EAA0E786ECF
:102DB800778277B2FED7779404B002D0F29E01D022
:102DC800F28E120000C3D9FF01C3DAFF03010251DA
:102DD800DE18D8A405D000C300F301C301F3120024
:102DE80000C3D9FF01C3DAFF004B012BDF50D8A481
:102DF800E9D7000E006F000E016F1200C30E02012A
:102E0800816F020E826FC30E7F6F020E806F838305
:102E18008391000E856F000E946E280E956E000E3D
:102E2800976E3F0E926E0E01369136932C812C834D
:102E38001200800E0201C06114D0C151010D000EB4
:102E4800F324D96E060EF420DA6EDF500E01F26F0D
:102E58000201C12B7F0EC16502D0000EC16FC02BCD
:102E680012000E012C9D120002017C51D8A412D030
:102E78007951D8A40FD07B51D8A40CD07651D8A4BE
:102E880009D07751D8A406D07851D8A403D07A5164
:102E9800D8B402D0010E1200000E12000E01389DA7
:102EA800E2C112F1E3C113F1E9EC18F00201AE51ED
:102EB800AF11B011D8B4120001D812000500FA6E93
:102EC800AE51FD6EAF51FE6EB051FF6EFA5012005A
:102ED8000E013899B9C201F0BAC202F03CEC1AF0FE
:102EE8000201AB51AC11AD11D8B4120001D81200D7
:102EF8000500FA6EAB51FD6EAC51FE6EAD51FF6E22
:102F0800FA501200040EB36E200EB26E000EB46EAC
:102F1800F10EB06E000EAF6E0E01389B2E8BA60E12
:102F28000301006F370E016F000E026F1DEC1BF0DE
:102F3800BF0EB16E12000301026F090E0301026198
:102F48000DD00251020DDF0EF324D96E050EF420C8
:102F5800DA6EDECF00F3DDCF01F31200090E006F49
:102F6800FC0E016F12000301026F090E03010261DA
:102F78000DD00251020DE10EF324D96E040EF42097
:102F8800DA6EDECF00F3DDCF01F31200370E006FEB
:102F9800FF0E016F1200030130513111321133114C
:102FA800D8B408D0000E301B000E311B000E321BA7
:102FB800800E331B30C330F331C331F332C332F3E5
:102FC80033C333F31200040EB96EA00EB86E000EB0
:102FD800BA6EE20EB66E000EB56E0E0138972E87E9
:102FE800AC0E0301006F370E016F000E026F2BEC61
:102FF8001BF0B7681200030EBF6E200EBE6E000EE7
:10300800C06EC20EBC6E000EBB6E0E0138932E83CE
:10301800A80E0301006F370E016F000E026F32EC2D
:103028001BF0BD6812000101146F090E0101146143
:103038000DD01451020DE10EF324D96E040EF420C4
:10304800DA6EDECF12F1DDCF13F11200370E126FF8
:10305800FF0E136F120001017D517E117F11801147
:10306800D8B408D0000E7D1B000E7E1B000E7F1BFF
:10307800800E801B7DC17DF17EC17EF17FC17FF115
:1030880080C180F112005550561057105810D8B40E
:1030980008D0000E551A000E561A000E571A800E48
:1030A800581A55C055F056C056F057C057F058C07A
:1030B80058F0120000017EAF0DD07DC05DF07EC0DB
:1030C8005EF05D1E5E1E5D4A5E2A5DC07DF05EC0DC
:1030D8007EF012007DC07DF07EC07EF012000301FC
:1030E80000510203F3CF04F3F4CF05F300510303B7
:1030F800F350052701510203F350052704C300F3D9
:1031080005C301F312000E01389B0201B451B51139
:10311800B611D8B4120001D812000500FA6EB451E5
:10312800FD6EB551FE6EB651FF6EFA5012000101E8
:1031380012511403F3CF16F1F4CF17F112511503FE
:10314800F350172713511403F350172716C112F120
:1031580017C113F112000E0134930201B151B211DB
:10316800B311D8B4120001D812000500FA6EB1519B
:10317800FD6EB251FE6EB351FF6EFA501200FC0E96
:103188000301046FFF0E056F3F0E066F000E076FF9
:10319800B8EC14F004C30BF305C30CF303010B5193
:1031A8001F0B120008C300F309C301F30301026BEC
:1031B8008E0E036F000E046FA7ECFFF000C308F338
:1031C80001C309F302C30AF312000F0130A509D0A5
:1031D8003091010113510F012F6F12C12EFF308161
:1031E8001200010113510F012F6F12C12EFF12009F
:1031F8000E0138930201BB4BBC2BBC5104E1400EBD
:10320800BB5DD8A012005BEC19F0000E0201BC6F88
:10321800000EBB6F1200FC0E0101166FFF0E176F38
:103228003F0E186F000E196FD9EC14F016C11DF17E
:1032380017C11EF101011D511F0B12001AC112F115
:103248001BC113F10101146B8E0E156F000E166F62
:1032580082EC06F012C11AF113C11BF114C11CF162
:1032680012000E0138970101E04BE12BE15104E116
:10327800080EE05DD8A012006DEC19F0000E0101F7
:10328800E16F000EE06F120001500302F3CF05F06A
:10329800F4CF06F001500402F35006260250030250
:1032A800F350062605C001F006C002F01200020124
:1032B800A251A311A411D8B4120001D8120005001C
:1032C800FA6EA251FD6EA351FE6EA451FF6EFA5024
:1032D80012000201A551A611A711D8B4120001D8F5
:1032E80012000500FA6EA551FD6EA651FE6EA7519B
:1032F800FF6EFA5012000201A851A911AA11D8B400
:10330800120001D812000500FA6EA851FD6EA951ED
:10331800FE6EAA51FF6EFA501200000E0201766F7F
:10332800000E776F000E786F000E796F000E7A6FBF
:10333800000E7B6F000E7C6F7E9612000301026FF9
:10334800000E0301016F3A0E026105D02F0E0265CF
:1033580002D0010E016F01C300F300311200010118
:10336800146F000E0101136F3A0E146105D02F0E71
:10337800146502D0010E136F13C112F1123112003D
:10338800FE0E0301046FFF0E056F3F0E066F000E61
:10339800076FB8EC14F004C30BF305C30CF3120069
:1033A800FE0E0101166FFF0E176F3F0E186F000E0D
:1033B800196FD9EC14F016C11DF117C11EF11200D6
:1033C800F28A0E01218F228322811F812487228F76
:1033D80024892083249B229D249D249312000E017E
:1033E8003391F280AE0E0301006F370E016F000EAD
:1033F800026F39EC1BF00E0129811200050E010144
:10340800DE27000EDF23EA2F04D0040E0001F96F37
:103418001200010E0001F96F1200036E000E026E19
:103428003A0E036005D02F0E036402D0010E026E1F
:1034380002C001F0013012001A0E0E014C6F000E8E
:103448004D6F2E0E4E6F4F0E4F6F7F0E506F740ED6
:10345800516F1200200E0E01436F000E456F000ED3
:10346800476F020E496F000E486F46B11200FDD734
:10347800C3A407D0C3900250C26E01C0C1FFC3806D
:1034880012000250C26E01C0C1FF120077503F0BFC
:103498008009776E02C3F8FF01C3F7FF00C3F6FF88
:1034A8000800F55012005FB29FEF1BF05FB05CEFB1
:1034B8001BF00301016F0301015133EC13F01200FB
:1034C80003010151030B756E00C374FF3F0E77169D
:1034D800778000F000F07650120077503F0B80099B
:1034E800776E14C1F8FF13C1F7FF12C1F6FF080089
:1034F800F550120037FF2DFF23FFC0FECCFECBFE98
:10350800B9FCAAFEB5FE4BFEAFFD37FF38EC17F04D
:103518000009D8A47E86AEEC1AF00009D8B41200CF
:103528007E8212000250030B756E01C074FF3F0EBD
:103538007716778000F000F0765012007F92F3C083
:1035480001F0F4C002F03CEC1AF0CDEC1BF00E01D7
:103558002E89120002017D51D8A403D07E51D8B41F
:1035680002D0010E1200000E12007350046E036A9E
:1035780072500324016E000E0420026E1200645083
:10358800046E036A63500324016E000E0420026E69
:10359800120009FCC8FC19FC02FB4CF643F671F951
:1035A8009AFA84FA000E0301C26F000EC36F070E69
:1035B800E2ECCFF01200A8EC1BF0B5EC1BF0010117
:1035C800EB5155EC1BF01200BC0E0301B16FFF0E5E
:1035D800B26F33EC16F01200620E0301B16FE50E04
:1035E800B26F33EC16F01200AE0E0301B16FFF0E8E
:1035F800B26F33EC16F01200070E0E01C36F810E86
:10360800C26F359F2B8F1200000E02017D6F000ED6
:103618007E6F7E9212000301016F030101517CEC61
:103628001BF0120000C3AEF201C3AFF202C3B0F246
:10363800120000C3B4F201C3B5F202C3B6F212001D
:1036480000C3ABF201C3ACF202C3ADF2120000C377
:10365800A5F201C3A6F202C3A7F2120000C3A2F2A8
:1036680001C3A3F202C3A4F2120000C3A8F201C36B
:10367800A9F202C3AAF2120000C327F401C328F476
:1036880002C329F4120000C324F401C325F402C3C1
:1036980026F4120000C3B1F201C3B2F202C3B3F2BE
:1036A80012000101126F12C15FFF608E608012006C
:1036B8000101136F010113519FEC13F01200010176
:1036C800136F010113518BEC1BF012008B6CE7BDDB
:1036D800A4B4294371051E447F82CBEC1BF00E0174
:1036E8002E99120065AE02D0010E1200000E1200D3
:1036F8000301006F00C3BBFF12000301006F00C38A
:10370800BCFF12000001F951D8B41200FBD7010127
:10371800126F12C1BBFF12000101126F12C1BCFF70
:1037280012000001F951D8B41200FBD70E013391F1
:103738007FEC19F01200026E025051EC14F01200E6
:10374800A60E0E01C46F12003C0E0F015F6F12002F
:10375800EE7FC3F5C83FC3EC1BF01200C5EC1BF0AD
:1037680012000F015A871200C7EC1BF01200C9ECB7
:103778001BF012000E0136931200C3901200BD9E7A
:103788001200BD8E1200BD9E1200BD8E1200C390A5
:103798001200C380120060901200675012001200DD
:0B37A800120012001200120012003C80
:10CBBE00000000803F000020410000C84200007AC3
:10CBCE004400401C460050C3470024744980961808
:10CBDE004B20BCBE4C286B6E4EF9021550EC78AD56
:10CBEE0060CAF249710000803FCDCCCC3D0AD723FC
:10CBFE003C6F12833A17B7D138ACC52737BD37868D
:10CC0E003595BFD63377CC2B325F708930FFE6DB9C
:10CC1E002E08E53C1E6042A20D010000000A000035
:10CC2E000064000000E803000010270000A0860149
:10CC3E000040420F008096980000E1F50500CA9A68
:10CC4E003B01000000100000000001000000100079
:10CC5E0000000001000000100000000001000000B4
:10CC6E0010140010000C0008000400000018000052
:10CC7E000000000000000000005F00000000000047
:10CC8E000007000700000000147F147F140000004E
:10CC9E00242A7F2A12000000231308646200000079
:10CCAE003649552250000000000503000000000028
:10CCBE001C2241000000000041221C000000000068
:10CCCE00082A1C2A0800000008083E080800000078
:10CCDE00A06000000000000008080808080000001E
:10CCEE006060000000000000201008040200000038
:10CCFE003E5149453E00000000427F4000000000CA
:10CD0E00625149494600000022414949360000005F
:10CD1E001814127F10000000274545453900000009
:10CD2E003C4A49493000000001710905030000002A
:10CD3E003649494936000000064949291E000000BF
:10CD4E00003636000000000000AC6C000000000051
:10CD5E0008142241000000001414141414000000E2
:10CD6E0041221408000000000201510906000000D3
:10CD7E00324979413E0000007E0909097E0000001B
:10CD8E007F494949360000003E41414122000000E2
:10CD9E007F4141221C0000007F49494941000000AB
:10CDAE007F090909010000003E4141517200000057
:10CDBE007F0808087F000000417F4100000000004E
:10CDCE002040413F010000007F0814224100000076
:10CDDE007F404040400000007F020C027F000000B8
:10CDEE007F0408107F0000003E4141413E000000DC
:10CDFE007F090909060000003E4151215E00000036
:10CE0E007F091929460000002649494932000000D1
:10CE1E0001017F01010000003F4040403F00000043
:10CE2E001F2040201F0000003F4038403F00000000
:10CE3E006314081463000000030478040300000068
:10CE4E0061514945430000007F4141000000000050
:10CE5E00020408102000000041417F000000000085
:10CE6E000402010204000000808080808000000027
:10CE7E000102040000000000205454547800000009
:10CE8E007F48444438000000384444280000000025
:10CE9E00384444487F0000003854545418000000B1
:10CEAE00087E09020000000018A4A4A47C00000063
:10CEBE007F08040478000000007D000000000000E0
:10CECE0080847D00000000007F10284400000000D8
:10CEDE00417F4000000000007C0418047800000030
:10CEEE007C08047C00000000384444380000000038
:10CEFE00FC24241800000000182424FC000000006C
:10CF0E00007C080400000000485454240000000077
:10CF1E00047F4400000000003C40407C0000000004
:10CF2E001C2040201C0000003C4030403C00000013
:10CF3E0044281028440000001CA0A07C0000000023
:10CF4E004464544C440000000836410000000000C8
:10CF5E00007F0000000000004136080000000000C5
:10CF6E000201010201000000020505020000000698
:10CF7E003C04427D9F6A425C900142604DBB405131
:10CF8E00EC473EDE8D1FBBECF34A48359595C7172F
:10CF9E00C1DC45FDDB6DC372B33340063C0442C0B9
:10CFAE00598B4274044442F99B4F410000803F2B41
:10CFBE003401487F9DB045E7FFD9420000803F4CC9
:10CFCE00697374206F6620616C6C20737570706F5E
:10CFDE007274656420636F6D6D616E64733A0A0DD1
:10CFEE0044657669636520436F6E74726F6C20437F
:10CFFE006F6D6D616E64733A20436F6D6D616E641B
:10D00E007320746F207669657720616E6420636F7C
:10D01E006E74726F6C206C6F77206C6576656C2009
:10D02E0073797374656D2066756E6374696F6E6166
:10D03E006C6974790A0D20202052657365743A204C
:10D04E00436C6561727320746865207465726D69D6
:10D05E006E616C20616E64207265736574732074EA
:10D06E006865206D6963726F636F6E74726F6C6C3E
:10D07E0065720A0D202020436C6561723A20436C64
:10D08E006561727320746865207465726D696E6176
:10D09E006C2062757420646F65736E2774207265E0
:10D0AE0073657420746865206D6963726F0A0D2054
:10D0BE0020204361757365206F6620526573657419
:10D0CE003F3A2052657475726E73207468652063E2
:10D0DE0061757365206F6620746865206D6F73745B
:10D0EE0020726563656E742064657669636520726F
:10D0FE00657365740A0D2020202A49444E3F3A205C
:10D10E0052657475726E7320646576696365206905
:10D11E0064656E74696669636174696F6E20737499
:10D12E0072696E670A0D202020446576696365205A
:10D13E004F6E2054696D653F3A2052657475726E5C
:10D14E007320646576696365206F6E2074696D6502
:10D15E002073696E6365206C6173742064657669F3
:10D16E0063652072657365740A0D20202044657610
:10D17E006963652049443F3A2052657475726E7337
:10D18E00206465766963652049442061732070725E
:10D19E00652D70726F6772616D6D656420696E20AA
:10D1AE00666C617368206D656D6F72790A0D202053
:10D1BE00205265766973696F6E2049443F3A20525A
:10D1CE00657475726E732064657669636520736924
:10D1DE006C69636F6E207265766973696F6E204934
:10D1EE0044206173207072652D70726F6772616D6D
:10D1FE006D656420696E20666C617368206D656D67
:10D20E006F72790A0D202020557365722049447380
:10D21E003F3A2052657475726E732061206C69738B
:10D22E0074206F66207573657220494473202864DC
:10D23E006973706C6179656420696E206865782900
:10D24E002061732073746F72656420696E20666C42
:10D25E00617368206D656D6F72790A0D2020204113
:10D26E004443204572726F72733F3A205265747553
:10D27E00726E7320746865206361757365206F66C6
:10D28E0020616E20414443206572726F7220696680
:10D29E0020616E206572726F72206F636375727299
:10D2AE0065640A0D202020436C6561722041444361
:10D2BE00204572726F72733A20436C6561727320EF
:10D2CE0074686520414443206572726F7220616EEE
:10D2DE006420726573756D65732041444320636FDE
:10D2EE006E76657273696F6E730A0D202020436F20
:10D2FE006D6D204572726F72733F3A205265747570
:10D30E00726E73206966206120636F6D6D756E6934
:10D31E00636174696F6E73206572726F72206861DB
:10D32E0073206F636375727265640A0D202020434B
:10D33E006C65617220436F6D6D204572726F7273F2
:10D34E003A20436C656172732074686520636F6D5B
:10D35E006D756E69636174696F6E73206572726F3D
:10D36E00720A0D202020436C656172204D61782079
:10D37E0056616C7565733A20457261736573206DE5
:10D38E006178696D756D207265636F726465642076
:10D39E0076616C7565732066726F6D2045455052CF
:10D3AE004F4D0A0D20202048656C703A2054686954
:10D3BE0073206D6573736167652C206C697374736C
:10D3CE0020737570706F7274656420636F6D6D611C
:10D3DE006E64730A0D0A0D446576696365204D65AA
:10D3EE0061737572656D656E7420436F6D6D616EE0
:10D3FE0064733A2056696577206C6F77206C65767A
:10D40E00656C2073797374656D206D6561737572CB
:10D41E00656D656E74730A0D2020204D6561737500
:10D42E00726520504F533350333F3A205265747516
:10D43E00726E73202B332E33562041444320436F9C
:10D44E006E76657273696F6E20696E20766F6C747E
:10D45E00730A0D2020204D65617375726520504F43
:10D46E005331323F3A2052657475726E73202B31F0
:10D47E0032562041444320436F6E76657273696F56
:10D48E006E20696E20766F6C74730A0D2020204D0D
:10D49E00656173757265204469652054656D703FD2
:10D4AE003A2052657475726E7320746865206D69CA
:10D4BE0063726F636F6E74726F6C6C6572206469E9
:10D4CE00652074656D706572617475726520696E24
:10D4DE00206465677265657320430A0D2020204D18
:10D4EE00656173757265204656523F3A20526574D7
:10D4FE0075726E732074686520696E7465726E61E4
:10D50E006C20666978656420766F6C74616765203F
:10D51E007265666572656E636520627566666572B4
:10D52E002031206F757470757420696E20766F6C63
:10D53E0074730A0D2020204D65617375726520414C
:10D54E005653533F3A2052657475726E7320746849
:10D55E0065206D656173757265642076616C7565A5
:10D56E00206F6620416E616C6F67205653532069A1
:10D57E006E20766F6C74730A0D2020204D6178201A
:10D58E00504F5333503320566F6C746167653F3A7A
:10D59E002052657475726E7320746865206D6178A3
:10D5AE00696D756D207265636F72646564202B33CF
:10D5BE002E3356205261696C20566F6C746167650C
:10D5CE00206D656173757265640A0D2020204D61B2
:10D5DE007820504F53313220566F6C746167653F1F
:10D5EE003A2052657475726E7320746865206D6191
:10D5FE0078696D756D207265636F72646564202B3A
:10D60E00313256205261696C20566F6C74616765B9
:10D61E00206D656173757265640A0D2020204D6161
:10D62E0078204469652054656D703F3A20526574C8
:10D63E0075726E7320746865206D6178696D756D95
:10D64E00207265636F726465642064696520746519
:10D65E006D7065726174757265206D65617375723A
:10D66E0065640A0D2020204D6178204656522056C2
:10D67E006F6C746167653F3A2052657475726E7394
:10D68E0020746865206D6178696D756D20726563B3
:10D69E006F726465642046565220427566666572E6
:10D6AE00203120566F6C74616765206D65617375EE
:10D6BE007265640A0D0A0D5072696D617279204DA2
:10D6CE006561737572656D656E7420436F6D6D6106
:10D6DE006E64733A20566965772068696768206CB6
:10D6EE006576656C206F7574707574206D656173E9
:10D6FE007572656D656E747320616E642063616C06
:10D70E0063756C6174696F6E730A0D2020204D6510
:10D71E006173757265204465746563746564204336
:10D72E00757272656E743F3A2052657475726E73BF
:10D73E00206D65617375726564206F757470757494
:10D74E002063757272656E7420696E20616D7073E0
:10D75E00206173207365656E206279204144430A0F
:10D76E000D2020204D65617375726520524D53203A
:10D77E0043757272656E743F3A2052657475726E9F
:10D78E0073207468652063616C63756C6174656485
:10D79E0020524D53206F75747075742063757272BC
:10D7AE00656E742066726F6D206D6561737572653E
:10D7BE006D656E747320616E64205452494143202E
:10D7CE00666972696E6720616E676C650A0D20204E
:10D7DE00204D65617375726520524D5320566F6CE6
:10D7EE00746167653F3A2052657475726E7320746A
:10D7FE0068652063616C63756C6174656420524D5D
:10D80E0053206F757470757420766F6C74616765D4
:10D81E002066726F6D2054524941432066697269C9
:10D82E006E6720616E676C650A0D2020204D656164
:10D83E007375726520506F7765723F3A205265742A
:10D84E0075726E73207468652063616C63756C61AC
:10D85E00746564206F757470757420706F7765725F
:10D86E0020696E2057617474730A0D2020204D6557
:10D87E00617375726520456E657267793F3A205205
:10D88E00657475726E73206D656173757265642053
:10D89E00656E657267792073696E6365206D65616B
:10D8AE00737572656D656E7420726573657420692B
:10D8BE006E205761747420486F7572730A0D2020A4
:10D8CE0020436C65617220456E657267793A20520D
:10D8DE00657365747320746865206D656173757208
:10D8EE006564206F757470757420656E65726779E6
:10D8FE0020746F207A65726F0A0D2020204C6F61A4
:10D90E0064204F6E2054696D653F3A2052657475E0
:10D91E00726E73206C6F6164206F6E2074696D651A
:10D92E002073696E6365206C61737420646576691B
:10D93E00636520726573657420696E207365636F0D
:10D94E006E64730A0D2020204D617820524D5320B5
:10D95E0043757272656E743F3A205072696E7473BD
:10D96E0020746865206D6178696D756D20726563D0
:10D97E006F7264656420524D53206F7574707574A8
:10D98E002063757272656E740A0D2020204D6178C9
:10D99E0020506F7765723F3A205072696E74732013
:10D9AE00746865206D6178696D756D207265636F41
:10D9BE0072646564206F757470757420706F77650E
:10D9CE00720A0D0A0D4F757470757420436F6E7464
:10D9DE00726F6C20436F6D6D616E64733A20436F8E
:10D9EE006E74726F6C20746865206F7574707574C8
:10D9FE0020737461746520616E642064696D6D6955
:10DA0E006E672066656174757265730A0D2020203D
:10DA1E00456E61626C652044696D6D696E673A2072
:10DA2E00456E61626C65205452494143206F757496
:10DA3E007075742064696D6D696E670A0D20202003
:10DA4E0044697361626C652044696D6D696E673AF5
:10DA5E002044697361626C65205452494143206FC2
:10DA6E0075747075742064696D6D696E670A0D202A
:10DA7E002020456E61626C65204C6F61643A2045D2
:10DA8E006E61626C657320746865206F7574707555
:10DA9E007420545249414320776974682064696D3B
:10DAAE006D696E672064697361626C65640A0D202E
:10DABE00202044697361626C65204C6F61643A206A
:10DACE0044697361626C657320746865206F757448
:10DADE0070757420545249414320636F6D706C65AC
:10DAEE0074656C790A0D2020204C6F616420456EA0
:10DAFE0061626C65643F3A2052657475726E732074
:10DB0E00696620746865206F7574707574206C6F0B
:10DB1E00616420697320656E61626C6564206F724A
:10DB2E002064697361626C65640A0D20202044696B
:10DB3E006D6D696E6720456E61626C65643F3A205B
:10DB4E0052657475726E732069662064696D6D69B5
:10DB5E006E67206F6620746865206F7574707574BB
:10DB6E00206C6F616420697320656E61626C656400
:10DB7E00206F72206E6F740A0D2020205365742062
:10DB8E0044696D6D696E672050657263656E746170
:10DB9E0067653A203C783E3A20536574732074686A
:10DBAE0065206F75747075742064696D6D696E672C
:10DBBE002070657263656E7461676520617320788D
:10DBCE002070657263656E740A0D0A0D004C6973E0
:10DBDE0074206F6620737570706F72746564204464
:10DBEE00657669636520436F6E74726F6C20436F48
:10DBFE006D6D616E64733A0A0D2020205265736557
:10DC0E00743A20436C656172732074686520746584
:10DC1E00726D696E616C20616E64207265736574DD
:10DC2E007320746865206D6963726F636F6E7472B2
:10DC3E006F6C6C65720A0D202020436C6561723A20
:10DC4E0020436C6561727320746865207465726D13
:10DC5E00696E616C2062757420646F65736E2774D3
:10DC6E0020726573657420746865206D6963726FC8
:10DC7E000A0D2020204361757365206F6620526562
:10DC8E007365743F3A2052657475726E73207468B2
:10DC9E0065206361757365206F6620746865206DFD
:10DCAE006F737420726563656E7420646576696344
:10DCBE00652072657365740A0D2020202A49444E32
:10DCCE003F3A2052657475726E732064657669638F
:10DCDE0065206964656E74696669636174696F6EE7
:10DCEE0020737472696E670A0D2020204465766970
:10DCFE006365204F6E2054696D653F3A20526574FE
:10DD0E0075726E7320646576696365206F6E20741C
:10DD1E00696D652073696E6365206C617374206430
:10DD2E0065766963652072657365740A0D2020201F
:10DD3E004465766963652049443F3A20526574759F
:10DD4E00726E732064657669636520494420617341
:10DD5E00207072652D70726F6772616D6D656420D3
:10DD6E00696E20666C617368206D656D6F72790ADD
:10DD7E000D2020205265766973696F6E2049443FED
:10DD8E003A2052657475726E7320646576696365A8
:10DD9E002073696C69636F6E207265766973696F43
:10DDAE006E204944206173207072652D70726F670A
:10DDBE0072616D6D656420696E20666C617368209A
:10DDCE006D656D6F72790A0D202020557365722076
:10DDDE004944733F3A2052657475726E7320612008
:10DDEE006C697374206F6620757365722049447375
:10DDFE002028646973706C6179656420696E20688F
:10DE0E006578292061732073746F72656420696E62
:10DE1E0020666C617368206D656D6F72790A0D20D6
:10DE2E002020414443204572726F72733F3A205254
:10DE3E00657475726E7320746865206361757365A1
:10DE4E00206F6620616E20414443206572726F72AE
:10DE5E0020696620616E206572726F72206F636337
:10DE6E0075727265640A0D202020436C6561722004
:10DE7E00414443204572726F72733A20436C656160
:10DE8E0072732074686520414443206572726F720C
:10DE9E0020616E6420726573756D65732041444315
:10DEAE0020636F6E76657273696F6E730A0D202034
:10DEBE0020436F6D6D204572726F72733F3A205220
:10DECE00657475726E73206966206120636F6D6D67
:10DEDE00756E69636174696F6E73206572726F72AD
:10DEEE0020686173206F636375727265640A0D201A
:10DEFE002020436C65617220436F6D6D20457272F8
:10DF0E006F72733A20436C6561727320746865207A
:10DF1E00636F6D6D756E69636174696F6E73206585
:10DF2E0072726F720A0D202020436C656172204D53
:10DF3E0061782056616C7565733A20457261736520
:10DF4E0073206D6178696D756D207265636F726493
:10DF5E0065642076616C7565732066726F6D204501
:10DF6E004550524F4D0A0D20202048656C703A20C6
:10DF7E0054686973206D6573736167652C206C69D5
:10DF8E0073747320737570706F7274656420636F31
:10DF9E006D6D616E64730A0D0A0D004C6973742009
:10DFAE006F6620737570706F72746564205072693D
:10DFBE006D617279204D6561737572656D656E74F4
:10DFCE0020436F6D6D616E64733A0A0D2020204DF3
:10DFDE00656173757265204465746563746564204C
:10DFEE0043757272656E743F3A2052657475726E27
:10DFFE0073206D65617375726564206F75747075CD
:10E00E00742063757272656E7420696E20616D7016
:10E01E0073206173207365656E20627920414443DD
:10E02E000A0D2020204D65617375726520524D5387
:10E03E002043757272656E743F3A20526574757224
:10E04E006E73207468652063616C63756C617465B2
:10E05E006420524D53206F75747075742063757201
:10E06E0072656E742066726F6D206D656173757268
:10E07E00656D656E747320616E6420545249414320
:10E08E0020666972696E6720616E676C650A0D2085
:10E09E0020204D65617375726520524D5320566F69
:10E0AE006C746167653F3A2052657475726E7320A9
:10E0BE007468652063616C63756C6174656420526D
:10E0CE004D53206F757470757420766F6C74616724
:10E0DE00652066726F6D2054524941432066697205
:10E0EE00696E6720616E676C650A0D2020204D6594
:10E0FE00617375726520506F7765723F3A20526575
:10E10E007475726E73207468652063616C63756CD0
:10E11E0061746564206F757470757420706F7765A7
:10E12E007220696E2057617474730A0D2020204D81
:10E13E0065617375726520456E657267793F3A2029
:10E14E0052657475726E73206D6561737572656458
:10E15E0020656E657267792073696E6365206D65E3
:10E16E0061737572656D656E74207265736574206A
:10E17E00696E205761747420486F7572730A0D2092
:10E18E002020436C65617220456E657267793A2076
:10E19E0052657365747320746865206D656173755F
:10E1AE00726564206F757470757420656E65726724
:10E1BE007920746F207A65726F0A0D2020204C6FC3
:10E1CE006164204F6E2054696D653F3A205265742C
:10E1DE0075726E73206C6F6164206F6E2074696D42
:10E1EE00652073696E6365206C6173742064657657
:10E1FE0069636520726573657420696E207365634B
:10E20E006F6E64730A0D2020204D617820524D539D
:10E21E002043757272656E743F3A205072696E7447
:10E22E007320746865206D6178696D756D207265F7
:10E23E00636F7264656420524D53206F75747075F0
:10E24E00742063757272656E740A0D2020204D6104
:10E25E007820506F7765723F3A205072696E7473F2
:10E26E0020746865206D6178696D756D20726563C7
:10E27E006F72646564206F757470757420706F773B
:10E28E0065720A0D0A0D004C697374206F66207357
:10E29E007570706F7274656420446576696365206D
:10E2AE004D6561737572656D656E7420436F6D6D2E
:10E2BE00616E64733A0A0D2020204D65617375728C
:10E2CE006520504F533350333F3A20526574757268
:10E2DE006E73202B332E33562041444320436F6EF2
:10E2EE0076657273696F6E20696E20766F6C7473CB
:10E2FE000A0D2020204D65617375726520504F53B5
:10E30E0031323F3A2052657475726E73202B313262
:10E31E00562041444320436F6E76657273696F6E6B
:10E32E0020696E20766F6C74730A0D2020204D6567
:10E33E006173757265204469652054656D703F3A4E
:10E34E002052657475726E7320746865206D6963F2
:10E35E00726F636F6E74726F6C6C65722064696538
:10E36E002074656D706572617475726520696E20BA
:10E37E006465677265657320430A0D2020204D6524
:10E38E006173757265204656523F3A205265747518
:10E39E00726E732074686520696E7465726E616C3E
:10E3AE0020666978656420766F6C7461676520728B
:10E3BE0065666572656E6365206275666665722058
:10E3CE0031206F757470757420696E20766F6C7461
:10E3DE00730A0D2020204D656173757265204156BC
:10E3EE0053533F3A2052657475726E73207468658C
:10E3FE00206D656173757265642076616C7565203C
:10E40E006F6620416E616C6F672056535320696EA4
:10E41E0020766F6C74730A0D2020204D6178205089
:10E42E004F5333503320566F6C746167653F3A20FB
:10E43E0052657475726E7320746865206D617869AB
:10E44E006D756D207265636F72646564202B332E5B
:10E45E003356205261696C20566F6C74616765206B
:10E46E006D656173757265640A0D2020204D6178AB
:10E47E0020504F53313220566F6C746167653F3AAE
:10E48E002052657475726E7320746865206D6178A4
:10E49E00696D756D207265636F72646564202B31D2
:10E4AE003256205261696C20566F6C74616765201C
:10E4BE006D656173757265640A0D2020204D61785B
:10E4CE00204469652054656D703F3A20526574751D
:10E4DE00726E7320746865206D6178696D756D203C
:10E4EE007265636F72646564206469652074656D1E
:10E4FE007065726174757265206D65617375726594
:10E50E00640A0D2020204D61782046565220566F09
:10E51E006C746167653F3A2052657475726E732034
:10E52E00746865206D6178696D756D207265636FB5
:10E53E007264656420465652204275666665722086
:10E54E003120566F6C74616765206D6561737572ED
:10E55E0065640A0D0A0D004C697374206F66207392
:10E56E007570706F72746564204F75747075742059
:10E57E00436F6E74726F6C20436F6D6D616E64735A
:10E58E003A0A0D202020456E61626C652044696D4B
:10E59E006D696E673A20456E61626C652054524912
:10E5AE004143206F75747075742064696D6D696E6A
:10E5BE00670A0D20202044697361626C65204469EE
:10E5CE006D6D696E673A2044697361626C652054A3
:10E5DE0052494143206F75747075742064696D6D76
:10E5EE00696E670A0D202020456E61626C65204CB5
:10E5FE006F61643A20456E61626C65732074686564
:10E60E00206F757470757420545249414320776998
:10E61E0074682064696D6D696E67206469736162E8
:10E62E006C65640A0D20202044697361626C65205C
:10E63E004C6F61643A2044697361626C6573207437
:10E64E006865206F7574707574205452494143206B
:10E65E00636F6D706C6574656C790A0D2020204CAB
:10E66E006F616420456E61626C65643F3A2052654D
:10E67E007475726E7320696620746865206F757488
:10E68E00707574206C6F616420697320656E6162B1
:10E69E006C6564206F722064697361626C65640AD4
:10E6AE000D20202044696D6D696E6720456E616294
:10E6BE006C65643F3A2052657475726E732069669C
:10E6CE002064696D6D696E67206F662074686520C1
:10E6DE006F7574707574206C6F616420697320653A
:10E6EE006E61626C6564206F72206E6F740A0D200D
:10E6FE0020205365742044696D6D696E67205065E6
:10E70E007263656E746167653A203C783E3A2053B9
:10E71E0065747320746865206F75747075742064E9
:10E72E00696D6D696E672070657263656E74616781
:10E73E006520617320782070657263656E740A0DB2
:10E74E000A0D00506C6561736520737065636966B0
:10E75E007920776861742074797065206F66206304
:10E76E006F6D6D616E647320796F752764206C69AF
:10E77E006B652068656C7020776974683A0A0D5471
:10E78E007279202748656C70203C636F6D6D616EE9
:10E79E0064207365743E270A0D0A0D537570706FF1
:10E7AE007274656420436F6D6D616E642053657481
:10E7BE00733A0A0D20202044657669636520436F05
:10E7CE006E74726F6C20436F6D6D616E64733A2060
:10E7DE00436F6D6D616E647320746F20766965771B
:10E7EE0020616E6420636F6E74726F6C206C6F7735
:10E7FE00206C6576656C2073797374656D20667513
:10E80E006E6374696F6E616C6974790A0D202020D5
:10E81E00446576696365204D6561737572656D65D6
:10E82E006E7420436F6D6D616E64733A2056696528
:10E83E0077206C6F77206C6576656C2073797374B6
:10E84E00656D206D6561737572656D656E74730AA5
:10E85E000D2020205072696D617279204D656173B3
:10E86E007572656D656E7420436F6D6D616E647348
:10E87E003A20566965772068696768206C65766509
:10E88E006C206F7574707574206D6561737572652B
:10E89E006D656E747320616E642063616C63756C5C
:10E8AE006174696F6E730A0D2020204F7574707538
:10E8BE007420436F6E74726F6C20436F6D6D616E5A
:10E8CE0064733A20436F6E74726F6C2074686520A7
:10E8DE006F757470757420737461746520616E64E5
:10E8EE002064696D6D696E67206665617475726509
:10E8FE00730A0D0A0D2748656C7020416C6C272039
:10E90E0077696C6C206C69737420616C6C20636F1A
:10E91E006D6D616E64730A0D00202020205F202033
:10E92E00205F5F5F2020205F5F5F2020202020205F
:10E93E0020202020202020202020202020202020C9
:10E94E005F5F20205F5F20202020205F202020207E
:10E95E0020202020202020202020202020202020A9
:10E96E002020202020205F2020205F5F5F20205F5E
:10E97E002020202020200A0D2020202F5F5C202F19
:10E98E00205F5F7C207C205F205C5F5F5F5F5F208D
:10E99E005F5F205F5F5F5F5F205F205F20207C20D6
:10E9AE00205C2F20207C5F5F5F7C207C5F205F5F80
:10E9BE005F205F205F2020205F5F205F205F205F51
:10E9CE0020205F5F7C207C207C2020205C285F291B
:10E9DE005F205F5F20205F205F5F20205F5F5F20F2
:10E9EE005F205F200A0D20202F205F205C20285FF3
:10E9FE005F20207C20205F2F205F205C205620206F
:10EA0E0056202F202D5F2920275F7C207C207C5CC8
:10EA1E002F7C202F202D5F2920205F2F202D5F2976
:10EA2E0020275F7C202F205F60207C2027205C2FFA
:10EA3E00205F60207C207C207C29207C207C20276D
:10EA4E0020205C7C202720205C2F202D5F29202772
:10EA5E005F7C0A0D202F5F2F205C5F5C5F5F5F7C09
:10EA6E00207C5F7C205C5F5F5F2F5C5F2F5C5F2F85
:10EA7E005C5F5F5F7C5F7C2020207C5F7C20207C45
:10EA8E005F5C5F5F5F7C5C5F5F5C5F5F5F7C5F7C3A
:10EA9E002020205C5F5F2C5F7C5F7C7C5F5C5F5F17
:10EAAE002C5F7C207C5F5F5F2F7C5F7C5F7C5F7C5C
:10EABE005F7C5F7C5F7C5F5C5F5F5F7C5F7C202048
:10EACE000A0D0020202020426F6F7420636F6D703E
:10EADE006C6574650A0D202020205049433138465C
:10EAEE0036374B3430206D546F7563682054657320
:10EAFE007420426F6172640A0D20202020457661D9
:10EB0E006C756174657320746865206D546F7563E0
:10EB1E0068206361706163697469766520746F75CE
:10EB2E006368206C696272617279206469737472B1
:10EB3E00696275746564206279204D6963726F63D2
:10EB4E006869700A0D202020205365747320746844
:10EB5E0065207374617465206F6620666976652022
:10EB6E004C454473206261736564206F6E206D5452
:10EB7E006F7563682063617061636974697665207F
:10EB8E0070757368627574746F6E730A0D20202031
:10EB9E00204261756420726174653A2031313532DC
:10EBAE003030206270730A0D202020204E6F2070AE
:10EBBE0061726974792C203820626974732C206E0E
:10EBCE006F20666C6F7720636F6E74726F6C2C2083
:10EBDE00312073746F70206269740A0D202020201A
:10EBEE00436F6D6D616E6473206172652063617336
:10EBFE00652073656E7369746976650A0D20202031
:10EC0E0020456E746572206120636F6D6D616E6458
:10EC1E002C206F7220656E7465722048656C7020B2
:10EC2E00666F72206C697374206F6620636F6D6DF2
:10EC3E00616E64730A0D005741524E494E473A2099
:10EC4E005573696E67207468652064696D6D696EB1
:10EC5E006720666561747572652077697468206CCB
:10EC6E006F61642064657669636573206F7468658F
:10EC7E0072207468616E2061206C6967687420620E
:10EC8E00756C622063616E20726573756C74206999
:10EC9E006E206465766963652064616D61676500E9
:10ECAE004F6E6C7920656E61626C652064696D6D66
:10ECBE00696E6720696620796F75206172652063C1
:10ECCE006F6D706C6574656C7920737572652074E8
:10ECDE006865206C6F616420697320636F6D70616D
:10ECEE007469626C652077697468206120736F6C3B
:10ECFE0069642073746174652064696D6D696E67F3
:10ED0E00206369726375697400496620796F75278F
:10ED1E0064206C696B6520746F20636F6D706C6519
:10ED2E0074656C7920656E61626C65206F7220640B
:10ED3E00697361626C6520746865206C6F61642C08
:10ED4E002064697361626C652064696D6D696E67BC
:10ED5E0020616E64207573652072657370656374CF
:10ED6E0069766520636F6D6D616E64730A0D004385
:10ED7E00616C6C202748656C702720666F72206C62
:10ED8E00697374206F6620737570706F727465642A
:10ED9E0020636F6D6D616E6420736574732C206FCC
:10EDAE0072202748656C7020416C6C2720666F724C
:10EDBE00206C697374206F6620616C6C20737570A3
:10EDCE00706F7274656420636F6D6D616E64730A2B
:10EDDE000D004552524F523A20506C6561736520BA
:10EDEE007365742064696D6D696E672070657263FA
:10EDFE00656E7461676520746F20616E20696E7434
:10EE0E0065676572206772656174657220746861EA
:10EE1E006E203020616E64206C657373207468619F
:10EE2E006E203130300A0D004465766963652049E5
:10EE3E00442073746F72656420696E20466C617332
:10EE4E00682069733A20307825582E2054686973EB
:10EE5E0020636F72726573706F6E647320746F20AF
:10EE6E0061206465766963652070617274206E75C9
:10EE7E006D626572206F662025730A0D004D656107
:10EE8E007375726564206F757470757420656E6528
:10EE9E007267792073696E6365206C617374206D7F
:10EEAE006561737572656D656E74207265736574D8
:10EEBE0020697320252E3266205761747420486FA6
:10EECE007572730A0D004D65617375726564206FFE
:10EEDE00757470757420656E657267792073696ECE
