:0400000075EF00F0A8
:060008005F82C0EF07F06B
:100018005F80D8CFDBF1E8CFDCF1E0CFDDF1FACFBC
:10002800DEF1FBCFDFF1E9CFE0F1EACFE1F1E1CF9B
:10003800E2F1E2CFE3F1D9CFE4F1DACFE5F1F3CFA2
:10004800E6F1F4CFE7F1F6CFE8F1F7CFE9F1F8CF31
:10005800EAF1F5CFEBF15FC0ECF160C0EDF161C002
:10006800EEF162C0EFF10E012EBB38AB03D051ECBC
:1000780024F00BD02EBD38AD03D031EC23F005D0E1
:100088002EB338A302D0C6EC24F0EFC162F0EEC163
:1000980061F0EDC160F0ECC15FF0EBC1F5FFEAC1C2
:1000A800F8FFE9C1F7FFE8C1F6FFE7C1F4FFE6C1D1
:1000B800F3FFE5C1DAFFE4C1D9FFE3C1E2FFE2C122
:1000C800E1FFE1C1EAFFE0C1E9FFDFC1FBFFDEC1FB
:1000D800FAFFDDC1E0FFDCC1E8FFDBC1D8FF5F90BC
:1000E800100092EFFFF08DC059F08EC05AF08FC00B
:1000F8005BF090C05CF08AEC22F059C09EF05AC0C8
:100108009FF05BC0A0F05CC0A1F000019E519F1160
:10011800A011A111D8A409D0000E8D6F000E8E6F0A
:10012800000E8F6F000E906F1200000E7D6F000E94
:100138007E6F800E7F6F3F0E806F9EC081F09FC0E4
:1001480082F0A0C083F0A1C084F074EC09F0000133
:10015800D8B002D0010E01D0000E996F9951D8B4D1
:100168001AD0000E496E000E4A6E800E4B6E3F0E7E
:100178004C6E9EC04DF09FC04EF0A0C04FF0A1C085
:1001880050F020ECF7F049C09EF04AC09FF04BC0F9
:10019800A0F04CC0A1F09EC00FF09FC010F0A0C00E
:1001A80011F0A1C012F09EC013F09FC014F0A0C0BF
:1001B80015F0A1C016F0DDECE0F00FC09AF010C009
:1001C8009BF011C09CF012C09DF09AC07DF09BC0BE
:1001D8007EF09CC07FF09DC080F01D0E0001816FF5
:1001E800CD0E826F000E846F040E836F1BEC0CF033
:1001F8007DC091F07EC092F07FC093F080C094F0F3
:100208009AC07DF09BC07EF09CC07FF09DC080F0BE
:10021800F10E0001816FCC0E826F000E846F050E07
:10022800836F1BEC0CF07DC095F07EC096F07FC00C
:1002380097F080C098F09EC00FF09FC010F0A0C04B
:1002480011F0A1C012F091C04DF092C04EF093C0D1
:100258004FF094C050F095C049F096C04AF097C04E
:100268004BF098C04CF020ECF7F049C013F04AC0AE
:1002780014F04BC015F04CC016F0DDECE0F00FC0E8
:100288009EF010C09FF011C0A0F012C0A1F00001B4
:100298009951D8B425D09EC055F09FC056F0A0C043
:1002A80057F0A1C058F026EC24F055C06DF056C0A8
:1002B8006EF057C06FF058C070F0DB0E0001716F20
:1002C8000F0E726FC90E736F3F0E746FC3ECE5F0BB
:1002D8006DC09EF06EC09FF06FC0A0F070C0A1F01E
:1002E800000190BF09D09EC08DF09FC08EF0A0C0C5
:1002F8008FF0A1C090F012009EC055F09FC056F03C
:10030800A0C057F0A1C058F026EC24F055C08DF0DD
:1003180056C08EF057C08FF058C090F012000301FD
:10032800206F03012051D8A41BAF1AD018C31CF3A7
:1003380019C31DF31AC31EF31BC31FF31C1F1D1F74
:100348001E1F1F1F1C2B000E1D231E231F231CC333
:1003580022F31DC323F31EC324F31FC325F308D0C0
:1003680018C322F319C323F31AC324F31BC325F3B9
:10037800185119111A111B11D8A409D0000E186FA1
:10038800000E196F000E1A6F000E1B6F1200960EEA
:10039800216F06D0212BD8902533243323332233E1
:1003A800000E22151C6F000E23151D6F000E24155C
:1003B8001E6FFE0E25151F6F1C511D111E111F11DA
:1003C800D8B40DD0E7D7212B010E2227000E232306
:1003D80024232523D8902533243323332233000EB6
:1003E80022151C6F000E23151D6F000E24151E6F9D
:1003F800FF0E25151F6F1C511D111E111F11D8B49A
:1004080007D0E1D72107D89022372337243725375B
:1004180024BF03D0020E2161F5D721B108D0FF0E09
:100428002217FF0E23177F0E2417FF0E2517D890CB
:10043800213321C31CF31D6B1E6B1F6B1CC31FF3E1
:100448001E6B1D6B1C6B1C5122131D5123131E5157
:1004580024131F5125132051D8A41BAF01D0258F79
:1004680022C318F323C319F324C31AF325C31BF3B8
:1004780012000101206F01012051D8A41BAF1AD02E
:1004880018C11CF119C11DF11AC11EF11BC11FF1C0
:100498001C1F1D1F1E1F1F1F1C2B000E1D231E238C
:1004A8001F231CC122F11DC123F11EC124F11FC14C
:1004B80025F108D018C122F119C123F11AC124F17C
:1004C8001BC125F1185119111A111B11D8A409D0F3
:1004D800000E186F000E196F000E1A6F000E1B6FBA
:1004E8001200960E216F06D0212BD8902533243385
:1004F80023332233000E22151C6F000E23151D6FA7
:10050800000E24151E6FFE0E25151F6F1C511D11A0
:100518001E111F11D8B40DD0E7D7212B010E2227A9
:10052800000E232324232523D89025332433233373
:100538002233000E22151C6F000E23151D6F000EAE
:1005480024151E6FFF0E25151F6F1C511D111E113E
:100558001F11D8B407D0E1D72107D8902237233705
:100568002437253724BF03D0020E2161F5D721B1E6
:1005780008D0FF0E2217FF0E23177F0E2417FF0E39
:100588002517D890213321C11CF11D6B1E6B1F6BE1
:100598001CC11FF11E6B1D6B1C6B1C5122131D51BE
:1005A80023131E5124131F5125132051D8A41BAF08
:1005B80001D0258F22C118F123C119F124C11AF1E4
:1005C80025C11BF11200436E4350D8A43EAE1AD089
:1005D8003BC03FF03CC040F03DC041F03EC042F05F
:1005E8003F1E401E411E421E3F2A000E402241224D
:1005F80042223FC045F040C046F041C047F042C0EB
:1006080048F008D03BC045F03CC046F03DC047F03C
:100618003EC048F03B503C103D103E10D8A409D0D5
:10062800000E3B6E000E3C6E000E3D6E000E3E6EE0
:100638001200960E446E06D0442AD89048324732AB
:1006480046324532000E45143F6E000E4614406E89
:10065800000E4714416EFE0E4814426E3F50401083
:1006680041104210D8B40DD0E7D7442A010E4526D0
:10067800000E462247224822D89048324732463256
:100688004532000E45143F6E000E4614406E000EB3
:100698004714416EFF0E4814426E3F5040104110FF
:1006A8004210D8B407D0E1D74406D890453646362C
:1006B8004736483647BE03D0020E4460F5D744B0EB
:1006C80008D0FF0E4516FF0E46167F0E4716FF0E82
:1006D8004816D890443244C03FF0406A416A426AA2
:1006E8003FC042F0416A406A3F6A3F50451240505D
:1006F800461241504712425048124350D8A43EAEC9
:1007080001D0488E45C03BF046C03CF047C03DF0A4
:1007180048C03EF01200ED0EF66EC90EF76E000EE0
:10072800F86E0900F5CF02F30A00F5CF03F3D9EC10
:100738001CF002C36DF203C36EF204C36FF205C36B
:1007480070F2EB0EF66EC90EF76E000EF86E090029
:10075800F5CF02F30A00F5CF03F3D9EC1CF002C37E
:1007680069F203C36AF204C36BF205C36CF2E90EC3
:10077800F66EC90EF76E000EF86E0900F5CF02F39B
:100788000A00F5CF03F3D9EC1CF002C30CF403C341
:100798000DF404C30EF405C30FF4E70EF66EC90E8C
:1007A800F76E000EF86E0900F5CF02F30A00F5CFD8
:1007B80003F3D9EC1CF002C308F403C309F404C31F
:1007C8000AF405C30BF4E50EF66EC90EF76E000EBB
:1007D800F86E0900F5CF02F30A00F5CF03F3D9EC60
:1007E8001CF002C304F403C305F404C306F405C3F0
:1007F80007F4E30EF66EC90EF76E000EF86E0900E8
:10080800F5CF02F30A00F5CF03F3D9EC1CF002C3CD
:1008180000F403C301F404C302F405C303F4EF0EA8
:10082800F66EC90EF76E000EF86E0900F5CF02F3EA
:100838000A00F5CF03F3D9EC1CF002C38DF203C311
:100848008EF204C38FF205C390F2020190AF12003A
:10085800000E8D6F000E8E6F000E8F6F000E906F62
:10086800120002C306F30301076B086B0135063754
:1008780001E3078106510E6F0E51D8A409D0000E6E
:10088800006F000E016F000E026F000E036F120062
:1008980005C306F3076B086B0435063701E30781C8
:1008A80006510D6F0D51D8A409D0000E006F000E2F
:1008B800016F000E026F000E036F1200018FFF0E12
:1008C8000017FF0E0117000E0217048FFF0E031703
:1008D800FF0E0417000E0517000E096F000E0A6FB1
:1008E800000E0B6F000E0C6F7F0E0E5F0D51980FF0
:1008F8000E5F180E0D6FD89009370A370B370C3773
:100908000351005D0451015905510259D8A007D07F
:100918000351005F0451015B0551025B0981D890C6
:100928000037013702370D2FE6D70EAF16D00E511C
:10093800800A970FD8B009D0000E006F000E016F23
:10094800000E026F000E036F1200D8900C330B33A9
:100958000A3309330E3FF9D715D0170E0E650FD09D
:10096800000E006F000E016F000E026F000E036F85
:100978001200D89009370A370B370C370E070E517B
:10098800D8A4F7D709C300F30AC301F30BC302F3D2
:100998000CC303F3120002C106F10101076B086BD7
:1009A8000135063701E3078106510E6F0E51D8A4B1
:1009B80009D0000E006F000E016F000E026F000ECE
:1009C800036F120005C106F1076B086B0435063783
:1009D80001E3078106510D6F0D51D8A409D0000E0F
:1009E800006F000E016F000E026F000E036F120001
:1009F800018FFF0E0017FF0E0117000E0217048F5C
:100A0800FF0E0317FF0E0417000E0517000E096FDF
:100A1800000E0A6F000E0B6F000E0C6F7F0E0E5F3C
:100A28000D51980F0E5F180E0D6FD89009370A37C1
:100A38000B370C370351005D045101590551025918
:100A4800D8A007D00351005F0451015B0551025B38
:100A58000981D8900037013702370D2FE6D70EAF3E
:100A680016D00E51800A970FD8B009D0000E006F2B
:100A7800000E016F000E026F000E036F1200D89077
:100A88000C330B330A3309330E3FF9D715D0170E41
:100A98000E650FD0000E006F000E016F000E026F82
:100AA800000E036F1200D89009370A370B370C373E
:100AB8000E070E51D8A4F7D709C100F10AC101F1F8
:100AC8000BC102F10CC103F1120003C007F0086A60
:100AD800096A0234073601E3088007500F6E0F5089
:100AE800D8A409D0000E016E000E026E000E036E2F
:100AF800000E046E120006C007F0086A096A053481
:100B0800073601E3088007500E6E0E50D8A409D0AE
:100B1800000E016E000E026E000E036E000E046ED3
:100B28001200028EFF0E0116FF0E0216000E0316AB
:100B3800058EFF0E0416FF0E0516000E0616000E93
:100B48000A6E000E0B6E000E0C6E000E0D6E7F0E00
:100B58000F5E0E50980F0F5E180E0E6ED8900A3664
:100B68000B360C360D360450015C05500258065001
:100B78000358D8A007D00450015E0550025A065009
:100B8800035A0A80D8900136023603360E2EE6D76D
:100B98000FAE16D00F50800A970FD8B009D0000EAC
:100BA800016E000E026E000E036E000E046E12003F
:100BB800D8900D320C320B320A320F3EF9D715D0CD
:100BC800170E0F640FD0000E016E000E026E000E9D
:100BD800036E000E046E1200D8900A360B360C36DF
:100BE8000D360F060F50D8A4F7D70AC001F00BC076
:100BF80002F00CC003F00DC004F01200030102352E
:100C080003350D6F0D51D8A409D0000E006F000EEA
:100C1800016F000E026F000E036F120006350735D4
:100C28000C6F0C51D8A409D0000E006F000E016F94
:100C3800000E026F000E036F1200028FFF0E0017E6
:100C4800FF0E0117FF0E0217000E0317068FFF0E87
:100C58000417FF0E0517FF0E0617000E0717000EE4
:100C6800086F000E096F000E0A6F000E0B6F7F0EE3
:100C78000D5F0C51A00F0D5F200E0C6FD890083738
:100C880009370A370B370451005D055101590651E0
:100C9800025907510359D8A009D00451005F0551E2
:100CA800015B0651025B0751035B0881D89000374E
:100CB8000137023703370C2FE1D70DAF16D00D518E
:100CC800800A9F0FD8B009D0000E006F000E016F88
:100CD800000E026F000E036F1200D8900B330A3318
:100CE800093308330D3FF9D715D01F0E0D650FD006
:100CF800000E006F000E016F000E026F000E036FF2
:100D08001200D890083709370A370B370D070D51ED
:100D1800D8A4F7D708C300F309C301F30AC302F341
:100D28000BC303F312000101023503350D6F0D519A
:100D3800D8A409D0000E006F000E016F000E026FDC
:100D4800000E036F1200063507350C6F0C51D8A43E
:100D580009D0000E006F000E016F000E026F000E2A
:100D6800036F1200028FFF0E0017FF0E0117FF0E10
:100D78000217000E0317068FFF0E0417FF0E051744
:100D8800FF0E0617000E0717000E086F000E096FFA
:100D9800000E0A6F000E0B6F7F0E0D5F0C51A00F37
:100DA8000D5F200E0C6FD890083709370A370B37BC
:100DB8000451005D05510159065102590751035963
:100DC800D8A009D00451005F0551015B0651025BB0
:100DD8000751035B0881D890003701370237033782
:100DE8000C2FE1D70DAF16D00D51800A9F0FD8B048
:100DF80009D0000E006F000E016F000E026F000E8A
:100E0800036F1200D8900B330A33093308330D3FB0
:100E1800F9D715D01F0E0D650FD0000E006F000E0C
:100E2800016F000E026F000E036F1200D890083792
:100E380009370A370B370D070D51D8A4F7D708C162
:100E480000F109C101F10AC102F10BC103F112005D
:100E5800033404340E6E0E50D8A409D0000E016E6F
:100E6800000E026E000E036E000E046E12000734B0
:100E780008340D6E0D50D8A409D0000E016E000E76
:100E8800026E000E036E000E046E1200038EFF0E3B
:100E98000116FF0E0216FF0E0316000E0416078E2B
:100EA800FF0E0516FF0E0616FF0E0716000E081693
:100EB800000E096E000E0A6E000E0B6E000E0C6E10
:100EC8007F0E0E5E0D50A00F0E5E200E0D6ED89098
:100ED80009360A360B360C360550015C06500258A6
:100EE8000750035808500458D8A009D00550015E8F
:100EF8000650025A0750035A0850045A0980D890DD
:100F080001360236033604360D2EE1D70EAE16D062
:100F18000E50800A9F0FD8B009D0000E016E000E47
:100F2800026E000E036E000E046E1200D8900C3292
:100F38000B320A3209320E3EF9D715D01F0E0E6455
:100F48000FD0000E016E000E026E000E036E000E32
:100F5800046E1200D89009360A360B360C360E0687
:100F68000E50D8A4F7D709C001F00AC002F00BC090
:100F780003F00CC004F01200FACFEBF0FBCFECF05A
:100F8800E9CFEDF0EACFEEF0E1CFEFF0E2CFF0F00D
:100F9800D9CFF1F0DACFF2F0F3CFF3F0F4CFF4F0E9
:100FA800F6CFF5F0F7CFF6F0F8CFF7F0F5CFF8F089
:100FB8005FC0F9F060C0FAF061C0FBF062C0FCF0FD
:100FC8000E012BBF35AF03D01CEC21F041D029B165
:100FD80033A103D07FEC27F03BD02EB938A903D03A
:100FE8004BEC23F035D02CB336A303D0A8EC27F074
:100FF8002FD02CB136A103D005ECFBF029D02EB7A9
:1010080038A703D0FFEC24F023D02CBF36AF0BD089
:1010180001D81ED00500FA6E04013851FD6E395111
:10102800FE6E3A510DD02CBD36AD0DD001D810D082
:101038000500FA6E04013B51FD6E3C51FE6E3D51B8
:10104800FF6EFA5012002AB334A302D079EC24F0D0
:10105800FCC062F0FBC061F0FAC060F0F9C05FF05C
:10106800F8C0F5FFF7C0F8FFF6C0F7FFF5C0F6FFC8
:10107800F4C0F4FFF3C0F3FFF2C0DAFFF1C0D9FF08
:10108800F0C0E2FFEFC0E1FFEEC0EAFFEDC0E9FF0C
:10109800ECC0FBFFEBC0FAFF5F921100000E0301EA
:1010A8004815506F000E4915516F800E4A15526F42
:1010B8007F0E4B15536F5051511152115311D8A433
:1010C80008D0000E486F000E496F000E4A6F000EE0
:1010D8004B6F000E4C15506F000E4D15516F800E62
:1010E8004E15526F7F0E4F15536F505151115211BB
:1010F8005311D8A408D0000E4C6F000E4D6F000E8F
:101108004E6F000E4F6F4BAF1DD048C350F349C30D
:1011180051F34AC352F34BC353F3501F511F521F8D
:10112800531F502B000E512352235323000E5025DA
:10113800486F000E5121496F000E52214A6F800EF0
:1011480053214B6F4FAF1DD04CC350F34DC351F3D8
:101158004EC352F34FC353F3501F511F521F531F17
:10116800502B000E512352235323000E50254C6F51
:10117800000E51214D6F000E52214E6F800E5321EB
:101188004F6F000E481B000E491B000E4A1B800EB5
:101198004B1B000E4C1B000E4D1B000E4E1B800EF1
:1011A8004F1B4C51485D4D5149594E514A594F5169
:1011B8004B59D8B002D0D8901200D8801200000E37
:1011C80001014815506F000E4915516F800E4A15E0
:1011D800526F7F0E4B15536F5051511152115311CD
:1011E800D8A408D0000E486F000E496F000E4A6F51
:1011F800000E4B6F000E4C15506F000E4D15516FC1
:10120800800E4E15526F7F0E4F15536F505151116E
:1012180052115311D8A408D0000E4C6F000E4D6F18
:10122800000E4E6F000E4F6F4BAF1DD048C150F1EE
:1012380049C151F14AC152F14BC153F1501F511FDD
:10124800521F531F502B000E512352235323000EBD
:101258005025486F000E5121496F000E52214A6FE8
:10126800800E53214B6F4FAF1DD04CC150F14DC173
:1012780051F14EC152F14FC153F1501F511F521F2E
:10128800531F502B000E512352235323000E502579
:101298004C6F000E51214D6F000E52214E6F800E83
:1012A80053214F6F000E481B000E491B000E4A1BAE
:1012B800800E4B1B000E4C1B000E4D1B000E4E1BD0
:1012C800800E4F1B4C51485D4D5149594E514A595A
:1012D8004F514B59D8B002D0D8901200D880120084
:1012E800000E00017D15856F000E7E15866F800E3D
:1012F8007F15876F7F0E8015886F8551861187113E
:101308008811D8A408D0000E7D6F000E7E6F000EE5
:101318007F6F000E806F000E8115856F000E82159D
:10132800866F800E8315876F7F0E8415886F8551B1
:10133800861187118811D8A408D0000E816F000E7D
:10134800826F000E836F000E846F80AF1DD07DC04A
:1013580085F07EC086F07FC087F080C088F0851F4A
:10136800861F871F881F852B000E862387238823C7
:10137800000E85257D6F000E86217E6F000E872169
:101388007F6F800E8821806F84AF1DD081C085F06B
:1013980082C086F083C087F084C088F0851F861FCE
:1013A800871F881F852B000E862387238823000E1E
:1013B8008525816F000E8621826F000E8721836F3D
:1013C800800E8821846F000E7D1B000E7E1B000E90
:1013D8007F1B800E801B000E811B000E821B000EDF
:1013E800831B800E841B81517D5D82517E59835100
:1013F8007F5984518059D8B002D0D8901200D88033
:101408001200A2C2E4F30301E56B000EE96F000EBF
:10141800E86FE9BF06D0E9510FE1400EE85DD8B0AA
:101428000BD0400EE825D96E050EE921DA6E000EC4
:10143800DF6EE84BE92BEDD7000EE76F000EE66F85
:101448000ED0CAEC1DF00301E16F400EE625D96EFF
:10145800050EE721DA6EE1C3DFFFE64BE72BE45127
:10146800E65DE751800AE16FE551800AE159D8A0AD
:10147800E8D7FFC0A3F217D0FF0EE16FFF0EE26FAF
:10148800400E006F050E016F2BEC1CF00301E151BB
:101498000027E2510123400E0025D96E050E0121D7
:1014A800DA6E000EDF6EFF0EE16FFF0EE26F400E88
:1014B800006F050E016F2BEC1CF00301E1510027B2
:1014C800E2510123400E0025D96E050E0121DA6E86
:1014D8000A0EDE18D8B4D0D7FF0EE16FFF0EE26F08
:1014E800400E006F050E016F2BEC1CF00301E1515B
:1014F8000027E2510123400E0025D96E050E012177
:10150800DA6E0D0EDE18D8B4B7D75D94400EDB6FD7
:10151800050EDC6F00EC80F0120089C001F08AC073
:1015280002F08BC003F08CC004F0910E056E000E23
:10153800066E6CEC18F0000192AF14D08CAF09D095
:10154800000E896F000E8A6F800E8B6FBF0E8C6F36
:101558001200000E896F000E8A6F000E8B6F000E4E
:101568008C6F1200925104E11D0E915DD8A009D034
:1015780089C089F08AC08AF08BC08BF08CC08CF04F
:10158800120089C031F08AC032F08BC033F08CC0B1
:1015980034F0DCEC0EF031C03BF032C03CF033C02C
:1015A8003DF034C03EF0010EE7EC02F03BC08DF098
:1015B8003CC08EF03DC08FF03EC090F089C07DF0F9
:1015C8008AC07EF08BC07FF08CC080F08DC081F027
:1015D8008EC082F08FC083F090C084F074EC09F064
:1015E8000001D8B01BD08DC06DF08EC06EF08FC0DA
:1015F8006FF090C070F0000E716F000E726F800E69
:10160800736FBF0E746FC3ECE5F06DC089F06EC0E8
:101618008AF06FC08BF070C08CF012008DC089F01A
:101628008EC08AF08FC08BF090C08CF0120080C3FF
:1016380082F381C383F30301D89082378337D8902C
:10164800823783377EC384F37FC385F3825184272F
:101658008351852384C3F6FF85C3F7FF000EF86E18
:101668000900F5CF86F30900F5CF87F30900F5CF18
:1016780088F30A00F5CF89F34CD086C365F387C396
:1016880066F388C367F389C368F37AC361F37BC3DE
:1016980062F37CC363F37DC364F38BECDDF061C359
:1016A80034F362C335F363C336F364C337F303011A
:1016B8008007D8A0810780C382F381C383F3D890C1
:1016C80082378337D890823783377EC384F37FC3CA
:1016D80085F3825184278351852384C3F6FF85C30C
:1016E800F7FF000EF86E0900F5CF38F30900F5CFC3
:1016F80039F30900F5CF3AF30A00F5CF3BF385EC4F
:10170800E2F034C386F335C387F336C388F337C3AF
:1017180089F3030180518111D8A4AFD786C37AF326
:1017280087C37BF388C37CF389C37DF3120080C130
:1017380082F181C183F10101D89082378337D89033
:10174800823783377EC184F17FC185F18251842736
:101758008351852384C1F6FF85C1F7FF000EF86E1B
:101768000900F5CF86F10900F5CF87F10900F5CF1B
:1017780088F10A00F5CF89F14CD086C165F187C19F
:1017880066F188C167F189C168F17AC161F17BC1ED
:1017980062F17CC163F17DC164F134ECDFF061C1B9
:1017A80034F162C135F163C136F164C137F1010129
:1017B8008007D8A0810780C182F181C183F1D890C8
:1017C80082378337D890823783377EC184F17FC1CF
:1017D80085F1825184278351852384C1F6FF85C111
:1017E800F7FF000EF86E0900F5CF38F10900F5CFC4
:1017F80039F10900F5CF3AF10A00F5CF3BF124ECB5
:10180800E4F034C186F135C187F136C188F137C1BA
:1018180089F1010180518111D8A4AFD786C17AF12D
:1018280087C17BF188C17CF189C17DF1120083C039
:1018380085F084C086F00001D89085378637D89027
:101848008537863781C087F082C088F08551872721
:101858008651882387C0F6FF88C0F7FF000EF86E10
:101868000900F5CF89F00900F5CF8AF00900F5CF16
:101878008BF00A00F5CF8CF04CD089C013F08AC0E9
:1018880014F08BC015F08CC016F07DC00FF07EC030
:1018980010F07FC011F080C012F0DDECE0F00FC056
:1018A8006DF010C06EF011C06FF012C070F0000142
:1018B8008307D8A0840783C085F084C086F0D890B9
:1018C80085378637D8908537863781C087F082C0BC
:1018D80088F0855187278651882387C0F6FF88C0FE
:1018E800F7FF000EF86E0900F5CF71F00900F5CF8B
:1018F80072F00900F5CF73F00A00F5CF74F0C3EC6D
:10190800E5F06DC089F06EC08AF06FC08BF070C0D2
:101918008CF0000183518411D8A4AFD789C07DF021
:101928008AC07EF08BC07FF08CC080F01200FEEC85
:101938001BF00301F06F150E0301EB6F4B0EEA6FFE
:10194800BE0EE82EFED7EA2FFCD7EB2FFAD700F011
:101958007AEC21F08FEC03F07F807F925D8299EC26
:1019680027F0000E0AEC27F0F40E0301006F400E7A
:10197800016F000E026F18EC27F01E0E0301006FB6
:10198800980E016F010E026F49EC27F0640E0301F7
:10199800006F4D0E016F000E026F11EC27F0B00EB4
:1019A8000301006F4C0E016F000E026F34EC27F03C
:1019B800960E0301006F4C0E016F000E026F1FECB4
:1019C80027F0E20E0301006F2C0E016F000E026F6C
:1019D80026EC27F02E0E0301006F7F0E016F010E1B
:1019E800026F2DEC27F0ADEC27F00E012991F28E55
:1019F800F28CCCEC26F0C4EC26F0A9EC26F08CECAA
:101A080014F0BCEC20F0000E0301F16F97ECBFF06E
:101A1800C8ECD0F05DB405EC0AF0D2ECF9F072EC49
:101A280026F0F8D70DC311F30301126B136B0C35B5
:101A3800113701E312811151186F1851D8A407D03A
:101A4800000E0B6F000E0C6F000E0D6F120010C30E
:101A580011F3126B136B0F35113701E3128111511A
:101A6800196F1951D8A407D0000E0B6F000E0C6F18
:101A7800000E0D6F1200000E156F000E166F000E8F
:101A8800176F1951890F185F0DC319F31051191BDE
:101A9800800E19170C8FFF0E0B17FF0E0C17000E78
:101AA8000D170F8FFF0E0E17FF0E0F17000E1017D2
:101AB800180E146FD8901537163717370E510B5D5F
:101AC8000F510C5910510D59D8A007D00E510B5F6A
:101AD8000F510C5B10510D5B1581D8900B370C37EB
:101AE8000D37142FE7D715C300F316C301F317C337
:101AF80002F318C303F319C304F398EC11F000C3FD
:101B08000BF301C30CF302C30DF312000DC111F165
:101B18000101126B136B0C35113701E3128111515E
:101B2800186F1851D8A407D0000E0B6F000E0C6F59
:101B3800000E0D6F120010C111F1126B136B0F35EF
:101B4800113701E312811151196F1951D8A407D027
:101B5800000E0B6F000E0C6F000E0D6F1200000EC2
:101B6800156F000E166F000E176F1951890F185F49
:101B78000DC119F11051191B800E19170C8FFF0E8A
:101B88000B17FF0E0C17000E0D170F8FFF0E0E17F9
:101B9800FF0E0F17000E1017180E146FD890153778
:101BA800163717370E510B5D0F510C5910510D593F
:101BB800D8A007D00E510B5F0F510C5B10510D5B75
:101BC8001581D8900B370C370D37142FE7D715C16F
:101BD80000F116C101F117C102F118C103F119C1D1
:101BE80004F1F0EC11F000C10BF101C10CF102C1DC
:101BF8000DF11200030110351135176F1751D8A4D4
:101C080009D0000E0E6F000E0F6F000E106F000E41
:101C1800116F12000EC312F30FC313F310C314F3A2
:101C280011C315F3200E05D0D89015331433133390
:101C38001233E82EF9D71251166F108FFF0E0E17B8
:101C4800FF0E0F17FF0E1017000E1117960E175FD5
:101C580017AF16D01751800A970FD8B009D0000EC9
:101C68000E6F000E0F6F000E106F000E116F120036
:101C7800D890113310330F330E33173FF9D715D0DF
:101C88001F0E17650FD0000E0E6F000E0F6F000E9F
:101C9800106F000E116F1200D8900E370F371037E3
:101CA800113717071751D8A4F7D71651D8B408D049
:101CB800111F101F0F1F0E6D000E0F23102311236D
:101CC8000EC30EF30FC30FF310C310F311C311F3B8
:101CD8001200010110351135176F1751D8A409D01A
:101CE800000E0E6F000E0F6F000E106F000E116FBA
:101CF80012000EC112F10FC113F110C114F111C17C
:101D080015F1200E05D0D890153314331333123340
:101D1800E82EF9D71251166F108FFF0E0E17FF0E0F
:101D28000F17FF0E1017000E1117960E175F17AF3B
:101D380016D01751800A970FD8B009D0000E0E6F31
:101D4800000E0F6F000E106F000E116F1200D8906A
:101D5800113310330F330E33173FF9D715D01F0E39
:101D680017650FD0000E0E6F000E0F6F000E106F6C
:101D7800000E116F1200D8900E370F371037113739
:101D880017071751D8A4F7D71651D8B408D0111F80
:101D9800101F0F1F0E6D000E0F23102311230EC1ED
:101DA8000EF10FC10FF110C110F111C111F11200A4
:101DB800333434343A6E3A50D8A409D0000E316E18
:101DC800000E326E000E336E000E346E120031C0FB
:101DD80035F032C036F033C037F034C038F0200E5A
:101DE80005D0D8903832373236323532E82EF9D726
:101DF8003550396E338EFF0E3116FF0E3216FF0E38
:101E08003316000E3416960E3A5E3AAE16D03A5095
:101E1800800A970FD8B009D0000E316E000E326ECE
:101E2800000E336E000E346E1200D8903432333206
:101E3800323231323A3EF9D715D01F0E3A640FD0FC
:101E4800000E316E000E326E000E336E000E346ED0
:101E58001200D89031363236333634363A063A5094
:101E6800D8A4F7D73950D8B408D0341E331E321E40
:101E7800316C000E32223322342231C031F032C0AC
:101E880032F033C033F034C034F0120003D0030111
:101E9800064B072B06C3D9FF07C3DAFF200EDE184F
:101EA800D8B4F5D706C3D9FF07C3DAFF090EDE1881
:101EB800D8B4EDD7000E03010C6F000E0B6F000EA7
:101EC8000A6F06C3D9FF07C3DAFF2D0EDE18D8A4A0
:101ED80002D00A2B26D006C3D9FF07C3DAFF2B0E80
:101EE800DE18D8A420D01DD00BC300F30CC301F317
:101EF800000E0301036F0A0E026F3DEC24F006C3C7
:101F0800D9FF07C3DAFFDF500301086F096B0051DF
:101F1800082701510923D00E08250B6FFF0E092150
:101F28000C6F064B072B06C3D9FF07C3DAFFDF5038
:101F38007EEC25F0D8B0D8D703010A51D8B40DD01B
:101F48000BC308F30CC309F3081F091F084B092B1F
:101F580008C306F309C307F312000BC306F30CC347
:101F680007F31200000E7D6E000E7C6E000E796E77
:101F7800000E7E6E000E7A6E000E7F6E000E7B6E77
:101F8800000E806E040E856E000E866EBD0E816E8C
:101F9800400E876E000E826E000E886EC00E836E35
:101FA800000E846E000E0E01A76F000E9A6F040ECD
:101FB800AF6F200EBC6F000EB46F9D0E926F000EB7
:101FC800A66F000EB36F000EAE6F000E996F000E75
:101FD800BB6F000E916F000EA16F000EC06F000E58
:101FE800AD6F010EB26F000E906F000EBA6F000E4B
:101FF800986F000EBF6F000EA06F000EA56F8F695F
:1020080097699F69A469AC69B169B969BE690E0E1F
:10201800896F170E196F050E0D01F06F1A0E0E015C
:10202800686F360E116F190E696F160E1A6F12004F
:102038000301206F1F0E0301206503D07F0E20656A
:1020480002D0200E206F400E146F000E106FFF0E8E
:10205800116F2051126F136BD89012371337D89025
:1020680012371337D89012371337105112271151DE
:102078001323F10E12251D6FC90E13211E6F150EA5
:10208800006F030E016F1DC302F31EC303F3000E9E
:10209800056F080E046F48EC12F0090E03011F6F5C
:1020A800140E096F030E0A6F1FC30BF3000E0D6F9A
:1020B8003C0E0C6FB00E0E6F020E0F6F7AEC1DF017
:1020C800020E0201B019D8B4FBD7B005D8B410D0AD
:1020D800030EB019D8B40CD0040EB019D8B408D077
:1020E800050EB019D8B404D0060EB019D8A4120041
:1020F800010E606F12000101206F1F0E01012065A3
:1021080003D07F0E206502D0200E206F400E146F82
:10211800000E106FFF0E116F2051126F136BD890C5
:1021280012371337D89012371337D890123713371E
:102138001051122711511323F10E12251D6FC90ECC
:1021480013211E6F150E006F010E016F1DC102F1E4
:102158001EC103F1000E056F080E046F9FEC12F00C
:10216800090E01011F6F140E096F010E0A6F1FC1BE
:102178000BF1000E0D6F3C0E0C6FB00E0E6F020EC1
:102188000F6FA2EC1DF0020E0201B019D8B4FBD7F4
:10219800B005D8B410D0030EB019D8B40CD0040EC2
:1021A800B019D8B408D0050EB019D8B404D0060EAA
:1021B800B019D8A41200010E606F1200BFC326F335
:1021C800C0C327F3C1C328F3C2C329F3ECEC13F04F
:1021D80026C330F327C331F328C332F329C333F3BB
:1021E80096EC23F030C334F331C335F332C336F3FE
:1021F80033C337F3BFC338F3C0C339F3C1C33AF3AA
:10220800C2C33BF385ECE2F034C3C3F335C3C4F374
:1022180036C3C5F337C3C6F3BFC334F3C0C335F3FE
:10222800C1C336F3C2C337F3C3C338F3C4C339F3E6
:10223800C5C33AF3C6C33BF385ECE2F034C3BFF33E
:1022480035C3C0F336C3C1F337C3C2F3BFC326F3E4
:10225800C0C327F3C1C328F3C2C329F3ECEC13F0BE
:1022680026C3BFF327C3C0F328C3C1F329C3C2F3EE
:102278001200BFC126F1C0C127F1C1C128F1C2C1F6
:1022880029F13CEC14F026C130F127C131F128C105
:1022980032F129C133F10EEC24F030C134F131C1EF
:1022A80035F132C136F133C137F1BFC138F1C0C1A0
:1022B80039F1C1C13AF1C2C13BF124ECE4F034C1B7
:1022C800C3F135C1C4F136C1C5F137C1C6F1BFC1CB
:1022D80034F1C0C135F1C1C136F1C2C137F1C3C152
:1022E80038F1C4C139F1C5C13AF1C6C13BF124EC9A
:1022F800E4F034C1BFF135C1C0F136C1C1F137C115
:10230800C2F1BFC126F1C0C127F1C1C128F1C2C1C4
:1023180029F13CEC14F026C1BFF127C1C0F128C156
:10232800C1F129C1C2F1120003010351D8B405D08B
:10233800005101110211D8A40CD0000E006F000E3C
:10234800016F000E026F1200032BD8900233013385
:102358000033000E0015056F000E0115066FFE0E06
:102368000215076F055106110711D8B40CD0ECD728
:10237800032B010E0027000E0123000E0223D89024
:10238800023301330033000E0015056F000E0115EE
:10239800066FFF0E0215076F055106110711D8B415
:1023A80006D0E6D70307D89000370137023701BFB8
:1023B80003D0020E0361F6D703A1019FD89003331F
:1023C800035102130451D8A4028F00C300F301C3C0
:1023D80001F302C302F3120001010351D8B405D07E
:1023E800005101110211D8A40CD0000E006F000E8C
:1023F800016F000E026F1200032BD89002330133D5
:102408000033000E0015056F000E0115066FFE0E55
:102418000215076F055106110711D8B40CD0ECD777
:10242800032B010E0027000E0123000E0223D89073
:10243800023301330033000E0015056F000E01153D
:10244800066FFF0E0215076F055106110711D8B464
:1024580006D0E6D70307D89000370137023701BF07
:1024680003D0020E0361F6D703A1019FD89003336E
:10247800035102130451D8A4028F00C100F101C115
:1024880001F102C102F1120002C30AF303C30BF304
:1024980000C308F301C309F3030108510A5D095198
:1024A8000B59D8B02FD004510A25066F05510B21BE
:1024B800076F0651085D07510959D8B023D0045158
:1024C8000A2705510B2304510827055109230A0738
:1024D800D8A00B070AC3F6FF0BC3F7FF000EF86E70
:1024E8000807D8A0090708C3D9FF09C3DAFF0800FD
:1024F800F5CFDFFF0407D8A0050704510511D8B4AC
:102508001200E5D704510511D8B412000AC3F6FF2A
:102518000BC3F7FF000EF86E08C3D9FF09C3DAFF33
:102528000800F5CFDFFF0A4B0B2B084B092B0407DC
:10253800D8A00507E7D702C10AF103C10BF100C112
:1025480008F101C109F1010108510A5D09510B594E
:10255800D8B02FD004510A25066F05510B21076FFB
:102568000651085D07510959D8B023D004510A27EC
:1025780005510B2304510827055109230A07D8A040
:102588000B070AC1F6FF0BC1F7FF000EF86E08072C
:10259800D8A0090708C1D9FF09C1DAFF0800F5CF9B
:1025A800DFFF0407D8A0050704510511D8B41200AD
:1025B800E5D704510511D8B412000AC1F6FF0BC1C2
:1025C800F7FF000EF86E08C1D9FF09C1DAFF08004D
:1025D800F5CFDFFF0A4B0B2B084B092B0407D8A0BC
:1025E8000507E7D70E01F5A305D0F599F589010E82
:1025F8000201616F0001FF51010D000EF324D96E35
:10260800050EF420DA6EF1CEDFFFFF2B3F0EFF65DB
:1026180002D0000EFF6F0201A22B0A0E0E01F11963
:10262800D8B404D00D0EF119D8A404D05D84000EDE
:10263800F16F01D05D94080EF119D8A412000001C1
:10264800FF51010D000EF324D96E050EF420DA6E49
:10265800000EDF6EFF07C70EC56FFF0EC66F6CEC6E
:1026680022F00201A3510001FF19D8B40BD0FF5189
:10267800010D000EF324D96E050EF420DA6E000E5B
:10268800DF6EFF07000E0E01F16F12000301056FE8
:10269800020166B139D002C3D9FF03C3DAFF020EC3
:1026A800DF6E20EE01F06251D9266351DA2200C3B1
:1026B800DEFF01C3DDFF62C2D9FF63C2DAFF05C3D3
:1026C800DFFF20EE03F06251D9266351DA2202C3FC
:1026D800DEFF03C3DDFF050E6227000E6323AC0E89
:1026E800621908E1020E6319D8A404D0A70E626F1C
:1026F800020E636F6693625164190CE163516519A8
:10270800D8A408D0668106D002C3D9FF03C3DAFF74
:10271800010EDF6E02C3D9FF03C3DAFF020EDE1813
:10272800D8A412008DEC27F00E01368112000101A9
:10273800056F020166B139D002C1D9FF03C1DAFFC2
:10274800020EDF6E20EE01F06251D9266351DA22C3
:1027580000C1DEFF01C1DDFF62C2D9FF63C2DAFF3B
:1027680005C1DFFF20EE03F06251D9266351DA225A
:1027780002C1DEFF03C1DDFF050E6227000E6323E1
:10278800AC0E621908E1020E6319D8A404D0A70E92
:10279800626F020E636F6693625164190CE16351B4
:1027A8006519D8A408D0668106D002C1D9FF03C133
:1027B800DAFF010EDF6E02C1D9FF03C1DAFF020E94
:1027C800DE18D8A4120095EC27F00E01368112000D
:1027D80026C300F327C301F328C302F329C303F375
:1027E8002E0E0301046F030E056F36EC17F003017C
:1027F8002FAF09D0000E266F000E276F000E286F2E
:10280800000E296F12002F5104E11D0E2E5DD8A075
:1028180009D026C326F327C327F328C328F329C3DF
:1028280029F3120026C30EF327C30FF328C310F3AE
:1028380029C311F3FEEC0DF00EC318F30FC319F3FF
:1028480010C31AF311C31BF3010E93EC01F018C364
:102858002AF319C32BF31AC32CF31BC32DF32AC372
:1028680026F32BC327F32CC328F32DC329F3120017
:1028780026C100F127C101F128C102F129C103F1E4
:102888002E0E0101046F010E056F75EC17F00101A2
:102898002FAF09D0000E266F000E276F000E286F8D
:1028A800000E296F12002F5104E11D0E2E5DD8A0D5
:1028B80009D026C126F127C127F128C128F129C14D
:1028C80029F1120026C10EF127C10FF128C110F11C
:1028D80029C111F16DEC0EF00EC118F10FC119F1FB
:1028E80010C11AF111C11BF1010E3DEC02F018C123
:1028F8002AF119C12BF11AC12CF11BC12DF12AC1E2
:1029080026F12BC127F12CC128F12DC129F1120084
:10291800AE0E98EC1AF0D50E98EC1AF0800E98ECE2
:102928001AF0A80E98EC1AF01F0E98EC1AF0D30EB5
:1029380098EC1AF0000E98EC1AF0400E98EC1AF089
:102948008D0E98EC1AF0AF0E98EC1AF0200E98EC59
:102958001AF0000E98EC1AF0A10E98EC1AF0C80EB6
:1029680098EC1AF0DA0E98EC1AF0020E98EC1AF0BD
:10297800810E98EC1AF08F0E98EC1AF0D90E98EC9C
:102988001AF0F10E98EC1AF0DB0E98EC1AF0400EE3
:1029980098EC1AF0A40E98EC1AF0A60E98EC1AF01F
:1029A800AF0E98EC1AF000F0120039D006C3D9FF28
:1029B80007C3DAFFDF50D8B412D006C3D9FF07C364
:1029C800DAFFDF5003010C6F08C3F6FF09C3F7FFF6
:1029D800000EF86E0800F5500C19D8B41CD008C3C6
:1029E800F6FF09C3F7FF000EF86E0800F550030163
:1029F8000C6F0D6B0C1F0D1F0C4B0D2B06C3D9FF55
:102A080007C3DAFFDF500E6F0E510C25066F000E5C
:102A18000D21076F1200064B072B084B092B0301EA
:102A28000A07D8A00B070A29C1E10B29D8A4BED7E9
:102A3800000E076F000E066F120034D00FC306F3A6
:102A480010C307F311C308F312C309F311C300F34A
:102A580012C301F32BEC1CF000C30AF301C30BF300
:102A6800D9EC14F0030106510711D8A405D00FC3FF
:102A78000FF310C310F31200010E0F25006F000EA4
:102A88001021016F11C3F6FF12C3F7FF000EF86E95
:102A98000800F550026F036BC5EC22F000C30FF37A
:102AA80001C310F303010F511011D8B407D00FC39D
:102AB800D9FF10C3DAFFDF50D8A4C0D7000E0F6FBC
:102AC800000E106F1200000E03010B6F09AF06D045
:102AD800086D091FD8B0092B010E0B6F07AF06D080
:102AE800066D071FD8B0072B010E0B1B000E0D6FCC
:102AF800000E0C6F08510911D8B41CD0010E0A6FD2
:102B080004D0D890083709370A2B09AFFAD7D890DC
:102B18000C370D370851065D09510759D8A005D063
:102B28000851065F0951075B0C81D89009330833B7
:102B38000A2FEDD70B51D8B404D00C6D0D1FD8B0A7
:102B48000D2B0CC306F30DC307F31200000E010191
:102B58000B6F09AF06D0086D091FD8B0092B010EFD
:102B68000B6F07AF06D0066D071FD8B0072B010EF5
:102B78000B1B000E0D6F000E0C6F08510911D8B415
:102B88001CD0010E0A6F04D0D890083709370A2BD9
:102B980009AFFAD7D8900C370D370851065D09519F
:102BA8000759D8A005D00851065F0951075B0C8169
:102BB800D890093308330A2FEDD70B51D8B404D075
:102BC8000C6D0D1FD8B00D2B0CC106F10DC107F10E
:102BD8001200000E0301086F000E096F000E0A6F45
:102BE800000E0B6F0451051106110711D8B42AD035
:102BF800010E0C6F06D0D890043705370637073713
:102C08000C2B07AFF8D7D890083709370A370B3796
:102C18000451005D055101590651025907510359E4
:102C2800D8A009D00451005F0551015B0651025B31
:102C38000751035B0881D890073306330533043303
:102C48000C2FE1D708C300F309C301F30AC302F349
:102C58000BC303F31200000E0101086F000E096F89
:102C6800000E0A6F000E0B6F0451051106110711B3
:102C7800D8B42AD0010E0C6F06D0D8900437053787
:102C8800063707370C2B07AFF8D7D890083709371E
:102C98000A370B370451005D055101590651025995
:102CA80007510359D8A009D00451005F0551015BB1
:102CB8000651025B0751035B0881D890073306333E
:102CC800053304330C2FE1D708C100F109C101F124
:102CD8000AC102F10BC103F11200EF0EF66EC90E24
:102CE800F76E000EF86E0900F5CF03F00A00F5CF75
:102CF80004F0F1EC1DF003C089F004C08AF005C0AF
:102D08008BF006C08CF089C07DF08AC07EF08BC045
:102D18007FF08CC080F08DC281F08EC282F08FC2AD
:102D280083F090C284F074EC09F00001D8B012006E
:102D38008DC205F08EC206F08FC207F090C208F06F
:102D4800EF0EF66EC90EF76E000EF86E0900F5CF9D
:102D580009F00A00F5CF0AF064EC1EF01200000E2C
:102D68000C6E0AAE06D0096C0A1ED8B00A2A010EEB
:102D78000C6E08AE06D0076C081ED8B0082A010EE3
:102D88000C1A000E0E6E000E0D6E09500A10D8B403
:102D98001CD0010E0B6E04D0D89009360A360B2AC7
:102DA8000AAEFAD7D8900D360E360950075C0A508D
:102DB8000858D8A005D00950075E0A50085A0D8057
:102DC800D8900A3209320B2EEDD70C50D8B404D063
:102DD8000D6C0E1ED8B00E2A0DC007F00EC008F0FC
:102DE8001200000E096E000E0A6E000E0B6E000E29
:102DF8000C6E0550061007100810D8B42AD0010E22
:102E08000D6E06D0D89005360636073608360D2AD8
:102E180008AEF8D7D89009360A360B360C36055066
:102E2800015C065002580750035808500458D8A0AF
:102E380009D00550015E0650025A0750035A08503F
:102E4800045A0980D89008320732063205320D2E0E
:102E5800E1D709C001F00AC002F00BC003F00CC0B2
:102E680004F0120003010051011102110311D8A44A
:102E780009D004C3D9FF05C3DAFF000EDE6E000EC9
:102E8800DD6E120003517F0B066F076BD890063773
:102E9800073704C3D9FF05C3DAFF06C3DEFF07C33C
:102EA800DDFF02AF03D0066B062B02D00301066BD1
:102EB800065104C3D9FF05C3DAFFDE12000EDD1286
:102EC80004C3D9FF05C3DAFF820EDE26FF0EDD221A
:102ED80003810383038503870389038B039D029F73
:102EE800120001010051011102110311D8A409D0E7
:102EF80004C1D9FF05C1DAFF000EDE6E000EDD6EDB
:102F0800120003517F0B066F076BD89006370737FF
:102F180004C1D9FF05C1DAFF06C1DEFF07C1DDFF25
:102F280002AF03D0066B062B02D00101066B0651D7
:102F380004C1D9FF05C1DAFFDE12000EDD1204C19B
:102F4800D9FF05C1DAFF820EDE26FF0EDD220381DE
:102F58000383038503870389038B039D029F120064
:102F6800000E0001B46F000EB56F000EB66F000EB4
:102F7800B76FB0C09BF0B1C09CF0B2C09DF0B3C0B9
:102F88009EF0FAECEBF09BC0B4F09CC0B5F09DC08D
:102F9800B6F09EC0B7F0ACC049F0ADC04AF0AEC0C4
:102FA8004BF0AFC04CF0B4C04DF0B5C04EF0B6C059
:102FB8004FF0B7C050F020ECF7F049C0B4F04AC069
:102FC800B5F04BC0B6F04CC0B7F0B4C0ACF0B5C06B
:102FD800ADF0B6C0AEF0B7C0AFF01200000E0301FE
:102FE800146F000EB8EC21F0BCEC20F0000E0301C9
:102FF800146F000EB8EC21F0400E0301216F040E8F
:10300800226F57EC1CF0000E0301146F010EB8EC90
:1030180021F0510E0301216F040E226F57EC1CF0B2
:10302800000E0301146F020EB8EC21F0620E0301CA
:10303800216F040E226F57EC1CF0000E0301146F71
:10304800030EB8EC21F0730E0301216F040E226FFA
:1030580057EC1CF01200000E0101146F000E4EEC2C
:1030680022F0DCEC20F0000E0101146F000E4EEC93
:1030780022F0400E0101216F040E226F83EC1CF038
:10308800000E0101146F010E4EEC22F0510E0101E9
:10309800216F040E226F83EC1CF0000E0101146FE7
:1030A800020E4EEC22F0620E0101216F040E226F17
:1030B80083EC1CF0000E0101146F030E4EEC22F09D
:1030C800730E0101216F040E226F83EC1CF01200B5
:1030D8000150021003100410D8A409D005C0D9FF6C
:1030E80006C0DAFF000EDE6E000EDD6E1200045020
:1030F8007F0B076E086AD8900736083605C0D9FFD7
:1031080006C0DAFF07C0DEFF08C0DDFF03AE03D04C
:10311800076A072A01D0076A075005C0D9FF06C009
:10312800DAFFDE12000EDD1205C0D9FF06C0DAFF95
:10313800820EDE26FF0EDD220480048204840486CB
:103148000488048A049C039E1200000E0301056F84
:1031580001AF06D0006D011FD8B0012B010E056F1D
:1031680003AF04D0026D031FD8B0032B0251031123
:10317800D8B418D0010E046F04D0D89002370337A2
:10318800042B03AFFAD70251005D03510159D8A0AF
:1031980004D00251005F0351015BD890033302331E
:1031A800042FF1D70551D8B404D0006D011FD8B051
:1031B800012B00C300F301C301F31200000E01014B
:1031C800056F01AF06D0006D011FD8B0012B010EAD
:1031D800056F03AF04D0026D031FD8B0032B025153
:1031E8000311D8B418D0010E046F04D0D890023758
:1031F8000337042B03AFFAD70251005D035101597D
:10320800D8A004D00251005F0351015BD89003336A
:103218000233042FF1D70551D8B404D0006D011F33
:10322800D8B0012B00C100F101C101F11200B7C3F0
:103238009FF3B8C3A0F3B9C3A1F3BAC3A2F362EC76
:10324800E7F09FC3BBF3A0C3BCF3A1C3BDF3A2C304
:10325800BEF3BBC330F3BCC331F3BDC332F3BEC34B
:1032680033F396EC23F030C334F331C335F332C370
:1032780036F333C337F3DB0E0301386F0F0E396FA4
:10328800C90E3A6F3F0E3B6F85ECE2F034C3B7F3DB
:1032980035C3B8F336C3B9F337C3BAF31200B7C1AD
:1032A8009FF1B8C1A0F1B9C1A1F1BAC1A2F1EAEC8C
:1032B800E8F09FC1BBF1A0C1BCF1A1C1BDF1A2C1A1
:1032C800BEF1BBC130F1BCC131F1BDC132F1BEC1EB
:1032D80033F10EEC24F030C134F131C135F132C193
:1032E80036F133C137F1DB0E0101386F0F0E396F3C
:1032F800C90E3A6F3F0E3B6F24ECE4F034C1B7F1CE
:1033080035C1B8F136C1B9F137C1BAF11200000EB2
:10331800066E02AE06D0016C021ED8B0022A010E5B
:10332800066E04AE04D0036C041ED8B0042A035001
:103338000410D8B418D0010E056E04D0D890033606
:103348000436052A04AEFAD70350015C045002582B
:10335800D8A004D00350015E0450025AD890043219
:103368000332052EF1D70650D8B404D0016C021EE2
:10337800D8B0022A01C001F002C002F01200BAC09F
:10338800A2F0BBC0A3F0BCC0A4F0BDC0A5F072EC15
:10339800EAF0A2C0BEF0A3C0BFF0A4C0C0F0A5C0B0
:1033A800C1F0BEC055F0BFC056F0C0C057F0C1C094
:1033B80058F026EC24F055C06DF056C06EF057C09A
:1033C8006FF058C070F0DB0E0001716F0F0E726F56
:1033D800C90E736F3F0E746FC3ECE5F06DC0BAF0A1
:1033E8006EC0BBF06FC0BCF070C0BDF01200000E24
:1033F8006A6E000E6B6E000E6C6E000E6D6E000E27
:10340800686E000E696E6668000E0F015F6F000E31
:103418005D6F000E596F040E5A6F5F0E5B6F000EE2
:10342800656E120E586F000E566F1F0E576FC40E42
:10343800606E5C695A895A8B5A8D140E5D6F0E0145
:1034480034932A838C0E0301006F4F0E016F000E18
:10345800026F49EC27F0120000C306F301C307F31B
:1034680018D003010407D8A0050702C3F6FF03C359
:10347800F7FF024B032B000EF86E06C3D9FF07C3F4
:10348800DAFF064B072B0800F5CFDFFFDF50D8B473
:103498000ED0030104510511D8B409D0E2D706C3F0
:1034A800D9FF07C3DAFF000EDF6E064B072B0407B0
:1034B800D8A005070429F3E10529D8B41200EFD7ED
:1034C80003011151121113111411D8B424D0010E93
:1034D800156F06D0D8901137123713371437152BBC
:1034E80014AFF8D711510D5D12510E5913510F59E0
:1034F80014511059D8A008D011510D5F12510E5B0C
:1035080013510F5B1451105BD890143313331233DB
:103518001133152FE7D70DC30DF30EC30EF30FC3E9
:103528000FF310C310F312000301106F000E030114
:10353800126F10C313F3020E116F120E096F030EF0
:103548000A6F11C30BF3000E0D6F3C0E0C6FB00E1B
:103558000E6F020E0F6F7AEC1DF0020E0201B01909
:10356800D8B4FBD7B005D8B410D0030EB019D8B46E
:103578000CD0040EB019D8B408D0050EB019D8B4C0
:1035880004D0060EB019D8A41200010E606F120004
:1035980000C106F101C107F118D001010407D8A044
:1035A800050702C1F6FF03C1F7FF024B032B000E0C
:1035B800F86E06C1D9FF07C1DAFF064B072B0800D2
:1035C800F5CFDFFFDF50D8B40ED00101045105114B
:1035D800D8B409D0E2D706C1D9FF07C1DAFF000E77
:1035E800DF6E064B072B0407D8A005070429F3E173
:1035F8000529D8B41200EFD7010111511211131186
:103608001411D8B424D0010E156F06D0D8901137F4
:10361800123713371437152B14AFF8D711510D5D26
:1036280012510E5913510F5914511059D8A008D0DE
:1036380011510D5F12510E5B13510F5B1451105B4A
:10364800D8901433133312331133152FE7D70DC124
:103658000DF10EC10EF10FC10FF110C110F11200E2
:103668000101126F000E0101106F12C111F1020E5B
:10367800136F100E096F010E0A6F13C10BF1000EC4
:103688000D6F3C0E0C6FB00E0E6F020E0F6FA2EC9A
:103698001DF0020E0201B019D8B4FBD7B005D8B49A
:1036A80010D0030EB019D8B40CD0040EB019D8B489
:1036B80008D0050EB019D8B404D0060EB019D8A495
:1036C8001200010E606F12000E012C9FEC0E030118
:1036D800006F250E016F000E026F42EC27F00E01FD
:1036E8002C9DF80E0301006F450E016F000E026F4E
:1036F8003BEC27F0080E0E01F76F900EF56F240EC5
:10370800F66F8A0EF36F000EF46F000E0201A66FBB
:10371800000EA56F800EA46F000E0001FF6F000E53
:103728000201A36F000EA26F0E012C8F120012501F
:10373800131014101510D8B424D0010E166E06D02C
:10374800D8901236133614361536162A15AEF8D711
:1037580012500E5C13500F58145010581550115831
:10376800D8A008D012500E5E13500F5A1450105A99
:103778001550115AD8901532143213321232162EAF
:10378800E7D70EC00EF00FC00FF010C010F011C038
:1037980011F0120024EEE9F013EE11F0050EDBCF64
:1037A800E3FFE806FCE20FD011C30DF312C30EF3DA
:1037B800120013C30DF314C30EF3120015C30DF357
:1037C80016C30EF312000DC30FF30EC310F303015B
:1037D80010516A0AD8B404D0010AD8B406D0EED77A
:1037E8000F51C00AD8B4E0D7E9D70F51200AD8B48E
:1037F800E0D7E4D7D7AE02D0070E1DD0D7AC02D0A1
:10380800080E19D0D7BA02D0050E15D0D7B802D0F5
:10381800040E11D0D7B602D0030E0DD0D7B402D003
:10382800060E09D0D7B202D0010E05D0D7B002D00B
:10383800020E01D0000E0301006FD79ED79CD78AD5
:10384800D788D786D784D782D7800051120000C383
:1038580004F301C305F303D00301044B052B04C390
:10386800F6FF05C3F7FF000EF86E0D0EF76403D0E0
:103878000800F55005D0F6CFE9FFF7CFEAFFEF5083
:103888000009D8A4E9D700C302F301C303F3030175
:10389800021F031F024B032B04510225006F055121
:1038A8000321016F120016D021C3F6FF22C3F7FFD0
:1038B800000EF86E0D0EF76403D00800F55005D021
:1038C800F6CFE9FFF7CFEAFFEF501CEC10F0030149
:1038D800214B222B21C3F6FF22C3F7FF000EF86EFF
:1038E8000D0EF76403D00800F55005D0F6CFE9FFB8
:1038F800F7CFEAFFEF500009D8B41200D5D716D099
:1039080021C1F6FF22C1F7FF000EF86E0D0EF76415
:1039180003D00800F55005D0F6CFE9FFF7CFEAFF4E
:10392800EF507FEC10F00101214B222B21C1F6FF53
:1039380022C1F7FF000EF86E0D0EF76403D00800E1
:10394800F55005D0F6CFE9FFF7CFEAFFEF500009B1
:10395800D8B41200D5D7000E0F01316F000E326FA8
:10396800030E336F9E0E2F6F580E2E6F2E512FCFD2
:1039780003F30301046B03C304F3036B0311010195
:10398800F46F030104510101F56F0E01389D2E8D6E
:10399800800E0301006F4F0E016F000E026F11ECD5
:1039A80027F0310E0F01306F1200000E03010B6F6C
:1039B800000E0A6F0B5119E114D0060E0A25D96EB4
:1039C800030E0B21DA6E02510A25006F03510B21F9
:1039D800016F31EC26F0DF6E03010A4B0B2B0B5104
:1039E80004E1040E0A5DD8A0E8D706C302F307C3B2
:1039F80003F308C304F309C305F3120005D0030158
:103A0800004B012B024B032B00C3D9FF01C3DAFF84
:103A1800DF500301046F02C3F6FF03C3F7FF000E74
:103A2800F86E0800F55000080425056F0551D8A464
:103A380007D000C3D9FF01C3DAFFDF50D8A4DFD70E
:103A48000551006F016B00BF0107120004C30AF3A0
:103A580005C30BF306C30CF307C30DF3000E0301F4
:103A68000F6F000E0E6F0F5118E1040E0E5DD8B0E7
:103A7800120008510E25006F09510F21016F0A0E1F
:103A88000E25D96E030E0F21DA6EDF50026F5BEC44
:103A980021F003010E4B0F2BE6D71200000EC46E67
:103AA800000EC56E010EC66E000EC26E000EC16E0F
:103AB800C150C2CF03F30301046B03C304F3036BC8
:103AC800031102019E6F0301045102019F6F0E0151
:103AD80038992E89860E0301006F4F0E016F000E74
:103AE800026F1FEC27F0130EC36E1200020166B1BD
:103AF8001ED09A0E0301006F040E016F09C302F372
:103B08000AC303F30BC304F30CC305F30DC306F395
:103B1800CEEC1FF09A0E0301006F040E016F0EC366
:103B280002F30FC303F3010E4AEC13F012000EC3A5
:103B3800D9FF0FC3DAFF010EDF6E1200020166B172
:103B48001ED09A0E0101006F040E016F09C102F127
:103B58000AC103F10BC104F10CC105F10DC106F155
:103B6800F1EC1FF09A0E0101006F040E016F0EC1F7
:103B780002F10FC103F1010E9BEC13F012000EC10C
:103B8800D9FF0FC1DAFF010EDF6E1200000E03012C
:103B9800006F04D00400010E0201616F0201A251FE
:103BA800D8B4F8D7A351010D000EF324D96E050E31
:103BB800F420DA6EDF500301006F0201A32B3F0EE1
:103BC800A36502D0000EA36F0E012C9F0201A2076D
:103BD8000E012C8F030100511200000E0C6E000E16
:103BE8000B6E0C5018E113D0070E0B24D96E000E83
:103BF8000C20DA6E03500B24016E04500C20026E68
:103C08007EEC26F0DF6E0B4A0C2A0C5004E1040E01
:103C18000B5CD8A0E9D707C003F008C004F009C0BE
:103C280005F00AC006F0120000C304F301C305F34F
:103C380003D00301044B052B04C3D9FF05C3DAFFE6
:103C4800DF50D8B406D0F5D70301044B052B024B3F
:103C5800032B02C3F6FF03C3F7FF000EF86E04C37D
:103C6800D9FF05C3DAFF0800F5CFDFFFDF50D8B46E
:103C78001200EAD700C104F101C105F103D0010126
:103C8800044B052B04C1D9FF05C1DAFFDF50D8B4B6
:103C980006D0F5D70101044B052B024B032B02C1BB
:103CA800F6FF03C1F7FF000EF86E04C1D9FF05C186
:103CB800DAFF0800F5CFDFFFDF50D8B41200EAD7EB
:103CC80005C00BF006C00CF007C00DF008C00EF0E0
:103CD800000E106E000E0F6E105017E1040E0F5CF0
:103CE800D8B0120009500F24016E0A501020026E3D
:103CF8000B0E0F24D96E000E1020DA6EDF50036E03
:103D0800A8EC22F00F4A102AE7D7120003C307F3E2
:103D180004C308F305D00301074B082B054B062BFA
:103D280005C3F6FF06C3F7FF000EF86E07C3D9FFF9
:103D380008C3DAFF0D0EF76403D00800F55005D06C
:103D4800F6CFE9FFF7CFEAFFEF50DF6EDF50D8B4C8
:103D58001200E1D7B1C3BFF3B2C3C0F3000E030131
:103D6800C16F000EC26F000EC36FB50EBD6F030E9C
:103D7800BE6FBF0E876F030E886FB3C389F3B4C3DA
:103D88008AF3BD0E8B6F030E8C6FCBEC90F0BFC324
:103D9800D9FFC0C3DAFF000EDF6E12000301006F07
:103DA80001D004000201A451D8B4FBD70E012CBDE8
:103DB80003D000C3F2FE13D02C9D0201A651010DC1
:103DC800000EF324D96E060EF420DA6E00C3DFFF6E
:103DD800A62B7F0EA66502D0000EA66FA4070E01C3
:103DE8002C8D1200000E03014C1B000E4D1B000E03
:103DF8004E1B800E4F1B48C334F349C335F34AC3E7
:103E080036F34BC337F34CC338F34DC339F34EC3C2
:103E18003AF34FC33BF385ECE2F034C348F335C3C0
:103E280049F336C34AF337C34BF3120003C107F112
:103E380004C108F105D00101074B082B054B062BDF
:103E480005C1F6FF06C1F7FF000EF86E07C1D9FFDE
:103E580008C1DAFF0D0EF76403D00800F55005D04D
:103E6800F6CFE9FFF7CFEAFFEF50DF6EDF50D8B4A7
:103E78001200E1D7B1C1BBF1B2C1BCF1000E010122
:103E8800BD6F000EBE6F000EBF6FB50EB96F010E8D
:103E9800BA6FBB0E876F010E886FB3C189F1B4C1C9
:103EA8008AF1B90E8B6F010E8C6F69ECA0F0BBC163
:103EB800D9FFBCC1DAFF000EDF6E12000101006FEE
:103EC80001D004000201A451D8B4FBD70E012CBDC7
:103ED80003D000C1F2FE13D02C9D0201A651010DA2
:103EE800000EF324D96E060EF420DA6E00C1DFFF4F
:103EF800A62B7F0EA66502D0000EA66FA4070E01A2
:103F08002C8D1200000E01014C1B000E4D1B000EE3
:103F18004E1B800E4F1B48C134F149C135F14AC1CF
:103F280036F14BC137F14CC138F14DC139F14EC1B1
:103F38003AF14FC13BF124ECE4F034C148F135C10A
:103F480049F136C14AF137C14BF11200000E0001A8
:103F5800971B000E981B000E991B800E9A1B93C08E
:103F68006DF094C06EF095C06FF096C070F097C079
:103F780071F098C072F099C073F09AC074F0C3ECF5
:103F8800E5F06DC093F06EC094F06FC095F070C00E
:103F980096F0120005C307F306C308F3D89003018F
:103FA8000737083700C3D9FF01C3DAFF07C3DEFFAD
:103FB80008C3DDFF20EE02F00051D9260151DA22B4
:103FC80004C3DFFF20EE03F00051D9260151DA22A5
:103FD80002C3DEFF03C3DDFF120005C107F106C1FE
:103FE80008F1D89001010737083700C1D9FF01C18E
:103FF800DAFF07C1DEFF08C1DDFF20EE02F0005145
:10400800D9260151DA2204C1DFFF20EE03F0005166
:10401800D9260151DA2202C1DEFF03C1DDFF1200F9
:10402800016E01D004000201A451D8B4FBD70E01DF
:104038002CBD03D001C0F2FE13D02C9D0201A65165
:10404800010D000EF324D96E060EF420DA6E01C0BD
:10405800DFFFA62B7F0EA66502D0000EA66FA40771
:104068000E012C8D12000301116F000E03010D6F5C
:10407800000E0E6F200E0F6F000E106F1151020D03
:10408800F3CF12F312510D25046F000E0E21056FA8
:10409800000E0F21066F000E1021076F59EC20F05B
:1040A80004C30BF305C30CF3120004C300F305C3E8
:1040B80001F306C302F307C303F324EC26F003015C
:1040C800086F010E0425006F000E0521016F000E18
:1040D8000621026F000E0721036F24EC26F003016E
:1040E800096F0851046F09C305F312007EB404D0A8
:1040F8000101006B002B02D00101006B0047004753
:104108007E500019FB0B00197E6E010E040110276A
:10411800000E1123122313235DA207D0010E020102
:104128007127000E7223732374230400120004C144
:1041380000F105C101F106C102F107C103F13EEC2E
:1041480026F00101086F010E0425006F000E0521FD
:10415800016F000E0621026F000E0721036F3EEC6F
:1041680026F00101096F0851046F09C105F1120019
:10417800000E0301226F000E216F225118E1080E74
:10418800215DD8B01200000E246F000E236F245159
:104198000BE1100E235DD8B007D0000E1CEC10F018
:1041A8000301234B242BF3D7214B222BE6D71200F4
:1041B800000E0101226F000E216F225118E1080E36
:1041C800215DD8B01200000E246F000E236F245119
:1041D8000BE1100E235DD8B007D0000E7FEC10F075
:1041E8000101234B242BF3D7214B222BE6D71200B6
:1041F800036E9684010120EE03F0F051D926F151A7
:10420800DA22DE50DE10D8B410D020EE03F0F051E0
:10421800D926F151DA22DECF01F0DDCF02F001C05C
:10422800D9FF02C0DAFF03C0DFFF000E5E6E120086
:10423800F29EF29C0E01359F4B9F8DC205F08EC2F7
:1042480006F08FC207F090C208F0EF0EF66EC90EA6
:10425800F76E000EF86E0900F5CF09F00A00F5CFE9
:104268000AF064EC1EF00E014B8FF28EF28C1200F5
:10427800030137AF13D034C330F335C331F336C33A
:1042880032F337C333F396EC23F030C334F331C33E
:1042980035F332C336F333C337F3120034C334F380
:1042A80035C335F336C336F337C337F31200000E80
:1042B800F2BE010E0301036F0151030B756E00C3BB
:1042C80074FF02C376FF3F0E77167784F29E550E71
:1042D800786EAA0E786E778277B2FED7779403014C
:1042E80003B102D0F29E01D0F28E1200C0EC25F08C
:1042F800EDEC25F0B6EC0FF0FBEC25F0E1EC22F04C
:10430800DCEC26F089EC27F0AFEC1CF0FBEC19F0A4
:10431800C6EC23F0DEEC23F0CFEC25F065EC23F0BF
:1043280052EC1DF068EC1BF01200010137AF13D0FE
:1043380034C130F135C131F136C132F137C133F111
:104348000EEC24F030C134F131C135F132C136F10F
:1043580033C137F1120034C134F135C135F136C1FA
:1043680036F137C137F112000301166F03011651F8
:10437800B00F98EC1AF003011451080DF3500F0B0D
:1043880098EC1AF003011451080D040E156FF4345B
:10439800F432F332152FFBD7F3500F0B100F98ECB4
:1043A8001AF01200000E0301BD6F000EBE6F2E0E34
:1043B800BF6F4C0EC06F000EC16FB30EBB6F030E04
:1043C800BC6FBD0E876F030E886FB1C389F3B2C38C
:1043D8008AF3BB0E8B6F030E8C6FCBEC90F0120040
:1043E800FC0E0301046FFF0E056F3F0E066F000EF3
:1043F800076F59EC20F004C30EF305C30FF30EC387
:104408000BF30FC30CF3060E03010D6FD8900C339A
:104418000B330D2FFBD70B511F0B1200000E0101A0
:10442800BD6F000EBE6FAE0EBF6F4E0EC06F000E9A
:10443800C16FB30EBB6F010EBC6FBD0E876F010E4F
:10444800886FB1C189F1B2C18AF1BB0E8B6F010EC1
:104458008C6F69ECA0F01200FC0E0101046FFF0ED6
:10446800056F3F0E066F000E076F9BEC20F004C12E
:104478000EF105C10FF10EC10BF10FC10CF1060EC3
:1044880001010D6FD8900C330B330D2FFBD70B5157
:104498001F0B12000101166F01011651B00F34EC09
:1044A8001BF001011451080DF3500F0B34EC1BF0F5
:1044B80001011451080D040E156FF434F432F3326F
:1044C800152FFBD7F3500F0B100F34EC1BF0120015
:1044D800000E0001C96F000ECA6F080ECB6F4F0E99
:1044E800CC6F000ECD6FC70EC76F000EC86FC90E18
:1044F8009B6F000E9C6FC5C09DF0C6C09EF0C70E96
:104508009F6F000EA06F07ECB0F012005CAE13D0E6
:1045180059C055F05AC056F05BC057F05CC058F00F
:1045280026EC24F055C059F056C05AF057C05BF03D
:1045380058C05CF0120059C059F05AC05AF05BC01C
:104548005BF05CC05CF01200000EF2BE010E046E5F
:104558000250030B756E01C074FF03C076FF3F0E57
:1045680077167784F29E550E786EAA0E786E77824B
:1045780077B2FED7779404B002D0F29E01D0F28EC3
:10458800120000C3D9FF01C3DAFF03010251DE188C
:10459800D8A405D000C300F301C301F3120000C37F
:1045A800D9FF01C3DAFF004B012BDF50D8A4E9D7AC
:1045B800000E006F000E016F1200A70E0201646F5B
:1045C800020E656FA70E626F020E636F66836691B7
:1045D800000E686F000E946E280E956E000E976E92
:1045E8003F0E926E0E01369136932C812C83120069
:1045F800800E0201A46114D0A551010D000EF32410
:10460800D96E060EF420DA6EDF500E01F26F020149
:10461800A52B7F0EA56502D0000EA56FA42B120056
:104628000E012C9D120002015F51D8A412D05C51DA
:10463800D8A40FD05E51D8A40CD05951D8A409D011
:104648005A51D8A406D05B51D8A403D05D51D8B430
:1046580002D0010E1200000E12000E01389DF4C1A6
:1046680000F1F5C101F1B3EC24F00201915192116E
:104678009311D8B4120001D812000500FA6E9151B6
:10468800FD6E9251FE6E9351FF6EFA5012000E01AC
:1046980038999EC201F09FC202F009EC26F004018D
:1046A800355136113711D8B4120001D8120005005F
:1046B800FA6E3551FD6E3651FE6E3751FF6EFA5067
:1046C8001200040EB36E200EB26E000EB46EF10E20
:1046D800B06E000EAF6E0E01389B2E8B820E03015A
:1046E800006F4F0E016F000E026F18EC27F0BF0E1F
:1046F800B16E12000301026F090E030102610DD0B1
:104708000251020DC40EF324D96E050EF420DA6EA0
:10471800DECF00F3DDCF01F31200360E006FFF0E7F
:10472800016F120003013051311132113311D8B425
:1047380008D0000E301B000E311B000E321B800EFD
:10474800331B30C330F331C331F332C332F333C3D5
:1047580033F312000301026F090E030102610DD049
:104768000251020DD60EF324D96E050EF420DA6E2E
:10477800DECF00F3DDCF01F31200070E006FFC0E51
:10478800016F1200040EB96EA00EB86E000EBA6E5C
:10479800E20EB66E000EB56E0E0138972E87880EA3
:1047A8000301006F4F0E016F000E026F26EC27F019
:1047B800B7681200030EBF6E200EBE6E000EC06EEC
:1047C800C20EBC6E000EBB6E0E0138932E83840E93
:1047D8000301006F4F0E016F000E026F2DEC27F0E2
:1047E800BD6812000101026F090E010102610DD0BE
:1047F8000251020DC40EF324D96E050EF420DA6EB0
:10480800DECF00F1DDCF01F11200360E006FFF0E92
:10481800016F120001013051311132113311D8B436
:1048280008D0000E301B000E311B000E321B800E0C
:10483800331B30C130F131C131F132C132F133C1F2
:1048480033F112005550561057105810D8B408D0EC
:10485800000E551A000E561A000E571A800E581AD6
:1048680055C055F056C056F057C057F058C058F0CC
:104878001200030100510203F3CF04F3F4CF05F350
:1048880000510303F350052701510203F350052794
:1048980004C300F305C301F312000E01389B0201A3
:1048A800975198119911D8B4120001D81200050037
:1048B800FA6E9751FD6E9851FE6E9951FF6EFA503F
:1048C8001200010100510203F3CF04F1F4CF05F106
:1048D80000510303F350052701510203F350052744
:1048E80004C100F105C101F112000E013493020167
:1048F800945195119611D8B4120001D812000500F0
:10490800FA6E9451FD6E9551FE6E9651FF6EFA50F7
:10491800120008C300F309C301F30301026B8E0EF2
:10492800036F000E046F98EC11F000C308F301C385
:1049380009F302C30AF31200FC0E0301046FFF0E11
:10494800056F3F0E066F000E076F59EC20F004C389
:104958000BF305C30CF303010B511F0B12000F01DE
:1049680030A509D03091010101510F012F6F00C10D
:104978002EFF30811200010101510F012F6F00C17C
:104988002EFF12000E0138930201A04BA12BA1515A
:1049980004E1400EA05DD8A0120037EC25F0000E0F
:1049A8000201A16F000EA06F1200FC0E0101046F3E
:1049B800FF0E056F3F0E066F000E076F9BEC20F091
:1049C80004C10BF105C10CF101010B511F0B1200C1
:1049D80008C100F109C101F10101026B8E0E036FDC
:1049E800000E046FF0EC11F000C108F101C109F1EB
:1049F80002C10AF112000E01389702019C4B9D2B4F
:104A08009D5104E1080E9C5DD8A0120049EC25F0E8
:104A1800000E02019D6F000E9C6F120001500302F0
:104A2800F3CF05F0F4CF06F001500402F350062648
:104A380002500302F350062605C001F006C002F03A
:104A4800120036FF2CFF22FFBFFECBFECAFEB7FCCA
:104A5800A9FEB4FE07FCC6FC17FC00FBF9F4F0F451
:104A680026F984FA6EFA04012C512D112E11D8B4AE
:104A7800120001D812000500FA6E2C51FD6E2D515E
:104A8800FE6E2E51FF6EFA50120004012F513011A4
:104A98003111D8B4120001D812000500FA6E2F5156
:104AA800FD6E3051FE6E3151FF6EFA501200040156
:104AB800325133113411D8B4120001D81200050054
:104AC800FA6E3251FD6E3351FE6E3451FF6EFA505C
:104AD8001200000E0201596F000E5A6F000E5B6F34
:104AE800000E5C6F000E5D6F000E5E6F000E5F6F54
:104AF8007E9612000301026F000E0301016F3A0E49
:104B0800026105D02F0E026502D0010E016F01C3AC
:104B180000F3003112000101026F000E0101016F64
:104B28003A0E026105D02F0E026502D0010E016F08
:104B380001C100F100311200FE0E0301046FFF0EE7
:104B4800056F3F0E066F000E076F59EC20F004C387
:104B58000BF305C30CF31200FE0E0101046FFF0EE8
:104B6800056F3F0E066F000E076F9BEC20F004C127
:104B78000BF105C10CF11200F28A0E01218F1F8181
:104B88002489228322812487228F228D2083249BBB
:104B9800249D249312000E013391F2808A0E0301A2
:104BA800006F4F0E016F000E026F34EC27F00E01FC
:104BB80029811200036E000E026E3A0E036005D0C2
:104BC8002F0E036402D0010E026E02C001F0013004
:104BD80012001A0E0E014C6F000E4D6F2E0E4E6F06
:104BE8004F0E4F6F7F0E506F740E516F1200200ED4
:104BF8000E01436F000E456F000E476F020E496F9E
:104C0800000E486F46B11200FDD7C3A407D0C39069
:104C18000250C26E01C0C1FFC38012000250C26EB2
:104C280001C0C1FF12005FB284EF27F05FB057EFF9
:104C380027F00301016F03010151D2EC1EF01200AD
:104C480077503F0B8009776E02C3F8FF01C3F7FF67
:104C580000C3F6FF0800F550120003010151030BD1
:104C6800756E00C374FF3F0E7716778000F000F072
:104C78007650120077503F0B8009776E02C1F8FF1B
:104C880001C1F7FF00C1F6FF0800F55012007F824E
:104C9800B7EC27F00E012E991A0EE82EFED700D099
:104CA8007F920E01298112007F92FDC001F0FEC0A3
:104CB80002F009EC26F0B9EC27F00E012E892991B3
:104CC8001200050E0101F227000EF323FC2F03D07A
:104CD800040E5E6E1200010E5E6E120017EC23F0D9
:104CE8000009D8A47E868AEC26F00009D8B4120000
:104CF8007E8212000250030B756E01C074FF3F0ED6
:104D08007716778000F000F07650120002016051AB
:104D1800D8A403D06151D8B402D0010E1200000EFD
:104D280012007350046E036A72500324016E000E61
:104D38000420026E12006450046E036A6350032458
:104D4800016E000E0420026E1200000E0301C26FF5
:104D5800000EC36F070E23ECDAF0120091EC27F077
:104D68009FEC27F00101FF5150EC27F01200000ED4
:104D78000101C26F000EC36F070ED7ECDBF0120003
:104D8800BB0E0301B16FFF0EB26FD6EC21F012001B
:104D9800AD0E0301B16FFF0EB26FD6EC21F0120019
:104DA800F60E0301B16FE40EB26FD6EC21F01200DB
:104DB800070E0E01C36F810EC26F359F2B8F120035
:104DC800BB0E0101B16FFF0EB26F12EC22F01200A0
:104DD800F60E0101B16FE40EB26F12EC22F0120070
:104DE800AD0E0101B16FFF0EB26F12EC22F012008E
:104DF8004AFEAEFD36FFA4B4294371051E44000ED9
:104E08000201606F000E616F7E9212000301016F54
:104E1800030101516BEC27F0120000C391F201C3AA
:104E280092F202C393F2120000C397F201C398F200
:104E380002C399F2120000C335F401C336F402C369
:104E480037F4120000C32FF401C330F402C331F465
:104E5800120000C32CF401C32DF402C32EF4120077
:104E680000C332F401C333F402C334F4120000C3A4
:104E78003BF401C33CF402C33DF4120000C338F410
:104E880001C339F402C33AF4120000C394F201C317
:104E980095F202C396F212000101006F00C15FFF94
:104EA800608E608012000101016F0101015162EC06
:104EB8001FF012000101016F0101015175EC27F08B
:104EC800120065AE02D0010E1200000E120003019E
:104ED800006F00C3BBFF12000301006F00C3BCFFDB
:104EE80012000101006F00C1BBFF12000101006F39
:104EF80000C1BCFF12000E0133915BEC25F01200DB
:104F0800026E025014EC20F01200A60E0E01C46FBF
:104F180012005E50D8B41200FCD73C0E0F015F6F30
:104F280012005E50D8B41200FCD7AFEC27F0120084
:104F3800B1EC27F012000F015A871200B3EC27F0EA
:104F48001200B5EC27F012000E0136931200C3F5DB
:104F5800C83FC3901200BD9E1200BD8E1200BD9EB8
:104F68001200BD8E1200C3901200C3801200609020
:104F7800120067501200EE7F120012001200120099
:074F88001200120012003CB0
:10C93200000000803F000020410000C84200007A51
:10C942004400401C460050C3470024744980961896
:10C952004B20BCBE4C286B6E4EF9021550EC78ADE4
:10C9620060CAF249710000803FCDCCCC3D0AD7238A
:10C972003C6F12833A17B7D138ACC52737BD37861B
:10C982003595BFD63377CC2B325F708930FFE6DB2B
:10C992002E08E53C1E6042A20D010000000A0000C4
:10C9A2000064000000E803000010270000A08601D8
:10C9B2000040420F008096980000E1F50500CA9AF7
:10C9C2003B01000000100000000001000000100008
:10C9D2000000000100000010000000000100000043
:10C9E20010140010000C00080004000000180000E1
:10C9F2000000000000000000005F000000000000D6
:10CA02000007000700000000147F147F14000000DC
:10CA1200242A7F2A12000000231308646200000007
:10CA220036495522500000000005030000000000B6
:10CA32001C2241000000000041221C0000000000F6
:10CA4200082A1C2A0800000008083E080800000006
:10CA5200A0600000000000000808080808000000AC
:10CA620060600000000000002010080402000000C6
:10CA72003E5149453E00000000427F400000000058
:10CA820062514949460000002241494936000000EE
:10CA92001814127F10000000274545453900000098
:10CAA2003C4A4949300000000171090503000000B9
:10CAB2003649494936000000064949291E0000004E
:10CAC200003636000000000000AC6C0000000000E0
:10CAD2000814224100000000141414141400000071
:10CAE2004122140800000000020151090600000062
:10CAF200324979413E0000007E0909097E000000AA
:10CB02007F494949360000003E4141412200000070
:10CB12007F4141221C0000007F4949494100000039
:10CB22007F090909010000003E41415172000000E5
:10CB32007F0808087F000000417F410000000000DC
:10CB42002040413F010000007F0814224100000004
:10CB52007F404040400000007F020C027F00000046
:10CB62007F0408107F0000003E4141413E0000006A
:10CB72007F090909060000003E4151215E000000C4
:10CB82007F09192946000000264949493200000060
:10CB920001017F01010000003F4040403F000000D2
:10CBA2001F2040201F0000003F4038403F0000008F
:10CBB20063140814630000000304780403000000F7
:10CBC20061514945430000007F41410000000000DF
:10CBD200020408102000000041417F000000000014
:10CBE20004020102040000008080808080000000B6
:10CBF2000102040000000000205454547800000098
:10CC02007F484444380000003844442800000000B3
:10CC1200384444487F00000038545454180000003F
:10CC2200087E09020000000018A4A4A47C000000F1
:10CC32007F08040478000000007D0000000000006E
:10CC420080847D00000000007F1028440000000066
:10CC5200417F4000000000007C04180478000000BE
:10CC62007C08047C000000003844443800000000C6
:10CC7200FC24241800000000182424FC00000000FA
:10CC8200007C080400000000485454240000000006
:10CC9200047F4400000000003C40407C0000000093
:10CCA2001C2040201C0000003C4030403C000000A2
:10CCB20044281028440000001CA0A07C00000000B2
:10CCC2004464544C44000000083641000000000057
:10CCD200007F000000000000413608000000000054
:10CCE2000201010201000000020505020000000627
:10CCF2003C04427D9F6A425C900142604DBB4051C0
:10CD0200EC473EDE8D1FBBECF34A48359595C717BD
:10CD1200C1DC45FDDB6DC372B33340063C0442C047
:10CD2200598B4274044442F99B4F410000803F2BCF
:10CD32003401487F9DB045E7FFD9420000803F4C57
:10CD4200697374206F6620616C6C20737570706FEC
:10CD52007274656420636F6D6D616E64733A0A0D5F
:10CD620044657669636520436F6E74726F6C20430D
:10CD72006F6D6D616E64733A20436F6D6D616E64A9
:10CD82007320746F207669657720616E6420636F0B
:10CD92006E74726F6C206C6F77206C6576656C2098
:10CDA20073797374656D2066756E6374696F6E61F5
:10CDB2006C6974790A0D20202052657365743A20DB
:10CDC200436C6561727320746865207465726D6965
:10CDD2006E616C20616E6420726573657473207479
:10CDE2006865206D6963726F636F6E74726F6C6CCD
:10CDF20065720A0D202020436C6561723A20436CF3
:10CE02006561727320746865207465726D696E6104
:10CE12006C2062757420646F65736E27742072656E
:10CE220073657420746865206D6963726F0A0D20E2
:10CE320020204361757365206F66205265736574A7
:10CE42003F3A2052657475726E7320746865206370
:10CE520061757365206F6620746865206D6F7374E9
:10CE620020726563656E74206465766963652072FD
:10CE7200657365740A0D2020202A49444E3F3A20EA
:10CE820052657475726E7320646576696365206994
:10CE920064656E74696669636174696F6E20737428
:10CEA20072696E670A0D20202044657669636520E9
:10CEB2004F6E2054696D653F3A2052657475726EEB
:10CEC2007320646576696365206F6E2074696D6591
:10CED2002073696E6365206C617374206465766982
:10CEE20063652072657365740A0D2020204465769F
:10CEF2006963652049443F3A2052657475726E73C6
:10CF020020646576696365204944206173207072EC
:10CF1200652D70726F6772616D6D656420696E2038
:10CF2200666C617368206D656D6F72790A0D2020E1
:10CF3200205265766973696F6E2049443F3A2052E8
:10CF4200657475726E7320646576696365207369B2
:10CF52006C69636F6E207265766973696F6E2049C2
:10CF620044206173207072652D70726F6772616DFB
:10CF72006D656420696E20666C617368206D656DF5
:10CF82006F72790A0D20202055736572204944730F
:10CF92003F3A2052657475726E732061206C69731A
:10CFA20074206F662075736572204944732028646B
:10CFB2006973706C6179656420696E20686578298F
:10CFC2002061732073746F72656420696E20666CD1
:10CFD200617368206D656D6F72790A0D20202041A2
:10CFE2004443204572726F72733F3A2052657475E2
:10CFF200726E7320746865206361757365206F6655
:10D0020020616E20414443206572726F722069660E
:10D0120020616E206572726F72206F636375727227
:10D0220065640A0D202020436C65617220414443EF
:10D03200204572726F72733A20436C65617273207D
:10D0420074686520414443206572726F7220616E7C
:10D052006420726573756D65732041444320636F6C
:10D062006E76657273696F6E730A0D202020436FAE
:10D072006D6D204572726F72733F3A2052657475FE
:10D08200726E73206966206120636F6D6D756E69C3
:10D09200636174696F6E73206572726F722068616A
:10D0A20073206F636375727265640A0D20202043DA
:10D0B2006C65617220436F6D6D204572726F727381
:10D0C2003A20436C656172732074686520636F6DEA
:10D0D2006D756E69636174696F6E73206572726FCC
:10D0E200720A0D202020436C656172204D61782008
:10D0F20056616C7565733A20457261736573206D74
:10D102006178696D756D207265636F726465642004
:10D1120076616C7565732066726F6D20454550525D
:10D122004F4D0A0D20202048656C703A20546869E2
:10D1320073206D6573736167652C206C69737473FA
:10D1420020737570706F7274656420636F6D6D61AA
:10D152006E64730A0D20202044657669636520534E
:10D16200756D6D6172793A205072696E74732061C7
:10D17200206C697374206F662063757272656E74B9
:10D1820020616E64206D6178696D756D206D6561D9
:10D192007375726564206465766963652076616C77
:10D1A2007565732061732077656C6C2061732068EC
:10D1B20061726477617265204944730A0D0A0D44F5
:10D1C2006576696365204D6561737572656D656E1F
:10D1D2007420436F6D6D616E64733A205669657792
:10D1E200206C6F77206C6576656C2073797374653B
:10D1F2006D206D6561737572656D656E74730A0D70
:10D202002020204D65617375726520504F53335055
:10D21200333F3A2052657475726E73202B332E336E
:10D22200562041444320436F6E76657273696F6E78
:10D2320020696E20766F6C74730A0D2020204D6574
:10D24200617375726520504F5331323F3A205265F7
:10D252007475726E73202B31325620414443204341
:10D262006F6E76657273696F6E20696E20766F6C71
:10D2720074730A0D2020204D656173757265204418
:10D2820069652054656D703F3A2052657475726EFF
:10D292007320746865206D6963726F636F6E747258
:10D2A2006F6C6C6572206469652074656D7065725F
:10D2B200617475726520696E206465677265657355
:10D2C20020430A0D2020204D65617375726520464A
:10D2D20056523F3A2052657475726E7320746865B7
:10D2E20020696E7465726E616C206669786564206F
:10D2F200766F6C74616765207265666572656E63D0
:10D3020065206275666665722031206F757470756E
:10D312007420696E20766F6C74730A0D2020204D84
:10D3220065617375726520415653533F3A205265C9
:10D332007475726E7320746865206D6561737572A1
:10D3420065642076616C7565206F6620416E616C44
:10D352006F672056535320696E20766F6C74730A80
:10D362000D2020204D617820504F533350332056EA
:10D372006F6C746167653F3A2052657475726E73A3
:10D3820020746865206D6178696D756D20726563C2
:10D392006F72646564202B332E3356205261696CA0
:10D3A20020566F6C74616765206D65617375726577
:10D3B200640A0D2020204D617820504F53313220D5
:10D3C200566F6C746167653F3A2052657475726E70
:10D3D2007320746865206D6178696D756D20726562
:10D3E200636F72646564202B313256205261696C1E
:10D3F20020566F6C74616765206D65617375726527
:10D40200640A0D2020204D6178204469652054650E
:10D412006D703F3A2052657475726E732074686540
:10D42200206D6178696D756D207265636F726465D8
:10D4320064206469652074656D70657261747572CB
:10D4420065206D656173757265640A0D2020204D3B
:10D4520061782046565220566F6C746167653F3A78
:10D462002052657475726E7320746865206D6178E0
:10D47200696D756D207265636F72646564204656CE
