:0400000085EF00F098
:060008005F8279EFB7F002
:100018005F80D8CF02F1E8CF03F1E0CF04F1FACF47
:1000280005F1FBCF06F1E9CF07F1EACF08F1E1CFFF
:1000380009F1E2CF0AF1D9CF0BF1DACF0CF1F3CF06
:100048000DF1F4CF0EF1F6CF0FF1F7CF10F1F8CF95
:1000580011F1F5CF12F15FC013F160C014F161C066
:1000680015F162C016F10E012EBB38AB03D06DEC52
:10007800C0F01BD02CBD36AD0DD001D816D0050070
:10008800FA6E02017351FD6E7451FE6E7551FF6E6A
:10009800FA5012002EBD38AD03D099ECBFF005D050
:1000A8002BBF35AF02D0E2ECC1F016C162F015C12A
:1000B80061F014C160F013C15FF012C1F5FF11C106
:1000C800F8FF10C1F7FF0FC1F6FF0EC1F4FF0DC115
:1000D800F3FF0CC1DAFF0BC1D9FF0AC1E2FF09C166
:1000E800E1FF08C1EAFF07C1E9FF06C1FBFF05C13F
:1000F800FAFF04C1E0FF03C1E8FF02C1D8FF5F9027
:06010800100087EFB8F0C3
:10EA1A00000000803F000020410000C84200007A48
:10EA2A004400401C460050C347002474498096188D
:10EA3A004B20BCBE4C286B6E4EF9021550EC78ADDB
:10EA4A0060CAF249710000803FCDCCCC3D0AD72381
:10EA5A003C6F12833A17B7D138ACC52737BD378612
:10EA6A003595BFD63377CC2B325F708930FFE6DB22
:10EA7A002E08E53C1E6042A20D010000000A0000BB
:10EA8A000064000000E803000010270000A08601CF
:10EA9A000040420F008096980000E1F50500CA9AEE
:10EAAA003B010000001000000000010000001000FF
:10EABA00000000010000001000000000010000003A
:10EACA0010063C04427D9F6A425C900142604DBB45
:10EADA004051EC473EDE8D1FBBECF34A4835959515
:10EAEA00C717C1DC45FDDB6DC372B33340063C0476
:10EAFA0042C0598B4274044442F99B4F4100008042
:10EB0A003F2B3401487F9DB045E7FFD94200008082
:10EB1A003F4C697374206F6620737570706F7274DE
:10EB2A00656420636F6D6D616E64733A0A0D4465A6
:10EB3A007669636520436F6D6D616E64733A0A0D81
:10EB4A0020202052657365743A20436C65617273A4
:10EB5A0020746865207465726D696E616C20616EDF
:10EB6A00642072657365747320746865206D6963C7
:10EB7A00726F0A0D202020436C6561723A20436C43
:10EB8A006561727320746865207465726D696E615F
:10EB9A006C2062757420646F65736E2774207265C9
:10EBAA0073657420746865206D6963726F0A0D203D
:10EBBA0020204361757365206F6620526573657402
:10EBCA003F3A2052657475726E73207468652063CB
:10EBDA0061757365206F6620746865206D6F737444
:10EBEA0020726563656E7420646576696365207258
:10EBFA00657365740A0D2020202A49444E3F3A2045
:10EC0A0052657475726E73206465766963652069EE
:10EC1A0064656E74696669636174696F6E20737482
:10EC2A0072696E670A0D2020204465766963652043
:10EC3A004F6E2054696D653F3A2052657475726E45
:10EC4A007320646576696365206F6E2074696D65EB
:10EC5A002073696E6365206C6173742064657669DC
:10EC6A0063652072657365740A0D202020446576F9
:10EC7A006963652049443F3A2052657475726E7320
:10EC8A002064657669636520494420617320707247
:10EC9A00652D70726F6772616D6D656420696E2093
:10ECAA00666C617368206D656D6F72790A0D20203C
:10ECBA00205265766973696F6E2049443F3A205243
:10ECCA00657475726E73206465766963652073690D
:10ECDA006C69636F6E207265766973696F6E20491D
:10ECEA0044206173207072652D70726F6772616D56
:10ECFA006D656420696E20666C617368206D656D50
:10ED0A006F72790A0D202020557365722049447369
:10ED1A003F3A2052657475726E732061206C697374
:10ED2A0074206F66207573657220494473202864C5
:10ED3A006973706C6179656420696E2068657829E9
:10ED4A002061732073746F72656420696E20666C2B
:10ED5A00617368206D656D6F72790A0D20202041FC
:10ED6A004443204572726F723F3A2052657475723D
:10ED7A006E7320746865206361757365206F662001
:10ED8A00616E20414443206572726F722069662069
:10ED9A00616E206572726F72206F6363757272653D
:10EDAA00640A0D202020436C65617220414443208F
:10EDBA004572726F723A20436C656172732074688F
:10EDCA006520414443206572726F7220616E64202F
:10EDDA00726573756D65732041444320636F6E7667
:10EDEA00657273696F6E730A0D20202056434320A3
:10EDFA004F766572766F6C746167653F3A2053741B
:10EE0A0061746573206966206120564343206F76DA
:10EE1A006572766F6C7461676520636F6E6469747E
:10EE2A00696F6E20686173206F63637572726564BF
:10EE3A00206F72206E6F740A0D20202048656C7056
:10EE4A003A2054686973206D6573736167652C2075
:10EE5A006C6973747320737570706F727465642053
:10EE6A00636F6D6D616E64730A0D446576696365DF
:10EE7A00204D6561737572656D656E7420436F6DA3
:10EE8A006D616E64733A0A0D2020204D65617375B9
:10EE9A00726520504F533350333F3A205265747590
:10EEAA00726E73202B332E33562041444320436F16
:10EEBA006E76657273696F6E20696E20766F6C74F8
:10EECA00730A0D2020204D65617375726520504FBD
:10EEDA005331323F3A2052657475726E73202B316A
:10EEEA0032562041444320436F6E76657273696FD0
:10EEFA006E20696E20766F6C74730A0D2020204D87
:10EF0A00656173757265204469652054656D703F4B
:10EF1A003A2052657475726E7320746865206D6943
:10EF2A0063726F636F6E74726F6C6C657220646962
:10EF3A00652074656D706572617475726520696E9D
:10EF4A00206465677265657320430A0D2020204D91
:10EF5A00656173757265204656523F3A2052657450
:10EF6A0075726E732074686520696E7465726E615D
:10EF7A006C20666978656420766F6C7461676520B9
:10EF8A007265666572656E6365206275666665722E
:10EF9A002031206F757470757420696E20766F6CDD
:10EFAA0074730A0D2020204D6561737572652041C6
:10EFBA005653533F3A2052657475726E73207468C3
:10EFCA0065206D656173757265642076616C75651F
:10EFDA00206F6620416E616C6F672056535320691B
:10EFEA006E20766F6C74730A0D5072696D61727956
:10EFFA00204D6561737572656D656E7420436F6D22
:10F00A006D616E64733A0A0D2020204D6561737537
:10F01A007265204465746563746564204375727211
:10F02A00656E743F3A2052657475726E73206D6511
:10F03A00617375726564206F757470757420637579
:10F04A007272656E7420696E20616D7073206173CF
:10F05A00207365656E206279204144430A0D2020A1
:10F06A00204D65617375726520524D532043757248
:10F07A0072656E743F3A2052657475726E732074AD
:10F08A0068652063616C63756C6174656420524DB8
:10F09A0053206F75747075742063757272656E741F
:10F0AA002066726F6D206D6561737572656D656E30
:10F0BA00747320616E642054524941432066697218
:10F0CA00696E6720616E676C650A0D2020204D65A8
:10F0DA00617375726520524D5320566F6C74616767
:10F0EA00653F3A2052657475726E732074686520A4
:10F0FA0063616C63756C6174656420524D53206F53
:10F10A00757470757420766F6C74616765206672A9
:10F11A006F6D20545249414320666972696E6720B7
:10F12A00616E676C650A0D2020204D6561737572EA
:10F13A006520506F7765723F3A2052657475726E1A
:10F14A0073207468652063616C63756C61746564AF
:10F15A00206F757470757420706F77657220696E90
:10F16A002057617474730A0D2020204C6F6164204B
:10F17A004F6E2054696D653F3A2052657475726E00
:10F18A0073206C6F6164206F6E2074696D652073E3
:10F19A00696E6365206C6173742064657669636562
:10F1AA0020726573657420696E207365636F6E647F
:10F1BA00730A0D4F757470757420436F6E74726F95
:10F1CA006C20436F6D6D616E64733A0A0D202020C6
:10F1DA00456E61626C652044696D6D696E673A209F
:10F1EA00456E61626C65205452494143206F7574C3
:10F1FA007075742064696D6D696E670A0D20202030
:10F20A0044697361626C652044696D6D696E673A21
:10F21A002044697361626C65205452494143206FEE
:10F22A0075747075742064696D6D696E670A0D2056
:10F23A002020456E61626C65204C6F61643A2045FE
:10F24A006E61626C657320746865206F7574707581
:10F25A007420545249414320776974682064696D67
:10F26A006D696E672064697361626C65640A0D205A
:10F27A00202044697361626C65204C6F61643A2096
:10F28A0044697361626C657320746865206F757474
:10F29A0070757420545249414320636F6D706C65D8
:10F2AA0074656C790A0D2020204C6F616420456ECC
:10F2BA0061626C65643F3A2052657475726E7320A0
:10F2CA00696620746865206F7574707574206C6F38
:10F2DA00616420697320656E61626C6564206F7277
:10F2EA002064697361626C65640A0D202020446998
:10F2FA006D6D696E6720456E61626C65643F3A2088
:10F30A0052657475726E732069662064696D6D69E1
:10F31A006E67206F6620746865206F7574707574E7
:10F32A00206C6F616420697320656E61626C65642C
:10F33A00206F72206E6F740A0D202020536574208E
:10F34A0044696D6D696E672050657263656E74619C
:10F35A0067653A203C783E3A205365747320746896
:10F36A0065206F75747075742064696D6D696E6758
:10F37A002070657263656E746167652061732078B9
:10F38A002070657263656E740A0D00202020204289
:10F39A006F6F7420636F6D706C6574650A0D202041
:10F3AA00202050494331384636374B3430206D548B
:10F3BA006F756368205465737420426F6172640AC2
:10F3CA000D202020204576616C7561746573207468
:10F3DA006865206D546F7563682063617061636945
:10F3EA007469766520746F756368206C69627261EE
:10F3FA0072792064697374726962757465642062D3
:10F40A0079204D6963726F636869700A0D20202044
:10F41A002053657473207468652073746174652061
:10F42A006F662066697665204C4544732062617375
:10F43A006564206F6E206D546F7563682063617018
:10F44A00616369746976652070757368627574742E
:10F45A006F6E730A0D20202020426175642072614C
:10F46A0074653A20313135323030206270730A0DBA
:10F47A00202020204E6F207061726974792C203808
:10F48A0020626974732C206E6F20666C6F7720631C
:10F49A006F6E74726F6C2C20312073746F702062DF
:10F4AA0069740A0D20202020436F6D6D616E6473AC
:10F4BA002061726520636173652073656E73697478
:10F4CA006976650A0D20202020456E7465722061D8
:10F4DA0020636F6D6D616E642C206F7220656E748F
:10F4EA0065722048656C7020666F72206C6973744F
:10F4FA00206F6620636F6D6D616E64730A0D00493B
:10F50A006620796F752764206C696B6520746F209B
:10F51A00636F6D706C6574656C7920656E61626C81
:10F52A0065206F722064697361626C652074686516
:10F53A00206C6F61642C2064697361626C6520645D
:10F54A00696D6D696E6720616E64207573652072DE
:10F55A0065737065637469766520636F6D6D616E3E
:10F56A0064730A0D004552524F523A20506C65613D
:10F57A007365207365742064696D6D696E672070A8
:10F58A00657263656E7461676520746F20616E20B1
:10F59A00696E746567657220677265617465722049
:10F5AA007468616E203020616E64206C657373200C
:10F5BA007468616E203130300A0D004465766963E3
:10F5CA00652049442073746F72656420696E204611
:10F5DA006C6173682069733A20307825582E20545C
:10F5EA0068697320636F72726573706F6E647320DB
:10F5FA00746F206120646576696365207061727436
:10F60A00206E756D626572206F662025730A0D0083
:10F61A005468697320636F72726573706F6E647376
:10F62A0020746F2061203136206269742074696DFC
:10F63A006572207072652D6C6F61642076616C75DD
:10F64A0065206F66203078255820282575204C5370
:10F65A00427329200A0D00564343204F766572767D
:10F66A006F6C7461676520636F6E646974696F6E2D
:10F67A0020686173206F636375727265642028560F
:10F68A004343206861732065786365656465642017
:10F69A00332E363056290A0D0054686520666F6C81
:10F6AA006C6F77696E6720557365722049447320C1
:10F6BA0068617665206265656E2072657472696537
:10F6CA007665642066726F6D20666C617368206D62
:10F6DA00656D6F72793A0A0D0043616C63756C61EE
:10F6EA0074656420545249414320666972696E67A1
:10F6FA0020616E676C6520697320252E336620723F
:10F70A00616469616E732028252E336620646567FB
:10F71A0072656573290A0D0053797374656D2070DB
:10F72A006172616D657465727320616E64206166D1
:10F73A006669726D617469766520726573706F6E41
:10F74A007365732061707065617220696E206772DB
:10F75A0065656E0A0D00446576696365206F6E20E3
:10F76A0074696D652073696E6365206C61737420BA
:10F77A00726573657420636F6E646974696F6E2055
:10F78A006973202564207365636F6E64730A0D00C4
:10F79A00466978656420566F6C74616765205265A6
:10F7AA00666572656E6365204275666665722031AC
:10F7BA00206D6561737572656420617320252E332F
:10F7CA006620566F6C74730A0D004465766963652A
:10F7DA002073696C69636F6E207265766973696FED
:10F7EA006E2049442061732073746F7265642069C6
:10F7FA006E20466C6173682069733A20256325641C
:10F80A000A0D004F757470757420706F77657220D9
:10F81A0063616C63756C6174656420617320252E65
:10F82A0033662057617474732066726F6D20524D6F
:10F83A00532076616C7565730A0D002020202055CF
:10F84A0073657220494420576F726420256420280A
:10F85A00466C6173682061646472657373203078E2
:10F86A0032303030302558293A20307825580A0D60
:10F87A00004C6F61642069732063757272656E74DF
:10F88A006C7920656E61626C65642C2062757420E7
:10F89A0064696D6D696E672069732064697361625A
:10F8AA006C65640A0D004C6F6164206F6E20746988
:10F8BA006D652073696E6365206C6173742064657D
:10F8CA00766963652072657365742069732025649F
:10F8DA00207365636F6E64730A0D00546865206354
:10F8EA0061757365206F6620746865206D6F737427
:10F8FA0020726563656E742064657669636520723B
:10F90A0065736574207761733A2025730A0D005474
:10F91A00686520666F6C6C6F77696E6720636861D3
:10F92A006E6E656C2063617573656420616E20413B
:10F93A004443206572726F723A2025730A0D004D96
:10F94A00617271756574746520556E697665727336
:10F95A0069747920454C454E203330333520466949
:10F96A006E616C2050726F6A6563740A0D0045728D
:10F97A00726F727320616E64206E65676174697656
:10F98A006520726573706F6E736573206170706540
:10F99A00617220696E207265640A0D00456E746595
:10F9AA0072202748656C702720666F72206C697315
:10F9BA0074206F6620617661696C61626C65206390
:10F9CA006F6D6D616E64730A0D00564343204F7666
:10F9DA006572766F6C7461676520636F6E646974B3
:10F9EA00696F6E20686173206E6F74206F63637530
:10F9FA00727265640A0D004C6F616420686173203D
:10FA0A006265656E20656E61626C65642C2064694E
:10FA1A006D6D696E672064697361626C65640A0D55
:10FA2A00004C6F616420616E642064696D6D696E5B
:10FA3A0067206172652063757272656E746C7920D5
:10FA4A0064697361626C65640A0D0057696E646F5C
:10FA5A0077656420576174636820446F672054692E
:10FA6A006D65722056696F6C6174696F6E2052659C
:10FA7A00736574005452494143206F7574707574EC
:10FA8A002064696D6D696E672068617320626565BF
:10FA9A006E2064697361626C65640A0D0054524990
:10FAAA004143206F75747075742064696D6D696E59
:10FABA006720686173206265656E20656E61626C9D
:10FACA0065640A0D004D6561737572656D656E74C6
:10FADA0020726573706F6E736573206170706561F3
:10FAEA007220696E206379616E0A0D004156535384
:10FAFA00206D6561737572656420617320252E33EC
:10FB0A006620566F6C7473206279204144430A0D53
:10FB1A00002B332E3356207261696C206D65617338
:10FB2A0075726564206173202B252E336620566F0B
:10FB3A006C74730A0D0044696D6D696E67206861A3
:10FB4A0073206265656E2073657420746F20256466
:10FB5A002070657263656E740A0D004469652054ED
:10FB6A00656D7065726174757265206D6561737516
:10FB7A0072656420617320252E3366430A0D002BBB
:10FB8A00313256207261696C206D656173757265D8
:10FB9A0064206173202B252E336620566F6C747394
:10FBAA000A0D00524D53204F7574707574204375B9
:10FBBA007272656E7420697320252E336620417235
:10FBCA006D730A0D00524D53204F75747075742071
:10FBDA00566F6C7461676520697320252E33662021
:10FBEA0056726D730A0D0048656C70206D657373EB
:10FBFA00616765732061707065617220696E207932
:10FC0A00656C6C6F770A0D004D656173757265647A
:10FC1A002043757272656E7420697320252E3366CF
:10FC2A0020416D70730A0D0044696D6D696E67201D
:10FC3A0069732063757272656E746C7920656E6182
:10FC4A00626C65640A0D005573657220696E707581
:10FC5A0074206170706561727320696E20776869BB
:10FC6A0074650A0D004C6F616420697320637572B4
:10FC7A0072656E746C792064697361626C65640A7A
:10FC8A000D004C6F61642069732063757272656E32
:10FC9A00746C7920656E61626C65640A0D00524568
:10FCAA0053455420496E737472756374696F6E207C
:10FCBA004578656375746564004D65617375726531
:10FCCA002044657465637465642043757272656E59
:10FCDA00743F004C6F616420686173206265656ED1
:10FCEA002064697361626C65640A0D00536574204F
:10FCFA0044696D6D696E672050657263656E7461E3
:10FD0A0067653A20004E6F20414443204572726F66
:10FD1A00722064657465637465640A0D00537461C6
:10FD2A00636B20556E646572666C6F7720526573DB
:10FD3A00657400496E7465726E616C204656522075
:10FD4A00427566666572203100537461636B204F99
:10FD5A00766572666C6F7720526573657400436CC2
:10FD6A00656172696E6720414443204572726F7201
:10FD7A000A0D004D65617375726520524D53205608
:10FD8A006F6C746167653F004D65617375726520BC
:10FD9A00524D532043757272656E743F004D617304
:10FDAA0074657220436C65617220526573657400D4
:10FDBA004D656173757265204469652054656D707F
:10FDCA003F003031323334353637383941424344D3
:10FDDA00454600414320506F776572204D65746532
:10FDEA00720A0D0044696D6D696E6720456E616225
:10FDFA006C65643F00564343204F766572766F6C9C
:10FE0A00746167653F00556E646566696E65642056
:10FE1A0052657365740042726F776E204F75742055
:10FE2A005265736574004D65617375726520504F34
:10FE3A00533350333F00446576696365204F6E2023
:10FE4A0054696D653F004361757365206F66205282
:10FE5A00657365743F0044697361626C6520446927
:10FE6A006D6D696E6700436C656172204144432081
:10FE7A004572726F7200506F776572204F6E205212
:10FE8A0065736574004D65617375726520504F53D3
:10FE9A0031323F004D65617375726520506F776529
:10FEAA00723F00456E61626C652044696D6D696ED2
:10FEBA006700496E7465726E616C2044414331007B
:10FECA004D65617375726520415653533F004C6FFF
:10FEDA00616420456E61626C65643F004C6F6164C9
:10FEEA00204F6E2054696D653F00496E7465726ECD
:10FEFA00616C204156535300496E7465726E616C91
:10FF0A002054656D700050494331384C4636374BA2
:10FF1A003430005265766973696F6E2049443F0038
:10FF2A004D656173757265204656523F0044697388
:10FF3A0061626C65204C6F616400504943313846F8
:10FF4A0036374B343000456E61626C65204C6F6108
:10FF5A0064004465766963652049443F004144432F
:10FF6A00204572726F723F0055736572204944735F
:10FF7A003F00556E646566696E656400286E756C2F
:10FF8A006C2900504F5333503300504F53313200D5
:10FF9A002A49444E3F00436C6561720049534E53EF
:10FFAA000048656C70001B5B324A0049444E001BD6
:10FFBA005B48001B5B73001B5B75001B5B4B0033CC
:10FFCA0030003331003431003332003432003333FD
:10FFDA000034330033340034340033350034350010
:10FFEA003336003436003337003437001B5B0038B1
:06FFFA00003B006D000059
:020000040001F9
:10000000BCC117F1BDC118F11A0E0101196FFE0E26
:100010001A6F54ECBDF0010117511811D8A40FD07C
:10002000B00E7C6FFF0E7D6FD0EC86F0B90E010133
:100030007C6FFF0E7D6FD0EC86F0FF001200BCC11C
:1000400017F1BDC118F1A00E0101196FFF0E1A6F53
:1000500054ECBDF0010117511811D8A40ED0B00E08
:100060007C6FFF0E7D6FD0EC86F0B90E01017C6FC6
:10007000FF0E7D6FD0EC86F01200BCC117F1BDC140
:1000800018F1500E0101196FFE0E1A6F54ECBDF0FD
:10009000010117511811D8A419D0000EAA6F000E33
:1000A000AB6F020E74EC9BF0E50E01017C6FF80E55
:1000B0007D6F0201E251E6ECBFF017C17EF118C17D
:1000C0007FF1D0EC86F065ECC1F01200BCC117F1F5
:1000D000BDC118F19A0E0101196FFF0E1A6F54EC91
:1000E000BDF0010117511811D8B40FD0BCC117F1E0
:1000F000BDC118F1B50E196FFF0E1A6F54ECBDF0AB
:10010000010117511811D8A418D0000EAA6F000EC3
:10011000AB6F020E74EC9BF0DD0E01017C6FFD0EE7
:100120007D6FD0EC86F0490E01017C6FF90E7D6F7A
:10013000D0EC86F065ECC1F01200BCC117F1BDC176
:1001400018F15C0E0101196FFF0E1A6F54ECBDF02F
:10015000010117511811D8A423D0000EAA6F000E68
:10016000AB6F020E74EC9BF0C50E01017C6FF50EB7
:100170007D6FF1ECC0F022C17EF123C17FF1F1EC83
:10018000C0F022C124F123C125F19FECBCF024C1B1
:1001900080F125C181F1D0EC86F065ECC1F0120050
:1001A000BCC117F1BDC118F11D0E0101196FFF0E81
:1001B0001A6F54ECBDF0010117511811D8A422D0C8
:1001C000000EAA6F000EAB6F020E74EC9BF0D40E03
:1001D00001017C6FF70E7D6F0BECBFF00101BE6F6C
:1001E000410EBE257E6F7F6B000E7F2395ECC0F025
:1001F0000101BF6FBF51806F816BD0EC86F065EC61
:10020000C1F01200BCC117F1BDC118F1720E01019D
:10021000196FFF0E1A6F54ECBDF001011751181140
:10022000D8A43ED0000EAA6F000EAB6F020E74EC85
:100230009BF0A30E01017C6FF60E7D6FD0EC86F073
:10024000000E0301A26F000EA16FA2BF06D0A25143
:1002500024E1080EA15DD8B020D0450E01017C6FCD
:10026000F80E7D6FA1C37EF1A2C37FF1D890030188
:10027000A1350101806F0301A2350101816F0301E6
:10028000A151A8ECBEF022C182F123C183F1D0ECD0
:1002900086F00301A14BA22BD8D765ECC1F0120068
:1002A000BCC117F1BDC118F1670E0101196FFF0E36
:1002B0001A6F54ECBDF0010117511811D8A4A4D045
:1002C0005EA090D0000EAA6F000EAB6F010E74EC12
:1002D0009BF05FCF7AF260D0800E0101176F030EA2
:1002E000186FA60E196FFF0E1A6F63ECBFF06CD07B
:1002F000800E0101176F030E186F940E196FFF0E19
:100300001A6F63ECBFF060D0800E0101176F030E0F
:10031000186F8D0E196FFF0E1A6F63ECBFF054D07B
:10032000800E0101176F030E186FF40E196FFE0E89
:100330001A6F63ECBFF048D0800E0101176F030EF7
:10034000186F020E196FFF0E1A6F63ECBFF03CD0EE
:10035000800E0101176F030E186FBC0E196FFE0E91
:100360001A6F63ECBFF030D0800E0101176F030EDF
:10037000186F3D0E196FFD0E1A6F63ECBFF024D09D
:10038000800E0101176F030E186F7C0E196FFF0EA0
:100390001A6F63ECBFF018D002017A51000AD8B48A
:1003A0009BD7040AD8B4A4D7260AD8B4ADD71E0A5E
:1003B000D8B4B6D7010AD8B4BFD7030AD8B4C8D7BF
:1003C000010AD8B4D1D7DCD7190E01017C6FF90E20
:1003D0007D6F800E7E6F030E7F6FD0EC86F065EC34
:1003E000C1F01200000E0101AA6F000EAB6F020EE9
:1003F00074EC9BF00F0E01017C6FFD0E7D6FD0EC55
:1004000086F065ECC1F01200BCC117F1BDC118F156
:10041000700E0101196FFE0E1A6F54ECBDF0010150
:1004200017511811D8A418D07E965E900E012E8D0B
:10043000E9ECC1F0000E0101AA6F000EAB6F020ED5
:1004400074EC9BF0680E01017C6FFD0E7D6FD0ECAB
:1004500086F065ECC1F01200BCC117F1BDC118F106
:10046000FF0E0101196FFD0E1A6F54ECBDF0010172
:1004700017511811D8A426D05EA412D0000EAA6F6E
:10048000000EAB6F010E74EC9BF0610E01017C6FEE
:10049000F60E7D6FD0EC86F065ECC1F05E94120034
:1004A000000E0101AA6F000EAB6F020E74EC9BF000
:1004B000D40E01017C6FF90E7D6FD0EC86F065ECF7
:1004C000C1F01200BCC117F1BDC118F1300E01011D
:1004D000196FFE0E1A6F54ECBDF00101175118117F
:1004E000D8A419D0000EAA6F000EAB6F060E74ECE4
:1004F0009BF01B0E01017C6FFB0E7D6FF6C07EF141
:10050000F7C07FF1F8C080F1F9C081F1D0EC86F03E
:1005100065ECC1F01200BCC117F1BDC118F18F0E1E
:100520000101196FFE0E1A6F54ECBDF00101175155
:100530001811D8A419D0000EAA6F000EAB6F060ECA
:1005400074EC9BF0890E01017C6FFB0E7D6F58C22D
:100550007EF159C27FF15AC280F15BC281F1D0ECC9
:1005600086F065ECC1F01200BCC117F1BDC118F1F5
:10057000BA0E0101196FFD0E1A6F54ECBDF00101A6
:1005800017511811D8A419D0000EAA6F000EAB6F26
:10059000060E74EC9BF0650E01017C6FFB0E7D6F07
:1005A00054C27EF155C27FF156C280F157C281F12B
:1005B000D0EC86F065ECC1F01200BCC117F1BDC1F2
:1005C00018F12A0E0101196FFF0E1A6F54ECBDF0DD
:1005D000010117511811D8A419D0000EAA6F000EEE
:1005E000AB6F060E74EC9BF09A0E01017C6FF70E58
:1005F0007D6FDEC17EF1DFC17FF1E0C180F1E1C13D
:1006000081F1D0EC86F065ECC1F01200BCC117F1AD
:10061000BDC118F1CA0E0101196FFE0E1A6F54EC1C
:10062000BDF0010117511811D8A419D0000EAA6FFE
:10063000000EAB6F060E74EC9BF0F60E01017C6FA2
:10064000FA0E7D6F60C27EF161C27FF162C280F1FD
:1006500063C281F1D0EC86F065ECC1F01200BCC140
:1006600017F1BDC118F1C30E0101196FFC0E1A6F0D
:1006700054ECBDF0010117511811D8A419D0000E87
:10068000AA6F000EAB6F060E74EC9BF0120E010108
:100690007C6FFC0E7D6FCFC17EF1D0C17FF1D1C1E7
:1006A00080F1D2C181F1D0EC86F065ECC1F012008E
:1006B000BCC117F1BDC118F1920E0101196FFD0EF9
:1006C0001A6F54ECBDF0010117511811D8A419D0BC
:1006D000000EAA6F000EAB6F060E74EC9BF0AD0E11
:1006E00001017C6FFB0E7D6FCBC17EF1CCC17FF130
:1006F000CDC180F1CEC181F1D0EC86F065ECC1F0C6
:100700001200BCC117F1BDC118F17D0E0101196FB6
:10071000FD0E1A6F54ECBDF0010117511811D8A449
:1007200019D0000EAA6F000EAB6F060E74EC9BF092
:10073000CF0E01017C6FFB0E7D6F4CC27EF14DC26E
:100740007FF14EC280F14FC281F1D0EC86F065ECB2
:10075000C1F01200BCC117F1BDC118F19E0E01011C
:10076000196FFE0E1A6F54ECBDF0010117511811EC
:10077000D8A419D0000EAA6F000EAB6F060E74EC51
:100780009BF00D0E01017C6FF80E7D6F48C27EF16B
:1007900049C27FF14AC280F14BC281F1D0EC86F0B0
:1007A00065ECC1F01200BCC117F1BDC118F1AD0E6E
:1007B0000101196FFE0E1A6F54ECBDF001011751C3
:1007C0001811D8A412D07F90000EAA6F000EAB6F44
:1007D000020E74EC9BF0A70E01017C6FFA0E7D6F88
:1007E000D0EC86F065ECC1F01200BCC117F1BDC1C0
:1007F00018F1600E0101196FFE0E1A6F54ECBDF076
:10080000010117511811D8A412D07F80000EAA6FD1
:10081000000EAB6F010E74EC9BF07E0E01017C6F3D
:10082000FA0E7D6FD0EC86F065ECC1F01200BCC111
:1008300017F1BDC118F1500E0101196FFF0E1A6FAB
:1008400054ECBDF0010117511811D8A414D07F80C9
:100850007F925E82000EAA6F000EAB6F020E74ECE8
:100860009BF0010E01017C6FFA0E7D6FD0EC86F0DB
:1008700065ECC1F01200BCC117F1BDC118F1D80E72
:100880000101196FFE0E1A6F54ECBDF001011751F2
:100890001811D8A425D05EA211D0000EAA6F000EA8
:1008A000AB6F020E74EC9BF08C0E01017C6FFC0EA2
:1008B0007D6FD0EC86F065ECC1F01200000E0101F6
:1008C000AA6F000EAB6F010E74EC9BF06F0E01016E
:1008D0007C6FFC0E7D6FD0EC86F065ECC1F01200F1
:1008E000BCC117F1BDC118F1EE0E0101196FFD0E6B
:1008F0001A6F54ECBDF0010117511811D8A439D06A
:100900005EB27FB011D0000EAA6F000EAB6F020E68
:1009100074EC9BF0320E01017C6FFC0E7D6FD0EC0D
:1009200086F065ECC1F012005EA211D0000EAA6F35
:10093000000EAB6F030E74EC9BF07B0E01017C6F1D
:10094000F80E7D6FD0EC86F065ECC1F01200000E61
:100950000101AA6F000EAB6F010E74EC9BF02B0E21
:1009600001017C6FFA0E7D6FD0EC86F065ECC1F072
:100970001200BCC117F1BDC118F1370E0101196F8A
:10098000FF0E1A6F54ECBDF0010117511811D8A4D5
:1009900014D07F927F905E92000EAA6F000EAB6F14
:1009A000010E74EC9BF0DD0E01017C6FFC0E7D6F7F
:1009B000D0EC86F065ECC1F01200BCC126F1BDC1DF
:1009C00027F1F60E0101286FFC0E296F5EECB9F0DD
:1009D000010126512711D8B431D1000E03019E6FB9
:1009E000000E9D6F9EBF06D09E511FE1030E9D5DC0
:1009F000D8B01BD0180E9D250101BE6F000E03015B
:100A00009E210101BF6FBE51BC25D96EBF51BD21D2
:100A1000DA6E9A0E03019D25E16E030E9E21E26EB1
:100A2000DFCFE7FF9D4B9E2BDDD79A0E01011D6F97
:100A3000030E1E6F0DECB7F01DC19FF31EC1A0F396
:100A40000301A0BF06D0A0510BE1640E9F5DD8B09A
:100A500007D0A0BF05D0A0512BE19F05D8B028D06A
:100A6000000E0101AA6F000EAB6F010E74EC9BF03B
:100A70006F0E01017C6FF50E7D6FD0EC86F0000EDD
:100A80000101AA6F000EAB6F030E74EC9BF0090E10
:100A900001017C6FF50E7D6FD0EC86F0A60E010192
:100AA0007C6FF90E7D6FD0EC86F065ECC1F0120022
:100AB000000E0101416F000E426FC80E436F420EDF
:100AC000446F000E2D6F000E2E6FC80E2F6F420E5A
:100AD000306F9FC317F1A0C318F1000E18BFFF0EAF
:100AE000196F1A6F010EC9ECAFF017C125F118C1CB
:100AF00026F119C127F11AC128F1FEECBFF025C17A
:100B000029F126C12AF127C12BF128C12CF179EC5A
:100B1000A0F029C13DF12AC13EF12BC13FF12CC10A
:100B200040F17DECA9F03DC156F13EC157F13FC106
:100B300058F140C159F1DB0E01015A6F0F0E5B6F86
:100B4000490E5C6F400E5D6F28EC9DF056C1F2F0CF
:100B500057C1F3F058C1F4F059C1F5F0F2C056F1A5
:100B6000F3C057F1F4C058F1F5C059F1E10E01019D
:100B70005A6F2E0E5B6F650E5C6F420E5D6F28EC38
:100B80009DF056C196F357C197F358C198F359C1D8
:100B900099F39FC3BEF1A0C3BFF10101BE1FBF1FE8
:100BA000BE4BBF2B640EBE25176F000EBF21186F02
:100BB000020E1A6F8F0E196F59ECC0F017C1F0F0CA
:100BC00018C1F1F0000E0101AA6F000EAB6F020E0A
:100BD00074EC9BF0400E01017C6FFB0E7D6F9FC398
:100BE0007EF1A0C37FF1D0EC86F0E30E01017C6FB3
:100BF000F60E7D6FF2C07EF1F3C07FF1F4C080F19C
:100C0000F5C081F196C382F197C383F198C384F153
:100C100099C385F1D0EC86F01A0E01017C6FF60EB7
:100C20007D6FF0C07EF1F1C07FF1F0C080F1F1C0C6
:100C300081F1D0EC86F065ECC1F01200BCC117F177
:100C4000BDC118F1400E0101196FFE0E1A6F54EC70
:100C5000BDF0010117511811D8A419D0000EAA6FC8
:100C6000000EAB6F020E74EC9BF0600E01017C6F06
:100C7000F70E7D6F44C27EF145C27FF146C280F11E
:100C800047C281F1D0EC86F065ECC1F01200BCC126
:100C900017F1BDC118F1E60E0101196FFE0E1A6FB2
:100CA00054ECBDF0010117511811D8A419D0000E51
:100CB000AA6F000EAB6F020E74EC9BF0B00E010138
:100CC0007C6FF80E7D6F40C27EF141C27FF142C25F
:100CD00080F143C281F1D0EC86F065ECC1F01200E6
:100CE000BCC117F1BDC118F1AB0E0101196FFF0EA8
:100CF0001A6F54ECBDF0010117511811D8A412005D
:100D0000000EAA6F000EAB6F030E74EC9BF01B0E6F
:100D100001017C6FEB0E7D6FD0EC86F07FECC1F0B3
:100D2000F10E01017C6FFB0E7D6FD0EC86F0000EA2
:100D30000101AA6F000EAB6F020E74EC9BF0220E45
:100D400001017C6FF70E7D6FD0EC86F0000E010183
:100D5000AA6F000EAB6F060E74EC9BF0CF0E010174
:100D60007C6FFA0E7D6FD0EC86F0000E0101AA6F49
:100D7000000EAB6F010E74EC9BF0780E01017C6FDE
:100D8000F90E7D6FD0EC86F065ECC1F0510E0101DB
:100D90007C6FFC0E7D6FD0EC86F07FECC1F0120012
:100DA0007E0E0101956F010E966F44EF8CF0250EBB
:100DB000A919D8B405D0A95197ECC1F044EF8CF033
:100DC000000E0101986F000E976F7CC1F6FF7DC188
:100DD000F7FF000EF86E0D0EF76403D00800F55013
:100DE00005D0F6CFE9FFF7CFEAFFEF502E0AD8A4DF
:100DF00049D00101988D7C4B7D2B000EA86F000E11
:100E0000A76F2AD0A7C117F1A8C118F1000E0101E0
:100E10001A6F0A0E196F59ECC0F07CC1F6FF7DC144
:100E2000F7FF000EF86E0D0EF76403D00800F550C2
:100E300005D0F6CFE9FFF7CFEAFFEF500101866F4B
:100E400086511727000E1823D00E1725A76FFF0E07
:100E50001821A86F7C4B7D2B7CC1F6FF7DC1F7FF6D
:100E6000000EF86E0D0EF76403D00800F55005D0A3
:100E7000F6CFE9FFF7CFEAFFEF50E0ECC0F0D8A0E3
:100E800088D0C0D7000E0101A86F000EA76F988907
:100E900080D09885B5D0978FB3D095C1D9FF96C132
:100EA000DAFFDECF93F1DDCF94F1020E9527000E2D
:100EB000962393519411D8A404D0860E936FFF0EFD
:100EC000946F000E926F000E916F03D00101914B51
:100ED000922B91519325866F92519421876F86C1F1
:100EE000F6FF87C1F7FF000EF86E0D0EF76403D012
:100EF0000800F55005D0F6CFE9FFF7CFEAFFEF5035
:100F00000009D8A4E3D70101A751A811D8B421D072
:100F10009151A75D9251A859D8B01BD0A7C191F1AA
:100F2000A8C192F116D093C1F6FF94C1F7FF000E4D
:100F3000F86E0D0EF76403D00800F55005D0F6CF1B
:100F4000E9FFF7CFEAFFEF5097ECC1F00101934BB7
:100F5000942B9107D8A092079129E5E19229D8B462
:100F600044EF8CF0E0D795C1D9FF96C1DAFFDF508E
:100F7000A96F020E9527000E9623A90E936F010EFE
:100F8000946F000E926F010E916FBDD7C00E971334
:100F900037D001017C51866F7D51876F7C4B7D2B53
:100FA00086C1F6FF87C1F7FF000EF86E0D0EF764DD
:100FB00003D00800F55005D0F6CFE9FFF7CFEAFFE0
:100FC000EF500101A96FA951000AD8B41200580AC4
:100FD000D8B461D73B0AD8B4C6D7070AD8B410D062
:100FE000020AD8B456D70F0AD8B40AD01A0AD8B40D
:100FF00054D7060AD8B4CAD70D0AD8B44CD7BDD72F
:10100000070E9815D8B4EAD298A904D0000EA86F9C
:10101000060EA76F95C1D9FF96C1DAFFDECFA3F107
:10102000DECFA4F1DECFA5F1DECFA6F1040E952729
:10103000000E9623A6AF15D0A3C125F1A4C126F1B9
:10104000A5C127F1A6C128F1FEECBFF025C1A3F18F
:1010500026C1A4F127C1A5F128C1A6F1030E010103
:101060009713000E9A6F000E996FA351A411A5114A
:10107000A611D8B484D0A535A635820F996F9A6B86
:10108000FF0E9A239907D8A09A0799C117F19AC120
:1010900018F1000E1A6F030E196F59ECC0F017C14A
:1010A00099F118C19AF199C11DF19AC11EF1000E72
:1010B0000101206F0A0E1F6FA4ECB9F01DC199F158
:1010C0001EC19AF101019AAF03D09907D8A09A07DF
:1010D00099510008E2EC96F06FC19BF170C19CF150
:1010E00071C19DF172C19EF19BC156F19CC157F136
:1010F0009DC158F19EC159F1A3C15AF1A4C15BF140
:10110000A5C15CF1A6C15DF128EC9DF056C19BF133
:1011100057C19CF158C19DF159C19EF19BC117F176
:101120009CC118F19DC119F19EC11AF1000E010177
:101130001B6F000E1C6F800E1D6F3F0E1E6F77EC35
:10114000B3F00101D8B004D09907D8A09A0717D0FE
:101150009BC117F19CC118F19DC119F19EC11AF1F3
:10116000000E1B6F000E1C6F200E1D6F410E1E6FB8
:1011700077ECB3F00101D8A002D0994B9A2BA8BF0D
:1011800006D0A85121E10D0EA75DD8B01DD0A3C196
:1011900029F1A4C12AF1A5C12BF1A6C12CF1A751B7
:1011A0001AECA8F06FC12DF170C12EF171C12FF1B1
:1011B00072C130F179ECA0F029C1A3F12AC1A4F1E8
:1011C0002BC1A5F12CC1A6F101019ABF06D09A51FD
:1011D00022E10A0E995DD8B01ED0A351A411A51129
:1011E000A611D8B462D0A3C16FF1A4C170F1A5C19A
:1011F00071F1A6C172F12FECB6F001016F517011BF
:1012000071117211D8B49ABF50D09A5104E1020EF4
:10121000995DD8A04AD09BC117F19CC118F19DC11E
:1012200019F19EC11AF15F0E1B6F700E1C6F890EB3
:101230001D6F400E1E6F77ECB3F00101D8B002D0E5
:10124000F70E01D0F80E9927FF0E9A239951E2EC80
:1012500096F06FC19BF170C19CF171C19DF172C19B
:101260009EF1A3C117F1A4C118F1A5C119F1A6C13E
:101270001AF19BC11BF19CC11CF19DC11DF19EC1C6
:101280001EF14EECB2F017C19FF118C1A0F119C1C7
:10129000A1F11AC1A2F1000E0101A36F000EA46F0B
:1012A000000EA56F000EA66F3CD0A3C16FF1A4C1C4
:1012B00070F1A5C171F1A6C172F12FECB6F06FC14A
:1012C0009FF170C1A0F171C1A1F172C1A2F1A3C1DE
:1012D0003DF1A4C13EF1A5C13FF1A6C140F19FC1BE
:1012E00017F1A0C118F1A1C119F1A2C11AF1000EA4
:1012F000C9ECAFF017C141F118C142F119C143F176
:101300001AC144F160ECBEF03DC1A3F13EC1A4F1AD
:101310003FC1A5F140C1A6F1000E01019A6F000E78
:10132000996F010EA96F0A0EA919D8B41BD0A95143
:10133000040D830EF324F66EEA0EF420F76EF86ABD
:10134000000EF8220900F5509F5D0900F550A059E4
:101350000900F550A1590900F550A259D8A002D0B2
:10136000A92BE1D7030E9715866F000E9815876F8E
:1013700086518711D8B44ED02D0E97ECC1F04AD0CB
:101380009FC117F1A0C118F1A1C119F1A2C11AF1B1
:101390000101A951040D830EF324F66EEA0EF42028
:1013A000F76EF86A000EF8220900F5CF1BF109006C
:1013B000F5CF1CF10900F5CF1DF10A00F5CF1EF1A4
:1013C000E7ECB9F017C19BF118C19CF119C19DF16F
:1013D0001AC19EF19BC124F19CC125F19DC126F14A
:1013E0009EC127F10A0E0101286F000E296F000E21
:1013F0002A6F000E2B6F38ECBCF024C19BF125C185
:101400009CF126C19DF127C19EF101019B51300F36
:1014100097ECC1F00101A907A929D8B408D0B0D729
:10142000300E97ECC1F001019907D8A09A079ABF36
:1014300005D09A51F5E19905D8B0F2D7A8BF09D0E7
:10144000A85104E1090EA75DD8A003D0080EA96F2A
:1014500002D0A7C1A9F1A951A75F000EA9BFFF0E35
:10146000A85BA951D8B403D02E0E97ECC1F00101AE
:10147000A951E2EC96F06FC18CF170C18DF171C190
:101480008EF172C18FF1A3C15AF1A4C15BF1A5C164
:101490005CF1A6C15DF18CC156F18DC157F18EC1D1
:1014A00058F18FC159F128EC9DF056C16FF157C129
:1014B00070F158C171F159C172F12FECB6F06FC1E2
:1014C0009FF170C1A0F171C1A1F172C1A2F174D0FC
:1014D0009FC117F1A0C118F1A1C119F1A2C11AF160
:1014E0000101A951040D830EF324F66EEA0EF420D7
:1014F000F76EF86A000EF8220900F5CF1BF109001B
:10150000F5CF1CF10900F5CF1DF10A00F5CF1EF152
:10151000E7ECB9F017C19BF118C19CF119C19DF11D
:101520001AC19EF19BC124F19CC125F19DC126F1F8
:101530009EC127F10A0E0101286F000E296F000ECF
:101540002A6F000E2B6F38ECBCF024C19BF125C133
:101550009CF126C19DF127C19EF101019B51300FE5
:1015600097ECC1F09FC124F1A0C125F1A1C126F1E2
:10157000A2C127F10101A951040D830EF324F66ED7
:10158000EA0EF420F76EF86A000EF8220900F5CF93
:1015900028F10900F5CF29F10900F5CF2AF10A0059
:1015A000F5CF2BF138ECBCF024C19FF125C1A0F19F
:1015B00026C1A1F127C1A2F10101A907A929D8B427
:1015C00008D086D7300E97ECC1F00101A707D8A04C
:1015D000A807A751A811D8B457D1F4D7C00E9715B2
:1015E000866F000E9815876F86518711D8A41ED07C
:1015F00095C1D9FF96C1DAFFDECF9FF1DDCFA0F113
:10160000000EA0BFFF0EA16FA26F020E9527000E65
:101610009623A2AF1DD0030E9713A21FA11FA01FD8
:101620009F6D000EA023A123A22312D095C1D9FF44
:1016300096C1DAFFDECF86F1DDCF87F186C19FF15B
:1016400087C1A0F1A16BA26B020E9527000E962315
:10165000A751A811D8A44BD09F51A011A111A2113C
:10166000D8A445D0A74BA82B42D0010EA96F0A0ED3
:10167000A919D8B447D0A951040D830EF324F66EEE
:10168000EA0EF420F76EF86A000EF8220900F55011
:101690009F5D0900F550A0590900F550A1590900B6
:1016A000F550A259D8A02ED0A92BE1D7010EA96FD1
:1016B000080EA919D8B426D0A951040DAB0EF324F5
:1016C000F66EEA0EF420F76EF86A000EF8220900B2
:1016D000F5509F5D0900F550A0590900F550A1593A
:1016E0000900F550A259D8A00DD0A92BE1D79751E8
:1016F000C00B000AD8B4B9D7800AD8B4D7D7400AEB
:10170000D8B4B3D7800EA9BF7F0E866FA751A95D4D
:10171000A851800A8659D8B003D0A7C1A9F110D02A
:10172000A851800A866FA951A75D800EA9BF7F0EC0
:101730008659D8B005D0A951A76FA86BA7BFA80735
:10174000030E9715866F000E9815876F86518711C7
:10175000D8B491D02D0E97ECC1F08DD0A7C186F1F1
:10176000A8C187F10101D89086378737D89086378E
:101770008737830E8625F66EEA0E8721F76EF86AA4
:10178000000EF8220900F5CF1BF10900F5CF1CF17E
:101790000900F5CF1DF10A00F5CF1EF19FC117F129
:1017A000A0C118F1A1C119F1A2C11AF1E7ECB9F079
:1017B00017C124F118C125F119C126F11AC127F169
:1017C0000A0E0101286F000E296F000E2A6F000E0D
:1017D0002B6F38ECBCF001012451300FA96F48D0B9
:1017E0009FC117F1A0C118F1A1C119F1A2C11AF14D
:1017F000A7C186F1A8C187F1D89086378737D890DE
:1018000086378737AB0E8625F66EEA0E8721F76E90
:10181000F86A000EF8220900F5CF1BF10900F5CF98
:101820001CF10900F5CF1DF10A00F5CF1EF1E7EC20
:10183000B9F0010117510F0B906F9051010DCC0EB3
:10184000F324F66EFD0EF420F76EF86A000EF8220F
:101850000800F5CFA9F10CD001019751C00B000A87
:10186000D8B47CD7800AD8B4BBD7400AD8B476D7CE
:10187000A95197ECC1F00101A707D8A0A807A72993
:10188000EBE1A829D8A4E8D701017C51866F7D51EE
:10189000876F7C4B7D2B86C1F6FF87C1F7FF000E5B
:1018A000F86E0D0EF76403D00800F55005D0F6CFA2
:1018B000E9FFF7CFEAFFEF500101A96FA951D8B4B2
:1018C0001200D7EF86F08A0E0001996F000E9A6F12
:1018D000D3EF91F0250EAD19D8B405D0AD51D5ECAC
:1018E000C1F0D3EF91F0000E00019C6F000E9B6FD2
:1018F00088C0F6FF89C0F7FF000EF86E0D0EF76482
:1019000003D00800F55005D0F6CFE9FFF7CFEAFF86
:10191000EF502E0AD8A448D000019C8D884B892B0B
:10192000000EAC6F000EAB6F29D0ABC001F0ACC0A5
:1019300002F0000E046E0A0E036EBBECC0F088C00D
:10194000F6FF89C0F7FF000EF86E0D0EF76403D0A6
:101950000800F55005D0F6CFE9FFF7CFEAFFEF50CA
:1019600000018A6F8A510126000E0222D00E012446
:10197000AB6FFF0E0220AC6F884B892B88C0F6FF3F
:1019800089C0F7FF000EF86E0D0EF76403D0080053
:10199000F55005D0F6CFE9FFF7CFEAFFEF5001ECA5
:1019A000C1F0D8A088D0C1D7000E0001AC6F000EE6
:1019B000AB6F9C8980D09C85B5D09B8FB3D099C0EC
:1019C000D9FF9AC0DAFFDECF97F0DDCF98F0020E94
:1019D0009927000E9A2397519811D8A404D0860E07
:1019E000976FFF0E986F000E966F000E956F03D0E5
:1019F0000001954B962B955197258A6F965198210A
:101A00008B6F8AC0F6FF8BC0F7FF000EF86E0D0ECD
:101A1000F76403D00800F55005D0F6CFE9FFF7CF03
:101A2000EAFFEF500009D8A4E3D70001AB51AC1195
:101A3000D8B421D09551AB5D9651AC59D8B01BD0DC
:101A4000ABC095F0ACC096F016D097C0F6FF98C02A
:101A5000F7FF000EF86E0D0EF76403D00800F55086
:101A600005D0F6CFE9FFF7CFEAFFEF50D5ECC1F094
:101A70000001974B982B9507D8A096079529E5E18B
:101A80009629D8B4D3EF91F0E0D799C0D9FF9AC086
:101A9000DAFFDF50AD6F020E9927000E9A23AD0ECC
:101AA000976F000E986F000E966F010E956FBDD761
:101AB000C00E9B1337D0000188518A6F89518B6FFC
:101AC000884B892B8AC0F6FF8BC0F7FF000EF86E9B
:101AD0000D0EF76403D00800F55005D0F6CFE9FFEE
:101AE000F7CFEAFFEF500001AD6FAD51000AD8B457
:101AF0001200580AD8B461D73B0AD8B4C6D7070A2F
:101B0000D8B410D0020AD8B456D70F0AD8B40AD025
:101B10001A0AD8B454D7060AD8B4CAD70D0AD8B40A
:101B20004CD7BDD7070E9C15D8B4E8D29CA904D0D9
:101B3000000EAC6F060EAB6F99C0D9FF9AC0DAFFEA
:101B4000DECFA7F0DECFA8F0DECFA9F0DECFAAF07F
:101B5000040E9927000E9A23AAAF15D0A7C02CF027
:101B6000A8C02DF0A9C02EF0AAC02FF02DECC0F017
:101B70002CC0A7F02DC0A8F02EC0A9F02FC0AAF04D
:101B8000030E00019B13000E9E6F000E9D6FA75168
:101B9000A811A911AA11D8B482D0A935AA35820FEB
:101BA0009D6F9E6BFF0E9E239D07D8A09E079DC034
:101BB00001F09EC002F0000E046E030E036EBBEC3B
:101BC000C0F001C09DF002C09EF09DC007F09EC015
:101BD00008F0000E0A6E0A0E096E29ECBAF007C072
:101BE0009DF008C09EF000019EAF03D09D07D8A0D5
:101BF0009E079D51000834EC99F049C09FF04AC0FF
:101C0000A0F04BC0A1F04CC0A2F09FC030F0A0C02B
:101C100031F0A1C032F0A2C033F0A7C034F0A8C0A8
:101C200035F0A9C036F0AAC037F0D1EC9EF030C034
:101C30009FF031C0A0F032C0A1F033C0A2F09FC02D
:101C400034F0A0C035F0A1C036F0A2C037F0000ECD
:101C5000386E000E396E800E3A6E3F0E3B6E08EC09
:101C6000B4F0D8B005D000019D07D8A09E0717D0CA
:101C70009FC034F0A0C035F0A1C036F0A2C037F04C
:101C8000000E386E000E396E200E3A6E410E3B6E1D
:101C900008ECB4F0D8A003D000019D4B9E2B0001AE
:101CA000ACBF06D0AC5121E10D0EAB5DD8B01DD05C
:101CB000A7C056F0A8C057F0A9C058F0AAC059F064
:101CC000AB5132ECACF049C05AF04AC05BF04BC0AB
:101CD0005CF04CC05DF018ECA2F056C0A7F057C005
:101CE000A8F058C0A9F059C0AAF000019EBF06D0C4
:101CF0009E5122E10A0E9D5DD8B01ED0A751A811B9
:101D0000A911AA11D8B463D0A7C06CF0A8C06DF017
:101D1000A9C06EF0AAC06FF09EECB6F000016C5145
:101D20006D116E116F11D8B49EBF51D09E5104E158
:101D3000020E9D5DD8A04BD09FC034F0A0C035F0FE
:101D4000A1C036F0A2C037F05F0E386E700E396E4B
:101D5000890E3A6E400E3B6E08ECB4F0D8B003D05A
:101D60000001F70E02D00001F80E9D27FF0E9E2302
:101D70009D5134EC99F049C09FF04AC0A0F04BC08F
:101D8000A1F04CC0A2F0A7C001F0A8C002F0A9C009
:101D900003F0AAC004F09FC005F0A0C006F0A1C0E7
:101DA00007F0A2C008F0E3ECB2F001C0A3F002C05B
:101DB000A4F003C0A5F004C0A6F0000E0001A76FB8
:101DC000000EA86F000EA96F000EAA6F3CD0A7C02E
:101DD0006CF0A8C06DF0A9C06EF0AAC06FF09EECC8
:101DE000B6F06CC0A3F06DC0A4F06EC0A5F06FC0DB
:101DF000A6F0A7C080F0A8C081F0A9C082F0AAC058
:101E000083F0A3C005F0A4C006F0A5C007F0A6C0EB
:101E100008F0000E73ECB0F005C084F006C085F049
:101E200007C086F008C087F084ECBEF080C0A7F041
:101E300081C0A8F082C0A9F083C0AAF0000E000102
:101E40009E6F000E9D6F010EAD6F0A0EAD19D8B4D6
:101E50001BD0AD51040D830EF324F66EEA0EF42070
:101E6000F76EF86A000EF8220900F550A35D09002C
:101E7000F550A4590900F550A5590900F550A65987
:101E8000D8A002D0AD2BE1D7030E9B158A6F000EB0
:101E90009C158B6F8A518B11D8B44DD02D0ED5EC7B
:101EA000C1F049D0A3C001F0A4C002F0A5C003F066
:101EB000A6C004F00001AD51040D830EF324F66EAC
:101EC000EA0EF420F76EF86A000EF8220900F5CF4A
:101ED00005F00900F5CF06F00900F5CF07F00A007C
:101EE000F5CF08F06BECBAF001C09FF002C0A0F093
:101EF00003C0A1F004C0A2F09FC00EF0A0C00FF07C
:101F0000A1C010F0A2C011F00A0E126E000E136EE6
:101F1000000E146E000E156E6CECBCF00EC09FF03F
:101F20000FC0A0F010C0A1F011C0A2F000019F519D
:101F3000300FD5ECC1F00001AD07AD29D8B408D001
:101F4000B1D7300ED5ECC1F000019D07D8A09E0797
:101F50009EBF05D09E51F5E19D05D8B0F2D7ACBF2C
:101F600009D0AC5104E1090EAB5DD8A003D0080E36
:101F7000AD6F02D0ABC0ADF0AD51AB5F000EADBFE9
:101F8000FF0EAC5BAD51D8B403D02E0ED5ECC1F032
:101F90000001AD5134EC99F049C090F04AC091F085
:101FA0004BC092F04CC093F0A7C034F0A8C035F0FD
:101FB000A9C036F0AAC037F090C030F091C031F01F
:101FC00092C032F093C033F0D1EC9EF030C06CF090
:101FD00031C06DF032C06EF033C06FF09EECB6F0E1
:101FE0006CC0A3F06DC0A4F06EC0A5F06FC0A6F0E9
:101FF00073D0A3C001F0A4C002F0A5C003F0A6C036
:1020000004F00001AD51040D830EF324F66EEA0EC8
:10201000F420F76EF86A000EF8220900F5CF05F0FB
:102020000900F5CF06F00900F5CF07F00A00F5CF5B
:1020300008F06BECBAF001C09FF002C0A0F003C042
:10204000A1F004C0A2F09FC00EF0A0C00FF0A1C08C
:1020500010F0A2C011F00A0E126E000E136E000EE8
:10206000146E000E156E6CECBCF00EC09FF00FC02D
:10207000A0F010C0A1F011C0A2F000019F51300FDC
:10208000D5ECC1F0A3C00EF0A4C00FF0A5C010F0B5
:10209000A6C011F00001AD51040D830EF324F66EBD
:1020A000EA0EF420F76EF86A000EF8220900F5CF68
:1020B00012F00900F5CF13F00900F5CF14F00A0073
:1020C000F5CF15F06CECBCF00EC0A3F00FC0A4F07F
:1020D00010C0A5F011C0A6F00001AD07AD29D8B41D
:1020E00008D087D7300ED5ECC1F00001AB07D8A0DF
:1020F000AC07AB51AC11D8B456D1F4D7C00E9B1578
:102100008A6F000E9C158B6F8A518B11D8A41ED03C
:1021100099C0D9FF9AC0DAFFDECFA3F0DDCFA4F0DB
:10212000000EA4BFFF0EA56FA66F020E9927000E2A
:102130009A23A6AF1DD0030E9B13A61FA51FA41F95
:10214000A36D000EA423A523A62312D099C0D9FF06
:102150009AC0DAFFDECF8AF0DDCF8BF08AC0A3F021
:102160008BC0A4F0A56BA66B020E9927000E9A23D4
:10217000AB51AC11D8A44BD0A351A411A511A611F9
:10218000D8A445D0AB4BAC2B42D0010EAD6F0A0E9C
:10219000AD19D8B447D0AD51040D830EF324F66EBB
:1021A000EA0EF420F76EF86A000EF8220900F550E6
:1021B000A35D0900F550A4590900F550A55909007F
:1021C000F550A659D8A02ED0AD2BE1D7010EAD6F9A
:1021D000080EAD19D8B426D0AD51040DAB0EF324C2
:1021E000F66EEA0EF420F76EF86A000EF822090087
:1021F000F550A35D0900F550A4590900F550A55903
:102200000900F550A659D8A00DD0AD2BE1D79B51B0
:10221000C00B000AD8B4B9D7800AD8B4D7D7400ABF
:10222000D8B4B3D7800EADBF7F0E8A6FAB51AD5D12
:10223000AC51800A8A59D8B003D0ABC0ADF010D0F1
:10224000AC51800A8A6FAD51AB5D800EADBF7F0E81
:102250008A59D8B005D0AD51AB6FAC6BABBFAC07F2
:10226000030E9B158A6F000E9C158B6F8A518B1184
:10227000D8B490D02D0ED5ECC1F08CD0ABC08AF084
:10228000ACC08BF00001D8908A378B37D8908A3752
:102290008B37830E8A25F66EEA0E8B21F76EF86A6D
:1022A000000EF8220900F5CF05F00900F5CF06F081
:1022B0000900F5CF07F00A00F5CF08F0A3C001F040
:1022C000A4C002F0A5C003F0A6C004F06BECBAF005
:1022D00001C00EF002C00FF003C010F004C011F0F6
:1022E0000A0E126E000E136E000E146E000E156EA6
:1022F0006CECBCF00E50300F0001AD6F48D0A3C0A5
:1023000001F0A4C002F0A5C003F0A6C004F0ABC069
:102310008AF0ACC08BF0D8908A378B37D8908A3748
:102320008B37AB0E8A25F66EEA0E8B21F76EF86AB4
:10233000000EF8220900F5CF05F00900F5CF06F0F0
:102340000900F5CF07F00A00F5CF08F06BECBAF002
:1023500001500F0B0001946F9451010DCC0EF3242A
:10236000F66EFD0EF420F76EF86A000EF8220800F3
:10237000F5CFADF00CD000019B51C00B000AD8B4D2
:102380007DD7800AD8B4BBD7400AD8B477D7AD512F
:10239000D5ECC1F00001AB07D8A0AC07AB29EBE14D
:1023A000AC29D8A4E8D7000188518A6F89518B6F76
:1023B000884B892B8AC0F6FF8BC0F7FF000EF86EA2
:1023C0000D0EF76403D00800F55005D0F6CFE9FFF5
:1023D000F7CFEAFFEF500001AD6FAD51D8B4120056
:1023E0006AEF8CF0F2ECC1F05FCFD5F0CAEF96F057
:1023F0005BECC1F001C005F002C006F0076A086A94
:10240000000E73ECB0F005C030F006C031F007C02C
:1024100032F008C033F00D0E346E680E356E530E78
:10242000366E3B0E376ED1EC9EF030C060F231C09C
:1024300061F232C062F233C063F20A0E346ED70E1C
:10244000356E230E366E3C0E376E60C238F061C2B8
:1024500039F062C23AF063C23BF008ECB4F0D8A0A5
:1024600005D0CFECC1F00009D8B407D07E865E80DD
:102470000E012E9DEFECC1F012003F0E0101E26F44
:1024800012000D0E346E680E356E530E366E3B0E16
:10249000376E5BECC1F001C005F002C006F0076AC0
:1024A000086A000E73ECB0F005C030F006C031F0E1
:1024B00007C032F008C033F0D1EC9EF030C056F0C7
:1024C00031C057F032C058F033C059F060C25AF0F2
:1024D00061C25BF062C25CF063C25DF018ECA2F016
:1024E00056C0DEF157C0DFF158C0E0F159C0E1F14C
:1024F0006F0E136E120E146E030E156E400E166ED6
:10250000DEC117F0DFC118F0E0C119F0E1C11AF027
:10251000D8ECAAF013C05CF214C05DF215C05EF2F4
:1025200016C05FF2000E346E000E356E200E366E51
:10253000400E376EDEC138F0DFC139F0E0C13AF04D
:10254000E1C13BF008ECB4F0D8A019D0DEC134F002
:10255000DFC135F0E0C136F0E1C137F0000E386E72
:10256000000E396E000E3A6E400E3B6E08ECB4F071
:10257000D8A005D0CFECC1F00009D8B407D07E8632
:102580005E800E012E9DEFECC1F01200220E0101C3
:10259000E26F12005CC234F05DC235F05EC236F00C
:1025A0005FC237F051ECC1F001C005F002C006F087
:1025B000076A086A000E73ECB0F005C030F006C080
:1025C00031F007C032F008C033F0D1EC9EF030C0DB
:1025D000D6F031C0D7F032C0D8F033C0D9F0D6C071
:1025E00030F0D7C031F0D8C032F0D9C033F00D0E82
:1025F000346E680E356ED30E366E3B0E376ED1ECF0
:102600009EF030C0F6F031C0F7F032C0F8F033C0C1
:10261000F9F0000E346E000E356E600E366E400E10
:10262000376EF6C038F0F7C039F0F8C03AF0F9C0AC
:102630003BF008ECB4F0D8A005D0CFECC1F0000915
:10264000D8B407D07E865E800E012E9DEFECC1F0DF
:102650001200000E0101E26F1200000E176EC00E94
:10266000186E7F0E196E440E1A6EF6C013F0F7C086
:1026700014F0F8C015F0F9C016F0D8ECAAF013C0A9
:1026800034F014C035F015C036F016C037F051ECF8
:10269000C1F001C005F002C006F0076A086A000E2A
:1026A00073ECB0F005C030F006C031F007C032F076
:1026B00008C033F0D1EC9EF030C0D6F031C0D7F076
:1026C00032C0D8F033C0D9F0D6C030F0D7C031F026
:1026D000D8C032F0D9C033F0350E346E5E0E356E90
:1026E000F20E366E3F0E376ED1EC9EF030C0CFF159
:1026F00031C0D0F132C0D1F133C0D2F17FB028D196
:102700005EA2CDD0EE0E0001F05D7F0EF159D8B083
:1027100052D0CFC1D3F1D0C1D4F1D1C1D5F1D2C102
:10272000D6F1F2C0B5F0F3C0B6F0F4C0B7F0F5C022
:10273000B8F0D3C1B1F0D4C1B2F0D5C1B3F0D6C1B5
:10274000B4F089ECADF0B1C0DAF0B2C0DBF0B3C0E8
:10275000DCF0B4C0DDF0D6C25AF0D7C25BF0D8C20C
:102760005CF0D9C25DF0DAC056F0DBC057F0DCC0D7
:1027700058F0DDC059F018ECA2F056C06CF057C00C
:102780006DF058C06EF059C06FF09EECB6F06CC0A2
:1027900076F06DC077F044ECC0F0000176C005F033
:1027A00077C006F0000E06BEFF0E076E086E010E23
:1027B00073ECB0F063D0CFC199F0D0C19AF0D1C121
:1027C0009BF0D2C19CF0F2C09DF0F3C09EF0F4C02B
:1027D0009FF0F5C0A0F0ACECBAF099C0D3F19AC06C
:1027E000D4F19BC0D5F19CC0D6F1F2C0B5F0F3C0D6
:1027F000B6F0F4C0B7F0F5C0B8F0D3C1B1F0D4C1B1
:10280000B2F0D5C1B3F0D6C1B4F089ECADF0B1C02F
:10281000DAF0B2C0DBF0B3C0DCF0B4C0DDF0D6C299
:102820005AF0D7C25BF0D8C25CF0D9C25DF0DAC012
:1028300056F0DBC057F0DCC058F0DDC059F018ECA2
:10284000A2F056C06CF057C06DF058C06EF059C081
:102850006FF09EECB6F06CC076F06DC077F044EC93
:10286000C0F0000176C005F077C006F0000E06BE8D
:10287000FF0E076E086E010E73ECB0F005C0CBF1D1
:1028800006C0CCF107C0CDF108C0CEF1DAC250F2DB
:10289000DBC251F2DCC252F2DDC253F22CD0000E88
:1028A0000101D36F000ED46F000ED56F000ED66FEE
:1028B000000E0201506F000E516F000E526F000E9D
:1028C000536FD3C1B1F0D4C1B2F0D5C1B3F0D6C10A
:1028D000B4F0F2C0B5F0F3C0B6F0F4C0B7F0F5C094
:1028E000B8F089ECADF0B1C0CBF1B2C0CCF1B3C05F
:1028F000CDF1B4C0CEF150C2B1F051C2B2F052C26B
:10290000B3F053C2B4F0F2C0B5F0F3C0B6F0F4C007
:10291000B7F0F5C0B8F089ECADF0B1C04CF2B2C080
:102920004DF2B3C04EF2B4C04FF24CC230F04DC2C3
:1029300031F04EC232F04FC233F0CBC134F0CCC1D3
:1029400035F0CDC136F0CEC137F0D1EC9EF087D056
:10295000CFC1D3F1D0C1D4F1D1C1D5F1D2C1D6F11B
:10296000000E0001B56F000EB66F000EB76F000EBF
:10297000B86FD3C1B1F0D4C1B2F0D5C1B3F0D6C1F4
:10298000B4F089ECADF0B1C0DAF0B2C0DBF0B3C0A6
:10299000DCF0B4C0DDF0D6C25AF0D7C25BF0D8C2CA
:1029A0005CF0D9C25DF0DAC056F0DBC057F0DCC095
:1029B00058F0DDC059F018ECA2F056C06CF057C0CA
:1029C0006DF058C06EF059C06FF09EECB6F06CC060
:1029D00076F06DC077F044ECC0F0000176C005F0F1
:1029E00077C006F0000E06BEFF0E076E086E010EE1
:1029F00073ECB0F005C0CBF106C0CCF107C0CDF14F
:102A000008C0CEF1DAC2B1F0DBC2B2F0DCC2B3F082
:102A1000DDC2B4F0000E0001B56F000EB66F000EFF
:102A2000B76F000EB86F89ECADF0B1C04CF2B2C018
:102A30004DF2B3C04EF2B4C04FF24CC230F04DC2B2
:102A400031F04EC232F04FC233F0CBC134F0CCC1C2
:102A500035F0CDC136F0CEC137F0D1EC9EF030C0AC
:102A600048F231C049F232C04AF233C04BF2000E94
:102A7000346E000E356EA00E366E400E376ECBC132
:102A800038F0CCC139F0CDC13AF0CEC13BF008EC02
:102A9000B4F0D8A005D0CFECC1F00009D8B407D06D
:102AA0007E865E800E012E9DEFECC1F01200040EBA
:102AB0000101E26F1200000E176EC00E186E7F0E3D
:102AC000196E440E1A6EF6C013F0F7C014F0F8C079
:102AD00015F0F9C016F0D8ECAAF013C034F014C009
:102AE00035F015C036F016C037F051ECC1F001C01A
:102AF00005F002C006F0076A086A000E73ECB0F039
:102B000005C030F006C031F007C032F008C033F025
:102B1000D1EC9EF030C0D6F031C0D7F032C0D8F042
:102B200033C0D9F0D6C030F0D7C031F0D8C032F0C1
:102B3000D9C033F03E0E346EF80E356E800E366E10
:102B4000400E376ED1EC9EF030C058F231C059F2D1
:102B500032C05AF233C05BF29A0E346E990E356E63
:102B6000590E366E410E376E58C238F059C239F0E0
:102B70005AC23AF05BC23BF008ECB4F0D8A005D0E2
:102B8000CFECC1F00009D8B407D07E865E800E017C
:102B90002E9DEFECC1F012003D0E0101E26F12001C
:102BA000000E176E000E186E000E196E400E1A6E93
:102BB000F6C013F0F7C014F0F8C015F0F9C016F025
:102BC000D8ECAAF013C034F014C035F015C036F0BC
:102BD00016C037F0000E5A6E000E5B6E800E5C6EF3
:102BE0003F0E5D6E000E176EC00E186E7F0E196ED2
:102BF000440E1A6E51ECC1F001C005F002C006F09F
:102C0000076A086A000E73ECB0F005C013F006C046
:102C100014F007C015F008C016F0D8ECAAF013C0E5
:102C20002CF014C02DF015C02EF016C02FF02DEC96
:102C3000C0F02CC056F02DC057F02EC058F02FC059
:102C400059F018ECA2F056C030F057C031F058C01F
:102C500032F059C033F0D1EC9EF030C0C9F031C031
:102C6000CAF032C0CBF033C0CCF0DA0E176E030ED0
:102C7000186EAD0E196E3A0E1A6E390E5A6EB40EEB
:102C80005B6E280E5C6E3F0E5D6EC9C02CF0CAC034
:102C90002DF0CBC02EF0CCC02FF02DECC0F02CC00E
:102CA00056F02DC057F02EC058F02FC059F018EC38
:102CB000A2F056C013F057C014F058C015F059C018
:102CC00016F0D8ECAAF013C0CDF014C0CEF015C0A9
:102CD000CFF016C0D0F0DEC25AF0DFC25BF0E0C227
:102CE0005CF0E1C25DF0CDC056F0CEC057F0CFC071
:102CF00058F0D0C059F018ECA2F056C0D1F057C02F
:102D0000D2F058C0D3F059C0D4F0D1C056F0D2C0E0
:102D100057F0D3C058F0D4C059F0000E5A6E000ED0
:102D20005B6E200E5C6EC20E5D6E18ECA2F056C09B
:102D300054F257C055F258C056F259C057F2000E1F
:102D4000346E000E356E200E366E420E376E54C253
:102D500038F055C239F056C23AF057C23BF008EC91
:102D6000B4F0D8A005D0CFECC1F00009D8B407D09A
:102D70007E865E800E012E9DEFECC1F012003C0EAF
:102D80000101E26F12007E865E800E012E51EFEC93
:102D9000C1F012000001D551000AD8B45ED4040A73
:102DA000D8B489D6260AD8B4CAEF92F01E0AD8B48D
:102DB000F8EF91F0010AD8B4F3D6020AD8B441EF83
:102DC00092F0E1D70101776F010177AF27D1776DDD
:102DD0007751800A120FD8A0A5D0000E206F0A0EDE
:102DE0001F6F000E1A6F640E196F7751176F186BF3
:102DF00017BF180727ECBBF017C11DF118C11EF152
:102E0000A4ECB9F00101D8901D371E37D8901D37BA
:102E10001E37240E1D27000E1E234F0E1D25F66E95
:102E2000EA0E1E21F76EF86A000EF8220900F5CFAF
:102E30005AF10900F5CF5BF10900F5CF5CF10A000A
:102E4000F5CF5DF1000E206F640E1F6F77511D6F7F
:102E50001E6B1DBF1E07A4ECB9F00101D8901D37F1
:102E60001E37D8901D371E37480E1D27000E1E2313
:102E70004F0E1D25F66EEA0E1E21F76EF86A000E43
:102E8000F8220900F5CF56F10900F5CF57F10900F6
:102E9000F5CF58F10A00F5CF59F128EC9DF056C155
:102EA00073F157C174F158C175F159C176F173C10D
:102EB00056F174C157F175C158F176C159F1000E40
:102EC00001011A6F0A0E196F7751176F186B17BF30
:102ED000180727ECBBF00101D89017371837D890A6
:102EE000173718374F0E1725F66EEA0E1821F76EB2
:102EF000F86A000EF8220900F5CF5AF10900F5CF63
:102F00005BF10900F5CF5CF10A00F5CF5DF128EC2B
:102F10009DF056C16FF157C170F158C171F159C19F
:102F200072F1120001017751800A750FD8A05DD0AF
:102F3000000E206F0A0E1F6F77511D6F1E6B1DBF95
:102F40001E07A4ECB9F00101D8901D371E37D890A8
:102F50001D371E37240E1D27000E1E234F0E1D2564
:102F6000F66EEA0E1E21F76EF86A000EF8220900CE
:102F7000F5CF56F10900F5CF57F10900F5CF58F11B
:102F80000A00F5CF59F1000E1A6F0A0E196F77512A
:102F9000176F186B17BF180727ECBBF00101D8900B
:102FA00017371837D890173718374F0E1725F66E82
:102FB000EA0E1821F76EF86A000EF8220900F5CF24
:102FC0005AF10900F5CF5BF10900F5CF5CF10A0079
:102FD000F5CF5DF128EC9DF056C16FF157C170F14E
:102FE00058C171F159C172F1120001017751040DFC
:102FF0004F0EF324F66EEA0EF420F76EF86A000E18
:10300000F8220900F5CF6FF10900F5CF70F1090042
:10301000F5CF71F10A00F5CF72F112007751800AF5
:10302000120FD8A0A5D0000E206F0A0E1F6F000E41
:103030001A6F640E196F7751176F186B17BF180747
:1030400027ECBBF017C11DF118C11EF1A4ECB9F0BB
:103050000101D8901D371E37D8901D371E37240E1A
:103060001D27000E1E231B0E1D25F66EEA0E1E21C7
:10307000F76EF86A000EF8220900F5CF5AF1090040
:10308000F5CF5BF10900F5CF5CF10A00F5CF5DF1FA
:10309000000E206F640E1F6F77511D6F1E6B1DBFDA
:1030A0001E07A4ECB9F00101D8901D371E37D89047
:1030B0001D371E37480E1D27000E1E231B0E1D2513
:1030C000F66EEA0E1E21F76EF86A000EF82209006D
:1030D000F5CF56F10900F5CF57F10900F5CF58F1BA
:1030E0000A00F5CF59F128EC9DF056C173F157C194
:1030F00074F158C175F159C176F173C156F174C1BB
:1031000057F175C158F176C159F1000E01011A6FDE
:103110000A0E196F7751176F186B17BF180727EC36
:10312000BBF00101D89017371837D89017371837E8
:103130001B0E1725F66EEA0E1821F76EF86A000EC0
:10314000F8220900F5CF5AF10900F5CF5BF109002B
:10315000F5CF5CF10A00F5CF5DF128EC9DF056C18A
:103160006FF157C170F158C171F159C172F112007C
:1031700001017751800A750FD8A05DD0000E206F35
:103180000A0E1F6F77511D6F1E6B1DBF1E07A4EC2B
:10319000B9F00101D8901D371E37D8901D371E3762
:1031A000240E1D27000E1E231B0E1D25F66EEA0E93
:1031B0001E21F76EF86A000EF8220900F5CF56F1CD
:1031C0000900F5CF57F10900F5CF58F10A00F5CF06
:1031D00059F1000E1A6F0A0E196F7751176F186B9D
:1031E00017BF180727ECBBF00101D8901737183725
:1031F000D890173718371B0E1725F66EEA0E1821D0
:10320000F76EF86A000EF8220900F5CF5AF10900AE
:10321000F5CF5BF10900F5CF5CF10A00F5CF5DF168
:1032200028EC9DF056C16FF157C170F158C171F192
:1032300059C172F1120001017751040D1B0EF324E4
:10324000F66EEA0EF420F76EF86A000EF822090016
:10325000F5CF6FF10900F5CF70F10900F5CF71F1ED
:103260000A00F5CF72F11200516E51AE1FD1516CB0
:103270005150800A120FD8A0A1D0000E0A6E0A0E7B
:10328000096E000E046E640E036E5150016E026AE8
:1032900001BE020660ECBBF001C007F002C008F0FE
:1032A00029ECBAF0D89007360836D8900736083699
:1032B000240E0726000E08224F0E0724F66EEA0E93
:1032C0000820F76EF86A000EF8220900F5CF34F0F6
:1032D0000900F5CF35F00900F5CF36F00A00F5CF3B
:1032E00037F0000E0A6E640E096E5150076E086AC0
:1032F00007BE080629ECBAF0D89007360836D890F1
:1033000007360836480E0726000E08224F0E0724FF
:10331000F66EEA0E0820F76EF86A000EF822090031
:10332000F5CF30F00900F5CF31F00900F5CF32F0DC
:103330000A00F5CF33F0D1EC9EF030C04DF031C033
:103340004EF032C04FF033C050F04DC030F04EC0A0
:1033500031F04FC032F050C033F0000E046E0A0E50
:10336000036E5150016E026A01BE020660ECBBF0B2
:10337000D89001360236D890013602364F0E01241D
:10338000F66EEA0E0220F76EF86A000EF8220900C7
:10339000F5CF34F00900F5CF35F00900F5CF36F060
:1033A0000A00F5CF37F0D1EC9EF030C049F031C0C3
:1033B0004AF032C04BF033C04CF012005150800A3A
:1033C000750FD8A05BD0000E0A6E0A0E096E515020
:1033D000076E086A07BE080629ECBAF0D8900736CF
:1033E0000836D89007360836240E0726000E082225
:1033F0004F0E0724F66EEA0E0820F76EF86A000EEC
:10340000F8220900F5CF30F00900F5CF31F00900BE
:10341000F5CF32F00A00F5CF33F0000E046E0A0E3D
:10342000036E5150016E026A01BE020660ECBBF0F1
:10343000D89001360236D890013602364F0E01245C
:10344000F66EEA0E0220F76EF86A000EF822090006
:10345000F5CF34F00900F5CF35F00900F5CF36F09F
:103460000A00F5CF37F0D1EC9EF030C049F031C002
:103470004AF032C04BF033C04CF012005150040DF2
:103480004F0EF324F66EEA0EF420F76EF86A000E83
:10349000F8220900F5CF49F00900F5CF4AF00900FC
:1034A000F5CF4BF00A00F5CF4CF012005150800AD6
:1034B000120FD8A0A1D0000E0A6E0A0E096E000EDF
:1034C000046E640E036E5150016E026A01BE020664
:1034D00060ECBBF001C007F002C008F029ECBAF0C4
:1034E000D89007360836D89007360836240E0726B7
:1034F000000E08221B0E0724F66EEA0E0820F76E57
:10350000F86A000EF8220900F5CF34F00900F5CF73
:1035100035F00900F5CF36F00A00F5CF37F0000E90
:103520000A6E640E096E5150076E086A07BE0806DF
:1035300029ECBAF0D89007360836D8900736083606
:10354000480E0726000E08221B0E0724F66EEA0E10
:103550000820F76EF86A000EF8220900F5CF30F067
:103560000900F5CF31F00900F5CF32F00A00F5CFB0
:1035700033F0D1EC9EF030C04DF031C04EF032C08F
:103580004FF033C050F04DC030F04EC031F04FC05E
:1035900032F050C033F0000E046E0A0E036E51502C
:1035A000016E026A01BE020660ECBBF0D8900136E3
:1035B0000236D890013602361B0E0124F66EEA0E52
:1035C0000220F76EF86A000EF8220900F5CF34F0F9
:1035D0000900F5CF35F00900F5CF36F00A00F5CF38
:1035E00037F0D1EC9EF030C049F031C04AF032C023
:1035F0004BF033C04CF012005150800A750FD8A028
:103600005BD0000E0A6E0A0E096E5150076E086AF2
:1036100007BE080629ECBAF0D89007360836D890CD
:1036200007360836240E0726000E08221B0E072434
:10363000F66EEA0E0820F76EF86A000EF82209000E
:10364000F5CF30F00900F5CF31F00900F5CF32F0B9
:103650000A00F5CF33F0000E046E0A0E036E5150CF
:10366000016E026A01BE020660ECBBF0D890013622
:103670000236D890013602361B0E0124F66EEA0E91
:103680000220F76EF86A000EF8220900F5CF34F038
:103690000900F5CF35F00900F5CF36F00A00F5CF77
:1036A00037F0D1EC9EF030C049F031C04AF032C062
:1036B0004BF033C04CF012005150040D1B0EF3249C
:1036C000F66EEA0EF420F76EF86A000EF822090092
:1036D000F5CF49F00900F5CF4AF00900F5CF4BF0DE
:1036E0000A00F5CF4CF012000101AC6FAD0E0101E4
:1036F000176F010E186FF60E196FFF0E1A6F000E7E
:103700001C6F0F0E1B6F04ECBCF054D0AD0E01010A
:10371000176F010E186FCA0E196FFF0E1A6FCBECE0
:10372000BDF05DD0AD0E0101176F010E186F510E87
:10373000196FFD0E1A6FCBECBDF051D0AD0E01012B
:10374000176F010E186FDF0E196FFF0E1A6FCBEC9B
:10375000BDF045D0AD0E0101176F010E186FE50EDB
:10376000196FFF0E1A6FCBECBDF039D0AD0E010111
:10377000176F010E186FF10E196FFF0E1A6FCBEC59
:10378000BDF02DD0AD0E0101176F010E186FF90EAF
:10379000196FFF0E1A6FCBECBDF021D0AD0E0101F9
:1037A000176F010E186FCA0E196FFF0E1A6FCBEC50
:1037B000BDF015D00101AB51000AD8B4A7D7010A5A
:1037C000D8B4B0D7030AD8B4B9D7010AD8B4C2D78D
:1037D000070AD8B4CBD7010AD8B4D4D7DFD7AD0EF7
:1037E0000101176F010E186FFB0E196FFF0E1A6F94
:1037F000CBECBDF06CD0AD0E0101176F010E186F50
:10380000C90E196FFF0E1A6FCBECBDF07BD0AD0E59
:103810000101176F010E186FCC0E196FFF0E1A6F92
:10382000CBECBDF06FD0AD0E0101176F010E186F1C
:10383000D20E196FFF0E1A6FCBECBDF063D0AD0E38
:103840000101176F010E186FD80E196FFF0E1A6F56
:10385000CBECBDF057D0AD0E0101176F010E186F04
:10386000DE0E196FFF0E1A6FCBECBDF04BD0AD0E14
:103870000101176F010E186FE40E196FFF0E1A6F1A
:10388000CBECBDF03FD0AD0E0101176F010E186FEC
:10389000EA0E196FFF0E1A6FCBECBDF033D0AD0EF0
:1038A0000101176F010E186FF00E196FFF0E1A6FDE
:1038B000CBECBDF027D0AD0E0101176F010E186FD4
:1038C000F00E196FFF0E1A6FCBECBDF01BD001018B
:1038D000AC51000AD8B48FD7010AD8B498D7030ADC
:1038E000D8B4A1D7010AD8B4AAD7070AD8B4B3D795
:1038F000010AD8B4BCD7030AD8B4C5D7010AD8B4D2
:10390000CED7D9D7AD0E0101176F010E186FFB0E80
:10391000196FFF0E1A6FCBECBDF06CD0AD0E01012C
:10392000176F010E186F4D0E196FFF0E1A6FCBEC4B
:10393000BDF07BD0AD0E0101176F010E186FCF0ED9
:10394000196FFF0E1A6FCBECBDF06FD0AD0E0101F9
:10395000176F010E186FD50E196FFF0E1A6FCBEC93
:10396000BDF063D0AD0E0101176F010E186FDB0EB5
:10397000196FFF0E1A6FCBECBDF057D0AD0E0101E1
:10398000176F010E186FE10E196FFF0E1A6FCBEC57
:10399000BDF04BD0AD0E0101176F010E186FE70E91
:1039A000196FFF0E1A6FCBECBDF03FD0AD0E0101C9
:1039B000176F010E186FED0E196FFF0E1A6FCBEC1B
:1039C000BDF033D0AD0E0101176F010E186FF30E6D
:1039D000196FFF0E1A6FCBECBDF027D0AD0E0101B1
:1039E000176F010E186FF30E196FFF0E1A6FCBECE5
:1039F000BDF01BD00101AA51000AD8B48FD7010A2B
:103A0000D8B498D7030AD8B4A1D7010AD8B4AAD792
:103A1000070AD8B4B3D7010AD8B4BCD7030AD8B4BC
:103A2000C5D7010AD8B4CED7D9D7AD0E0101176FCB
:103A3000010E186FFD0E196FFF0E1A6FCBECBDF063
:103A4000AD0E01017C6F010E7D6FD0EC86F012008F
:103A500001015951800B626F59515925686F58BF48
:103A600068816851D8B40DD06829D8A408D0000E58
:103A7000566F000E576F000E586F000E596F588F1B
:103A800008D0000E566F000E576F000E586F000ED4
:103A9000596F5D51800B621B5D515D25636F5CBF8B
:103AA00063816351D8B40DD06329D8A408D0000E27
:103AB0005A6F000E5B6F000E5C6F000E5D6F5C8FC7
:103AC00008D0000E5A6F000E5B6F000E5C6F000E88
:103AD0005D6F6351D8B403D06851D8A409D0000EEB
:103AE000566F000E576F000E586F000E596F120080
:103AF0005C515603F3CF6DF1F4CF6EF16D51646FED
:103B0000656B666B676B6E51696F6A6B6B6B6C6B29
:103B10005B515703F3CF6DF1F4CF6EF16D51642714
:103B2000000E6523662367236E516927000E6A2302
:103B30006B236C235A515803F3CF6DF1F4CF6EF120
:103B40006D516427000E6523662367236E51692734
:103B5000000E6A236B236C2366C167F165C166F1B1
:103B600064C165F1646B5A515703F3CF6DF1F4CF23
:103B70006EF16D5164276E516523000E6623000EB1
:103B800067235B515603F3CF6DF1F4CF6EF16D51A6
:103B900064276E516523000E6623000E672366C1FD
:103BA00067F165C166F164C165F1646B5A515603F2
:103BB000F3CF6DF1F4CF6EF16D5164276E51652333
:103BC000000E6623000E67235C515703F3CF6DF19F
:103BD000F4CF6EF16D5169276E516A23000E6B238D
:103BE000000E6C235B515803F3CF6DF1F4CF6EF1EF
:103BF0006D5169276E516A23000E6B23000E6C23F2
:103C00005C515803F3CF6DF1F4CF6EF16D515E6FDF
:103C10006E515F6F606B616B60C161F15FC160F19C
:103C20005EC15FF15E6B5E5169275F516A2360512F
:103C30006B2361516C2364C15EF165C15FF166C1A4
:103C400060F167C161F1190E05D0D890613360331E
:103C50005F335E33E82EF9D75E5169275F516A23DF
:103C600060516B2361516C2366C167F165C166F1D8
:103C700064C165F1646B635168C15EF15F6B5E277F
:103C8000000E5F23820E5E256D6FFF0E5F216E6F4B
:103C90000FD0D89069376A376B376C3767BF698147
:103CA000D89064376537663767376D07D8A06E07D9
:103CB0006BAFEFD7000E636F67AF16D0FF0E6415C2
:103CC0005E6FFF0E65155F6FFF0E6615606F7F0EEE
:103CD0006715616F5E515F1160116111D8A402D048
:103CE00069A102D0010E636F6351D8B41FD0010ED9
:103CF0006927000E6A236B236C236CA117D069C15E
:103D00005EF16AC15FF16BC160F16CC161F1613557
:103D1000613360335F335E335EC169F15FC16AF165
:103D200060C16BF161C16CF16D4B6E2B6EBF0DD03C
:103D30006E5103E16D29D8A008D0000E696F000E06
:103D40006A6F800E6B6F7F0E20D06EBF05D06E51F4
:103D50000EE16D05D8B00BD0000E696F000E6A6FD2
:103D6000000E6B6F000E6C6F000E626F0FD06DC196
:103D700068F1FF0E6917FF0E6A177F0E6B17000EB2
:103D80006C1768B16B8FD89068316C6F62516C138F
:103D900069C156F16AC157F16BC158F16CC159F153
:103DA00012003350800B3C6E33503324426E32BECF
:103DB00042804250D8B40DD04228D8A408D0000E7A
:103DC000306E000E316E000E326E000E336E328E8B
:103DD00008D0000E306E000E316E000E326E000EF6
:103DE000336E3750800B3C1A375037243D6E36BE49
:103DF0003D803D50D8B40DD03D28D8A408D0000E49
:103E0000346E000E356E000E366E000E376E368E36
:103E100008D0000E346E000E356E000E366E000EA9
:103E2000376E3D50D8B403D04250D8A409D0000E0C
:103E3000306E000E316E000E326E000E336E1200C8
:103E400036503002F3CF47F0F4CF48F047503E6E83
:103E50003F6A406A416A4850436E446A456A466A0E
:103E600035503102F3CF47F0F4CF48F047503E26AB
:103E7000000E3F224022412248504326000E442299
:103E80004522462234503202F3CF47F0F4CF48F0B7
:103E900047503E26000E3F224022412248504326F2
:103EA000000E44224522462240C041F03FC040F06F
:103EB0003EC03FF03E6A34503102F3CF47F0F4CFBA
:103EC00048F047503E2648503F22000E4022000E48
:103ED000412235503002F3CF47F0F4CF48F047503D
:103EE0003E2648503F22000E4022000E412240C094
:103EF00041F03FC040F03EC03FF03E6A34503002D7
:103F0000F3CF47F0F4CF48F047503E2648503F22C9
:103F1000000E4022000E412236503102F3CF47F00E
:103F2000F4CF48F04750432648504422000E452223
:103F3000000E462235503202F3CF47F0F4CF48F05E
:103F40004750432648504422000E4522000E462288
:103F500036503202F3CF47F0F4CF48F04750386E76
:103F60004850396E3A6A3B6A3AC03BF039C03AF081
:103F700038C039F0386A38504326395044223A5014
:103F800045223B5046223EC038F03FC039F040C089
:103F90003AF041C03BF0190E05D0D8903B323A328E
:103FA00039323832E82EF9D7385043263950442276
:103FB0003A5045223B50462240C041F03FC040F0BD
:103FC0003EC03FF03E6A3D5042C038F0396A382664
:103FD000000E3922820E3824476EFF0E3920486EBB
:103FE0000FD0D890433644364536463641BE4380DE
:103FF000D8903E363F36403641364706D8A0480670
:1040000045AEEFD7000E3D6E41AE16D0FF0E3E140A
:10401000386EFF0E3F14396EFF0E40143A6E7F0E5D
:1040200041143B6E385039103A103B10D8A402D0DE
:1040300043A002D0010E3D6E3D50D8B41FD0010EFA
:104040004326000E44224522462246A017D043C0F4
:1040500038F044C039F045C03AF046C03BF03B343C
:104060003B323A323932383238C043F039C044F04A
:104070003AC045F03BC046F0474A482A48BE0DD0FA
:10408000485003E14728D8A008D0000E436E000E28
:10409000446E800E456E7F0E20D048BE05D048503D
:1040A0000EE14704D8B00BD0000E436E000E446EF4
:1040B000000E456E000E466E000E3C6E0FD047C0DF
:1040C00042F0FF0E4316FF0E44167F0E4516000EFB
:1040D000461642B0458ED8904230466E3C5046124D
:1040E00043C030F044C031F045C032F046C033F038
:1040F000120001012C51800B396F2C512C253B6F84
:104100002BBF3B813B51D8B40DD03B29D8A408D05C
:10411000000E296F000E2A6F000E2B6F000E2C6F01
:104120002B8F06D0000E296F000E2A6F000E2B6F0A
:10413000000E2C6F3051800B3A6F39513A19D8A4C8
:10414000398D305130253A6F2FBF3A813A51D8B46A
:104150000DD03A29D8A408D0000E2D6F000E2E6F76
:10416000000E2F6F000E306F2F8F06D0000E2D6FB8
:10417000000E2E6F000E2F6F000E306F3B513A5D18
:10418000D8B022D039AD02D0800E391B3BC13CF1F2
:104190003AC13BF13CC13AF129C13CF12DC129F1B1
:1041A0003CC12DF12AC13CF12EC12AF13CC12EF1B6
:1041B0002BC13CF12FC12BF13CC12FF12CC13CF1A3
:1041C00030C12CF13CC130F1000E3C6F3B51316FDE
:1041D000326B311F321F314B322B3A51336F346BFC
:1041E000315133273251342334BF2CD0345104E1C0
:1041F0001A0E335DD8A026D029512A112B112C116B
:10420000D8B402D0010E01D0000E3C6F000E296F11
:10421000000E2A6F000E2B6F000E2C6F3AC13BF17F
:1042200015D03CA105D0D8903C3101093C6F02D09B
:10423000D8903C3329B13C8F2C352C332B332A3387
:1042400029333B2B3A513B5DD8A0EBD739BD29D060
:104250003B51D8A409D0000E296F000E2A6F000E22
:104260002B6F000E2C6F12002D5129272E512A235F
:104270002F512B2330512C232CA183D03CA106D0CD
:10428000D8903C333C5101093C6F02D0D8903C336C
:1042900029B13C8F2C352C332B332A3329333B2B3C
:1042A00070D02D51295D2E512A592F512B592C5147
:1042B000800A316F3051800A3159D8B036D029C1C7
:1042C00031F12AC132F12BC133F12CC134F1311F4C
:1042D000321F331F341F312B000E3223332334237C
:1042E0002D513125356F2E513221366F2F5133210B
:1042F000376F30513421386FFF0E3525296FFF0E8F
:1043000036212A6FFF0E37212B6FFF0E38212C6FBD
:10431000800E391B3C6D3C51D8A40FD0010E2927CB
:10432000000E2A232B232C2308D02D51295F2E5138
:104330002A5B2F512B5B30512C5B29512A112B11F9
:104340002C11D8A41CD03C51D8A419D0000E296F30
:10435000000E2A6F000E2B6F000E2C6F1200D890EB
:1043600029372A372B372C373CBF29813CA102D073
:10437000D88001D0D8903C373B51D8A43B072BAF15
:10438000EED7000E3A6F3CAF0AD03CC131F17F0E40
:104390003117D8A402D029A102D0010E3A6F3A51A8
:1043A000D8B420D0010E2927000E2A232B232C233A
:1043B0002CA118D029C131F12AC132F12BC133F11E
:1043C0002CC134F13435343333333233313331C1EA
:1043D00029F132C12AF133C12BF134C12CF13B292F
:1043E000D8A43B2B3B29D8B403D03B51D8A40DD043
