:0400000085EF00F098
:060008005F827AEFBBF0FD
:100018005F80D8CF02F1E8CF03F1E0CF04F1FACF47
:1000280005F1FBCF06F1E9CF07F1EACF08F1E1CFFF
:1000380009F1E2CF0AF1D9CF0BF1DACF0CF1F3CF06
:100048000DF1F4CF0EF1F6CF0FF1F7CF10F1F8CF95
:1000580011F1F5CF12F15FC013F160C014F161C066
:1000680015F162C016F10E012EBB38AB03D095EC2A
:10007800C4F01BD02CBD36AD0DD001D816D005006C
:10008800FA6E02016B51FD6E6C51FE6E6D51FF6E82
:10009800FA5012002EBD38AD03D0C1ECC3F005D024
:1000A8002BBF35AF02D017ECC6F016C162F015C1F0
:1000B80061F014C160F013C15FF012C1F5FF11C106
:1000C800F8FF10C1F7FF0FC1F6FF0EC1F4FF0DC115
:1000D800F3FF0CC1DAFF0BC1D9FF0AC1E2FF09C166
:1000E800E1FF08C1EAFF07C1E9FF06C1FBFF05C13F
:1000F800FAFF04C1E0FF03C1E8FF02C1D8FF5F9027
:06010800100088EFBCF0BE
:10E8C200000000803F000020410000C84200007AA2
:10E8D2004400401C460050C34700247449809618E7
:10E8E2004B20BCBE4C286B6E4EF9021550EC78AD35
:10E8F20060CAF249710000803FCDCCCC3D0AD723DB
:10E902003C6F12833A17B7D138ACC52737BD37866B
:10E912003595BFD63377CC2B325F708930FFE6DB7B
:10E922002E08E53C1E6042A20D010000000A000014
:10E932000064000000E803000010270000A0860128
:10E942000040420F008096980000E1F50500CA9A47
:10E952003B01000000100000000001000000100058
:10E962000000000100000010000000000100000093
:10E972001004000000063C04427D9F6A425C900144
:10E9820042604DBB4051EC473EDE8D1FBBECF34A6B
:10E9920048359595C717C1DC45FDDB6DC372B333AE
:10E9A20040063C0442C0598B4274044442F99B4FD6
:10E9B200410000803F2B3401487F9DB045E7FFD9DD
:10E9C200420000803F4C697374206F66207375703B
:10E9D200706F7274656420636F6D6D616E64733AFB
:10E9E2000A0D44657669636520436F6D6D616E64DF
:10E9F200733A0A0D20202052657365743A20436CE5
:10EA02006561727320746865207465726D696E61E8
:10EA12006C20616E6420726573657473207468651E
:10EA2200206D6963726F0A0D202020436C6561724C
:10EA32003A20436C65617273207468652074657254
:10EA42006D696E616C2062757420646F65736E27E8
:10EA52007420726573657420746865206D696372D1
:10EA62006F0A0D2020204361757365206F66205266
:10EA7200657365743F3A2052657475726E732074C3
:10EA82006865206361757365206F66207468652010
:10EA92006D6F737420726563656E74206465766948
:10EAA20063652072657365740A0D2020202A49442B
:10EAB2004E3F3A2052657475726E732064657669B2
:10EAC2006365206964656E74696669636174696F00
:10EAD2006E20737472696E670A0D20202044657679
:10EAE200696365204F6E2054696D653F3A20526517
:10EAF2007475726E7320646576696365206F6E202B
:10EB020074696D652073696E6365206C617374202E
:10EB12006465766963652072657365740A0D2020E9
:10EB2200204465766963652049443F3A2052657402
:10EB320075726E732064657669636520494420614D
:10EB420073207072652D70726F6772616D6D65648E
:10EB520020696E20666C617368206D656D6F7279D5
:10EB62000A0D2020205265766973696F6E20494430
:10EB72003F3A2052657475726E73206465766963DC
:10EB8200652073696C69636F6E207265766973695B
:10EB92006F6E204944206173207072652D70726F10
:10EBA2006772616D6D656420696E20666C61736861
:10EBB200206D656D6F72790A0D2020205573657284
:10EBC200204944733F3A2052657475726E73206116
:10EBD200206C697374206F662075736572204944D6
:10EBE200732028646973706C6179656420696E2092
:10EBF200686578292061732073746F726564206977
:10EC02006E20666C617368206D656D6F72790A0D96
:10EC1200202020414443204572726F723F3A2052B5
:10EC2200657475726E7320746865206361757365AF
:10EC3200206F6620616E20414443206572726F72BC
:10EC420020696620616E206572726F72206F636345
:10EC520075727265640A0D202020436C6561722012
:10EC6200414443204572726F723A20436C6561726F
:10EC7200732074686520414443206572726F72206C
:10EC8200616E6420726573756D6573204144432023
:10EC9200636F6E76657273696F6E730A0D20202042
:10ECA200564343204F766572766F6C746167653F99
:10ECB2003A2053746174657320696620612056435B
:10ECC20043206F766572766F6C7461676520636F3F
:10ECD2006E646974696F6E20686173206F63637517
:10ECE20072726564206F72206E6F740A0D2020208C
:10ECF20048656C703A2054686973206D657373615E
:10ED020067652C206C6973747320737570706F72F1
:10ED120074656420636F6D6D616E64730A0D446582
:10ED220076696365204D6561737572656D656E7494
:10ED320020436F6D6D616E64733A0A0D2020204D81
:10ED420065617375726520504F533350333F3A20DB
:10ED520052657475726E73202B332E3356204144E4
:10ED62004320436F6E76657273696F6E20696E2001
:10ED7200766F6C74730A0D2020204D656173757275
:10ED82006520504F5331323F3A2052657475726E8E
:10ED920073202B3132562041444320436F6E7665F7
:10EDA2007273696F6E20696E20766F6C74730A0DD0
:10EDB2002020204D65617375726520446965205479
:10EDC200656D703F3A2052657475726E7320746877
:10EDD20065206D6963726F636F6E74726F6C6C65C0
:10EDE20072206469652074656D70657261747572F4
:10EDF2006520696E206465677265657320430A0D3C
:10EE02002020204D656173757265204656523F3A47
:10EE12002052657475726E732074686520696E7411
:10EE220065726E616C20666978656420766F6C74B9
:10EE3200616765207265666572656E6365206275DD
:10EE4200666665722031206F757470757420696E04
:10EE520020766F6C74730A0D2020204D65617375E6
:10EE6200726520415653533F3A2052657475726E53
:10EE72007320746865206D656173757265642076B0
:10EE8200616C7565206F6620416E616C6F672056FC
:10EE9200535320696E20766F6C74730A0D50726939
:10EEA2006D617279204D6561737572656D656E7401
:10EEB20020436F6D6D616E64733A0A0D2020204D00
:10EEC2006561737572652044657465637465642059
:10EED20043757272656E743F3A2052657475726E34
:10EEE20073206D65617375726564206F75747075DA
:10EEF200742063757272656E7420696E20616D7024
:10EF020073206173207365656E20627920414443EA
:10EF12000A0D2020204D65617375726520524D5394
:10EF22002043757272656E743F3A20526574757231
:10EF32006E73207468652063616C63756C617465BF
:10EF42006420524D53206F7574707574206375720E
:10EF520072656E742066726F6D206D656173757275
:10EF6200656D656E747320616E642054524941432D
:10EF720020666972696E6720616E676C650A0D2092
:10EF820020204D65617375726520524D5320566F76
:10EF92006C746167653F3A2052657475726E7320B6
:10EFA2007468652063616C63756C6174656420527A
:10EFB2004D53206F757470757420766F6C74616731
:10EFC200652066726F6D2054524941432066697212
:10EFD200696E6720616E676C650A0D2020204D65A1
:10EFE200617375726520506F7765723F3A20526582
:10EFF2007475726E73207468652063616C63756CDE
:10F0020061746564206F757470757420706F7765B4
:10F012007220696E2057617474730A0D2020204C8F
:10F022006F6164204F6E2054696D653F3A205265CE
:10F032007475726E73206C6F6164206F6E207469D8
:10F042006D652073696E6365206C617374206465FD
:10F052007669636520726573657420696E207365D5
:10F06200636F6E64730A0D2020204D617820524D2B
:10F07200532043757272656E743F3A205072696E06
:10F08200747320746865206D6178696D756D207286
:10F0920065636F7264656420524D53206F7574709E
:10F0A20075742063757272656E740A0D2020204D8E
:10F0B200617820506F7765723F3A205072696E74A2
:10F0C2007320746865206D6178696D756D20726555
:10F0D200636F72646564206F757470757420706FED
:10F0E2007765720A0D2020204D617820504F5333EE
:10F0F20050333F205072696E747320746865206DBE
:10F102006178696D756D207265636F7264656420E4
:10F11200504F53335033207261696C20766F6C7498
:10F122006167650A0D4F757470757420436F6E7454
:10F13200726F6C20436F6D6D616E64733A0A0D20BD
:10F142002020456E61626C652044696D6D696E6751
:10F152003A20456E61626C65205452494143206FEA
:10F1620075747075742064696D6D696E670A0D201F
:10F17200202044697361626C652044696D6D696E1B
:10F18200673A2044697361626C6520545249414375
:10F19200206F75747075742064696D6D696E670A8D
:10F1A2000D202020456E61626C65204C6F61643ACF
:10F1B20020456E61626C657320746865206F75749A
:10F1C20070757420545249414320776974682064F1
:10F1D200696D6D696E672064697361626C65640A4A
:10F1E2000D20202044697361626C65204C6F61645C
:10F1F2003A2044697361626C657320746865206F9C
:10F20200757470757420545249414320636F6D7058
:10F212006C6574656C790A0D2020204C6F61642046
:10F22200456E61626C65643F3A2052657475726E18
:10F232007320696620746865206F75747075742018
:10F242006C6F616420697320656E61626C65642015
:10F252006F722064697361626C65640A0D202020FC
:10F2620044696D6D696E6720456E61626C65643FCD
:10F272003A2052657475726E732069662064696DF6
:10F282006D696E67206F6620746865206F75747093
:10F292007574206C6F616420697320656E61626CA5
:10F2A2006564206F72206E6F740A0D2020205365F2
:10F2B200742044696D6D696E672050657263656E76
:10F2C200746167653A203C783E3A20536574732036
:10F2D200746865206F75747075742064696D6D69EA
:10F2E2006E672070657263656E7461676520617315
:10F2F20020782070657263656E740A0D00202020EC
:10F3020020426F6F7420636F6D706C6574650A0DB7
:10F312002020202050494331384636374B343020A4
:10F322006D546F756368205465737420426F617207
:10F33200640A0D202020204576616C756174657326
:10F3420020746865206D546F756368206361706115
:10F3520063697469766520746F756368206C69628D
:10F36200726172792064697374726962757465641A
:10F37200206279204D6963726F636869700A0D209B
:10F38200202020536574732074686520737461743F
:10F3920065206F662066697665204C45447320625D
:10F3A20061736564206F6E206D546F7563682063AE
:10F3B20061706163697469766520707573686275DE
:10F3C20074746F6E730A0D202020204261756420D0
:10F3D200726174653A203131353230302062707397
:10F3E2000A0D202020204E6F207061726974792CE2
:10F3F200203820626974732C206E6F20666C6F77E0
:10F4020020636F6E74726F6C2C20312073746F7076
:10F41200206269740A0D20202020436F6D6D616E99
:10F4220064732061726520636173652073656E7316
:10F4320069746976650A0D20202020456E74657214
:10F44200206120636F6D6D616E642C206F72206588
:10F452006E7465722048656C7020666F72206C69EC
:10F462007374206F6620636F6D6D616E64730A0D35
:10F4720000496620796F752764206C696B6520747A
:10F482006F20636F6D706C6574656C7920656E6159
:10F49200626C65206F722064697361626C652074AE
:10F4A2006865206C6F61642C2064697361626C65AD
:10F4B2002064696D6D696E6720616E642075736585
:10F4C200207265737065637469766520636F6D6D14
:10F4D200616E64730A0D004552524F523A20506CCD
:10F4E20065617365207365742064696D6D696E670B
:10F4F2002070657263656E7461676520746F206148
:10F502006E20696E746567657220677265617465E5
:10F5120072207468616E203020616E64206C6573A5
:10F5220073207468616E203130300A0D00446576B4
:10F532006963652049442073746F72656420696E43
:10F5420020466C6173682069733A20307825582E02
:10F55200205468697320636F72726573706F6E6492
:10F562007320746F20612064657669636520706121
:10F572007274206E756D626572206F662025730A43
:10F582000D005468697320636F72726573706F6ED9
:10F59200647320746F206120313620626974207494
:10F5A200696D6572207072652D6C6F616420766181
:10F5B2006C7565206F6620307825582028257520C7
:10F5C2004C53427329200A0D00564343204F76655F
:10F5D20072766F6C7461676520636F6E64697469BB
:10F5E2006F6E20686173206F636375727265642049
:10F5F20028564343206861732065786365656465B6
:10F602006420332E363056290A0D00546865206670
:10F612006F6C6C6F77696E67205573657220494411
:10F62200732068617665206265656E20726574720A
:10F6320069657665642066726F6D20666C617368B9
:10F64200206D656D6F72793A0A0D0043616C6375C6
:10F652006C61746564205452494143206669726941
:10F662006E6720616E676C6520697320252E336694
:10F672002072616469616E732028252E33662064CE
:10F68200656772656573290A0D0053797374656D38
:10F6920020706172616D657465727320616E6420A1
:10F6A20061666669726D61746976652072657370F0
:10F6B2006F6E7365732061707065617220696E2070
:10F6C200677265656E0A0D0044657669636520732D
:10F6D200696C69636F6E207265766973696F6E20FB
:10F6E20049442061732073746F72656420696E20CF
:10F6F200466C6173682069733A2025632530336450
:10F702000A0D00446576696365206F6E2074696D29
:10F71200652073696E6365206C6173742072657312
:10F72200657420636F6E646974696F6E20697320FB
:10F732002564207365636F6E64730A0D00466978F1
:10F74200656420566F6C74616765205265666572E8
:10F75200656E6365204275666665722031206D654F
:10F7620061737572656420617320252E336620569D
:10F772006F6C74730A0D004F757470757420706F1E
:10F782007765722063616C63756C61746564206176
:10F792007320252E33662057617474732066726F4E
:10F7A2006D20524D532076616C7565730A0D0048C9
:10F7B200656C70206D6573736167657320616E643B
:10F7C200206E65757472616C20726573706F6E73F2
:10F7D20065732061707065617220696E2079656C55
:10F7E2006C6F770A0D002020202055736572204926
:10F7F2004420576F72642025642028466C61736828
:10F802002061646472657373203078323030303036
:10F812002558293A20307825580A0D004C6F61642A
:10F822002069732063757272656E746C7920656EDF
:10F8320061626C65642C206275742064696D6D6907
:10F842006E672069732064697361626C65640A0D76
:10F85200004C6F6164206F6E2074696D652073695E
:10F862006E6365206C6173742064657669636520DC
:10F872007265736574206973202564207365636FF4
:10F882006E64730A0D0054686520636175736520A8
:10F892006F6620746865206D6F737420726563658E
:10F8A2006E74206465766963652072657365742081
:10F8B2007761733A2025730A0D004D6178696D7581
:10F8C2006D207265636F7264656420524D53206FC0
:10F8D20075747075742063757272656E74206973C5
:10F8E20020252E33662041726D730A0D005468651F
:10F8F20020666F6C6C6F77696E67206368616E6EED
:10F90200656C2063617573656420616E20414443B8
:10F91200206572726F723A2025730A0D004D617272
:10F9220071756574746520556E6976657273697454
:10F932007920454C454E20333033352046696E617F
:10F942006C2050726F6A6563740A0D004572726FA3
:10F95200727320616E64206E6567617469766520DA
:10F96200726573706F6E736573206170706561721A
:10F9720020696E207265640A0D00456E74657220FE
:10F982002748656C702720666F72206C697374203B
:10F992006F6620617661696C61626C6520636F6D70
:10F9A2006D616E64730A0D004D6178696D756D202D
:10F9B2007265636F72646564206F7574707574200C
:10F9C200506F77657220697320252E336620576148
:10F9D2007474730A0D00564343204F766572766F36
:10F9E2006C7461676520636F6E646974696F6E2001
:10F9F200686173206E6F74206F63637572726564E1
:10FA02000A0D004C6F616420686173206265656E47
:10FA120020656E61626C65642C2064696D6D696E2F
:10FA2200672064697361626C65640A0D004C6F61E2
:10FA32006420616E642064696D6D696E6720617215
:10FA4200652063757272656E746C79206469736186
:10FA5200626C65640A0D0057696E646F7765642095
:10FA6200576174636820446F672054696D65722022
:10FA720056696F6C6174696F6E20526573657400AC
:10FA82005452494143206F75747075742064696DD6
:10FA92006D696E6720686173206265656E206469B6
:10FAA2007361626C65640A0D005452494143206FD0
:10FAB20075747075742064696D6D696E6720686114
:10FAC20073206265656E20656E61626C65640A0D05
:10FAD200004D6561737572656D656E742072657334
:10FAE200706F6E7365732061707065617220696EEC
:10FAF200206379616E0A0D0041565353206D656192
:10FB0200737572656420617320252E336620566FEB
:10FB12006C7473206279204144430A0D002B332E0A
:10FB22003356207261696C206D656173757265640C
:10FB3200206173202B252E336620566F6C74730A56
:10FB42000D0044696D6D696E67206861732062659E
:10FB5200656E2073657420746F2025642070657251
:10FB620063656E740A0D004469652054656D7065A5
:10FB7200726174757265206D65617375726564205A
:10FB8200617320252E3366430A0D002B3132562035
:10FB92007261696C206D6561737572656420617351
:10FBA200202B252E336620566F6C74730A0D00527B
:10FBB2004D53204F75747075742043757272656E63
:10FBC2007420697320252E33662041726D730A0DED
:10FBD20000524D53204F757470757420566F6C74BB
:10FBE20061676520697320252E33662056726D7316
:10FBF2000A0D004D656173757265642043757272FA
:10FC0200656E7420697320252E336620416D7073F2
:10FC12000A0D0044696D6D696E6720697320637512
:10FC22007272656E746C7920656E61626C65640ACD
:10FC32000D005573657220696E7075742061707065
:10FC42006561727320696E2077686974650A0D00B8
:10FC52004C6F61642069732063757272656E746C97
:10FC6200792064697361626C65640A0D004C6F618E
:10FC7200642069732063757272656E746C79206595
:10FC82006E61626C65640A0D005245534554204909
:10FC92006E737472756374696F6E204578656375EF
:10FCA200746564004D6561737572652044657465A1
:10FCB200637465642043757272656E743F004C6FA5
:10FCC200616420686173206265656E206469736196
:10FCD200626C65640A0D005365742044696D6D6938
:10FCE2006E672050657263656E746167653A2000C5
:10FCF2004E6F20414443204572726F7220646574D6
:10FD020065637465640A0D00537461636B20556EFC
:10FD1200646572666C6F7720526573657400496E14
:10FD22007465726E616C2046565220427566666535
:10FD320072203100537461636B204F766572666C7A
:10FD42006F7720526573657400436C656172696EEA
:10FD52006720414443204572726F720A0D004D655F
:10FD6200617375726520524D5320566F6C746167D2
:10FD7200653F004D65617375726520524D53204396
:10FD8200757272656E743F004D61737465722043C3
:10FD92006C656172205265736574004D656173759F
:10FDA2007265204469652054656D703F00303132C0
:10FDB20033343536373839414243444546004143AE
:10FDC20020506F776572204D657465720A0D00448C
:10FDD200696D6D696E6720456E61626C65643F0096
:10FDE200564343204F766572766F6C746167653F48
:10FDF200004D617820524D532043757272656E74C6
:10FE02003F00556E646566696E6564205265736570
:10FE1200740042726F776E204F757420526573655D
:10FE220074004D65617375726520504F53335033C2
:10FE32003F00446576696365204F6E2054696D65A5
:10FE42003F004361757365206F6620526573657468
:10FE52003F0044697361626C652044696D6D696E2F
:10FE62006700436C65617220414443204572726FA2
:10FE72007200506F776572204F6E20526573657401
:10FE8200004D65617375726520504F5331323F00EA
:10FE92004D65617375726520506F7765723F0045DD
:10FEA2006E61626C652044696D6D696E6700496EB2
:10FEB2007465726E616C2044414331004D6561731B
:10FEC20075726520415653533F004C6F6164204563
:10FED2006E61626C65643F004C6F6164204F6E20FE
:10FEE20054696D653F00496E7465726E616C2041A4
:10FEF20056535300496E7465726E616C2054656D81
:10FF0200700050494331384C4636374B343000523A
:10FF120065766973696F6E2049443F004D65617370
:10FF2200757265204656523F0044697361626C6582
:10FF3200204C6F61640050494331384636374B34A8
:10FF42003000456E61626C65204C6F6164004465EF
:10FF5200766963652049443F004D617820506F7790
:10FF620065723F00414443204572726F723F0055F3
:10FF7200736572204944733F00556E646566696E0D
:10FF8200656400286E756C6C2900504F53335033F2
:10FF920000504F533132002A49444E3F00436C65B2
:10FFA20061720049534E530048656C70001B5B320E
:10FFB2004A0049444E001B5B48001B5B73001B5BFD
:10FFC20075001B5B4B00333000333100343100339A
:10FFD20032003432003333003433003334003434EB
:10FFE2000033350034350033360034360033370001
:0DFFF2003437001B5B0038003B006D000041
:020000040001F9
:10000000B4C117F1B5C118F10E0E0101196FFE0E42
:100010001A6F60ECC1F0010117511811D8A40FD06C
:10002000AF0E826FFF0E836F50EC87F0B80E0101A8
:10003000826FFF0E836F50EC87F0FF001200B4C197
:1000400017F1B5C118F19F0E0101196FFF0E1A6F5C
:1000500060ECC1F0010117511811D8A40ED0AF0EF9
:10006000826FFF0E836F50EC87F0B80E0101826F34
:10007000FF0E836F50EC87F01200B4C117F1B5C1C9
:1000800018F1440E0101196FFE0E1A6F60ECC1F0F9
:10009000010117511811D8A419D0000EB26F000E2B
:1000A000B36F020E9BEC9EF0880E0101826FF80E7A
:1000B000836F0201EC510EECC4F017C184F118C13A
:1000C00085F150EC87F09AECC5F01200B4C117F13D
:1000D000B5C118F1990E0101196FFF0E1A6F60EC8E
:1000E000C1F0010117511811D8B40FD0B4C117F1E4
:1000F000B5C118F1B40E196FFF0E1A6F60ECC1F0A4
:10010000010117511811D8A418D0000EB26F000EBB
:10011000B36F020E9BEC9EF0C00E0101826FFD0ECC
:10012000836F50EC87F01F0E0101826FF90E836F11
:1001300050EC87F09AECC5F01200B4C117F1B5C1CC
:1001400018F1500E0101196FFF0E1A6F60ECC1F02B
:10015000010117511811D8A423D0000EB26F000E60
:10016000B36F020E9BEC9EF02F0E0101826FF50E15
:10017000836F19ECC5F022C184F123C185F119EC1C
:10018000C5F022C124F123C125F15AECC0F024C1ED
:1001900086F125C187F150EC87F09AECC5F012008A
:1001A000B4C117F1B5C118F1110E0101196FFF0E9D
:1001B0001A6F60ECC1F0010117511811D8A422D0B8
:1001C000000EB26F000EB36F020E9BEC9EF0CA0ED3
:1001D0000101826FF60E836F33ECC3F00101B66F3D
:1001E000410EB625846F856B000E8523BDECC4F0EF
:1001F0000101B76FB751866F876B50EC87F09AECAF
:10020000C5F01200B4C117F1B5C118F1710E0101AA
:10021000196FFF0E1A6F60ECC1F001011751181130
:10022000D8A43ED0000EB26F000EB36F020E9BEC4E
:100230009EF00D0E0101826FF60E836F50EC87F079
:10024000000E0301AA6F000EA96FAABF06D0AA5123
:1002500024E1080EA95DD8B020D0E80E0101826F1C
:10026000F70E836FA9C384F1AAC385F1D890030167
:10027000A9350101866F0301AA350101876F0301CA
:10028000A951B1ECC2F022C188F123C189F150EC2F
:1002900087F00301A94BAA2BD8D79AECC5F012001E
:1002A000B4C117F1B5C118F1660E0101196FFF0E47
:1002B0001A6F60ECC1F0010117511811D8A4A4D035
:1002C0005EA090D0000EB26F000EB36F010E9BECDB
:1002D0009EF05FCFDBF160D0800E0101176F030E3F
:1002E000186FA50E196FFF0E1A6F8BECC3F06CD050
:1002F000800E0101176F030E186F930E196FFF0E1A
:100300001A6F8BECC3F060D0800E0101176F030EE3
:10031000186F8C0E196FFF0E1A6F8BECC3F054D050
:10032000800E0101176F030E186FE80E196FFE0E95
:100330001A6F8BECC3F048D0800E0101176F030ECB
:10034000186FF60E196FFE0E1A6F8BECC3F03CD0CF
:10035000800E0101176F030E186FB00E196FFE0E9D
:100360001A6F8BECC3F030D0800E0101176F030EB3
:10037000186F200E196FFD0E1A6F8BECC3F024D08E
:10038000800E0101176F030E186F7B0E196FFF0EA1
:100390001A6F8BECC3F018D00101DB51000AD8B4FE
:1003A0009BD7040AD8B4A4D7260AD8B4ADD71E0A5E
:1003B000D8B4B6D7010AD8B4BFD7030AD8B4C8D7BF
:1003C000010AD8B4D1D7DCD7EF0E0101826FF80E45
:1003D000836F800E846F030E856F50EC87F09AEC6C
:1003E000C5F01200000E0101B26F000EB36F020ED5
:1003F0009BEC9EF0F20E0101826FFC0E836F50ECBD
:1004000087F09AECC5F01200B4C117F1B5C118F12C
:10041000640E0101196FFE0E1A6F60ECC1F001014C
:1004200017511811D8A418D07E965E900E012E8D0B
:100430001EECC6F0000E0101B26F000EB36F020E8B
:100440009BEC9EF04B0E0101826FFD0E836F50EC12
:1004500087F09AECC5F01200B4C117F1B5C118F1DC
:10046000E20E0101196FFD0E1A6F60ECC1F001017F
:1004700017511811D8A426D05EA412D0000EB26F66
:10048000000EB36F010E9BEC9EF0CB0E0101826F4C
:10049000F50E836F50EC87F09AECC5F05E94120075
:1004A000000E0101B26F000EB36F020E9BEC9EF0C6
:1004B000D80E0101826FF90E836F50EC87F09AEC31
:1004C000C5F01200B4C117F1B5C118F1240E010135
:1004D000196FFE0E1A6F60ECC1F00101175118116F
:1004E000D8A419D0000EB26F000EB36F060E9BECAD
:1004F0009EF01F0E0101826FFB0E836FCFC184F14E
:10050000D0C185F1D1C186F1D2C187F150EC87F01D
:100510009AECC5F01200B4C117F1B5C118F1830E01
:100520000101196FFE0E1A6F60ECC1F00101175145
:100530001811D8A419D0000EB26F000EB36F060EBA
:100540009BEC9EF08D0E0101826FFB0E836FCBC181
:1005500084F1CCC185F1CDC186F1CEC187F150ECDB
:1005600087F09AECC5F01200B4C117F1B5C118F1CB
:100570009D0E0101196FFD0E1A6F60ECC1F00101B3
:1005800017511811D8A419D0000EB26F000EB36F16
:10059000060E9BEC9EF0690E0101826FFB0E836FCD
:1005A00054C284F155C285F156C286F157C287F113
:1005B00050EC87F09AECC5F01200B4C117F1B5C148
:1005C00018F11E0E0101196FFF0E1A6F60ECC1F0D9
:1005D000010117511811D8A419D0000EB26F000EE6
:1005E000B36F060E9BEC9EF03F0E0101826FF70E7B
:1005F000836FE4C184F1E5C185F1E6C186F1E7C10D
:1006000087F150EC87F09AECC5F01200B4C117F1F5
:10061000B5C118F1BE0E0101196FFE0E1A6F60EC24
:10062000C1F0010117511811D8A419D0000EB26FF2
:10063000000EB36F060E9BEC9EF0FA0E0101826F66
:10064000FA0E836FD3C184F1D4C185F1D5C186F18F
:10065000D6C187F150EC87F09AECC5F01200B4C116
:1006600017F1B5C118F1A60E0101196FFC0E1A6F32
:1006700060ECC1F0010117511811D8A419D0000E77
:10068000B26F000EB36F060E9BEC9EF0F50E0101EB
:10069000826FFB0E836FC3C184F1C4C185F1C5C1F4
:1006A00086F1C6C187F150EC87F09AECC5F01200D4
:1006B000B4C117F1B5C118F1750E0101196FFD0E26
:1006C0001A6F60ECC1F0010117511811D8A419D0AC
:1006D000000EB26F000EB36F060E9BEC9EF0B10ED3
:1006E0000101826FFB0E836FF6C084F1F7C085F1C4
:1006F000F8C086F1F9C087F150EC87F09AECC5F0AC
:100700001200B4C117F1B5C118F1600E0101196FE3
:10071000FD0E1A6F60ECC1F0010117511811D8A439
:1007200019D0000EB26F000EB36F060E9BEC9EF058
:10073000D30E0101826FFB0E836FBFC184F1C0C174
:1007400085F1C1C186F1C2C187F150EC87F09AEC06
:10075000C5F01200B4C117F1B5C118F1920E010134
:10076000196FFE0E1A6F60ECC1F0010117511811DC
:10077000D8A419D0000EB26F000EB36F060E9BEC1A
:100780009EF0790E0101826FF70E836FBBC184F179
:10079000BCC185F1BDC186F1BEC187F150EC87F0C7
:1007A0009AECC5F01200B4C117F1B5C118F1A10E51
:1007B0000101196FFE0E1A6F60ECC1F001011751B3
:1007C0001811D8A412D07F90000EB26F000EB36F34
:1007D000020E9BEC9EF0AB0E0101826FFA0E836F4E
:1007E00050EC87F09AECC5F01200B4C117F1B5C116
:1007F00018F1540E0101196FFE0E1A6F60ECC1F072
:10080000010117511811D8A412D07F80000EB26FC9
:10081000000EB36F010E9BEC9EF0820E0101826F01
:10082000FA0E836F50EC87F09AECC5F01200B4C159
:1008300017F1B5C118F1440E0101196FFF0E1A6FBF
:1008400060ECC1F0010117511811D8A414D07F80B9
:100850007F925E82000EB26F000EB36F020E9BECB1
:100860009EF0050E0101826FFA0E836F50EC87F047
:100870009AECC5F01200B4C117F1B5C118F1CC0E55
:100880000101196FFE0E1A6F60ECC1F001011751E2
:100890001811D8A425D05EA211D0000EB26F000EA0
:1008A000B36F020E9BEC9EF06F0E0101826FFC0E87
:1008B000836F50EC87F09AECC5F01200000E010136
:1008C000B26F000EB36F010E9BEC9EF0520E010151
:1008D000826FFC0E836F50EC87F09AECC5F012002B
:1008E000B4C117F1B5C118F1D10E0101196FFD0E98
:1008F0001A6F60ECC1F0010117511811D8A439D05A
:100900005EB27FB011D0000EB26F000EB36F020E58
:100910009BEC9EF0150E0101826FFC0E836F50EC74
:1009200087F09AECC5F012005EA211D0000EB26FF3
:10093000000EB36F030E9BEC9EF01E0E0101826F42
:10094000F80E836F50EC87F09AECC5F01200000EA1
:100950000101B26F000EB36F010E9BEC9EF02F0EE3
:100960000101826FFA0E836F50EC87F09AECC5F0AC
:100970001200B4C117F1B5C118F12B0E0101196FA6
:10098000FF0E1A6F60ECC1F0010117511811D8A4C5
:1009900014D07F927F905E92000EB26F000EB36F04
:1009A000010E9BEC9EF0C00E0101826FFC0E836F66
:1009B00050EC87F09AECC5F01200B4C126F1B5C135
:1009C00027F1D90E0101286FFC0E296F19ECBDF03B
:1009D000010126512711D8B431D1000E0301A66FB1
:1009E000000EA56FA6BF06D0A6511FE1030EA55DA0
:1009F000D8B01BD0180EA5250101B66F000E03015B
:100A0000A6210101B76FB651B425D96EB751B521F2
:100A1000DA6EA20E0301A525E16E030EA621E26E99
:100A2000DFCFE7FFA54BA62BDDD7A20E01011D6F7F
:100A3000030E1E6F0EECBBF01DC1A7F31EC1A8F381
:100A40000301A8BF06D0A8510BE1640EA75DD8B082
:100A500007D0A8BF05D0A8512BE1A705D8B028D052
:100A6000000E0101B26F000EB36F010E9BEC9EF001
:100A7000D90E0101826FF40E836F50EC87F0000EE7
:100A80000101B26F000EB36F030E9BEC9EF0730E6C
:100A90000101826FF40E836F50EC87F07C0E010130
:100AA000826FF90E836F50EC87F09AECC5F012005C
:100AB000000E0101416F000E426FC80E436F420EDF
:100AC000446F000E2D6F000E2E6FC80E2F6F420E5A
:100AD000306FA7C317F1A8C318F1000E18BFFF0E9F
:100AE000196F1A6F010EC6ECB3F017C125F118C1CA
:100AF00026F119C127F11AC128F126ECC4F025C14D
:100B000029F126C12AF127C12BF128C12CF1A0EC33
:100B1000A3F029C13DF12AC13EF12BC13FF12CC107
:100B200040F1A4ECACF03DC156F13EC157F13FC1DC
:100B300058F140C159F1DB0E01015A6F0F0E5B6F86
:100B4000490E5C6F400E5D6F4FECA0F056C1F2F0A5
:100B500057C1F3F058C1F4F059C1F5F0F2C056F1A5
:100B6000F3C057F1F4C058F1F5C059F1E10E01019D
:100B70005A6F2E0E5B6F650E5C6F420E5D6F4FEC11
:100B8000A0F056C196F357C197F358C198F359C1D5
:100B900099F3A7C3B6F1A8C3B7F10101B61FB71FF8
:100BA000B64BB72B640EB625176F000EB721186F22
:100BB000020E1A6F8F0E196F81ECC4F017C1F0F09E
:100BC00018C1F1F0000E0101B26F000EB36F020EFA
:100BD0009BEC9EF0440E0101826FFB0E836FA7C356
:100BE00084F1A8C385F150EC87F04D0E0101826FAE
:100BF000F60E836FF2C084F1F3C085F1F4C086F184
:100C0000F5C087F196C388F197C389F198C38AF13B
:100C100099C38BF150EC87F0840E0101826FF50EC1
:100C2000836FF0C084F1F1C085F1F0C086F1F1C0AE
:100C300087F150EC87F09AECC5F01200B4C117F1BF
:100C4000B5C118F1340E0101196FFE0E1A6F60EC78
:100C5000C1F0010117511811D8A419D0000EB26FBC
:100C6000000EB36F020E9BEC9EF0050E0101826F29
:100C7000F70E836F4CC284F14DC285F14EC286F1EE
:100C80004FC287F150EC87F09AECC5F01200B4C166
:100C900017F1B5C118F1DA0E0101196FFE0E1A6FC6
:100CA00060ECC1F0010117511811D8A419D0000E41
:100CB000B26F000EB36F020E9BEC9EF0530E01015B
:100CC000826FF80E836F48C284F149C285F14AC22F
:100CD00086F14BC287F150EC87F09AECC5F0120018
:100CE000B4C117F1B5C118F1F30E0101196FFD0E72
:100CF0001A6F60ECC1F0010117511811D8A430D05F
:100D0000750EF66EE90EF76E000EF86E0900F5CF5F
:100D100019F10A00F5CF1AF1E6ECC0F019C19AF307
:100D20001AC19BF31BC19CF31CC19DF3000E010172
:100D3000B26F000EB36F060E9BEC9EF0BC0E01016D
:100D4000826FF80E836F9AC384F19BC385F19CC3B5
:100D500086F19DC387F150EC87F09AECC5F0120044
:100D6000B4C117F1B5C118F15B0E0101196FFF0E87
:100D70001A6F60ECC1F0010117511811D8A430D0DE
:100D8000730EF66EE90EF76E000EF86E0900F5CFE1
:100D900019F10A00F5CF1AF1E6ECC0F019C19EF383
:100DA0001AC19FF31BC1A0F31CC1A1F3000E0101E6
:100DB000B26F000EB36F060E9BEC9EF0AA0E0101FF
:100DC000826FF90E836F9EC384F19FC385F1A0C328
:100DD00086F1A1C387F150EC87F09AECC5F01200C0
:100DE000B4C117F1B5C118F1AA0E0101196FFF0EB8
:100DF0001A6F60ECC1F0010117511811D8A412004C
:100E0000000EB26F000EB36F030E9BEC9EF0C70E88
:100E10000101826FE90E836F50EC87F0B4ECC5F0EE
:100E2000B10E0101826FF70E836F50EC87F0000E58
:100E30000101B26F000EB36F020E9BEC9EF08C0EA0
:100E40000101826FF60E836F50EC87F0000E0101F6
:100E5000B26F000EB36F060E9BEC9EF0D30E010135
:100E6000826FFA0E836F50EC87F0000E0101B26FB3
:100E7000000EB36F010E9BEC9EF04E0E0101826FCF
:100E8000F90E836F50EC87F09AECC5F0340E010137
:100E9000826FFC0E836F50EC87F0B4ECC5F012004B
:100EA000840E01019B6F010E9C6F18EF8EF0250ED2
:100EB000B119D8B405D0B151CCECC5F018EF8EF013
:100EC000000E0101AE6F000EAD6F000EAC6F000E94
:100ED000AB6F04D00101AB85824B832B82C1F6FF3F
:100EE00083C1F7FF000EF86E0D0EF76403D0080003
:100EF000F55005D0F6CFE9FFF7CFEAFFEF50300A03
:100F0000D8B4E8D782C1F6FF83C1F7FF000EF86EB0
:100F10000D0EF76403D00800F55005D0F6CFE9FFB9
:100F2000F7CFEAFFEF5008ECC5F0D8A04CD0000E88
:100F30000101AE6F000EAD6FADC117F1AEC118F17A
:100F4000000E01011A6F0A0E196F81ECC4F017C16F
:100F5000ADF118C1AEF1D00E01018C6FFF0E8D6F97
:100F600082C1F6FF83C1F7FF000EF86E0D0EF76425
:100F700003D00800F55005D0F6CFE9FFF7CFEAFF20
:100F8000EF5001018E6F8F6B8C518E278D518F2307
:100F90008E51AD278F51AE23824B832B82C1F6FF3A
:100FA00083C1F7FF000EF86E0D0EF76403D0080042
:100FB000F55005D0F6CFE9FFF7CFEAFFEF5008EC88
:100FC000C5F0D8B0B9D782C1F6FF83C1F7FF000ED4
:100FD000F86E0D0EF76403D00800F55005D0F6CF7B
:100FE000E9FFF7CFEAFFEF502E0AD8A449D001015C
:100FF000AC8D824B832B000EB06F000EAF6F2AD0EA
:10100000AFC117F1B0C118F1000E01011A6F0A0E3D
:10101000196F81ECC4F082C1F6FF83C1F7FF000EA7
:10102000F86E0D0EF76403D00800F55005D0F6CF2A
:10103000E9FFF7CFEAFFEF5001018C6F8C511727C2
:10104000000E1823D00E1725AF6FFF0E1821B06FBA
:10105000824B832B82C1F6FF83C1F7FF000EF86E2F
:101060000D0EF76403D00800F55005D0F6CFE9FF68
:10107000F7CFEAFFEF5008ECC5F0D8A0A4D0C0D756
:10108000000E0101B06F000EAF6FAC899CD0AC8533
:10109000D1D0AB8FCFD09BC1D9FF9CC1DAFFDECFBF
:1010A00097F1DDCF98F1020E9B27000E9C239751FC
:1010B0009811D8A404D0850E976FFF0E986F000E7C
:1010C0009A6F000E996F03D00101994B9A2B995199
:1010D00097258C6F9A5198218D6F8CC1F6FF8DC129
:1010E000F7FF000EF86E0D0EF76403D00800F55000
:1010F00005D0F6CFE9FFF7CFEAFFEF500009D8A4FB
:10110000E3D70101AF51B011D8B40AD09951AF5D06
:101110009A51B059D8B004D0AFC199F1B0C19AF189
:10112000AD51995DAE519A59D8B005D09951AD5F86
:101130009A51AE5B08D0000EAE6F000EAD6F03D0BB
:10114000200ECCECC5F00101AD07D8A0AE07AD294B
:10115000F7E1AE29D8B417D0F3D797C1F6FF98C1FD
:10116000F7FF000EF86E0D0EF76403D00800F5507F
:1011700005D0F6CFE9FFF7CFEAFFEF50CCECC5F092
:101180000101974B982B9907D8A09A079929E5E177
:101190009A29D8B418EF8EF0E0D79BC1D9FF9CC133
:1011A000DAFFDF50B16F020E9B27000E9C23B10EB9
:1011B000976F010E986F000E9A6F010E996FA1D76D
:1011C000C00EAB1337D0010182518C6F83518D6FEC
:1011D000824B832B8CC1F6FF8DC1F7FF000EF86E9A
:1011E0000D0EF76403D00800F55005D0F6CFE9FFE7
:1011F000F7CFEAFFEF500101B16FB151000AD8B447
:101200001200580AD8B445D73B0AD8B4C6D7070A43
:10121000D8B410D0020AD8B43AD70F0AD8B40AD03A
:101220001A0AD8B438D7060AD8B4CAD70D0AD8B41F
:1012300030D7BDD7070EAC15D8B43DD3ACA904D078
:10124000000EB06F060EAF6F9BC1D9FF9CC1DAFFD5
:10125000DECFA3F1DECFA4F1DECFA5F1DECFA6F184
:10126000040E9B27000E9C23A6AF15D0A3C125F129
:10127000A4C126F1A5C127F1A6C128F126ECC4F02E
:1012800025C1A3F126C1A4F127C1A5F128C1A6F16A
:10129000030E0101AB13000EA26F000EA16FA3514C
:1012A000A411A511A611D8B484D0A535A635820FF6
:1012B000A16FA26BFF0EA223A107D8A0A207A1C114
:1012C00017F1A2C118F1000E1A6F030E196F81EC0D
:1012D000C4F017C1A1F118C1A2F1A1C11DF1A2C1B1
:1012E0001EF1000E0101206F0A0E1F6F5FECBDF0B2
:1012F0001DC1A1F11EC1A2F10101A2AF03D0A1073E
:10130000D8A0A207A151000809EC9AF06FC19DF185
:1013100070C19EF171C19FF172C1A0F19DC156F1E2
:101320009EC157F19FC158F1A0C159F1A3C15AF113
:10133000A4C15BF1A5C15CF1A6C15DF14FECA0F0C9
:1013400056C19DF157C19EF158C19FF159C1A0F1FD
:101350009DC117F19EC118F19FC119F1A0C11AF1E9
:10136000000E01011B6F000E1C6F800E1D6F3F0EE3
:101370001E6F06ECB8F00101D8B004D0A107D8A0C8
:10138000A20717D09DC117F19EC118F19FC119F195
:10139000A0C11AF1000E1B6F000E1C6F200E1D6FF6
:1013A000410E1E6F06ECB8F00101D8A002D0A14B8F
:1013B000A22BB0BF06D0B05121E10D0EAF5DD8B069
:1013C0001DD0A3C129F1A4C12AF1A5C12BF1A6C149
:1013D0002CF1AF5141ECABF06FC12DF170C12EF18A
:1013E00071C12FF172C130F1A0ECA3F029C1A3F1BA
:1013F0002AC1A4F12BC1A5F12CC1A6F10101A2BF04
:1014000006D0A25122E10A0EA15DD8B01ED0A35190
:10141000A411A511A611D8B462D0A3C178F1A4C1BA
:1014200079F1A5C17AF1A6C17BF130ECBAF00101E6
:10143000785179117A117B11D8B4A2BF50D0A25142
:1014400004E1020EA15DD8A04AD09DC117F19EC152
:1014500018F19FC119F1A0C11AF15F0E1B6F700E38
:101460001C6F890E1D6F400E1E6F06ECB8F0010157
:10147000D8B002D0F70E01D0F80EA127FF0EA2239C
:10148000A15109EC9AF06FC19DF170C19EF171C13B
:101490009FF172C1A0F1A3C117F1A4C118F1A5C1B8
:1014A00019F1A6C11AF19DC11BF19EC11CF19FC18A
:1014B0001DF1A0C11EF14BECB6F017C1A7F118C188
:1014C000A8F119C1A9F11AC1AAF1000E0101A36F77
:1014D000000EA46F000EA56F000EA66F3CD0A3C136
:1014E00078F1A4C179F1A5C17AF1A6C17BF130EC04
:1014F000BAF078C1A7F179C1A8F17AC1A9F17BC18D
:10150000AAF1A3C13DF1A4C13EF1A5C13FF1A6C11D
:1015100040F1A7C117F1A8C118F1A9C119F1AAC1D9
:101520001AF1000EC6ECB3F017C141F118C142F137
:1015300019C143F11AC144F169ECC2F03DC1A3F1F4
:101540003EC1A4F13FC1A5F140C1A6F1000E0101C9
:10155000A26F000EA16F010EB16F0A0EB119D8B4BF
:101560001BD0B151040D2B0EF324F66EE90EF420BE
:10157000F76EF86A000EF8220900F550A75D090021
:10158000F550A8590900F550A9590900F550AA5974
:10159000D8A002D0B12BE1D7B1C18CF18D6B8CBF3B
:1015A0008D07AF518C27B0518D23A1518C27A251AB
:1015B0008D238C51AD5F8D51AE5BAF51B011D8B45E
:1015C00003D0AD07D8A0AE07030EAB158C6F000E8D
:1015D000AC158D6F8C518D11D8B403D0AD07D8A048
:1015E000AE07ABA525D0030EAB158C6F000EAC1566
:1015F0008D6F8C518D11D8B40BD02D0ECCECC5F065
:1016000007D0300ECCECC5F00101AD07D8A0AE0775
:101610000101AEBF6CD0AE51F4E1AD05D8A067D0EA
:10162000F0D7200ECCECC5F00101AD07D8A0AE0775
:10163000AEBF05D0AE51F5E1AD05D8B0F2D7030E7F
:10164000AB158C6F000EAC158D6F8C518D11D8B40D
:101650004ED02D0ECCECC5F04AD0A7C117F1A8C1D1
:1016600018F1A9C119F1AAC11AF10101B151040D72
:101670002B0EF324F66EE90EF420F76EF86A000ED6
:10168000F8220900F5CF1BF10900F5CF1CF1090084
:10169000F5CF1DF10A00F5CF1EF1A2ECBDF017C188
:1016A0009DF118C19EF119C19FF11AC1A0F19DC110
:1016B00024F19EC125F19FC126F1A0C127F10A0E98
:1016C0000101286F000E296F000E2A6F000E2B6F8C
:1016D000F3ECBFF024C19DF125C19EF126C19FF11D
:1016E00027C1A0F101019D51300FCCECC5F00101E3
:1016F000B107B129D8B408D0B0D7300ECCECC5F0C2
:101700000101A107D8A0A207A2BF05D0A251F5E10F
:10171000A105D8B0F2D7B0BF09D0B05104E1090E8D
:10172000AF5DD8A003D0080EB16F02D0AFC1B1F148
:10173000B151AF5F000EB1BFFF0EB05BB151D8B475
:1017400003D02E0ECCECC5F00101B15109EC9AF09A
:101750006FC192F170C193F171C194F172C195F1B1
:10176000A3C15AF1A4C15BF1A5C15CF1A6C15DF1B1
:1017700092C156F193C157F194C158F195C159F1F5
:101780004FECA0F056C178F157C179F158C17AF108
:1017900059C17BF130ECBAF078C1A7F179C1A8F159
:1017A0007AC1A9F17BC1AAF174D0A7C117F1A8C170
:1017B00018F1A9C119F1AAC11AF10101B151040D21
:1017C0002B0EF324F66EE90EF420F76EF86A000E85
:1017D000F8220900F5CF1BF10900F5CF1CF1090033
:1017E000F5CF1DF10A00F5CF1EF1A2ECBDF017C137
:1017F0009DF118C19EF119C19FF11AC1A0F19DC1BF
:1018000024F19EC125F19FC126F1A0C127F10A0E46
:101810000101286F000E296F000E2A6F000E2B6F3A
:10182000F3ECBFF024C19DF125C19EF126C19FF1CB
:1018300027C1A0F101019D51300FCCECC5F0A7C12B
:1018400024F1A8C125F1A9C126F1AAC127F10101FE
:10185000B151040D2B0EF324F66EE90EF420F76E51
:10186000F86A000EF8220900F5CF28F10900F5CF3B
:1018700029F10900F5CF2AF10A00F5CF2BF1F3EC9D
:10188000BFF024C1A7F125C1A8F126C1A9F127C144
:10189000AAF10101B107B129D8B408D086D7300E1A
:1018A000CCECC5F00101AF07D8A0B007AF51B01123
:1018B000D8B4BED1F4D7C00EAB158C6F000EAC15EA
:1018C0008D6F8C518D11D8A41ED09BC1D9FF9CC1A6
:1018D000DAFFDECFA7F1DDCFA8F1000EA8BFFF0E23
:1018E000A96FAA6F020E9B27000E9C23AAAF1DD0E2
:1018F000030EAB13AA1FA91FA81FA76D000EA823D4
:10190000A923AA2312D09BC1D9FF9CC1DAFFDECF45
:101910008CF1DDCF8DF18CC1A7F18DC1A8F1A96B40
:10192000AA6B020E9B27000E9C23AF51B011D8A4C6
:101930004BD0A751A811A911AA11D8A445D0AF4BDB
:10194000B02B42D0010EB16F0A0EB119D8B447D0F6
:10195000B151040D2B0EF324F66EE90EF420F76E50
:10196000F86A000EF8220900F550A75D0900F5504D
:10197000A8590900F550A9590900F550AA59D8A04D
:101980002ED0B12BE1D7010EB16F080EB119D8B42A
:1019900026D0B151040D530EF324F66EE90EF42057
:1019A000F76EF86A000EF8220900F550A75D0900ED
:1019B000F550A8590900F550A9590900F550AA5940
:1019C000D8A00DD0B12BE1D7AB51C00B000AD8B4D1
:1019D000B9D7800AD8B4D7D7400AD8B4B3D7800EC5
:1019E000B1BF7F0E8C6FAF51B15DB051800A8C5981
:1019F000D8B003D0AFC1B1F110D0B051800A8C6F14
:101A0000B151AF5D800EB1BF7F0E8C59D8B005D0FB
:101A1000B151AF6FB06BAFBFB007AD51AE11D8B41D
:101A20000DD0030EAB158C6F000EAC158D6F8C5165
:101A30008D11D8B403D0AD07D8A0AE07ACAD13D08C
:101A4000AD51AF5DB051800A8C6FAE51800A8C5998
:101A5000D8B005D0AF51AD5FB051AE5B04D0000E31
:101A6000AE6F000EAD6F800EB1BF7F0E8C6FAD51AB
:101A7000B15DAE51800A8C59D8B007D0B151AD5F7D
:101A8000000EB1BFFF0EAE5B04D0000EAE6F000EB5
:101A9000AD6FABA51AD0030EAB158C6F000EAC1555
:101AA0008D6F8C518D11D8B403D02D0ECCECC5F0B8
:101AB0000101AD51AE11D8B4B2D0300ECCECC5F0AE
:101AC0000101AD07D8A0AE07F4D7AD51AE11D8B41F
:101AD0000BD0200ECCECC5F00101AD07D8A0AE07AD
:101AE000AD51AE11D8A4F5D7030EAB158C6F000E17
:101AF000AC158D6F8C518D11D8B491D02D0ECCECCE
:101B0000C5F08DD0AFC18CF1B0C18DF10101D8907D
:101B10008C378D37D8908C378D372B0E8C25F66E01
:101B2000E90E8D21F76EF86A000EF8220900F5CF54
:101B30001BF10900F5CF1CF10900F5CF1DF10A00DA
:101B4000F5CF1EF1A7C117F1A8C118F1A9C119F16C
:101B5000AAC11AF1A2ECBDF017C124F118C125F1F8
:101B600019C126F11AC127F10A0E0101286F000ED2
:101B7000296F000E2A6F000E2B6FF3ECBFF00101EE
:101B80002451300FB16F48D0A7C117F1A8C118F187
:101B9000A9C119F1AAC11AF1AFC18CF1B0C18DF17F
:101BA000D8908C378D37D8908C378D37530E8C2545
:101BB000F66EE90E8D21F76EF86A000EF822090024
:101BC000F5CF1BF10900F5CF1CF10900F5CF1DF190
:101BD0000A00F5CF1EF1A2ECBDF0010117510F0B69
:101BE000966F9651010DAF0EF324F66EFD0EF420A4
:101BF000F76EF86A000EF8220800F5CFB1F10CD0AC
:101C00000101AB51C00B000AD8B47CD7800AD8B40C
:101C1000BBD7400AD8B476D7B151CCECC5F001019E
:101C2000AF07D8A0B007AF29EBE1B029D8A4E8D717
:101C3000010182518C6F83518D6F824B832B8CC13C
:101C4000F6FF8DC1F7FF000EF86E0D0EF76403D09E
:101C50000800F55005D0F6CFE9FFF7CFEAFFEF50C7
:101C60000101B16FB151D8B4120057EF87F08A0E5D
:101C70000001996F000E9A6FFAEF94F0250EAF19DC
:101C8000D8B405D0AF510AECC6F0FAEF94F0000ECC
:101C90000001AC6F000EAB6F000EAA6F000EA96FB3
:101CA00004D00001A985884B892B88C0F6FF89C024
:101CB000F7FF000EF86E0D0EF76403D00800F55024
:101CC00005D0F6CFE9FFF7CFEAFFEF50300AD8B4DE
:101CD000E8D788C0F6FF89C0F7FF000EF86E0D0E3A
:101CE000F76403D00800F55005D0F6CFE9FFF7CF31
:101CF000EAFFEF5029ECC5F0D8A04BD0000E000150
:101D0000AC6F000EAB6FABC001F0ACC002F0000EC8
:101D1000046E0A0E036EE3ECC4F001C0ABF002C027
:101D2000ACF0D00E00018A6FFF0E8B6F88C0F6FFFB
:101D300089C0F7FF000EF86E0D0EF76403D008009F
:101D4000F55005D0F6CFE9FFF7CFEAFFEF500001DD
:101D50008C6F8D6B8A518C278B518D238C51AB27C7
:101D60008D51AC23884B892B88C0F6FF89C0F7FFC3
:101D7000000EF86E0D0EF76403D00800F55005D084
:101D8000F6CFE9FFF7CFEAFFEF5029ECC5F0D8B066
:101D9000BAD788C0F6FF89C0F7FF000EF86E0D0EA7
:101DA000F76403D00800F55005D0F6CFE9FFF7CF70
:101DB000EAFFEF502E0AD8A448D00001AA8D884B24
:101DC000892B000EAE6F000EAD6F29D0ADC001F0B3
:101DD000AEC002F0000E046E0A0E036EE3ECC4F017
:101DE00088C0F6FF89C0F7FF000EF86E0D0EF7648D
:101DF00003D00800F55005D0F6CFE9FFF7CFEAFF92
:101E0000EF5000018A6F8A510126000E0222D00E87
:101E10000124AD6FFF0E0220AE6F884B892B88C066
:101E2000F6FF89C0F7FF000EF86E0D0EF76403D0C1
:101E30000800F55005D0F6CFE9FFF7CFEAFFEF50E5
:101E400029ECC5F0D8A0A4D0C1D7000E0001AE6F18
:101E5000000EAD6FAA899CD0AA85D1D0A98FCFD012
:101E600099C0D9FF9AC0DAFFDECF95F0DDCF96F0AA
:101E7000020E9927000E9A2395519611D8A404D0EA
:101E8000850E956FFF0E966F000E986F000E976F80
:101E900003D00001974B982B975195258A6F985145
:101EA00096218B6F8AC0F6FF8BC0F7FF000EF86E8D
:101EB0000D0EF76403D00800F55005D0F6CFE9FF0A
:101EC000F7CFEAFFEF500009D8A4E3D70001AD51E6
:101ED000AE11D8B40AD09751AD5D9851AE59D8B073
:101EE00004D0ADC097F0AEC098F0AB51975DAC5147
:101EF0009859D8B005D09751AB5F9851AC5B08D0DA
:101F0000000EAC6F000EAB6F03D0200E0AECC6F0D3
:101F10000001AB07D8A0AC07AB29F7E1AC29D8B4D6
:101F200017D0F3D795C0F6FF96C0F7FF000EF86EF6
:101F30000D0EF76403D00800F55005D0F6CFE9FF89
:101F4000F7CFEAFFEF500AECC6F00001954B962B55
:101F50009707D8A098079729E5E19829D8B4FAEF10
:101F600094F0E0D799C0D9FF9AC0DAFFDF50AF6F85
:101F7000020E9927000E9A23AF0E956F000E966FF2
:101F8000000E986F010E976FA1D7C00EA91337D01E
:101F9000000188518A6F89518B6F884B892B8AC0C9
:101FA000F6FF8BC0F7FF000EF86E0D0EF76403D03E
:101FB0000800F55005D0F6CFE9FFF7CFEAFFEF5064
:101FC0000001AF6FAF51000AD8B41200580AD8B45C
:101FD00045D73B0AD8B4C6D7070AD8B410D0020AEE
:101FE000D8B43AD70F0AD8B40AD01A0AD8B438D716
:101FF000060AD8B4CAD70D0AD8B430D7BDD7070E51
:10200000AA15D8B43BD3AAA904D0000EAE6F060E11
:10201000AD6F99C0D9FF9AC0DAFFDECFA5F0DECF51
:10202000A6F0DECFA7F0DECFA8F0040E9927000EB1
:102030009A23A8AF15D0A5C02CF0A6C02DF0A7C03C
:102040002EF0A8C02FF055ECC4F02CC0A5F02DC088
:10205000A6F02EC0A7F02FC0A8F0030E0001A91310
:10206000000EA06F000E9F6FA551A611A711A81119
:10207000D8B482D0A735A835820F9F6FA06BFF0E12
:10208000A0239F07D8A0A0079FC001F0A0C002F026
:10209000000E046E030E036EE3ECC4F001C09FF06B
:1020A00002C0A0F09FC007F0A0C008F0000E0A6EAA
:1020B0000A0E096EE4ECBDF007C09FF008C0A0F066
:1020C0000001A0AF03D09F07D8A0A0079F51000830
:1020D0005BEC9CF049C09BF04AC09CF04BC09DF06B
:1020E0004CC09EF09BC030F09CC031F09DC032F0DF
:1020F0009EC033F0A5C034F0A6C035F0A7C036F0BE
:10210000A8C037F0F8ECA1F030C09BF031C09CF0D3
:1021100032C09DF033C09EF09BC034F09CC035F0BF
:102120009DC036F09EC037F0000E386E000E396E3E
:10213000800E3A6E3F0E3B6E97ECB8F0D8B005D0EB
:1021400000019F07D8A0A00717D09BC034F09CC007
:1021500035F09DC036F09EC037F0000E386E000E90
:10216000396E200E3A6E410E3B6E97ECB8F0D8A057
:1021700003D000019F4BA02B0001AEBF06D0AE5193
:1021800021E10D0EAD5DD8B01DD0A5C056F0A6C0A2
:1021900057F0A7C058F0A8C059F0AD5159ECAFF0B6
:1021A00049C05AF04AC05BF04BC05CF04CC05DF0D7
:1021B0003FECA5F056C0A5F057C0A6F058C0A7F058
:1021C00059C0A8F00001A0BF06D0A05122E10A0E1C
:1021D0009F5DD8B01ED0A551A611A711A811D8B4E3
:1021E00063D0A5C06CF0A6C06DF0A7C06EF0A8C00B
:1021F0006FF09FECBAF000016C516D116E116F1110
:10220000D8B4A0BF51D0A05104E1020E9F5DD8A068
:102210004BD09BC034F09CC035F09DC036F09EC0C2
:1022200037F05F0E386E700E396E890E3A6E400EC2
:102230003B6E97ECB8F0D8B003D00001F70E02D097
:102240000001F80E9F27FF0EA0239F515BEC9CF02E
:1022500049C09BF04AC09CF04BC09DF04CC09EF022
:10226000A5C001F0A6C002F0A7C003F0A8C004F00A
:102270009BC005F09CC006F09DC007F09EC008F012
:10228000E0ECB6F001C0A1F002C0A2F003C0A3F0E0
:1022900004C0A4F0000E0001A56F000EA66F000E92
:1022A000A76F000EA86F3CD0A5C06CF0A6C06DF063
:1022B000A7C06EF0A8C06FF09FECBAF06CC0A1F0A0
:1022C0006DC0A2F06EC0A3F06FC0A4F0A5C080F0F6
:1022D000A6C081F0A7C082F0A8C083F0A1C005F01D
:1022E000A2C006F0A3C007F0A4C008F0000E70EC76
:1022F000B4F005C084F006C085F007C086F008C0C1
:1023000087F08DECC2F080C0A5F081C0A6F082C03D
:10231000A7F083C0A8F0000E0001A06F000E9F6F11
:10232000010EAF6F0A0EAF19D8B41BD0AF51040D18
:102330002B0EF324F66EE90EF420F76EF86A000E09
:10234000F8220900F550A15D0900F550A2590900D5
:10235000F550A3590900F550A459D8A002D0AF2BCD
:10236000E1D7AFC08AF08B6B8ABF8B07AD518A274C
:10237000AE518B239F518A27A0518B238A51AB5F8B
:102380008B51AC5BAD51AE11D8B403D0AB07D8A024
:10239000AC07030EA9158A6F000EAA158B6F8A5120
:1023A0008B11D8B403D0AB07D8A0AC07A9A525D012
:1023B000030EA9158A6F000EAA158B6F8A518B1117
:1023C000D8B40BD02D0E0AECC6F007D0300E0AECB4
:1023D000C6F00001AB07D8A0AC070001ACBF6BD0C2
:1023E000AC51F4E1AB05D8A066D0F0D7200E0AECD2
:1023F000C6F00001AB07D8A0AC07ACBF05D0AC510C
:10240000F5E1AB05D8B0F2D7030EA9158A6F000E1F
:10241000AA158B6F8A518B11D8B44DD02D0E0AECB2
:10242000C6F049D0A1C001F0A2C002F0A3C003F0E1
:10243000A4C004F00001AF51040D2B0EF324F66E7E
:10244000E90EF420F76EF86A000EF8220900F5CFC5
:1024500005F00900F5CF06F00900F5CF07F00A00F6
:10246000F5CF08F026ECBEF001C09BF002C09CF056
:1024700003C09DF004C09EF09BC00EF09CC00FF006
:102480009DC010F09EC011F00A0E126E000E136E69
:10249000000E146E000E156E27ECC0F00EC09BF0FF
:1024A0000FC09CF010C09DF011C09EF000019B5128
:1024B000300F0AECC6F00001AF07AF29D8B408D03E
:1024C000B1D7300E0AECC6F000019F07D8A0A007D4
:1024D000A0BF05D0A051F5E19F05D8B0F2D7AEBF9F
:1024E00009D0AE5104E1090EAD5DD8A003D0080EAD
:1024F000AF6F02D0ADC0AFF0AF51AD5F000EAFBF58
:10250000FF0EAE5BAF51D8B403D02E0E0AECC6F06E
:102510000001AF515BEC9CF049C090F04AC091F0D3
:102520004BC092F04CC093F0A5C034F0A6C035F07B
:10253000A7C036F0A8C037F090C030F091C031F09D
:1025400092C032F093C033F0F8ECA1F030C06CF0E0
:1025500031C06DF032C06EF033C06FF09FECBAF056
:102560006CC0A1F06DC0A2F06EC0A3F06FC0A4F06B
:1025700073D0A1C001F0A2C002F0A3C003F0A4C0B8
:1025800004F00001AF51040D2B0EF324F66EE90E9A
:10259000F420F76EF86A000EF8220900F5CF05F076
:1025A0000900F5CF06F00900F5CF07F00A00F5CFD6
:1025B00008F026ECBEF001C09BF002C09CF003C006
:1025C0009DF004C09EF09BC00EF09CC00FF09DC01B
:1025D00010F09EC011F00A0E126E000E136E000E67
:1025E000146E000E156E27ECC0F00EC09BF00FC0ED
:1025F0009CF010C09DF011C09EF000019B51300F67
:102600000AECC6F0A1C00EF0A2C00FF0A3C010F0FB
:10261000A4C011F00001AF51040D2B0EF324F66E8F
:10262000E90EF420F76EF86A000EF8220900F5CFE3
:1026300012F00900F5CF13F00900F5CF14F00A00ED
:10264000F5CF15F027ECC0F00EC0A1F00FC0A2F03E
:1026500010C0A3F011C0A4F00001AF07AF29D8B497
:1026600008D087D7300E0AECC6F00001AD07D8A01D
:10267000AE07AD51AE11D8B4BDD1F4D7C00EA91577
:102680008A6F000EAA158B6F8A518B11D8A41ED0A9
:1026900099C0D9FF9AC0DAFFDECFA1F0DDCFA2F05A
:1026A000000EA2BFFF0EA36FA46F020E9927000EAB
:1026B0009A23A4AF1DD0030EA913A41FA31FA21F0A
:1026C000A16D000EA223A323A42312D099C0D9FF89
:1026D0009AC0DAFFDECF8AF0DDCF8BF08AC0A1F09E
:1026E0008BC0A2F0A36BA46B020E9927000E9A2355
:1026F000AD51AE11D8A44BD0A151A211A311A41178
:10270000D8A445D0AD4BAE2B42D0010EAF6F0A0E10
:10271000AF19D8B447D0AF51040D2B0EF324F66E89
:10272000E90EF420F76EF86A000EF8220900F55061
:10273000A15D0900F550A2590900F550A3590900FF
:10274000F550A459D8A02ED0AF2BE1D7010EAF6F12
:10275000080EAF19D8B426D0AF51040D530EF32490
:10276000F66EE90EF420F76EF86A000EF822090002
:10277000F550A15D0900F550A2590900F550A35983
:102780000900F550A459D8A00DD0AF2BE1D7A9511D
:10279000C00B000AD8B4B9D7800AD8B4D7D7400A3A
:1027A000D8B4B3D7800EAFBF7F0E8A6FAD51AF5D87
:1027B000AE51800A8A59D8B003D0ADC0AFF010D066
:1027C000AE51800A8A6FAF51AD5D800EAFBF7F0EF4
:1027D0008A59D8B005D0AF51AD6FAE6BADBFAE0763
:1027E000AB51AC11D8B40DD0030EA9158A6F000EF1
:1027F000AA158B6F8A518B11D8B403D0AB07D8A020
:10280000AC07AAAD13D0AB51AD5DAE51800A8A6F53
:10281000AC51800A8A59D8B005D0AD51AB5FAE51EA
:10282000AC5B04D0000EAC6F000EAB6F800EAFBF80
:102830007F0E8A6FAB51AF5DAC51800A8A59D8B018
:1028400007D0AF51AB5F000EAFBFFF0EAC5B04D043
:10285000000EAC6F000EAB6FA9A51AD0030EA91520
:102860008A6F000EAA158B6F8A518B11D8B403D0D2
:102870002D0E0AECC6F00001AB51AC11D8B4B1D0AA
:10288000300E0AECC6F00001AB07D8A0AC07F4D7B5
:10289000AB51AC11D8B40BD0200E0AECC6F000013D
:1028A000AB07D8A0AC07AB51AC11D8A4F5D7030E39
:1028B000A9158A6F000EAA158B6F8A518B11D8B497
:1028C00090D02D0E0AECC6F08CD0ADC08AF0AEC010
:1028D0008BF00001D8908A378B37D8908A378B37A6
:1028E0002B0E8A25F66EE90E8B21F76EF86A000E24
:1028F000F8220900F5CF05F00900F5CF06F0090030
:10290000F5CF07F00A00F5CF08F0A1C001F0A2C092
:1029100002F0A3C003F0A4C004F026ECBEF001C096
:102920000EF002C00FF003C010F004C011F00A0E48
:10293000126E000E136E000E146E000E156E27EC54
:10294000C0F00E50300F0001AF6F48D0A1C001F0B1
:10295000A2C002F0A3C003F0A4C004F0ADC08AF08E
:10296000AEC08BF0D8908A378B37D8908A378B37A8
:10297000530E8A25F66EE90E8B21F76EF86A000E6B
:10298000F8220900F5CF05F00900F5CF06F009009F
:10299000F5CF07F00A00F5CF08F026ECBEF00150A5
:1029A0000F0B0001946F9451010DAF0EF324F66EDE
:1029B000FD0EF420F76EF86A000EF8220800F5CF3D
:1029C000AFF00CD00001A951C00B000AD8B47DD7DC
:1029D000800AD8B4BBD7400AD8B477D7AF510AEC35
:1029E000C6F00001AD07D8A0AE07AD29EBE1AE29D6
:1029F000D8A4E8D7000188518A6F89518B6F884B22
:102A0000892B8AC0F6FF8BC0F7FF000EF86E0D0E03
:102A1000F76403D00800F55005D0F6CFE9FFF7CFF3
:102A2000EAFFEF500001AF6FAF51D8B412003EEF94
:102A30008EF027ECC6F05FCFD5F0F1EF99F090EC77
:102A4000C5F001C005F002C006F0076A086A000E72
:102A500070ECB4F005C030F006C031F007C032F0C1
:102A600008C033F00D0E346E680E356E530E366EA0
:102A70003B0E376EF8ECA1F030C0D3F131C0D4F189
:102A800032C0D5F133C0D6F10A0E346ED70E356E92
:102A9000230E366E3C0E376ED3C138F0D4C139F0F8
:102AA000D5C13AF0D6C13BF097ECB8F0D8A005D02C
:102AB00004ECC6F00009D8B407D07E865E800E0113
:102AC0002E9D24ECC6F012003F0E0101E86F1200AB
:102AD0000D0E346E680E356E530E366E3B0E376E2D
:102AE00090ECC5F001C005F002C006F0076A086A64
:102AF000000E70ECB4F005C030F006C031F007C035
:102B000032F008C033F0F8ECA1F030C056F031C01C
:102B100057F032C058F033C059F0D3C15AF0D4C185
:102B20005BF0D5C15CF0D6C15DF03FECA5F056C0BE
:102B3000E4F157C0E5F158C0E6F159C0E7F16F0E76
:102B4000136E120E146E030E156E400E166EE4C157
:102B500017F0E5C118F0E6C119F0E7C11AF0FFEC73
:102B6000ADF013C058F214C059F215C05AF216C095
:102B70005BF2000E346E000E356E200E366E400E87
:102B8000376EE4C138F0E5C139F0E6C13AF0E7C18B
:102B90003BF097ECB8F0D8A019D0E4C134F0E5C10F
:102BA00035F0E6C136F0E7C137F0000E386E000EA2
:102BB000396E000E3A6E400E3B6E97ECB8F0D8A01E
:102BC00005D004ECC6F00009D8B407D07E865E803C
:102BD0000E012E9D24ECC6F01200220E0101E86FBA
:102BE000120058C234F059C235F05AC236F05BC2F6
:102BF00037F086ECC5F001C005F002C006F0076AA8
:102C0000086A000E70ECB4F005C030F006C031F078
:102C100007C032F008C033F0F8ECA1F030C0D6F0B5
:102C200031C0D7F032C0D8F033C0D9F0D6C030F0C0
:102C3000D7C031F0D8C032F0D9C033F00D0E346EA9
:102C4000680E356ED30E366E3B0E376EF8ECA1F083
:102C500030C0CFF131C0D0F132C0D1F133C0D2F1A8
:102C6000000E346E000E356E600E366E400E376EFE
:102C7000CFC138F0D0C139F0D1C13AF0D2C13BF068
:102C800097ECB8F0D8A005D004ECC6F00009D8B491
:102C900007D07E865E800E012E9D24ECC6F01200C9
:102CA000000E0101E86F1200000E176EC00E186EC4
:102CB0007F0E196E440E1A6ECFC113F0D0C114F0FE
:102CC000D1C115F0D2C116F0FFECADF013C034F055
:102CD00014C035F015C036F016C037F086ECC5F0DC
:102CE00001C005F002C006F0076A086A000E70EC29
:102CF000B4F005C030F006C031F007C032F008C0B3
:102D000033F0F8ECA1F030C0D6F031C0D7F032C0CB
:102D1000D8F033C0D9F0D6C030F0D7C031F0D8C029
:102D200032F0D9C033F0350E346E5E0E356EF20ED1
:102D3000366E3F0E376EF8ECA1F030C0C3F131C0F3
:102D4000C4F132C0C5F133C0C6F17FB028D15EA254
:102D5000CDD0EE0E0001F05D7F0EF159D8B052D00B
:102D6000C3C1C7F1C4C1C8F1C5C1C9F1C6C1CAF167
:102D7000F2C0B5F0F3C0B6F0F4C0B7F0F5C0B8F0EB
:102D8000C7C1B1F0C8C1B2F0C9C1B3F0CAC1B4F093
:102D9000B0ECB0F0B1C0DAF0B2C0DBF0B3C0DCF040
:102DA000B4C0DDF0C8C25AF0C9C25BF0CAC25CF060
:102DB000CBC25DF0DAC056F0DBC057F0DCC058F093
:102DC000DDC059F03FECA5F056C06CF057C06DF077
:102DD00058C06EF059C06FF09FECBAF06CC076F03E
:102DE0006DC077F06CECC4F0000176C005F077C0E0
:102DF00006F0000E06BEFF0E076E086E010E70ECA8
:102E0000B4F063D0C3C199F0C4C19AF0C5C19BF0BE
:102E1000C6C19CF0F2C09DF0F3C09EF0F4C09FF0DC
:102E2000F5C0A0F067ECBEF099C0C7F19AC0C8F138
:102E30009BC0C9F19CC0CAF1F2C0B5F0F3C0B6F0B6
:102E4000F4C0B7F0F5C0B8F0C7C1B1F0C8C1B2F076
:102E5000C9C1B3F0CAC1B4F0B0ECB0F0B1C0DAF09F
:102E6000B2C0DBF0B3C0DCF0B4C0DDF0C8C25AF0D1
:102E7000C9C25BF0CAC25CF0CBC25DF0DAC056F0EA
:102E8000DBC057F0DCC058F0DDC059F03FECA5F0D6
:102E900056C06CF057C06DF058C06EF059C06FF05E
:102EA0009FECBAF06CC076F06DC077F06CECC4F0BB
:102EB000000176C005F077C006F0000E06BEFF0EDA
:102EC000076E086E010E70ECB4F005C0F6F006C097
:102ED000F7F007C0F8F008C0F9F0CCC250F2CDC24C
:102EE00051F2CEC252F2CFC253F22CD0000E0101E9
:102EF000C76F000EC86F000EC96F000ECA6F000EBC
:102F00000201506F000E516F000E526F000E536F92
:102F1000C7C1B1F0C8C1B2F0C9C1B3F0CAC1B4F001
:102F2000F2C0B5F0F3C0B6F0F4C0B7F0F5C0B8F039
:102F3000B0ECB0F0B1C0F6F0B2C0F7F0B3C0F8F04A
:102F4000B4C0F9F050C2B1F051C2B2F052C2B3F005
:102F500053C2B4F0F2C0B5F0F3C0B6F0F4C0B7F0AD
:102F6000F5C0B8F0B0ECB0F0B1C0BFF1B2C0C0F184
:102F7000B3C0C1F1B4C0C2F1BFC130F0C0C131F0C3
:102F8000C1C132F0C2C133F0F6C034F0F7C035F041
:102F9000F8C036F0F9C037F0F8ECA1F087D0C3C123
:102FA000C7F1C4C1C8F1C5C1C9F1C6C1CAF1000E9B
:102FB0000001B56F000EB66F000EB76F000EB86F50
:102FC000C7C1B1F0C8C1B2F0C9C1B3F0CAC1B4F051
:102FD000B0ECB0F0B1C0DAF0B2C0DBF0B3C0DCF0FE
:102FE000B4C0DDF0C8C25AF0C9C25BF0CAC25CF01E
:102FF000CBC25DF0DAC056F0DBC057F0DCC058F051
:10300000DDC059F03FECA5F056C06CF057C06DF034
:1030100058C06EF059C06FF09FECBAF06CC076F0FB
:103020006DC077F06CECC4F0000176C005F077C09D
:1030300006F0000E06BEFF0E076E086E010E70EC65
:10304000B4F005C0F6F006C0F7F007C0F8F008C00D
:10305000F9F0CCC2B1F0CDC2B2F0CEC2B3F0CFC263
:10306000B4F0000E0001B56F000EB66F000EB76F22
:10307000000EB86FB0ECB0F0B1C0BFF1B2C0C0F19B
:10308000B3C0C1F1B4C0C2F1BFC130F0C0C131F0B2
:10309000C1C132F0C2C133F0F6C034F0F7C035F030
:1030A000F8C036F0F9C037F0F8ECA1F030C0BBF151
:1030B00031C0BCF132C0BDF133C0BEF1000E346E80
:1030C000000E356EA00E366E400E376EF6C038F02C
:1030D000F7C039F0F8C03AF0F9C03BF097ECB8F01F
:1030E000D8A005D004ECC6F00009D8B407D07E867D
:1030F0005E800E012E9D24ECC6F01200040E01012C
:10310000E86F1200000E176EC00E186E7F0E196E5B
:10311000440E1A6ECFC113F0D0C114F0D1C115F016
:10312000D2C116F0FFECADF013C034F014C035F08E
:1031300015C036F016C037F086ECC5F001C005F0BA
:1031400002C006F0076A086A000E70ECB4F005C011
:1031500030F006C031F007C032F008C033F0F8ECB0
:10316000A1F030C0D6F031C0D7F032C0D8F033C0B3
:10317000D9F0D6C030F0D7C031F0D8C032F0D9C0C5
:1031800033F03E0E346EF80E356E800E366E400E05
:10319000376EF8ECA1F030C0CBF131C0CCF132C0C9
:1031A000CDF133C0CEF19A0E346E990E356E590EB4
:1031B000366E410E376ECBC138F0CCC139F0CDC17F
:1031C0003AF0CEC13BF097ECB8F0D8A005D004ECB3
:1031D000C6F00009D8B407D07E865E800E012E9D11
:1031E00024ECC6F012003D0E0101E86F1200000E43
:1031F000176E000E186E000E196E400E1A6ECFC1BB
:1032000013F0D0C114F0D1C115F0D2C116F0FFEC0B
:10321000ADF013C034F014C035F015C036F016C050
:1032200037F0000E5A6E000E5B6E800E5C6E3F0E25
:103230005D6E000E176EC00E186E7F0E196E440E76
:103240001A6E86ECC5F001C005F002C006F0076AF0
:10325000086A000E70ECB4F005C013F006C014F05C
:1032600007C015F008C016F0FFECADF013C02CF04D
:1032700014C02DF015C02EF016C02FF055ECC4F080
:103280002CC056F02DC057F02EC058F02FC059F06A
:103290003FECA5F056C030F057C031F058C032F0C6
:1032A00059C033F0F8ECA1F030C0C9F031C0CAF019
:1032B00032C0CBF033C0CCF0DA0E176E030E186EAE
:1032C000AD0E196E3A0E1A6E390E5A6EB40E5B6E52
:1032D000280E5C6E3F0E5D6EC9C02CF0CAC02DF08A
:1032E000CBC02EF0CCC02FF055ECC4F02CC056F063
:1032F0002DC057F02EC058F02FC059F03FECA5F06C
:1033000056C013F057C014F058C015F059C016F04D
:10331000FFECADF013C0CDF014C0CEF015C0CFF06F
:1033200016C0D0F0D0C25AF0D1C25BF0D2C25CF06D
:10333000D3C25DF0CDC056F0CEC057F0CFC058F02C
:10334000D0C059F03FECA5F056C0D1F057C0D2F034
:1033500058C0D3F059C0D4F0D1C056F0D2C057F005
:10336000D3C058F0D4C059F0000E5A6E000E5B6EF8
:10337000200E5C6EC20E5D6E3FECA5F056C054F29E
:1033800057C055F258C056F259C057F2000E346E6D
:10339000000E356E200E366E420E376E54C238F077
:1033A00055C239F056C23AF057C23BF097ECB8F02C
:1033B000D8A005D004ECC6F00009D8B407D07E86AA
:1033C0005E800E012E9D24ECC6F012003C0E010121
:1033D000E86F12007E865E800E012E5124ECC6F04E
:1033E00012000001D551000AD8B45ED4040AD8B442
:1033F00089D6260AD8B4F1EF95F01E0AD8B41FEF8B
:1034000095F0010AD8B4F3D6020AD8B468EF95F063
:10341000E1D70101776F010177AF27D1776D775140
:10342000800A120FD8A0A5D0000E206F0A0E1F6FC1
:10343000000E1A6F640E196F7751176F186B17BF54
:103440001807E2ECBEF017C11DF118C11EF15FECC8
:10345000BDF00101D8901D371E37D8901D371E379B
:10346000240E1D27000E1E23F70E1D25F66EE80EF6
:103470001E21F76EF86A000EF8220900F5CF5AF106
:103480000900F5CF5BF10900F5CF5CF10A00F5CF3B
:103490005DF1000E206F640E1F6F77511D6F1E6B64
:1034A0001DBF1E075FECBDF00101D8901D371E3710
:1034B000D8901D371E37480E1D27000E1E23F70E0D
:1034C0001D25F66EE80E1E21F76EF86A000EF82232
:1034D0000900F5CF56F10900F5CF57F10900F5CFF6
:1034E00058F10A00F5CF59F14FECA0F056C173F135
:1034F00057C174F158C175F159C176F173C156F1D4
:1035000074C157F175C158F176C159F1000E01012E
:103510001A6F0A0E196F7751176F186B17BF1807BC
:10352000E2ECBEF00101D89017371837D890173762
:103530001837F70E1725F66EE80E1821F76EF86AA1
:10354000000EF8220900F5CF5AF10900F5CF5BF122
:103550000900F5CF5CF10A00F5CF5DF14FECA0F06A
:1035600056C16FF157C170F158C171F159C172F173
:10357000120001017751800A750FD8A05DD0000EAE
:10358000206F0A0E1F6F77511D6F1E6B1DBF1E0728
:103590005FECBDF00101D8901D371E37D8901D3764
:1035A0001E37240E1D27000E1E23F70E1D25F66E56
:1035B000E80E1E21F76EF86A000EF8220900F5CF1A
:1035C00056F10900F5CF57F10900F5CF58F10A007F
:1035D000F5CF59F1000E1A6F0A0E196F7751176F58
:1035E000186B17BF1807E2ECBEF00101D89017372F
:1035F0001837D89017371837F70E1725F66EE80EDC
:103600001821F76EF86A000EF8220900F5CF5AF17A
:103610000900F5CF5BF10900F5CF5CF10A00F5CFA9
:103620005DF14FECA0F056C16FF157C170F158C178
:1036300071F159C172F1120001017751040DF70EB9
:10364000F324F66EE80EF420F76EF86A000EF82206
:103650000900F5CF6FF10900F5CF70F10900F5CF42
:1036600071F10A00F5CF72F112007751800A120F42
:10367000D8A0A5D0000E206F0A0E1F6F000E1A6F83
:10368000640E196F7751176F186B17BF1807E2ECAC
:10369000BEF017C11DF118C11EF15FECBDF00101B4
:1036A000D8901D371E37D8901D371E37240E1D2782
:1036B000000E1E23C30E1D25F66EE80E1E21F76EAA
:1036C000F86A000EF8220900F5CF5AF10900F5CF8B
:1036D0005BF10900F5CF5CF10A00F5CF5DF1000E5A
:1036E000206F640E1F6F77511D6F1E6B1DBF1E076D
:1036F0005FECBDF00101D8901D371E37D8901D3703
:103700001E37480E1D27000E1E23C30E1D25F66E04
:10371000E80E1E21F76EF86A000EF8220900F5CFB8
:1037200056F10900F5CF57F10900F5CF58F10A001D
:10373000F5CF59F14FECA0F056C173F157C174F1B8
:1037400058C175F159C176F173C156F174C157F181
:1037500075C158F176C159F1000E01011A6F0A0EB8
:10376000196F7751176F186B17BF1807E2ECBEF08F
:103770000101D89017371837D89017371837C30E6C
:103780001725F66EE80E1821F76EF86A000EF8227B
:103790000900F5CF5AF10900F5CF5BF10900F5CF2B
:1037A0005CF10A00F5CF5DF14FECA0F056C16FF16E
:1037B00057C170F158C171F159C172F11200010184
:1037C0007751800A750FD8A05DD0000E206F0A0EC9
:1037D0001F6F77511D6F1E6B1DBF1E075FECBDF085
:1037E0000101D8901D371E37D8901D371E37240E83
:1037F0001D27000E1E23C30E1D25F66EE80E1E218A
:10380000F76EF86A000EF8220900F5CF56F10900AC
:10381000F5CF57F10900F5CF58F10A00F5CF59F16E
:10382000000E1A6F0A0E196F7751176F186B17BFBA
:103830001807E2ECBEF00101D89017371837D8907E
:1038400017371837C30E1725F66EE80E1821F76ED6
:10385000F86A000EF8220900F5CF5AF10900F5CFF9
:103860005BF10900F5CF5CF10A00F5CF5DF14FEC9B
:10387000A0F056C16FF157C170F158C171F159C133
:1038800072F1120001017751040DC30EF324F66E9C
:10389000E80EF420F76EF86A000EF8220900F5CF62
:1038A0006FF10900F5CF70F10900F5CF71F10A0051
:1038B000F5CF72F11200516E51AE1FD1516C5150C3
:1038C000800A120FD8A0A1D0000E0A6E0A0E096E4F
:1038D000000E046E640E036E5150016E026A01BE4A
:1038E00002061BECBFF001C007F002C008F0E4ECD8
:1038F000BDF0D89007360836D89007360836240E23
:103900000726000E0822F70E0724F66EE80E0820A0
:10391000F76EF86A000EF8220900F5CF34F00900BE
:10392000F5CF35F00900F5CF36F00A00F5CF37F0C6
:10393000000E0A6E640E096E5150076E086A07BECB
:103940000806E4ECBDF0D89007360836D890073664
:103950000836480E0726000E0822F70E0724F66EDA
:10396000E80E0820F76EF86A000EF8220900F5CF7D
:1039700030F00900F5CF31F00900F5CF32F00A0040
:10398000F5CF33F0F8ECA1F030C04DF031C04EF07F
:1039900032C04FF033C050F04DC030F04EC031F067
:1039A0004FC032F050C033F0000E046E0A0E036EAA
:1039B0005150016E026A01BE02061BECBFF0D890A6
:1039C00001360236D89001360236F70E0124F66E23
:1039D000E80E0220F76EF86A000EF8220900F5CF13
:1039E00034F00900F5CF35F00900F5CF36F00A00C4
:1039F000F5CF37F0F8ECA1F030C049F031C04AF013
:103A000032C04BF033C04CF012005150800A750F99
:103A1000D8A05BD0000E0A6E0A0E096E5150076ED8
:103A2000086A07BE0806E4ECBDF0D89007360836F1
:103A3000D89007360836240E0726000E0822F70E07
:103A40000724F66EE80E0820F76EF86A000EF822DA
:103A50000900F5CF30F00900F5CF31F00900F5CFBE
:103A600032F00A00F5CF33F0000E046E0A0E036E3A
:103A70005150016E026A01BE02061BECBFF0D890E5
:103A800001360236D89001360236F70E0124F66E62
:103A9000E80E0220F76EF86A000EF8220900F5CF52
:103AA00034F00900F5CF35F00900F5CF36F00A0003
:103AB000F5CF37F0F8ECA1F030C049F031C04AF052
:103AC00032C04BF033C04CF012005150040DF70ED1
:103AD000F324F66EE80EF420F76EF86A000EF82272
:103AE0000900F5CF49F00900F5CF4AF00900F5CFFC
:103AF0004BF00A00F5CF4CF012005150800A120F23
:103B0000D8A0A1D0000E0A6E0A0E096E000E046E37
:103B1000640E036E5150016E026A01BE02061BEC78
:103B2000BFF001C007F002C008F0E4ECBDF0D8908F
:103B300007360836D89007360836240E0726000EBA
:103B40000822C30E0724F66EE80E0820F76EF86A06
:103B5000000EF8220900F5CF34F00900F5CF35F05A
:103B60000900F5CF36F00A00F5CF37F0000E0A6EE7
:103B7000640E096E5150076E086A07BE0806E4EC31
:103B8000BDF0D89007360836D89007360836480E6C
:103B90000726000E0822C30E0724F66EE80E082042
:103BA000F76EF86A000EF8220900F5CF30F0090030
:103BB000F5CF31F00900F5CF32F00A00F5CF33F040
:103BC000F8ECA1F030C04DF031C04EF032C04FF0F3
:103BD00033C050F04DC030F04EC031F04FC032F025
:103BE00050C033F0000E046E0A0E036E5150016E89
:103BF000026A01BE02061BECBFF0D8900136023605
:103C0000D89001360236C30E0124F66EE80E02206B
:103C1000F76EF86A000EF8220900F5CF34F00900BB
:103C2000F5CF35F00900F5CF36F00A00F5CF37F0C3
:103C3000F8ECA1F030C049F031C04AF032C04BF08E
:103C400033C04CF012005150800A750FD8A05BD0E1
:103C5000000E0A6E0A0E096E5150076E086A07BE02
:103C60000806E4ECBDF0D89007360836D890073641
:103C70000836240E0726000E0822C30E0724F66E0F
:103C8000E80E0820F76EF86A000EF8220900F5CF5A
:103C900030F00900F5CF31F00900F5CF32F00A001D
:103CA000F5CF33F0000E046E0A0E036E5150016E14
:103CB000026A01BE02061BECBFF0D8900136023644
:103CC000D89001360236C30E0124F66EE80E0220AB
:103CD000F76EF86A000EF8220900F5CF34F00900FB
:103CE000F5CF35F00900F5CF36F00A00F5CF37F003
:103CF000F8ECA1F030C049F031C04AF032C04BF0CE
:103D000033C04CF012005150040DC30EF324F66E74
:103D1000E80EF420F76EF86A000EF8220900F5CFDD
:103D200049F00900F5CF4AF00900F5CF4BF00A0041
:103D3000F5CF4CF012000201D46FD50E0101176FC0
:103D4000020E186FF50E196FFF0E1A6F000E1C6F22
:103D50000F0E1B6FBFECBFF054D0D50E0101176FD3
:103D6000020E186FC90E196FFF0E1A6FAFECC1F07B
:103D70005DD0D50E0101176F020E186F340E196F4A
:103D8000FD0E1A6FAFECC1F051D0D50E0101176FC7
:103D9000020E186FDE0E196FFF0E1A6FAFECC1F036
:103DA00045D0D50E0101176F020E186FE40E196F82
:103DB000FF0E1A6FAFECC1F039D0D50E0101176FAD
:103DC000020E186FF00E196FFF0E1A6FAFECC1F0F4
:103DD0002DD0D50E0101176F020E186FF80E196F56
:103DE000FF0E1A6FAFECC1F021D0D50E0101176F95
:103DF000020E186FC90E196FFF0E1A6FAFECC1F0EB
:103E000015D00101B351000AD8B4A7D7010AD8B41C
:103E1000B0D7030AD8B4B9D7010AD8B4C2D7070AB1
:103E2000D8B4CBD7010AD8B4D4D7DFD7D50E010187
:103E3000176F020E186FFA0E196FFF0E1A6FAFECA4
:103E4000C1F06CD0D50E0101176F020E186FC80EAD
:103E5000196FFF0E1A6FAFECC1F07BD0D50E0101C8
:103E6000176F020E186FCB0E196FFF0E1A6FAFECA3
:103E7000C1F06FD0D50E0101176F020E186FD10E71
:103E8000196FFF0E1A6FAFECC1F063D0D50E0101B0
:103E9000176F020E186FD70E196FFF0E1A6FAFEC67
:103EA000C1F057D0D50E0101176F020E186FDD0E4D
:103EB000196FFF0E1A6FAFECC1F04BD0D50E010198
:103EC000176F020E186FE30E196FFF0E1A6FAFEC2B
:103ED000C1F03FD0D50E0101176F020E186FE90E29
:103EE000196FFF0E1A6FAFECC1F033D0D50E010180
:103EF000176F020E186FEF0E196FFF0E1A6FAFECEF
:103F0000C1F027D0D50E0101176F020E186FEF0E0A
:103F1000196FFF0E1A6FAFECC1F01BD00201D45124
:103F2000000AD8B48FD7010AD8B498D7030AD8B4F6
:103F3000A1D7010AD8B4AAD7070AD8B4B3D7010ABF
:103F4000D8B4BCD7030AD8B4C5D7010AD8B4CED7E1
:103F5000D9D7D50E0101176F020E186FFA0E196F1F
:103F6000FF0E1A6FAFECC1F06CD0D50E0101176FC8
:103F7000020E186F410E196FFF0E1A6FAFECC1F0F1
:103F80007BD0D50E0101176F020E186FCE0E196F80
:103F9000FF0E1A6FAFECC1F06FD0D50E0101176F95
:103FA000020E186FD40E196FFF0E1A6FAFECC1F02E
:103FB00063D0D50E0101176F020E186FDA0E196F5C
:103FC000FF0E1A6FAFECC1F057D0D50E0101176F7D
:103FD000020E186FE00E196FFF0E1A6FAFECC1F0F2
:103FE0004BD0D50E0101176F020E186FE60E196F38
:103FF000FF0E1A6FAFECC1F03FD0D50E0101176F65
:10400000020E186FEC0E196FFF0E1A6FAFECC1F0B5
:1040100033D0D50E0101176F020E186FF20E196F13
:10402000FF0E1A6FAFECC1F027D0D50E0101176F4C
:10403000020E186FF20E196FFF0E1A6FAFECC1F07F
:104040001BD00101B251000AD8B48FD7010AD8B4ED
:1040500098D7030AD8B4A1D7010AD8B4AAD7070AB7
:10406000D8B4B3D7010AD8B4BCD7030AD8B4C5D7DB
:10407000010AD8B4CED7D9D7D50E0101176F020ED9
:10408000186FFC0E196FFF0E1A6FAFECC1F0D50E52
:104090000101826F020E836F50EC87F01200010164
:1040A0005951800B626F59515925646F58BF648113
:1040B0006451D8B40DD06429D8A408D0000E566F2E
:1040C000000E576F000E586F000E596F588F08D0B2
:1040D000000E566F000E576F000E586F000E596F8E
:1040E0005D51800B621B5D515D25636F5CBF638119
:1040F0006351D8B40DD06329D8A408D0000E5A6FEC
:10410000000E5B6F000E5C6F000E5D6F5C8F08D061
:10411000000E5A6F000E5B6F000E5C6F000E5D6F3D
:104120006351D8B403D06451D8A409D0000E566F9F
:10413000000E576F000E586F000E596F12005C5141
:104140005603F3CF6DF1F4CF6EF16D51656F666B71
:10415000676B686B6E51696F6A6B6B6B6C6B5B51F5
:104160005703F3CF6DF1F4CF6EF16D516527000E5B
:104170006623672368236E516927000E6A236B2329
:104180006C235A515803F3CF6DF1F4CF6EF16D519A
:104190006527000E6623672368236E516927000E8A
:1041A0006A236B236C2367C168F166C167F165C13F
:1041B00066F1656B5A515703F3CF6DF1F4CF6EF191
:1041C0006D5165276E516623000E6723000E68232C
:1041D0005B515603F3CF6DF1F4CF6EF16D5165274E
:1041E0006E516623000E6723000E682367C168F1D5
:1041F00066C167F165C166F1656B5A515603F3CF2D
:104200006DF1F4CF6EF16D5165276E516623000E8E
:104210006723000E68235C515703F3CF6DF1F4CF91
:104220006EF16D5169276E516A23000E6B23000EEB
:104230006C235B515803F3CF6DF1F4CF6EF16D51E8
:1042400069276E516A23000E6B23000E6C235C51AC
:104250005803F3CF6DF1F4CF6EF16D515E6F6E5177
:104260005F6F606B616B60C161F15FC160F15EC1E6
:104270005FF15E6B5E5169275F516A2360516B236A
:1042800061516C2365C15EF166C15FF167C160F188
