:0400000085EF00F098
:060008005F82A9EF05F084
:100018005F80D8CF61F2E8CF62F2E0CF63F2FACF27
:1000280064F2FBCF65F2E9CF66F2EACF67F2E1CF7F
:1000380068F2E2CF69F2D9CF6AF2DACF6BF2F3CF86
:100048006CF2F4CF6DF2F6CF6EF2F7CF6FF2F8CF15
:1000580070F2F5CF71F25FC072F260C073F261C0E6
:1000680074F262C075F20E012EBB38AB03D04DECB2
:100078001FF01BD02CBD36AD0DD001D816D0050011
:10008800FA6E0201B751FD6EB851FE6EB951FF6E9E
:10009800FA5012002EBD38AD03D018EC1EF005D072
:1000A8002EB338A302D0C2EC1FF075C262F074C23E
:1000B80061F073C260F072C25FF071C2F5FF70C286
:1000C800F8FF6FC2F7FF6EC2F6FF6DC2F4FF6CC295
:1000D800F3FF6BC2DAFF6AC2D9FF69C2E2FF68C2E6
:1000E800E1FF67C2EAFF66C2E9FF65C2FBFF64C2BF
:1000F800FAFF63C2E0FF62C2E8FF61C2D8FF5F9007
:1001080010002AEF08F003C007F0086A096A0234F1
:10011800073601E3088007500F6E0F50D8A409D0A6
:10012800000E016E000E026E000E036E000E046ECD
:10013800120006C007F0086A096A0534073601E3A9
:10014800088007500E6E0E50D8A409D0000E016E1C
:10015800000E026E000E036E000E046E1200028E78
:10016800FF0E0116FF0E0216000E0316058EFF0E77
:100178000416FF0E0516000E0616000E0A6E000E77
:100188000B6E000E0C6E000E0D6E7F0E0F5E0E5085
:10019800980F0F5E180E0E6ED8900A360B360C3676
:1001A8000D360450015C0550025806500358D8A07B
:1001B80007D00450015E0550025A0650035A0A80BF
:1001C800D8900136023603360E2EE6D70FAE16D07B
:1001D8000F50800A970FD8B009D0000E016E000E9C
:1001E800026E000E036E000E046E1200D8900D32DF
:1001F8000C320B320A320F3EF9D715D0170E0F64A6
:100208000FD0000E016E000E026E000E036E000E7F
:10021800046E1200D8900A360B360C360D360F06CF
:100228000F50D8A4F7D70AC001F00BC002F00CC0D9
:1002380003F00DC004F012000301023503350D6F01
:100248000D51D8A409D0000E006F000E016F000EEA
:10025800026F000E036F1200063507350C6F0C5144
:10026800D8A409D0000E006F000E016F000E026FB7
:10027800000E036F1200028FFF0E0017FF0E01170A
:10028800FF0E0217000E0317068FFF0E0417FF0E4E
:100298000517FF0E0617000E0717000E086F000E51
:1002A800096F000E0A6F000E0B6F7F0E0D5F0C5169
:1002B800A00F0D5F200E0C6FD890083709370A374A
:1002C8000B370451005D0551015906510259075178
:1002D8000359D8A009D00451005F0551015B0651AC
:1002E800025B0751035B0881D8900037013702375A
:1002F80003370C2FE1D70DAF16D00D51800A9F0F91
:10030800D8B009D0000E006F000E016F000E026F0A
:10031800000E036F1200D8900B330A3309330833E9
:100328000D3FF9D715D01F0E0D650FD0000E006FC9
:10033800000E016F000E026F000E036F1200D890BE
:10034800083709370A370B370D070D51D8A4F7D7E7
:1003580008C300F309C301F30AC302F30BC303F391
:1003680012000101143515351F6F1F51D8A409D08B
:10037800000E126F000E136F000E146F000E156F33
:100388001200183519351E6F1E51D8A409D0000E59
:10039800126F000E136F000E146F000E156F12000F
:1003A800148FFF0E1217FF0E1317FF0E1417000EEF
:1003B8001517188FFF0E1617FF0E1717FF0E1817B1
:1003C800000E1917000E1A6F000E1B6F000E1C6F1F
:1003D800000E1D6F7F0E1F5F1E51A00F1F5F200EA6
:1003E8001E6FD8901A371B371C371D371651125DF0
:1003F800175113591851145919511559D8A009D022
:100408001651125F1751135B1851145B1951155B84
:100418001A81D89012371337143715371E2FE1D7A2
:100428001FAF16D01F51800A9F0FD8B009D0000EF9
:10043800126F000E136F000E146F000E156F12006E
:10044800D8901D331C331B331A331F3FF9D715D0EF
:100458001F0E1F650FD0000E126F000E136F000ED7
:10046800146F000E156F1200D8901A371B371C37FF
:100478001D371F071F51D8A4F7D71AC112F11BC186
:1004880013F11CC114F11DC115F112000334043419
:100498000E6E0E50D8A409D0000E016E000E026E2A
:1004A800000E036E000E046E1200073408340D6E41
:1004B8000D50D8A409D0000E016E000E026E000E79
:1004C800036E000E046E1200038EFF0E0116FF0E5F
:1004D8000216FF0E0316000E0416078EFF0E0516F1
:1004E800FF0E0616FF0E0716000E0816000E096E00
:1004F800000E0A6E000E0B6E000E0C6E7F0E0E5E66
:100508000D50A00F0E5E200E0D6ED89009360A36DB
:100518000B360C360550015C06500258075003583C
:1005280008500458D8A009D00550015E0650025A58
:100538000750035A0850045A0980D89001360236E9
:10054800033604360D2EE1D70EAE16D00E50800AB3
:100558009F0FD8B009D0000E016E000E026E000E7B
:10056800036E000E046E1200D8900C320B320A3261
:1005780009320E3EF9D715D01F0E0E640FD0000EAB
:10058800016E000E026E000E036E000E046E120065
:10059800D89009360A360B360C360E060E50D8A4FB
:1005A800F7D709C001F00AC002F00BC003F00CC075
:1005B80004F01200000E03014815506F000E491593
:1005C800516F800E4A15526F7F0E4B15536F505165
:1005D800511152115311D8A408D0000E486F000EC3
:1005E800496F000E4A6F000E4B6F000E4C15506F8E
:1005F800000E4D15516F800E4E15526F7F0E4F1520
:10060800536F5051511152115311D8A408D0000EF4
:100618004C6F000E4D6F000E4E6F000E4F6F4BAFBC
:100628001DD048C350F349C351F34AC352F34BC3D7
:1006380053F3501F511F521F531F502B000E5123AD
:1006480052235323000E5025486F000E5121496F45
:10065800000E52214A6F800E53214B6F4FAF1DD0B1
:100668004CC350F34DC351F34EC352F34FC353F32E
:10067800501F511F521F531F502B000E512352233E
:100688005323000E50254C6F000E51214D6F000E64
:1006980052214E6F800E53214F6F000E481B000EE3
:1006A800491B000E4A1B800E4B1B000E4C1B000EF4
:1006B8004D1B000E4E1B800E4F1B4C51485D4D517B
:1006C80049594E514A594F514B59D8B002D0D89038
:1006D8001200D8801200000E010195159D6F000EC2
:1006E80096159E6F800E97159F6F7F0E9815A06FB9
:1006F8009D519E119F11A011D8A408D0000E956F8E
:10070800000E966F000E976F000E986F000E9915E9
:100718009D6F000E9A159E6F800E9B159F6F7F0E22
:100728009C15A06F9D519E119F11A011D8A408D0AF
:10073800000E996F000E9A6F000E9B6F000E9C6F53
:1007480098AF1DD095C19DF196C19EF197C19FF1BB
:1007580098C1A0F19D1F9E1F9F1FA01F9D2B000EDB
:100768009E239F23A023000E9D25956F000E9E219A
:10077800966F000E9F21976F800EA021986F9CAFF7
:100788001DD099C19DF19AC19EF19BC19FF19CC159
:10079800A0F19D1F9E1F9F1FA01F9D2B000E9E2333
:1007A8009F23A023000E9D25996F000E9E219A6F0E
:1007B800000E9F219B6F800EA0219C6F000E951B41
:1007C800000E961B000E971B800E981B000E991B9F
:1007D800000E9A1B000E9B1B800E9C1B9951955D69
:1007E8009A5196599B5197599C519859D8B002D013
:1007F800D8901200D8801200000E00017D15856F78
:10080800000E7E15866F800E7F15876F7F0E801510
:10081800886F8551861187118811D8A408D0000ED9
:100828007D6F000E7E6F000E7F6F000E806F000ED2
:100838008115856F000E8215866F800E8315876F70
:100848007F0E8415886F8551861187118811D8A469
:1008580008D0000E816F000E826F000E836F000EAD
:10086800846F80AF1DD07DC085F07EC086F07FC0CC
:1008780087F080C088F0851F861F871F881F852BFB
:10088800000E862387238823000E85257D6F000EA2
:1008980086217E6F000E87217F6F800E8821806FF2
:1008A80084AF1DD081C085F082C086F083C087F0F8
:1008B80084C088F0851F861F871F881F852B000E20
:1008C800862387238823000E8525816F000E8621C5
:1008D800826F000E8721836F800E8821846F000E3F
:1008E8007D1B000E7E1B000E7F1B800E801B000EE2
:1008F800811B000E821B000E831B800E841B8151FE
:100908007D5D82517E5983517F5984518059D8B079
:1009180002D0D8901200D8801200BEC2DDF30301C5
:10092800DE6B000EE26F000EE16FE2BF06D0E2510F
:100938000FE1400EE15DD8B00BD0400EE125D96E35
:10094800050EE221DA6E000EDF6EE14BE22BEDD7E9
:10095800000EE06F000EDF6F0ED0F2EC18F003010E
:10096800DA6F400EDF25D96E050EE021DA6EDAC3A4
:10097800DFFFDF4BE02BDD51DF5DE051800ADA6FEE
:10098800DE51800ADA59D8A0E8D7FAC0BFF217D0EA
:10099800FF0EDA6FFF0EDB6F400E006F050E016F62
:1009A80053EC17F00301DA510027DB510123400E05
:1009B8000025D96E050E0121DA6E000EDF6EFF0EDE
:1009C800DA6FFF0EDB6F400E006F050E016F53EC00
:1009D80017F00301DA510027DB510123400E0025EF
:1009E800D96E050E0121DA6E0A0EDE18D8B4D0D7FA
:1009F800FF0EDA6FFF0EDB6F400E006F050E016F02
:100A080053EC17F00301DA510027DB510123400EA4
:100A18000025D96E050E0121DA6E0D0EDE18D8B448
:100A2800B7D70001FD93400E0301D46F050ED56FB3
:100A380000EC80F0120089C001F08AC002F08BC07F
:100A480003F08CC004F0910E056E000E066EFDECEE
:100A580013F0000192AF14D08CAF09D0000E896F4B
:100A6800000E8A6F800E8B6FBF0E8C6F1200000E07
:100A7800896F000E8A6F000E8B6F000E8C6F12004C
:100A8800925104E11D0E915DD8A009D089C089F06A
:100A98008AC08AF08BC08BF08CC08CF0120089C0A1
:100AA80031F08AC032F08BC033F08CC034F069EC7E
:100AB8000AF031C03BF032C03CF033C03DF034C0E6
:100AC8003EF0010E48ECFDF03BC08DF03CC08EF0CE
:100AD8003DC08FF03EC090F089C07DF08AC07EF0A6
:100AE8008BC07FF08CC080F08DC081F08EC082F00A
:100AF8008FC083F090C084F000EC04F00001D8B0FF
:100B08001BD08DC06DF08EC06EF08FC06FF090C09E
:100B180070F0000E716F000E726F800E736FBF0E53
:100B2800746F01ECE1F06DC089F06EC08AF06FC09F
:100B38008BF070C08CF012008DC089F08EC08AF0E6
:100B48008FC08BF090C08CF01200FACF00F1FBCF71
:100B580001F1E9CF02F1EACF03F1E1CF04F1E2CFED
:100B680005F1D9CF06F1DACF07F1F3CF08F1F4CFC9
:100B780009F1F6CF0AF1F7CF0BF1F8CF0CF1F5CF69
:100B88000DF15FC00EF160C00FF161C010F162C0DD
:100B980011F10E012BBF35AF03D021EC1CF033D07F
:100BA8002CB336A303D084EC22F02DD02CB136A17F
:100BB80003D012ECF5F027D029B133A103D05DECB6
:100BC80022F021D02EB738A703D0FBEC1FF01BD0A2
:100BD8002CBF36AF0DD001D816D00500FA6E04012F
:100BE8002851FD6E2951FE6E2A51FF6EFA501200EF
:100BF8002EB938A903D032EC1EF005D02AB334A39D
:100C080002D075EC1FF011C162F010C161F00FC184
:100C180060F00EC15FF00DC1F5FF0CC1F8FF0BC10C
:100C2800F7FF0AC1F6FF09C1F4FF08C1F3FF07C1C6
:100C3800DAFF06C1D9FF05C1E2FF04C1E1FF03C124
:100C4800EAFF02C1E9FF01C1FBFF00C1FAFF5F92A1
:100C5800110080C382F381C383F30301D8908237E4
:100C68008337D890823783377EC384F37FC385F375
:100C7800825184278351852384C3F6FF85C3F7FFF8
:100C8800000EF86E0900F5CF86F30900F5CF87F35B
:100C98000900F5CF88F30A00F5CF89F34CD086C355
:100CA80065F387C366F388C367F389C368F37AC3B8
:100CB80061F37BC362F37CC363F37DC364F3C9EC64
:100CC800D8F061C334F362C335F363C336F364C346
:100CD80037F303018007D8A0810780C382F381C35B
:100CE80083F3D89082378337D890823783377EC38F
:100CF80084F37FC385F3825184278351852384C37A
:100D0800F6FF85C3F7FF000EF86E0900F5CF38F33C
:100D18000900F5CF39F30900F5CF3AF30A00F5CF0A
:100D28003BF3C3ECDDF034C386F335C387F336C336
:100D380088F337C389F3030180518111D8A4AFD751
:100D480086C37AF387C37BF388C37CF389C37DF3B7
:100D580012009BC19DF19CC19EF10101D8909D3765
:100D68009E37D8909D379E3799C19FF19AC1A0F1BF
:100D78009D519F279E51A0239FC1F6FFA0C1F7FF59
:100D8800000EF86E0900F5CFA1F10900F5CFA2F128
:100D98000900F5CFA3F10A00F5CFA4F14CD0A1C109
:100DA8003DF1A2C13EF1A3C13FF1A4C140F195C1FB
:100DB80039F196C13AF197C13BF198C13CF172EC17
:100DC800DAF039C181F13AC182F13BC183F13CC10A
:100DD80084F101019B07D8A09C079BC19DF19CC190
:100DE8009EF1D8909D379E37D8909D379E3799C1F0
:100DF8009FF19AC1A0F19D519F279E51A0239FC1A9
:100E0800F6FFA0C1F7FF000EF86E0900F5CF85F1D7
:100E18000900F5CF86F10900F5CF87F10A00F5CF73
:100E280088F162ECDFF081C1A1F182C1A2F183C136
:100E3800A3F184C1A4F101019B519C11D8A4AFD79F
:100E4800A1C195F1A2C196F1A3C197F1A4C198F1EE
:100E5800120083C085F084C086F00001D8908537E1
:100E68008637D8908537863781C087F082C088F06A
:100E7800855187278651882387C0F6FF88C0F7FFEA
:100E8800000EF86E0900F5CF89F00900F5CF8AF059
:100E98000900F5CF8BF00A00F5CF8CF04CD089C053
:100EA80013F08AC014F08BC015F08CC016F07DC00A
:100EB8000FF07EC010F07FC011F080C012F01BEC64
:100EC800DCF00FC06DF010C06EF011C06FF012C0F2
:100ED80070F000018307D8A0840783C085F084C020
:100EE80086F0D89085378637D8908537863781C081
:100EF80087F082C088F0855187278651882387C06C
:100F0800F6FF88C0F7FF000EF86E0900F5CF71F004
:100F18000900F5CF72F00900F5CF73F00A00F5CF9C
:100F280074F001ECE1F06DC089F06EC08AF06FC01A
:100F38008BF070C08CF0000183518411D8A4AFD716
:100F480089C07DF08AC07EF08BC07FF08CC080F0B5
:100F5800120026EC17F00301EE6F150E0301E46F83
:100F68004B0EE36FBE0EE82EFED7E32FFCD7E42F1F
:100F7800FAD700F07FEC1CF0F0ECFDF07F807F9258
:100F88000001FD8175EC22F0000ED2EC21F0B80EC4
:100F98000301006F360E016F000E026FE0EC21F0C6
:100FA800BA0E0301006F7E0E016F010E026F11EC85
:100FB80022F0440E0301006F430E016F000E026F12
:100FC800D9EC21F0DC0E0301006F420E016F000E18
:100FD800026FFCEC21F0660E0301006F440E016FF6
:100FE800000E026FE7EC21F0040E0301006F240EDF
:100FF800016F000E026FEEEC21F0B40E0301006FDA
:10100800920E016F010E026FF5EC21F087EC22F0D1
:101018000E012991F28EF28CBBEC21F0ABEC21F0A1
:1010280099EC21F01DEC10F0E1EC1BF0000E03012F
:10103800ED6F5AECC9F0BAECCDF00001FDB391ECBC
:1010480004F048ECF6F056EC21F0F7D7420EF66EB5
:10105800400EF76E000EF86E05EEA2F010EE24F0CA
:101068000900F5CFEEFFE550E150FAE1E40EF66E27
:10107800440EF76E000EF86E04EEF8F010EE06F06F
:101088000900F5CFEEFFE550E150FAE15A0EF66E91
:10109800440EF76E000EF86E02EECDF010EE0CF076
:1010A8000900F5CFEEFFE550E150FAE13E0EF66E8D
:1010B800450EF76E000EF86E0900F5CFEBF1DE0E67
:1010C800F66E440EF76E000EF86E00EEF3F010EEBA
:1010D80006F00900F5CFEEFFE550E150FAE106EE23
:1010E80000F0800EEE6AE806FDE105EE00F0A20EC3
:1010F800EE6AE806FDE104EE00F0AE0EEE6AE806E0
:10110800FDE103EEE5F0090EEE6AE806FDE102EE08
:1011180076F0570EEE6AE806FDE101EED6F0150E00
:10112800EE6AE806FDE10001FD6B0001FC6BFB6B5C
:10113800FA6BF96B5F905F920001ADEF07F00DC39A
:1011480011F30301126B136B0C35113701E3128194
:101158001151186F1851D8A407D0000E0B6F000E4C
:101168000C6F000E0D6F120010C311F3126B136B8E
:101178000F35113701E312811151196F1951D8A494
:1011880007D0000E0B6F000E0C6F000E0D6F1200D3
:10119800000E156F000E166F000E176F1951890F8C
:1011A800185F0DC319F31051191B800E19170C8FF6
:1011B800FF0E0B17FF0E0C17000E0D170F8FFF0EEB
:1011C8000E17FF0E0F17000E1017180E146FD89079
:1011D8001537163717370E510B5D0F510C59105133
:1011E8000D59D8A007D00E510B5F0F510C5B105151
:1011F8000D5B1581D8900B370C370D37142FE7D7B7
:1012080015C300F316C301F317C302F318C303F39E
:1012180019C304F325EC0DF000C30BF301C30CF361
:1012280002C30DF312001FC123F10101246B256BCA
:101238001E35233701E3248123512A6F2A51D8A46C
:1012480007D0000E1D6F000E1E6F000E1F6F1200DC
:1012580022C123F1246B256B2135233701E3248137
:1012680023512B6F2B51D8A407D0000E1D6F000EF1
:101278001E6F000E1F6F1200000E276F000E286FE2
:10128800000E296F2B51890F2A5F1FC12BF12251A4
:101298002B1B800E2B171E8FFF0E1D17FF0E1E1700
:1012A800000E1F17218FFF0E2017FF0E2117000EAB
:1012B8002217180E266FD89027372837293720513C
:1012C8001D5D21511E5922511F59D8A007D0205108
:1012D8001D5F21511E5B22511F5B2781D8901D374E
:1012E8001E371F37262FE7D727C112F128C113F160
:1012F80029C114F12AC115F12BC116F17DEC0DF0AD
:1013080012C11DF113C11EF114C11FF11200030116
:1013180010351135176F1751D8A409D0000E0E6F6C
:10132800000E0F6F000E106F000E116F12000EC32B
:1013380012F30FC313F310C314F311C315F3200EE4
:1013480005D0D8901533143313331233E82EF9D758
:101358001251166F108FFF0E0E17FF0E0F17FF0E8C
:101368001017000E1117960E175F17AF16D01751EA
:10137800800A970FD8B009D0000E0E6F000E0F6FBD
:10138800000E106F000E116F1200D8901133103339
:101398000F330E33173FF9D715D01F0E17650FD02F
:1013A800000E0E6F000E0F6F000E106F000E116F03
:1013B8001200D8900E370F3710371137170717510B
:1013C800D8A4F7D71651D8B408D0111F101F0F1F73
:1013D8000E6D000E0F23102311230EC30EF30FC33F
:1013E8000FF310C310F311C311F3120001015D359F
:1013F8005E35646F6451D8A409D0000E5B6F000E8F
:101408005C6F000E5D6F000E5E6F12005BC15FF1D6
:101418005CC160F15DC161F15EC162F1200E05D071
:10142800D8906233613360335F33E82EF9D75F5168
:10143800636F5D8FFF0E5B17FF0E5C17FF0E5D1766
:10144800000E5E17960E645F64AF16D06451800A72
:10145800970FD8B009D0000E5B6F000E5C6F000EBE
:101468005D6F000E5E6F1200D8905E335D335C33A3
:101478005B33643FF9D715D01F0E64650FD0000E9B
:101488005B6F000E5C6F000E5D6F000E5E6F1200EA
:10149800D8905B375C375D375E3764076451D8A4F2
:1014A800F7D76351D8B408D05E1F5D1F5C1F5B6D12
:1014B800000E5C235D235E235BC15BF15CC15CF1C4
:1014C8005DC15DF15EC15EF11200333434343A6EB1
:1014D8003A50D8A409D0000E316E000E326E000EBC
:1014E800336E000E346E120031C035F032C036F063
:1014F80033C037F034C038F0200E05D0D8903832D9
:10150800373236323532E82EF9D73550396E338EC8
:10151800FF0E3116FF0E3216FF0E3316000E34166C
:10152800960E3A5E3AAE16D03A50800A970FD8B067
:1015380009D0000E316E000E326E000E336E000EB2
:10154800346E1200D89034323332323231323A3E6D
:10155800F9D715D01F0E3A640FD0000E316E000E69
:10156800326E000E336E000E346E1200D890313693
:101578003236333634363A063A50D8A4F7D739508B
:10158800D8B408D0341E331E321E316C000E3222FD
:101598003322342231C031F032C032F033C033F05C
:1015A80034C034F0120003D00301064B072B06C3E6
:1015B800D9FF07C3DAFF200EDE18D8B4F5D706C363
:1015C800D9FF07C3DAFF090EDE18D8B4EDD7000E2D
:1015D80003010C6F000E0B6F000E0A6F06C3D9FFD4
:1015E80007C3DAFF2D0EDE18D8A402D00A2B26D0A6
:1015F80006C3D9FF07C3DAFF2B0EDE18D8A420D004
:101608001DD00BC300F30CC301F3000E0301036FDD
:101618000A0E026F39EC1FF006C3D9FF07C3DAFFC1
:10162800DF500301086F096B005108270151092396
:10163800D00E08250B6FFF0E09210C6F064B072BE8
:1016480006C3D9FF07C3DAFFDF507AEC20F0D8B021
:10165800D8D703010A51D8B40DD00BC308F30CC373
:1016680009F3081F091F084B092B08C306F309C310
:1016780007F312000BC306F30CC307F31200000EA6
:101688007D6E000E7C6E000E796E000E7E6E000E72
:101698007A6E000E7F6E000E7B6E000E806E040E5A
:1016A800856E000E866EBD0E816E400E876E000E32
:1016B800826E000E886EC00E836E000E846E000E61
:1016C8000E01A76F000E9A6F040EAF6F200EBC6F4D
:1016D800000EB46F9D0E926F000EA66F000EB36FD2
:1016E800000EAE6F000E996F000EBB6F000E916F6B
:1016F800000EA16F000EC06F000EAD6F010EB26F2D
:10170800000E906F000EBA6F000E986F000EBF6F3C
:10171800000EA06F000EA56F8F6997699F69A46975
:10172800AC69B169B969BE690E0E896F170E196F78
:10173800050E0D01F06F1A0E0E01686F360E116F4F
:10174800190E696F160E1A6F12000301206F1F0E13
:101758000301206503D07F0E206502D0200E206F84
:10176800400E146F000E106FFF0E116F2051126F94
:10177800136BD89012371337D89012371337D89085
:101788001237133710511227115113237B0E1225CC
:101798001D6FCB0E13211E6F150E006F030E016F08
:1017A8001DC302F31EC303F3000E056F080E046F7A
:1017B8002DEC0EF0090E03011F6F140E096F030EB6
:1017C8000A6F1FC30BF3000E0D6F3C0E0C6FCC0E8F
:1017D8000E6F020E0F6FA2EC18F0020E0201CC1968
:1017E800D8B4FBD7CC05D8B410D0030ECC19D8B4D4
:1017F8000CD0040ECC19D8B408D0050ECC19D8B426
:1018080004D0060ECC19D8A41200010E7D6F120068
:101818000101326F1F0E0101326503D07F0E326560
:1018280002D0200E326F400E266F000E226FFF0E80
:10183800236F3251246F256BD89024372537D890E1
:1018480024372537D8902437253722512427235188
:1018580025237B0E24252F6FCB0E2521306F270ED5
:10186800126F010E136F2FC114F130C115F1000E64
:10187800176F080E166F84EC0EF0090E0101316F18
:10188800260E1B6F010E1C6F31C11DF1000E1F6F5C
:101898003C0E1E6FCC0E206F020E216FCAEC18F0A2
:1018A800020E0201CC19D8B4FBD7CC05D8B410D09D
:1018B800030ECC19D8B40CD0040ECC19D8B408D067
:1018C800050ECC19D8B404D0060ECC19D8A4120031
:1018D800010E7D6F1200BFC326F3C0C327F3C1C337
:1018E80028F3C2C329F37DEC0FF026C330F327C3D6
:1018F80031F328C332F329C333F395EC1EF030C318
:1019080034F331C335F332C336F333C337F3BFC3CC
:1019180038F3C0C339F3C1C33AF3C2C33BF3C3ECD2
:10192800DDF034C3C3F335C3C4F336C3C5F337C3DB
:10193800C6F3BFC334F3C0C335F3C1C336F3C2C360
:1019480037F3C3C338F3C4C339F3C5C33AF3C6C3C3
:101958003BF3C3ECDDF034C3BFF335C3C0F336C388
:10196800C1F337C3C2F3BFC326F3C0C327F3C1C350
:1019780028F3C2C329F37DEC0FF026C3BFF327C3B6
:10198800C0F328C3C1F329C3C2F3120004C273F120
:1019980005C274F106C275F107C276F1CDEC0FF0FD
:1019A80073C17DF174C17EF175C17FF176C180F19B
:1019B800F5EC1EF07DC181F17EC182F17FC183F11A
:1019C80080C184F104C285F105C286F106C287F19F
:1019D80007C288F162ECDFF081C108F282C109F226
:1019E80083C10AF284C10BF204C281F105C282F1FB
:1019F80006C283F107C284F108C285F109C286F1E3
:101A08000AC287F10BC288F162ECDFF081C104F2EF
:101A180082C105F283C106F284C107F204C273F1E0
:101A280005C274F106C275F107C276F1CDEC0FF06C
:101A380073C104F274C105F275C106F276C107F2EA
:101A4800120003010351D8B405D00051011102114D
:101A5800D8A40CD0000E006F000E016F000E026FAC
:101A68001200032BD890023301330033000E001507
:101A7800056F000E0115066FFE0E0215076F055162
:101A880006110711D8B40CD0ECD7032B010E002790
:101A9800000E0123000E0223D890023301330033D5
:101AA800000E0015056F000E0115066FFF0E0215DA
:101AB800076F055106110711D8B406D0E6D70307FA
:101AC800D89000370137023701BF03D0020E0361F7
:101AD800F6D703A1019FD890033303510213045191
:101AE800D8A4028F00C300F301C301F302C302F3B9
:101AF800120001011551D8B405D012511311141157
:101B0800D8A40CD0000E126F000E136F000E146FC5
:101B18001200152BD890143313331233000E1215FC
:101B2800176F000E1315186FFE0E1415196F175145
:101B380018111911D8B40CD0ECD7152B010E122797
:101B4800000E1323000E1423D890143313331233CA
:101B5800000E1215176F000E1315186FFF0E1415CF
:101B6800196F175118111911D8B406D0E6D71507EF
:101B7800D89012371337143713BF03D0020E1561EC
:101B8800F6D715A1139FD890153315511413165174
:101B9800D8A4148F12C112F113C113F114C114F196
:101BA80012000E01F5A305D0F599F589010E020181
:101BB8007E6F0001FA51010D000EF324D96E050E57
:101BC800F420DA6EF1CEDFFFFA2B3F0EFA6502D071
:101BD800000EFA6F0201BE2B0A0E0E01F119D8B4DD
:101BE80004D00D0EF119D8A406D00001FD83000E13
:101BF8000E01F16F02D00001FD93080E0E01F119DC
:101C0800D8A412000001FA51010D000EF324D96E78
:101C1800050EF420DA6E000EDF6EFA07C80EC56FE7
:101C2800FF0EC66F53EC1DF00201BF510001FA19F7
:101C3800D8B40BD0FA51010D000EF324D96E050E5D
:101C4800F420DA6E000EDF6EFA07000E0E01F16F57
:101C5800120002C30AF303C30BF300C308F301C362
:101C680009F3030108510A5D09510B59D8B02FD067
:101C780004510A25066F05510B21076F0651085DAF
:101C880007510959D8B023D004510A2705510B230D
:101C980004510827055109230A07D8A00B070AC3CE
:101CA800F6FF0BC3F7FF000EF86E0807D8A0090768
:101CB80008C3D9FF09C3DAFF0800F5CFDFFF04071F
:101CC800D8A0050704510511D8B41200E5D704516E
:101CD8000511D8B412000AC3F6FF0BC3F7FF000EB4
:101CE800F86E08C3D9FF09C3DAFF0800F5CFDFFF94
:101CF8000A4B0B2B084B092B0407D8A00507E7D77D
:101D080014C11CF115C11DF112C11AF113C11BF147
:101D180001011A511C5D1B511D59D8B02FD0165105
:101D28001C25186F17511D21196F18511A5D19516B
:101D38001B59D8B023D016511C2717511D231651F3
:101D48001A2717511B231C07D8A01D071CC1F6FF13
:101D58001DC1F7FF000EF86E1A07D8A01B071AC19D
:101D6800D9FF1BC1DAFF0800F5CFDFFF1607D8A09F
:101D7800170716511711D8B41200E5D716511711C5
:101D8800D8B412001CC1F6FF1DC1F7FF000EF86E93
:101D98001AC1D9FF1BC1DAFF0800F5CFDFFF1C4BC2
:101DA8001D2B1A4B1B2B1607D8A01707E7D70301C3
:101DB800056F020183B139D002C3D9FF03C3DAFF2B
:101DC800020EDF6E20EE01F07F51D9268051DA2213
:101DD80000C3DEFF01C3DDFF7FC2D9FF80C2DAFF87
:101DE80005C3DFFF20EE03F07F51D9268051DA22A8
:101DF80002C3DEFF03C3DDFF050E7F27000E80232D
:101E0800C80E7F1908E1020E8019D8A404D0C30EA9
:101E18007F6F020E806F83937F5181190CE180518F
:101E28008219D8A408D0838106D002C3D9FF03C37E
:101E3800DAFF010EDF6E02C3D9FF03C3DAFF020E19
:101E4800DE18D8A4120049EC22F00E0136811200E7
:101E58000101176F020183B139D014C1D9FF15C12F
:101E6800DAFF020EDF6E20EE01F07F51D926805195
:101E7800DA2212C1DEFF13C1DDFF7FC2D9FF80C2A3
:101E8800DAFF17C1DFFF20EE03F07F51D92680511A
:101E9800DA2214C1DEFF15C1DDFF050E7F27000E13
:101EA8008023C80E7F1908E1020E8019D8A404D037
:101EB800C30E7F6F020E806F83937F5181190CE1EF
:101EC80080518219D8A408D0838106D014C1D9FFC3
:101ED80015C1DAFF010EDF6E14C1D9FF15C1DAFF93
:101EE800020EDE18D8A4120058EC22F00E0136813A
:101EF800120026C300F327C301F328C302F329C342
:101F080003F32E0E0301046F030E056FC7EC12F0E6
:101F180003012FAF09D0000E266F000E276F000EA9
:101F2800286F000E296F12002F5104E11D0E2E5D3F
:101F3800D8A009D026C326F327C327F328C328F33C
:101F480029C329F3120026C30EF327C30FF328C3AE
:101F580010F329C311F38BEC09F00EC318F30FC368
:101F680019F310C31AF311C31BF3010EF4ECFBF0C1
:101F780018C32AF319C32BF31AC32CF31BC32DF36D
:101F88002AC326F32BC327F32CC328F32DC329F325
:101F9800120073C112F174C113F175C114F176C145
:101FA80015F17B0E0101166F010E176F06EC13F089
:101FB80001017CAF09D0000E736F000E746F000E24
:101FC800756F000E766F12007C5104E11D0E7B5D6B
:101FD800D8A009D073C173F174C174F175C175F1DA
:101FE80076C176F1120073C15BF174C15CF175C101
:101FF8005DF176C15EF1FAEC09F05BC165F15CC197
:1020080066F15DC167F15EC168F1010E9EECFCF0FE
:1020180065C177F166C178F167C179F168C17AF174
:1020280077C173F178C174F179C175F17AC176F12C
:102038001200AE0EF4EC15F0D50EF4EC15F0800E8F
:10204800F4EC15F0A80EF4EC15F01F0EF4EC15F0F6
:10205800D30EF4EC15F0000EF4EC15F0400EF4EC91
:1020680015F08D0EF4EC15F0AF0EF4EC15F0200E13
:10207800F4EC15F0000EF4EC15F0A10EF4EC15F0EC
:10208800C80EF4EC15F0DA0EF4EC15F0020EF4ECD0
:1020980015F0810EF4EC15F08F0EF4EC15F0D90E56
:1020A800F4EC15F0F10EF4EC15F0DB0EF4EC15F091
:1020B800400EF4EC15F0A40EF4EC15F0A60EF4ECBA
:1020C80015F0AF0EF4EC15F000F0120039D006C38D
:1020D800D9FF07C3DAFFDF50D8B412D006C3D9FF3F
:1020E80007C3DAFFDF5003010C6F08C3F6FF09C30B
:1020F800F7FF000EF86E0800F5500C19D8B41CD084
:1021080008C3F6FF09C3F7FF000EF86E0800F55084
:1021180003010C6F0D6B0C1F0D1F0C4B0D2B06C311
:10212800D9FF07C3DAFFDF500E6F0E510C25066F7B
:10213800000E0D21076F1200064B072B084B092BC9
:1021480003010A07D8A00B070A29C1E10B29D8A463
:10215800BED7000E076F000E066F120034D00FC3F3
:1021680006F310C307F311C308F312C309F311C32D
:1021780000F312C301F353EC17F000C30AF301C3D1
:102188000BF36AEC10F0030106510711D8A405D02F
:102198000FC30FF310C310F31200010E0F25006FC9
:1021A800000E1021016F11C3F6FF12C3F7FF000ED6
:1021B800F86E0800F550026F036BACEC1DF000C31D
:1021C8000FF301C310F303010F511011D8B407D056
:1021D8000FC3D9FF10C3DAFFDF50D8A4C0D7000E51
:1021E8000F6F000E106F1200000E03010B6F09AF86
:1021F80006D0086D091FD8B0092B010E0B6F07AF69
:1022080006D0066D071FD8B0072B010E0B1B000E5A
:102218000D6F000E0C6F08510911D8B41CD0010EB7
:102228000A6F04D0D890083709370A2B09AFFAD7B4
:10223800D8900C370D370851065D09510759D8A0B9
:1022480005D00851065F0951075B0C81D890093306
:1022580008330A2FEDD70B51D8B404D00C6D0D1FDD
:10226800D8B00D2B0CC306F30DC307F31200000EF4
:1022780001011D6F1BAF06D01A6D1B1FD8B01B2B99
:10228800010E1D6F19AF06D0186D191FD8B0192B84
:10229800010E1D1B000E1F6F000E1E6F1A511B1121
:1022A800D8B41CD0010E1C6F04D0D8901A371B3735
:1022B8001C2B1BAFFAD7D8901E371F371A51185D41
:1022C8001B511959D8A005D01A51185F1B51195B19
:1022D8001E81D8901B331A331C2FEDD71D51D8B44B
:1022E80004D01E6D1F1FD8B01F2B1EC118F11FC1AF
:1022F80019F11200000E0301086F000E096F000E9D
:102308000A6F000E0B6F0451051106110711D8B49E
:102318002AD0010E0C6F06D0D8900437053706373F
:1023280007370C2B07AFF8D7D890083709370A3783
:102338000B370451005D05510159065102590751E7
:102348000359D8A009D00451005F0551015B06511B
:10235800025B0751035B0881D890073306330533C6
:1023680004330C2FE1D708C300F309C301F30AC3F0
:1023780002F30BC303F31200000E01011A6F000EE3
:102388001B6F000E1C6F000E1D6F165117111811D0
:102398001911D8B42AD0010E1E6F06D0D89016375E
:1023A8001737183719371E2B19AFF8D7D8901A379F
:1023B8001B371C371D371651125D17511359185109
:1023C800145919511559D8A009D01651125F17512F
:1023D800135B1851145B1951155B1A81D890193386
:1023E8001833173316331E2FE1D71AC112F11BC148
:1023F80013F11CC114F11DC115F11200790EF66E0E
:10240800CB0EF76E000EF86E0900F5CF03F00A0048
:10241800F5CF04F019EC19F003C089F004C08AF074
:1024280005C08BF006C08CF089C07DF08AC07EF0B4
:102438008BC07FF08CC080F09EC281F09FC282F07A
:10244800A0C283F0A1C284F000EC04F00001D8B06F
:1024580012009EC205F09FC206F0A0C207F0A1C2FA
:1024680008F0790EF66ECB0EF76E000EF86E0900C6
:10247800F5CF09F00A00F5CF0AF066EC19F0120062
:10248800000E0C6E0AAE06D0096C0A1ED8B00A2AD5
:10249800010E0C6E08AE06D0076C081ED8B0082ACC
:1024A800010E0C1A000E0E6E000E0D6E09500A1069
:1024B800D8B41CD0010E0B6E04D0D89009360A3659
:1024C8000B2A0AAEFAD7D8900D360E360950075C9B
:1024D8000A500858D8A005D00950075E0A50085A73
:1024E8000D80D8900A3209320B2EEDD70C50D8B493
:1024F80004D00D6C0E1ED8B00E2A0DC007F00EC009
:1025080008F01200000E096E000E0A6E000E0B6E27
:10251800000E0C6E0550061007100810D8B42AD00B
:10252800010E0D6E06D0D8900536063607360836E9
:102538000D2A08AEF8D7D89009360A360B360C366D
:102548000550015C065002580750035808500458BB
:10255800D8A009D00550015E0650025A0750035A08
:102568000850045A0980D8900832073206320532DA
:102578000D2EE1D709C001F00AC002F00BC003F02C
:102588000CC004F0120003010051011102110311E3
:10259800D8A409D004C3D9FF05C3DAFF000EDE6E44
:1025A800000EDD6E120003517F0B066F076BD8908B
:1025B8000637073704C3D9FF05C3DAFF06C3DEFFB2
:1025C80007C3DDFF02AF03D0066B062B02D0030161
:1025D800066B065104C3D9FF05C3DAFFDE12000EED
:1025E800DD1204C3D9FF05C3DAFF820EDE26FF0E13
:1025F800DD2203810383038503870389038B039DFE
:10260800029F120001011251131114111511D8A4BF
:1026180009D016C1D9FF17C1DAFF000EDE6E000E11
:10262800DD6E120015517F0B186F196BD890183793
:10263800193716C1D9FF17C1DAFF18C1DEFF19C152
:10264800DDFF14AF03D0186B182B02D00101186BF3
:10265800185116C1D9FF17C1DAFFDE12000EDD12BC
:1026680016C1D9FF17C1DAFF820EDE26FF0EDD2262
:1026780015811583158515871589158B159D149F4B
:102688001200000E0001B46F000EB56F000EB66F99
:10269800000EB76FB0C09BF0B1C09CF0B2C09DF007
:1026A800B3C09EF038ECE7F09BC0B4F09CC0B5F026
:1026B8009DC0B6F09EC0B7F0ACC049F0ADC04AF0BE
:1026C800AEC04BF0AFC04CF0B4C04DF0B5C04EF04A
:1026D800B6C04FF0B7C050F060ECF2F049C0B4F0AB
:1026E8004AC0B5F04BC0B6F04CC0B7F0B4C0ACF0BF
:1026F800B5C0ADF0B6C0AEF0B7C0AFF01200000E76
:102708000301146F000EBDEC1CF0E1EC1BF0000E91
:102718000301146F000EBDEC1CF02D0E0301216F98
:10272800040E226F7FEC17F0000E0301146F010EE8
:10273800BDEC1CF03E0E0301216F040E226F7FECEE
:1027480017F0000E0301146F020EBDEC1CF04F0EC3
:102758000301216F040E226F7FEC17F0000E0301B6
:10276800146F030EBDEC1CF0600E0301216F040E04
:10277800226F7FEC17F01200000E0101266F000E89
:1027880035EC1DF001EC1CF0000E0101266F000E67
:1027980035EC1DF02D0E0101336F040E346FABECD8
:1027A80017F0000E0101266F010E35EC1DF03E0EEC
:1027B8000101336F040E346FABEC17F0000E01010A
:1027C800266F020E35EC1DF04F0E0101336F040E1B
:1027D800346FABEC17F0000E0101266F030E35ECD9
:1027E8001DF0600E0101336F040E346FABEC17F06F
:1027F80012000150021003100410D8A409D005C01B
:10280800D9FF06C0DAFF000EDE6E000EDD6E120084
:1028180004507F0B076E086AD8900736083605C043
:10282800D9FF06C0DAFF07C0DEFF08C0DDFF03AE30
:1028380003D0076A072A01D0076A075005C0D9FFE5
:1028480006C0DAFFDE12000EDD1205C0D9FF06C091
:10285800DAFF820EDE26FF0EDD2204800482048465
:1028680004860488048A049C039E1200000E030157
:10287800056F01AF06D0006D011FD8B0012B010E06
:10288800056F03AF04D0026D031FD8B0032B0251AC
:102898000311D8B418D0010E046F04D0D8900237B1
:1028A8000337042B03AFFAD70251005D03510159D6
:1028B800D8A004D00251005F0351015BD8900333C4
:1028C8000233042FF1D70551D8B404D0006D011F8D
:1028D800D8B0012B00C300F301C301F31200000EAE
:1028E8000101176F13AF06D0126D131FD8B0132B49
:1028F800010E176F15AF04D0146D151FD8B0152B26
:1029080014511511D8B418D0010E166F04D0D890F0
:1029180014371537162B15AFFAD71451125D155108
:102928001359D8A004D01451125F1551135BD890D5
:1029380015331433162FF1D71751D8B404D0126DAC
:10294800131FD8B0132B12C112F113C113F11200C7
:10295800B7C39FF3B8C3A0F3B9C3A1F3BAC3A2F333
:10296800A0ECE2F09FC3BBF3A0C3BCF3A1C3BDF3CB
:10297800A2C3BEF3BBC330F3BCC331F3BDC332F350
:10298800BEC333F395EC1EF030C334F331C335F3D3
:1029980032C336F333C337F3DB0E0301386F0F0E40
:1029A800396FC90E3A6F3F0E3B6FC3ECDDF034C38D
:1029B800B7F335C3B8F336C3B9F337C3BAF3120064
:1029C800D2C1BAF1D3C1BBF1D4C1BCF1D5C1BDF1FB
:1029D80028ECE4F0BAC100F2BBC101F2BCC102F2BA
:1029E800BDC103F200C27DF101C27EF102C27FF1D6
:1029F80003C280F1F5EC1EF07DC181F17EC182F148
:102A08007FC183F180C184F1DB0E0101856F0F0E58
:102A1800866FC90E876F3F0E886F62ECDFF081C149
:102A2800D2F182C1D3F183C1D4F184C1D5F11200AE
:102A3800000E066E02AE06D0016C021ED8B0022A45
:102A4800010E066E04AE04D0036C041ED8B0042A2E
:102A580003500410D8B418D0010E056E04D0D890D5
:102A680003360436052A04AEFAD70350015C045035
:102A78000258D8A004D00350015E0450025AD890DE
:102A880004320332052EF1D70650D8B404D0016CB5
:102A9800021ED8B0022A01C001F002C002F01200E2
:102AA800BAC0A2F0BBC0A3F0BCC0A4F0BDC0A5F0E2
:102AB800B0ECE5F0A2C0BEF0A3C0BFF0A4C0C0F067
:102AC800A5C0C1F0BEC055F0BFC056F0C0C057F099
:102AD800C1C058F00DEC1FF055C06DF056C06EF037
:102AE80057C06FF058C070F0DB0E0001716F0F0E09
:102AF800726FC90E736F3F0E746F01ECE1F06DC019
:102B0800BAF06EC0BBF06FC0BCF070C0BDF0120070
:102B180000C306F301C307F318D003010407D8A0C4
:102B2800050702C3F6FF03C3F7FF024B032B000E92
:102B3800F86E06C3D9FF07C3DAFF064B072B080058
:102B4800F5CFDFFFDF50D8B40ED0030104510511D3
:102B5800D8B409D0E2D706C3D9FF07C3DAFF000EFD
:102B6800DF6E064B072B0407D8A005070429F3E1FD
:102B78000529D8B41200EFD703011151121113110E
:102B88001411D8B424D0010E156F06D0D89011377F
:102B9800123713371437152B14AFF8D711510D5DB1
:102BA80012510E5913510F5914511059D8A008D069
:102BB80011510D5F12510E5B13510F5B1451105BD5
:102BC800D8901433133312331133152FE7D70DC3AD
:102BD8000DF30EC30EF30FC30FF310C310F312005F
:102BE8000301106F000E0301126F10C313F3020EDE
:102BF800116F120E096F030E0A6F11C30BF3000E4B
:102C08000D6F3C0E0C6FCC0E0E6F020E0F6FA2EC08
:102C180018F0020E0201CC19D8B4FBD7CC05D8B4F1
:102C280010D0030ECC19D8B40CD0040ECC19D8B4DB
:102C380008D0050ECC19D8B404D0060ECC19D8A4E7
:102C48001200010E7D6F120001012351241125117C
:102C58002611D8B424D0010E276F06D0D890233778
:102C6800243725372637272B26AFF8D723511F5D62
:102C7800245120592551215926512259D8A008D02C
:102C880023511F5F2451205B2551215B2651225B74
:102C9800D8902633253324332333272FE7D71FC172
:102CA8001FF120C120F121C121F122C122F112001E
:102CB8000101246F000E0101226F24C123F1020ECD
:102CC800256F220E1B6F010E1C6F25C11DF1000E12
:102CD8001F6F3C0E1E6FCC0E206F020E216FCAECC8
:102CE80018F0020E0201CC19D8B4FBD7CC05D8B421
:102CF80010D0030ECC19D8B40CD0040ECC19D8B40B
:102D080008D0050ECC19D8B404D0060ECC19D8A416
:102D18001200010E7D6F12000E012C9FAA0E0301F6
:102D2800006F1B0E016F000E026F0AEC22F00E01FD
:102D38002C9DC60E0301006F3B0E016F000E026F43
:102D480003EC22F0080E0E01F76F900EF56F240EBB
:102D5800F66F8A0EF36F000EF46F000E0201C26F59
:102D6800000EC16F800EC06F000E0001FA6F000EDA
:102D78000201BF6F000EBE6F0E012C8F12001250A1
:102D8800131014101510D8B424D0010E166E06D0E6
:102D9800D8901236133614361536162A15AEF8D7CB
:102DA80012500E5C13500F581450105815501158EB
:102DB800D8A008D012500E5E13500F5A1450105A53
:102DC8001550115AD8901532143213321232162E69
:102DD800E7D70EC00EF00FC00FF010C010F011C0F2
:102DE80011F0120024EEF8F013EE11F0050EDBCF0F
:102DF800E3FFE806FCE20FD011C30DF312C30EF394
:102E0800120013C30DF314C30EF3120015C30DF310
:102E180016C30EF312000DC30FF30EC310F3030114
:102E280010516A0AD8B404D0010AD8B406D0EED733
:102E38000F51C00AD8B4E0D7E9D70F51200AD8B447
:102E4800E0D7E4D7D7AE02D0070E1DD0D7AC02D05A
:102E5800080E19D0D7BA02D0050E15D0D7B802D0AF
:102E6800040E11D0D7B602D0030E0DD0D7B402D0BD
:102E7800060E09D0D7B202D0010E05D0D7B002D0C5
:102E8800020E01D0000E0301006FD79ED79CD78A8F
:102E9800D788D786D784D782D7800051120000C33D
:102EA80004F301C305F303D00301044B052B04C34A
:102EB800F6FF05C3F7FF000EF86E0D0EF76403D09A
:102EC8000800F55005D0F6CFE9FFF7CFEAFFEF503D
:102ED8000009D8A4E9D700C302F301C303F303012F
:102EE800021F031F024B032B04510225006F0551DB
:102EF8000321016F120016D021C3F6FF22C3F7FF8A
:102F0800000EF86E0D0EF76403D00800F55005D0DA
:102F1800F6CFE9FFF7CFEAFFEF50A9EC0BF003017A
:102F2800214B222B21C3F6FF22C3F7FF000EF86EB8
:102F38000D0EF76403D00800F55005D0F6CFE9FF71
:102F4800F7CFEAFFEF500009D8B41200D5D716D052
:102F580033C1F6FF34C1F7FF000EF86E0D0EF764AB
:102F680003D00800F55005D0F6CFE9FFF7CFEAFF08
:102F7800EF500CEC0CF00101334B342B33C1F6FF4E
:102F880034C1F7FF000EF86E0D0EF76403D0080089
:102F9800F55005D0F6CFE9FFF7CFEAFFEF5000096B
:102FA800D8B41200D5D7000E0F01316F000E326F62
:102FB800030E336FEC0E2F6F780E2E6F2E512FCF1E
:102FC80003F30301046B03C304F3036B031101014F
:102FD800E26F030104510101E36F0E01389D2E8D4C
:102FE800FE0E0301006FFF0E016F010E026FD9EC98
:102FF80021F0310E0F01306F1200000E03010B6F2C
:10300800000E0A6F0B5119E114D0060E0A25D96E6D
:10301800030E0B21DA6E02510A25006F03510B21B2
:10302800016F3CEC21F0DF6E03010A4B0B2B0B51B7
:1030380004E1040E0A5DD8A0E8D706C302F307C36B
:1030480003F308C304F309C305F3120005D0030111
:10305800004B012B024B032B00C3D9FF01C3DAFF3E
:10306800DF500301046F02C3F6FF03C3F7FF000E2E
:10307800F86E0800F55000080425056F0551D8A41E
:1030880007D000C3D9FF01C3DAFFDF50D8A4DFD7C8
:103098000551006F016B00BF0107120004C30AF35A
:1030A80005C30BF306C30CF307C30DF3000E0301AE
:1030B8000F6F000E0E6F0F5118E1040E0E5DD8B0A1
:1030C800120008510E25006F09510F21016F0A0ED9
:1030D8000E25D96E030E0F21DA6EDF50026F60ECF9
:1030E8001CF003010E4B0F2BE6D71200000EC46E26
:1030F800000EC56E010EC66E000EC26E000EC16EC9
:10310800C150C2CF03F30301046B03C304F3036B81
:1031180003110201BA6F030104510201BB6F0E01D2
:1031280038992E89360E0301006F450E016F000E87
:10313800026FE7EC21F0130EC36E1200020183B197
:103148001ED0A90E0301006F040E016F09C302F31C
:103158000AC303F30BC304F30CC305F30DC306F34F
:10316800D1EC1AF0A90E0301006F040E016F0EC313
:1031780002F30FC303F3010EDBEC0EF012000EC3D3
:10318800D9FF0FC3DAFF010EDF6E1200020183B10F
:103198001ED0A90E0101126F040E136F1BC114F18A
:1031A8001CC115F11DC116F11EC117F11FC118F17F
:1031B800F4EC1AF0A90E0101126F040E136F20C16E
:1031C80014F121C115F1010E2CEC0FF0120020C1F1
:1031D800D9FF21C1DAFF010EDF6E1200000E0301D4
:1031E800006F04D00400010E02017E6F0201BE517F
:1031F800D8B4F8D7BF51010D000EF324D96E050ECF
:10320800F420DA6EDF500301006F0201BF2B3F0E7E
:10321800BF6502D0000EBF6F0E012C9F0201BE07D2
:103228000E012C8F030100511200000E0C6E000ECF
:103238000B6E0C5018E113D0070E0B24D96E000E3C
:103248000C20DA6E03500B24016E04500C20026E21
:1032580062EC21F0DF6E0B4A0C2A0C5004E1040EDC
:103268000B5CD8A0E9D707C003F008C004F009C078
:1032780005F00AC006F0120000C304F301C305F309
:1032880003D00301044B052B04C3D9FF05C3DAFFA0
:10329800DF50D8B406D0F5D70301044B052B024BF9
:1032A800032B02C3F6FF03C3F7FF000EF86E04C337
:1032B800D9FF05C3DAFF0800F5CFDFFFDF50D8B428
:1032C8001200EAD705C00BF006C00CF007C00DF0DD
:1032D80008C00EF0000E106E000E0F6E105017E1B1
:1032E800040E0F5CD8B0120009500F24016E0A506A
:1032F8001020026E0B0E0F24D96E000E1020DA6E0D
:10330800DF50036E8FEC1DF00F4A102AE7D712002A
:10331800CBC102F2CCC103F2000E0201046F000E11
:10332800056F000E066FCF0E006F010E016F020EC3
:103338000101A16F020EA26FCDC1A3F1CEC1A4F10C
:10334800000EA56F020EA66F34ECA0F002C2D9FFE2
:1033580003C2DAFF000EDF6E120003C307F304C3D3
:1033680008F305D00301074B082B054B062B05C3B3
:10337800F6FF06C3F7FF000EF86E07C3D9FF08C3B0
:10338800DAFF0D0EF76403D00800F55005D0F6CF2C
:10339800E9FFF7CFEAFFEF50DF6EDF50D8B4120035
:1033A800E1D7B1C3BFF3B2C3C0F3000E0301C16FCD
:1033B800000EC26F000EC36FB50EBD6F030EBE6F59
:1033C800BF0E876F030E886FB3C389F3B4C38AF344
:1033D800BD0E8B6F030E8C6F96EC90F0BFC3D9FFB8
:1033E800C0C3DAFF000EDF6E12000301006F01D0C8
:1033F80004000201C051D8B4FBD70E012CBD03D084
:1034080000C3F2FE13D02C9D0201C251010D000E23
:10341800F324D96E060EF420DA6E00C3DFFFC22B48
:103428007F0EC26502D0000EC26FC0070E012C8D40
:103438001200000E03014C1B000E4D1B000E4E1B0C
:10344800800E4F1B48C334F349C335F34AC336F3E0
:103458004BC337F34CC338F34DC339F34EC33AF378
:103468004FC33BF3C3ECDDF034C348F335C349F332
:1034780036C34AF337C34BF3120015C119F116C10D
:103488001AF105D00101194B1A2B174B182B17C12C
:10349800F6FF18C1F7FF000EF86E19C1D9FF1AC15F
:1034A800DAFF0D0EF76403D00800F55005D0F6CF0B
:1034B800E9FFF7CFEAFFEF50DF6EDF50D8B4120014
:1034C800E1D70101126F01D004000201C051D8B444
:1034D800FBD70E012CBD03D012C1F2FE13D02C9DD8
:1034E8000201C251010D000EF324D96E060EF4201C
:1034F800DA6E12C1DFFFC22B7F0EC26502D0000E4A
:10350800C26FC0070E012C8D1200000E0101991B1D
:10351800000E9A1B000E9B1B800E9C1B95C181F10F
:1035280096C182F197C183F198C184F199C185F15F
:103538009AC186F19BC187F19CC188F162ECDFF0EA
:1035480081C195F182C196F183C197F184C198F147
:103558001200000E0001971B000E981B000E991B0D
:10356800800E9A1B93C06DF094C06EF095C06FF0FA
:1035780096C070F097C071F098C072F099C073F05F
:103588009AC074F001ECE1F06DC093F06EC094F055
:103598006FC095F070C096F0120005C307F306C31C
:1035A80008F3D89003010737083700C3D9FF01C3D0
:1035B800DAFF07C3DEFF08C3DDFF20EE02F000518B
:1035C800D9260151DA2204C3DFFF20EE03F00051AF
:1035D800D9260151DA2202C3DEFF03C3DDFF120040
:1035E80017C119F118C11AF1D890010119371A3702
:1035F80012C1D9FF13C1DAFF19C1DEFF1AC1DDFFFD
:1036080020EE02F01251D9261351DA2216C1DFFF3B
:1036180020EE03F01251D9261351DA2214C1DEFF2D
:1036280015C1DDFF1200016E01D004000201C05176
:10363800D8B4FBD70E012CBD03D001C0F2FE13D0C5
:103648002C9D0201C251010D000EF324D96E060E05
:10365800F420DA6E01C0DFFFC22B7F0EC26502D0F4
:10366800000EC26FC0070E012C8D12000301116FEE
:10367800000E03010D6F000E0E6F200E0F6F000E6F
:10368800106F1151020DF3CF12F312510D25046F73
:10369800000E0E21056F000E0F21066F000E10217F
:1036A800076F7EEC1BF004C30BF305C30CF3120089
:1036B8007EB404D00101126B122B02D00101126BEF
:1036C800124712477E501219FB0B12197E6E010E1B
:1036D80004011C27000E1D231E231F230001FDA12A
:1036E80007D0010E04011827000E19231A231B23E3
:1036F8000400120004C300F305C301F306C302F378
:1037080007C303F322EC21F00301086F010E04251F
:10371800006F000E0521016F000E0621026F000EDA
:103728000721036F22EC21F00301096F0851046F90
:1037380009C305F3120016C112F117C113F118C11C
:1037480014F119C115F149EC21F001011A6F010EAC
:103758001625126F000E1721136F000E1821146F13
:10376800000E1921156F49EC21F001011B6F1A5148
:10377800166F1BC117F11200036E9684010120EE2B
:1037880003F0DC51D926DD51DA22DE50DE10D8B440
:1037980010D020EE03F0DC51D926DD51DA22DECF3D
:1037A80001F0DDCF02F001C0D9FF02C0DAFF03C08B
:1037B800DFFF000E0001F96F1200000E0301226FF7
:1037C800000E216F225118E1080E215DD8B01200B9
:1037D800000E246F000E236F24510BE1100E235DA1
:1037E800D8B007D0000EA9EC0BF00301234B242B13
:1037F800F3D7214B222BE6D71200000E0101346FBC
:10380800000E336F345118E1080E335DD8B0120042
:10381800000E366F000E356F36510BE1100E355D18
:10382800D8B007D0000E0CEC0CF00101354B362B4C
:10383800F3D7334B342BE6D71200F29EF29C0E01DD
:10384800359F4B9F9EC205F09FC206F0A0C207F0AD
:10385800A1C208F0790EF66ECB0EF76E000EF86E68
:103868000900F5CF09F00A00F5CF0AF066EC19F067
:103878000E014B8FF28EF28C1200030137AF13D07A
:1038880034C330F335C331F336C332F337C333F3BC
:1038980095EC1EF030C334F331C335F332C336F33D
:1038A80033C337F3120034C334F335C335F336C3A7
:1038B80036F337C337F31200000EF2BE010E0301D0
:1038C800036F0151030B756E00C374FF02C376FFCB
:1038D8003F0E77167784F29E550E786EAA0E786E94
:1038E800778277B2FED77794030103B102D0F29EB4
:1038F80001D0F28E1200BCEC20F0F8EC20F043EC82
:103908000BF006EC21F0C8EC1DF0C3EC21F067ECDD
:1039180022F0D7EC17F0CAECFFF0ADEC1EF0C5ECC6
:103928001EF0CBEC20F04CEC1EF07AEC18F090EC8A
:1039380016F01200010184AF13D081C17DF182C15C
:103948007EF183C17FF184C180F1F5EC1EF07DC169
:1039580081F17EC182F17FC183F180C184F11200BF
:1039680081C181F182C182F183C183F184C184F173
:1039780012000301166F03011651B00FF4EC15F095
:1039880003011451080DF3500F0BF4EC15F003016B
:103998001451080D040E156FF434F432F332152F58
:1039A800FBD7F3500F0B100FF4EC15F01200FC0EC0
:1039B8000301046FFF0E056F3F0E066F000E076FC1
:1039C8007EEC1BF004C30EF305C30FF30EC30BF319
:1039D8000FC30CF3060E03010D6FD8900C330B3395
:1039E8000D2FFBD70B511F0B1200000E0301BD6FEB
:1039F800000EBE6F5E0EBF6F420EC06F000EC16F2D
:103A0800B30EBB6F030EBC6FBD0E876F030E886FBE
:103A1800B1C389F3B2C38AF3BB0E8B6F030E8C6FED
:103A280096EC90F01200FC0E0101166FFF0E176F56
:103A38003F0E186F000E196F9FEC1BF016C120F196
:103A480017C121F120C11DF121C11EF1060E01018E
:103A58001F6FD8901E331D331F2FFBD71D511F0B0F
:103A680012000101286F01012851B00F5CEC16F01B
:103A780001012651080DF3500F0B5CEC16F0010103
:103A88002651080D040E276FF434F432F332272F31
:103A9800FBD7F3500F0B100F5CEC16F01200000E62
:103AA8000001C96F000ECA6FC40ECB6F440ECC6FF5
:103AB800000ECD6FC70EC76F000EC86FC90E9B6F83
:103AC800000E9C6FC5C09DF0C6C09EF0C70E9F6FCC
:103AD800000EA06FCDECAFF012005CAE13D059C051
:103AE80055F05AC056F05BC057F05CC058F00DEC6A
:103AF8001FF055C059F056C05AF057C05BF058C077
:103B08005CF0120059C059F05AC05AF05BC05BF023
:103B18005CC05CF01200000EF2BE010E046E025092
:103B2800030B756E01C074FF03C076FF3F0E771656
:103B38007784F29E550E786EAA0E786E778277B2E9
:103B4800FED7779404B002D0F29E01D0F28E120014
:103B580000C3D9FF01C3DAFF03010251DE18D8A45C
:103B680005D000C300F301C301F3120000C3D9FF5D
:103B780001C3DAFF004B012BDF50D8A4E9D7000EB0
:103B8800006F000E016F1200C30E0201816F020E5A
:103B9800826FC30E7F6F020E806F83838391000E46
:103BA800856F000E946E280E956E000E976E3F0E70
:103BB800926E0E01369136932C812C831200800E62
:103BC8000201C06114D0C151010D000EF324D96E59
:103BD800060EF420DA6EDF500E01F26F0201C12BDF
:103BE8007F0EC16502D0000EC16FC02B12000E01FE
:103BF8002C9D120002017C51D8A412D07951D8A46E
:103C08000FD07B51D8A40CD07651D8A409D07751C5
:103C1800D8A406D07851D8A403D07A51D8B402D009
:103C2800010E1200000E12000E01389DE2C112F1C1
:103C3800E3C113F1AFEC1FF00201AE51AF11B011A7
:103C4800D8B4120001D812000500FA6EAE51FD6E0C
:103C5800AF51FE6EB051FF6EFA5012000E01389946
:103C6800BAC201F0BBC202F014EC21F00201AB5160
:103C7800AC11AD11D8B4120001D812000500FA6ECB
:103C8800AB51FD6EAC51FE6EAD51FF6EFA50120095
:103C9800040EB36E200EB26E000EB46EF10EB06E4E
:103CA800000EAF6E0E01389B2E8B320E0301006F93
:103CB800450E016F000E026FE0EC21F0BF0EB16EF1
:103CC80012000301026F090E030102610DD00251B7
:103CD800020DA20EF324D96E050EF420DA6EDECFA3
:103CE80000F3DDCF01F31200370E006FFF0E016FF6
:103CF80012000301026F090E030102610DD0025187
:103D0800020DB40EF324D96E050EF420DA6EDECF60
:103D180000F3DDCF01F31200080E006FFC0E016FF7
:103D2800120003013051311132113311D8B408D0C7
:103D3800000E301B000E311B000E321B800E331B91
:103D480030C330F331C331F332C332F333C333F307
:103D58001200040EB96EA00EB86E000EBA6EE20E16
:103D6800B66E000EB56E0E0138972E87380E030119
:103D7800006F450E016F000E026FEEEC21F0B76880
:103D88001200030EBF6E200EBE6E000EC06EC20E75
:103D9800BC6E000EBB6E0E0138932E83340E0301E9
:103DA800006F450E016F000E026FF5EC21F0BD6843
:103DB80012000101146F090E010114610DD0145194
:103DC800020DA20EF324D96E050EF420DA6EDECFB2
:103DD80012F1DDCF13F11200370E126FFF0E136FC1
:103DE800120001017D517E117F118011D8B408D0D5
:103DF800000E7D1B000E7E1B000E7F1B800E801B9D
:103E08007DC17DF17EC17EF17FC17FF180C180F1EE
:103E180012005550561057105810D8B408D0000E3C
:103E2800551A000E561A000E571A800E581A55C009
:103E380055F056C056F057C057F058C058F0120009
:103E480000017EAF0DD07DC05DF07EC05EF05D1ECE
:103E58005E1E5D4A5E2A5DC07DF05EC07EF0120087
:103E68007DC07DF07EC07EF0120003010051020388
:103E7800F3CF04F3F4CF05F300510303F350052700
:103E880001510203F350052704C300F305C301F3EE
:103E980012000E01389B0201B451B511B611D8B405
:103EA800120001D812000500FA6EB451FD6EB5512A
:103EB800FE6EB651FF6EFA50120001011251140342
:103EC800F3CF16F1F4CF17F112511503F35017275A
:103ED80013511403F350172716C112F117C113F128
:103EE80012000E0134930201B151B211B311D8B4CA
:103EF800120001D812000500FA6EB151FD6EB251E0
:103F0800FE6EB351FF6EFA50120008C300F309C3E6
:103F180001F30301026B8E0E036F000E046F25EC94
:103F28000DF000C308F301C309F302C30AF312003A
:103F3800FC0E0301046FFF0E056F3F0E066F000EA7
:103F4800076F7EEC1BF004C30BF305C30CF30301EE
:103F58000B511F0B12000F0130A509D03091010140
:103F680013510F012F6F12C12EFF30811200010172
:103F780013510F012F6F12C12EFF12000E0138933B
:103F88000201BC4BBD2BBD5104E1400EBC5DD8A065
:103F9800120033EC20F0000E0201BD6F000EBC6F62
:103FA8001200FC0E0101166FFF0E176F3F0E186FFF
:103FB800000E196F9FEC1BF016C11DF117C11EF101
:103FC80001011D511F0B12001AC112F11BC113F17F
:103FD8000101146B8E0E156F000E166F7DEC0DF03F
:103FE80012C11AF113C11BF114C11CF112000E0108
:103FF80038970101E04BE12BE15104E1080EE05D47
:10400800D8A0120045EC20F0000E0101E16F000E6F
:10401800E06F120001500302F3CF05F0F4CF06F071
:1040280001500402F350062602500302F3500626FC
:1040380005C001F006C002F0120037FF2DFF23FF74
:10404800C0FECCFECBFEB8FCAAFEB5FE08FCC7FC41
:1040580018FC01FBEBF5E2F574F985FA6FFA020139
:10406800A251A311A411D8B4120001D8120005005E
:10407800FA6EA251FD6EA351FE6EA451FF6EFA5066
:1040880012000201A551A611A711D8B4120001D837
:1040980012000500FA6EA551FD6EA651FE6EA751DD
:1040A800FF6EFA5012000201A851A911AA11D8B442
:1040B800120001D812000500FA6EA851FD6EA95130
:1040C800FE6EAA51FF6EFA501200000E0201766FC2
:1040D800000E776F000E786F000E796F000E7A6F02
:1040E800000E7B6F000E7C6F7E9612000301026F3C
:1040F800000E0301016F3A0E026105D02F0E026512
:1041080002D0010E016F01C300F30031120001015A
:10411800146F000E0101136F3A0E146105D02F0EB3
:10412800146502D0010E136F13C112F1123112007F
:10413800FE0E0301046FFF0E056F3F0E066F000EA3
:10414800076F7EEC1BF004C30BF305C30CF31200DE
:10415800FE0E0101166FFF0E176F3F0E186F000E4F
:10416800196F9FEC1BF016C11DF117C11EF112004B
:10417800F28A0E01218F228322811F812487228FB8
:1041880024892083249B229D249D249312000E01C0
:104198003391F2803A0E0301006F450E016F000E55
:1041A800026FFCEC21F00E0129811200050E0101BD
:1041B800DE27000EDF23EA2F04D0040E0001F96F7A
:1041C8001200010E0001F96F1200036E000E026E5C
:1041D8003A0E036005D02F0E036402D0010E026E62
:1041E80002C001F0013012001A0E0E014C6F000ED1
:1041F8004D6F2E0E4E6F4F0E4F6F7F0E506F740E19
:10420800516F1200200E0E01436F000E456F000E15
:10421800476F020E496F000E486F46B11200FDD776
:10422800C3A407D0C3900250C26E01C0C1FFC380AF
:1042380012000250C26E01C0C1FF120077503F0B3E
:104248008009776E02C3F8FF01C3F7FF00C3F6FFCA
:104258000800F55012005FB262EF22F05FB01FEF66
:1042680022F00301016F03010151F9EC19F012006A
:1042780003010151030B756E00C374FF3F0E7716DF
:10428800778000F000F07650120077503F0B8009DD
:10429800776E14C1F8FF13C1F7FF12C1F6FF0800CB
:1042A800F5501200FEEC1DF00009D8A47E867AECC9
:1042B80021F00009D8B412007E8212000250030BCC
:1042C800756E01C074FF3F0E7716778000F000F01E
:1042D800765012007F92F3C001F0F4C002F014ECA3
:1042E80021F093EC22F00E012E89120002017D517B
:1042F800D8A403D07E51D8B402D0010E1200000E0B
:1043080012007350046E036A72500324016E000E8B
:104318000420026E12006450046E036A6350032482
:10432800016E000E0420026E1200000E0301C26F1F
:10433800000EC36F070E15ECD7F012006BEC22F0DD
:104348007BEC22F00101EB5118EC22F01200BC0EBC
:104358000301B16FFF0EB26FF9EC1CF01200EA0E08
:104368000301B16FE50EB26FF9EC1CF01200AE0E4E
:104378000301B16FFF0EB26FF9EC1CF01200070ECB
:104388000E01C36F810EC26F359F2B8F1200000E76
:1043980002017D6F000E7E6F7E9212000301016F95
:1043A800030101513FEC22F0120000C3AEF201C339
:1043B800AFF202C3B0F2120000C3B4F201C3B5F207
:1043C80002C3B6F2120000C3ABF201C3ACF202C3DF
:1043D800ADF2120000C3A5F201C3A6F202C3A7F210
:1043E800120000C3A2F201C3A3F202C3A4F2120096
:1043F80000C3A8F201C3A9F202C3AAF2120000C3C3
:10440800B7F201C3B8F202C3B9F2120000C328F42C
:1044180001C329F402C32AF4120000C3B1F201C394
:10442800B2F202C3B3F212000101126F12C15FFFB0
:10443800608E608012000101136F0101135165EC59
:104448001AF012000101136F010113514EEC22F012
:1044580012008B6CE7BDA4B4294371051E447F820A
:1044680091EC22F00E012E99120065AE02D0010ED9
:104478001200000E12000301006F00C3BBFF120000
:104488000301006F00C3BCFF12000001F951D8B44A
:104498001200FBD70101126F12C1BBFF120001010C
:1044A800126F12C1BCFF12000001F951D8B41200FA
:1044B800FBD70E01339157EC20F01200026E025028
:1044C80017EC1BF01200A60E0E01C46F12003C0E72
:1044D8000F015F6F1200EE7FC3F5C83F4BFEAFFDC3
:1044E80037FF89EC22F012008BEC22F012000F014A
:1044F8005A8712008DEC22F012008FEC22F0120085
:104508000E0136931200C3901200BD9E1200BD8E9C
:104518001200BD9E1200BD8E1200C3901200C3800F
:104528001200609012006750120012001200120070
:074538001200120012003C0A
:10CABC00000000803F000020410000C84200007AC6
:10CACC004400401C460050C347002474498096180B
:10CADC004B20BCBE4C286B6E4EF9021550EC78AD59
:10CAEC0060CAF249710000803FCDCCCC3D0AD723FF
:10CAFC003C6F12833A17B7D138ACC52737BD378690
:10CB0C003595BFD63377CC2B325F708930FFE6DB9F
:10CB1C002E08E53C1E6042A20D010000000A000038
:10CB2C000064000000E803000010270000A086014C
:10CB3C000040420F008096980000E1F50500CA9A6B
:10CB4C003B0100000010000000000100000010007C
:10CB5C0000000001000000100000000001000000B7
:10CB6C0010140010000C0008000400000018000055
:10CB7C000000000000000000005F0000000000004A
:10CB8C000007000700000000147F147F1400000051
:10CB9C00242A7F2A1200000023130864620000007C
:10CBAC00364955225000000000050300000000002B
:10CBBC001C2241000000000041221C00000000006B
:10CBCC00082A1C2A0800000008083E08080000007B
:10CBDC00A060000000000000080808080800000021
:10CBEC00606000000000000020100804020000003B
:10CBFC003E5149453E00000000427F4000000000CD
:10CC0C006251494946000000224149493600000062
:10CC1C001814127F1000000027454545390000000C
:10CC2C003C4A49493000000001710905030000002D
:10CC3C003649494936000000064949291E000000C2
:10CC4C00003636000000000000AC6C000000000054
:10CC5C0008142241000000001414141414000000E5
:10CC6C0041221408000000000201510906000000D6
:10CC7C00324979413E0000007E0909097E0000001E
:10CC8C007F494949360000003E41414122000000E5
:10CC9C007F4141221C0000007F49494941000000AE
:10CCAC007F090909010000003E414151720000005A
:10CCBC007F0808087F000000417F41000000000051
:10CCCC002040413F010000007F0814224100000079
:10CCDC007F404040400000007F020C027F000000BB
:10CCEC007F0408107F0000003E4141413E000000DF
:10CCFC007F090909060000003E4151215E00000039
:10CD0C007F091929460000002649494932000000D4
:10CD1C0001017F01010000003F4040403F00000046
:10CD2C001F2040201F0000003F4038403F00000003
:10CD3C00631408146300000003047804030000006B
:10CD4C0061514945430000007F4141000000000053
:10CD5C00020408102000000041417F000000000088
:10CD6C00040201020400000080808080800000002A
:10CD7C00010204000000000020545454780000000C
:10CD8C007F48444438000000384444280000000028
:10CD9C00384444487F0000003854545418000000B4
:10CDAC00087E09020000000018A4A4A47C00000066
:10CDBC007F08040478000000007D000000000000E3
:10CDCC0080847D00000000007F10284400000000DB
:10CDDC00417F4000000000007C0418047800000033
:10CDEC007C08047C0000000038444438000000003B
:10CDFC00FC24241800000000182424FC000000006F
:10CE0C00007C08040000000048545424000000007A
:10CE1C00047F4400000000003C40407C0000000007
:10CE2C001C2040201C0000003C4030403C00000016
:10CE3C0044281028440000001CA0A07C0000000026
:10CE4C004464544C440000000836410000000000CB
:10CE5C00007F0000000000004136080000000000C8
:10CE6C00020101020100000002050502000000069B
:10CE7C003C04427D9F6A425C900142604DBB405134
:10CE8C00EC473EDE8D1FBBECF34A48359595C71732
:10CE9C00C1DC45FDDB6DC372B33340063C0442C0BC
:10CEAC00598B4274044442F99B4F410000803F2B44
:10CEBC003401487F9DB045E7FFD9420000803F4CCC
:10CECC00697374206F6620616C6C20737570706F61
:10CEDC007274656420636F6D6D616E64733A0A0DD4
:10CEEC0044657669636520436F6E74726F6C204382
:10CEFC006F6D6D616E64733A20436F6D6D616E641E
:10CF0C007320746F207669657720616E6420636F7F
:10CF1C006E74726F6C206C6F77206C6576656C200C
:10CF2C0073797374656D2066756E6374696F6E6169
:10CF3C006C6974790A0D20202052657365743A204F
:10CF4C00436C6561727320746865207465726D69D9
:10CF5C006E616C20616E64207265736574732074ED
:10CF6C006865206D6963726F636F6E74726F6C6C41
:10CF7C0065720A0D202020436C6561723A20436C67
:10CF8C006561727320746865207465726D696E6179
:10CF9C006C2062757420646F65736E2774207265E3
:10CFAC0073657420746865206D6963726F0A0D2057
:10CFBC0020204361757365206F662052657365741C
:10CFCC003F3A2052657475726E73207468652063E5
:10CFDC0061757365206F6620746865206D6F73745E
:10CFEC0020726563656E7420646576696365207272
:10CFFC00657365740A0D2020202A49444E3F3A205F
:10D00C0052657475726E7320646576696365206908
:10D01C0064656E74696669636174696F6E2073749C
:10D02C0072696E670A0D202020446576696365205D
:10D03C004F6E2054696D653F3A2052657475726E5F
:10D04C007320646576696365206F6E2074696D6505
:10D05C002073696E6365206C6173742064657669F6
:10D06C0063652072657365740A0D20202044657613
:10D07C006963652049443F3A2052657475726E733A
:10D08C002064657669636520494420617320707261
:10D09C00652D70726F6772616D6D656420696E20AD
:10D0AC00666C617368206D656D6F72790A0D202056
:10D0BC00205265766973696F6E2049443F3A20525D
:10D0CC00657475726E732064657669636520736927
:10D0DC006C69636F6E207265766973696F6E204937
:10D0EC0044206173207072652D70726F6772616D70
:10D0FC006D656420696E20666C617368206D656D6A
:10D10C006F72790A0D202020557365722049447383
:10D11C003F3A2052657475726E732061206C69738E
:10D12C0074206F66207573657220494473202864DF
:10D13C006973706C6179656420696E206865782903
:10D14C002061732073746F72656420696E20666C45
:10D15C00617368206D656D6F72790A0D2020204116
:10D16C004443204572726F72733F3A205265747556
:10D17C00726E7320746865206361757365206F66C9
:10D18C0020616E20414443206572726F7220696683
:10D19C0020616E206572726F72206F63637572729C
:10D1AC0065640A0D202020436C6561722041444364
:10D1BC00204572726F72733A20436C6561727320F2
:10D1CC0074686520414443206572726F7220616EF1
:10D1DC006420726573756D65732041444320636FE1
:10D1EC006E76657273696F6E730A0D202020436F23
:10D1FC006D6D204572726F72733F3A205265747573
:10D20C00726E73206966206120636F6D6D756E6937
:10D21C00636174696F6E73206572726F72206861DE
:10D22C0073206F636375727265640A0D202020434E
:10D23C006C65617220436F6D6D204572726F7273F5
:10D24C003A20436C656172732074686520636F6D5E
:10D25C006D756E69636174696F6E73206572726F40
:10D26C00720A0D202020436C656172204D6178207C
:10D27C0056616C7565733A20457261736573206DE8
:10D28C006178696D756D207265636F726465642079
:10D29C0076616C7565732066726F6D2045455052D2
:10D2AC004F4D0A0D20202048656C703A2054686957
:10D2BC0073206D6573736167652C206C697374736F
:10D2CC0020737570706F7274656420636F6D6D611F
:10D2DC006E64730A0D2020204465766963652053C3
:10D2EC00756D6D6172793A205072696E747320613C
:10D2FC00206C697374206F662063757272656E742E
:10D30C0020616E64206D6178696D756D206D65614D
:10D31C007375726564206465766963652076616CEB
:10D32C007565732061732077656C6C206173206860
:10D33C0061726477617265204944730A0D0A0D4469
:10D34C006576696365204D6561737572656D656E93
:10D35C007420436F6D6D616E64733A205669657706
:10D36C00206C6F77206C6576656C207379737465AF
:10D37C006D206D6561737572656D656E74730A0DE4
:10D38C002020204D65617375726520504F533350CA
:10D39C00333F3A2052657475726E73202B332E33E3
:10D3AC00562041444320436F6E76657273696F6EED
:10D3BC0020696E20766F6C74730A0D2020204D65E9
:10D3CC00617375726520504F5331323F3A2052656C
:10D3DC007475726E73202B313256204144432043B6
:10D3EC006F6E76657273696F6E20696E20766F6CE6
:10D3FC0074730A0D2020204D65617375726520448D
:10D40C0069652054656D703F3A2052657475726E73
:10D41C007320746865206D6963726F636F6E7472CC
:10D42C006F6C6C6572206469652074656D706572D3
:10D43C00617475726520696E2064656772656573C9
:10D44C0020430A0D2020204D6561737572652046BE
:10D45C0056523F3A2052657475726E73207468652B
:10D46C0020696E7465726E616C20666978656420E3
:10D47C00766F6C74616765207265666572656E6344
:10D48C0065206275666665722031206F75747075E3
:10D49C007420696E20766F6C74730A0D2020204DF9
:10D4AC0065617375726520415653533F3A2052653E
:10D4BC007475726E7320746865206D656173757216
:10D4CC0065642076616C7565206F6620416E616CB9
:10D4DC006F672056535320696E20766F6C74730AF5
:10D4EC000D2020204D617820504F5333503320565F
:10D4FC006F6C746167653F3A2052657475726E7318
:10D50C0020746865206D6178696D756D2072656336
:10D51C006F72646564202B332E3356205261696C14
:10D52C0020566F6C74616765206D656173757265EB
:10D53C00640A0D2020204D617820504F5331322049
:10D54C00566F6C746167653F3A2052657475726EE4
:10D55C007320746865206D6178696D756D207265D6
:10D56C00636F72646564202B313256205261696C92
:10D57C0020566F6C74616765206D6561737572659B
:10D58C00640A0D2020204D61782044696520546583
:10D59C006D703F3A2052657475726E7320746865B5
:10D5AC00206D6178696D756D207265636F7264654D
:10D5BC0064206469652074656D7065726174757240
:10D5CC0065206D656173757265640A0D2020204DB0
:10D5DC0061782046565220566F6C746167653F3AED
:10D5EC002052657475726E7320746865206D617855
:10D5FC00696D756D207265636F7264656420465643
:10D60C005220427566666572203120566F6C7461CB
:10D61C006765206D656173757265640A0D0A0D503E
:10D62C0072696D617279204D6561737572656D6596
:10D63C006E7420436F6D6D616E64733A205669652C
:10D64C00772068696768206C6576656C206F7574E7
:10D65C00707574206D6561737572656D656E74732C
:10D66C0020616E642063616C63756C6174696F6EAC
:10D67C00730A0D2020204D65617375726520446519
:10D68C007465637465642043757272656E743F3A99
:10D69C002052657475726E73206D65617375726559
:10D6AC0064206F75747075742063757272656E7416
:10D6BC0020696E20616D7073206173207365656ED7
:10D6CC00206279204144430A0D2020204D6561736E
:10D6DC0075726520524D532043757272656E743F9E
:10D6EC003A2052657475726E73207468652063619C
:10D6FC006C63756C6174656420524D53206F757446
:10D70C007075742063757272656E742066726F6DBD
:10D71C00206D6561737572656D656E747320616ED5
:10D72C006420545249414320666972696E672061D6
:10D73C006E676C650A0D2020204D656173757265EE
:10D74C0020524D5320566F6C746167653F3A2052DE
:10D75C00657475726E73207468652063616C637593
:10D76C006C6174656420524D53206F7574707574C0
:10D77C0020766F6C746167652066726F6D205452F1
:10D78C0049414320666972696E6720616E676C65FA
:10D79C000A0D2020204D65617375726520506F77DE
:10D7AC0065723F3A2052657475726E7320746865A9
:10D7BC002063616C63756C61746564206F75747043
:10D7CC00757420706F77657220696E205761747460
:10D7DC00730A0D2020204D65617375726520456EAE
:10D7EC00657267793F3A2052657475726E73206D5D
:10D7FC006561737572656420656E657267792073F7
:10D80C00696E6365206D6561737572656D656E74A7
:10D81C0020726573657420696E205761747420489A
:10D82C006F7572730A0D202020436C656172204560
:10D83C006E657267793A20526573657473207468EB
:10D84C0065206D65617375726564206F7574707594
:10D85C007420656E6572677920746F207A65726FBB
:10D86C000A0D2020204C6F6164204F6E2054696D8E
:10D87C00653F3A2052657475726E73206C6F6164EB
:10D88C00206F6E2074696D652073696E6365206C02
:10D89C006173742064657669636520726573657461
:10D8AC0020696E207365636F6E64730A0D202020EF
:10D8BC004D617820524D532043757272656E743FE2
:10D8CC003A205072696E747320746865206D6178AB
:10D8DC00696D756D207265636F7264656420524D5D
:10D8EC0053206F75747075742063757272656E74E5
:10D8FC000A0D2020204D617820506F7765723F3AD9
:10D90C00205072696E747320746865206D6178693B
:10D91C006D756D207265636F72646564206F7574CC
:10D92C0070757420706F7765720A0D2020204D651C
:10D93C0061737572656D656E742053756D6D617272
:10D94C00794C205072696E747320612073756D6D03
:10D95C00617279206F6620696E7374616E74616E8A
:10D96C00656F757320616E64206D6178696D756D7E
:10D97C00206D65617375726564206C6F61642076CF
:10D98C00616C7565730A0D0A0D4F75747075742092
:10D99C00436F6E74726F6C20436F6D6D616E647348
:10D9AC003A20436F6E74726F6C20746865206F75CB
:10D9BC007470757420737461746520616E64206476
:10D9CC00696D6D696E672066656174757265730A41
:10D9DC000D202020456E61626C652044696D6D6977
:10D9EC006E673A20456E61626C6520545249414322
:10D9FC00206F75747075742064696D6D696E670A3B
:10DA0C000D20202044697361626C652044696D6D42
:10DA1C00696E673A2044697361626C65205452499F
:10DA2C004143206F75747075742064696D6D696EF7
:10DA3C00670A0D202020456E61626C65204C6F6179
:10DA4C00643A20456E61626C657320746865206F62
:10DA5C007574707574205452494143207769746809
:10DA6C002064696D6D696E672064697361626C65B1
:10DA7C00640A0D20202044697361626C65204C6F30
:10DA8C0061643A2044697361626C657320746865E3
:10DA9C00206F757470757420545249414320636F24
:10DAAC006D706C6574656C790A0D2020204C6F616B
:10DABC006420456E61626C65643F3A2052657475F2
:10DACC00726E7320696620746865206F757470754A
:10DADC0074206C6F616420697320656E61626C6583
:10DAEC0064206F722064697361626C65640A0D2036
:10DAFC00202044696D6D696E6720456E61626C65AE
:10DB0C00643F3A2052657475726E732069662064A6
:10DB1C00696D6D696E67206F6620746865206F751E
:10DB2C0074707574206C6F616420697320656E610C
:10DB3C00626C6564206F72206E6F740A0D20202059
:10DB4C005365742044696D6D696E6720506572630E
:10DB5C00656E746167653A203C783E3A2053657473
:10DB6C007320746865206F75747075742064696DAA
:10DB7C006D696E672070657263656E746167652090
:10DB8C00617320782070657263656E740A0D0A0DDE
:10DB9C00004C697374206F6620737570706F7274AB
:10DBAC0065642044657669636520436F6E74726F9B
:10DBBC006C20436F6D6D616E64733A0A0D202020EA
:10DBCC0052657365743A20436C6561727320746896
:10DBDC0065207465726D696E616C20616E64207273
:10DBEC00657365747320746865206D6963726F6307
:10DBFC006F6E74726F6C6C65720A0D202020436C12
:10DC0C006561723A20436C6561727320746865209B
:10DC1C007465726D696E616C2062757420646F65D9
:10DC2C00736E277420726573657420746865206D3B
:10DC3C006963726F0A0D2020204361757365206F34
:10DC4C00662052657365743F3A2052657475726E26
:10DC5C007320746865206361757365206F6620742A
:10DC6C006865206D6F737420726563656E742064D3
:10DC7C0065766963652072657365740A0D202020D2
:10DC8C002A49444E3F3A2052657475726E73206473
:10DC9C006576696365206964656E7469666963613C
:10DCAC0074696F6E20737472696E670A0D20202080
:10DCBC00446576696365204F6E2054696D653F3A03
:10DCCC002052657475726E73206465766963652085
:10DCDC006F6E2074696D652073696E6365206C616D
:10DCEC007374206465766963652072657365740A64
:10DCFC000D2020204465766963652049443F3A2015
:10DD0C0052657475726E732064657669636520491B
:10DD1C0044206173207072652D70726F6772616D33
:10DD2C006D656420696E20666C617368206D656D2D
:10DD3C006F72790A0D2020205265766973696F6EB7
:10DD4C002049443F3A2052657475726E73206465A5
:10DD5C00766963652073696C69636F6E2072657692
:10DD6C006973696F6E204944206173207072652D50
:10DD7C0070726F6772616D6D656420696E20666C80
:10DD8C00617368206D656D6F72790A0D20202055C6
:10DD9C00736572204944733F3A2052657475726EF4
:10DDAC00732061206C697374206F662075736572C3
:10DDBC00204944732028646973706C617965642010
:10DDCC00696E20686578292061732073746F7265A1
:10DDDC006420696E20666C617368206D656D6F726E
:10DDEC00790A0D202020414443204572726F7273D2
:10DDFC003F3A2052657475726E73207468652063A7
:10DE0C0061757365206F6620616E20414443206507
:10DE1C0072726F7220696620616E206572726F7209
:10DE2C00206F636375727265640A0D202020436C49
:10DE3C0065617220414443204572726F72733A20BF
:10DE4C00436C65617273207468652041444320659E
:10DE5C0072726F7220616E6420726573756D65737A
:10DE6C002041444320636F6E76657273696F6E73E5
:10DE7C000A0D202020436F6D6D204572726F7273F6
:10DE8C003F3A2052657475726E732069662061206A
:10DE9C00636F6D6D756E69636174696F6E73206508
:10DEAC0072726F7220686173206F63637572726532
:10DEBC00640A0D202020436C65617220436F6D6DE8
:10DECC00204572726F72733A20436C6561727320D5
:10DEDC0074686520636F6D6D756E69636174696FCD
:10DEEC006E73206572726F720A0D202020436C6570
:10DEFC006172204D61782056616C7565733A2045CE
:10DF0C007261736573206D6178696D756D207265D2
:10DF1C00636F726465642076616C756573206672DC
:10DF2C006F6D20454550524F4D0A0D202020446501
:10DF3C00766963652053756D6D6172793A20507204
:10DF4C00696E74732061206C697374206F66206332
:10DF5C00757272656E7420616E64206D6178696D86
:10DF6C00756D206D65617375726564206465766985
:10DF7C0063652076616C7565732061732077656CC1
:10DF8C006C2061732068617264776172652049440A
:10DF9C00730A0D0A0D20202048656C703A205468D5
:10DFAC006973206D6573736167652C206C6973747C
:10DFBC007320737570706F7274656420636F6D6D10
:10DFCC00616E64730A0D0A0D004C697374206F66E0
:10DFDC0020737570706F72746564205072696D6116
:10DFEC007279204D6561737572656D656E74204331
:10DFFC006F6D6D616E64733A0A0D2020204D656162
:10E00C00737572652044657465637465642043752B
:10E01C007272656E743F3A2052657475726E73201D
:10E02C006D65617375726564206F7574707574209D
:10E03C0063757272656E7420696E20616D707320E9
:10E04C006173207365656E206279204144430A0D2B
