:0400000085EF00F098
:060008005F828BEFBEF0E9
:100018005F80D8CF02F1E8CF03F1E0CF04F1FACF47
:1000280005F1FBCF06F1E9CF07F1EACF08F1E1CFFF
:1000380009F1E2CF0AF1D9CF0BF1DACF0CF1F3CF06
:100048000DF1F4CF0EF1F6CF0FF1F7CF10F1F8CF95
:1000580011F1F5CF12F15FC013F160C014F161C066
:1000680015F162C016F10E012EBB38AB03D0EEECD1
:10007800C7F01BD02CBD36AD0DD001D816D0050069
:10008800FA6E02013751FD6E3851FE6E3951FF6E1E
:10009800FA5012002EBD38AD03D01AECC7F005D0C7
:1000A8002BBF35AF02D070ECC9F016C162F015C194
:1000B80061F014C160F013C15FF012C1F5FF11C106
:1000C800F8FF10C1F7FF0FC1F6FF0EC1F4FF0DC115
:1000D800F3FF0CC1DAFF0BC1D9FF0AC1E2FF09C166
:1000E800E1FF08C1EAFF07C1E9FF06C1FBFF05C13F
:1000F800FAFF04C1E0FF03C1E8FF02C1D8FF5F9027
:06010800100099EFBFF0AA
:10E3D200000000803F000020410000C84200007A97
:10E3E2004400401C460050C34700247449809618DC
:10E3F2004B20BCBE4C286B6E4EF9021550EC78AD2A
:10E4020060CAF249710000803FCDCCCC3D0AD723CF
:10E412003C6F12833A17B7D138ACC52737BD378660
:10E422003595BFD63377CC2B325F708930FFE6DB70
:10E432002E08E53C1E6042A20D010000000A000009
:10E442000064000000E803000010270000A086011D
:10E452000040420F008096980000E1F50500CA9A3C
:10E462003B0100000010000000000100000010004D
:10E472000000000100000010000000000100000088
:10E4820010140010000C00080004000000063C04F8
:10E49200427D9F6A425C900142604DBB4051EC4715
:10E4A2003EDE8D1FBBECF34A48359595C717C1DC9C
:10E4B20045FDDB6DC372B33340063C0442C0598B49
:10E4C2004274044442F99B4F410000803F2B3401C7
:10E4D200487F9DB045E7FFD9420000803F4C6973F9
:10E4E20074206F6620737570706F72746564204457
:10E4F200657669636520436F6E74726F6C20436F3B
:10E502006D6D616E64733A0A0D2020205265736549
:10E51200743A20436C656172732074686520746577
:10E52200726D696E616C20616E64207265736574D0
:10E532007320746865206D6963726F0A0D20202054
:10E54200436C6561723A20436C6561727320746832
:10E5520065207465726D696E616C206275742064E9
:10E562006F65736E277420726573657420746865B5
:10E57200206D6963726F0A0D2020204361757365F7
:10E58200206F662052657365743F3A205265747538
:10E59200726E7320746865206361757365206F669F
:10E5A20020746865206D6F737420726563656E7484
:10E5B200206465766963652072657365740A0D204F
:10E5C20020202A49444E3F3A2052657475726E7378
:10E5D20020646576696365206964656E746966693D
:10E5E200636174696F6E20737472696E670A0D20BD
:10E5F2002020446576696365204F6E2054696D65FD
:10E602003F3A2052657475726E7320646576696351
:10E6120065206F6E2074696D652073696E63652075
:10E622006C617374206465766963652072657365D5
:10E63200740A0D2020204465766963652049443FB1
:10E642003A2052657475726E7320646576696365EB
:10E65200204944206173207072652D70726F677259
:10E66200616D6D656420696E20666C617368206DF2
:10E67200656D6F72790A0D20202052657669736983
:10E682006F6E2049443F3A2052657475726E732052
:10E692006465766963652073696C69636F6E207265
:10E6A20065766973696F6E204944206173207072C8
:10E6B200652D70726F6772616D6D656420696E2081
:10E6C200666C617368206D656D6F72790A0D20202A
:10E6D2002055736572204944733F3A205265747520
:10E6E200726E732061206C697374206F662075737B
:10E6F2006572204944732028646973706C6179657E
:10E702006420696E20686578292061732073746FB4
:10E7120072656420696E20666C617368206D656D38
:10E722006F72790A0D202020414443204572726F96
:10E73200723F3A2052657475726E73207468652058
:10E742006361757365206F6620616E2041444320CA
:10E752006572726F7220696620616E206572726FD7
:10E7620072206F636375727265640A0D2020204304
:10E772006C65617220414443204572726F723A2087
:10E78200436C65617273207468652041444320655F
:10E7920072726F7220616E6420726573756D65733B
:10E7A2002041444320636F6E76657273696F6E73A6
:10E7B2000A0D202020564343204F766572766F6CF7
:10E7C200746167653F3A20537461746573206966AA
:10E7D200206120564343206F766572766F6C7461B8
:10E7E200676520636F6E646974696F6E2068617318
:10E7F200206F63637572726564206F72206E6F742E
:10E802000A0D202020436C656172204D61782056EC
:10E81200616C7565733A20457261736573206D6131
:10E8220078696D756D207265636F726465642076B8
:10E83200616C7565732066726F6D20454550524F4D
:10E842004D0A0D20202048656C703A205468697387
:10E85200206D6573736167652C206C697374732016
:10E86200737570706F7274656420636F6D6D616E25
:10E8720064730A0D0A0D004C697374206F6620736D
:10E882007570706F72746564204465766963652083
:10E892004D6561737572656D656E7420436F6D6D44
:10E8A200616E64733A0A0D2020204D6561737572A2
:10E8B2006520504F533350333F3A2052657475727E
:10E8C2006E73202B332E33562041444320436F6E08
:10E8D20076657273696F6E20696E20766F6C7473E1
:10E8E2000A0D2020204D65617375726520504F53CB
:10E8F20031323F3A2052657475726E73202B313279
:10E90200562041444320436F6E76657273696F6E81
:10E9120020696E20766F6C74730A0D2020204D657D
:10E922006173757265204469652054656D703F3A64
:10E932002052657475726E7320746865206D696308
:10E94200726F636F6E74726F6C6C6572206469654E
:10E952002074656D706572617475726520696E20D0
:10E962006465677265657320430A0D2020204D653A
:10E972006173757265204656523F3A20526574752E
:10E98200726E732074686520696E7465726E616C54
:10E9920020666978656420766F6C746167652072A1
:10E9A20065666572656E636520627566666572206E
:10E9B20031206F757470757420696E20766F6C7477
:10E9C200730A0D2020204D656173757265204156D2
:10E9D20053533F3A2052657475726E7320746865A2
:10E9E200206D656173757265642076616C75652052
:10E9F2006F6620416E616C6F672056535320696EBB
:10EA020020766F6C74730A0D2020204D617820509F
:10EA12004F5333503320566F6C746167653F3A2011
:10EA220052657475726E7320746865206D617869C1
:10EA32006D756D207265636F72646564202B332E71
:10EA42003356205261696C20566F6C746167652081
:10EA52006D656173757265640A0D2020204D6178C1
:10EA620020504F53313220566F6C746167653F3AC4
:10EA72002052657475726E7320746865206D6178BA
:10EA8200696D756D207265636F72646564202B31E8
:10EA92003256205261696C20566F6C746167652032
:10EAA2006D656173757265640A0D2020204D617871
:10EAB200204469652054656D703F3A205265747533
:10EAC200726E7320746865206D6178696D756D2052
:10EAD2007265636F72646564206469652074656D34
:10EAE2007065726174757265206D656173757265AA
:10EAF200640A0D2020204D61782046565220566F20
:10EB02006C746167653F3A2052657475726E73204A
:10EB1200746865206D6178696D756D207265636FCB
:10EB2200726465642046565220427566666572209C
:10EB32003120566F6C74616765206D656173757203
:10EB420065640A0D0A0D004C697374206F662073A8
:10EB52007570706F72746564205072696D6172793C
:10EB6200204D6561737572656D656E7420436F6DBE
:10EB72006D616E64733A0A0D2020204D65617375D4
:10EB820072652044657465637465642043757272AE
:10EB9200656E743F3A2052657475726E73206D65AE
:10EBA200617375726564206F757470757420637516
:10EBB2007272656E7420696E20616D70732061736C
:10EBC200207365656E206279204144430A0D20203E
:10EBD200204D65617375726520524D5320437572E5
:10EBE20072656E743F3A2052657475726E7320744A
:10EBF20068652063616C63756C6174656420524D55
:10EC020053206F75747075742063757272656E74BB
:10EC12002066726F6D206D6561737572656D656ECC
:10EC2200747320616E6420545249414320666972B4
:10EC3200696E6720616E676C650A0D2020204D6544
:10EC4200617375726520524D5320566F6C74616703
:10EC5200653F3A2052657475726E73207468652040
:10EC620063616C63756C6174656420524D53206FEF
:10EC7200757470757420766F6C7461676520667246
:10EC82006F6D20545249414320666972696E672054
:10EC9200616E676C650A0D2020204D656173757287
:10ECA2006520506F7765723F3A2052657475726EB7
:10ECB20073207468652063616C63756C617465644C
:10ECC200206F757470757420706F77657220696E2D
:10ECD2002057617474730A0D2020204C6F616420E8
:10ECE2004F6E2054696D653F3A2052657475726E9D
:10ECF20073206C6F6164206F6E2074696D65207380
:10ED0200696E6365206C61737420646576696365FE
:10ED120020726573657420696E207365636F6E641B
:10ED2200730A0D2020204D617820524D53204375E7
:10ED32007272656E743F3A205072696E74732074F9
:10ED42006865206D6178696D756D207265636F729B
:10ED520064656420524D53206F757470757420631E
:10ED6200757272656E740A0D2020204D61782050F4
:10ED72006F7765723F3A205072696E7473207468BF
:10ED820065206D6178696D756D207265636F72645F
:10ED92006564206F757470757420706F7765720A80
:10EDA2000D0A0D004C697374206F662073757070C4
:10EDB2006F72746564204F757470757420436F6E42
:10EDC20074726F6C20436F6D6D616E64733A0A0DDD
:10EDD200202020456E61626C652044696D6D696E0C
:10EDE200673A20456E61626C652054524941432066
:10EDF2006F75747075742064696D6D696E670A0D44
:10EE020020202044697361626C652044696D6D69DC
:10EE12006E673A2044697361626C652054524941BD
:10EE220043206F75747075742064696D6D696E67C7
:10EE32000A0D202020456E61626C65204C6F616472
:10EE42003A20456E61626C657320746865206F7547
:10EE52007470757420545249414320776974682054
:10EE620064696D6D696E672064697361626C656463
:10EE72000A0D20202044697361626C65204C6F6129
:10EE8200643A2044697361626C657320746865201A
:10EE92006F757470757420545249414320636F6DCD
:10EEA200706C6574656C790A0D2020204C6F61646A
:10EEB20020456E61626C65643F3A205265747572DA
:10EEC2006E7320696620746865206F75747075743E
:10EED200206C6F616420697320656E61626C656489
:10EEE200206F722064697361626C65640A0D202070
:10EEF2002044696D6D696E6720456E61626C656460
:10EF02003F3A2052657475726E7320696620646997
:10EF12006D6D696E67206F6620746865206F757409
:10EF2200707574206C6F616420697320656E616214
:10EF32006C6564206F72206E6F740A0D202020535E
:10EF420065742044696D6D696E67205065726365F2
:10EF52006E746167653A203C783E3A20536574735B
:10EF620020746865206F75747075742064696D6DA6
:10EF7200696E672070657263656E74616765206192
:10EF82007320782070657263656E740A0D0A0D0035
:10EF9200506C65617365207370656369667920776B
:10EFA2006861742074797065206F6620636F6D6D7F
:10EFB200616E647320796F752764206C696B6520BC
:10EFC20068656C7020776974683A0A0D547279200A
:10EFD2002748656C70203C636F6D6D616E642073B1
:10EFE20065743E270A0D0A0D537570706F72746551
:10EFF2006420436F6D6D616E6420536574733A0AC9
:10F002000D20202044657669636520436F6E74721B
:10F012006F6C20436F6D6D616E64733A20436F6D48
:10F022006D616E647320746F207669657720616EFE
:10F032006420636F6E74726F6C206C6F77206C65E6
:10F0420076656C2073797374656D2066756E637472
:10F05200696F6E616C6974790A0D202020446576AF
:10F06200696365204D6561737572656D656E7420A7
:10F07200436F6D6D616E64733A2056696577206CDB
:10F082006F77206C6576656C2073797374656D207B
:10F092006D6561737572656D656E74730A0D2020FE
:10F0A200205072696D617279204D65617375726568
:10F0B2006D656E7420436F6D6D616E64733A205698
:10F0C2006965772068696768206C6576656C206F72
:10F0D2007574707574206D6561737572656D656E9A
:10F0E200747320616E642063616C63756C61746912
:10F0F2006F6E730A0D2020204F7574707574204353
:10F102006F6E74726F6C20436F6D6D616E64733AD3
:10F1120020436F6E74726F6C20746865206F757413
:10F1220070757420737461746520616E6420646903
:10F132006D6D696E672066656174757265730A0D1F
:10F142000020202020426F6F7420636F6D706C6509
:10F1520074650A0D20202020504943313846363745
:10F162004B3430206D546F7563682054657374207E
:10F17200426F6172640A0D202020204576616C7511
:10F182006174657320746865206D546F75636820BF
:10F192006361706163697469766520746F75636811
:10F1A200206C696272617279206469737472696237
:10F1B20075746564206279204D6963726F63686952
:10F1C200700A0D2020202053657473207468652016
:10F1D2007374617465206F662066697665204C459C
:10F1E2004473206261736564206F6E206D546F7585
:10F1F2006368206361706163697469766520707504
:10F202007368627574746F6E730A0D202020204239
:10F2120061756420726174653A2031313532303063
:10F22200206270730A0D202020204E6F20706172C0
:10F232006974792C203820626974732C206E6F20D7
:10F24200666C6F7720636F6E74726F6C2C20312046
:10F2520073746F70206269740A0D20202020436F3E
:10F262006D6D616E647320617265206361736520E8
:10F2720073656E7369746976650A0D2020202045D6
:10F282006E746572206120636F6D6D616E642C20F7
:10F292006F7220656E7465722048656C7020666FAF
:10F2A20072206C697374206F6620636F6D6D616E7E
:10F2B20064730A0D00496620796F752764206C69B2
:10F2C2006B6520746F20636F6D706C6574656C790B
:10F2D20020656E61626C65206F7220646973616281
:10F2E2006C6520746865206C6F61642C206469739E
:10F2F20061626C652064696D6D696E6720616E6420
:10F302002075736520726573706563746976652014
:10F31200636F6D6D616E64730A0D004552524F52F8
:10F322003A20506C65617365207365742064696D61
:10F332006D696E672070657263656E7461676520C2
:10F34200746F20616E20696E7465676572206772E2
:10F352006561746572207468616E203020616E642C
:10F36200206C657373207468616E203130300A0D31
:10F37200004465766963652049442073746F726541
:10F382006420696E20466C6173682069733A20308C
:10F392007825582E205468697320636F72726573E2
:10F3A200706F6E647320746F206120646576696388
:10F3B200652070617274206E756D626572206F6671
:10F3C2002025730A0D005468697320636F72726599
:10F3D20073706F6E647320746F2061203136206207
:10F3E20069742074696D6572207072652D6C6F612D
:10F3F200642076616C7565206F6620307825582010
:10F40200282575204C53427329200A0D0056434388
:10F41200204F766572766F6C7461676520636F6EDC
:10F42200646974696F6E20686173206F63637572BB
:10F4320072656420285643432068617320657863AF
:10F44200656564656420332E363056290A0D0054F2
:10F45200686520666F6C6C6F77696E67205573659F
:10F4620072204944732068617665206265656E206A
:10F472007265747269657665642066726F6D206666
:10F482006C617368206D656D6F72793A0A0D004385
:10F49200616C63756C617465642054524941432008
:10F4A200666972696E6720616E676C652069732098
:10F4B200252E33662072616469616E732028252EC1
:10F4C20033662064656772656573290A0D00537996
:10F4D2007374656D20706172616D657465727320FD
:10F4E200616E642061666669726D61746976652019
:10F4F200726573706F6E736573206170706561728F
:10F5020020696E20677265656E0A0D004465766932
:10F5120063652073696C69636F6E207265766973C7
:10F52200696F6E2049442061732073746F72656441
:10F5320020696E20466C6173682069733A202563E6
:10F54200253033640A0D00446576696365206F6E69
:10F552002074696D652073696E6365206C617374D4
:10F5620020726573657420636F6E646974696F6E6F
:10F57200206973202564207365636F6E64730A0DBE
:10F5820000466978656420566F6C74616765205225
:10F5920065666572656E6365204275666665722092
:10F5A20031206D6561737572656420617320252E4B
:10F5B200336620566F6C74730A0D004F7574707544
:10F5C2007420706F7765722063616C63756C61740F
:10F5D200656420617320252E33662057617474732D
:10F5E2002066726F6D20524D532076616C75657383
:10F5F2000A0D0048656C70206D65737361676573F1
:10F6020020616E64206E65757472616C2072657320
:10F61200706F6E7365732061707065617220696EC0
:10F622002079656C6C6F770A0D00202020205573BD
:10F63200657220494420576F726420256420284651
:10F642006C61736820616464726573732030783210
:10F65200303030302558293A20307825580A0D00AC
:10F662004C6F61642069732063757272656E746C8D
:10F672007920656E61626C65642C20627574206409
:10F68200696D6D696E672069732064697361626C6C
:10F6920065640A0D004C6F6164206F6E2074696DA1
:10F6A200652073696E6365206C617374206465768E
:10F6B200696365207265736574206973202564200F
:10F6C2007365636F6E64730A0D005468652063612D
:10F6D200757365206F6620746865206D6F73742082
:10F6E200726563656E742064657669636520726510
:10F6F200736574207761733A2025730A0D004D619A
:10F7020078696D756D207265636F72646564202B14
:10F71200332E3356205261696C20566F6C746167C8
:10F722006520697320252E336620566F6C74730A28
:10F732000D004D6178696D756D207265636F72643D
:10F742006564204656522042756666657220566F81
:10F752006C7461676520697320252E336620566FAD
:10F762006C74730A0D004D6178696D756D20726558
:10F77200636F7264656420524D53206F75747075A7
:10F78200742063757272656E7420697320252E333E
:10F79200662041726D730A0D004D6178696D756D59
:10F7A200207265636F72646564202B313256205279
:10F7B20061696C20566F6C746167652069732025DE
:10F7C2002E336620566F6C74730A0D0054686520E0
:10F7D200666F6C6C6F77696E67206368616E6E65C9
:10F7E2006C2063617573656420616E20414443201F
:10F7F2006572726F723A2025730A0D004D61727143
:10F80200756574746520556E69766572736974796D
:10F8120020454C454E20333033352046696E616CAD
:10F822002050726F6A6563740A0D004572726F72BE
:10F832007320616E64206E656761746976652072FB
:10F842006573706F6E73657320617070656172208D
:10F85200696E207265640A0D00456E746572202718
:10F8620048656C702720666F72206C697374206F14
:10F872006620617661696C61626C6520636F6D6D93
:10F88200616E64730A0D004D6178696D756D207249
:10F8920065636F72646564206F757470757420504F
:10F8A2006F77657220697320252E33662057617445
:10F8B20074730A0D004D6178696D756D2072656310
:10F8C2006F72646564204469652054656D70657269
:10F8D200617475726520697320252E336620430A90
:10F8E2000D00564343204F766572766F6C746167E4
:10F8F2006520636F6E646974696F6E20686173203E
:10F902006E6F74206F636375727265640A0D004CCA
:10F912006F616420686173206265656E20656E6147
:10F92200626C65642C2064696D6D696E6720646920
:10F932007361626C65640A0D004C6F616420616ED4
:10F94200642064696D6D696E6720617265206375FC
:10F952007272656E746C792064697361626C65643D
:10F962000A0D0057696E646F77656420576174638E
:10F972006820446F672054696D65722056696F6C08
:10F982006174696F6E205265736574005452494107
:10F9920043206F75747075742064696D6D696E674C
:10F9A20020686173206265656E2064697361626CB0
:10F9B20065640A0D005452494143206F7574707595
:10F9C200742064696D6D696E672068617320626579
:10F9D200656E20656E61626C65640A0D004D65613D
:10F9E200737572656D656E7420726573706F6E7378
:10F9F20065732061707065617220696E2063796140
:10FA02006E0A0D0041565353206D65617375726520
:10FA12006420617320252E336620566F6C74732028
:10FA22006279204144430A0D002B332E3356207253
:10FA320061696C206D656173757265642061732004
:10FA42002B252E336620566F6C74730A0D004469A1
:10FA52006D6D696E6720686173206265656E2073E3
:10FA6200657420746F2025642070657263656E74FE
:10FA72000A0D004469652054656D70657261747584
:10FA82007265206D656173757265642061732025EE
:10FA92002E3366430A0D002B313256207261696C97
:10FAA200206D65617375726564206173202B252E4C
:10FAB200336620566F6C74730A0D00524D53204FFB
:10FAC20075747075742043757272656E74206973F3
:10FAD20020252E33662041726D730A0D00524D535C
:10FAE200204F757470757420566F6C746167652051
:10FAF200697320252E33662056726D730A0D0048F5
:10FB0200656C70205072696D617279204D65617308
:10FB12007572656D656E7420436F6D6D616E647391
:10FB2200004D6178696D756D207265636F726465F1
:10FB3200642076616C756573206572617365640A11
:10FB42000D0048656C7020446576696365204D65DB
:10FB520061737572656D656E7420436F6D6D616E54
:10FB62006473004D656173757265642043757272CA
:10FB7200656E7420697320252E336620416D707383
:10FB82000A0D0044696D6D696E67206973206375A3
:10FB92007272656E746C7920656E61626C65640A5E
:10FBA2000D005573657220696E70757420617070F6
:10FBB2006561727320696E2077686974650A0D0049
:10FBC2004C6F61642069732063757272656E746C28
:10FBD200792064697361626C65640A0D0048656C22
:10FBE200702044657669636520436F6E74726F6C32
:10FBF20020436F6D6D616E64730048656C70204FB9
:10FC0200757470757420436F6E74726F6C20436FDD
:10FC12006D6D616E6473004C6F6164206973206363
:10FC2200757272656E746C7920656E61626C656462
:10FC32000A0D00524553455420496E737472756320
:10FC420074696F6E204578656375746564004D65EF
:10FC520061737572652044657465637465642043DD
:10FC6200757272656E743F004C6F616420686173D7
:10FC7200206265656E2064697361626C65640A0D59
:10FC8200005365742044696D6D696E67205065721A
:10FC920063656E746167653A20004E6F204144438C
:10FCA200204572726F722064657465637465640ABC
:10FCB2000D00537461636B20556E646572666C6FE0
:10FCC2007720526573657400496E7465726E616C5B
:10FCD2002046565220427566666572203100537482
:10FCE20061636B204F766572666C6F772052657325
:10FCF200657400436C656172696E672041444320FC
:10FD02004572726F720A0D004D65617375726520DE
:10FD1200524D5320566F6C746167653F004D6561AB
:10FD22007375726520524D532043757272656E74FD
:10FD32003F004D617820504F5333503320566F6C43
:10FD4200746167653F004D617374657220436C6531
:10FD52006172205265736574004D617820504F5373
:10FD6200313220566F6C746167653F004D65617377
:10FD7200757265204469652054656D703F003031AD
:10FD820032333435363738394142434445460041EF
:10FD92004320506F776572204D657465720A0D00BD
:10FDA20044696D6D696E6720456E61626C65643F82
:10FDB200004D61782046565220566F6C746167651B
:10FDC2003F00564343204F766572766F6C746167CD
:10FDD200653F004D617820524D5320437572726524
:10FDE2006E743F00436C656172204D6178205661EC
:10FDF2006C75657300556E646566696E6564205244
:10FE0200657365740042726F776E204F757420526D
:10FE120065736574004D65617375726520504F534B
:10FE22003350333F00446576696365204F6E20543A
:10FE3200696D653F004361757365206F6620526589
:10FE42007365743F0044697361626C652044696D37
:10FE52006D696E6700436C656172204144432045C1
:10FE620072726F7200506F776572204F6E2052650A
:10FE7200736574004D65617375726520504F53311F
:10FE8200323F004D65617375726520506F77657200
:10FE92003F00456E61626C652044696D6D696E67F5
:10FEA20000496E7465726E616C2044414331004DAD
:10FEB20065617375726520415653533F004C6F6103
:10FEC2006420456E61626C65643F004C6F61642022
:10FED2004F6E2054696D653F004D6178204469651D
:10FEE2002054656D703F00496E7465726E616C20BE
:10FEF2004156535300496E7465726E616C205465AD
:10FF02006D700050494331384C4636374B3430001F
:10FF12005265766973696F6E2049443F004D656191
:10FF220073757265204656523F0044697361626C74
:10FF320065204C6F61640050494331384636374B77
:10FF4200343000456E61626C65204C6F6164004420
:10FF520065766963652049443F004D617820506FA2
:10FF62007765723F00414443204572726F723F00D1
:10FF720055736572204944733F00556E6465666926
:10FF82006E656400286E756C6C2900504F533350B7
:10FF92003300504F533132002A49444E3F00436CE4
:10FFA2006561720049534E530048656C70001B5BDB
:10FFB200324A0049444E001B5B48001B5B73001B26
:10FFC2005B75001B5B4B0033300033310034310072
:10FFD20033320034320033330034330033340034EC
:10FFE20034003335003435003336003436003337CD
:0EFFF200003437001B5B0038003B006D000040
:020000040001F9
:10000000B4C117F1B5C118F1010E0101196FFE0E4F
:100010001A6F91ECC4F0010117511811D8A40FD038
:10002000B00E826FFF0E836F7FEC89F0B90E010175
:10003000826FFF0E836F7FEC89F0FF001200B4C166
:1000400017F1B5C118F1A00E0101196FFF0E1A6F5B
:1000500091ECC4F0010117511811D8A40ED0B00EC4
:10006000826FFF0E836F7FEC89F0B90E0101826F02
:10007000FF0E836F7FEC89F01200B4C117F1B5C198
:1000800018F1370E0101196FFE0E1A6F91ECC4F0D2
:10009000010117511811D8A419D0000EB26F000E2B
:1000A000B36F020ECAECA0F0CC0E0101826FF60E07
:1000B000836F0201F75167ECC7F017C184F118C1D3
:1000C00085F17FEC89F0F3ECC8F01200B4C117F1B0
:1000D000B5C118F19A0E0101196FFF0E1A6F91EC5C
:1000E000C4F0010117511811D8B40FD0B4C117F1E1
:1000F000B5C118F1B50E196FFF0E1A6F91ECC4F06F
:10010000010117511811D8A418D0000EB26F000EBB
:10011000B36F020ECAECA0F0910E0101826FFD0ECA
:10012000836F7FEC89F0FE0E0101826FF70E836F03
:100130007FEC89F0F3ECC8F01200B4C117F1B5C13F
:1001400018F1510E0101196FFF0E1A6F91ECC4F0F6
:10015000010117511811D8A423D0000EB26F000E60
:10016000B36F020ECAECA0F0730E0101826FF30EA2
:10017000836F72ECC8F022C184F123C185F172EC67
:10018000C8F022C124F123C125F1B3ECC3F024C18E
:1001900086F125C187F17FEC89F0F3ECC8F01200FD
:1001A000B4C117F1B5C118F1120E0101196FFF0E9C
:1001B0001A6F91ECC4F0010117511811D8A422D084
:1001C000000EB26F000EB36F020ECAECA0F00E0E5E
:1001D0000101826FF50E836F8CECC6F00101B66FE2
:1001E000410EB625846F856B000E852316ECC8F092
:1001F0000101B76FB751866F876B7FEC89F0F3EC25
:10020000C8F01200B4C117F1B5C118F1720E0101A6
:10021000196FFF0E1A6F91ECC4F0010117511811FC
:10022000D8A43ED0000EB26F000EB36F020ECAEC1F
:10023000A0F0510E0101826FF40E836F7FEC89F004
:10024000000E0201CA6F000EC96FCABF06D0CA51A4
:1002500024E1080EC95DD8B020D02C0E0101826FB8
:10026000F60E836FC9C284F1CAC285F1D89002012B
:10027000C9350101866F0201CA350101876F02018C
:10028000C9510AECC6F022C188F123C189F17FEC83
:1002900089F00201C94BCA2BD8D7F3ECC8F0120081
:1002A000B4C117F1B5C118F1670E0101196FFF0E46
:1002B0001A6F91ECC4F0010117511811D8A4A4D001
:1002C0005EA090D0000EB26F000EB36F010ECAECAC
:1002D000A0F05FCF3CF260D0900E0101176F020ECC
:1002E000186FA60E196FFF0E1A6FE4ECC6F06CD0F3
:1002F000900E0101176F020E186F940E196FFF0E0A
:100300001A6FE4ECC6F060D0900E0101176F020E78
:10031000186F8D0E196FFF0E1A6FE4ECC6F054D0F3
:10032000900E0101176F020E186FE90E196FFE0E85
:100330001A6FE4ECC6F048D0900E0101176F020E60
:10034000186FF70E196FFE0E1A6FE4ECC6F03CD072
:10035000900E0101176F020E186FA30E196FFE0E9B
:100360001A6FE4ECC6F030D0900E0101176F020E48
:10037000186FCA0E196FFC0E1A6FE4ECC6F024D089
:10038000900E0101176F020E186F7C0E196FFF0E91
:100390001A6FE4ECC6F018D002013C51000AD8B440
:1003A0009BD7040AD8B4A4D7260AD8B4ADD71E0A5E
:1003B000D8B4B6D7010AD8B4BFD7030AD8B4C8D7BF
:1003C000010AD8B4D1D7DCD7CE0E0101826FF70E67
:1003D000836F900E846F020E856F7FEC89F0F3ECD3
:1003E000C8F01200000E0101B26F000EB36F020ED2
:1003F000CAECA0F09C0E0101826FFC0E836F7FECB3
:1004000089F0F3ECC8F01200B4C117F1B5C118F1CE
:10041000570E0101196FFE0E1A6F91ECC4F0010125
:1004200017511811D8A418D07E965E900E012E8D0B
:1004300077ECC9F0000E0101B26F000EB36F020E2F
:10044000CAECA0F0F50E0101826FFC0E836F7FEC09
:1004500089F0F3ECC8F01200B4C117F1B5C118F17E
:10046000C40E0101196FFD0E1A6F91ECC4F0010169
:1004700017511811D8A426D05EA412D0000EB26F66
:10048000000EB36F010ECAECA0F00F0E0101826FD7
:10049000F40E836F7FEC89F0F3ECC8F05E941200E9
:1004A000000E0101B26F000EB36F020ECAECA0F095
:1004B000E40E0101826FF80E836F7FEC89F0F3EC9C
:1004C000C8F01200B4C117F1B5C118F1170E01013F
:1004D000196FFE0E1A6F91ECC4F00101175118113B
:1004E000D8A419D0000EB26F000EB36F060ECAEC7E
:1004F000A0F02B0E0101826FFA0E836FD3C184F13D
:10050000D4C185F1D5C186F1D6C187F17FEC89F0E0
:10051000F3ECC8F01200B4C117F1B5C118F1760EB2
:100520000101196FFE0E1A6F91ECC4F00101175111
:100530001811D8A419D0000EB26F000EB36F060EBA
:10054000CAECA0F0990E0101826FFA0E836FCFC141
:1005500084F1D0C185F1D1C186F1D2C187F17FECA0
:1005600089F0F3ECC8F01200B4C117F1B5C118F16D
:100570006E0E0101196FFD0E1A6F91ECC4F00101AE
:1005800017511811D8A419D0000EB26F000EB36F16
:10059000060ECAECA0F0750E0101826FFA0E836F91
:1005A000CBC184F1CCC185F1CDC186F1CEC187F13B
:1005B0007FEC89F0F3ECC8F01200B4C117F1B5C1BB
:1005C00018F11F0E0101196FFF0E1A6F91ECC4F0A4
:1005D000010117511811D8A419D0000EB26F000EE6
:1005E000B36F060ECAECA0F0830E0101826FF50E08
:1005F000836FE4C184F1E5C185F1E6C186F1E7C10D
:1006000087F17FEC89F0F3ECC8F01200B4C117F168
:10061000B5C118F1B10E0101196FFE0E1A6F91EC00
:10062000C4F0010117511811D8A419D0000EB26FEF
:10063000000EB36F060ECAECA0F0060E0101826F29
:10064000FA0E836FD7C184F1D8C185F1D9C186F183
:10065000DAC187F17FEC89F0F3ECC8F01200B4C185
:1006600017F1B5C118F1500E0101196FFC0E1A6F88
:1006700091ECC4F0010117511811D8A419D0000E43
:10068000B26F000EB36F060ECAECA0F0650E01014A
:10069000826FFB0E836FC7C184F1C8C185F1C9C1E8
:1006A00086F1CAC187F17FEC89F0F3ECC8F0120043
:1006B000B4C117F1B5C118F11F0E0101196FFD0E7C
:1006C0001A6F91ECC4F0010117511811D8A419D078
:1006D000000EB26F000EB36F060ECAECA0F0BD0E96
:1006E0000101826FFA0E836FC3C184F1C4C185F129
:1006F000C5C186F1C6C187F17FEC89F0F3ECC8F083
:100700001200B4C117F1B5C118F10A0E0101196F39
:10071000FD0E1A6F91ECC4F0010117511811D8A405
:1007200019D0000EB26F000EB36F060ECAECA0F027
:10073000DF0E0101826FFA0E836FBFC184F1C0C169
:1007400085F1C1C186F1C2C187F17FEC89F0F3EC7C
:10075000C8F01200B4C117F1B5C118F1850E01013E
:10076000196FFE0E1A6F91ECC4F0010117511811A8
:10077000D8A419D0000EB26F000EB36F060ECAECEB
:10078000A0F0BD0E0101826FF50E836FBBC184F135
:10079000BCC185F1BDC186F1BEC187F17FEC89F096
:1007A000F3ECC8F01200B4C117F1B5C118F1940E02
:1007B0000101196FFE0E1A6F91ECC4F0010117517F
:1007C0001811D8A412D07F90000EB26F000EB36F34
:1007D000020ECAECA0F0B70E0101826FF90E836F12
:1007E0007FEC89F0F3ECC8F01200B4C117F1B5C189
:1007F00018F1470E0101196FFE0E1A6F91ECC4F04B
:10080000010117511811D8A412D07F80000EB26FC9
:10081000000EB36F010ECAECA0F08E0E0101826FC4
:10082000F90E836F7FEC89F0F3ECC8F01200B4C1CD
:1008300017F1B5C118F1450E0101196FFF0E1A6FBE
:1008400091ECC4F0010117511811D8A414D07F8085
:100850007F925E82000EB26F000EB36F020ECAEC82
:10086000A0F0110E0101826FF90E836F7FEC89F009
:10087000F3ECC8F01200B4C117F1B5C118F1BF0E06
:100880000101196FFE0E1A6F91ECC4F001011751AE
:100890001811D8A425D05EA211D0000EB26F000EA0
:1008A000B36F020ECAECA0F0190E0101826FFC0EAC
:1008B000836F7FEC89F0F3ECC8F01200000E0101A9
:1008C000B26F000EB36F010ECAECA0F0C20E0101B0
:1008D000826FFB0E836F7FEC89F0F3ECC8F012009F
:1008E000B4C117F1B5C118F1A20E0101196FFD0EC7
:1008F0001A6F91ECC4F0010117511811D8A439D026
:100900005EB27FB011D0000EB26F000EB36F020E58
:10091000CAECA0F0850E0101826FFB0E836F7FECA5
:1009200089F0F3ECC8F012005EA211D0000EB26F95
:10093000000EB36F030ECAECA0F0620E0101826FCD
:10094000F60E836F7FEC89F0F3ECC8F01200000E16
:100950000101B26F000EB36F010ECAECA0F03B0EA6
:100960000101826FF90E836F7FEC89F0F3ECC8F020
:100970001200B4C117F1B5C118F12C0E0101196FA5
:10098000FF0E1A6F91ECC4F0010117511811D8A491
:1009900014D07F927F905E92000EB26F000EB36F04
:1009A000010ECAECA0F06A0E0101826FFC0E836F8B
:1009B0007FEC89F0F3ECC8F01200B4C126F1B5C1A8
:1009C00027F1830E0101286FFC0E296F72ECC0F035
:1009D000010126512711D8B431D1000E0201C66F92
:1009E000000EC56FC6BF06D0C6511FE1030EC55D20
:1009F000D8B01BD0180EC5250101B66F000E02013C
:100A0000C6210101B76FB651B425D96EB751B521D2
:100A1000DA6EC20E0201C525E16E020EC621E26E3B
:100A2000DFCFE7FFC54BC62BDDD7C20E01011D6F1F
:100A3000020E1E6F1FECBEF01DC1C7F21EC1C8F230
:100A40000201C8BF06D0C8510BE1640EC75DD8B023
:100A500007D0C8BF05D0C8512BE1C705D8B028D0F2
:100A6000000E0101B26F000EB36F010ECAECA0F0D0
:100A70001D0E0101826FF30E836F7FEC89F0000E73
:100A80000101B26F000EB36F030ECAECA0F0B70EF7
:100A90000101826FF20E836F7FEC89F05B0E010122
:100AA000826FF80E836F7FEC89F0F3ECC8F01200D0
:100AB000000E0101416F000E426FC80E436F420EDF
:100AC000446F000E2D6F000E2E6FC80E2F6F420E5A
:100AD000306FC7C217F1C8C218F1000E18BFFF0E61
:100AE000196F1A6F010E52ECB6F017C125F118C13B
:100AF00026F119C127F11AC128F17FECC7F025C1F1
:100B000029F126C12AF127C12BF128C12CF1CFEC04
:100B1000A5F029C13DF12AC13EF12BC13FF12CC105
:100B200040F1D3ECAEF03DC156F13EC157F13FC1AB
:100B300058F140C159F1DB0E01015A6F0F0E5B6F86
:100B4000490E5C6F400E5D6F7EECA2F056C1F2F074
:100B500057C1F3F058C1F4F059C1F5F0F2C056F1A5
:100B6000F3C057F1F4C058F1F5C059F1E10E01019D
:100B70005A6F2E0E5B6F650E5C6F420E5D6F7EECE2
:100B8000A2F056C1A6F257C1A7F258C1A8F259C1A6
:100B9000A9F2C7C2B6F1C8C2B7F10101B61FB71FAB
:100BA000B64BB72B640EB625176F000EB721186F22
:100BB000020E1A6F8F0E196FDAECC7F017C1F0F042
:100BC00018C1F1F0000E0101B26F000EB36F020EFA
:100BD000CAECA0F0500E0101826FFA0E836FC7C2FB
:100BE00084F1C8C285F17FEC89F0910E0101826F1A
:100BF000F40E836FF2C084F1F3C085F1F4C086F186
:100C0000F5C087F1A6C288F1A7C289F1A8C28AF10E
:100C1000A9C28BF17FEC89F0C80E0101826FF30E3F
:100C2000836FF0C084F1F1C085F1F0C086F1F1C0AE
:100C300087F17FEC89F0F3ECC8F01200B4C117F132
:100C4000B5C118F1270E0101196FFE0E1A6F91EC54
:100C5000C4F0010117511811D8A419D0000EB26FB9
:100C6000000EB36F020ECAECA0F0490E0101826FB4
:100C7000F50E836F1CC284F11DC285F11EC286F180
:100C80001FC287F17FEC89F0F3ECC8F01200B4C109
:100C900017F1B5C118F1CD0E0101196FFE0E1A6FD3
:100CA00091ECC4F0010117511811D8A419D0000E0D
:100CB000B26F000EB36F020ECAECA0F0970E0101E6
:100CC000826FF60E836F18C284F119C285F11AC2C1
:100CD00086F11BC287F17FEC89F0F3ECC8F01200BB
:100CE000B4C117F1B5C118F1D50E0101196FFD0E90
:100CF0001A6F91ECC4F0010117511811D8A430D02B
:100D00008D0EF66EE40EF76E000EF86E0900F5CF4C
:100D100019F10A00F5CF1AF13FECC4F019C1AAF29B
:100D20001AC1ABF21BC1ACF21CC1ADF2000E010145
:100D3000B26F000EB36F060ECAECA0F0680E010190
:100D4000826FF70E836FAAC284F1ABC285F1ACC289
:100D500086F1ADC287F17FEC89F0F3ECC8F01200A8
:100D6000B4C117F1B5C118F15C0E0101196FFF0E86
:100D70001A6F91ECC4F0010117511811D8A430D0AA
:100D80008B0EF66EE40EF76E000EF86E0900F5CFCE
:100D900019F10A00F5CF1AF13FECC4F019C1AEF217
:100DA0001AC1AFF21BC1B0F21CC1B1F2000E0101B9
:100DB000B26F000EB36F060ECAECA0F0890E0101EF
:100DC000826FF80E836FAEC284F1AFC285F1B0C2FC
:100DD00086F1B1C287F17FEC89F0F3ECC8F0120024
:100DE000B4C117F1B5C118F1340E0101196FFD0E30
:100DF0001A6F91ECC4F0010117511811D8A430D02A
:100E0000890EF66EE40EF76E000EF86E0900F5CF4F
:100E100019F10A00F5CF1AF13FECC4F019C1B2F292
:100E20001AC1B3F21BC1B4F21CC1B5F2000E01012C
:100E3000B26F000EB36F060ECAECA0F0000E0101F7
:100E4000826FF70E836FB2C284F1B3C285F1B4C270
:100E500086F1B5C287F17FEC89F0F3ECC8F012009F
:100E6000B4C117F1B5C118F15B0E0101196FFD0E88
:100E70001A6F91ECC4F0010117511811D8A430D0A9
:100E8000870EF66EE40EF76E000EF86E0900F5CFD1
:100E900019F10A00F5CF1AF13FECC4F019C1B6F20E
:100EA0001AC1B7F21BC1B8F21CC1B9F2000E0101A0
:100EB000B26F000EB36F060ECAECA0F09B0E0101DC
:100EC000826FF70E836FB6C284F1B7C285F1B8C2E4
:100ED00086F1B9C287F17FEC89F0F3ECC8F012001B
:100EE000B4C117F1B5C118F1DB0E0101196FFE0E87
:100EF0001A6F91ECC4F0010117511811D8A430D029
:100F0000850EF66EE40EF76E000EF86E0900F5CF52
:100F100019F10A00F5CF1AF13FECC4F019C1BAF289
:100F20001AC1BBF21BC1BCF21CC1BDF2000E010113
:100F3000B26F000EB36F060ECAECA0F0B70E01013F
:100F4000826FF80E836FBAC284F1BBC285F1BCC256
:100F500086F1BDC287F17FEC89F0F3ECC8F0120096
:100F6000B4C117F1B5C118F1B30E0101196FFD0E2F
:100F70001A6F91ECC4F0010117511811D8A430D0A8
:100F8000830EF66EE40EF76E000EF86E0900F5CFD4
:100F900019F10A00F5CF1AF13FECC4F019C1BEF205
:100FA0001AC1BFF21BC1C0F21CC1C1F2000E010187
:100FB000B26F000EB36F060ECAECA0F0340E010142
:100FC000826FF70E836FBEC284F1BFC285F1C0C2CB
:100FD00086F1C1C287F17FEC89F0F3ECC8F0120012
:100FE000B4C117F1B5C118F1E60E0101196FFD0E7C
:100FF0001A6F91ECC4F0010117511811D8A49BD0BD
:10100000000E1B6F000E1C6F000E1D6F000E1E6F7A
:101010008D0EF66EE40EF76E000EF86E0900F5CF39
:101020001FF10A00F5CF20F1B9ECC4F0000E010168
:101030001B6F000E1C6F000E1D6F000E1E6F8B0EBF
:10104000F66EE40EF76E000EF86E0900F5CF1FF194
:101050000A00F5CF20F1B9ECC4F0000E01011B6FBE
:10106000000E1C6F000E1D6F000E1E6F890EF66EB7
:10107000E40EF76E000EF86E0900F5CF1FF10A00BE
:10108000F5CF20F1B9ECC4F0000E01011B6F000E8A
:101090001C6F000E1D6F000E1E6F870EF66EE40EA5
:1010A000F76E000EF86E0900F5CF1FF10A00F5CFBC
:1010B00020F1B9ECC4F0000E01011B6F000E1C6F93
:1010C000000E1D6F000E1E6F850EF66EE40EF76E9D
:1010D000000EF86E0900F5CF1FF10A00F5CF20F1E0
:1010E000B9ECC4F0000E01011B6F000E1C6F000E66
:1010F0001D6F000E1E6F830EF66EE40EF76E000E6F
:10110000F86E0900F5CF1FF10A00F5CF20F1B9EC18
:10111000C4F0000E0101B26F000EB36F020ECAECF4
:10112000A0F0230E0101826FFB0E836F7FEC89F02C
:10113000F3ECC8F01200B4C117F1B5C118F1DF0E1D
:101140000101196FFB0E1A6F91ECC4F001011751E8
:101150001811D8A411D0000EB26F000EB36F030E99
:10116000CAECA0F0DF0E0101826FE40E836F7FEC0A
:1011700089F0F3ECC8F01200B4C117F1B5C118F151
:10118000440E0101196FFB0E1A6F91ECC4F00101BE
:1011900017511811D8A411D0000EB26F000EB36F02
:1011A000030ECAECA0F0790E0101826FE80E836F86
:1011B0007FEC89F0F3ECC8F01200B4C117F1B5C1AF
:1011C00018F1010E0101196FFB0E1A6F91ECC4F0BA
:1011D000010117511811D8A411D0000EB26F000EE2
:1011E000B36F030ECAECA0F0490E0101826FEB0E43
:1011F000836F7FEC89F0F3ECC8F01200B4C117F1F3
:10120000B5C118F1FC0E0101196FFB0E1A6F91ECBC
:10121000C4F0010117511811D8A411D0000EB26FFB
:10122000000EB36F030ECAECA0F0A60E0101826F90
:10123000ED0E836F7FEC89F0F3ECC8F01200B4C1BF
:1012400017F1B5C118F1AB0E0101196FFF0E1A6F3E
:1012500091ECC4F0010117511811D8A41200000E2E
:10126000B26F000EB36F030ECAECA0F0920E010134
:10127000826FEF0E836F7FEC89F00DECC9F0F50EF5
:101280000101826FF50E836F7FEC89F0000E010182
:10129000B26F000EB36F020ECAECA0F0D00E0101C7
:1012A000826FF40E836F7FEC89F0000E0101B26F44
:1012B000000EB36F060ECAECA0F0DF0E0101826FC4
:1012C000F90E836F7FEC89F0000E0101B26F000E02
:1012D000B36F010ECAECA0F02D0E0101826FF80E63
:1012E000836F7FEC89F0F3ECC8F0A40E0101826FEC
:1012F000FB0E836F7FEC89F00DECC9F01200840EB9
:1013000001019B6F010E9C6F47EF90F0250EB11904
:10131000D8B405D0B15125ECC9F047EF90F0000EDC
:101320000101AE6F000EAD6F000EAC6F000EAB6F23
:1013300004D00101AB85824B832B82C1F6FF83C1B0
:10134000F7FF000EF86E0D0EF76403D00800F5509D
:1013500005D0F6CFE9FFF7CFEAFFEF50300AD8B457
:10136000E8D782C1F6FF83C1F7FF000EF86E0D0EBD
:10137000F76403D00800F55005D0F6CFE9FFF7CFAA
:10138000EAFFEF5061ECC8F0D8A04CD0000E01018C
:10139000AE6F000EAD6FADC117F1AEC118F1000E0A
:1013A00001011A6F0A0E196FDAECC7F017C1ADF11F
:1013B00018C1AEF1D00E01018C6FFF0E8D6F82C18E
:1013C000F6FF83C1F7FF000EF86E0D0EF76403D031
:1013D0000800F55005D0F6CFE9FFF7CFEAFFEF5050
:1013E00001018E6F8F6B8C518E278D518F238E5103
:1013F000AD278F51AE23824B832B82C1F6FF83C171
:10140000F7FF000EF86E0D0EF76403D00800F550DC
:1014100005D0F6CFE9FFF7CFEAFFEF5061ECC8F057
:10142000D8B0B9D782C1F6FF83C1F7FF000EF86EBE
:101430000D0EF76403D00800F55005D0F6CFE9FF94
:10144000F7CFEAFFEF502E0AD8A449D00101AC8DA6
:10145000824B832B000EB06F000EAF6F2AD0AFC14E
:1014600017F1B0C118F1000E01011A6F0A0E196FC1
:10147000DAECC7F082C1F6FF83C1F7FF000EF86E09
:101480000D0EF76403D00800F55005D0F6CFE9FF44
:10149000F7CFEAFFEF5001018C6F8C511727000E38
:1014A0001823D00E1725AF6FFF0E1821B06F824B97
:1014B000832B82C1F6FF83C1F7FF000EF86E0D0E7D
:1014C000F76403D00800F55005D0F6CFE9FFF7CF59
:1014D000EAFFEF5061ECC8F0D8A0A4D0C0D7000E4E
:1014E0000101B06F000EAF6FAC899CD0AC85D1D03C
:1014F000AB8FCFD09BC1D9FF9CC1DAFFDECF97F174
:10150000DDCF98F1020E9B27000E9C239751981176
:10151000D8A404D0860E976FFF0E986F000E9A6FB6
:10152000000E996F03D00101994B9A2B9951972581
:101530008C6F9A5198218D6F8CC1F6FF8DC1F7FF8A
:10154000000EF86E0D0EF76403D00800F55005D0BC
:10155000F6CFE9FFF7CFEAFFEF500009D8A4E3D7B1
:101560000101AF51B011D8B40AD09951AF5D9A5171
:10157000B059D8B004D0AFC199F1B0C19AF1AD5112
:10158000995DAE519A59D8B005D09951AD5F9A5135
:10159000AE5B08D0000EAE6F000EAD6F03D0200E14
:1015A00025ECC9F00101AD07D8A0AE07AD29F7E1E0
:1015B000AE29D8B417D0F3D797C1F6FF98C1F7FF7B
:1015C000000EF86E0D0EF76403D00800F55005D03C
:1015D000F6CFE9FFF7CFEAFFEF5025ECC9F00101A4
:1015E000974B982B9907D8A09A079929E5E19A2952
:1015F000D8B447EF90F0E0D79BC1D9FF9CC1DAFF88
:10160000DF50B16F020E9B27000E9C23B10E976F27
:10161000010E986F000E9A6F010E996FA1D7C00E40
:10162000AB1337D0010182518C6F83518D6F824B88
:10163000832B8CC1F6FF8DC1F7FF000EF86E0D0EE7
:10164000F76403D00800F55005D0F6CFE9FFF7CFD7
:10165000EAFFEF500101B16FB151000AD8B4120096
:10166000580AD8B445D73B0AD8B4C6D7070AD8B465
:1016700010D0020AD8B43AD70F0AD8B40AD01A0A3E
:10168000D8B438D7060AD8B4CAD70D0AD8B430D7D8
:10169000BDD7070EAC15D8B43DD3ACA904D0000E0D
:1016A000B06F060EAF6F9BC1D9FF9CC1DAFFDECFD2
:1016B000A3F1DECFA4F1DECFA5F1DECFA6F1040EBB
:1016C0009B27000E9C23A6AF15D0A3C125F1A4C172
:1016D00026F1A5C127F1A6C128F17FECC7F025C1ED
:1016E000A3F126C1A4F127C1A5F128C1A6F1030EDB
:1016F0000101AB13000EA26F000EA16FA351A41144
:10170000A511A611D8B484D0A535A635820FA16F36
:10171000A26BFF0EA223A107D8A0A207A1C117F1B7
:10172000A2C118F1000E1A6F030E196FDAECC7F0A0
:1017300017C1A1F118C1A2F1A1C11DF1A2C11EF1F1
:10174000000E0101206F0A0E1F6FB8ECC0F01DC122
:10175000A1F11EC1A2F10101A2AF03D0A107D8A03F
:10176000A207A151000838EC9CF06FC19DF170C137
:101770009EF171C19FF172C1A0F19DC156F19EC150
:1017800057F19FC158F1A0C159F1A3C15AF1A4C1A9
:101790005BF1A5C15CF1A6C15DF17EECA2F056C182
:1017A0009DF157C19EF158C19FF159C1A0F19DC152
:1017B00017F19EC118F19FC119F1A0C11AF1000ED5
:1017C00001011B6F000E1C6F800E1D6F3F0E1E6F00
:1017D00092ECBAF00101D8B004D0A107D8A0A207BA
:1017E00017D09DC117F19EC118F19FC119F1A0C179
:1017F0001AF1000E1B6F000E1C6F200E1D6F410EA4
:101800001E6F92ECBAF00101D8A002D0A14BA22B1E
:10181000B0BF06D0B05121E10D0EAF5DD8B01DD0E4
:10182000A3C129F1A4C12AF1A5C12BF1A6C12CF1B4
:10183000AF5170ECADF06FC12DF170C12EF171C1DF
:101840002FF172C130F1CFECA5F029C1A3F12AC16B
:10185000A4F12BC1A5F12CC1A6F10101A2BF06D0B4
:10186000A25122E10A0EA15DD8B01ED0A351A4114D
:10187000A511A611D8B462D0A3C178F1A4C179F1A1
:10188000A5C17AF1A6C17BF141ECBDF0010178510F
:1018900079117A117B11D8B4A2BF50D0A25104E1C2
:1018A000020EA15DD8A04AD09DC117F19EC118F1CA
:1018B0009FC119F1A0C11AF15F0E1B6F700E1C6F52
:1018C000890E1D6F400E1E6F92ECBAF00101D8B068
:1018D00002D0F70E01D0F80EA127FF0EA223A151CE
:1018E00038EC9CF06FC19DF170C19EF171C19FF108
:1018F00072C1A0F1A3C117F1A4C118F1A5C119F1DA
:10190000A6C11AF19DC11BF19EC11CF19FC11DF121
:10191000A0C11EF1D7ECB8F017C1A7F118C1A8F10A
:1019200019C1A9F11AC1AAF1000E0101A36F000E9D
:10193000A46F000EA56F000EA66F3CD0A3C178F176
:10194000A4C179F1A5C17AF1A6C17BF141ECBDF04A
:1019500078C1A7F179C1A8F17AC1A9F17BC1AAF137
:10196000A3C13DF1A4C13EF1A5C13FF1A6C140F123
:10197000A7C117F1A8C118F1A9C119F1AAC11AF19B
:10198000000E52ECB6F017C141F118C142F119C175
:1019900043F11AC144F1C2ECC5F03DC1A3F13EC10F
:1019A000A4F13FC1A5F140C1A6F1000E0101A26F53
:1019B000000EA16F010EB16F0A0EB119D8B41BD081
:1019C000B151040D3B0EF324F66EE40EF420F76ED5
:1019D000F86A000EF8220900F550A75D0900F550DD
:1019E000A8590900F550A9590900F550AA59D8A0DD
:1019F00002D0B12BE1D7B1C18CF18D6B8CBF8D07BB
:101A0000AF518C27B0518D23A1518C27A2518D232A
:101A10008C51AD5F8D51AE5BAF51B011D8B403D0D6
:101A2000AD07D8A0AE07030EAB158C6F000EAC153A
:101A30008D6F8C518D11D8B403D0AD07D8A0AE07EF
:101A4000ABA525D0030EAB158C6F000EAC158D6FBA
:101A50008C518D11D8B40BD02D0E25ECC9F007D0C8
:101A6000300E25ECC9F00101AD07D8A0AE07010189
:101A7000AEBF6CD0AE51F4E1AD05D8A067D0F0D7C1
:101A8000200E25ECC9F00101AD07D8A0AE07AEBF0E
:101A900005D0AE51F5E1AD05D8B0F2D7030EAB15C8
:101AA0008C6F000EAC158D6F8C518D11D8B44ED04B
:101AB0002D0E25ECC9F04AD0A7C117F1A8C118F125
:101AC000A9C119F1AAC11AF10101B151040D3B0ECE
:101AD000F324F66EE40EF420F76EF86A000EF82296
:101AE0000900F5CF1BF10900F5CF1CF10900F5CF76
:101AF0001DF10A00F5CF1EF1FBECC0F017C19DF1FE
:101B000018C19EF119C19FF11AC1A0F19DC124F124
:101B10009EC125F19FC126F1A0C127F10A0E010146
:101B2000286F000E296F000E2A6F000E2B6F4CECF1
:101B3000C3F024C19DF125C19EF126C19FF127C1AB
:101B4000A0F101019D51300F25ECC9F00101B10751
:101B5000B129D8B408D0B0D7300E25ECC9F00101B6
:101B6000A107D8A0A207A2BF05D0A251F5E1A10507
:101B7000D8B0F2D7B0BF09D0B05104E1090EAF5DC3
:101B8000D8A003D0080EB16F02D0AFC1B1F1B151EE
:101B9000AF5F000EB1BFFF0EB05BB151D8B403D040
:101BA0002E0E25ECC9F00101B15138EC9CF06FC14B
:101BB00092F170C193F171C194F172C195F1A3C119
:101BC0005AF1A4C15BF1A5C15CF1A6C15DF192C15E
:101BD00056F193C157F194C158F195C159F17EEC7A
:101BE000A2F056C178F157C179F158C17AF159C1C3
:101BF0007BF141ECBDF078C1A7F179C1A8F17AC1C0
:101C0000A9F17BC1AAF174D0A7C117F1A8C118F13D
:101C1000A9C119F1AAC11AF10101B151040D3B0E7C
:101C2000F324F66EE40EF420F76EF86A000EF82244
:101C30000900F5CF1BF10900F5CF1CF10900F5CF24
:101C40001DF10A00F5CF1EF1FBECC0F017C19DF1AC
:101C500018C19EF119C19FF11AC1A0F19DC124F1D3
:101C60009EC125F19FC126F1A0C127F10A0E0101F5
:101C7000286F000E296F000E2A6F000E2B6F4CECA0
:101C8000C3F024C19DF125C19EF126C19FF127C15A
:101C9000A0F101019D51300F25ECC9F0A7C124F13D
:101CA000A8C125F1A9C126F1AAC127F10101B151AD
:101CB000040D3B0EF324F66EE40EF420F76EF86A82
:101CC000000EF8220900F5CF28F10900F5CF29F11F
:101CD0000900F5CF2AF10A00F5CF2BF14CECC3F047
:101CE00024C1A7F125C1A8F126C1A9F127C1AAF1F4
:101CF0000101B107B129D8B408D086D7300E25EC40
:101D0000C9F00101AF07D8A0B007AF51B011D8B4E6
:101D1000BED1F4D7C00EAB158C6F000EAC158D6F15
:101D20008C518D11D8A41ED09BC1D9FF9CC1DAFF64
:101D3000DECFA7F1DDCFA8F1000EA8BFFF0EA96F7F
:101D4000AA6F020E9B27000E9C23AAAF1DD0030E84
:101D5000AB13AA1FA91FA81FA76D000EA823A923B4
:101D6000AA2312D09BC1D9FF9CC1DAFFDECF8CF130
:101D7000DDCF8DF18CC1A7F18DC1A8F1A96BAA6B44
:101D8000020E9B27000E9C23AF51B011D8A44BD05C
:101D9000A751A811A911AA11D8A445D0AF4BB02BB7
:101DA00042D0010EB16F0A0EB119D8B447D0B1516B
:101DB000040D3B0EF324F66EE40EF420F76EF86A81
:101DC000000EF8220900F550A75D0900F550A8594A
:101DD0000900F550A9590900F550AA59D8A02ED0EC
:101DE000B12BE1D7010EB16F080EB119D8B426D0CE
:101DF000B151040D630EF324F66EE40EF420F76E79
:101E0000F86A000EF8220900F550A75D0900F550A8
:101E1000A8590900F550A9590900F550AA59D8A0A8
:101E20000DD0B12BE1D7AB51C00B000AD8B4B9D754
:101E3000800AD8B4D7D7400AD8B4B3D7800EB1BF80
:101E40007F0E8C6FAF51B15DB051800A8C59D8B004
:101E500003D0AFC1B1F110D0B051800A8C6FB15135
:101E6000AF5D800EB1BF7F0E8C59D8B005D0B15197
:101E7000AF6FB06BAFBFB007AD51AE11D8B40DD0DE
:101E8000030EAB158C6F000EAC158D6F8C518D1140
:101E9000D8B403D0AD07D8A0AE07ACAD13D0AD51C8
:101EA000AF5DB051800A8C6FAE51800A8C59D8B0AA
:101EB00005D0AF51AD5FB051AE5B04D0000EAE6F38
:101EC000000EAD6F800EB1BF7F0E8C6FAD51B15D56
:101ED000AE51800A8C59D8B007D0B151AD5F000E19
:101EE000B1BFFF0EAE5B04D0000EAE6F000EAD6F43
:101EF000ABA51AD0030EAB158C6F000EAC158D6F11
:101F00008C518D11D8B403D02D0E25ECC9F00101F0
:101F1000AD51AE11D8B4B2D0300E25ECC9F00101EC
:101F2000AD07D8A0AE07F4D7AD51AE11D8B40BD0E1
:101F3000200E25ECC9F00101AD07D8A0AE07AD51C8
:101F4000AE11D8A4F5D7030EAB158C6F000EAC15EF
:101F50008D6F8C518D11D8B491D02D0E25ECC9F018
:101F60008DD0AFC18CF1B0C18DF10101D8908C370B
:101F70008D37D8908C378D373B0E8C25F66EE40E5E
:101F80008D21F76EF86A000EF8220900F5CF1BF1DB
:101F90000900F5CF1CF10900F5CF1DF10A00F5CFBE
:101FA0001EF1A7C117F1A8C118F1A9C119F1AAC161
:101FB0001AF1FBECC0F017C124F118C125F119C1C9
:101FC00026F11AC127F10A0E0101286F000E296FB0
:101FD000000E2A6F000E2B6F4CECC3F00101245150
:101FE000300FB16F48D0A7C117F1A8C118F1A9C12E
:101FF00019F1AAC11AF1AFC18CF1B0C18DF1D8901D
:102000008C378D37D8908C378D37630E8C25F66ED4
:10201000E40E8D21F76EF86A000EF8220900F5CF64
:102020001BF10900F5CF1CF10900F5CF1DF10A00E5
:10203000F5CF1EF1FBECC0F0010117510F0B966FAD
:102040009651010D800EF324F66EFD0EF420F76E0E
:10205000F86A000EF8220800F5CFB1F10CD00101AA
:10206000AB51C00B000AD8B47CD7800AD8B4BBD718
:10207000400AD8B476D7B15125ECC9F00101AF07B9
:10208000D8A0B007AF29EBE1B029D8A4E8D7010167
:1020900082518C6F83518D6F824B832B8CC1F6FFE5
:1020A0008DC1F7FF000EF86E0D0EF76403D0080027
:1020B000F55005D0F6CFE9FFF7CFEAFFEF50010169
:1020C000B16FB151D8B4120086EF89F08A0E0001C9
:1020D000996F000E9A6F29EF97F0250EAF19D8B4BB
:1020E00005D0AF5163ECC9F029EF97F0000E000165
:1020F000AC6F000EAB6F000EAA6F000EA96F04D07C
:102100000001A985884B892B88C0F6FF89C0F7FF9D
:10211000000EF86E0D0EF76403D00800F55005D0E0
:10212000F6CFE9FFF7CFEAFFEF50300AD8B4E8D78F
:1021300088C0F6FF89C0F7FF000EF86E0D0EF76439
:1021400003D00800F55005D0F6CFE9FFF7CFEAFF3E
:10215000EF5082ECC8F0D8A04BD0000E0001AC6F5D
:10216000000EAB6FABC001F0ACC002F0000E046E0D
:102170000A0E036E3CECC8F001C0ABF002C0ACF03C
:10218000D00E00018A6FFF0E8B6F88C0F6FF89C0EA
:10219000F7FF000EF86E0D0EF76403D00800F5503F
:1021A00005D0F6CFE9FFF7CFEAFFEF5000018C6FC3
:1021B0008D6B8A518C278B518D238C51AB278D5180
:1021C000AC23884B892B88C0F6FF89C0F7FF000E2F
:1021D000F86E0D0EF76403D00800F55005D0F6CF69
:1021E000E9FFF7CFEAFFEF5082ECC8F0D8B0BAD7DA
:1021F00088C0F6FF89C0F7FF000EF86E0D0EF76479
:1022000003D00800F55005D0F6CFE9FFF7CFEAFF7D
:10221000EF502E0AD8A448D00001AA8D884B892BF4
:10222000000EAE6F000EAD6F29D0ADC001F0AEC094
:1022300002F0000E046E0A0E036E3CECC8F088C07B
:10224000F6FF89C0F7FF000EF86E0D0EF76403D09D
:102250000800F55005D0F6CFE9FFF7CFEAFFEF50C1
:1022600000018A6F8A510126000E0222D00E01243D
:10227000AD6FFF0E0220AE6F884B892B88C0F6FF32
:1022800089C0F7FF000EF86E0D0EF76403D008004A
:10229000F55005D0F6CFE9FFF7CFEAFFEF5082EC1B
:1022A000C8F0D8A0A4D0C1D7000E0001AE6F000EB8
:1022B000AD6FAA899CD0AA85D1D0A98FCFD099C063
:1022C000D9FF9AC0DAFFDECF95F0DDCF96F0020E8F
:1022D0009927000E9A2395519611D8A404D0860E02
:1022E000956FFF0E966F000E986F000E976F03D0DC
:1022F0000001974B982B975195258A6F98519621FD
:102300008B6F8AC0F6FF8BC0F7FF000EF86E0D0EC4
:10231000F76403D00800F55005D0F6CFE9FFF7CFFA
:10232000EAFFEF500009D8A4E3D70001AD51AE1188
:10233000D8B40AD09751AD5D9851AE59D8B004D0F9
:10234000ADC097F0AEC098F0AB51975DAC519859C5
:10235000D8B005D09751AB5F9851AC5B08D0000E58
:10236000AC6F000EAB6F03D0200E63ECC9F0000120
:10237000AB07D8A0AC07AB29F7E1AC29D8B417D08C
:10238000F3D795C0F6FF96C0F7FF000EF86E0D0E5E
:10239000F76403D00800F55005D0F6CFE9FFF7CF7A
:1023A000EAFFEF5063ECC9F00001954B962B9707BD
:1023B000D8A098079729E5E19829D8B429EF97F094
:1023C000E0D799C0D9FF9AC0DAFFDF50AF6F020E95
:1023D0009927000E9A23AF0E956F000E966F000E90
:1023E000986F010E976FA1D7C00EA91337D00001C7
:1023F00088518A6F89518B6F884B892B8AC0F6FF71
:102400008BC0F7FF000EF86E0D0EF76403D00800C6
:10241000F55005D0F6CFE9FFF7CFEAFFEF50000106
:10242000AF6FAF51000AD8B41200580AD8B445D7DC
:102430003B0AD8B4C6D7070AD8B410D0020AD8B419
:102440003AD70F0AD8B40AD01A0AD8B438D7060A2D
:10245000D8B4CAD70D0AD8B430D7BDD7070EAA153D
:10246000D8B43BD3AAA904D0000EAE6F060EAD6F50
:1024700099C0D9FF9AC0DAFFDECFA5F0DECFA6F073
:10248000DECFA7F0DECFA8F0040E9927000E9A2326
:10249000A8AF15D0A5C02CF0A6C02DF0A7C02EF077
:1024A000A8C02FF0AEECC7F02CC0A5F02DC0A6F050
:1024B0002EC0A7F02FC0A8F0030E0001A913000E34
:1024C000A06F000E9F6FA551A611A711A811D8B437
:1024D00082D0A735A835820F9F6FA06BFF0EA02377
:1024E0009F07D8A0A0079FC001F0A0C002F0000E77
:1024F000046E030E036E3CECC8F001C09FF002C0F6
:10250000A0F09FC007F0A0C008F0000E0A6E0A0EEF
:10251000096E3DECC1F007C09FF008C0A0F00001BB
:10252000A0AF03D09F07D8A0A0079F5100088AEC56
:102530009EF049C09BF04AC09CF04BC09DF04CC03F
:102540009EF09BC030F09CC031F09DC032F09EC028
:1025500033F0A5C034F0A6C035F0A7C036F0A8C04F
:1025600037F027ECA4F030C09BF031C09CF032C0B3
:102570009DF033C09EF09BC034F09CC035F09DC0F0
:1025800036F09EC037F0000E386E000E396E800EA9
:102590003A6E3F0E3B6E23ECBBF0D8B005D0000185
:1025A0009F07D8A0A00717D09BC034F09CC035F07F
:1025B0009DC036F09EC037F0000E386E000E396EAA
:1025C000200E3A6E410E3B6E23ECBBF0D8A003D038
:1025D00000019F4BA02B0001AEBF06D0AE5121E100
:1025E0000D0EAD5DD8B01DD0A5C056F0A6C057F0F9
:1025F000A7C058F0A8C059F0AD5188ECB1F049C05F
:102600005AF04AC05BF04BC05CF04CC05DF06EEC21
:10261000A7F056C0A5F057C0A6F058C0A7F059C003
:10262000A8F00001A0BF06D0A05122E10A0E9F5DD4
:10263000D8B01ED0A551A611A711A811D8B463D047
:10264000A5C06CF0A6C06DF0A7C06EF0A8C06FF07A
:10265000B0ECBDF000016C516D116E116F11D8B46A
:10266000A0BF51D0A05104E1020E9F5DD8A04BD075
:102670009BC034F09CC035F09DC036F09EC037F052
:102680005F0E386E700E396E890E3A6E400E3B6EDC
:1026900023ECBBF0D8B003D00001F70E02D000014C
:1026A000F80E9F27FF0EA0239F518AEC9EF049C091
:1026B0009BF04AC09CF04BC09DF04CC09EF0A5C062
:1026C00001F0A6C002F0A7C003F0A8C004F09BC0B0
:1026D00005F09CC006F09DC007F09EC008F06CECB1
:1026E000B9F001C0A1F002C0A2F003C0A3F004C081
:1026F000A4F0000E0001A56F000EA66F000EA76FDC
:10270000000EA86F3CD0A5C06CF0A6C06DF0A7C0AD
:102710006EF0A8C06FF0B0ECBDF06CC0A1F06DC061
:10272000A2F06EC0A3F06FC0A4F0A5C080F0A6C058
:1027300081F0A7C082F0A8C083F0A1C005F0A2C0BC
:1027400006F0A3C007F0A4C008F0000EFCECB6F041
:1027500005C084F006C085F007C086F008C087F089
:10276000E6ECC5F080C0A5F081C0A6F082C0A7F05D
:1027700083C0A8F0000E0001A06F000E9F6F010E35
:10278000AF6F0A0EAF19D8B41BD0AF51040D3B0E7A
:10279000F324F66EE40EF420F76EF86A000EF822C9
:1027A0000900F550A15D0900F550A2590900F55046
:1027B000A3590900F550A459D8A002D0AF2BE1D7F6
:1027C000AFC08AF08B6B8ABF8B07AD518A27AE51A1
:1027D0008B239F518A27A0518B238A51AB5F8B514A
:1027E000AC5BAD51AE11D8B403D0AB07D8A0AC07E9
:1027F000030EA9158A6F000EAA158B6F8A518B11D3
:10280000D8B403D0AB07D8A0AC07A9A525D0030E38
:10281000A9158A6F000EAA158B6F8A518B11D8B437
:102820000BD02D0E63ECC9F007D0300E63ECC9F06D
:102830000001AB07D8A0AC070001ACBF6BD0AC5116
:10284000F4E1AB05D8A066D0F0D7200E63ECC9F058
:102850000001AB07D8A0AC07ACBF05D0AC51F5E187
:10286000AB05D8B0F2D7030EA9158A6F000EAA15D2
:102870008B6F8A518B11D8B44DD02D0E63ECC9F0FB
:1028800049D0A1C001F0A2C002F0A3C003F0A4C0CF
:1028900004F00001AF51040D3B0EF324F66EE40E7C
:1028A000F420F76EF86A000EF8220900F5CF05F063
:1028B0000900F5CF06F00900F5CF07F00A00F5CFC3
:1028C00008F07FECC1F001C09BF002C09CF003C097
:1028D0009DF004C09EF09BC00EF09CC00FF09DC008
:1028E00010F09EC011F00A0E126E000E136E000E54
:1028F000146E000E156E80ECC3F00EC09BF00FC07E
:102900009CF010C09DF011C09EF000019B51300F53
:1029100063ECC9F00001AF07AF29D8B408D0B1D734
:10292000300E63ECC9F000019F07D8A0A007A0BF3C
:1029300005D0A051F5E19F05D8B0F2D7AEBF09D0C0
:10294000AE5104E1090EAD5DD8A003D0080EAF6F03
:1029500002D0ADC0AFF0AF51AD5F000EAFBFFF0E04
:10296000AE5BAF51D8B403D02E0E63ECC9F00001BA
:10297000AF518AEC9EF049C090F04AC091F04BC034
:1029800092F04CC093F0A5C034F0A6C035F0A7C0BB
:1029900036F0A8C037F090C030F091C031F092C04E
:1029A00032F093C033F027ECA4F030C06CF031C0AB
:1029B0006DF032C06EF033C06FF0B0ECBDF06CC0A3
:1029C000A1F06DC0A2F06EC0A3F06FC0A4F073D0F0
:1029D000A1C001F0A2C002F0A3C003F0A4C004F0A3
:1029E0000001AF51040D3B0EF324F66EE40EF4200B
:1029F000F76EF86A000EF8220900F5CF05F009001D
:102A0000F5CF06F00900F5CF07F00A00F5CF08F082
:102A10007FECC1F001C09BF002C09CF003C09DF0B0
:102A200004C09EF09BC00EF09CC00FF09DC010F043
:102A30009EC011F00A0E126E000E136E000E146E80
:102A4000000E156E80ECC3F00EC09BF00FC09CF022
:102A500010C09DF011C09EF000019B51300F63EC3F
:102A6000C9F0A1C00EF0A2C00FF0A3C010F0A4C026
:102A700011F00001AF51040D3B0EF324F66EE40E8D
:102A8000F420F76EF86A000EF8220900F5CF12F074
:102A90000900F5CF13F00900F5CF14F00A00F5CFC7
:102AA00015F080ECC3F00EC0A1F00FC0A2F010C072
:102AB000A3F011C0A4F00001AF07AF29D8B408D02B
:102AC00087D7300E63ECC9F00001AD07D8A0AE0780
:102AD000AD51AE11D8B4BDD1F4D7C00EA9158A6FCF
:102AE000000EAA158B6F8A518B11D8A41ED099C0E5
:102AF000D9FF9AC0DAFFDECFA1F0DDCFA2F0000E41
:102B0000A2BFFF0EA36FA46F020E9927000E9A2397
:102B1000A4AF1DD0030EA913A41FA31FA21FA16D54
:102B2000000EA223A323A42312D099C0D9FF9AC0D8
:102B3000DAFFDECF8AF0DDCF8BF08AC0A1F08BC048
:102B4000A2F0A36BA46B020E9927000E9A23AD513D
:102B5000AE11D8A44BD0A151A211A311A411D8A495
:102B600045D0AD4BAE2B42D0010EAF6F0A0EAF1960
:102B7000D8B447D0AF51040D3B0EF324F66EE40EEB
:102B8000F420F76EF86A000EF8220900F550A15DF6
:102B90000900F550A2590900F550A3590900F55054
:102BA000A459D8A02ED0AF2BE1D7010EAF6F080EDD
:102BB000AF19D8B426D0AF51040D630EF324F66ECE
:102BC000E40EF420F76EF86A000EF8220900F550C2
:102BD000A15D0900F550A2590900F550A35909005B
:102BE000F550A459D8A00DD0AF2BE1D7A951C00BF7
:102BF000000AD8B4B9D7800AD8B4D7D7400AD8B415
:102C0000B3D7800EAFBF7F0E8A6FAD51AF5DAE51AF
:102C1000800A8A59D8B003D0ADC0AFF010D0AE5101
:102C2000800A8A6FAF51AD5D800EAFBF7F0E8A59AB
:102C3000D8B005D0AF51AD6FAE6BADBFAE07AB51E5
:102C4000AC11D8B40DD0030EA9158A6F000EAA15C9
:102C50008B6F8A518B11D8B403D0AB07D8A0AC07C7
:102C6000AAAD13D0AB51AD5DAE51800A8A6FAC51A5
:102C7000800A8A59D8B005D0AD51AB5FAE51AC5B7C
:102C800004D0000EAC6F000EAB6F800EAFBF7F0E96
:102C90008A6FAB51AF5DAC51800A8A59D8B007D06A
:102CA000AF51AB5F000EAFBFFF0EAC5B04D0000EA8
:102CB000AC6F000EAB6FA9A51AD0030EA9158A6FD1
:102CC000000EAA158B6F8A518B11D8B403D02D0E2C
:102CD00063ECC9F00001AB51AC11D8B4B1D0300EE7
:102CE00063ECC9F00001AB07D8A0AC07F4D7AB5137
:102CF000AC11D8B40BD0200E63ECC9F00001AB07C7
:102D0000D8A0AC07AB51AC11D8A4F5D7030EA915C8
:102D10008A6F000EAA158B6F8A518B11D8B490D090
:102D20002D0E63ECC9F08CD0ADC08AF0AEC08BF034
:102D30000001D8908A378B37D8908A378B373B0E73
:102D40008A25F66EE40E8B21F76EF86A000EF822E3
:102D50000900F5CF05F00900F5CF06F00900F5CF21
:102D600007F00A00F5CF08F0A1C001F0A2C002F000
:102D7000A3C003F0A4C004F07FECC1F001C00EF0CA
:102D800002C00FF003C010F004C011F00A0E126E62
:102D9000000E136E000E146E000E156E80ECC3F064
:102DA0000E50300F0001AF6F48D0A1C001F0A2C09B
:102DB00002F0A3C003F0A4C004F0ADC08AF0AEC01E
:102DC0008BF0D8908A378B37D8908A378B37630E41
:102DD0008A25F66EE40E8B21F76EF86A000EF82253
:102DE0000900F5CF05F00900F5CF06F00900F5CF91
:102DF00007F00A00F5CF08F07FECC1F001500F0B8F
:102E00000001946F9451010D800EF324F66EFD0EB7
:102E1000F420F76EF86A000EF8220800F5CFAFF044
:102E20000CD00001A951C00B000AD8B47DD7800A8C
:102E3000D8B4BBD7400AD8B477D7AF5163ECC9F048
:102E40000001AD07D8A0AE07AD29EBE1AE29D8A4AB
:102E5000E8D7000188518A6F89518B6F884B892B85
:102E60008AC0F6FF8BC0F7FF000EF86E0D0EF764F8
:102E700003D00800F55005D0F6CFE9FFF7CFEAFF01
:102E8000EF500001AF6FAF51D8B412006DEF90F06A
:102E900080ECC9F05FCFD5F020EF9CF0E9ECC8F0F2
:102EA00001C005F002C006F0076A086A000EFCECDB
:102EB000B6F005C030F006C031F007C032F008C0EF
:102EC00033F00D0E346E680E356E530E366E3B0EBB
:102ED000376E27ECA4F030C0D7F131C0D8F132C042
:102EE000D9F133C0DAF10A0E346ED70E356E230EE7
:102EF000366E3C0E376ED7C138F0D8C139F0D9C123
:102F00003AF0DAC13BF023ECBBF0D8A005D05DEC81
:102F1000C9F00009D8B407D07E865E800E012E9DD0
:102F20007DECC9F012003F0E0101E86F12000D0E9A
:102F3000346E680E356E530E366E3B0E376EE9EC0E
:102F4000C8F001C005F002C006F0076A086A000E6A
:102F5000FCECB6F005C030F006C031F007C032F02E
:102F600008C033F027ECA4F030C056F031C057F061
:102F700032C058F033C059F0D7C15AF0D8C15BF015
:102F8000D9C15CF0DAC15DF06EECA7F056C0E4F197
:102F900057C0E5F158C0E6F159C0E7F16F0E136E66
:102FA000120E146E030E156E400E166EE4C117F06D
:102FB000E5C118F0E6C119F0E7C11AF02EECB0F047
:102FC00013C024F214C025F215C026F216C027F251
:102FD000000E346E000E356E200E366E400E376ECB
:102FE000E4C138F0E5C139F0E6C13AF0E7C13BF0A1
:102FF00023ECBBF0D8A019D0E4C134F0E5C135F022
:10300000E6C136F0E7C137F0000E386E000E396EBB
:10301000000E3A6E400E3B6E23ECBBF0D8A005D0FC
:103020005DECC9F00009D8B407D07E865E800E0141
:103030002E9D7DECC9F01200220E0101E86F1200F6
:1030400024C234F025C235F026C236F027C237F04C
:10305000DFECC8F001C005F002C006F0076A086A9C
:10306000000EFCECB6F005C030F006C031F007C031
:1030700032F008C033F027ECA4F030C0D6F031C0F5
:10308000D7F032C0D8F033C0D9F0D6C030F0D7C0B6
:1030900031F0D8C032F0D9C033F00D0E346E680E66
:1030A000356ED30E366E3B0E376E27ECA4F030C073
:1030B000D3F131C0D4F132C0D5F133C0D6F1000E16
:1030C000346E000E356E600E366E400E376ED3C114
:1030D00038F0D4C139F0D5C13AF0D6C13BF023EC79
:1030E000BBF0D8A005D05DECC9F00009D8B407D07A
:1030F0007E865E800E012E9D7DECC9F01200000ED2
:103100000101E86F1200000E176EC00E186E7F0EE0
:10311000196E440E1A6ED3C113F0D4C114F0D5C188
:1031200015F0D6C116F02EECB0F013C034F014C078
:1031300035F015C036F016C037F0DFECC8F001C02E
:1031400005F002C006F0076A086A000EFCECB6F053
:1031500005C030F006C031F007C032F008C033F0CF
:1031600027ECA4F030C0D6F031C0D7F032C0D8F090
:1031700033C0D9F0D6C030F0D7C031F0D8C032F06B
:10318000D9C033F0350E346E5E0E356EF20E366EEB
:103190003F0E376E27ECA4F030C0C7F131C0C8F144
:1031A00032C0C9F133C0CAF17FB028D15EA2CDD000
:1031B000EE0E0001F05D7F0EF159D8B052D0C7C1BC
:1031C000F6F0C8C1F7F0C9C1F8F0CAC1F9F0F2C011
:1031D000B5F0F3C0B6F0F4C0B7F0F5C0B8F0F6C083
:1031E000B1F0F7C0B2F0F8C0B3F0F9C0B4F012EC2F
:1031F000B4F0B1C0DAF0B2C0DBF0B3C0DCF0B4C000
:10320000DDF0EBC25AF0ECC25BF0EDC25CF0EEC256
:103210005DF0DAC056F0DBC057F0DCC058F0DDC01E
:1032200059F06EECA7F056C06CF057C06DF058C066
:103230006EF059C06FF0B0ECBDF06CC076F06DC0B0
:1032400077F0C5ECC7F0000176C005F077C006F056
:10325000000E06BEFF0E076E086E010EFCECB6F007
:1032600063D0C7C199F0C8C19AF0C9C19BF0CAC167
:103270009CF0F2C09DF0F3C09EF0F4C09FF0F5C04A
:10328000A0F0C0ECC1F099C0F6F09AC0F7F09BC076
:10329000F8F09CC0F9F0F2C0B5F0F3C0B6F0F4C09D
:1032A000B7F0F5C0B8F0F6C0B1F0F7C0B2F0F8C0B2
:1032B000B3F0F9C0B4F012ECB4F0B1C0DAF0B2C0BF
:1032C000DBF0B3C0DCF0B4C0DDF0EBC25AF0ECC20E
:1032D0005BF0EDC25CF0EEC25DF0DAC056F0DBC030
:1032E00057F0DCC058F0DDC059F06EECA7F056C0C6
:1032F0006CF057C06DF058C06EF059C06FF0B0EC74
:10330000BDF06CC076F06DC077F0C5ECC7F0000181
:1033100076C005F077C006F0000E06BEFF0E076E01
:10332000086E010EFCECB6F005C0C3F106C0C4F196
:1033300007C0C5F108C0C6F1EFC220F2F0C221F209
:10334000F1C222F2F2C223F22CD0000E0001F66F7D
:10335000000EF76F000EF86F000EF96F000E0201FD
:10336000206F000E216F000E226F000E236FF6C03B
:10337000B1F0F7C0B2F0F8C0B3F0F9C0B4F0F2C0E9
:10338000B5F0F3C0B6F0F4C0B7F0F5C0B8F012EC89
:10339000B4F0B1C0C3F1B2C0C4F1B3C0C5F1B4C0A0
:1033A000C6F120C2B1F021C2B2F022C2B3F023C2F2
:1033B000B4F0F2C0B5F0F3C0B6F0F4C0B7F0F5C0A9
:1033C000B8F012ECB4F0B1C0BFF1B2C0C0F1B3C0FC
:1033D000C1F1B4C0C2F1BFC130F0C0C131F0C1C150
:1033E00032F0C2C133F0C3C134F0C4C135F0C5C13D
:1033F00036F0C6C137F027ECA4F087D0C7C1F6F08D
:10340000C8C1F7F0C9C1F8F0CAC1F9F0000E000157
:10341000B56F000EB66F000EB76F000EB86FF6C036
:10342000B1F0F7C0B2F0F8C0B3F0F9C0B4F012ECEC
:10343000B4F0B1C0DAF0B2C0DBF0B3C0DCF0B4C0BD
:10344000DDF0EBC25AF0ECC25BF0EDC25CF0EEC214
:103450005DF0DAC056F0DBC057F0DCC058F0DDC0DC
:1034600059F06EECA7F056C06CF057C06DF058C024
:103470006EF059C06FF0B0ECBDF06CC076F06DC06E
:1034800077F0C5ECC7F0000176C005F077C006F014
:10349000000E06BEFF0E076E086E010EFCECB6F0C5
:1034A00005C0C3F106C0C4F107C0C5F108C0C6F12C
:1034B000EFC2B1F0F0C2B2F0F1C2B3F0F2C2B4F0B8
:1034C000000E0001B56F000EB66F000EB76F000E54
:1034D000B86F12ECB4F0B1C0BFF1B2C0C0F1B3C06C
:1034E000C1F1B4C0C2F1BFC130F0C0C131F0C1C13F
:1034F00032F0C2C133F0C3C134F0C4C135F0C5C12C
:1035000036F0C6C137F027ECA4F030C0BBF131C0B3
:10351000BCF132C0BDF133C0BEF1000E346E000EFE
:10352000356EA00E366E400E376EC3C138F0C4C182
:1035300039F0C5C13AF0C6C13BF023ECBBF0D8A0CE
:1035400005D05DECC9F00009D8B407D07E865E8056
:103550000E012E9D7DECC9F01200040E0101E86FF2
:103560001200000E176EC00E186E7F0E196E440EFC
:103570001A6ED3C113F0D4C114F0D5C115F0D6C161
:1035800016F02EECB0F013C034F014C035F015C0B6
:1035900036F016C037F0DFECC8F001C005F002C00D
:1035A00006F0076A086A000EFCECB6F005C030F0C1
:1035B00006C031F007C032F008C033F027ECA4F0A9
:1035C00030C0D6F031C0D7F032C0D8F033C0D9F017
:1035D000D6C030F0D7C031F0D8C032F0D9C033F007
:1035E0003E0E346EF80E356E800E366E400E376E1F
:1035F00027ECA4F030C0CFF131C0D0F132C0D1F10E
:1036000033C0D2F19A0E346E990E356E590E366E65
:10361000410E376ECFC138F0D0C139F0D1C13AF088
:10362000D2C13BF023ECBBF0D8A005D05DECC9F0D3
:103630000009D8B407D07E865E800E012E9D7DECF9
:10364000C9F012003D0E0101E86F1200000E176E66
:10365000000E186E000E196E400E1A6ED3C113F0D4
:10366000D4C114F0D5C115F0D6C116F02EECB0F0CF
:1036700013C034F014C035F015C036F016C037F062
:10368000000E5A6E000E5B6E800E5C6E3F0E5D6E1D
:10369000000E176EC00E186E7F0E196E440E1A6E55
:1036A000DFECC8F001C005F002C006F0076A086A46
:1036B000000EFCECB6F005C013F006C014F007C015
:1036C00015F008C016F02EECB0F013C02CF014C0AA
:1036D0002DF015C02EF016C02FF0AEECC7F02CC0A8
:1036E00056F02DC057F02EC058F02FC059F06EEC98
:1036F000A7F056C030F057C031F058C032F059C072
:1037000033F027ECA4F030C0C9F031C0CAF032C0A9
:10371000CBF033C0CCF0DA0E176E030E186EAD0E80
:10372000196E3A0E1A6E390E5A6EB40E5B6E280E72
:103730005C6E3F0E5D6EC9C02CF0CAC02DF0CBC0D0
:103740002EF0CCC02FF0AEECC7F02CC056F02DC040
:1037500057F02EC058F02FC059F06EECA7F056C0AD
:1037600013F057C014F058C015F059C016F02EECE5
:10377000B0F013C0CDF014C0CEF015C0CFF016C01D
:10378000D0F0F3C25AF0F4C25BF0F5C25CF0F6C2BE
:103790005DF0CDC056F0CEC057F0CFC058F0D0C0CD
:1037A00059F06EECA7F056C0D1F057C0D2F058C017
:1037B000D3F059C0D4F0D1C056F0D2C057F0D3C026
:1037C00058F0D4C059F0000E5A6E000E5B6E200EF9
:1037D0005C6EC20E5D6E6EECA7F056C0CBF157C0AA
:1037E000CCF158C0CDF159C0CEF1000E346E000EB0
:1037F000356E200E366E420E376ECBC138F0CCC11E
:1038000039F0CDC13AF0CEC13BF023ECBBF0D8A0EB
:1038100005D05DECC9F00009D8B407D07E865E8083
:103820000E012E9D7DECC9F012003C0E0101E86FE7
:1038300012007E865E800E012E517DECC9F01200D2
:103840000001D551000AD8B45ED4040AD8B489D690
:10385000260AD8B420EF98F01E0AD8B44EEF97F09D
:10386000010AD8B4F3D6020AD8B497EF97F0E1D79B
:103870000101776F010177AF27D1776D7751800A0A
:10388000120FD8A0A5D0000E206F0A0E1F6F000ED9
:103890001A6F640E196F7751176F186B17BF1807DF
:1038A0003BECC2F017C11DF118C11EF1B8ECC0F01D
:1038B0000101D8901D371E37D8901D371E37240EB2
:1038C0001D27000E1E23070E1D25F66EE40E1E2179
:1038D000F76EF86A000EF8220900F5CF5AF10900D8
:1038E000F5CF5BF10900F5CF5CF10A00F5CF5DF192
:1038F000000E206F640E1F6F77511D6F1E6B1DBF72
:103900001E07B8ECC0F00101D8901D371E37D890C3
:103910001D371E37480E1D27000E1E23070E1D25BE
:10392000F66EE40E1E21F76EF86A000EF82209000A
:10393000F5CF56F10900F5CF57F10900F5CF58F151
:103940000A00F5CF59F17EECA2F056C173F157C1D0
:1039500074F158C175F159C176F173C156F174C152
:1039600057F175C158F176C159F1000E01011A6F76
:103970000A0E196F7751176F186B17BF18073BECBA
:10398000C2F00101D89017371837D8901737183779
:10399000070E1725F66EE40E1821F76EF86A000E72
:1039A000F8220900F5CF5AF10900F5CF5BF10900C3
:1039B000F5CF5CF10A00F5CF5DF17EECA2F056C1C7
:1039C0006FF157C170F158C171F159C172F1120014
:1039D00001017751800A750FD8A05DD0000E206FCD
:1039E0000A0E1F6F77511D6F1E6B1DBF1E07B8ECAF
:1039F000C0F00101D8901D371E37D8901D371E37F3
:103A0000240E1D27000E1E23070E1D25F66EE40E44
:103A10001E21F76EF86A000EF8220900F5CF56F164
:103A20000900F5CF57F10900F5CF58F10A00F5CF9D
:103A300059F1000E1A6F0A0E196F7751176F186B34
:103A400017BF18073BECC2F00101D89017371837A1
:103A5000D89017371837070E1725F66EE40E182181
:103A6000F76EF86A000EF8220900F5CF5AF1090046
:103A7000F5CF5BF10900F5CF5CF10A00F5CF5DF100
:103A80007EECA2F056C16FF157C170F158C171F1CF
:103A900059C172F1120001017751040D070EF32490
:103AA000F66EE40EF420F76EF86A000EF8220900B4
:103AB000F5CF6FF10900F5CF70F10900F5CF71F185
:103AC0000A00F5CF72F112007751800A120FD8A0C8
:103AD000A5D0000E206F0A0E1F6F000E1A6F640E25
:103AE000196F7751176F186B17BF18073BECC2F0AF
:103AF00017C11DF118C11EF1B8ECC0F00101D8903A
:103B00001D371E37D8901D371E37240E1D27000E77
:103B10001E23D30E1D25F66EE30E1E21F76EF86AE6
:103B2000000EF8220900F5CF5AF10900F5CF5BF13C
:103B30000900F5CF5CF10A00F5CF5DF1000E206FB2
:103B4000640E1F6F77511D6F1E6B1DBF1E07B8ECF3
:103B5000C0F00101D8901D371E37D8901D371E3791
:103B6000480E1D27000E1E23D30E1D25F66EE30EF4
:103B70001E21F76EF86A000EF8220900F5CF56F103
:103B80000900F5CF57F10900F5CF58F10A00F5CF3C
:103B900059F17EECA2F056C173F157C174F158C1CE
:103BA00075F159C176F173C156F174C157F175C100
:103BB00058F176C159F1000E01011A6F0A0E196F02
:103BC0007751176F186B17BF18073BECC2F0010154
:103BD000D89017371837D89017371837D30E1725BE
:103BE000F66EE30E1821F76EF86A000EF82209004F
:103BF000F5CF5AF10900F5CF5BF10900F5CF5CF183
:103C00000A00F5CF5DF17EECA2F056C16FF157C10D
:103C100070F158C171F159C172F11200010177516F
:103C2000800A750FD8A05DD0000E206F0A0E1F6F9E
:103C300077511D6F1E6B1DBF1E07B8ECC0F0010150
:103C4000D8901D371E37D8901D371E37240E1D27DC
:103C5000000E1E23D30E1D25F66EE30E1E21F76EF9
:103C6000F86A000EF8220900F5CF56F10900F5CFE9
:103C700057F10900F5CF58F10A00F5CF59F1000EC0
:103C80001A6F0A0E196F7751176F186B17BF180745
:103C90003BECC2F00101D89017371837D89017378E
:103CA0001837D30E1725F66EE30E1821F76EF86A53
:103CB000000EF8220900F5CF5AF10900F5CF5BF1AB
:103CC0000900F5CF5CF10A00F5CF5DF17EECA2F0C2
:103CD00056C16FF157C170F158C171F159C172F1FC
:103CE000120001017751040DD30EF324F66EE30E9A
:103CF000F420F76EF86A000EF8220900F5CF6FF194
:103D00000900F5CF70F10900F5CF71F10A00F5CF88
:103D100072F11200516E51AE1FD1516C5150800A98
:103D2000120FD8A0A1D0000E0A6E0A0E096E000E66
:103D3000046E640E036E5150016E026A01BE0206EB
:103D400074ECC2F001C007F002C008F03DECC1F015
:103D5000D89007360836D89007360836240E07263E
:103D6000000E0822070E0724F66EE40E0820F76EF8
:103D7000F86A000EF8220900F5CF34F00900F5CFFB
:103D800035F00900F5CF36F00A00F5CF37F0000E18
:103D90000A6E640E096E5150076E086A07BE080667
