:0400000085EF00F098
:060008005F8293EFC5F0DA
:100018005F80D8CF25F2E8CF26F2E0CF27F2FACFDB
:1000280028F2FBCF29F2E9CF2AF2EACF2BF2E1CF6F
:100038002CF2E2CF2DF2D9CF2EF2DACF2FF2F3CF76
:1000480030F2F4CF31F2F6CF32F2F7CF33F2F8CF05
:1000580034F2F5CF35F25FC036F260C037F261C0D6
:1000680038F262C039F20E012AB334A303D0EBECA4
:10007800CFF01BD02EBB38AB03D0D7ECCFF015D0C8
:100088002CBD36AD0DD001D810D00500FA6E010197
:10009800DB51FD6EDC51FE6EDD51FF6EFA50120031
:1000A8002EB738A702D012ECD0F039C262F038C2AD
:1000B80061F037C260F036C25FF035C2F5FF34C276
:1000C800F8FF33C2F7FF32C2F6FF31C2F4FF30C285
:1000D800F3FF2FC2DAFF2EC2D9FF2DC2E2FF2CC2D6
:1000E800E1FF2BC2EAFF2AC2E9FF29C2FBFF28C2AF
:1000F800FAFF27C2E0FF26C2E8FF25C2D8FF5F90BB
:0601080010000DEFC7F02E
:10D65800000000803F000020410000C84200007A1E
:10D668004400401C460050C3470024744980961863
:10D678004B20BCBE4C286B6E4EF9021550EC78ADB1
:10D6880060CAF249710000803FCDCCCC3D0AD72357
:10D698003C6F12833A17B7D138ACC52737BD3786E8
:10D6A8003595BFD63377CC2B325F708930FFE6DBF8
:10D6B8002E08E53C1E6042A20D010000000A000091
:10D6C8000064000000E803000010270000A08601A5
:10D6D8000040420F008096980000E1F50500CA9AC4
:10D6E8003B010000001000000000010000001000D5
:10D6F8000000000100000010000000000100000010
:10D7080010140010000C00080004000000180006A7
:10D718003C04427D9F6A425C900142604DBB40518F
:10D72800EC473EDE8D1FBBECF34A48359595C7178D
:10D73800C1DC45FDDB6DC372B33340063C0442C017
:10D74800598B4274044442F99B4F410000803F2B9F
:10D758003401487F9DB045E7FFD9420000803F4C27
:10D76800697374206F6620616C6C20737570706FBC
:10D778007274656420636F6D6D616E64733A0A0D2F
:10D7880044657669636520436F6E74726F6C2043DD
:10D798006F6D6D616E64733A20436F6D6D616E6479
:10D7A8007320746F207669657720616E6420636FDB
:10D7B8006E74726F6C206C6F77206C6576656C2068
:10D7C80073797374656D2066756E6374696F6E61C5
:10D7D8006C6974790A0D20202052657365743A20AB
:10D7E800436C6561727320746865207465726D6935
:10D7F8006E616C20616E6420726573657473207449
:10D808006865206D6963726F0A0D202020436C657E
:10D8180061723A20436C6561727320746865207484
:10D8280065726D696E616C2062757420646F6573D2
:10D838006E277420726573657420746865206D693D
:10D8480063726F0A0D2020204361757365206F662F
:10D858002052657365743F3A2052657475726E7311
:10D8680020746865206361757365206F662074682D
:10D8780065206D6F737420726563656E74206465CE
:10D88800766963652072657365740A0D2020202A05
:10D8980049444E3F3A2052657475726E7320646530
:10D8A80076696365206964656E7469666963617425
:10D8B800696F6E20737472696E670A0D20202044A8
:10D8C8006576696365204F6E2054696D653F3A201F
:10D8D80052657475726E7320646576696365206F2E
:10D8E8006E2074696D652073696E6365206C617361
:10D8F80074206465766963652072657365740A0DC2
:10D908002020204465766963652049443F3A2052C7
:10D91800657475726E732064657669636520494421
:10D92800206173207072652D70726F6772616D6D02
:10D93800656420696E20666C617368206D656D6F23
:10D9480072790A0D2020205265766973696F6E20FE
:10D9580049443F3A2052657475726E732064657647
:10D968006963652073696C69636F6E207265766997
:10D9780073696F6E204944206173207072652D7041
:10D98800726F6772616D6D656420696E20666C6187
:10D998007368206D656D6F72790A0D2020205573AC
:10D9A8006572204944733F3A2052657475726E73EC
:10D9B8002061206C697374206F662075736572200E
:10D9C8004944732028646973706C617965642069BF
:10D9D8006E20686578292061732073746F7265649E
:10D9E80020696E20666C617368206D656D6F727951
:10D9F8000A0D202020414443204572726F723F3A3D
:10DA08002052657475726E73207468652063617541
:10DA18007365206F6620616E2041444320657272F1
:10DA28006F7220696620616E206572726F72206F56
:10DA3800636375727265640A0D202020436C65610A
:10DA48007220414443204572726F723A20436C65DC
:10DA58006172732074686520414443206572726F57
:10DA68007220616E6420726573756D657320414420
:10DA78004320636F6E76657273696F6E730A0D204B
:10DA88002020436C656172204D61782056616C7569
:10DA980065733A20457261736573206D6178696DAD
:10DAA800756D207265636F726465642076616C754C
:10DAB80065732066726F6D20454550524F4D0A0DB3
:10DAC80020202048656C703A2054686973206D6581
:10DAD80073736167652C206C697374732073757038
:10DAE800706F7274656420636F6D6D616E64730A24
:10DAF8000D0A0D446576696365204D65617375721D
:10DB0800656D656E7420436F6D6D616E64733A2048
:10DB180056696577206C6F77206C6576656C207325
:10DB2800797374656D206D6561737572656D656E69
:10DB380074730A0D2020204D65617375726520503D
:10DB48004F533350333F3A2052657475726E7320C9
:10DB58002B332E33562041444320436F6E76657233
:10DB680073696F6E20696E20766F6C74730A0D206E
:10DB780020204D65617375726520504F5331323FD7
:10DB88003A2052657475726E73202B3132562041DB
:10DB9800444320436F6E76657273696F6E20696EB9
:10DBA80020766F6C74730A0D2020204D65617375A3
:10DBB8007265204469652054656D703F3A2052654E
:10DBC8007475726E7320746865206D6963726F6313
:10DBD8006F6E74726F6C6C65722064696520746511
:10DBE8006D706572617475726520696E2064656711
:10DBF8007265657320430A0D2020204D6561737599
:10DC08007265204656523F3A2052657475726E739B
:10DC18002074686520696E7465726E616C2066692F
:10DC280078656420766F6C746167652072656665D7
:10DC380072656E6365206275666665722031206F55
:10DC4800757470757420696E20766F6C74730A0D24
:10DC58002020204D65617375726520415653533FEE
:10DC68003A2052657475726E7320746865206D650C
:10DC78006173757265642076616C7565206F6620C6
:10DC8800416E616C6F672056535320696E20766F22
:10DC98006C74730A0D2020204D617820504F533347
:10DCA800503320566F6C746167653F3A2052657433
:10DCB80075726E7320746865206D6178696D756D15
:10DCC800207265636F72646564202B332E3356208F
:10DCD8005261696C20566F6C74616765206D65616F
:10DCE80073757265640A0D2020204D617820504FAD
:10DCF80053313220566F6C746167653F3A20526524
:10DD08007475726E7320746865206D6178696D75BD
:10DD18006D207265636F72646564202B3132562002
:10DD28005261696C20566F6C74616765206D65611E
:10DD380073757265640A0D2020204D61782044694E
:10DD4800652054656D703F3A2052657475726E7324
:10DD580020746865206D6178696D756D20726563E2
:10DD68006F72646564206469652074656D7065729E
:10DD78006174757265206D656173757265640A0DED
:10DD88002020204D61782046565220566F6C7461D1
:10DD980067653F3A2052657475726E7320746865C2
:10DDA800206D6178696D756D207265636F72646549
:10DDB80064204656522042756666657220312056A8
:10DDC8006F6C74616765206D656173757265640A4F
:10DDD8000D0A0D5072696D617279204D6561737518
:10DDE80072656D656E7420436F6D6D616E64733A14
:10DDF80020566965772068696768206C6576656C68
:10DE0800206F7574707574206D6561737572656DBA
:10DE1800656E747320616E642063616C63756C61F8
:10DE280074696F6E730A0D2020204D6561737572D9
:10DE38006520446574656374656420437572726512
:10DE48006E743F3A2052657475726E73206D656109
:10DE58007375726564206F7574707574206375725C
:10DE680072656E7420696E20616D70732061732015
:10DE78007365656E206279204144430A0D20202095
:10DE88004D65617375726520524D532043757272EA
:10DE9800656E743F3A2052657475726E73207468AB
:10DEA800652063616C63756C6174656420524D53C1
:10DEB800206F75747075742063757272656E742046
:10DEC80066726F6D206D6561737572656D656E74D0
:10DED8007320616E64205452494143206669726917
:10DEE8006E6720616E676C650A0D2020204D6561A4
:10DEF8007375726520524D5320566F6C7461676557
:10DF08003F3A2052657475726E7320746865206399
:10DF1800616C63756C6174656420524D53206F7534
:10DF28007470757420766F6C746167652066726FA3
:10DF38006D20545249414320666972696E672061B9
:10DF48006E676C650A0D2020204D656173757265DA
:10DF580020506F7765723F3A2052657475726E7300
:10DF6800207468652063616C63756C6174656420F6
:10DF78006F757470757420706F77657220696E2084
:10DF880057617474730A0D2020204D656173757292
:10DF98006520456E657267793F3A205265747572DF
:10DFA8006E73206D6561737572656420656E657248
:10DFB80067792073696E6365206D65617375726535
:10DFC8006D656E7420726573657420696E20576183
:10DFD800747420486F7572730A0D202020436C6595
:10DFE800617220456E657267793A2052657365746F
:10DFF8007320746865206D65617375726564206F40
:10E00800757470757420656E6572677920746F20F9
:10E018007A65726F0A0D2020204C6F6164204F6E64
:10E028002054696D653F3A2052657475726E73208D
:10E038006C6F6164206F6E2074696D652073696E02
:10E048006365206C6173742064657669636520720A
:10E058006573657420696E207365636F6E64730AF7
:10E068000D2020204D617820524D53204375727247
:10E07800656E743F3A205072696E747320746865D7
:10E08800206D6178696D756D207265636F72646566
:10E098006420524D53206F757470757420637572C7
:10E0A80072656E740A0D2020204D617820506F77BC
:10E0B80065723F3A205072696E74732074686520E7
:10E0C8006D6178696D756D207265636F72646564E2
:10E0D800206F757470757420706F7765720A0D0AF9
:10E0E8000D4F757470757420436F6E74726F6C2069
:10E0F800436F6D6D616E64733A20436F6E74726F17
:10E108006C20746865206F75747075742073746101
:10E11800746520616E642064696D6D696E67206640
:10E12800656174757265730A0D202020456E616201
:10E138006C652044696D6D696E673A20456E616251
:10E148006C65205452494143206F75747075742072
:10E1580064696D6D696E670A0D20202044697361DA
:10E16800626C652044696D6D696E673A2044697315
:10E1780061626C65205452494143206F7574707513
:10E18800742064696D6D696E670A0D202020456EE4
:10E1980061626C65204C6F61643A20456E61626C07
:10E1A800657320746865206F757470757420545297
:10E1B80049414320776974682064696D6D696E67A9
:10E1C8002064697361626C65640A0D2020204469CB
:10E1D8007361626C65204C6F61643A2044697361B5
:10E1E800626C657320746865206F7574707574202F
:10E1F800545249414320636F6D706C6574656C7946
:10E208000A0D2020204C6F616420456E61626C65A8
:10E21800643F3A2052657475726E73206966207483
:10E228006865206F7574707574206C6F61642069FF
:10E238007320656E61626C6564206F722064697317
:10E2480061626C65640A0D20202044696D6D696EF9
:10E258006720456E61626C65643F3A20526574754B
:10E26800726E732069662064696D6D696E67206FD0
:10E278006620746865206F7574707574206C6F61A2
:10E288006420697320656E61626C6564206F72201A
:10E298006E6F740A0D2020205365742044696D6DDB
:10E2A800696E672050657263656E746167653A20B0
:10E2B8003C783E3A205365747320746865206F7506
:10E2C800747075742064696D6D696E67207065720D
:10E2D80063656E746167652061732078207065726C
:10E2E80063656E740A0D0A0D004C697374206F66BD
:10E2F80020737570706F7274656420446576696305
:10E308006520436F6E74726F6C20436F6D6D616E24
:10E3180064733A0A0D20202052657365743A2043CD
:10E328006C6561727320746865207465726D696EBE
:10E33800616C20616E642072657365747320746803
:10E3480065206D6963726F0A0D202020436C65613A
:10E35800723A20436C656172732074686520746535
:10E36800726D696E616C2062757420646F65736E7E
:10E37800277420726573657420746865206D6963FD
:10E38800726F0A0D2020204361757365206F662027
:10E3980052657365743F3A2052657475726E7320C6
:10E3A800746865206361757365206F66207468659D
:10E3B800206D6F737420726563656E742064657672
:10E3C8006963652072657365740A0D2020202A49E7
:10E3D800444E3F3A2052657475726E7320646576B8
:10E3E800696365206964656E7469666963617469E7
:10E3F8006F6E20737472696E670A0D202020446561
:10E4080076696365204F6E2054696D653F3A2052E6
:10E41800657475726E7320646576696365206F6EC6
:10E428002074696D652073696E6365206C6173740F
:10E43800206465766963652072657365740A0D20CA
:10E4480020204465766963652049443F3A20526537
:10E458007475726E7320646576696365204944201B
:10E468006173207072652D70726F6772616D6D6572
:10E478006420696E20666C617368206D656D6F72CB
:10E48800790A0D2020205265766973696F6E2049DC
:10E49800443F3A2052657475726E732064657669DC
:10E4A80063652073696C69636F6E20726576697342
:10E4B800696F6E204944206173207072652D7072F7
:10E4C8006F6772616D6D656420696E20666C61733B
:10E4D80068206D656D6F72790A0D2020205573656F
:10E4E80072204944733F3A2052657475726E7320E6
:10E4F80061206C697374206F66207573657220499A
:10E5080044732028646973706C6179656420696E4E
:10E5180020686578292061732073746F72656420A0
:10E52800696E20666C617368206D656D6F72790A1B
:10E538000D202020414443204572726F723F3A20DB
:10E5480052657475726E73207468652063617573A3
:10E5580065206F6620616E20414443206572726FAA
:10E568007220696620616E206572726F72206F6317
:10E578006375727265640A0D202020436C656172B0
:10E5880020414443204572726F723A20436C6561A2
:10E5980072732074686520414443206572726F72FB
:10E5A80020616E6420726573756D65732041444304
:10E5B80020636F6E76657273696F6E730A0D202023
:10E5C80020436C656172204D61782056616C7565D9
:10E5D800733A20457261736573206D6178696D7552
:10E5E8006D207265636F726465642076616C756511
:10E5F800732066726F6D20454550524F4D0A0D20AD
:10E60800202048656C703A2054686973206D6573E2
:10E61800736167652C206C697374732073757070EF
:10E628006F7274656420636F6D6D616E64730A0D3B
:10E638000A0D004C697374206F6620737570706FD3
:10E6480072746564205072696D617279204D6561DC
:10E65800737572656D656E7420436F6D6D616E6460
:10E66800733A0A0D2020204D656173757265204448
:10E67800657465637465642043757272656E743F72
:10E688003A2052657475726E73206D656173757288
:10E698006564206F75747075742063757272656E29
:10E6A8007420696E20616D707320617320736565D5
:10E6B8006E206279204144430A0D2020204D656177
:10E6C8007375726520524D532043757272656E746E
:10E6D8003F3A2052657475726E73207468652063C2
:10E6E800616C63756C6174656420524D53206F755D
:10E6F800747075742063757272656E742066726FBB
:10E708006D206D6561737572656D656E74732061DA
:10E718006E6420545249414320666972696E6720CD
:10E72800616E676C650A0D2020204D6561737572F6
:10E738006520524D5320566F6C746167653F3A20CF
:10E7480052657475726E73207468652063616C63BA
:10E75800756C6174656420524D53206F75747075C3
:10E768007420766F6C746167652066726F6D2054D3
:10E778005249414320666972696E6720616E676C11
:10E78800650A0D2020204D65617375726520506FF4
:10E798007765723F3A2052657475726E732074689B
:10E7A800652063616C63756C61746564206F757452
:10E7B80070757420706F77657220696E2057617468
:10E7C80074730A0D2020204D6561737572652045AC
:10E7D8006E657267793F3A2052657475726E732060
:10E7E8006D6561737572656420656E657267792001
:10E7F80073696E6365206D6561737572656D656EAD
:10E808007420726573657420696E20576174742072
:10E81800486F7572730A0D202020436C6561722061
:10E82800456E657267793A20526573657473207412
:10E838006865206D65617375726564206F757470A5
:10E84800757420656E6572677920746F207A6572B9
:10E858006F0A0D2020204C6F6164204F6E20546990
:10E868006D653F3A2052657475726E73206C6F61E6
:10E8780064206F6E2074696D652073696E6365200E
:10E888006C6173742064657669636520726573656D
:10E898007420696E207365636F6E64730A0D20209F
:10E8A800204D617820524D532043757272656E7405
:10E8B8003F3A205072696E747320746865206D61E8
:10E8C80078696D756D207265636F72646564205236
:10E8D8004D53206F75747075742063757272656E10
:10E8E800740A0D2020204D617820506F7765723FA3
:10E8F8003A205072696E747320746865206D61786F
:10E90800696D756D207265636F72646564206F75DB
:10E918007470757420706F7765720A0D0A0D004C5B
:10E92800697374206F6620737570706F7274656494
:10E9380020446576696365204D6561737572656D00
:10E94800656E7420436F6D6D616E64733A0A0D20B5
:10E9580020204D65617375726520504F53335033D5
:10E968003F3A2052657475726E73202B332E3356DE
:10E978002041444320436F6E76657273696F6E2041
:10E98800696E20766F6C74730A0D2020204D6561C6
:10E998007375726520504F5331323F3A2052657477
:10E9A80075726E73202B3132562041444320436FD9
:10E9B8006E76657273696F6E20696E20766F6C74FF
:10E9C800730A0D2020204D656173757265204469B6
:10E9D800652054656D703F3A2052657475726E7388
:10E9E80020746865206D6963726F636F6E74726FEF
:10E9F8006C6C6572206469652074656D7065726100
:10EA08007475726520696E20646567726565732028
:10EA1800430A0D2020204D656173757265204656A6
:10EA2800523F3A2052657475726E7320746865207F
:10EA3800696E7465726E616C2066697865642076AB
:10EA48006F6C74616765207265666572656E636573
:10EA5800206275666665722031206F7574707574F2
:10EA680020696E20766F6C74730A0D2020204D6526
:10EA7800617375726520415653533F3A205265744D
:10EA880075726E7320746865206D65617375726543
:10EA9800642076616C7565206F6620416E616C6FCD
:10EAA800672056535320696E20766F6C74730A0D75
:10EAB8002020204D617820504F5333503320566F1B
:10EAC8006C746167653F3A2052657475726E732085
:10EAD800746865206D6178696D756D207265636F06
:10EAE80072646564202B332E3356205261696C2082
:10EAF800566F6C74616765206D65617375726564C6
:10EB08000A0D2020204D617820504F533132205675
:10EB18006F6C746167653F3A2052657475726E73E5
:10EB280020746865206D6178696D756D2072656304
:10EB38006F72646564202B313256205261696C20F3
:10EB4800566F6C74616765206D6561737572656475
:10EB58000A0D2020204D6178204469652054656D98
:10EB6800703F3A2052657475726E73207468652020
:10EB78006D6178696D756D207265636F7264656427
:10EB8800206469652074656D70657261747572655D
:10EB9800206D656173757265640A0D2020204D61D2
:10EBA800782046565220566F6C746167653F3A204C
:10EBB80052657475726E7320746865206D6178692A
:10EBC8006D756D207265636F726465642046565278
:10EBD80020427566666572203120566F6C746167D5
:10EBE80065206D656173757265640A0D0A0D004CC8
:10EBF800697374206F6620737570706F72746564C2
:10EC0800204F757470757420436F6E74726F6C202A
:10EC1800436F6D6D616E64733A0A0D202020456E56
:10EC280061626C652044696D6D696E673A20456E56
:10EC380061626C65205452494143206F7574707548
:10EC4800742064696D6D696E670A0D20202044691F
:10EC58007361626C652044696D6D696E673A204422
:10EC6800697361626C65205452494143206F757421
:10EC78007075742064696D6D696E670A0D202020B7
:10EC8800456E61626C65204C6F61643A20456E6127
:10EC9800626C657320746865206F75747075742074
:10ECA800545249414320776974682064696D6D69DD
:10ECB8006E672064697361626C65640A0D202020A8
:10ECC80044697361626C65204C6F61643A204469E1
:10ECD8007361626C657320746865206F75747075F4
:10ECE8007420545249414320636F6D706C6574659C
:10ECF8006C790A0D2020204C6F616420456E61629A
:10ED08006C65643F3A2052657475726E732069664B
:10ED180020746865206F7574707574206C6F6164F9
:10ED280020697320656E61626C6564206F7220646F
:10ED3800697361626C65640A0D20202044696D6DF9
:10ED4800696E6720456E61626C65643F3A20526562
:10ED58007475726E732069662064696D6D696E677B
:10ED6800206F6620746865206F7574707574206CE8
:10ED78006F616420697320656E61626C6564206FE1
:10ED880072206E6F740A0D20202053657420446928
:10ED98006D6D696E672050657263656E7461676535
:10EDA8003A203C783E3A2053657473207468652095
:10EDB8006F75747075742064696D6D696E67207005
:10EDC800657263656E746167652061732078207071
:10EDD800657263656E740A0D0A0D00506C65617387
:10EDE800652073706563696679207768617420743B
:10EDF800797065206F6620636F6D6D616E64732036
:10EE0800796F752764206C696B652068656C702064
:10EE1800776974683A0A0D547279202748656C70CE
:10EE2800203C636F6D6D616E64207365743E270AC4
:10EE38000D0A0D537570706F7274656420436F6DA1
:10EE48006D616E6420536574733A0A0D2020204466
:10EE5800657669636520436F6E74726F6C20436FCB
:10EE68006D6D616E64733A20436F6D6D616E64738E
:10EE780020746F207669657720616E6420636F6EF9
:10EE880074726F6C206C6F77206C6576656C20737C
:10EE9800797374656D2066756E6374696F6E616CE5
:10EEA8006974790A0D202020446576696365204DD0
:10EEB8006561737572656D656E7420436F6D6D6104
:10EEC8006E64733A2056696577206C6F77206C659D
:10EED80076656C2073797374656D206D65617375E3
:10EEE80072656D656E74730A0D2020205072696D0D
:10EEF800617279204D6561737572656D656E7420F8
:10EF0800436F6D6D616E64733A205669657720684A
:10EF1800696768206C6576656C206F7574707574A8
:10EF2800206D6561737572656D656E747320616EB1
:10EF3800642063616C63756C6174696F6E730A0D2C
:10EF48002020204F757470757420436F6E74726F33
:10EF58006C20436F6D6D616E64733A20436F6E74FD
:10EF6800726F6C20746865206F7574707574207387
:10EF78007461746520616E642064696D6D696E6783
:10EF88002066656174757265730A0D0A0D274865F8
:10EF98006C7020416C6C272077696C6C206C6973ED
:10EFA8007420616C6C20636F6D6D616E64730A0D03
:10EFB8000020202020426F6F7420636F6D706C6595
:10EFC80074650A0D202020205049433138463637D1
:10EFD8004B3430206D546F7563682054657374200A
:10EFE800426F6172640A0D202020204576616C759D
:10EFF8006174657320746865206D546F756368204B
:10F008006361706163697469766520746F7563689C
:10F01800206C6962726172792064697374726962C2
:10F0280075746564206279204D6963726F636869DD
:10F03800700A0D20202020536574732074686520A1
:10F048007374617465206F662066697665204C4527
:10F058004473206261736564206F6E206D546F7510
:10F06800636820636170616369746976652070758F
:10F078007368627574746F6E730A0D2020202042C5
:10F0880061756420726174653A20313135323030EF
:10F09800206270730A0D202020204E6F207061724C
:10F0A8006974792C203820626974732C206E6F2063
:10F0B800666C6F7720636F6E74726F6C2C203120D2
:10F0C80073746F70206269740A0D20202020436FCA
:10F0D8006D6D616E64732061726520636173652074
:10F0E80073656E7369746976650A0D202020204562
:10F0F8006E746572206120636F6D6D616E642C2083
:10F108006F7220656E7465722048656C7020666F3A
:10F1180072206C697374206F6620636F6D6D616E09
:10F1280064730A0D004F6E6C7920656E61626C65C0
:10F138002064696D6D696E6720696620796F752036
:10F1480061726520636F6D706C6574656C7920738E
:10F1580075726520746865206C6F6164206973201E
:10F16800636F6D70617469626C652077697468207B
:10F178006120736F6C6964207374617465206469BD
:10F188006D6D696E6720636972637569740A0D0035
:10F198005741524E494E473A205573696E6720745D
:10F1A80068652064696D6D696E6720666561747550
:10F1B80072652077697468206C6F61642064657675
:10F1C80069636573206F74686572207468616E2066
:10F1D80061206C696768742062756C622063616E77
:10F1E80020726573756C7420696E20646576696336
:10F1F800652064616D61676500496620796F7527D0
:10F2080064206C696B6520746F20636F6D706C652A
:10F2180074656C7920656E61626C65206F7220641C
:10F22800697361626C6520746865206C6F61642C19
:10F238002064697361626C652064696D6D696E67CD
:10F2480020616E64207573652072657370656374E0
:10F2580069766520636F6D6D616E64730A0D004594
:10F2680052524F523A20506C656173652073657431
:10F278002064696D6D696E672070657263656E7470
:10F2880061676520746F20616E20696E74656765BB
:10F29800722067726561746572207468616E2030CF
:10F2A80020616E64206C657373207468616E203110
:10F2B80030300A0D0044657669636520494420733F
:10F2C800746F72656420696E20466C61736820698A
:10F2D800733A20307825582E205468697320636F5C
:10F2E80072726573706F6E647320746F206120642E
:10F2F80065766963652070617274206E756D6265EC
:10F3080072206F662025730A0D004D656173757252
:10F318006564206F757470757420656E65726779A1
:10F328002073696E6365206C617374206D65617309
:10F338007572656D656E7420726573657420697386
:10F3480020252E3366205761747420486F757273B8
:10F358000A0D005468697320636F72726573706F69
:10F368006E647320746F20612031362062697420C6
:10F3780074696D6572207072652D6C6F616420769A
:10F38800616C7565206F66203078255820282575B2
:10F39800204C53427329200A0D0054686520666F7B
:10F3A8006C6C6F77696E672055736572204944737A
:10F3B8002068617665206265656E20726574726981
:10F3C800657665642066726F6D20666C617368206F
:10F3D8006D656D6F72793A0A0D0043616C63756CE7
:10F3E8006174656420545249414320666972696EAC
:10F3F8006720616E676C6520697320252E3366204F
:10F4080072616469616E732028252E3366206465F5
:10F418006772656573290A0D0053797374656D20E9
:10F42800706172616D657465727320616E642061CC
:10F43800666669726D617469766520726573706F4E
:10F448006E7365732061707065617220696E2067E4
:10F458007265656E0A0D0044657669636520736997
:10F468006C69636F6E207265766973696F6E204987
:10F47800442061732073746F72656420696E20463E
:10F488006C6173682069733A202563253033640AF8
:10F498000D004D65617375726564206F75747075C4
:10F4A8007420656E6572677920686173206265658E
:10F4B8006E20726573657420746F207A65726F2090
:10F4C8005761747420486F7572730A0D004465762D
:10F4D800696365206F6E2074696D652073696E635A
:10F4E80065206C61737420726573657420636F6E38
:10F4F800646974696F6E206973202564207365637D
:10F508006F6E64730A0D00466978656420566F6CE7
:10F5180074616765205265666572656E6365204231
:10F5280075666665722031206D65617375726564F4
:10F5380020617320252E336620566F6C74730A0D74
:10F54800004F757470757420706F776572206361F1
:10F558006C63756C6174656420617320252E336655
:10F568002057617474732066726F6D20524D53205A
:10F5780076616C7565730A0D0048656C70206D6561
:10F5880073736167657320616E64206E657574724C
:10F59800616C20726573706F6E7365732061707033
:10F5A80065617220696E2079656C6C6F770A0D0051
:10F5B8004D6178696D756D207265636F72646564FD
:10F5C8002076616C75657320657261736564206669
:10F5D800726F6D205352414D20616E642045455035
:10F5E800524F4D0A0D002020202055736572204986
:10F5F8004420576F72642025642028466C61736824
:10F608002061646472657373203078323030303032
:10F618002558293A20307825580A0D004D61786917
:10F628006D756D207265636F72646564204656520D
:10F6380020627566666572203120766F6C7461672A
:10F648006520697320252E336620566F6C74730A03
:10F658000D004966207965732C207265706C7920DD
:10F6680027456E61626C652044696D6D696E67201F
:10F678005927206F6E20746865206E657874206C39
:10F68800696E653A0A0D004C6F61642069732063E6
:10F69800757272656E746C7920656E61626C6564F2
:10F6A8002C206275742064696D6D696E67206973BA
:10F6B8002064697361626C65640A0D004C6F616453
:10F6C800206F6E2074696D652073696E6365206CA8
:10F6D8006173742064657669636520726573657407
:10F6E800206973202564207365636F6E64730A0D47
:10F6F8000041726520796F75207375726520796F86
:10F70800752764206C696B6520746F20656E616273
:10F718006C65206F75747075742064696D6D696EA1
:10F72800673F0A0D00546865206361757365206F33
:10F738006620746865206D6F737420726563656EEA
:10F7480074206465766963652072657365742077D3
:10F7580061733A2025730A0D004D6178696D756DE6
:10F76800207265636F72646564202B332E335620D4
:10F778007261696C20766F6C7461676520697320AB
:10F78800252E336620566F6C74730A0D004D617810
:10F79800696D756D207265636F7264656420524D82
:10F7A80053206F75747075742063757272656E740A
:10F7B80020697320252E33662041726D730A0D006F
:10F7C8004D6178696D756D207265636F72646564EB
:10F7D800202B313256207261696C20766F6C74610F
:10F7E800676520697320252E336620566F6C747305
:10F7F8000A0D0054686520666F6C6C6F77696E67D8
:10F80800206368616E6E656C206361757365642042
:10F81800616E20414443206572726F723A202573ED
:10F828000A0D004D617271756574746520556E69B5
:10F838007665727369747920454C454E20333033B0
:10F84800352046696E616C2050726F6A6563740A70
:10F858000D004572726F727320616E64206E656769
:10F86800617469766520726573706F6E7365732055
:10F8780061707065617220696E207265640A0D009E
:10F88800456E746572202748656C702720666F7214
:10F89800206C697374206F6620617661696C61629F
:10F8A8006C6520636F6D6D616E64730A0D004D6148
:10F8B80078696D756D207265636F72646564206F19
:10F8C800757470757420706F776572206973202560
:10F8D8002E33662057617474730A0D004D61786980
:10F8E8006D756D207265636F726465642064696507
:10F8F8002074656D70657261747572652069732016
:10F90800252E336620430A0D004C6F616420686120
:10F9180073206265656E20656E61626C65642C207B
:10F9280064696D6D696E672064697361626C656492
:10F938000A0D004C6F616420616E642064696D6D0E
:10F94800696E67206172652063757272656E746C8A
:10F95800792064697361626C65640A0D0057696E89
:10F96800646F77656420576174636820446F67200B
:10F9780054696D65722056696F6C6174696F6E2089
:10F988005265736574005452494143206F75747011
:10F9980075742064696D6D696E6720686173206293
:10F9A80065656E2064697361626C65640A0D004D5B
:10F9B8006561737572656D656E7420726573706FBD
:10F9C8006E7365732061707065617220696E206363
:10F9D80079616E0A0D0041565353206D6561737548
:10F9E80072656420617320252E336620566F6C740F
:10F9F80073206279204144430A0D002B332E33567D
:10FA0800207261696C206D6561737572656420612F
:10FA180073202B252E336620566F6C74730A0D00E5
:10FA280044696D6D696E6720686173206265656EF3
:10FA38002073657420746F20256420706572636577
:10FA48006E740A0D004469652054656D70657261B5
:10FA580074757265206D6561737572656420617374
:10FA680020252E3366430A0D002B31325620726151
:10FA7800696C206D65617375726564206173202BF4
:10FA8800252E336620566F6C74730A0D004F7574FB
:10FA98007075742064696D6D696E67206861732084
:10FAA8006265656E20656E61626C65640A0D005260
:10FAB8004D53204F75747075742043757272656E5E
:10FAC8007420697320252E33662041726D730A0DE8
:10FAD80000524D53204F757470757420566F6C74B6
:10FAE80061676520697320252E33662056726D7311
:10FAF8000A0D0048656C70205072696D617279203A
:10FB08004D6561737572656D656E7420436F6D6DBB
:10FB1800616E64730048656C70204465766963653E
:10FB2800204D6561737572656D656E7420436F6DE8
:10FB38006D616E6473004D65617375726564204311
:10FB4800757272656E7420697320252E33662041A4
:10FB58006D70730A0D0044696D6D696E6720697375
:10FB68002063757272656E746C7920656E61626C63
:10FB780065640A0D005573657220696E707574208E
:10FB88006170706561727320696E20776869746549
:10FB98000A0D004C6F616420697320637572726589
:10FBA8006E746C792064697361626C65640A0D0017
:10FBB80048656C702044657669636520436F6E7490
:10FBC800726F6C20436F6D6D616E64730048656C75
:10FBD80070204F757470757420436F6E74726F6CFB
:10FBE80020436F6D6D616E6473004C6F61642069B2
:10FBF800732063757272656E746C7920656E6162CC
:10FC08006C65640A0D00524553455420496E73745F
:10FC180072756374696F6E20457865637574656481
:10FC2800004D65617375726520446574656374651C
:10FC3800642043757272656E743F004C6F61642076
:10FC4800686173206265656E2064697361626C65C2
:10FC5800640A0D005365742044696D6D696E6720F0
:10FC680050657263656E746167653A20004E6F2057
:10FC7800414443204572726F7220646574656374F1
:10FC880065640A0D00537461636B20556E64657278
:10FC9800666C6F7720526573657400496E7465727F
:10FCA8006E616C2046565220427566666572203138
:10FCB80000537461636B204F766572666C6F7720B2
:10FCC800526573657400436C656172696E672041A3
:10FCD8004443204572726F720A0D004D6561737559
:10FCE800726520524D5320566F6C746167653F00F2
:10FCF8004D65617375726520524D5320437572725C
:10FD0800656E743F004D617820504F533350332057
:10FD1800566F6C746167653F004D6173746572203E
:10FD2800436C656172205265736574004D6178207B
:10FD3800504F53313220566F6C746167653F004DE8
:10FD4800656173757265204469652054656D703FFF
:10FD5800003031323334353637383941424344453F
:10FD68004600414320506F776572204D6574657277
:10FD78000A0D0044696D6D696E6720456E61626C9D
:10FD880065643F004D61782046565220566F6C746A
:10FD98006167653F004D617820524D53204375726D
:10FDA80072656E743F00456E61626C652044696DD2
:10FDB8006D696E67205900436C656172204D6178EA
:10FDC8002056616C75657300556E646566696E656D
:10FDD800642052657365740042726F776E204F75A8
:10FDE80074205265736574004D6561737572652082
:10FDF800504F533350333F00446576696365204F55
:10FE08006E2054696D653F004361757365206F66A8
:10FE18002052657365743F004D6561737572652086
:10FE2800456E657267793F0044697361626C65204D
:10FE380044696D6D696E6700436C65617220414469
:10FE480043204572726F7200506F776572204F6E53
:10FE5800205265736574004D656173757265205035
:10FE68004F5331323F004D65617375726520506F95
:10FE78007765723F00456E61626C652044696D6DFF
:10FE8800696E6700496E7465726E616C2044414307
:10FE980031004D65617375726520415653533F00BB
:10FEA8004C6F616420456E61626C65643F004C6F05
:10FEB8006164204F6E2054696D653F004D61782064
:10FEC8004469652054656D703F00496E7465726EB3
:10FED800616C204156535300496E7465726E616CB3
:10FEE8002054656D700050494331384C4636374BC5
:10FEF8003430005265766973696F6E2049443F005B
:10FF08004D656173757265204656523F00446973AA
:10FF180061626C65204C6F616400436C656172209E
:10FF2800456E657267790050494331384636374B1C
:10FF3800343000456E61626C65204C6F616400442A
:10FF480065766963652049443F004D617820506FAC
:10FF58007765723F00414443204572726F723F00DB
:10FF680055736572204944733F00556E6465666930
:10FF78006E65640048656C7020416C6C00286E7575
:10FF88006C6C2900504F5333503300504F5331326B
:10FF9800002A49444E3F00436C6561720049534E44
:10FFA800530048656C70001B5B324A0049444E00A0
:10FFB8001B5B48001B5B73001B5B75001B5B4B00E6
:10FFC80033300033310034310033320034320033FF
:10FFD80033003433003334003434003335003435DF
:10FFE800003336003436003337003437001B5B00EB
:07FFF80038003B006D000022
:020000040001F9
:10000000B1C23AF2B2C23BF2DA0E02013C6FFD0E0F
:100010003D6F17ECCCF002013A513B11D8A426D029
:10002000D1C13EF2D2C13FF2D3C140F2D4C141F2BC
:10003000150EF66ED70EF76E000EF86E0900F5CFAE
:1000400042F20A00F5CF43F23FECCCF0AF0E0201D2
:100050009F6FFF0EA06F6CEC8AF0B80E02019F6FCD
:10006000FF0EA06F6CEC8AF0FF001200B1C23AF2F2
:10007000B2C23BF29F0E02013C6FFF0E3D6F17ECC8
:10008000CCF002013A513B11D8A40ED0AF0E9F6FB5
:10009000FF0EA06F6CEC8AF0B80E02019F6FFF0E8E
:1000A000A06F6CEC8AF01200B1C23AF2B2C23BF21D
:1000B000100E02013C6FFE0E3D6F17ECCCF00201FA
:1000C0003A513B11D8A419D0000EAF6F000EB06F9B
:1000D000020EA9ECA2F02D0E02019F6FF70EA06F89
:1000E0000001CD5120ECCFF03AC2A1F23BC2A2F206
:1000F0006CEC8AF031ECD1F01200B1C23AF2B2C22B
:100100003BF2990E02013C6FFF0E3D6F17ECCCF0F5
:1001100002013A513B11D8B40FD0B1C23AF2B2C287
:100120003BF2B40E3C6FFF0E3D6F17ECCCF00201BA
:100130003A513B11D8A418D0000EAF6F000EB06F2B
:10014000020EA9ECA2F06A0E02019F6FFD0EA06FD5
:100150006CEC8AF02B0E02019F6FF80EA06F6CEC16
:100160008AF031ECD1F01200B1C23AF2B2C23BF2E5
:10017000470E02013C6FFF0E3D6F17ECCCF0020101
:100180003A513B11D8A423D0000EAF6F000EB06FD0
:10019000020EA9ECA2F0BD0E02019F6FF20EA06F3D
:1001A0006DECD0F045C2A1F246C2A2F26DECD0F0E7
:1001B00045C247F246C248F2E0ECCAF047C2A3F299
:1001C00048C2A4F26CEC8AF031ECD1F01200B1C25A
:1001D0003AF2B2C23BF2FB0E02013C6FFE0E3D6FE3
:1001E00017ECCCF002013A513B11D8A422D0000EFA
:1001F000AF6F000EB06F020EA9ECA2F05F0E02010D
:100200009F6FF40EA06F4AECCEF00201B36F410E67
:10021000B325A16FA26B000EA223FFECCFF0020169
:10022000B46FB451A36FA46B6CEC8AF031ECD1F0D5
:100230001200B1C23AF2B2C23BF2680E02013C6F48
:10024000FF0E3D6F17ECCCF002013A513B11D8A4E0
:100250003ED0000EAF6F000EB06F020EA9ECA2F000
:10026000A20E02019F6FF30EA06F6CEC8AF0000EDD
:100270000401BA6F000EB96FBABF06D0BA5124E1BB
:10028000080EB95DD8B020D0EE0E02019F6FF50EBA
:10029000A06FB9C4A1F2BAC4A2F2D8900401B935D2
:1002A0000201A36F0401BA350201A46F0401B95120
:1002B00069ECCDF045C2A5F246C2A6F26CEC8AF01C
:1002C0000401B94BBA2BD8D731ECD1F01200B1C22E
:1002D0003AF2B2C23BF25D0E02013C6FFF0E3D6F7F
:1002E00017ECCCF002013A513B11D8A4A4D05EA087
:1002F00090D0000EAF6F000EB06F010EA9ECA2F00F
:100300005FCFC9F060D0800E02013A6F040E3B6FE0
:10031000A50E3C6FFF0E3D6F84ECCEF06CD0800ECE
:1003200002013A6F040E3B6F930E3C6FFF0E3D6F60
:1003300084ECCEF060D0800E02013A6F040E3B6F69
:100340008C0E3C6FFF0E3D6F84ECCEF054D0800ECF
:1003500002013A6F040E3B6FD20E3C6FFE0E3D6FF2
:1003600084ECCEF048D0800E02013A6F040E3B6F51
:10037000E00E3C6FFE0E3D6F84ECCEF03CD0800E64
:1003800002013A6F040E3B6F8C0E3C6FFE0E3D6F08
:1003900084ECCEF030D0800E02013A6F040E3B6F39
:1003A000A30E3C6FFC0E3D6F84ECCEF024D0800E8B
:1003B00002013A6F040E3B6F720E3C6FFF0E3D6FF1
:1003C00084ECCEF018D00001C951000AD8B49BD7F4
:1003D000040AD8B4A4D7260AD8B4ADD71E0AD8B414
:1003E000B6D7010AD8B4BFD7030AD8B4C8D7010A10
:1003F000D8B4D1D7DCD7FB0E02019F6FF70EA06FE8
:10040000800EA16F040EA26F6CEC8AF031ECD1F07B
:100410001200000E0201AF6F000EB06F020EA9ECC9
:10042000A2F0750E02019F6FFC0EA06F6CEC8AF0BB
:1004300031ECD1F01200B1C23AF2B2C23BF2400E3E
:1004400002013C6FFE0E3D6F17ECCCF002013A51F9
:100450003B11D8A418D07E965E900E012E8DC6EC6E
:10046000D1F0000E0201AF6F000EB06F020EA9ECCA
:10047000A2F0CE0E02019F6FFC0EA06F6CEC8AF012
:1004800031ECD1F01200B1C23AF2B2C23BF2F00E3E
:1004900002013C6FFD0E3D6F17ECCCF002013A51AA
:1004A0003B11D8A419D0000EAF6F000EB06F060E2E
:1004B000A9ECA2F0030E02019F6FFA0EA06FBAC260
:1004C000A1F2BBC2A2F2BCC2A3F2BDC2A4F26CEC08
:1004D0008AF031ECD1F01200B1C23AF2B2C23BF272
:1004E0005F0E02013C6FFE0E3D6F17ECCCF0020177
:1004F0003A513B11D8A419D0000EAF6F000EB06F67
:10050000060EA9ECA2F0710E02019F6FFA0EA06F09
:10051000C5C1A1F2C6C1A2F2C7C1A3F2C8C1A4F26B
:100520006CEC8AF031ECD1F01200B1C23AF2B2C2F6
:100530003BF2470E02013C6FFD0E3D6F17ECCCF015
:1005400002013A513B11D8A419D0000EAF6F000E32
:10055000B06F060EA9ECA2F04D0E02019F6FFA0ECD
:10056000A06FC1C1A1F2C2C1A2F2C3C1A3F2C4C1B2
:10057000A4F26CEC8AF031ECD1F01200B1C23AF284
:10058000B2C23BF2080E02013C6FFF0E3D6F17EC4A
:10059000CCF002013A513B11D8A419D0000EAF6F34
:1005A000000EB06F060EA9ECA2F00F0E02019F6FB5
:1005B000F50EA06FBFC2A1F2C0C2A2F2C1C2A3F2E7
:1005C000C2C2A4F26CEC8AF031ECD1F01200B1C2DC
:1005D0003AF2B2C23BF29A0E02013C6FFE0E3D6F40
:1005E00017ECCCF002013A513B11D8A419D0000EFF
:1005F000AF6F000EB06F060EA9ECA2F0DE0E020186
:100600009F6FF90EA06FCDC1A1F2CEC1A2F2CFC1F2
:10061000A3F2D0C1A4F26CEC8AF031ECD1F012005C
:10062000B1C23AF2B2C23BF2290E02013C6FFC0E9B
:100630003D6F17ECCCF002013A513B11D8A419D010
:10064000000EAF6F000EB06F060EA9ECA2F03E0ECA
:1006500002019F6FFB0EA06FB5C1A1F2B6C1A2F25D
:10066000B7C1A3F2B8C1A4F26CEC8AF031ECD1F0BE
:100670001200B1C23AF2B2C23BF2F80E02013C6F74
:10068000FC0E3D6F17ECCCF002013A513B11D8A49F
:1006900019D0000EAF6F000EB06F060EA9ECA2F0DD
:1006A000B70E02019F6FFA0EA06FB1C1A1F2B2C1E5
:1006B000A2F2B3C1A3F2B4C1A4F26CEC8AF031ECA3
:1006C000D1F01200B1C23AF2B2C23BF2E30E020123
:1006D0003C6FFC0E3D6F17ECCCF002013A513B1120
:1006E000D8A419D0000EAF6F000EB06F060EA9ECA3
:1006F000A2F0D90E02019F6FFA0EA06FADC1A1F258
:10070000AEC1A2F2AFC1A3F2B0C1A4F26CEC8AF008
:1007100031ECD1F01200B1C23AF2B2C23BF26E0E2D
:1007200002013C6FFE0E3D6F17ECCCF002013A5116
:100730003B11D8A419D0000EAF6F000EB06F060E9B
:10074000A9ECA2F0490E02019F6FF50EA06FA9C19E
:10075000A1F2AAC1A2F2ABC1A3F2ACC1A4F26CECAB
:100760008AF031ECD1F01200B1C23AF2B2C23BF2DF
:10077000200E02013C6FFE0E3D6F17ECCCF0020123
:100780003A513B11D8A419D0000EAF6F000EB06FD4
:10079000060EA9ECA2F0120E02019F6FF30EA06FDD
:1007A000D1C1A1F2D2C1A2F2D3C1A3F2D4C1A4F2A9
:1007B0006CEC8AF031ECD1F01200B1C23AF2B2C264
:1007C0003BF2220E02013C6FFF0E3D6F17ECCCF0A6
:1007D00002013A513B11D8A432D0000E0101D16F71
:1007E000000ED26F000ED36F000ED46F000E020108
:1007F0003E6F000E3F6F000E406F000E416F150EF2
:10080000F66ED70EF76E000EF86E0900F5CF42F2C5
:100810000A00F5CF43F23FECCCF0000E0201AF6FBF
:10082000000EB06F010EA9ECA2F09A0E02019F6FAC
:10083000F40EA06F6CEC8AF031ECD1F01200B1C272
:100840003AF2B2C23BF27D0E02013C6FFE0E3D6FEA
:1008500017ECCCF002013A513B11D8A440D0010E64
:10086000AF6F000EB06F000EA9ECA2F0980E02015F
:100870009F6FF10EA06F6CEC8AF031ECD1F04BEC75
:10088000D1F0010E0201AF6F000EB06F000EA9ECA7
:10089000A2F02D0E02019F6FF10EA06F6CEC8AF09A
:1008A000030E0201AF6F000EB06F000EA9ECA2F0B4
:1008B000F90E02019F6FF60EA06F6CEC8AF0000E2D
:1008C0000201AF6F000EB06F030EA9ECA2F05A0E3A
:1008D00002019F6FF60EA06F6CEC8AF01200B1C29D
:1008E0003AF2B2C23BF2AE0E02013C6FFD0E3D6F1A
:1008F00017ECCCF002013A513B11D8A415D07F90EF
:100900000E012981000E0201AF6F000EB06F020EC2
:10091000A9ECA2F0950E02019F6FFA0EA06F6CEC8D
:100920008AF031ECD1F01200B1C23AF2B2C23BF21D
:10093000300E02013C6FFE0E3D6F17ECCCF0020151
:100940003A513B11D8A417D07F800E012991CFECEA
:10095000D1F0000E0201AF6F000EB06F010EA9ECD6
:10096000A2F08E0E02019F6FF90EA06F6CEC8AF060
:1009700031ECD1F01200B1C23AF2B2C23BF23B0EFE
:1009800002013C6FFF0E3D6F17ECCCF002013A51B3
:100990003B11D8A414D07F807F925E82000EAF6F8F
:1009A000000EB06F020EA9ECA2F0110E02019F6FB3
:1009B000F90EA06F6CEC8AF031ECD1F01200B1C2EC
:1009C0003AF2B2C23BF2A80E02013C6FFE0E3D6F3E
:1009D00017ECCCF002013A513B11D8A425D05EA20D
:1009E00011D0000EAF6F000EB06F020EA9ECA2F096
:1009F000F20E02019F6FFB0EA06F6CEC8AF031ECDF
:100A0000D1F01200000E0201AF6F000EB06F010EA8
:100A1000A9ECA2F09B0E02019F6FFB0EA06F6CEC85
:100A20008AF031ECD1F01200B1C23AF2B2C23BF21C
:100A30007B0E02013C6FFD0E3D6F17ECCCF0020106
:100A40003A513B11D8A439D05EB27FB011D0000E1C
:100A5000AF6F000EB06F020EA9ECA2F05E0E0201A5
:100A60009F6FFB0EA06F6CEC8AF031ECD1F012009E
:100A70005EA211D0000EAF6F000EB06F030EA9EC96
:100A8000A2F08F0E02019F6FF60EA06F6CEC8AF041
:100A900031ECD1F01200000E0201AF6F000EB06F0A
:100AA000010EA9ECA2F03B0E02019F6FF90EA06FA0
:100AB0006CEC8AF031ECD1F01200B1C23AF2B2C261
:100AC0003BF2150E02013C6FFF0E3D6F17ECCCF0B0
:100AD00002013A513B11D8A414D07F927F905E92CC
:100AE000000EAF6F000EB06F010EA9ECA2F0430E26
:100AF00002019F6FFC0EA06F6CEC8AF031ECD1F01C
:100B00001200B1C249F2B2C24AF25C0E02014B6F4E
:100B1000FC0E4C6F9EECC7F0020149514A11D8B44B
:100B200027D1000E0401B66F000EB56FB6BF06D018
:100B3000B6511FE1030EB55DD8B01BD0180EB52518
:100B40000201B36F000E0401B6210201B46FB3516C
:100B5000B125D96EB451B221DA6EB20E0401B525B9
:100B6000E16E040EB621E26EDFCFE7FFB54BB62B88
:100B7000DDD7B20E0201406F040E416F27ECC5F0C5
:100B800040C2B7F441C2B8F40401B8BF06D0B851AE
:100B90000BE1640EB75DD8B007D0B8BF05D0B8512F
:100BA0002BE1B705D8B028D0000E0201AF6F000EC0
:100BB000B06F010EA9ECA2F0670E02019F6FF20E5A
:100BC000A06F6CEC8AF0000E0201AF6F000EB06FE8
:100BD000030EA9ECA2F0010E02019F6FF20EA06FAE
:100BE0006CEC8AF0880E02019F6FF80EA06F6CEC1F
:100BF0008AF031ECD1F01200000E0201646F000E99
:100C0000656FC80E666F420E676F000E506F000E64
:100C1000516FC80E526F420E536FB7C43AF2B8C448
:100C20003BF2000E3BBFFF0E3C6F3D6F010E37ECF9
:100C3000BCF03AC248F23BC249F23CC24AF23DC261
:100C40004BF238ECCFF048C24CF249C24DF24AC2E6
:100C50004EF24BC24FF257ECA9F04CC260F24DC2BB
:100C600061F24EC262F24FC263F2FFECB3F060C2B7
:100C700079F261C27AF262C27BF263C27CF2DB0E6D
:100C800002017D6F0F0E7E6F490E7F6F400E806FE9
:100C90005DECA4F079C2EFF17AC2F0F17BC2F1F120
:100CA0007CC2F2F1EFC179F2F0C17AF2F1C17BF2CC
:100CB000F2C17CF2E10E02017D6F2E0E7E6F650E99
:100CC0007F6F420E806F5DECA4F079C296F47AC219
:100CD00097F47BC298F47CC299F4B7C43AF2B8C4D2
:100CE0003BF2020E02013D6F8F0E3C6FC3ECCFF062
:100CF0003AC2ECF13BC2EDF1000E0201AF6F000E03
:100D0000B06F020EA9ECA2F0280E02019F6FFA0E3E
:100D1000A06FB7C4A1F2B8C4A2F26CEC8AF0E20EE4
:100D200002019F6FF30EA06FEFC1A1F2F0C1A2F21A
:100D3000F1C1A3F2F2C1A4F296C4A5F297C4A6F23F
:100D400098C4A7F299C4A8F26CEC8AF05B0E020179
:100D50009F6FF30EA06FECC1A1F2EDC1A2F2ECC146
:100D6000A3F2EDC1A4F26CEC8AF031ECD1F01200E8
:100D7000B1C23AF2B2C23BF2000E02013C6FFE0E6B
:100D80003D6F17ECCCF002013A513B11D8A419D0B9
:100D9000000EAF6F000EB06F020EA9ECA2F0D50EE0
:100DA00002019F6FF40EA06FB0C0A1F2B1C0A2F219
:100DB000B2C0A3F2B3C0A4F26CEC8AF031ECD1F073
:100DC0001200B1C23AF2B2C23BF2B60E02013C6F5F
:100DD000FE0E3D6F17ECCCF002013A513B11D8A446
:100DE00019D0000EAF6F000EB06F020EA9ECA2F08A
:100DF000C40E02019F6FF60EA06FACC0A1F2ADC091
:100E0000A2F2AEC0A3F2AFC0A4F26CEC8AF031EC57
:100E1000D1F01200B1C23AF2B2C23BF29D0E020111
:100E20003C6FFD0E3D6F17ECCCF002013A513B11C7
:100E3000D8A430D0130EF66ED70EF76E000EF86EF3
:100E40000900F5CF3CF20A00F5CF3DF2C5ECCBF03E
:100E50003CC29AF43DC29BF43EC29CF43FC29DF456
:100E6000000E0201AF6F000EB06F060EA9ECA2F0EB
:100E7000950E02019F6FF70EA06F9AC4A1F29BC45A
:100E8000A2F29CC4A3F29DC4A4F26CEC8AF031ECF3
:100E9000D1F01200B1C23AF2B2C23BF2520E0201DC
:100EA0003C6FFF0E3D6F17ECCCF002013A513B1145
:100EB000D8A430D0110EF66ED70EF76E000EF86E75
:100EC0000900F5CF3CF20A00F5CF3DF2C5ECCBF0BE
:100ED0003CC29EF43DC29FF43EC2A0F43FC2A1F4C6
:100EE000000E0201AF6F000EB06F060EA9ECA2F06B
:100EF000B60E02019F6FF80EA06F9EC4A1F29FC4B0
:100F0000A2F2A0C4A3F2A1C4A4F26CEC8AF031EC6A
:100F1000D1F01200B1C23AF2B2C23BF20D0E0201A0
:100F20003C6FFD0E3D6F17ECCCF002013A513B11C6
:100F3000D8A430D00F0EF66ED70EF76E000EF86EF6
:100F40000900F5CF3CF20A00F5CF3DF2C5ECCBF03D
:100F50003CC2A2F43DC2A3F43EC2A4F43FC2A5F435
:100F6000000E0201AF6F000EB06F060EA9ECA2F0EA
:100F7000610E02019F6FF70EA06FA2C4A1F2A3C47D
:100F8000A2F2A4C4A3F2A5C4A4F26CEC8AF031ECE2
:100F9000D1F01200B1C23AF2B2C23BF2340E0201F9
:100FA0003C6FFD0E3D6F17ECCCF002013A513B1146
:100FB000D8A430D00D0EF66ED70EF76E000EF86E78
:100FC0000900F5CF3CF20A00F5CF3DF2C5ECCBF0BD
:100FD0003CC2A6F43DC2A7F43EC2A8F43FC2A9F4A5
:100FE000000E0201AF6F000EB06F060EA9ECA2F06A
:100FF000C80E02019F6FF70EA06FA6C4A1F2A7C48E
:10100000A2F2A8C4A3F2A9C4A4F26CEC8AF031EC59
:10101000D1F01200B1C23AF2B2C23BF2C40E0201E8
:101020003C6FFE0E3D6F17ECCCF002013A513B11C4
:10103000D8A430D00B0EF66ED70EF76E000EF86EF9
:101040000900F5CF3CF20A00F5CF3DF2C5ECCBF03C
:101050003CC2AAF43DC2ABF43EC2ACF43FC2ADF414
:10106000000E0201AF6F000EB06F060EA9ECA2F0E9
:10107000E40E02019F6FF80EA06FAAC4A1F2ABC4E8
:10108000A2F2ACC4A3F2ADC4A4F26CEC8AF031ECD1
:10109000D1F01200B1C23AF2B2C23BF28C0E0201A0
:1010A0003C6FFD0E3D6F17ECCCF002013A513B1145
:1010B000D8A430D0090EF66ED70EF76E000EF86E7B
:1010C0000900F5CF3CF20A00F5CF3DF2C5ECCBF0BC
:1010D0003CC2AEF43DC2AFF43EC2B0F43FC2B1F484
:1010E000000E0201AF6F000EB06F060EA9ECA2F069
:1010F000240E02019F6FF60EA06FAEC4A1F2AFC422
:10110000A2F2B0C4A3F2B1C4A4F26CEC8AF031EC48
:10111000D1F01200B1C23AF2B2C23BF2BF0E0201EC
:101120003C6FFD0E3D6F17ECCCF002013A513B11C4
:10113000D8A4CDD0000E3E6F000E3F6F000E406F62
:10114000000E416F130EF66ED70EF76E000EF86E9E
:101150000900F5CF42F20A00F5CF43F23FECCCF0A4
:10116000000E02013E6F000E3F6F000E406F000E3A
:10117000416F110EF66ED70EF76E000EF86E090075
:10118000F5CF42F20A00F5CF43F23FECCCF0000E6F
:1011900002013E6F000E3F6F000E406F000E416F68
:1011A0000F0EF66ED70EF76E000EF86E0900F5CF33
:1011B00042F20A00F5CF43F23FECCCF0000E020100
:1011C0003E6F000E3F6F000E406F000E416F0D0E20
:1011D000F66ED70EF76E000EF86E0900F5CF42F2EC
:1011E0000A00F5CF43F23FECCCF0000E02013E6F57
:1011F000000E3F6F000E406F000E416F0B0EF66E3B
:10120000D70EF76E000EF86E0900F5CF42F20A0015
:10121000F5CF43F23FECCCF0000E02013E6F000E22
:101220003F6F000E406F000E416F090EF66ED70E35
:10123000F76E000EF86E0900F5CF42F20A00F5CF06
:1012400043F23FECCCF0000E0001A86F000EA96F36
:10125000000EAA6F000EAB6F000EA46F000EA56FFC
:10126000000EA66F000EA76F000EA06F000EA16FFC
:10127000000EA26F000EA36F000E9C6F000E9D6FFC
:10128000000E9E6F000E9F6F000E0101A56F000EF5
:10129000A66F000EA76F000EA86F000EA16F000EC4
:1012A000A26F000EA36F000EA46F000E0201AF6FBD
:1012B000000EB06F020EA9ECA2F0B80E02019F6FF3
:1012C000F50EA06F6CEC8AF031ECD1F01200B1C2D7
:1012D0003AF2B2C23BF2B80E02013C6FFB0E3D6F18
:1012E00017ECCCF002013A513B11D8A411D0000EFA
:1012F000AF6F000EB06F030EA9ECA2F0F10E020169
:101300009F6FE20EA06F6CEC8AF031ECD1F012000E
:10131000B1C23AF2B2C23BF21D0E02013C6FFB0EAB
:101320003D6F17ECCCF002013A513B11D8A411D01B
:10133000000EAF6F000EB06F030EA9ECA2F0270EE7
:1013400002019F6FE90EA06F6CEC8AF031ECD1F0D6
:101350001200B1C23AF2B2C23BF2FB0E02013C6F84
:10136000FA0E3D6F17ECCCF002013A513B11D8A4B4
:1013700011D0000EAF6F000EB06F030EA9ECA2F0FB
:101380003B0E02019F6FE60EA06F6CEC8AF031EC11
:10139000D1F01200B1C23AF2B2C23BF2D50E020154
:1013A0003C6FFB0E3D6F17ECCCF002013A513B1144
:1013B000D8A411D0000EAF6F000EB06F030EA9ECD1
:1013C000A2F0F70E02019F6FEB0EA06F6CEC8AF09B
:1013D00031ECD1F01200B1C23AF2B2C23BF27C0E53
:1013E00002013C6FFF0E3D6F17ECCCF002013A5149
:1013F0003B11D8A411D0000EAF6F000EB06F030EDA
:10140000A9ECA2F0670E02019F6FD70EA06F6CECE3
:101410008AF031ECD1F01200B1C23AF2B2C23BF222
:10142000AA0E02013C6FFF0E3D6F17ECCCF00201DB
:101430003A513B11D8A41200000EAF6F000EB06FEE
:10144000030EA9ECA2F0E30E02019F6FED0EA06F58
:101450006CEC8AF04BECD1F0810E02019F6FF50E1F
:10146000A06F6CEC8AF0000E0201AF6F000EB06F3F
:10147000020EA9ECA2F0210E02019F6FF40EA06FE4
:101480006CEC8AF0000E0201AF6F000EB06F060E1A
:10149000A9ECA2F0B70E02019F6FF90EA06F6CECE1
:1014A0008AF0000E0201AF6F000EB06F010EA9ECC2
:1014B000A2F05A0E02019F6FF80EA06F6CEC8AF03A
:1014C00031ECD1F07D0E02019F6FFB0EA06F6CEC32
:1014D0008AF04BECD1F01200A10E0301896F020ECD
:1014E0008A6F89EF91F0250E9F19D8B405D09F51CE
:1014F00063ECD1F089EF91F0000E03019C6F000EB8
:101500009B6F000E9A6F000E996F05D003019985AD
:1015100002019F4BA02B9FC2F6FFA0C2F7FF000E57
:10152000F86E0D0EF76403D00800F55005D0F6CF25
:10153000E9FFF7CFEAFFEF50300AD8B4E7D79FC2F0
:10154000F6FFA0C2F7FF000EF86E0D0EF76403D091
:101550000800F55005D0F6CFE9FFF7CFEAFFEF50CE
:101560005CECD0F0D8A050D0000E03019C6F000EB0
:101570009B6F9BC33AF29CC33BF2000E02013D6F8E
:101580000A0E3C6FC3ECCFF03AC29BF33BC29CF314
:10159000D00E0201A96FFF0EAA6F9FC2F6FFA0C274
:1015A000F7FF000EF86E0D0EF76403D00800F5503B
:1015B00005D0F6CFE9FFF7CFEAFFEF500201AB6F9E
:1015C000AC6BA951AB27AA51AC23AB5103019B27AC
:1015D0000201AC5103019C2302019F4BA02B9FC22F
:1015E000F6FFA0C2F7FF000EF86E0D0EF76403D0F1
:1015F0000800F55005D0F6CFE9FFF7CFEAFFEF502E
:101600005CECD0F0D8B0B5D79FC2F6FFA0C2F7FF10
:10161000000EF86E0D0EF76403D00800F55005D0EB
:10162000F6CFE9FFF7CFEAFFEF502E0AD8A44FD04C
:1016300003019A8D02019F4BA02B000E03019E6FA8
:10164000000E9D6F2ED09DC33AF29EC33BF2000E5A
:1016500002013D6F0A0E3C6FC3ECCFF09FC2F6FF54
:10166000A0C2F7FF000EF86E0D0EF76403D008005D
:10167000F55005D0F6CFE9FFF7CFEAFFEF500201B2
:10168000A96FA9513A27000E3B23D00E3A2503013A
:101690009D6FFF0E02013B2103019E6F02019F4BD4
:1016A000A02B9FC2F6FFA0C2F7FF000EF86E0D0E32
:1016B000F76403D00800F55005D0F6CFE9FFF7CF67
:1016C000EAFFEF505CECD0F0D8A0A7D0BCD7000E5A
:1016D00003019E6F000E9D6F9A899FD09A85D4D08A
:1016E000998FD2D089C3D9FF8AC3DAFFDECF85F3C1
:1016F000DDCF86F3020E8927000E8A2385518611DD
:10170000D8A404D0850E856FFF0E866F000E886FFB
:10171000000E876F03D00301874B882B87518525E7
:101720000201A96F0301885186210201AA6FA9C293
:10173000F6FFAAC2F7FF000EF86E0D0EF76403D095
:101740000800F55005D0F6CFE9FFF7CFEAFFEF50DC
:101750000009D8A4E0D703019D519E11D8B40AD046
:1017600087519D5D88519E59D8B004D09DC387F3A1
:101770009EC388F39B51875D9C518859D8B005D092
:1017800087519B5F88519C5B08D0000E9C6F000EB8
:101790009B6F03D0200E63ECD1F003019B07D8A010
:1017A0009C079B29F7E19C29D8B417D0F3D785C3B0
:1017B000F6FF86C3F7FF000EF86E0D0EF76403D038
:1017C0000800F55005D0F6CFE9FFF7CFEAFFEF505C
:1017D00063ECD1F00301854B862B8707D8A08807DF
:1017E0008729E5E18829D8B489EF91F0E0D789C34A
:1017F000D9FF8AC3DAFFDF509F6F020E8927000EE0
:101800008A239F0E856F030E866F000E886F010E70
:10181000876FA1D7C00E991337D002019F51A96FCE
:10182000A051AA6F9F4BA02BA9C2F6FFAAC2F7FF37
:10183000000EF86E0D0EF76403D00800F55005D0C9
:10184000F6CFE9FFF7CFEAFFEF5003019F6F9F51FB
:10185000000AD8B41200580AD8B442D73B0AD8B408
:10186000C6D7070AD8B410D0020AD8B437D70F0A9F
:10187000D8B40AD01A0AD8B435D7060AD8B4CAD709
:101880000D0AD8B42DD7BDD7070E9A15D8B45ED39C
:101890009AA904D0000E9E6F060E9D6F89C3D9FFD2
:1018A0008AC3DAFFDECF95F3DECF96F3DECF97F370
:1018B000DECF98F3040E8927000E8A2398AF15D047
:1018C00095C348F296C349F297C34AF298C34BF2C4
:1018D00038ECCFF048C295F349C296F34AC297F369
:1018E0004BC298F3030E03019913000E906F000E84
:1018F0008F6F9551961197119811D8B488D097355C
:101900009835820F8F6F906BFF0E90238F07D8A0B2
:1019100090078FC33AF290C33BF2000E02013D6F75
:10192000030E3C6FC3ECCFF03AC28FF33BC290F38F
:101930008FC340F290C341F2000E0201436F0A0EC2
:10194000426FE4ECC7F040C28FF341C290F3030151
:1019500090AF03D08F07D8A090078F51000817ECE5
:101960009EF092C28BF393C28CF394C28DF395C216
:101970008EF38BC379F28CC37AF28DC37BF28EC364
:101980007CF295C37DF296C37EF297C37FF298C333
:1019900080F25DECA4F079C28BF37AC28CF37BC247
:1019A0008DF37CC28EF38BC33AF28CC33BF28DC3B2
:1019B0003CF28EC33DF2000E02013E6F000E3F6FFF
:1019C000800E406F3F0E416F80ECC0F00201D8B036
:1019D00005D003018F07D8A0900719D08BC33AF226
:1019E0008CC33BF28DC33CF28EC33DF2000E02016C
:1019F0003E6F000E3F6F200E406F410E416F80EC36
:101A0000C0F00201D8A003D003018F4B902B03013B
:101A10009EBF06D09E5121E10D0E9D5DD8B01DD018
:101A200095C34CF296C34DF297C34EF298C34FF252
:101A30009D513AECB1F092C250F293C251F294C26D
:101A400052F295C253F257ECA9F04CC295F34DC235
:101A500096F34EC297F34FC298F3030190BF06D09E
:101A6000905124E10A0E8F5DD8B020D09551961187
:101A700097119811D8B467D095C392F296C393F298
:101A800097C394F298C395F24AECC4F002019251C4
:101A9000931194119511D8A456D0030190BF53D03F
:101AA000905104E1020E8F5DD8A04DD08BC33AF265
:101AB0008CC33BF28DC33CF28EC33DF25F0E02013C
:101AC0003E6F700E3F6F890E406F400E416F80EC8D
:101AD000C0F00201D8B003D00301F70E02D0030119
:101AE000F80E8F27FF0E90238F5117EC9EF092C2B5
:101AF0008BF393C28CF394C28DF395C28EF395C38E
:101B00003AF296C33BF297C33CF298C33DF28BC3C3
:101B10003EF28CC33FF28DC340F28EC341F257ECCC
:101B2000BFF03AC291F33BC292F33CC293F33DC281
:101B300094F3000E0301956F000E966F000E976FE1
:101B4000000E986F3CD095C392F296C393F297C360
:101B500094F298C395F24AECC4F092C291F393C206
:101B600092F394C293F395C294F395C360F296C333
:101B700061F297C362F298C363F291C33AF292C3DF
:101B80003BF293C33CF294C33DF2000E37ECBCF041
:101B90003AC264F23BC265F23CC266F23DC267F2F1
:101BA000DAECCCF060C295F361C296F362C297F3AF
:101BB00063C298F3000E0301906F000E8F6F010E49
:101BC0009F6F0A0E9F19D8B41BD09F51040DC10EF0
:101BD000F324F66ED60EF420F76EF86A000EF822A3
:101BE0000900F550915D0900F55092590900F55032
:101BF00093590900F5509459D8A002D09F2BE1D7F2
:101C00009FC3A9F20201AA6BA9BFAA0703019D51B4
:101C10000201A92703019E510201AA2303018F514A
:101C20000201A927030190510201AA23A95103012E
:101C30009B5F0201AA5103019C5B9D519E11D8B488
:101C400003D09B07D8A09C07030E99150201A96F2A
:101C5000000E03019A150201AA6FA951AA11D8B466
:101C600004D003019B07D8A09C07030199A528D0A5
:101C7000030E99150201A96F000E03019A150201C6
:101C8000AA6FA951AA11D8B40BD02D0E63ECD1F0D4
:101C900007D0300E63ECD1F003019B07D8A09C075E
:101CA00003019CBF6FD09C51F4E19B05D8A06AD082
:101CB000F0D7200E63ECD1F003019B07D8A09C075E
:101CC0009CBF05D09C51F5E19B05D8B0F2D7030E1F
:101CD00099150201A96F000E03019A150201AA6F5E
:101CE000A951AA11D8B44ED02D0E63ECD1F04AD030
:101CF00091C33AF292C33BF293C33CF294C33DF2D8
:101D000003019F51040DC10EF324F66ED60EF4208C
:101D1000F76EF86A000EF8220900F5CF3EF20900CE
:101D2000F5CF3FF20900F5CF40F20A00F5CF41F2BE
:101D300027ECC8F03AC28BF33BC28CF33CC28DF364
:101D40003DC28EF38BC347F28CC348F28DC349F278
:101D50008EC34AF20A0E02014B6F000E4C6F000E4A
:101D60004D6F000E4E6F46ECCAF047C28BF348C26F
:101D70008CF349C28DF34AC28EF303018B51300FAD
:101D800063ECD1F003019F079F29D8B408D0B0D7E6
:101D9000300E63ECD1F003018F07D8A0900790BFFD
:101DA00005D09051F5E18F05D8B0F2D79EBF09D08C
:101DB0009E5104E1090E9D5DD8A003D0080E9F6FCF
:101DC00002D09DC39FF39F519D5F000E9FBFFF0EEA
:101DD0009E5B9F51D8B403D02E0E63ECD1F003016B
:101DE0009F5117EC9EF092C280F393C281F394C28C
:101DF00082F395C283F395C37DF296C37EF297C3B7
:101E00007FF298C380F280C379F281C37AF282C3F1
:101E10007BF283C37CF25DECA4F079C292F27AC2C9
:101E200093F27BC294F27CC295F24AECC4F092C267
:101E300091F393C292F394C293F395C294F374D046
:101E400091C33AF292C33BF293C33CF294C33DF286
:101E500003019F51040DC10EF324F66ED60EF4203B
:101E6000F76EF86A000EF8220900F5CF3EF209007D
:101E7000F5CF3FF20900F5CF40F20A00F5CF41F26D
:101E800027ECC8F03AC28BF33BC28CF33CC28DF313
:101E90003DC28EF38BC347F28CC348F28DC349F227
:101EA0008EC34AF20A0E02014B6F000E4C6F000EF9
:101EB0004D6F000E4E6F46ECCAF047C28BF348C21E
:101EC0008CF349C28DF34AC28EF303018B51300F5C
:101ED00063ECD1F091C347F292C348F293C349F245
:101EE00094C34AF203019F51040DC10EF324F66E10
:101EF000D60EF420F76EF86A000EF8220900F5CF2E
:101F00004BF20900F5CF4CF20900F5CF4DF20A0073
:101F1000F5CF4EF246ECCAF047C291F348C292F3B5
:101F200049C293F34AC294F303019F079F29D8B48F
:101F300008D086D7300E63ECD1F003019D07D8A0FE
:101F40009E079D519E11D8B4E4D1F4D7C00E9915C7
:101F50000201A96F000E03019A150201AA6FA9518F
:101F6000AA11D8A41FD089C3D9FF8AC3DAFFDECF54
:101F700091F3DDCF92F30301000E92BFFF0E936F3A
:101F8000946F020E8927000E8A2394AF1ED0030E91
:101F90009913941F931F921F916D000E9223932308
:101FA000942313D089C3D9FF8AC3DAFFDECFA9F205
:101FB000DDCFAAF2A9C291F3AAC292F30301936BF7
:101FC000946B020E8927000E8A239D519E11D8A47E
:101FD0004BD09151921193119411D8A445D09D4B9F
:101FE0009E2B42D0010E9F6F0A0E9F19D8B447D086
:101FF0009F51040DC10EF324F66ED60EF420F76E39
:10200000F86A000EF8220900F550915D0900F550BC
:1020100092590900F55093590900F5509459D8A0E8
:102020002ED09F2BE1D7010E9F6F080E9F19D8B4B9
:1020300026D09F51040DE90EF324F66ED60EF4203F
:10204000F76EF86A000EF8220900F550915D09005C
:10205000F55092590900F55093590900F5509459DB
:10206000D8A00DD09F2BE1D79951C00B000AD8B44E
:10207000B9D7800AD8B4D7D7400AD8B4B3D7800E1E
:102080009FBF7F0E0201A96F03019D519F5D9E516D
:10209000800A0201A959D8B003D09DC39FF315D07F
:1020A00003019E51800A0201A96F03019F519D5DAA
:1020B000800E9FBF7F0E0201A959D8B006D0030140
:1020C0009F519D6F9E6B9DBF9E0703019B519C116D
:1020D000D8B411D0030E99150201A96F000E0301A7
:1020E0009A150201AA6FA951AA11D8B404D003010C
:1020F0009B07D8A09C0703019AAD18D09B519D5D0A
:102100009E51800A0201A96F03019C51800A0201BD
:10211000A959D8B006D003019D519B5F9E519C5B8D
:1021200005D0000E03019C6F000E9B6F800E9FBFB9
:102130007F0E0201A96F03019B519F5D9C51800A94
:102140000201A959D8B008D003019F519B5F000E2E
:102150009FBFFF0E9C5B05D0000E03019C6F000E1D
:102160009B6F99A51DD0030E99150201A96F000E52
:1021700003019A150201AA6FA951AA11D8B403D07C
:102180002D0E63ECD1F003019B519C11D8B4B8D053
:10219000300E63ECD1F003019B07D8A09C07F4D765
:1021A0009B519C11D8B40BD0200E63ECD1F00301ED
:1021B0009B07D8A09C079B519C11D8A4F5D7030E70
:1021C00099150201A96F000E03019A150201AA6F69
:1021D000A951AA11D8B494D02D0E63ECD1F090D0AF
:1021E0009DC3A9F29EC3AAF20201D890A937AA37CB
:1021F000D890A937AA37C10EA925F66ED60EAA2106
:10220000F76EF86A000EF8220900F5CF3EF20900D9
:10221000F5CF3FF20900F5CF40F20A00F5CF41F2C9
:1022200091C33AF292C33BF293C33CF294C33DF2A2
:1022300027ECC8F03AC247F23BC248F23CC249F22E
:102240003DC24AF20A0E02014B6F000E4C6F000EA7
:102250004D6F000E4E6F46ECCAF002014751300F31
:1022600003019F6F4AD091C33AF292C33BF293C3EA
:102270003CF294C33DF29DC3A9F29EC3AAF20201AF
:10228000D890A937AA37D890A937AA37E90EA92537
:10229000F66ED60EAA21F76EF86A000EF822090033
:1022A000F5CF3EF20900F5CF3FF20900F5CF40F23D
:1022B0000A00F5CF41F227ECC8F002013A510F0BAA
:1022C0000301846F8451010D590EF324F66EFD0E47
:1022D000F420F76EF86A000EF8220800F5CF9FF39D
:1022E0000CD003019951C00B000AD8B479D7800AE9
:1022F000D8B4B9D7400AD8B473D79F5163ECD1F0A2
:1023000003019D07D8A09E079D29EBE19E29D8A433
:10231000E8D702019F51A96FA051AA6F9F4BA02B34
:10232000A9C2F6FFAAC2F7FF000EF86E0D0EF76401
:1023300003D00800F55005D0F6CFE9FFF7CFEAFF4C
:10234000EF5003019F6F9F51D8B4120073EF8AF0D2
:10235000530E0001696F000E6A6F69EF98F0250E49
:102360007F19D8B405D07F51B9ECD1F069EF98F05E
:10237000000E00017C6F000E7B6F000E7A6F000E66
:10238000796F04D000017985514A522A51C0F6FF75
:1023900052C0F7FF000EF86E0D0EF76403D0080070
:1023A000F55005D0F6CFE9FFF7CFEAFFEF50300A3E
:1023B000D8B4E8D751C0F6FF52C0F7FF000EF86E50
:1023C0000D0EF76403D00800F55005D0F6CFE9FFF5
:1023D000F7CFEAFFEF509BECD0F0D8A04AD0000E28
:1023E00000017C6F000E7B6F7BC001F07CC002F0AF
:1023F000000E046E0A0E036E25ECD0F001C07BF0D7
:1024000002C07CF0D00E536EFF0E546E51C0F6FF2A
:1024100052C0F7FF000EF86E0D0EF76403D00800EF
:10242000F55005D0F6CFE9FFF7CFEAFFEF50556E34
:10243000566A5350552654505622555000017B275A
:1024400056507C23514A522A51C0F6FF52C0F7FF22
:10245000000EF86E0D0EF76403D00800F55005D09D
:10246000F6CFE9FFF7CFEAFFEF509BECD0F0D8B002
:10247000BBD751C0F6FF52C0F7FF000EF86E0D0E2D
:10248000F76403D00800F55005D0F6CFE9FFF7CF89
:10249000EAFFEF502E0AD8A448D000017A8D514AA5
:1024A000522A000E7E6F000E7D6F29D07DC001F094
:1024B0007EC002F0000E046E0A0E036E25ECD0F012
:1024C00051C0F6FF52C0F7FF000EF86E0D0EF76414
:1024D00003D00800F55005D0F6CFE9FFF7CFEAFFAB
:1024E000EF50536E53500126000E0222D00E0124ED
:1024F00000017D6FFF0E02207E6F514A522A51C0AB
:10250000F6FF52C0F7FF000EF86E0D0EF76403D011
:102510000800F55005D0F6CFE9FFF7CFEAFFEF50FE
:102520009BECD0F0D8A0A4D0C1D7000E00017E6FE4
:10253000000E7D6F7A899CD07A85D0D0798FCED0ED
:1025400069C0D9FF6AC0DAFFDECF65F0DDCF66F083
:10255000020E6927000E6A2365516611D8A404D0C3
:10256000850E656FFF0E666F000E686F000E676F59
:1025700003D00001674B682B67516525536E685186
:102580006621546E53C0F6FF54C0F7FF000EF86E7C
:102590000D0EF76403D00800F55005D0F6CFE9FF23
:1025A000F7CFEAFFEF500009D8A4E3D700017D512F
:1025B0007E11D8B40AD067517D5D68517E59D8B07C
:1025C00004D07DC067F07EC068F07B51675D7C51B0
:1025D0006859D8B005D067517B5F68517C5B08D0E3
:1025E000000E7C6F000E7B6F03D0200EB9ECD1F093
:1025F00000017B07D8A07C077B29F7E17C29D8B4B0
:1026000017D0F3D765C0F6FF66C0F7FF000EF86E6F
:102610000D0EF76403D00800F55005D0F6CFE9FFA2
:10262000F7CFEAFFEF50B9ECD1F00001654B662B14
:102630006707D8A068076729E5E16829D8B469EF7A
:1026400098F0E0D769C0D9FF6AC0DAFFDF507F6F2A
:10265000020E6927000E6A237F0E656F000E666FFB
:10266000000E686F010E676FA1D7C00E791336D0C8
:102670005150536E5250546E514A522A53C0F6FF75
:1026800054C0F7FF000EF86E0D0EF76403D008007B
:10269000F55005D0F6CFE9FFF7CFEAFFEF50000184
:1026A0007F6F7F51000AD8B41200580AD8B446D7B9
:1026B0003B0AD8B4C7D7070AD8B410D0020AD8B496
:1026C0003BD70F0AD8B40AD01A0AD8B439D7060AA9
:1026D000D8B4CBD70D0AD8B431D7BED7070E7A15E8
:1026E000D8B43CD37AA904D0000E7E6F060E7D6F5D
:1026F00069C0D9FF6AC0DAFFDECF75F0DECF76F0B1
:10270000DECF77F0DECF78F0040E6927000E6A2363
:1027100078AF15D075C001F076C002F077C003F035
:1027200078C004F097ECCFF001C075F002C076F0ED
:1027300003C077F004C078F0030E00017913000E97
:10274000706F000E6F6F7551761177117811D8B4D4
:1027500082D077357835820F6F6F706BFF0E7023E4
:102760006F07D8A070076FC001F070C002F0000EB4
:10277000046E030E036E25ECD0F001C06FF002C0B2
:1027800070F06FC007F070C008F0000E0A6E0A0EFD
:10279000096E69ECC8F007C06FF008C070F0000166
:1027A00070AF03D06F07D8A070076F51000869ECB5
:1027B000A0F028C06BF029C06CF02AC06DF02BC0CF
:1027C0006EF06BC00FF06CC010F06DC011F06EC0F9
:1027D00012F075C013F076C014F077C015F078C011
:1027E00016F0AFECA7F00FC06BF010C06CF011C08A
:1027F0006DF012C06EF06BC001F06CC002F06DC0E5
:1028000003F06EC004F0000E056E000E066E800E22
:10281000076E3F0E086E32ECC2F0D8B005D0000152
:102820006F07D8A0700717D06BC001F06CC002F022
:102830006DC003F06EC004F0000E056E000E066E53
:10284000200E076E410E086E32ECC2F0D8A003D005
:1028500000016F4B702B00017EBF06D07E5121E13D
:102860000D0E7D5DD8B01DD075C035F076C036F048
:1028700077C037F078C038F07D51B5ECB6F028C09D
:1028800039F029C03AF02AC03BF02BC03CF095EC5F
:10289000ACF035C075F036C076F037C077F038C090
:1028A00078F0000170BF06D0705123E10A0E6F5D11
:1028B000D8B01FD07551761177117811D8B464D083
:1028C00075C028F076C029F077C02AF078C02BF0C8
:1028D000B9ECC4F0285029102A102B10D8A454D0D9
:1028E000000170BF51D0705104E1020E6F5DD8A09D
:1028F0004BD06BC001F06CC002F06DC003F06EC035
:1029000004F05F0E056E700E066E890E076E400EA7
:10291000086E32ECC2F0D8B003D00001F70E02D03E
:102920000001F80E6F27FF0E70236F5169ECA0F0C5
:1029300028C06BF029C06CF02AC06DF02BC06EF07F
:1029400075C001F076C002F077C003F078C004F0E3
:102950006BC005F06CC006F06DC007F06EC008F0EB
:10296000ECECBFF001C071F002C072F003C073F074
:1029700004C074F0000E0001756F000E766F000E3B
:10298000776F000E786F3CD075C028F076C029F0C4
:1029900077C02AF078C02BF0B9ECC4F028C071F0F1
:1029A00029C072F02AC073F02BC074F075C049F0D2
:1029B00076C04AF077C04BF078C04CF071C001F09F
:1029C00072C002F073C003F074C004F0000EE1ECBA
:1029D000BCF001C04DF002C04EF003C04FF004C087
:1029E00050F046ECCDF049C075F04AC076F04BC0CF
:1029F00077F04CC078F0000E0001706F000E6F6F22
:102A0000010E7F6F0A0E7F19D8B41BD07F51040DC1
:102A1000C10EF324F66ED60EF420F76EF86A000E9F
:102A2000F8220900F550715D0900F550725909004E
:102A3000F55073590900F5507459D8A002D07F2B76
:102A4000E1D77FC053F0546A53BE54067D515326DC
:102A50007E5154226F5153267051542253507B5F44
:102A600054507C5B7D517E11D8B403D07B07D8A035
:102A70007C07030E7915536E000E7A15546E535071
:102A80005410D8B403D07B07D8A07C0779A525D0F3
:102A9000030E7915536E000E7A15546E5350541070
:102AA000D8B40BD02D0EB9ECD1F007D0300EB9EC64
:102AB000D1F000017B07D8A07C0700017CBF6BD060
:102AC0007C51F4E17B05D8A066D0F0D7200EB9EC9C
:102AD000D1F000017B07D8A07C077CBF05D07C51DA
:102AE000F5E17B05D8B0F2D7030E7915536E000ED1
:102AF0007A15546E53505410D8B44DD02D0EB9ECF5
:102B0000D1F049D071C001F072C002F073C003F07F
:102B100074C004F000017F51040DC10EF324F66E61
:102B2000D60EF420F76EF86A000EF8220900F5CFF1
:102B300005F00900F5CF06F00900F5CF07F00A000F
:102B4000F5CF08F0ABECC8F001C06BF002C06CF040
:102B500003C06DF004C06EF06BC00EF06CC00FF0DF
:102B60006DC010F06EC011F00A0E126E000E136EE2
:102B7000000E146E000E156EADECCAF00EC06BF0B8
:102B80000FC06CF010C06DF011C06EF000016B5101
:102B9000300FB9ECD1F000017F077F29D8B408D0FD
:102BA000B1D7300EB9ECD1F000016F07D8A0700793
:102BB00070BF05D07051F5E16F05D8B0F2D77EBF78
:102BC00009D07E5104E1090E7D5DD8A003D0080E26
:102BD0007F6F02D07DC07FF07F517D5F000E7FBF91
:102BE000FF0E7E5B7F51D8B403D02E0EB9ECD1F02E
:102BF00000017F5169ECA0F028C060F029C061F0AD
:102C00002AC062F02BC063F075C013F076C014F0D8
:102C100077C015F078C016F060C00FF061C010F0FA
:102C200062C011F063C012F0AFECA7F00FC028F043
:102C300010C029F011C02AF012C02BF0B9ECC4F07A
:102C400028C071F029C072F02AC073F02BC074F054
:102C500073D071C001F072C002F073C003F074C091
:102C600004F000017F51040DC10EF324F66ED60E60
:102C7000F420F76EF86A000EF8220900F5CF05F08F
:102C80000900F5CF06F00900F5CF07F00A00F5CFEF
:102C900008F0ABECC8F001C06BF002C06CF003C0F0
:102CA0006DF004C06EF06BC00EF06CC00FF06DC024
:102CB00010F06EC011F00A0E126E000E136E000EB0
:102CC000146E000E156EADECCAF00EC06BF00FC0A6
:102CD0006CF010C06DF011C06EF000016B51300F40
:102CE000B9ECD1F071C00EF072C00FF073C010F0EB
:102CF00074C011F000017F51040DC10EF324F66E73
:102D0000D60EF420F76EF86A000EF8220900F5CF0F
:102D100012F00900F5CF13F00900F5CF14F00A0006
:102D2000F5CF15F0ADECCAF00EC071F00FC072F027
:102D300010C073F011C074F000017F077F29D8B470
:102D400008D087D7300EB9ECD1F000017D07D8A0AC
:102D50007E077D517E11D8B4BCD1F4D7C00E791551
:102D6000536E000E7A15546E53505410D8A41ED0D2
:102D700069C0D9FF6AC0DAFFDECF71F0DDCF72F033
:102D8000000E72BFFF0E736F746F020E6927000E84
:102D90006A2374AF1DD0030E7913741F731F721F43
:102DA000716D000E72237323742312D069C0D9FF92
:102DB0006AC0DAFFDECF53F0DDCF54F053C071F0BC
:102DC00054C072F0736B746B020E6927000E6A2395
:102DD0007D517E11D8A44BD07151721173117411B1
:102DE000D8A445D07D4B7E2B42D0010E7F6F0A0EBA
:102DF0007F19D8B447D07F51040DC10EF324F66E6D
:102E0000D60EF420F76EF86A000EF8220900F5508D
:102E1000715D0900F55072590900F55073590900A8
:102E2000F5507459D8A02ED07F2BE1D7010E7F6FBB
:102E3000080E7F19D8B426D07F51040DE90EF32473
:102E4000F66ED60EF420F76EF86A000EF82209002E
:102E5000F550715D0900F55072590900F55073592C
:102E60000900F5507459D8A00DD07F2BE1D77951C6
:102E7000C00B000AD8B4B9D7800AD8B4D7D7400A53
:102E8000D8B4B3D7800E7FBF7F0E536E7D517F5D68
:102E90007E51800A5358D8B003D07DC07FF010D047
:102EA0007E51800A536E7F517D5D800E7FBF7F0E05
:102EB0005358D8B005D07F517D6F7E6B7DBF7E07A4
:102EC0007B517C11D8B40DD0030E7915536E000ED2
:102ED0007A15546E53505410D8B403D07B07D8A041
:102EE0007C077AAD13D07B517D5D7E51800A536E95
:102EF0007C51800A5358D8B005D07D517B5F7E51FC
:102F00007C5B04D0000E7C6F000E7B6F800E7FBF59
:102F10007F0E536E7B517F5D7C51800A5358D8B031
:102F200007D07F517B5F000E7FBFFF0E7C5B04D01C
:102F3000000E7C6F000E7B6F79A51AD0030E7915F9
:102F4000536E000E7A15546E53505410D8B403D0FB
:102F50002D0EB9ECD1F000017B517C11D8B4B0D06A
:102F6000300EB9ECD1F000017B07D8A07C07F4D774
:102F70007B517C11D8B40BD0200EB9ECD1F00001FC
:102F80007B07D8A07C077B517C11D8A4F5D7030E12
:102F90007915536E000E7A15546E53505410D8B4F0
:102FA0008FD02D0EB9ECD1F08BD07DC053F07EC008
:102FB00054F0D89053365436D89053365436C10E08
:102FC0005324F66ED60E5420F76EF86A000EF822DF
:102FD0000900F5CF05F00900F5CF06F00900F5CF9F
:102FE00007F00A00F5CF08F071C001F072C002F0DE
:102FF00073C003F074C004F0ABECC8F001C00EF075
:1030000002C00FF003C010F004C011F00A0E126EDF
:10301000000E136E000E146E000E156EADECCAF0AD
:103020000E50300F00017F6F48D071C001F072C0A8
