:0400000085EF00F098
:060008005F8222EFB6F05A
:100018005F80D8CF02F1E8CF03F1E0CF04F1FACF47
:1000280005F1FBCF06F1E9CF07F1EACF08F1E1CFFF
:1000380009F1E2CF0AF1D9CF0BF1DACF0CF1F3CF06
:100048000DF1F4CF0EF1F6CF0FF1F7CF10F1F8CF95
:1000580011F1F5CF12F15FC013F160C014F161C066
:1000680015F162C016F10E012EBB38AB03D055EC6A
:10007800BFF01BD02CBD36AD0DD001D816D0050071
:10008800FA6E02016F51FD6E7051FE6E7151FF6E76
:10009800FA5012002EBD38AD03D096ECBEF005D054
:1000A8002BBF35AF02D0B3ECC0F016C162F015C15A
:1000B80061F014C160F013C15FF012C1F5FF11C106
:1000C800F8FF10C1F7FF0FC1F6FF0EC1F4FF0DC115
:1000D800F3FF0CC1DAFF0BC1D9FF0AC1E2FF09C166
:1000E800E1FF08C1EAFF07C1E9FF06C1FBFF05C13F
:1000F800FAFF04C1E0FF03C1E8FF02C1D8FF5F9027
:06010800100027EFB9F022
:10EBBC00000000803F000020410000C84200007AA5
:10EBCC004400401C460050C34700247449809618EA
:10EBDC004B20BCBE4C286B6E4EF9021550EC78AD38
:10EBEC0060CAF249710000803FCDCCCC3D0AD723DE
:10EBFC003C6F12833A17B7D138ACC52737BD37866F
:10EC0C003595BFD63377CC2B325F708930FFE6DB7E
:10EC1C002E08E53C1E6042A20D010000000A000017
:10EC2C000064000000E803000010270000A086012B
:10EC3C000040420F008096980000E1F50500CA9A4A
:10EC4C003B0100000010000000000100000010005B
:10EC5C000000000100000010000000000100000096
:10EC6C0010063C04427D9F6A425C900142604DBBA1
:10EC7C004051EC473EDE8D1FBBECF34A4835959571
:10EC8C00C717C1DC45FDDB6DC372B33340063C04D2
:10EC9C0042C0598B4274044442F99B4F410000809E
:10ECAC003F2B3401487F9DB045E7FFD942000080DF
:10ECBC003F4C697374206F6620737570706F72743B
:10ECCC00656420636F6D6D616E64733A0A0D446503
:10ECDC007669636520436F6D6D616E64733A0A0DDE
:10ECEC0020202052657365743A20436C6561727301
:10ECFC0020746865207465726D696E616C20616E3C
:10ED0C00642072657365747320746865206D696323
:10ED1C00726F0A0D202020436C6561723A20436C9F
:10ED2C006561727320746865207465726D696E61BB
:10ED3C006C2062757420646F65736E277420726525
:10ED4C0073657420746865206D6963726F0A0D2099
:10ED5C0020204361757365206F662052657365745E
:10ED6C003F3A2052657475726E7320746865206327
:10ED7C0061757365206F6620746865206D6F7374A0
:10ED8C0020726563656E74206465766963652072B4
:10ED9C00657365740A0D2020202A49444E3F3A20A1
:10EDAC0052657475726E732064657669636520694B
:10EDBC0064656E74696669636174696F6E207374DF
:10EDCC0072696E670A0D20202044657669636520A0
:10EDDC004F6E2054696D653F3A2052657475726EA2
:10EDEC007320646576696365206F6E2074696D6548
:10EDFC002073696E6365206C617374206465766939
:10EE0C0063652072657365740A0D20202044657655
:10EE1C006963652049443F3A2052657475726E737C
:10EE2C0020646576696365204944206173207072A3
:10EE3C00652D70726F6772616D6D656420696E20EF
:10EE4C00666C617368206D656D6F72790A0D202098
:10EE5C00205265766973696F6E2049443F3A20529F
:10EE6C00657475726E732064657669636520736969
:10EE7C006C69636F6E207265766973696F6E204979
:10EE8C0044206173207072652D70726F6772616DB2
:10EE9C006D656420696E20666C617368206D656DAC
:10EEAC006F72790A0D2020205573657220494473C6
:10EEBC003F3A2052657475726E732061206C6973D1
:10EECC0074206F6620757365722049447320286422
:10EEDC006973706C6179656420696E206865782946
:10EEEC002061732073746F72656420696E20666C88
:10EEFC00617368206D656D6F72790A0D2020204159
:10EF0C004443204572726F723F3A20526574757299
:10EF1C006E7320746865206361757365206F66205D
:10EF2C00616E20414443206572726F7220696620C5
:10EF3C00616E206572726F72206F63637572726599
:10EF4C00640A0D202020436C6561722041444320EB
:10EF5C004572726F723A20436C65617273207468EB
:10EF6C006520414443206572726F7220616E64208B
:10EF7C00726573756D65732041444320636F6E76C3
:10EF8C00657273696F6E730A0D20202056434320FF
:10EF9C004F766572766F6C746167653F3A20537477
:10EFAC0061746573206966206120564343206F7637
:10EFBC006572766F6C7461676520636F6E646974DB
:10EFCC00696F6E20686173206F636375727265641C
:10EFDC00206F72206E6F740A0D20202048656C70B3
:10EFEC003A2054686973206D6573736167652C20D2
:10EFFC006C6973747320737570706F7274656420B0
:10F00C00636F6D6D616E64730A0D4465766963653B
:10F01C00204D6561737572656D656E7420436F6DFF
:10F02C006D616E64733A0A0D2020204D6561737515
:10F03C00726520504F533350333F3A2052657475EC
:10F04C00726E73202B332E33562041444320436F72
:10F05C006E76657273696F6E20696E20766F6C7454
:10F06C00730A0D2020204D65617375726520504F19
:10F07C005331323F3A2052657475726E73202B31C6
:10F08C0032562041444320436F6E76657273696F2C
:10F09C006E20696E20766F6C74730A0D2020204DE3
:10F0AC00656173757265204469652054656D703FA8
:10F0BC003A2052657475726E7320746865206D69A0
:10F0CC0063726F636F6E74726F6C6C6572206469BF
:10F0DC00652074656D706572617475726520696EFA
:10F0EC00206465677265657320430A0D2020204DEE
:10F0FC00656173757265204656523F3A20526574AD
:10F10C0075726E732074686520696E7465726E61B9
:10F11C006C20666978656420766F6C746167652015
:10F12C007265666572656E6365206275666665728A
:10F13C002031206F757470757420696E20766F6C39
:10F14C0074730A0D2020204D656173757265204122
:10F15C005653533F3A2052657475726E732074681F
:10F16C0065206D656173757265642076616C75657B
:10F17C00206F6620416E616C6F6720565353206977
:10F18C006E20766F6C74730A0D5072696D617279B2
:10F19C00204D6561737572656D656E7420436F6D7E
:10F1AC006D616E64733A0A0D2020204D6561737594
:10F1BC00726520446574656374656420437572726E
:10F1CC00656E743F3A2052657475726E73206D656E
:10F1DC00617375726564206F7574707574206375D6
:10F1EC007272656E7420696E20616D70732061732C
:10F1FC00207365656E206279204144430A0D2020FE
:10F20C00204D65617375726520524D5320437572A4
:10F21C0072656E743F3A2052657475726E73207409
:10F22C0068652063616C63756C6174656420524D14
:10F23C0053206F75747075742063757272656E747B
:10F24C002066726F6D206D6561737572656D656E8C
:10F25C00747320616E642054524941432066697274
:10F26C00696E6720616E676C650A0D2020204D6504
:10F27C00617375726520524D5320566F6C746167C3
:10F28C00653F3A2052657475726E73207468652000
:10F29C0063616C63756C6174656420524D53206FAF
:10F2AC00757470757420766F6C7461676520667206
:10F2BC006F6D20545249414320666972696E672014
:10F2CC00616E676C650A0D2020204D656173757247
:10F2DC006520506F7765723F3A2052657475726E77
:10F2EC0073207468652063616C63756C617465640C
:10F2FC00206F757470757420706F77657220696EED
:10F30C002057617474730A0D2020204C6F616420A7
:10F31C004F6E2054696D653F3A2052657475726E5C
:10F32C0073206C6F6164206F6E2074696D6520733F
:10F33C00696E6365206C61737420646576696365BE
:10F34C0020726573657420696E207365636F6E64DB
:10F35C00730A0D4F757470757420436F6E74726FF1
:10F36C006C20436F6D6D616E64733A0A0D20202022
:10F37C00456E61626C652044696D6D696E673A20FB
:10F38C00456E61626C65205452494143206F75741F
:10F39C007075742064696D6D696E670A0D2020208C
:10F3AC0044697361626C652044696D6D696E673A7E
:10F3BC002044697361626C65205452494143206F4B
:10F3CC0075747075742064696D6D696E670A0D20B3
:10F3DC002020456E61626C65204C6F61643A20455B
:10F3EC006E61626C657320746865206F75747075DE
:10F3FC007420545249414320776974682064696DC4
:10F40C006D696E672064697361626C65640A0D20B6
:10F41C00202044697361626C65204C6F61643A20F2
:10F42C0044697361626C657320746865206F7574D0
:10F43C0070757420545249414320636F6D706C6534
:10F44C0074656C790A0D2020205365742044696D15
:10F45C006D696E672050657263656E746167653A9D
:10F46C00203C783E3A205365747320746865206F95
:10F47C0075747075742064696D6D696E6720706544
:10F48C007263656E746167652061732078207065A6
:10F49C007263656E740A0D0020202020426F6F7419
:10F4AC0020636F6D706C6574650A0D2020202050F0
:10F4BC00494331384636374B3430206D546F7563C1
:10F4CC0068205465737420426F6172640A0D2020A9
:10F4DC0020204576616C75617465732074686520B5
:10F4EC006D546F75636820636170616369746976CC
:10F4FC006520746F756368206C6962726172792023
:10F50C006469737472696275746564206279204DE4
:10F51C006963726F636869700A0D2020202053653F
:10F52C00747320746865207374617465206F662031
:10F53C0066697665204C454473206261736564206E
:10F54C006F6E206D546F75636820636170616369C1
:10F55C00746976652070757368627574746F6E73F8
:10F56C000A0D202020204261756420726174653A76
:10F57C0020313135323030206270730A0D2020205A
:10F58C00204E6F207061726974792C20382062696A
:10F59C0074732C206E6F20666C6F7720636F6E74A3
:10F5AC00726F6C2C20312073746F70206269740A36
:10F5BC000D20202020436F6D6D616E64732061728D
:10F5CC006520636173652073656E73697469766514
:10F5DC000A0D20202020456E746572206120636F17
:10F5EC006D6D616E642C206F7220656E7465722077
:10F5FC0048656C7020666F72206C697374206F663E
:10F60C0020636F6D6D616E64730A0D00496620791D
:10F61C006F752764206C696B6520746F20636F6D48
:10F62C00706C6574656C7920656E61626C65206FB9
:10F63C00722064697361626C6520746865206C6FFC
:10F64C0061642C2064697361626C652064696D6D02
:10F65C00696E6720616E64207573652072657370C6
:10F66C0065637469766520636F6D6D616E64730A92
:10F67C000D004552524F523A20506C656173652013
:10F68C007365742064696D6D696E67207065726353
:10F69C00656E7461676520746F20616E20696E748D
:10F6AC006567657220677265617465722074686144
:10F6BC006E203020616E64206C65737320746861F9
:10F6CC006E203130300A0D0044657669636520493F
:10F6DC00442073746F72656420696E20466C61738C
:10F6EC00682069733A20307825582E205468697345
:10F6FC0020636F72726573706F6E647320746F2009
:10F70C0061206465766963652070617274206E7522
:10F71C006D626572206F662025730A0D005468694E
:10F72C007320636F72726573706F6E647320746F85
:10F73C002061203136206269742074696D657220F5
:10F74C007072652D6C6F61642076616C7565206FCD
:10F75C0066203078255820282575204C5342732973
:10F76C00200A0D00564343204F766572766F6C74F9
:10F77C0061676520636F6E646974696F6E20686180
:10F78C0073206F636375727265642028564343203F
:10F79C0068617320657863656564656420332E3613
:10F7AC003056290A0D0054686520666F6C6C6F77B3
:10F7BC00696E6720557365722049447320686176C1
:10F7CC0065206265656E2072657472696576656424
:10F7DC002066726F6D20666C617368206D656D6F4D
:10F7EC0072793A0A0D0043616C63756C61746564DF
:10F7FC0020545249414320666972696E6720616EDC
:10F80C00676C6520697320252E33662072616469EC
:10F81C00616E732028252E336620646567726565DA
:10F82C0073290A0D00446576696365206F6E207438
:10F83C00696D652073696E6365206C6173742072E9
:10F84C006573657420636F6E646974696F6E20698B
:10F85C0073202564207365636F6E64730A0D004416
:10F86C0065766963652073696C69636F6E20726578
:10F87C00766973696F6E2049442061732073746FCD
:10F88C0072656420696E20466C6173682069733AF6
:10F89C0020256325640A0D004F75747075742070F3
:10F8AC006F7765722063616C63756C61746564203D
:10F8BC00617320252E336620576174747320667231
:10F8CC006F6D20524D532076616C7565730A0D0077
:10F8DC00466978656420566F6C7461676520526563
:10F8EC00666572656E636520427566666572203169
:10F8FC00206D6561737572656420617320256620C7
:10F90C00566F6C74730A0D0020202020557365729D
:10F91C0020494420576F72642025642028466C616E
:10F92C007368206164647265737320307832303090
:10F93C0030302558293A20307825580A0D004C6F64
:10F94C006164206F6E2074696D652073696E6365E8
:10F95C00206C6173742064657669636520726573CD
:10F96C006574206973202564207365636F6E6473FE
:10F97C000A0D00546865206361757365206F6620FD
:10F98C00746865206D6F737420726563656E742086
:10F99C00646576696365207265736574207761733D
:10F9AC003A2025730A0D0054686520666F6C6C6FE5
:10F9BC0077696E67206368616E6E656C2063617534
:10F9CC0073656420616E20414443206572726F72CE
:10F9DC003A2025730A0D004D61727175657474655A
:10F9EC0020556E697665727369747920454C454E65
:10F9FC0020333033352046696E616C2050726F6A4B
:10FA0C006563740A0D00456E746572202748656C39
:10FA1C00702720666F72206C697374206F6620618A
:10FA2C007661696C61626C6520636F6D6D616E648B
:10FA3C00730A0D00564343204F766572766F6C74D3
:10FA4C0061676520636F6E646974696F6E206861AD
:10FA5C0073206E6F74206F636375727265640A0D28
:10FA6C00004C6F616420686173206265656E20656F
:10FA7C006E61626C65642C2064696D6D696E6720C3
:10FA8C0064697361626C65640A0D0057696E646F1A
:10FA9C0077656420576174636820446F67205469EC
:10FAAC006D65722056696F6C6174696F6E2052655A
:10FABC00736574005452494143206F7574707574AA
:10FACC002064696D6D696E6720686173206265657D
:10FADC006E2064697361626C65640A0D005452494E
:10FAEC004143206F75747075742064696D6D696E17
:10FAFC006720686173206265656E20656E61626C5B
:10FB0C0065640A0D004D6561737572656D656E7483
:10FB1C0020726573706F6E736573206170706561B0
:10FB2C007220696E206379616E0A0D004156535341
:10FB3C00206D6561737572656420617320252E33A9
:10FB4C006620566F6C7473206279204144430A0D11
:10FB5C000044696D6D696E6720686173206265652C
:10FB6C006E2073657420746F202564207065726339
:10FB7C00656E740A0D0053797374656D2070617233
:10FB8C00616D657465727320617070656172206956
:10FB9C006E20677265656E0A0D002B332E3356206E
:10FBAC007261696C206D6561737572656420617337
:10FBBC00202B256620566F6C74730A0D0044696502
:10FBCC002054656D7065726174757265206D656128
:10FBDC007375726564206173202566430A0D0052AB
:10FBEC004D53204F75747075742043757272656E29
:10FBFC007420697320252E33662041726D730A0DB3
:10FC0C0000524D53204F757470757420566F6C7480
:10FC1C0061676520697320252E33662056726D73DB
:10FC2C000A0D002B313256207261696C206D6561B2
:10FC3C007375726564206173202B256620566F6C7A
:10FC4C0074730A0D0048656C70206D657373616781
:10FC5C0065732061707065617220696E2079656CC6
:10FC6C006C6F770A0D004D65617375726564204386
:10FC7C00757272656E7420697320252E336620416F
:10FC8C006D70730A0D005573657220696E70757412
:10FC9C00206170706561727320696E207768697479
:10FCAC00650A0D00524553455420496E73747275A4
:10FCBC006374696F6E204578656375746564004D77
:10FCCC006561737572652044657465637465642041
:10FCDC0043757272656E743F004C6F61642068618D
:10FCEC0073206265656E2064697361626C65640A79
:10FCFC000D005365742044696D6D696E6720506505
:10FD0C007263656E746167653A20004E6F204144E2
:10FD1C0043204572726F7220646574656374656408
:10FD2C000A0D004572726F7273206170706561729A
:10FD3C0020696E207265640A0D00537461636B2038
:10FD4C00556E646572666C6F7720526573657400CE
:10FD5C00496E7465726E616C20465652204275660F
:10FD6C00666572203100537461636B204F76657247
:10FD7C00666C6F7720526573657400436C656172B5
:10FD8C00696E6720414443204572726F720A0D0000
:10FD9C004D65617375726520524D5320566F6C74AE
:10FDAC006167653F004D65617375726520524D53F7
:10FDBC002043757272656E743F004D617374657289
:10FDCC0020436C656172205265736574004D6561EA
:10FDDC0073757265204469652054656D703F003001
:10FDEC003132333435363738394142434445460095
:10FDFC00414320506F776572204D657465720A0D12
:10FE0C0000564343204F766572766F6C746167655C
:10FE1C003F00556E646566696E6564205265736556
:10FE2C00740042726F776E204F7574205265736543
:10FE3C0074004D65617375726520504F53335033A8
:10FE4C003F00446576696365204F6E2054696D658B
:10FE5C003F004361757365206F662052657365744E
:10FE6C003F0044697361626C652044696D6D696E15
:10FE7C006700436C65617220414443204572726F88
:10FE8C007200506F776572204F6E205265736574E7
:10FE9C00004D65617375726520504F5331323F00D0
:10FEAC004D65617375726520506F7765723F0045C3
:10FEBC006E61626C652044696D6D696E6700496E98
:10FECC007465726E616C2044414331004D65617301
:10FEDC0075726520415653533F004C6F6164204F3F
:10FEEC006E2054696D653F00496E7465726E616C6D
:10FEFC00204156535300496E7465726E616C2054E8
:10FF0C00656D700050494331384C4636374B3430B0
:10FF1C00005265766973696F6E2049443F004D65E8
:10FF2C006173757265204656523F00446973616275
:10FF3C006C65204C6F61640050494331384636374C
:10FF4C004B343000456E61626C65204C6F6164000F
:10FF5C004465766963652049443F0041444320452C
:10FF6C0072726F723F0055736572204944733F0083
:10FF7C00556E646566696E656400286E756C6C29D7
:10FF8C0000504F5333503300504F533132002A49F5
:10FF9C00444E3F00436C6561720049534E53004818
:10FFAC00656C70001B5B324A0049444E001B5B4879
:10FFBC00001B5B73001B5B75001B5B4B003330003D
:10FFCC0033310034310033320034320033330034F7
:10FFDC0033003334003434003335003435003336D9
:10FFEC00003436003337003437001B5B0038003BDD
:04FFFC00006D000094
:020000040001F9
:10000000BCC117F1BDC118F1280E0101196FFE0E18
:100010001A6F51ECBCF0010117511811D8A40FD080
:10002000B00E7C6FFF0E7D6F52EC86F0B90E0101B1
:100030007C6FFF0E7D6F52EC86F0FF001200BCC19A
:1000400017F1BDC118F1A00E0101196FFF0E1A6F53
:1000500051ECBCF0010117511811D8A40ED0B00E0C
:100060007C6FFF0E7D6F52EC86F0B90E01017C6F44
:10007000FF0E7D6F52EC86F01200BCC117F1BDC1BE
:1000800018F15E0E0101196FFE0E1A6F51ECBCF0F3
:10009000010117511811D8A419D0000EAA6F000E33
:1000A000AB6F020E1EEC9AF07F0E01017C6FF90E11
:1000B0007D6F0201DD51E3ECBEF017C17EF118C186
:1000C0007FF152EC86F043ECC0F01200BCC117F196
:1000D000BDC118F19A0E0101196FFF0E1A6F51EC94
:1000E000BCF0010117511811D8B40FD0BCC117F1E1
:1000F000BDC118F1B50E196FFF0E1A6F51ECBCF0AF
:10010000010117511811D8A418D0000EAA6F000EC3
:10011000AB6F020E1EEC9AF0FC0E01017C6FFD0E1F
:100120007D6F52EC86F0E30E01017C6FF90E7D6F5E
:1001300052EC86F043ECC0F01200BCC117F1BDC117
:1001400018F15C0E0101196FFF0E1A6F51ECBCF033
:10015000010117511811D8A423D0000EAA6F000E68
:10016000AB6F020E1EEC9AF0D40E01017C6FF60EFE
:100170007D6FD9ECBFF022C17EF123C17FF1D9ECB4
:10018000BFF022C124F123C125F1CCECBBF024C186
:1001900080F125C181F152EC86F043ECC0F01200F1
:1001A000BCC117F1BDC118F11D0E0101196FFF0E81
:1001B0001A6F51ECBCF0010117511811D8A422D0CC
:1001C000000EAA6F000EAB6F020E1EEC9AF06B0EC3
:1001D00001017C6FF80E7D6F08ECBEF00101BE6F6F
:1001E000410EBE257E6F7F6B000E7F237DECBFF03E
:1001F0000101BF6FBF51806F816B52EC86F043EC01
:10020000C0F01200BCC117F1BDC118F1720E01019E
:10021000196FFF0E1A6F51ECBCF001011751181144
:10022000D8A43ED0000EAA6F000EAB6F020E1EECDB
:100230009AF0B20E01017C6FF70E7D6F52EC86F0E2
:10024000000E0301A26F000EA16FA2BF06D0A25143
:1002500024E1080EA15DD8B020D0140E01017C6FFE
:10026000F90E7D6FA1C37EF1A2C37FF1D890030187
:10027000A1350101806F0301A2350101816F0301E6
:10028000A151A5ECBDF022C182F123C183F152EC52
:1002900086F00301A14BA22BD8D743ECC0F012008B
:1002A000BCC117F1BDC118F1670E0101196FFF0E36
:1002B0001A6F51ECBCF0010117511811D8A4A4D049
:1002C0005EA090D0000EAA6F000EAB6F010E1EEC68
:1002D0009AF05FCFDDF160D0800E0101176F030E41
:1002E000186FA60E196FFF0E1A6F60ECBEF06CD07F
:1002F000800E0101176F030E186F940E196FFF0E19
:100300001A6F60ECBEF060D0800E0101176F030E13
:10031000186F8D0E196FFF0E1A6F60ECBEF054D07F
:10032000800E0101176F030E186FF40E196FFE0E89
:100330001A6F60ECBEF048D0800E0101176F030EFB
:10034000186F020E196FFF0E1A6F60ECBEF03CD0F2
:10035000800E0101176F030E186FCA0E196FFE0E83
:100360001A6F60ECBEF030D0800E0101176F030EE3
:10037000186F5C0E196FFD0E1A6F60ECBEF024D082
:10038000800E0101176F030E186F7C0E196FFF0EA0
:100390001A6F60ECBEF018D00101DD51000AD8B42C
:1003A0009BD7040AD8B4A4D7260AD8B4ADD71E0A5E
:1003B000D8B4B6D7010AD8B4BFD7030AD8B4C8D7BF
:1003C000010AD8B4D1D7DCD7B30E01017C6FF90E86
:1003D0007D6F800E7E6F030E7F6F52EC86F043ECD4
:1003E000C0F01200000E0101AA6F000EAB6F020EEA
:1003F0001EEC9AF0170E01017C6FFD0E7D6F52EC22
:1004000086F043ECC0F01200BCC117F1BDC118F179
:100410007E0E0101196FFE0E1A6F51ECBCF0010146
:1004200017511811D8A418D07E965E900E012E5147
:10043000BAECC0F0000E0101AA6F000EAB6F020E05
:100440001EEC9AF0870E01017C6FFD0E7D6F52EC61
:1004500086F043ECC0F01200BCC117F1BDC118F129
:100460000D0E0101196FFE0E1A6F51ECBCF0010167
:1004700017511811D8A426D05EA412D0000EAA6F6E
:10048000000EAB6F010E1EEC9AF0700E01017C6F36
:10049000F70E7D6F52EC86F043ECC0F05E941200D4
:1004A000000E0101AA6F000EAB6F020E1EEC9AF057
:1004B000400E01017C6FFA0E7D6F52EC86F043EC2A
:1004C000C0F01200BCC117F1BDC118F13E0E010110
:1004D000196FFE0E1A6F51ECBCF001011751181183
:1004E000D8A419D0000EAA6F000EAB6F060E1EEC3A
:1004F0009AF0A60E01017C6FFB0E7D6FF0C07EF1BD
:10050000F1C07FF1F2C080F1F3C081F152EC86F0CE
:1005100043ECC0F01200BCC117F1BDC118F19D0E33
:100520000101196FFE0E1A6F51ECBCF00101175159
:100530001811D8A419D0000EAA6F000EAB6F060ECA
:100540001EEC9AF02F0E01017C6FFC0E7D6F58C2DD
:100550007EF159C27FF15AC280F15BC281F152EC47
:1005600086F043ECC0F01200BCC117F1BDC118F118
:10057000D90E0101196FFD0E1A6F51ECBCF001018B
:1005800017511811D8A419D0000EAA6F000EAB6F26
:10059000060E1EEC9AF0C90E01017C6FFB0E7D6FFA
:1005A00054C27EF155C27FF156C280F157C281F12B
:1005B00052EC86F043ECC0F01200BCC117F1BDC193
:1005C00018F12A0E0101196FFF0E1A6F51ECBCF0E1
:1005D000010117511811D8A419D0000EAA6F000EEE
:1005E000AB6F060E1EEC9AF0DC0E01017C6FF80E6C
:1005F0007D6FF5C07EF1F6C07FF1F7C080F1F8C0E5
:1006000081F152EC86F043ECC0F01200BCC117F14E
:10061000BDC118F1D80E0101196FFE0E1A6F51EC11
:10062000BCF0010117511811D8A419D0000EAA6FFF
:10063000000EAB6F060E1EEC9AF0380E01017C6FB7
:10064000FB0E7D6FD7C17EF1D8C17FF1D9C180F19A
:10065000DAC181F152EC86F043ECC0F01200BCC16B
:1006600017F1BDC118F1CB0E0101196FFC0E1A6F05
:1006700051ECBCF0010117511811D8A419D0000E8B
:10068000AA6F000EAB6F060E1EEC9AF0720E0101FF
:100690007C6FFC0E7D6FD3C17EF1D4C17FF1D5C1DB
:1006A00080F1D6C181F152EC86F043ECC0F012002B
:1006B000BCC117F1BDC118F1B10E0101196FFD0EDA
:1006C0001A6F51ECBCF0010117511811D8A419D0C0
:1006D000000EAA6F000EAB6F060E1EEC9AF0EB0E2A
:1006E00001017C6FFB0E7D6FCFC17EF1D0C17FF128
:1006F000D1C180F1D2C181F152EC86F043ECC0F05F
:100700001200BCC117F1BDC118F19C0E0101196F97
:10071000FD0E1A6F51ECBCF0010117511811D8A44D
:1007200019D0000EAA6F000EAB6F060E1EEC9AF0E9
:100730000D0E01017C6FFC0E7D6FCBC17EF1CCC133
:100740007FF1CDC180F1CEC181F152EC86F043EC56
:10075000C0F01200BCC117F1BDC118F1AC0E01010F
:10076000196FFE0E1A6F51ECBCF0010117511811F0
:10077000D8A419D0000EAA6F000EAB6F060E1EECA7
:100780009AF0A40E01017C6FF80E7D6F48C27EF1D5
:1007900049C27FF14AC280F14BC281F152EC86F02E
:1007A00043ECC0F01200BCC117F1BDC118F1BB0E83
:1007B0000101196FFE0E1A6F51ECBCF001011751C7
:1007C0001811D8A412D07F90000EAA6F000EAB6F44
:1007D000060E1EEC9AF0E90E01017C6FFA0E7D6F99
:1007E00052EC86F043ECC0F01200BCC117F1BDC161
:1007F00018F16E0E0101196FFE0E1A6F51ECBCF06C
:10080000010117511811D8A412D07F80000EAA6FD1
:10081000000EAB6F060E1EEC9AF0C00E01017C6F4D
:10082000FA0E7D6F52EC86F043ECC0F01200BCC1B2
:1008300017F1BDC118F1500E0101196FFF0E1A6FAB
:1008400051ECBCF0010117511811D8A414D07F80CD
:100850007F925E82000EAA6F000EAB6F060E1EEC3A
:100860009AF06D0E01017C6FFA0E7D6F52EC86F0EE
:1008700043ECC0F01200BCC117F1BDC118F1370E36
:100880000101196FFF0E1A6F51ECBCF001011751F5
:100890001811D8A414D07F927F905E92000EAA6F98
:1008A000000EAB6F060E1EEC9AF0E50E01017C6F98
:1008B000FC0E7D6F52EC86F043ECC0F01200BCC120
:1008C00026F1BDC127F1FE0E0101286FFC0E296F34
:1008D000D9ECB7F0010126512711D8B431D1000E5F
:1008E00003019E6F000E9D6F9EBF06D09E511FE1BB
:1008F000030E9D5DD8B01BD0180E9D250101BE6F63
:10090000000E03019E210101BF6FBE51BC25D96EAF
:10091000BF51BD21DA6E9A0E03019D25E16E030ED3
:100920009E21E26EDFCFE7FF9D4B9E2BDDD79A0E17
:1009300001011D6F030E1E6FB6ECB5F01DC19FF3D4
:100940001EC1A0F30301A0BF06D0A0510BE1640EAD
:100950009F5DD8B007D0A0BF05D0A0512BE19F0567
:10096000D8B028D0000E0101AA6F000EAB6F010EA7
:100970001EEC9AF07E0E01017C6FF60E7D6F52EC3C
:1009800086F0000E0101AA6F000EAB6F030E1EEC85
:100990009AF0180E01017C6FF60E7D6F52EC86F016
:1009A000120E01017C6FFA0E7D6F52EC86F043EC63
:1009B000C0F01200000E0101416F000E426FC80E20
:1009C000436F420E446F000E2D6F000E2E6FC80E47
:1009D0002F6F420E306F9FC317F1A0C318F1000EA6
:1009E00018BFFF0E196F1A6F010E73ECAEF017C12E
:1009F00025F118C126F119C127F11AC128F1FBEC24
:100A0000BEF025C129F126C12AF127C12BF128C149
:100A10002CF123EC9FF029C13DF12AC13EF12BC1FD
:100A20003FF12CC140F127ECA8F03DC156F13EC189
:100A300057F13FC158F140C159F1DB0E01015A6F26
:100A40000F0E5B6F490E5C6F400E5D6FD2EC9BF03A
:100A500056C1FBF057C1FCF058C1FDF059C1FEF082
:100A6000FBC056F1FCC057F1FDC058F1FEC059F172
:100A7000E10E01015A6F2E0E5B6F650E5C6F420E28
:100A80005D6FD2EC9BF056C196F357C197F358C1F6
:100A900098F359C199F39FC3BEF1A0C3BFF10101FF
:100AA000BE1FBF1FBE4BBF2B640EBE25176F000EAF
:100AB000BF21186F020E1A6F8F0E196F41ECBFF035
:100AC00017C1F9F018C1FAF0000E0101AA6F000E6B
:100AD000AB6F020E1EEC9AF05D0E01017C6FFB0EF7
:100AE0007D6F9FC37EF1A0C37FF152EC86F0F20EC2
:100AF00001017C6FF70E7D6FFBC07EF1FCC07FF1C2
:100B0000FDC080F1FEC081F196C382F197C383F1ED
:100B100098C384F199C385F152EC86F0290E010146
:100B20007C6FF70E7D6FF9C07EF1FAC07FF1F9C0DE
:100B300080F1FAC081F152EC86F043ECC0F0120073
:100B4000BCC117F1BDC118F14E0E0101196FFE0EA7
:100B50001A6F51ECBCF0010117511811D8A419D02B
:100B6000000EAA6F000EAB6F020E1EEC9AF0310E53
:100B700001017C6FF80E7D6F44C27EF145C27FF1AA
:100B800046C280F147C281F152EC86F043ECC0F0DE
:100B90001200BCC117F1BDC118F1E60E0101196FB9
:100BA000FE0E1A6F51ECBCF0010117511811D8A4B8
:100BB00019D0000EAA6F000EAB6F060E1EEC9AF055
:100BC0004A0E01017C6FF90E7D6F40C27EF141C279
:100BD0007FF142C280F143C281F152EC86F043ECD6
:100BE000C0F01200BCC117F1BDC118F1AB0E01017C
:100BF000196FFF0E1A6F51ECBCF00101175118115B
:100C0000D8A41200000EAA6F000EAB6F030E1EECEC
:100C10009AF0BD0E01017C6FEC0E7D6F52EC86F0F8
:100C200054ECC0F0510E01017C6FFC0E7D6F52EC54
:100C300086F0000E0101AA6F000EAB6F020E1EECD3
:100C40009AF0820E01017C6FFB0E7D6F52EC86F0F4
:100C5000000E0101AA6F000EAB6F060E1EEC9AF09B
:100C6000110E01017C6FFB0E7D6F52EC86F0000EC1
:100C70000101AA6F000EAB6F010E1EEC9AF02F0E51
:100C800001017C6FFD0E7D6F52EC86F043ECC0F0ED
:100C9000920E01017C6FFC0E7D6F52EC86F054ECDD
:100CA000C0F012007E0E0101956F010E966FC6EF27
:100CB0008BF0250EA919D8B405D0A9516CECC0F061
:100CC000C6EF8BF0000E0101986F000E976F7CC18C
:100CD000F6FF7DC1F7FF000EF86E0D0EF76403D02E
:100CE0000800F55005D0F6CFE9FFF7CFEAFFEF5047
:100CF0002E0AD8A449D00101988D7C4B7D2B000E83
:100D0000A86F000EA76F2AD0A7C117F1A8C118F1CC
:100D1000000E01011A6F0A0E196F41ECBFF07CC181
:100D2000F6FF7DC1F7FF000EF86E0D0EF76403D0DD
:100D30000800F55005D0F6CFE9FFF7CFEAFFEF50F6
:100D40000101866F86511727000E1823D00E172534
:100D5000A76FFF0E1821A86F7C4B7D2B7CC1F6FF7F
:100D60007DC1F7FF000EF86E0D0EF76403D008008A
:100D7000F55005D0F6CFE9FFF7CFEAFFEF50C8EC0A
:100D8000BFF0D8A088D0C0D7000E0101A86F000E18
:100D9000A76F988980D09885B5D0978FB3D095C12B
:100DA000D9FF96C1DAFFDECF93F1DDCF94F1020EC9
:100DB0009527000E962393519411D8A404D0860E43
:100DC000936FFF0E946F000E926F000E916F03D021
:100DD0000101914B922B91519325866F9251942151
:100DE000876F86C1F6FF87C1F7FF000EF86E0D0E04
:100DF000F76403D00800F55005D0F6CFE9FFF7CF30
:100E0000EAFFEF500009D8A4E3D70101A751A811C8
:100E1000D8B421D09151A75D9251A859D8B01BD018
:100E2000A7C191F1A8C192F116D093C1F6FF94C168
:100E3000F7FF000EF86E0D0EF76403D00800F550B2
:100E400005D0F6CFE9FFF7CFEAFFEF506CECC0F02A
:100E50000101934B942B9107D8A092079129E5E1CA
:100E60009229D8B4C6EF8BF0E0D795C1D9FF96C1CF
:100E7000DAFFDF50A96F020E9527000E9623A90E08
:100E8000936F010E946F000E926F010E916FBDD79C
:100E9000C00E971337D001017C51866F7D51876F4B
:100EA0007C4B7D2B86C1F6FF87C1F7FF000EF86EE5
:100EB0000D0EF76403D00800F55005D0F6CFE9FF1A
:100EC000F7CFEAFFEF500101A96FA951000AD8B48A
:100ED0001200580AD8B461D73B0AD8B4C6D7070A5B
:100EE000D8B410D0020AD8B456D70F0AD8B40AD052
:100EF0001A0AD8B454D7060AD8B4CAD70D0AD8B437
:100F00004CD7BDD7070E9815D8B4EAD298A904D00B
:100F1000000EA86F060EA76F95C1D9FF96C1DAFF24
:100F2000DECFA3F1DECFA4F1DECFA5F1DECFA6F1B7
:100F3000040E9527000E9623A6AF15D0A3C125F168
:100F4000A4C126F1A5C127F1A6C128F1FBECBEF092
:100F500025C1A3F126C1A4F127C1A5F128C1A6F19D
:100F6000030E01019713000E9A6F000E996FA351A3
:100F7000A411A511A611D8B484D0A535A635820F29
:100F8000996F9A6BFF0E9A239907D8A09A0799C177
:100F900017F19AC118F1000E1A6F030E196F41EC88
:100FA000BFF017C199F118C19AF199C11DF19AC109
:100FB0001EF1000E0101206F0A0E1F6F1FECB8F02A
:100FC0001DC199F11EC19AF101019AAF03D0990791
:100FD000D8A09A07995100088CEC95F06FC19BF14D
:100FE00070C19CF171C19DF172C19EF19BC156F11E
:100FF0009CC157F19DC158F19EC159F1A3C15AF14D
:10100000A4C15BF1A5C15CF1A6C15DF1D2EC9BF07E
:1010100056C19BF157C19CF158C19DF159C19EF138
:101020009BC117F19CC118F19DC119F19EC11AF124
:10103000000E01011B6F000E1C6F800E1D6F3F0E16
:101040001E6F21ECB2F00101D8B004D09907D8A0EE
:101050009A0717D09BC117F19CC118F19DC119F1D6
:101060009EC11AF1000E1B6F000E1C6F200E1D6F2B
:10107000410E1E6F21ECB2F00101D8A002D0994BB5
:101080009A2BA8BF06D0A85121E10D0EA75DD8B0BC
:101090001DD0A3C129F1A4C12AF1A5C12BF1A6C17C
:1010A0002CF1A751C4ECA6F06FC12DF170C12EF147
:1010B00071C12FF172C130F123EC9FF029C1A3F16E
:1010C0002AC1A4F12BC1A5F12CC1A6F101019ABF3F
:1010D00006D09A5122E10A0E995DD8B01ED0A351D4
:1010E000A411A511A611D8B462D0A3C16FF1A4C1F7
:1010F00070F1A5C171F1A6C172F1D9ECB4F0010192
:101100006F51701171117211D8B49ABF50D09A51A9
:1011100004E1020E995DD8A04AD09BC117F19CC191
:1011200018F19DC119F19EC11AF15F0E1B6F700E6F
:101130001C6F890E1D6F400E1E6F21ECB2F0010175
:10114000D8B002D0F70E01D0F80E9927FF0E9A23DF
:1011500099518CEC95F06FC19BF170C19CF171C1FC
:101160009DF172C19EF1A3C117F1A4C118F1A5C1EF
:1011700019F1A6C11AF19BC11BF19CC11CF19DC1C3
:101180001DF19EC11EF1F8ECB0F017C19FF118C11E
:10119000A0F119C1A1F11AC1A2F1000E0101A36FC2
:1011A000000EA46F000EA56F000EA66F3CD0A3C169
:1011B0006FF1A4C170F1A5C171F1A6C172F1D9ECB2
:1011C000B4F06FC19FF170C1A0F171C1A1F172C102
:1011D000A2F1A3C13DF1A4C13EF1A5C13FF1A6C159
:1011E00040F19FC117F1A0C118F1A1C119F1A2C12D
:1011F0001AF1000E73ECAEF017C141F118C142F1C3
:1012000019C143F11AC144F15DECBDF03DC1A3F138
:101210003EC1A4F13FC1A5F140C1A6F1000E0101FC
:101220009A6F000E996F010EA96F0A0EA919D8B412
:101230001BD0A951040D250EF324F66EEC0EF420FC
:10124000F76EF86A000EF8220900F5509F5D09005C
:10125000F550A0590900F550A1590900F550A259BF
:10126000D8A002D0A92BE1D7030E9715866F000EE8
:101270009815876F86518711D8B44ED02D0E6CEC1F
:10128000C0F04AD09FC117F1A0C118F1A1C119F156
:10129000A2C11AF10101A951040D250EF324F66E25
:1012A000EC0EF420F76EF86A000EF8220900F5CF74
:1012B0001BF10900F5CF1CF10900F5CF1DF10A0063
:1012C000F5CF1EF162ECB8F017C19BF118C19CF18B
:1012D00019C19DF11AC19EF19BC124F19CC125F158
:1012E0009DC126F19EC127F10A0E0101286F000E53
:1012F000296F000E2A6F000E2B6F33ECBBF024C158
:101300009BF125C19CF126C19DF127C19EF10101F0
:101310009B51300F6CECC0F00101A907A929D8B48A
:1013200008D0B0D7300E6CECC0F001019907D8A0FE
:101330009A079ABF05D09A51F5E19905D8B0F2D72E
:10134000A8BF09D0A85104E1090EA75DD8A003D019
:10135000080EA96F02D0A7C1A9F1A951A75F000E7D
:10136000A9BFFF0EA85BA951D8B403D02E0E6CEC18
:10137000C0F00101A9518CEC95F06FC18CF170C1E6
:101380008DF171C18EF172C18FF1A3C15AF1A4C167
:101390005BF1A5C15CF1A6C15DF18CC156F18DC1B7
:1013A00057F18EC158F18FC159F1D2EC9BF056C163
:1013B0006FF157C170F158C171F159C172F1D9EC97
:1013C000B4F06FC19FF170C1A0F171C1A1F172C100
:1013D000A2F174D09FC117F1A0C118F1A1C119F1F8
:1013E000A2C11AF10101A951040D250EF324F66ED4
:1013F000EC0EF420F76EF86A000EF8220900F5CF23
:101400001BF10900F5CF1CF10900F5CF1DF10A0011
:10141000F5CF1EF162ECB8F017C19BF118C19CF139
:1014200019C19DF11AC19EF19BC124F19CC125F106
:101430009DC126F19EC127F10A0E0101286F000E01
:10144000296F000E2A6F000E2B6F33ECBBF024C106
:101450009BF125C19CF126C19DF127C19EF101019F
:101460009B51300F6CECC0F09FC124F1A0C125F15D
:10147000A1C126F1A2C127F10101A951040D250E38
:10148000F324F66EEC0EF420F76EF86A000EF822E4
:101490000900F5CF28F10900F5CF29F10900F5CFB2
:1014A0002AF10A00F5CF2BF133ECBBF024C19FF1F8
:1014B00025C1A0F126C1A1F127C1A2F10101A9070F
:1014C000A929D8B408D086D7300E6CECC0F0010141
:1014D000A707D8A0A807A751A811D8B457D1F4D707
:1014E000C00E9715866F000E9815876F865187116D
:1014F000D8A41ED095C1D9FF96C1DAFFDECF9FF1E7
:10150000DDCFA0F1000EA0BFFF0EA16FA26F020EF3
:101510009527000E9623A2AF1DD0030E9713A21F8E
:10152000A11FA01F9F6D000EA023A123A22312D0F4
:1015300095C1D9FF96C1DAFFDECF86F1DDCF87F105
:1015400086C19FF187C1A0F1A16BA26B020E952706
:10155000000E9623A751A811D8A44BD09F51A011DB
:10156000A111A211D8A445D0A74BA82B42D0010E9F
:10157000A96F0A0EA919D8B447D0A951040D250E98
:10158000F324F66EEC0EF420F76EF86A000EF822E3
:101590000900F5509F5D0900F550A0590900F5506C
:1015A000A1590900F550A259D8A02ED0A92BE1D7F6
:1015B000010EA96F080EA919D8B426D0A951040D9F
:1015C0004D0EF324F66EEC0EF420F76EF86A000E62
:1015D000F8220900F5509F5D0900F550A059090057
:1015E000F550A1590900F550A259D8A00DD0A92B4A
:1015F000E1D79751C00B000AD8B4B9D7800AD8B444
:10160000D7D7400AD8B4B3D7800EA9BF7F0E866F54
:10161000A751A95DA851800A8659D8B003D0A7C1A7
:10162000A9F110D0A851800A866FA951A75D800E3C
:10163000A9BF7F0E8659D8B005D0A951A76FA86B56
:10164000A7BFA807030E9715866F000E9815876F22
:1016500086518711D8B491D02D0E6CECC0F08DD08E
:10166000A7C186F1A8C187F10101D89086378737D5
:10167000D89086378737250E8625F66EEC0E8721A3
:10168000F76EF86A000EF8220900F5CF1BF1090089
:10169000F5CF1CF10900F5CF1DF10A00F5CF1EF1C1
:1016A0009FC117F1A0C118F1A1C119F1A2C11AF18E
:1016B00062ECB8F017C124F118C125F119C126F167
:1016C0001AC127F10A0E0101286F000E296F000EC2
:1016D0002A6F000E2B6F33ECBBF001012451300F49
:1016E000A96F48D09FC117F1A0C118F1A1C119F18C
:1016F000A2C11AF1A7C186F1A8C187F1D890863797
:101700008737D890863787374D0E8625F66EEC0ED4
:101710008721F76EF86A000EF8220900F5CF1BF159
:101720000900F5CF1CF10900F5CF1DF10A00F5CF36
:101730001EF162ECB8F0010117510F0B906F905140
:10174000010DEB0EF324F66EFD0EF420F76EF86A31
:10175000000EF8220800F5CFA9F10CD00101975135
:10176000C00B000AD8B47CD7800AD8B4BBD7400AD3
:10177000D8B476D7A9516CECC0F00101A707D8A066
:10178000A807A729EBE1A829D8A4E8D701017C5133
:10179000866F7D51876F7C4B7D2B86C1F6FF87C19D
:1017A000F7FF000EF86E0D0EF76403D00800F55039
:1017B00005D0F6CFE9FFF7CFEAFFEF500101A96F9F
:1017C000A951D8B4120059EF86F0800E00018F6F36
:1017D000000E906F56EF91F0250EA319D8B405D0E6
:1017E000A351AAECC0F056EF91F0000E0001926FE9
:1017F000000E916F7EC0F6FF7FC0F7FF000EF86EFF
:101800000D0EF76403D00800F55005D0F6CFE9FFC0
:10181000F7CFEAFFEF502E0AD8A448D00001928DEE
:101820007E4B7F2B000EA26F000EA16F29D0A1C0AE
:1018300001F0A2C002F0000E046E0A0E036EA3ECCB
:10184000BFF07EC0F6FF7FC0F7FF000EF86E0D0EF2
:10185000F76403D00800F55005D0F6CFE9FFF7CFC5
:10186000EAFFEF500001806F80510126000E022236
:10187000D00E0124A16FFF0E0220A26F7E4B7F2BA2
:101880007EC0F6FF7FC0F7FF000EF86E0D0EF76406
:1018900003D00800F55005D0F6CFE9FFF7CFEAFFF7
:1018A000EF50E9ECBFF0D8A088D0C1D7000E0001FE
:1018B000A26F000EA16F928980D09285B5D0918FD2
:1018C000B3D08FC0D9FF90C0DAFFDECF8DF0DDCF6F
:1018D0008EF0020E8F27000E90238D518E11D8A40A
:1018E00004D0860E8D6FFF0E8E6F000E8C6F000E73
:1018F0008B6F03D000018B4B8C2B8B518D25806F10
:101900008C518E21816F80C0F6FF81C0F7FF000EE1
:10191000F86E0D0EF76403D00800F55005D0F6CF31
:10192000E9FFF7CFEAFFEF500009D8A4E3D70001A1
:10193000A151A211D8B421D08B51A15D8C51A259D3
:10194000D8B01BD0A1C08BF0A2C08CF016D08DC037
:10195000F6FF8EC0F7FF000EF86E0D0EF76403D091
:101960000800F55005D0F6CFE9FFF7CFEAFFEF50BA
:10197000AAECC0F000018D4B8E2B8B07D8A08C07F2
:101980008B29E5E18C29D8B456EF91F0E0D78FC0D0
:10199000D9FF90C0DAFFDF50A36F020E8F27000E31
:1019A0009023A30E8D6F000E8E6F000E8C6F010EB4
:1019B0008B6FBDD7C00E911337D000017E51806F61
:1019C0007F51816F7E4B7F2B80C0F6FF81C0F7FF78
:1019D000000EF86E0D0EF76403D00800F55005D028
:1019E000F6CFE9FFF7CFEAFFEF500001A36FA35155
:1019F000000AD8B41200580AD8B461D73B0AD8B448
:101A0000C6D7070AD8B410D0020AD8B456D70F0ADE
:101A1000D8B40AD01A0AD8B454D7060AD8B4CAD748
:101A20000D0AD8B44CD7BDD7070E9215D8B4E9D259
:101A300092A904D0000EA26F060EA16F8FC0D9FF2D
:101A400090C0DAFFDECF9DF0DECF9EF0DECF9FF0BC
:101A5000DECFA0F0040E8F27000E9023A0AF15D08C
:101A60009DC02CF09EC02DF09FC02EF0A0C02FF086
:101A70002AECBFF02CC09DF02DC09EF02EC09FF030
:101A80002FC0A0F0030E00019113000E946F000E02
:101A9000936F9D519E119F11A011D8B482D09F3594
:101AA000A035820F936F946BFF0E94239307D8A0F9
:101AB000940793C001F094C002F0000E046E030E70
:101AC000036EA3ECBFF001C093F002C094F093C08A
:101AD00007F094C008F0000E0A6E0A0E096EA4EC1E
:101AE000B8F007C093F008C094F0000194AF03D0A1
:101AF0009307D8A0940793510008DEEC97F049C0F3
:101B000095F04AC096F04BC097F04CC098F095C045
:101B100030F096C031F097C032F098C033F09DC0DD
:101B200034F09EC035F09FC036F0A0C037F07BEC9B
:101B30009DF030C095F031C096F032C097F033C0C0
:101B400098F095C034F096C035F097C036F098C044
:101B500037F0000E386E000E396E800E3A6E3F0E72
:101B60003B6EB2ECB2F0D8B005D000019307D8A01C
:101B7000940717D095C034F096C035F097C036F072
:101B800098C037F0000E386E000E396E200E3A6E97
:101B9000410E3B6EB2ECB2F0D8A003D00001934BE3
:101BA000942B0001A2BF06D0A25121E10D0EA15D30
:101BB000D8B01DD09DC056F09EC057F09FC058F0C1
:101BC000A0C059F0A151DCECAAF049C05AF04AC0BB
:101BD0005BF04BC05CF04CC05DF0C2ECA0F056C0B6
:101BE0009DF057C09EF058C09FF059C0A0F0000172
:101BF00094BF06D0945123E10A0E935DD8B01FD054
:101C00009D519E119F11A011D8B464D09DC049F080
:101C10009EC04AF09FC04BF0A0C04CF048ECB5F01D
:101C200049504A104B104C10D8A454D0000194BF16
:101C300051D0945104E1020E935DD8A04BD095C0D1
:101C400034F096C035F097C036F098C037F05F0E8C
:101C5000386E700E396E890E3A6E400E3B6EB2ECE5
:101C6000B2F0D8B003D00001F70E02D00001F80E98
:101C70009327FF0E94239351DEEC97F049C095F023
:101C80004AC096F04BC097F04CC098F09DC001F050
:101C90009EC002F09FC003F0A0C004F095C005F004
:101CA00096C006F097C007F098C008F08DECB1F030
:101CB00001C099F002C09AF003C09BF004C09CF0F0
:101CC000000E00019D6F000E9E6F000E9F6F000EB4
:101CD000A06F3CD09DC049F09EC04AF09FC04BF021
:101CE000A0C04CF048ECB5F049C099F04AC09AF059
:101CF0004BC09BF04CC09CF09DC076F09EC077F02E
:101D00009FC078F0A0C079F099C005F09AC006F0A5
:101D10009BC007F09CC008F0000E1DECAFF005C0A2
:101D20007AF006C07BF007C07CF008C07DF081EC43
:101D3000BDF076C09DF077C09EF078C09FF079C06E
:101D4000A0F0000E0001946F000E936F010EA36FC0
:101D50000A0EA319D8B41BD0A351040D250EF324E9
:101D6000F66EEC0EF420F76EF86A000EF822090009
:101D7000F550995D0900F5509A590900F5509B59A5
:101D80000900F5509C59D8A002D0A32BE1D7030E2F
:101D90009115806F000E9215816F80518111D8B41A
:101DA0004DD02D0EAAECC0F049D099C001F09AC0D8
:101DB00002F09BC003F09CC004F00001A351040D8D
:101DC000250EF324F66EEC0EF420F76EF86A000E82
:101DD000F8220900F5CF05F00900F5CF06F009005B
:101DE000F5CF07F00A00F5CF08F0E6ECB8F001C037
:101DF00095F002C096F003C097F004C098F095C02B
:101E00000EF096C00FF097C010F098C011F00A0EB7
:101E1000126E000E136E000E146E000E156E67EC3F
:101E2000BBF00EC095F00FC096F010C097F011C037
:101E300098F000019551300FAAECC0F00001A30703
:101E4000A329D8B408D0B1D7300EAAECC0F0000155
:101E50009307D8A0940794BF05D09451F5E193055A
:101E6000D8B0F2D7A2BF09D0A25104E1090EA15DFA
:101E7000D8A003D0080EA36F02D0A1C0A3F0A35135
:101E8000A15F000EA3BFFF0EA25BA351D8B403D085
:101E90002E0EAAECC0F00001A351DEEC97F049C071
:101EA00086F04AC087F04BC088F04CC089F09DC0D6
:101EB00034F09EC035F09FC036F0A0C037F086C029
:101EC00030F087C031F088C032F089C033F07BEC4D
:101ED0009DF030C049F031C04AF032C04BF033C001
:101EE0004CF048ECB5F049C099F04AC09AF04BC0AC
:101EF0009BF04CC09CF073D099C001F09AC002F0E6
:101F00009BC003F09CC004F00001A351040D250EFA
:101F1000F324F66EEC0EF420F76EF86A000EF82249
:101F20000900F5CF05F00900F5CF06F00900F5CF5F
:101F300007F00A00F5CF08F0E6ECB8F001C095F024
:101F400002C096F003C097F004C098F095C00EF060
:101F500096C00FF097C010F098C011F00A0E126EE4
:101F6000000E136E000E146E000E156E67ECBBF0C3
:101F70000EC095F00FC096F010C097F011C098F009
:101F800000019551300FAAECC0F099C00EF09AC034
:101F90000FF09BC010F09CC011F00001A351040D84
:101FA000250EF324F66EEC0EF420F76EF86A000EA0
:101FB000F8220900F5CF12F00900F5CF13F009005F
:101FC000F5CF14F00A00F5CF15F067ECBBF00EC0AA
:101FD00099F00FC09AF010C09BF011C09CF0000166
:101FE000A307A329D8B408D087D7300EAAECC0F035
:101FF0000001A107D8A0A207A151A211D8B456D1BF
:10200000F4D7C00E9115806F000E9215816F80512C
:102010008111D8A41ED08FC0D9FF90C0DAFFDECFC7
:1020200099F0DDCF9AF0000E9ABFFF0E9B6F9C6F68
:10203000020E8F27000E90239CAF1DD0030E91132C
:102040009C1F9B1F9A1F996D000E9A239B239C2314
:1020500012D08FC0D9FF90C0DAFFDECF80F0DDCF85
:1020600081F080C099F081C09AF09B6B9C6B020E4E
:102070008F27000E9023A151A211D8A44BD09951C3
:102080009A119B119C11D8A445D0A14BA22B42D0F0
:10209000010EA36F0A0EA319D8B447D0A351040DA3
:1020A000250EF324F66EEC0EF420F76EF86A000E9F
:1020B000F8220900F550995D0900F5509A59090078
:1020C000F5509B590900F5509C59D8A02ED0A32B50
:1020D000E1D7010EA36F080EA319D8B426D0A351DF
:1020E000040D4D0EF324F66EEC0EF420F76EF86A34
:1020F000000EF8220900F550995D0900F5509A5933
:102100000900F5509B590900F5509C59D8A00DD0F5
:10211000A32BE1D79151C00B000AD8B4B9D7800ADC
:10212000D8B4D7D7400AD8B4B3D7800EA3BF7F0E98
:10213000806FA151A35DA251800A8059D8B003D00D
:10214000A1C0A3F010D0A251800A806FA351A15D5D
:10215000800EA3BF7F0E8059D8B005D0A351A16FC8
:10216000A26BA1BFA207030E9115806F000E9215FE
:10217000816F80518111D8B490D02D0EAAECC0F09F
:102180008CD0A1C080F0A2C081F00001D89080372F
:102190008137D89080378137250E8025F66EEC0E7A
:1021A0008121F76EF86A000EF8220900F5CF05F0DC
:1021B0000900F5CF06F00900F5CF07F00A00F5CFCA
:1021C00008F099C001F09AC002F09BC003F09CC0D7
:1021D00004F0E6ECB8F001C00EF002C00FF003C04E
:1021E00010F004C011F00A0E126E000E136E000EF5
:1021F000146E000E156E67ECBBF00E50300F000130
:10220000A36F48D099C001F09AC002F09BC003F0C0
:102210009CC004F0A1C080F0A2C081F0D8908037AB
:102220008137D890803781374D0E8025F66EEC0EC1
:102230008121F76EF86A000EF8220900F5CF05F04B
:102240000900F5CF06F00900F5CF07F00A00F5CF39
:1022500008F0E6ECB8F001500F0B00018A6F8A51CC
:10226000010DEB0EF324F66EFD0EF420F76EF86A06
:10227000000EF8220800F5CFA3F00CD00001915118
:10228000C00B000AD8B47DD7800AD8B4BBD7400AA7
:10229000D8B477D7A351AAECC0F00001A107D8A009
:1022A000A207A129EBE1A229D8A4E8D700017E5119
:1022B000806F7F51816F7E4B7F2B80C0F6FF81C086
:1022C000F7FF000EF86E0D0EF76403D00800F5500E
:1022D00005D0F6CFE9FFF7CFEAFFEF500001A36F7B
:1022E000A351D8B41200ECEF8BF05FCFD5F0FED342
:1022F00039ECC0F001C005F002C006F0076A086AB8
:10230000000E1DECAFF005C030F006C031F007C084
:1023100032F008C033F00D0E346E680E356E530E79
:10232000366E3B0E376E7BEC9DF030C0D7F131C07E
:10233000D8F132C0D9F133C0DAF10A0E346ED70EBB
:10234000356E230E366E3C0E376ED7C138F0D8C1CD
:1023500039F0D9C13AF0DAC13BF0B2ECB2F0D8B002
:1023600012007E865E800E012E51C0ECC0F012007D
:102370000D0E346E680E356E530E366E3B0E376E94
:1023800039ECC0F001C005F002C006F0076A086A27
:10239000000E1DECAFF005C030F006C031F007C0F4
:1023A00032F008C033F07BEC9DF030C056F031C005
:1023B00057F032C058F033C059F0D7C15AF0D8C1E5
:1023C0005BF0D9C15CF0DAC15DF0C2ECA0F056C0A0
:1023D000F5F057C0F6F058C0F7F059C0F8F06F0E9E
:1023E000136E120E146E030E156E400E166EF5C0AF
:1023F00017F0F6C018F0F7C019F0F8C01AF082EC28
:10240000A9F013C05CF214C05DF215C05EF216C0F4
:102410005FF2000E346E000E356E200E366E400EEA
:10242000376EF5C038F0F6C039F0F7C03AF0F8C0B2
:102430003BF0B2ECB2F0D8A014D0F5C034F0F6C046
:1024400035F0F7C036F0F8C037F0000E386E000EE9
:10245000396E000E3A6E400E3B6EB2ECB2F0D8B060
:1024600012007E865E800E012E51C0ECC0F012007C
:102470005CC234F05DC235F05EC236F05FC237F048
:1024800039ECC0F001C005F002C006F0076A086A26
:10249000000E1DECAFF005C030F006C031F007C0F3
:1024A00032F008C033F07BEC9DF030C0DAF031C080
:1024B000DBF032C0DCF033C0DDF0DAC030F0DBC07E
:1024C00031F0DCC032F0DDC033F00D0E346E680E3A
:1024D000356ED30E366E3B0E376E7BEC9DF030C002
:1024E000F0F031C0F1F032C0F2F033C0F3F0000E82
:1024F000346E000E356E600E366E400E376EF0C0D4
:1025000038F0F1C039F0F2C03AF0F3C03BF0B2EC71
:10251000B2F0D8B012007E865E800E012E51C0EC63
:10252000C0F01200000E176EC00E186E7F0E196EEE
:10253000440E1A6EF0C013F0F1C014F0F2C015F0A2
:10254000F3C016F082ECA9F013C034F014C035F0DB
:1025500015C036F016C037F039ECC0F001C005F0F8
:1025600002C006F0076A086A000E1DECAFF005C055
:1025700030F006C031F007C032F008C033F07BEC19
:102580009DF030C0DAF031C0DBF032C0DCF033C097
:10259000DDF0DAC030F0DBC031F0DCC032F0DDC09D
:1025A00033F0350E346E5E0E356EF20E366E3F0E23
:1025B000376E7BEC9DF030C0D3F131C0D4F132C026
:1025C000D5F133C0D6F17FB0A7D05EA233D0EE0EE6
:1025D0000001F95D7F0EFA59D8B009D0D3C14CF291
:1025E000D4C14DF2D5C14EF2D6C14FF21AD0D3C1EB
:1025F0008FF0D4C190F0D5C191F0D6C192F0FBC05C
:1026000093F0FCC094F0FDC095F0FEC096F0A7ECEE
:10261000B9F08FC04CF290C04DF291C04EF292C012
:102620004FF2D5C250F2D6C251F2D7C252F2D8C23E
:1026300053F211D0000E02014C6F000E4D6F000ED0
:102640004E6F000E4F6F000E506F000E516F000E58
:10265000526F000E536FFBC0B5F0FCC0B6F0FDC06A
:10266000B7F0FEC0B8F04CC2B1F04DC2B2F04EC2ED
:10267000B3F04FC2B4F033ECACF0B1C0D6F0B2C09E
:10268000D7F0B3C0D8F0B4C0D9F0D6C056F0D7C098
:1026900057F0D8C058F0D9C059F0D1C25AF0D2C2C0
:1026A0005BF0D3C25CF0D4C25DF0C2ECA0F056C0C7
:1026B000CFF157C0D0F158C0D1F159C0D2F150C2BA
:1026C000B1F051C2B2F052C2B3F053C2B4F0FBC089
:1026D000B5F0FCC0B6F0FDC0B7F0FEC0B8F033EC0A
:1026E000ACF0B1C0CBF1B2C0CCF1B3C0CDF1B4C04D
:1026F000CEF1CBC130F0CCC131F0CDC132F0CEC182
:1027000033F0CFC134F0D0C135F0D1C136F0D2C1F1
:1027100037F07BEC9DF06AD0D3C14CF2D4C14DF2BE
:10272000D5C14EF2D6C14FF2000E0001B56F000EBA
:10273000B66F000EB76F000EB86F4CC2B1F04DC24D
:10274000B2F04EC2B3F04FC2B4F033ECACF0B1C053
:10275000D6F0B2C0D7F0B3C0D8F0B4C0D9F0D6C06C
:1027600056F0D7C057F0D8C058F0D9C059F0D1C2F0
:102770005AF0D2C25BF0D3C25CF0D4C25DF0C2ECBE
:10278000A0F056C0CFF157C0D0F158C0D1F159C018
:10279000D2F1D5C2B1F0D6C2B2F0D7C2B3F0D8C22E
:1027A000B4F0000E0001B56F000EB66F000EB76FEB
:1027B000000EB86F33ECACF0B1C0CBF1B2C0CCF1CD
:1027C000B3C0CDF1B4C0CEF1CBC130F0CCC131F04B
:1027D000CDC132F0CEC133F0CFC134F0D0C135F02D
:1027E000D1C136F0D2C137F07BEC9DF030C048F259
:1027F00031C049F232C04AF233C04BF2000E346E9F
:10280000000E356EA00E366E400E376ECFC138F01A
:10281000D0C139F0D1C13AF0D2C13BF0B2ECB2F044
:10282000D8B012007E865E800E012E51C0ECC0F042
:102830001200000E176EC00E186E7F0E196E440E39
:102840001A6EF0C013F0F1C014F0F2C015F0F3C02E
:1028500016F082ECA9F013C034F014C035F015C0A6
:1028600036F016C037F039ECC0F001C005F002C0F8
:1028700006F0076A086A000E1DECAFF005C030F0E4
:1028800006C031F007C032F008C033F07BEC9DF099
:1028900030C0DAF031C0DBF032C0DCF033C0DDF044
:1028A000DAC030F0DBC031F0DCC032F0DDC033F034
:1028B0003E0E346EF80E356E800E366E400E376E5C
:1028C0007BEC9DF030C058F231C059F232C05AF260
:1028D00033C05BF29A0E346E990E356E590E366E19
:1028E000410E376E58C238F059C239F05AC23AF028
:1028F0005BC23BF0B2ECB2F0D8B012007E865E80D4
:102900000E012E51C0ECC0F01200000E176E000E2A
:10291000186E000E196E400E1A6EF0C013F0F1C062
:1029200014F0F2C015F0F3C016F082ECA9F013C059
:1029300034F014C035F015C036F016C037F0000E74
:102940005A6E000E5B6E800E5C6E3F0E5D6E000E6A
:10295000176EC00E186E7F0E196E440E1A6E39EC8B
:10296000C0F001C005F002C006F0076A086A000E58
:102970001DECAFF005C013F006C014F007C015F051
:1029800008C016F082ECA9F013C02CF014C02DF092
:1029900015C02EF016C02FF02AECBFF02CC056F058
:1029A0002DC057F02EC058F02FC059F0C2ECA0F047
:1029B00056C030F057C031F058C032F059C033F033
:1029C0007BEC9DF030C0C9F031C0CAF032C0CBF012
:1029D00033C0CCF0DA0E176E030E186EAD0E196E02
:1029E0003A0E1A6E390E5A6EB40E5B6E280E5C6E7D
:1029F0003F0E5D6EC9C02CF0CAC02DF0CBC02EF0CA
:102A0000CCC02FF02AECBFF02CC056F02DC057F0F0
:102A10002EC058F02FC059F0C2ECA0F056C013F0F1
:102A200057C014F058C015F059C016F082ECA9F048
:102A300013C0CDF014C0CEF015C0CFF016C0D0F04A
:102A4000D9C25AF0DAC25BF0DBC25CF0DCC25DF0E6
:102A5000CDC056F0CEC057F0CFC058F0D0C059F01E
:102A6000C2ECA0F056C0D1F057C0D2F058C0D3F09D
:102A700059C0D4F0D1C056F0D2C057F0D3C058F0EE
:102A8000D4C059F0000E5A6E000E5B6E200E5C6EC4
:102A9000C20E5D6EC2ECA0F056C054F257C055F2A3
:102AA00058C056F259C057F2000E346E000E356E03
:102AB000200E366E420E376E54C238F055C239F0D1
:102AC00056C23AF057C23BF0B2ECB2F0D8B01200A6
:102AD0007E865E800E012E51C0ECC0F012007E8614
:102AE0005E800E012E51C0ECC0F012000001D551E5
:102AF000000AD8B417D5040AD8B49BD6260AD8B48D
:102B0000B7D41E0AD8B478EF91F0010AD8B4FDD634
:102B1000020AD8B42DD4E3D70101776F010177AF52
:102B200027D1776D7751800A120FD8A0A5D0000E5B
:102B3000206F0A0E1F6F000E1A6F640E196F775107
:102B4000176F186B17BF180722ECBAF017C11DF1E9
:102B500018C11EF11FECB8F00101D8901D371E37C7
:102B6000D8901D371E37240E1D27000E1E23F10E90
:102B70001D25F66EEB0E1E21F76EF86A000EF82288
:102B80000900F5CF5AF10900F5CF5BF10900F5CF47
:102B90005CF10A00F5CF5DF1000E206F640E1F6F2F
:102BA00077511D6F1E6B1DBF1E071FECB8F0010192
:102BB000D8901D371E37D8901D371E37480E1D2759
:102BC000000E1E23F10E1D25F66EEB0E1E21F76E74
:102BD000F86A000EF8220900F5CF56F10900F5CF8A
:102BE00057F10900F5CF58F10A00F5CF59F1D2ECB1
:102BF0009BF056C173F157C174F158C175F159C1B9
:102C000076F173C156F174C157F175C158F176C1AF
:102C100059F1000E01011A6F0A0E196F7751176FE3
:102C2000186B17BF180722ECBAF00101D8901737BC
:102C30001837D89017371837F10E1725F66EEB0EA8
:102C40001821F76EF86A000EF8220900F5CF5AF144
:102C50000900F5CF5BF10900F5CF5CF10A00F5CF73
:102C60005DF1D2EC9BF056C16FF157C170F158C1C4
:102C700071F159C172F1120001017751800A750F8B
:102C8000D8A05DD0000E206F0A0E1F6F77511D6F08
:102C90001E6B1DBF1E071FECB8F00101D8901D3739
:102CA0001E37D8901D371E37240E1D27000E1E23F9
:102CB000F10E1D25F66EEB0E1E21F76EF86A000E62
:102CC000F8220900F5CF56F10900F5CF57F10900B8
:102CD000F5CF58F10A00F5CF59F1000E1A6F0A0E20
:102CE000196F7751176F186B17BF180722ECBAF0DE
:102CF0000101D89017371837D89017371837F10EC9
:102D00001725F66EEB0E1821F76EF86A000EF82202
:102D10000900F5CF5AF10900F5CF5BF10900F5CFB5
:102D20005CF10A00F5CF5DF1D2EC9BF056C16FF17A
:102D300057C170F158C171F159C172F1120001010E
:102D40007751040DF10EF324F66EEB0EF420F76EBE
:102D5000F86A000EF8220900F5CF6FF10900F5CFEF
:102D600070F10900F5CF71F10A00F5CF72F1120090
:102D70007751800A120FD8A0A5D0000E206F0A0E3E
:102D80001F6F000E1A6F640E196F7751176F186B53
:102D900017BF180722ECBAF017C11DF118C11EF1B8
:102DA0001FECB8F00101D8901D371E37D8901D37A1
:102DB0001E37240E1D27000E1E23BD0E1D25F66E88
:102DC000EB0E1E21F76EF86A000EF8220900F5CF0F
:102DD0005AF10900F5CF5BF10900F5CF5CF10A006B
:102DE000F5CF5DF1000E206F640E1F6F77511D6FE0
:102DF0001E6B1DBF1E071FECB8F00101D8901D37D8
:102E00001E37D8901D371E37480E1D27000E1E2373
:102E1000BD0E1D25F66EEB0E1E21F76EF86A000E34
:102E2000F8220900F5CF56F10900F5CF57F1090056
:102E3000F5CF58F10A00F5CF59F1D2EC9BF056C10D
:102E400073F157C174F158C175F159C176F173C16D
:102E500056F174C157F175C158F176C159F1000EA0
:102E600001011A6F0A0E196F7751176F186B17BF90
:102E7000180722ECBAF00101D89017371837D8900C
:102E800017371837BD0E1725F66EEB0E1821F76EA3
:102E9000F86A000EF8220900F5CF5AF10900F5CFC3
:102EA0005BF10900F5CF5CF10A00F5CF5DF1D2ECE2
:102EB0009BF056C16FF157C170F158C171F159C102
:102EC00072F1120001017751800A750FD8A05DD010
:102ED000000E206F0A0E1F6F77511D6F1E6B1DBFF6
:102EE0001E071FECB8F00101D8901D371E37D8908F
:102EF0001D371E37240E1D27000E1E23BD0E1D2557
:102F0000F66EEB0E1E21F76EF86A000EF82209002D
:102F1000F5CF56F10900F5CF57F10900F5CF58F17B
:102F20000A00F5CF59F1000E1A6F0A0E196F77518A
:102F3000176F186B17BF180722ECBAF00101D89071
:102F400017371837D89017371837BD0E1725F66E74
:102F5000EB0E1821F76EF86A000EF8220900F5CF83
:102F60005AF10900F5CF5BF10900F5CF5CF10A00D9
:102F7000F5CF5DF1D2EC9BF056C16FF157C170F106
:102F800058C171F159C172F1120001017751040D5C
:102F9000BD0EF324F66EEB0EF420F76EF86A000E09
:102FA000F8220900F5CF6FF10900F5CF70F10900A3
:102FB000F5CF71F10A00F5CF72F11200516E51AEEA
:102FC0001FD1516C5150800A120FD8A0A1D0000E11
:102FD0000A6E0A0E096E000E046E640E036E5150E6
:102FE000016E026A01BE02065BECBAF001C007F096
:102FF00002C008F0A4ECB8F0D89007360836D89094
:1030000007360836240E0726000E0822F10E072484
:10301000F66EEB0E0820F76EF86A000EF822090033
:10302000F5CF34F00900F5CF35F00900F5CF36F0D3
:103030000A00F5CF37F0000E0A6E640E096E51508B
:10304000076E086A07BE0806A4ECB8F0D8900736E9
:103050000836D89007360836480E0726000E082294
:10306000F10E0724F66EEB0E0820F76EF86A000EDC
:10307000F8220900F5CF30F00900F5CF31F0090052
:10308000F5CF32F00A00F5CF33F07BEC9DF030C085
:103090004DF031C04EF032C04FF033C050F04DC053
:1030A00030F04EC031F04FC032F050C033F0000E5F
:1030B000046E0A0E036E5150016E026A01BE0206D2
:1030C0005BECBAF0D89001360236D8900136023661
:1030D000F10E0124F66EEB0E0220F76EF86A000E78
:1030E000F8220900F5CF34F00900F5CF35F00900DA
:1030F000F5CF36F00A00F5CF37F07BEC9DF030C00D
:1031000049F031C04AF032C04BF033C04CF01200ED
:103110005150800A750FD8A05BD0000E0A6E0A0EBF
:10312000096E5150076E086A07BE0806A4ECB8F095
:10313000D89007360836D89007360836240E07266A
:10314000000E0822F10E0724F66EEB0E0820F76E33
:10315000F86A000EF8220900F5CF30F00900F5CF2B
:1031600031F00900F5CF32F00A00F5CF33F0000E50
:10317000046E0A0E036E5150016E026A01BE020611
:103180005BECBAF0D89001360236D89001360236A0
:10319000F10E0124F66EEB0E0220F76EF86A000EB7
:1031A000F8220900F5CF34F00900F5CF35F0090019
:1031B000F5CF36F00A00F5CF37F07BEC9DF030C04C
:1031C00049F031C04AF032C04BF033C04CF012002D
:1031D0005150040DF10EF324F66EEB0EF420F76E51
:1031E000F86A000EF8220900F5CF49F00900F5CF82
:1031F0004AF00900F5CF4BF00A00F5CF4CF0120071
:103200005150800A120FD8A0A1D0000E0A6E0A0EEB
:10321000096E000E046E640E036E5150016E026A58
:1032200001BE02065BECBAF001C007F002C008F074
:10323000A4ECB8F0D89007360836D8900736083690
:10324000240E0726000E0822BD0E0724F66EEB0E94
:103250000820F76EF86A000EF8220900F5CF34F066
:103260000900F5CF35F00900F5CF36F00A00F5CFAB
:1032700037F0000E0A6E640E096E5150076E086A30
:1032800007BE0806A4ECB8F0D89007360836D890E8
:1032900007360836480E0726000E0822BD0E072402
:1032A000F66EEB0E0820F76EF86A000EF8220900A1
:1032B000F5CF30F00900F5CF31F00900F5CF32F04D
:1032C0000A00F5CF33F07BEC9DF030C04DF031C0FB
:1032D0004EF032C04FF033C050F04DC030F04EC011
:1032E00031F04FC032F050C033F0000E046E0A0EC1
:1032F000036E5150016E026A01BE02065BECBAF029
:10330000D89001360236D89001360236BD0E01241F
:10331000F66EEB0E0220F76EF86A000EF822090036
:10332000F5CF34F00900F5CF35F00900F5CF36F0D0
:103330000A00F5CF37F07BEC9DF030C049F031C08A
:103340004AF032C04BF033C04CF012005150800AAA
:10335000750FD8A05BD0000E0A6E0A0E096E515090
:10336000076E086A07BE0806A4ECB8F0D8900736C6
:103370000836D89007360836240E0726000E082295
:10338000BD0E0724F66EEB0E0820F76EF86A000EED
:10339000F8220900F5CF30F00900F5CF31F009002F
:1033A000F5CF32F00A00F5CF33F0000E046E0A0EAE
:1033B000036E5150016E026A01BE02065BECBAF068
:1033C000D89001360236D89001360236BD0E01245F
:1033D000F66EEB0E0220F76EF86A000EF822090076
:1033E000F5CF34F00900F5CF35F00900F5CF36F010
:1033F0000A00F5CF37F07BEC9DF030C049F031C0CA
:103400004AF032C04BF033C04CF012005150040D62
:10341000BD0EF324F66EEB0EF420F76EF86A000E84
:10342000F8220900F5CF49F00900F5CF4AF009006C
:10343000F5CF4BF00A00F5CF4CF012000101AC6F54
:10344000AD0E0101176F010E186FF60E196FFF0E0A
:103450001A6F000E1C6F0F0E1B6FFFECBAF054D0EA
:10346000AD0E0101176F010E186FCA0E196FFF0E16
:103470001A6FC8ECBCF05DD0AD0E0101176F010EE4
:10348000186F700E196FFD0E1A6FC8ECBCF051D09A
:10349000AD0E0101176F010E186FDF0E196FFF0ED1
:1034A0001A6FC8ECBCF045D0AD0E0101176F010ECC
:1034B000186FE50E196FFF0E1A6FC8ECBCF039D00B
:1034C000AD0E0101176F010E186FF10E196FFF0E8F
:1034D0001A6FC8ECBCF02DD0AD0E0101176F010EB4
:1034E000186FF90E196FFF0E1A6FC8ECBCF021D0DF
:1034F000AD0E0101176F010E186FCA0E196FFF0E86
:103500001A6FC8ECBCF015D00101AB51000AD8B459
:10351000A7D7010AD8B4B0D7030AD8B4B9D7010ADB
:10352000D8B4C2D7070AD8B4CBD7010AD8B4D4D7F5
:10353000DFD7AD0E0101176F010E186FFB0E196F6B
:10354000FF0E1A6FC8ECBCF06CD0AD0E0101176F06
:10355000010E186FC90E196FFF0E1A6FC8ECBCF080
:103560007BD0AD0E0101176F010E186FCC0E196FD5
:10357000FF0E1A6FC8ECBCF06FD0AD0E0101176FD3
:10358000010E186FD20E196FFF0E1A6FC8ECBCF047
:1035900063D0AD0E0101176F010E186FD80E196FB1
:1035A000FF0E1A6FC8ECBCF057D0AD0E0101176FBB
:1035B000010E186FDE0E196FFF0E1A6FC8ECBCF00B
:1035C0004BD0AD0E0101176F010E186FE40E196F8D
:1035D000FF0E1A6FC8ECBCF03FD0AD0E0101176FA3
:1035E000010E186FEA0E196FFF0E1A6FC8ECBCF0CF
:1035F00033D0AD0E0101176F010E186FF00E196F69
:10360000FF0E1A6FC8ECBCF027D0AD0E0101176F8A
:10361000010E186FF00E196FFF0E1A6FC8ECBCF098
:103620001BD00101AC51000AD8B48FD7010AD8B41D
:1036300098D7030AD8B4A1D7010AD8B4AAD7070AE1
:10364000D8B4B3D7010AD8B4BCD7030AD8B4C5D705
:10365000010AD8B4CED7D9D7AD0E0101176F010E2C
:10366000186FFB0E196FFF0E1A6FC8ECBCF06CD010
:10367000AD0E0101176F010E186F4D0E196FFF0E81
:103680001A6FC8ECBCF07BD0AD0E0101176F010EB4
:10369000186FCF0E196FFF0E1A6FC8ECBCF06FD009
:1036A000AD0E0101176F010E186FD50E196FFF0EC9
:1036B0001A6FC8ECBCF063D0AD0E0101176F010E9C
:1036C000186FDB0E196FFF0E1A6FC8ECBCF057D0E5
:1036D000AD0E0101176F010E186FE10E196FFF0E8D
:1036E0001A6FC8ECBCF04BD0AD0E0101176F010E84
:1036F000186FE70E196FFF0E1A6FC8ECBCF03FD0C1
:10370000AD0E0101176F010E186FED0E196FFF0E50
:103710001A6FC8ECBCF033D0AD0E0101176F010E6B
:10372000186FF30E196FFF0E1A6FC8ECBCF027D09C
:10373000AD0E0101176F010E186FF30E196FFF0E1A
:103740001A6FC8ECBCF01BD00101AA51000AD8B412
:103750008FD7010AD8B498D7030AD8B4A1D7010AE1
:10376000D8B4AAD7070AD8B4B3D7010AD8B4BCD7FB
:10377000030AD8B4C5D7010AD8B4CED7D9D7AD0E6D
:103780000101176F010E186FFD0E196FFF0E1A6FF2
:10379000C8ECBCF0AD0E01017C6F010E7D6F52ECE8
:1037A00086F0120001015951800B626F5951592561
:1037B000686F58BF68816851D8B40DD06829D8A403
:1037C00008D0000E566F000E576F000E586F000E97
:1037D000596F588F08D0000E566F000E576F000EAD
:1037E000586F000E596F5D51800B621B5D515D2556
:1037F000636F5CBF63816351D8B40DD06329D8A4D3
:1038000008D0000E5A6F000E5B6F000E5C6F000E4A
:103810005D6F5C8F08D0000E5A6F000E5B6F000E5C
:103820005C6F000E5D6F6351D8B403D06851D8A4AB
:1038300009D0000E566F000E576F000E586F000E25
:10384000596F12005C515603F3CF6DF1F4CF6EF156
:103850006D51646F656B666B676B6E51696F6A6BF8
:103860006B6B6C6B5B515703F3CF6DF1F4CF6EF163
:103870006D516427000E6523662367236E51692707
:10388000000E6A236B236C235A515803F3CF6DF15A
:10389000F4CF6EF16D516427000E65236623672314
:1038A0006E516927000E6A236B236C2366C167F192
:1038B00065C166F164C165F1646B5A515703F3CF7A
:1038C0006DF1F4CF6EF16D5164276E516523000EDA
:1038D0006623000E67235B515603F3CF6DF1F4CFDF
:1038E0006EF16D5164276E516523000E6623000E44
:1038F000672366C167F165C166F164C165F1646BF8
:103900005A515603F3CF6DF1F4CF6EF16D51642728
:103910006E516523000E6623000E67235C5157032A
:10392000F3CF6DF1F4CF6EF16D5169276E516A23BB
:10393000000E6B23000E6C235B515803F3CF6DF127
:10394000F4CF6EF16D5169276E516A23000E6B231F
:10395000000E6C235C515803F3CF6DF1F4CF6EF180
:103960006D515E6F6E515F6F606B616B60C161F135
:103970005FC160F15EC15FF15E6B5E5169275F51AF
:103980006A2360516B2361516C2364C15EF165C190
:103990005FF166C160F167C161F1190E05D0D89081
:1039A000613360335F335E33E82EF9D75E516927A8
:1039B0005F516A2360516B2361516C2366C167F1CB
:1039C00065C166F164C165F1646B635168C15EF104
:1039D0005F6B5E27000E5F23820E5E256D6FFF0E0C
:1039E0005F216E6F0FD0D89069376A376B376C37AD
:1039F00067BF6981D89064376537663767376D0769
:103A0000D8A06E076BAFEFD7000E636F67AF16D00D
:103A1000FF0E64155E6FFF0E65155F6FFF0E661576
:103A2000606F7F0E6715616F5E515F1160116111EC
:103A3000D8A402D069A102D0010E636F6351D8B43B
:103A40001FD0010E6927000E6A236B236C236CA123
:103A500017D069C15EF16AC15FF16BC160F16CC1E1
:103A600061F16135613360335F335E335EC169F1AB
:103A70005FC16AF160C16BF161C16CF16D4B6E2B7E
:103A80006EBF0DD06E5103E16D29D8A008D0000E95
:103A9000696F000E6A6F800E6B6F7F0E20D06EBF55
:103AA00005D06E510EE16D05D8B00BD0000E696FD8
:103AB000000E6A6F000E6B6F000E6C6F000E626F6F
:103AC0000FD06DC168F1FF0E6917FF0E6A177F0EE8
:103AD0006B17000E6C1768B16B8FD89068316C6FE4
:103AE00062516C1369C156F16AC157F16BC158F14B
:103AF0006CC159F112003350800B3C6E33503324AB
:103B0000426E32BE42804250D8B40DD04228D8A472
:103B100008D0000E306E000E316E000E326E000EB8
:103B2000336E328E08D0000E306E000E316E000EF5
:103B3000326E000E336E3750800B3C1A37503724EC
:103B40003D6E36BE3D803D50D8B40DD03D28D8A442
:103B500008D0000E346E000E356E000E366E000E6C
:103B6000376E368E08D0000E346E000E356E000EA5
:103B7000366E000E376E3D50D8B403D04250D8A4F4
:103B800009D0000E306E000E316E000E326E000E47
:103B9000336E120036503002F3CF47F0F4CF48F0C6
:103BA00047503E6E3F6A406A416A4850436E446ADD
:103BB000456A466A35503102F3CF47F0F4CF48F0FA
:103BC00047503E26000E3F224022412248504326C5
:103BD000000E44224522462234503202F3CF47F0F1
:103BE000F4CF48F047503E26000E3F2240224122AB
:103BF00048504326000E44224522462240C041F050
:103C00003FC040F03EC03FF03E6A34503102F3CF37
:103C100047F0F4CF48F047503E2648503F22000E70
:103C20004022000E412235503002F3CF47F0F4CF4E
:103C300048F047503E2648503F22000E4022000EDA
:103C4000412240C041F03FC040F03EC03FF03E6ADC
:103C500034503002F3CF47F0F4CF48F047503E26BF
:103C600048503F22000E4022000E412236503102C1
:103C7000F3CF47F0F4CF48F0475043264850442252
:103C8000000E4522000E462235503202F3CF47F097
:103C9000F4CF48F04750432648504422000E4522B6
:103CA000000E462236503202F3CF47F0F4CF48F0F0
:103CB0004750386E4850396E3A6A3B6A3AC03BF01A
:103CC00039C03AF038C039F0386A38504326395094
:103CD00044223A5045223B5046223EC038F03FC075
:103CE00039F040C03AF041C03BF0190E05D0D890F1
:103CF0003B323A3239323832E82EF9D7385043263F
:103D0000395044223A5045223B50462240C041F0AF
:103D10003FC040F03EC03FF03E6A3D5042C038F0E8
:103D2000396A3826000E3922820E3824476EFF0E7B
:103D30003920486E0FD0D890433644364536463643
:103D400041BE4380D8903E363F3640364136470626
:103D5000D8A0480645AEEFD7000E3D6E41AE16D056
:103D6000FF0E3E14386EFF0E3F14396EFF0E4014E6
:103D70003A6E7F0E41143B6E385039103A103B10AA
:103D8000D8A402D043A002D0010E3D6E3D50D8B45D
:103D90001FD0010E4326000E44224522462246A093
:103DA00017D043C038F044C039F045C03AF046C09F
:103DB0003BF03B343B323A323932383238C043F090
:103DC00039C044F03AC045F03BC046F0474A482A63
:103DD00048BE0DD0485003E14728D8A008D0000EB7
:103DE000436E000E446E800E456E7F0E20D048BE9E
:103DF00005D048500EE14704D8B00BD0000E436EFA
:103E0000000E446E000E456E000E466E000E3C6EB7
:103E10000FD047C042F0FF0E4316FF0E44167F0E30
:103E20004516000E461642B0458ED8904230466E7A
:103E30003C50461243C030F044C031F045C032F02F
:103E400046C033F0120001012C51800B396F2C5108
:103E50002C253B6F2BBF3B813B51D8B40DD03B2968
:103E6000D8A408D0000E296F000E2A6F000E2B6F09
:103E7000000E2C6F2B8F06D0000E296F000E2A6FBC
:103E8000000E2B6F000E2C6F3051800B3A6F3951A2
:103E90003A19D8A4398D305130253A6F2FBF3A8165
:103EA0003A51D8B40DD03A29D8A408D0000E2D6FBD
:103EB000000E2E6F000E2F6F000E306F2F8F06D06A
:103EC000000E2D6F000E2E6F000E2F6F000E306F44
:103ED0003B513A5DD8B022D039AD02D0800E391BAB
:103EE0003BC13CF13AC13BF13CC13AF129C13CF143
:103EF0002DC129F13CC12DF12AC13CF12EC12AF17D
:103F00003CC12EF12BC13CF12FC12BF13CC12FF153
:103F10002CC13CF130C12CF13CC130F1000E3C6FA2
:103F20003B51316F326B311F321F314B322B3A51C3
:103F3000336F346B315133273251342334BF2CD09B
:103F4000345104E11A0E335DD8A026D029512A112C
:103F50002B112C11D8B402D0010E01D0000E3C6FF1
:103F6000000E296F000E2A6F000E2B6F000E2C6FB3
:103F70003AC13BF115D03CA105D0D8903C310109A4
:103F80003C6F02D0D8903C3329B13C8F2C352C3378
:103F90002B332A3329333B2B3A513B5DD8A0EBD747
:103FA00039BD29D03B51D8A409D0000E296F000E8D
:103FB0002A6F000E2B6F000E2C6F12002D51292737
:103FC0002E512A232F512B2330512C232CA183D067
:103FD0003CA106D0D8903C333C5101093C6F02D043
:103FE000D8903C3329B13C8F2C352C332B332A33DA
:103FF00029333B2B70D02D51295D2E512A592F5139
:104000002B592C51800A316F3051800A3159D8B068
:1040100036D029C131F12AC132F12BC133F12CC183
:1040200034F1311F321F331F341F312B000E322366
:10403000332334232D513125356F2E513221366FE4
:104040002F513321376F30513421386FFF0E352512
:10405000296FFF0E36212A6FFF0E37212B6FFF0EBF
:1040600038212C6F800E391B3C6D3C51D8A40FD0E9
:10407000010E2927000E2A232B232C2308D02D5193
:10408000295F2E512A5B2F512B5B30512C5B29511C
:104090002A112B112C11D8A41CD03C51D8A419D012
:1040A000000E296F000E2A6F000E2B6F000E2C6F72
:1040B0001200D89029372A372B372C373CBF29815B
:1040C0003CA102D0D88001D0D8903C373B51D8A435
:1040D0003B072BAFEED7000E3A6F3CAF0AD03CC186
:1040E00031F17F0E3117D8A402D029A102D0010EE0
:1040F0003A6F3A51D8B420D0010E2927000E2A2356
:104100002B232C232CA118D029C131F12AC132F143
:104110002BC133F12CC134F13435343333333233E2
:10412000313331C129F132C12AF133C12BF134C10C
:104130002CF13B29D8A43B2B3B29D8B403D03B51CD
:10414000D8A40DD0000E296F000E2A6F000E2B6F21
:10415000000E2C6F3B51D8A402D0000E396F3BA14A
:1041600002D02B8F01D02B9FD8903B312C6F39BFC1
:104170002C8F29C129F12AC12AF12BC12BF12CC185
:104180002CF112005950800B0001686F59505924CE
:104190006A6F58BE6A816A51D8B40DD06A29D8A412
:1041A00008D0000E566E000E576E000E586E000EB0
:1041B000596E588E06D0000E566E000E576E000EC9
:1041C000586E000E596E5D50800B696F6851691909
:1041D000D8A4688D5D505D24696F5CBE69816951AA
:1041E000D8B40DD06929D8A408D0000E5A6E000E9C
:1041F0005B6E000E5C6E000E5D6E5C8E06D0000E77
:104200005A6E000E5B6E000E5C6E000E5D6E6A51A3
:10421000695DD8B022D068AD02D0800E681B6AC03C
:104220006BF069C06AF06BC069F056C06BF05AC0A1
:1042300056F06BC05AF057C06BF05BC057F06BC0C4
:104240005BF058C06BF05CC058F06BC05CF059C0BC
:104250006BF05DC059F06BC05DF0000E6B6F6A5182
:10426000606F616B601F611F604B612B6951626FF2
:10427000636B605162276151632363BF2CD063512C
:1042800004E11A0E625DD8A026D05650571058107F
:104290005910D8B402D0010E01D0000E6B6F000E81
:1042A000566E000E576E000E586E000E596E69C0A5
:1042B0006AF015D06BA105D0D8906B3101096B6FF6
:1042C00002D0D8906B3356B06B8F59345932583274
:1042D000573256326A2B69516A5DD8A0EBD768BD58
:1042E00029D06A51D8A409D0000E566E000E576E20
:1042F000000E586E000E596E12005A5056265B5032
:1043000057225C5058225D50592259A083D06BA18E
:1043100006D0D8906B336B5101096B6F02D0D890E7
:104320006B3356B06B8F593459325832573256323C
:104330006A2B70D05A50565C5B5057585C50585896
:104340005950800A606F5D50800A6059D8B036D0ED
:1043500056C060F057C061F058C062F059C063F0B9
:10436000601F611F621F631F602B000E61236223A9
:1043700063235A506025646F5B506121656F5C5008
:104380006221666F5D506321676FFF0E6425566E74
:10439000FF0E6521576EFF0E6621586EFF0E6721D6
:1043A000596E800E681B6B6D6B51D8A40FD0010E37
:1043B0005626000E57225822592208D05A50565ECF
:1043C0005B50575A5C50585A5D50595A56505710C6
:1043D00058105910D8A41CD06B51D8A419D0000E75
:1043E000566E000E576E000E586E000E596E12007B
:1043F000D89056365736583659366BBF56806BA113
:1044000002D0D88001D0D8906B376A51D8A46A07FF
:1044100058AEEED7000E696F6BAF0AD06BC060F07C
:104420007F0E6017D8A402D056A002D0010E696F8B
:104430006951D8B420D0010E5626000E57225822BA
:10444000592259A018D056C060F057C061F058C02A
:1044500062F059C063F063356333623361336033B4
:1044600060C056F061C057F062C058F063C059F0A8
:104470006A29D8A46A2B6A29D8B403D06A51D8A46F
:104480000DD0000E566E000E576E000E586E000EC8
:10449000596E6A51D8A402D0000E686F6AA102D08A
:1044A000588E01D0589ED8906A31596E68BF598E87
:1044B00056C056F057C057F058C058F059C059F080
:1044C0001200000E346E000E356E800E366E3F0EFA
:1044D000376E91C030F092C031F093C032F094C08A
:1044E00033F026ECBEF030C038F031C039F032C0C5
:1044F0003AF033C03BF0B2ECB2F0D8B00FD0000EBF
:104500000201736F210E726F000E0001916F000E99
:10451000926F000E936F000E946F1200000E000158
:10452000956F000E966F800E976F3F0E986F91C03B
:1045300034F092C035F093C036F094C037F091C09B
:1045400030F092C031F093C032F094C033F07BEC85
:104550009DF030C02CF031C02DF032C02EF033C0B1
:104560002FF02AECBFF02CC056F02DC057F02EC013
:1045700058F02FC059F0000E5A6E000E5B6E800E80
:104580005C6E3F0E5D6EC2ECA0F056C06CF057C082
