:0400000085EF00F098
:060008005F82C9EFBBF0AE
:100018005F80D8CF02F1E8CF03F1E0CF04F1FACF47
:1000280005F1FBCF06F1E9CF07F1EACF08F1E1CFFF
:1000380009F1E2CF0AF1D9CF0BF1DACF0CF1F3CF06
:100048000DF1F4CF0EF1F6CF0FF1F7CF10F1F8CF95
:1000580011F1F5CF12F15FC013F160C014F161C066
:1000680015F162C016F10E012EBB38AB03D0E4ECDB
:10007800C4F01BD02CBD36AD0DD001D816D005006C
:10008800FA6E02016B51FD6E6C51FE6E6D51FF6E82
:10009800FA5012002EBD38AD03D010ECC4F005D0D4
:1000A8002BBF35AF02D066ECC6F016C162F015C1A1
:1000B80061F014C160F013C15FF012C1F5FF11C106
:1000C800F8FF10C1F7FF0FC1F6FF0EC1F4FF0DC115
:1000D800F3FF0CC1DAFF0BC1D9FF0AC1E2FF09C166
:1000E800E1FF08C1EAFF07C1E9FF06C1FBFF05C13F
:1000F800FAFF04C1E0FF03C1E8FF02C1D8FF5F9027
:060108001000D7EFBCF06F
:10E89000000000803F000020410000C84200007AD4
:10E8A0004400401C460050C3470024744980961819
:10E8B0004B20BCBE4C286B6E4EF9021550EC78AD67
:10E8C00060CAF249710000803FCDCCCC3D0AD7230D
:10E8D0003C6F12833A17B7D138ACC52737BD37869E
:10E8E0003595BFD63377CC2B325F708930FFE6DBAE
:10E8F0002E08E53C1E6042A20D010000000A000047
:10E900000064000000E803000010270000A086015A
:10E910000040420F008096980000E1F50500CA9A79
:10E920003B0100000010000000000100000010008A
:10E9300000000001000000100000000001000000C5
:10E940001004000000063C04427D9F6A425C900176
:10E9500042604DBB4051EC473EDE8D1FBBECF34A9D
:10E9600048359595C717C1DC45FDDB6DC372B333E0
:10E9700040063C0442C0598B4274044442F99B4F08
:10E98000410000803F2B3401487F9DB045E7FFD90F
:10E99000420000803F4C697374206F66207375706D
:10E9A000706F7274656420636F6D6D616E64733A2D
:10E9B0000A0D44657669636520436F6D6D616E6411
:10E9C000733A0A0D20202052657365743A20436C17
:10E9D0006561727320746865207465726D696E611B
:10E9E0006C20616E64207265736574732074686551
:10E9F000206D6963726F0A0D202020436C6561727F
:10EA00003A20436C65617273207468652074657286
:10EA10006D696E616C2062757420646F65736E271A
:10EA20007420726573657420746865206D69637203
:10EA30006F0A0D2020204361757365206F66205298
:10EA4000657365743F3A2052657475726E732074F5
:10EA50006865206361757365206F66207468652042
:10EA60006D6F737420726563656E7420646576697A
:10EA700063652072657365740A0D2020202A49445D
:10EA80004E3F3A2052657475726E732064657669E4
:10EA90006365206964656E74696669636174696F32
:10EAA0006E20737472696E670A0D202020446576AB
:10EAB000696365204F6E2054696D653F3A20526549
:10EAC0007475726E7320646576696365206F6E205D
:10EAD00074696D652073696E6365206C6173742061
:10EAE0006465766963652072657365740A0D20201C
:10EAF000204465766963652049443F3A2052657435
:10EB000075726E732064657669636520494420617F
:10EB100073207072652D70726F6772616D6D6564C0
:10EB200020696E20666C617368206D656D6F727907
:10EB30000A0D2020205265766973696F6E20494462
:10EB40003F3A2052657475726E732064657669630E
:10EB5000652073696C69636F6E207265766973698D
:10EB60006F6E204944206173207072652D70726F42
:10EB70006772616D6D656420696E20666C61736893
:10EB8000206D656D6F72790A0D20202055736572B6
:10EB9000204944733F3A2052657475726E73206148
:10EBA000206C697374206F66207573657220494408
:10EBB000732028646973706C6179656420696E20C4
:10EBC000686578292061732073746F7265642069A9
:10EBD0006E20666C617368206D656D6F72790A0DC9
:10EBE000202020414443204572726F723F3A2052E8
:10EBF000657475726E7320746865206361757365E2
:10EC0000206F6620616E20414443206572726F72EE
:10EC100020696620616E206572726F72206F636377
:10EC200075727265640A0D202020436C6561722044
:10EC3000414443204572726F723A20436C656172A1
:10EC4000732074686520414443206572726F72209E
:10EC5000616E6420726573756D6573204144432055
:10EC6000636F6E76657273696F6E730A0D20202074
:10EC7000564343204F766572766F6C746167653FCB
:10EC80003A2053746174657320696620612056438D
:10EC900043206F766572766F6C7461676520636F71
:10ECA0006E646974696F6E20686173206F63637549
:10ECB00072726564206F72206E6F740A0D202020BE
:10ECC00048656C703A2054686973206D6573736190
:10ECD00067652C206C6973747320737570706F7224
:10ECE00074656420636F6D6D616E64730A0D4465B5
:10ECF00076696365204D6561737572656D656E74C7
:10ED000020436F6D6D616E64733A0A0D2020204DB3
:10ED100065617375726520504F533350333F3A200D
:10ED200052657475726E73202B332E335620414416
:10ED30004320436F6E76657273696F6E20696E2033
:10ED4000766F6C74730A0D2020204D6561737572A7
:10ED50006520504F5331323F3A2052657475726EC0
:10ED600073202B3132562041444320436F6E766529
:10ED70007273696F6E20696E20766F6C74730A0D02
:10ED80002020204D656173757265204469652054AB
:10ED9000656D703F3A2052657475726E73207468A9
:10EDA00065206D6963726F636F6E74726F6C6C65F2
:10EDB00072206469652074656D7065726174757226
:10EDC0006520696E206465677265657320430A0D6E
:10EDD0002020204D656173757265204656523F3A7A
:10EDE0002052657475726E732074686520696E7444
:10EDF00065726E616C20666978656420766F6C74EC
:10EE0000616765207265666572656E63652062750F
:10EE1000666665722031206F757470757420696E36
:10EE200020766F6C74730A0D2020204D6561737518
:10EE3000726520415653533F3A2052657475726E85
:10EE40007320746865206D656173757265642076E2
:10EE5000616C7565206F6620416E616C6F6720562E
:10EE6000535320696E20766F6C74730A0D5072696B
:10EE70006D617279204D6561737572656D656E7433
:10EE800020436F6D6D616E64733A0A0D2020204D32
:10EE9000656173757265204465746563746564208B
:10EEA00043757272656E743F3A2052657475726E66
:10EEB00073206D65617375726564206F757470750C
:10EEC000742063757272656E7420696E20616D7056
:10EED00073206173207365656E206279204144431D
:10EEE0000A0D2020204D65617375726520524D53C7
:10EEF0002043757272656E743F3A20526574757264
:10EF00006E73207468652063616C63756C617465F1
:10EF10006420524D53206F75747075742063757240
:10EF200072656E742066726F6D206D6561737572A7
:10EF3000656D656E747320616E642054524941435F
:10EF400020666972696E6720616E676C650A0D20C4
:10EF500020204D65617375726520524D5320566FA8
:10EF60006C746167653F3A2052657475726E7320E8
:10EF70007468652063616C63756C617465642052AC
:10EF80004D53206F757470757420766F6C74616763
:10EF9000652066726F6D2054524941432066697244
:10EFA000696E6720616E676C650A0D2020204D65D3
:10EFB000617375726520506F7765723F3A205265B4
:10EFC0007475726E73207468652063616C63756C10
:10EFD00061746564206F757470757420706F7765E7
:10EFE0007220696E2057617474730A0D2020204CC2
:10EFF0006F6164204F6E2054696D653F3A20526501
:10F000007475726E73206C6F6164206F6E2074690A
:10F010006D652073696E6365206C6173742064652F
:10F020007669636520726573657420696E20736507
:10F03000636F6E64730A0D2020204D617820524D5D
:10F04000532043757272656E743F3A205072696E38
:10F05000747320746865206D6178696D756D2072B8
:10F0600065636F7264656420524D53206F757470D0
:10F0700075742063757272656E740A0D2020204DC0
:10F08000617820506F7765723F3A205072696E74D4
:10F090007320746865206D6178696D756D20726587
:10F0A000636F72646564206F757470757420706F1F
:10F0B0007765720A0D202020436C656172204D61D6
:10F0C000782056616C7565733A204572617365737B
:10F0D000206D6178696D756D207265636F7264650E
:10F0E000642076616C7565732066726F6D2045458E
:10F0F00050524F4D0A0D4F757470757420436F6EEA
:10F1000074726F6C20436F6D6D616E64733A0A0D9B
:10F11000202020456E61626C652044696D6D696ECA
:10F12000673A20456E61626C652054524941432024
:10F130006F75747075742064696D6D696E670A0D02
:10F1400020202044697361626C652044696D6D699B
:10F150006E673A2044697361626C6520545249417C
:10F1600043206F75747075742064696D6D696E6786
:10F170000A0D202020456E61626C65204C6F616431
:10F180003A20456E61626C657320746865206F7506
:10F190007470757420545249414320776974682013
:10F1A00064696D6D696E672064697361626C656422
:10F1B0000A0D20202044697361626C65204C6F61E8
:10F1C000643A2044697361626C65732074686520D9
:10F1D0006F757470757420545249414320636F6D8C
:10F1E000706C6574656C790A0D2020204C6F616429
:10F1F00020456E61626C65643F3A20526574757299
:10F200006E7320696620746865206F7574707574FC
:10F21000206C6F616420697320656E61626C656447
:10F22000206F722064697361626C65640A0D20202E
:10F230002044696D6D696E6720456E61626C65641E
:10F240003F3A2052657475726E7320696620646956
:10F250006D6D696E67206F6620746865206F7574C8
:10F26000707574206C6F616420697320656E6162D3
:10F270006C6564206F72206E6F740A0D202020531D
:10F2800065742044696D6D696E67205065726365B1
:10F290006E746167653A203C783E3A20536574731A
:10F2A00020746865206F75747075742064696D6D65
:10F2B000696E672070657263656E74616765206151
:10F2C0007320782070657263656E740A0D002020CB
:10F2D0002020426F6F7420636F6D706C6574650AD7
:10F2E0000D2020202050494331384636374B3430EA
:10F2F000206D546F756368205465737420426F618C
:10F3000072640A0D202020204576616C7561746559
:10F310007320746865206D546F7563682063617035
:10F320006163697469766520746F756368206C69C0
:10F33000627261727920646973747269627574654E
:10F3400064206279204D6963726F636869700A0D89
:10F3500020202020536574732074686520737461C5
:10F360007465206F662066697665204C454473207D
:10F370006261736564206F6E206D546F75636820E1
:10F380006361706163697469766520707573686222
:10F390007574746F6E730A0D2020202042617564AD
:10F3A00020726174653A203131353230302062701C
:10F3B000730A0D202020204E6F20706172697479CD
:10F3C0002C203820626974732C206E6F20666C6F5D
:10F3D0007720636F6E74726F6C2C20312073746FA2
:10F3E00070206269740A0D20202020436F6D6D61CA
:10F3F0006E64732061726520636173652073656E4E
:10F400007369746976650A0D20202020456E746545
:10F4100072206120636F6D6D616E642C206F7220AD
:10F42000656E7465722048656C7020666F72206C22
:10F43000697374206F6620636F6D6D616E64730A0B
:10F440000D00496620796F752764206C696B652013
:10F45000746F20636F6D706C6574656C7920656E78
:10F4600061626C65206F722064697361626C6520F3
:10F47000746865206C6F61642C2064697361626CD0
:10F48000652064696D6D696E6720616E64207573B7
:10F4900065207265737065637469766520636F6D4E
:10F4A0006D616E64730A0D004552524F523A2050FE
:10F4B0006C65617365207365742064696D6D696E38
:10F4C000672070657263656E7461676520746F2074
:10F4D000616E20696E74656765722067726561741C
:10F4E0006572207468616E203020616E64206C65E6
:10F4F0007373207468616E203130300A0D004465EA
:10F50000766963652049442073746F72656420696D
:10F510006E20466C6173682069733A2030782558F4
:10F520002E205468697320636F72726573706F6EFA
:10F53000647320746F206120646576696365207050
:10F54000617274206E756D626572206F662025731E
:10F550000A0D005468697320636F72726573706F6F
:10F560006E647320746F20612031362062697420CC
:10F5700074696D6572207072652D6C6F61642076A0
:10F58000616C7565206F66203078255820282575B8
:10F59000204C53427329200A0D00564343204F76D6
:10F5A0006572766F6C7461676520636F6E646974F1
:10F5B000696F6E20686173206F6363757272656432
:10F5C000202856434320686173206578636565642D
:10F5D000656420332E363056290A0D0054686520A4
:10F5E000666F6C6C6F77696E672055736572204922
:10F5F00044732068617665206265656E207265746B
:10F600007269657665642066726F6D20666C6173E1
:10F6100068206D656D6F72793A0A0D0043616C6305
:10F62000756C617465642054524941432066697267
:10F63000696E6720616E676C6520697320252E33C3
:10F64000662072616469616E732028252E336620FE
:10F6500064656772656573290A0D00537973746573
:10F660006D20706172616D657465727320616E6486
:10F670002061666669726D61746976652072657372
:10F68000706F6E7365732061707065617220696E52
:10F6900020677265656E0A0D0044657669636520B2
:10F6A00073696C69636F6E207265766973696F6EDA
:10F6B0002049442061732073746F72656420696E01
:10F6C00020466C6173682069733A202563253033C6
:10F6D000640A0D00446576696365206F6E20746965
:10F6E0006D652073696E6365206C6173742072654B
:10F6F00073657420636F6E646974696F6E206973DB
:10F70000202564207365636F6E64730A0D0046697B
:10F7100078656420566F6C74616765205265666514
:10F7200072656E6365204275666665722031206D74
:10F730006561737572656420617320252E336620C0
:10F74000566F6C74730A0D004F7574707574207069
:10F750006F7765722063616C63756C61746564209A
:10F76000617320252E33662057617474732066728E
:10F770006F6D20524D532076616C7565730A0D00D4
:10F7800048656C70206D6573736167657320616E89
:10F7900064206E65757472616C20726573706F6E33
:10F7A0007365732061707065617220696E20796580
:10F7B0006C6C6F770A0D0020202020557365722035
:10F7C000494420576F72642025642028466C617379
:10F7D0006820616464726573732030783230303031
:10F7E000302558293A20307825580A0D004C6F6191
:10F7F000642069732063757272656E746C7920651C
:10F800006E61626C65642C206275742064696D6D34
:10F81000696E672069732064697361626C65640A4C
:10F820000D004C6F6164206F6E2074696D652073EC
:10F83000696E6365206C61737420646576696365C5
:10F840002072657365742069732025642073656375
:10F850006F6E64730A0D005468652063617573658B
:10F86000206F6620746865206D6F73742072656305
:10F87000656E74206465766963652072657365746E
:10F88000207761733A2025730A0D004D6178696D08
:10F89000756D207265636F7264656420524D5320EC
:10F8A0006F75747075742063757272656E742069FB
:10F8B0007320252E33662041726D730A0D00546843
:10F8C0006520666F6C6C6F77696E67206368616E28
:10F8D0006E656C2063617573656420616E204144C0
:10F8E00043206572726F723A2025730A0D004D61D4
:10F8F0007271756574746520556E69766572736989
:10F90000747920454C454E20333033352046696E9E
:10F91000616C2050726F6A6563740A0D00457272E3
:10F920006F727320616E64206E65676174697665BD
:10F9300020726573706F6E7365732061707065619E
:10F940007220696E207265640A0D00456E746572DE
:10F95000202748656C702720666F72206C6973746D
:10F96000206F6620617661696C61626C6520636FEF
:10F970006D6D616E64730A0D004D6178696D756D12
:10F98000207265636F72646564206F75747075743E
:10F9900020506F77657220697320252E33662057BB
:10F9A000617474730A0D00564343204F7665727676
:10F9B0006F6C7461676520636F6E646974696F6EE4
:10F9C00020686173206E6F74206F63637572726557
:10F9D000640A0D004C6F6164206861732062656584
:10F9E0006E20656E61626C65642C2064696D6D6962
:10F9F0006E672064697361626C65640A0D004C6F08
:10FA0000616420616E642064696D6D696E67206158
:10FA100072652063757272656E746C7920646973A7
:10FA200061626C65640A0D0057696E646F77656486
:10FA300020576174636820446F672054696D657254
:10FA40002056696F6C6174696F6E205265736574BE
:10FA5000005452494143206F757470757420646975
:10FA60006D6D696E6720686173206265656E2064E4
:10FA7000697361626C65640A0D0054524941432008
:10FA80006F75747075742064696D6D696E67206838
:10FA90006173206265656E20656E61626C65640AE3
:10FAA0000D004D6561737572656D656E74207265CC
:10FAB00073706F6E73657320617070656172206919
:10FAC0006E206379616E0A0D0041565353206D65B7
:10FAD00061737572656420617320252E336620562C
:10FAE0006F6C7473206279204144430A0D002B33FC
:10FAF0002E3356207261696C206D65617375726575
:10FB000064206173202B252E336620566F6C74732E
:10FB10000A0D0044696D6D696E672068617320622B
:10FB200065656E2073657420746F20256420706590
:10FB30007263656E740A0D004469652054656D70CA
:10FB400065726174757265206D6561737572656447
:10FB500020617320252E3366430A0D002B31325667
:10FB6000207261696C206D656173757265642061D6
:10FB700073202B252E336620566F6C74730A0D008C
:10FB8000524D53204F7574707574204375727265B1
:10FB90006E7420697320252E33662041726D730ABE
:10FBA0000D00524D53204F757470757420566F6C54
:10FBB0007461676520697320252E33662056726D47
:10FBC000730A0D004D6178696D756D207265636F04
:10FBD000726465642076616C75657320657261730B
:10FBE00065640A0D004D6561737572656420437527
:10FBF0007272656E7420697320252E336620416D04
:10FC000070730A0D0044696D6D696E672069732019
:10FC100063757272656E746C7920656E61626C6575
:10FC2000640A0D005573657220696E7075742061E9
:10FC300070706561727320696E2077686974650AF7
:10FC40000D004C6F61642069732063757272656E7C
:10FC5000746C792064697361626C65640A0D004C90
:10FC60006F61642069732063757272656E746C795C
:10FC700020656E61626C65640A0D005245534554FF
:10FC800020496E737472756374696F6E2045786570
:10FC90006375746564004D656173757265204465B4
:10FCA0007465637465642043757272656E743F0099
:10FCB0004C6F616420686173206265656E206469C1
:10FCC0007361626C65640A0D005365742044696D4C
:10FCD0006D696E672050657263656E746167653A21
:10FCE00020004E6F20414443204572726F722064A1
:10FCF000657465637465640A0D00537461636B20F9
:10FD0000556E646572666C6F77205265736574001A
:10FD1000496E7465726E616C20465652204275665B
:10FD2000666572203100537461636B204F76657293
:10FD3000666C6F7720526573657400436C65617201
:10FD4000696E6720414443204572726F720A0D004C
:10FD50004D65617375726520524D5320566F6C74FA
:10FD60006167653F004D65617375726520524D5343
:10FD70002043757272656E743F004D6173746572D5
:10FD800020436C656172205265736574004D656136
:10FD900073757265204469652054656D703F00304D
:10FDA00031323334353637383941424344454600E1
:10FDB000414320506F776572204D657465720A0D5E
:10FDC0000044696D6D696E6720456E61626C6564A3
:10FDD0003F00564343204F766572766F6C746167BF
:10FDE000653F004D617820524D5320437572726516
:10FDF0006E743F00436C656172204D6178205661DE
:10FE00006C75657300556E646566696E6564205235
:10FE1000657365740042726F776E204F757420525F
:10FE200065736574004D65617375726520504F533D
:10FE30003350333F00446576696365204F6E20542C
:10FE4000696D653F004361757365206F662052657B
:10FE50007365743F0044697361626C652044696D29
:10FE60006D696E6700436C656172204144432045B3
:10FE700072726F7200506F776572204F6E205265FC
:10FE8000736574004D65617375726520504F533111
:10FE9000323F004D65617375726520506F776572F2
:10FEA0003F00456E61626C652044696D6D696E67E7
:10FEB00000496E7465726E616C2044414331004D9F
:10FEC00065617375726520415653533F004C6F61F5
:10FED0006420456E61626C65643F004C6F61642014
:10FEE0004F6E2054696D653F00496E7465726E6196
:10FEF0006C204156535300496E7465726E616C20DC
:10FF000054656D700050494331384C4636374B3498
:10FF100030005265766973696F6E2049443F004D29
:10FF2000656173757265204656523F00446973617E
:10FF3000626C65204C6F616400504943313846362D
:10FF4000374B343000456E61626C65204C6F6164E4
:10FF5000004465766963652049443F004D6178201F
:10FF6000506F7765723F00414443204572726F7253
:10FF70003F0055736572204944733F00556E6465B8
:10FF800066696E656400286E756C6C2900504F536D
:10FF900033503300504F533132002A49444E3F0012
:10FFA000436C6561720049534E530048656C7000A4
:10FFB0001B5B324A0049444E001B5B48001B5B73CD
:10FFC000001B5B75001B5B4B00333000333100348A
:10FFD00031003332003432003333003433003334F1
:10FFE0000034340033350034350033360034360005
:10FFF0003337003437001B5B0038003B006D0000D6
:020000040001F9
:10000000B4C117F1B5C118F10F0E0101196FFE0E41
:100010001A6FAFECC1F0010117511811D8A40FD01D
:10002000B00E826FFF0E836F9FEC87F0B90E010157
:10003000826FFF0E836F9FEC87F0FF001200B4C148
:1000400017F1B5C118F1A00E0101196FFF0E1A6F5B
:10005000AFECC1F0010117511811D8A40ED0B00EA9
:10006000826FFF0E836F9FEC87F0B90E0101826FE4
:10007000FF0E836F9FEC87F01200B4C117F1B5C17A
:1000800018F1450E0101196FFE0E1A6FAFECC1F0A9
:10009000010117511811D8A419D0000EB26F000E2B
:1000A000B36F020EEAEC9EF0570E0101826FF80E5C
:1000B000836F0201EC515DECC4F017C184F118C1EB
:1000C00085F19FEC87F0E9ECC5F01200B4C117F19F
:1000D000B5C118F19A0E0101196FFF0E1A6FAFEC3E
:1000E000C1F0010117511811D8B40FD0B4C117F1E4
:1000F000B5C118F1B50E196FFF0E1A6FAFECC1F054
:10010000010117511811D8A418D0000EB26F000EBB
:10011000B36F020EEAEC9EF0B00E0101826FFD0E8D
:10012000836F9FEC87F0EE0E0101826FF80E836FF4
:100130009FEC87F0E9ECC5F01200B4C117F1B5C12E
:1001400018F1510E0101196FFF0E1A6FAFECC1F0DB
:10015000010117511811D8A423D0000EB26F000E60
:10016000B36F020EEAEC9EF0FE0E0101826FF40EF8
:10017000836F68ECC5F022C184F123C185F168EC7E
:10018000C5F022C124F123C125F1A9ECC0F024C19E
:1001900086F125C187F19FEC87F0E9ECC5F01200EC
:1001A000B4C117F1B5C118F1120E0101196FFF0E9C
:1001B0001A6FAFECC1F0010117511811D8A422D069
:1001C000000EB26F000EB36F020EEAEC9EF0990EB5
:1001D0000101826FF60E836F82ECC3F00101B66FEE
:1001E000410EB625846F856B000E85230CECC5F09F
:1001F0000101B76FB751866F876B9FEC87F0E9EC11
:10020000C5F01200B4C117F1B5C118F1720E0101A9
:10021000196FFF0E1A6FAFECC1F0010117511811E1
:10022000D8A43ED0000EB26F000EB36F020EEAECFF
:100230009EF0DC0E0101826FF50E836F9FEC87F05C
:10024000000E0301AA6F000EA96FAABF06D0AA5123
:1002500024E1080EA95DD8B020D0B70E0101826F4D
:10026000F70E836FA9C384F1AAC385F1D890030167
:10027000A9350101866F0301AA350101876F0301CA
:10028000A95100ECC3F022C188F123C189F19FEC90
:1002900087F00301A94BAA2BD8D7E9ECC5F01200CF
:1002A000B4C117F1B5C118F1670E0101196FFF0E46
:1002B0001A6FAFECC1F0010117511811D8A4A4D0E6
:1002C0005EA090D0000EB26F000EB36F010EEAEC8C
:1002D0009EF05FCFDBF160D0800E0101176F030E3F
:1002E000186FA60E196FFF0E1A6FDAECC3F06CD000
:1002F000800E0101176F030E186F940E196FFF0E19
:100300001A6FDAECC3F060D0800E0101176F030E94
:10031000186F8D0E196FFF0E1A6FDAECC3F054D000
:10032000800E0101176F030E186FE90E196FFE0E94
:100330001A6FDAECC3F048D0800E0101176F030E7C
:10034000186FF70E196FFE0E1A6FDAECC3F03CD07F
:10035000800E0101176F030E186FB10E196FFE0E9C
:100360001A6FDAECC3F030D0800E0101176F030E64
:10037000186F100E196FFD0E1A6FDAECC3F024D04F
:10038000800E0101176F030E186F7C0E196FFF0EA0
:100390001A6FDAECC3F018D00101DB51000AD8B4AF
:1003A0009BD7040AD8B4A4D7260AD8B4ADD71E0A5E
:1003B000D8B4B6D7010AD8B4BFD7030AD8B4C8D7BF
:1003C000010AD8B4D1D7DCD7BE0E0101826FF80E76
:1003D000836F800E846F030E856F9FEC87F0E9ECCE
:1003E000C5F01200000E0101B26F000EB36F020ED5
:1003F000EAEC9EF0E20E0101826FFC0E836F9FEC2F
:1004000087F0E9ECC5F01200B4C117F1B5C118F1DD
:10041000650E0101196FFE0E1A6FAFECC1F00101FC
:1004200017511811D8A418D07E965E900E012E8D0B
:100430006DECC6F0000E0101B26F000EB36F020E3C
:10044000EAEC9EF03B0E0101826FFD0E836F9FEC84
:1004500087F0E9ECC5F01200B4C117F1B5C118F18D
:10046000D20E0101196FFD0E1A6FAFECC1F0010140
:1004700017511811D8A426D05EA412D0000EB26F66
:10048000000EB36F010EEAEC9EF09A0E0101826F2E
:10049000F50E836F9FEC87F0E9ECC5F05E941200D7
:1004A000000E0101B26F000EB36F020EEAEC9EF077
:1004B000A70E0101826FF90E836F9FEC87F0E9ECC4
:1004C000C5F01200B4C117F1B5C118F1250E010134
:1004D000196FFE0E1A6FAFECC1F001011751181120
:1004E000D8A419D0000EB26F000EB36F060EEAEC5E
:1004F0009EF0EE0E0101826FFA0E836FCFC184F180
:10050000D0C185F1D1C186F1D2C187F19FEC87F0CE
:10051000E9ECC5F01200B4C117F1B5C118F1840EB1
:100520000101196FFE0E1A6FAFECC1F001011751F6
:100530001811D8A419D0000EB26F000EB36F060EBA
:10054000EAEC9EF05C0E0101826FFB0E836FCBC163
:1005500084F1CCC185F1CDC186F1CEC187F19FEC8C
:1005600087F0E9ECC5F01200B4C117F1B5C118F17C
:100570008D0E0101196FFD0E1A6FAFECC1F0010174
:1005800017511811D8A419D0000EB26F000EB36F16
:10059000060EEAEC9EF0380E0101826FFB0E836FAF
:1005A00054C284F155C285F156C286F157C287F113
:1005B0009FEC87F0E9ECC5F01200B4C117F1B5C1AA
:1005C00018F11F0E0101196FFF0E1A6FAFECC1F089
:1005D000010117511811D8A419D0000EB26F000EE6
:1005E000B36F060EEAEC9EF00E0E0101826FF70E5D
:1005F000836FE4C184F1E5C185F1E6C186F1E7C10D
:1006000087F19FEC87F0E9ECC5F01200B4C117F157
:10061000B5C118F1BF0E0101196FFE0E1A6FAFECD4
:10062000C1F0010117511811D8A419D0000EB26FF2
:10063000000EB36F060EEAEC9EF0C90E0101826F48
:10064000FA0E836FD3C184F1D4C185F1D5C186F18F
:10065000D6C187F19FEC87F0E9ECC5F01200B4C178
:1006600017F1B5C118F1960E0101196FFC0E1A6F42
:10067000AFECC1F0010117511811D8A419D0000E28
:10068000B26F000EB36F060EEAEC9EF0E50E0101AC
:10069000826FFB0E836FC3C184F1C4C185F1C5C1F4
:1006A00086F1C6C187F19FEC87F0E9ECC5F0120036
:1006B000B4C117F1B5C118F1650E0101196FFD0E36
:1006C0001A6FAFECC1F0010117511811D8A419D05D
:1006D000000EB26F000EB36F060EEAEC9EF0800EB5
:1006E0000101826FFB0E836FF6C084F1F7C085F1C4
:1006F000F8C086F1F9C087F19FEC87F0E9ECC5F00E
:100700001200B4C117F1B5C118F1500E0101196FF3
:10071000FD0E1A6FAFECC1F0010117511811D8A4EA
:1007200019D0000EB26F000EB36F060EEAEC9EF009
:10073000A20E0101826FFB0E836FBFC184F1C0C1A5
:1007400085F1C1C186F1C2C187F19FEC87F0E9EC68
:10075000C5F01200B4C117F1B5C118F1930E010133
:10076000196FFE0E1A6FAFECC1F00101175118118D
:10077000D8A419D0000EB26F000EB36F060EEAECCB
:100780009EF0480E0101826FF70E836FBBC184F1AA
:10079000BCC185F1BDC186F1BEC187F19FEC87F078
:1007A000E9ECC5F01200B4C117F1B5C118F1A20E01
:1007B0000101196FFE0E1A6FAFECC1F00101175164
:1007C0001811D8A412D07F90000EB26F000EB36F34
:1007D000020EEAEC9EF07A0E0101826FFA0E836F30
:1007E0009FEC87F0E9ECC5F01200B4C117F1B5C178
:1007F00018F1550E0101196FFE0E1A6FAFECC1F022
:10080000010117511811D8A412D07F80000EB26FC9
:10081000000EB36F010EEAEC9EF0510E0101826FE3
:10082000FA0E836F9FEC87F0E9ECC5F01200B4C1BB
:1008300017F1B5C118F1450E0101196FFF0E1A6FBE
:10084000AFECC1F0010117511811D8A414D07F806A
:100850007F925E82000EB26F000EB36F020EEAEC62
:100860009EF0D40E0101826FF90E836F9FEC87F02A
:10087000E9ECC5F01200B4C117F1B5C118F1CD0E05
:100880000101196FFE0E1A6FAFECC1F00101175193
:100890001811D8A425D05EA211D0000EB26F000EA0
:1008A000B36F020EEAEC9EF05F0E0101826FFC0E48
:1008B000836F9FEC87F0E9ECC5F01200000E010198
:1008C000B26F000EB36F010EEAEC9EF0420E010112
:1008D000826FFC0E836F9FEC87F0E9ECC5F012008D
:1008E000B4C117F1B5C118F1C10E0101196FFD0EA8
:1008F0001A6FAFECC1F0010117511811D8A439D00B
:100900005EB27FB011D0000EB26F000EB36F020E58
:10091000EAEC9EF0050E0101826FFC0E836F9FECE6
:1009200087F0E9ECC5F012005EA211D0000EB26FA4
:10093000000EB36F030EEAEC9EF0ED0E0101826F24
:10094000F70E836F9FEC87F0E9ECC5F01200000E04
:100950000101B26F000EB36F010EEAEC9EF0FE0EC5
:100960000101826FF90E836F9FEC87F0E9ECC5F00F
:100970001200B4C117F1B5C118F12C0E0101196FA5
:10098000FF0E1A6FAFECC1F0010117511811D8A476
:1009900014D07F927F905E92000EB26F000EB36F04
:1009A000010EEAEC9EF0B00E0101826FFC0E836F27
:1009B0009FEC87F0E9ECC5F01200B4C126F1B5C197
:1009C00027F1C90E0101286FFC0E296F68ECBDF0FC
:1009D000010126512711D8B431D1000E0301A66FB1
:1009E000000EA56FA6BF06D0A6511FE1030EA55DA0
:1009F000D8B01BD0180EA5250101B66F000E03015B
:100A0000A6210101B76FB651B425D96EB751B521F2
:100A1000DA6EA20E0301A525E16E030EA621E26E99
:100A2000DFCFE7FFA54BA62BDDD7A20E01011D6F7F
:100A3000030E1E6F5DECBBF01DC1A7F31EC1A8F332
:100A40000301A8BF06D0A8510BE1640EA75DD8B082
:100A500007D0A8BF05D0A8512BE1A705D8B028D052
:100A6000000E0101B26F000EB36F010EEAEC9EF0B2
:100A7000A80E0101826FF40E836F9FEC87F0000EC9
:100A80000101B26F000EB36F030EEAEC9EF0420E4E
:100A90000101826FF40E836F9FEC87F04B0E010112
:100AA000826FF90E836F9FEC87F0E9ECC5F01200BE
:100AB000000E0101416F000E426FC80E436F420EDF
:100AC000446F000E2D6F000E2E6FC80E2F6F420E5A
:100AD000306FA7C317F1A8C318F1000E18BFFF0E9F
:100AE000196F1A6F010E15ECB4F017C125F118C17A
:100AF00026F119C127F11AC128F175ECC4F025C1FE
:100B000029F126C12AF127C12BF128C12CF1EFECE4
:100B1000A3F029C13DF12AC13EF12BC13FF12CC107
:100B200040F1F3ECACF03DC156F13EC157F13FC18D
:100B300058F140C159F1DB0E01015A6F0F0E5B6F86
:100B4000490E5C6F400E5D6F9EECA0F056C1F2F056
:100B500057C1F3F058C1F4F059C1F5F0F2C056F1A5
:100B6000F3C057F1F4C058F1F5C059F1E10E01019D
:100B70005A6F2E0E5B6F650E5C6F420E5D6F9EECC2
:100B8000A0F056C196F357C197F358C198F359C1D5
:100B900099F3A7C3B6F1A8C3B7F10101B61FB71FF8
:100BA000B64BB72B640EB625176F000EB721186F22
:100BB000020E1A6F8F0E196FD0ECC4F017C1F0F04F
:100BC00018C1F1F0000E0101B26F000EB36F020EFA
:100BD000EAEC9EF0130E0101826FFB0E836FA7C338
:100BE00084F1A8C385F19FEC87F01C0E0101826F90
:100BF000F60E836FF2C084F1F3C085F1F4C086F184
:100C0000F5C087F196C388F197C389F198C38AF13B
:100C100099C38BF19FEC87F0530E0101826FF50EA3
:100C2000836FF0C084F1F1C085F1F0C086F1F1C0AE
:100C300087F19FEC87F0E9ECC5F01200B4C117F121
:100C4000B5C118F1350E0101196FFE0E1A6FAFEC28
:100C5000C1F0010117511811D8A419D0000EB26FBC
:100C6000000EB36F020EEAEC9EF0D40E0101826F0B
:100C7000F60E836F4CC284F14DC285F14EC286F1EF
:100C80004FC287F19FEC87F0E9ECC5F01200B4C1C8
:100C900017F1B5C118F1DB0E0101196FFE0E1A6FC5
:100CA000AFECC1F0010117511811D8A419D0000EF2
:100CB000B26F000EB36F020EEAEC9EF0220E01013D
:100CC000826FF80E836F48C284F149C285F14AC22F
:100CD00086F14BC287F19FEC87F0E9ECC5F012007A
:100CE000B4C117F1B5C118F1E30E0101196FFD0E82
:100CF0001A6FAFECC1F0010117511811D8A430D010
:100D0000430EF66EE90EF76E000EF86E0900F5CF91
:100D100019F10A00F5CF1AF135ECC1F019C19AF3B7
:100D20001AC19BF31BC19CF31CC19DF3000E010172
:100D3000B26F000EB36F060EEAEC9EF08B0E01014F
:100D4000826FF80E836F9AC384F19BC385F19CC3B5
:100D500086F19DC387F19FEC87F0E9ECC5F01200A6
:100D6000B4C117F1B5C118F15C0E0101196FFF0E86
:100D70001A6FAFECC1F0010117511811D8A430D08F
:100D8000410EF66EE90EF76E000EF86E0900F5CF13
:100D900019F10A00F5CF1AF135ECC1F019C19EF333
:100DA0001AC19FF31BC1A0F31CC1A1F3000E0101E6
:100DB000B26F000EB36F060EEAEC9EF0790E0101E1
:100DC000826FF90E836F9EC384F19FC385F1A0C328
:100DD00086F1A1C387F19FEC87F0E9ECC5F0120022
:100DE000B4C117F1B5C118F1F40E0101196FFD0E70
:100DF0001A6FAFECC1F0010117511811D8A43FD000
:100E0000000E1B6F000E1C6F000E1D6F000E1E6F7C
:100E1000430EF66EE90EF76E000EF86E0900F5CF80
:100E20001FF10A00F5CF20F187ECC1F0000E01019F
:100E30001B6F000E1C6F000E1D6F000E1E6F410E0B
:100E4000F66EE90EF76E000EF86E0900F5CF1FF191
:100E50000A00F5CF20F187ECC1F0000E0101B26F5E
:100E6000000EB36F020EEAEC9EF0C40E0101826F19
:100E7000FB0E836F9FEC87F0E9ECC5F01200B4C164
:100E800017F1B5C118F1AB0E0101196FFF0E1A6F02
:100E9000AFECC1F0010117511811D8A41200000ED7
:100EA000B26F000EB36F030EEAEC9EF0950E0101D7
:100EB000826FE90E836F9FEC87F003ECC6F0800E23
:100EC0000101826FF70E836F9FEC87F0000E010126
:100ED000B26F000EB36F020EEAEC9EF05B0E0101E2
:100EE000826FF60E836F9FEC87F0000E0101B26FE8
:100EF000000EB36F060EEAEC9EF0A20E0101826FA7
:100F0000FA0E836F9FEC87F0000E0101B26F000EA6
:100F1000B36F010EEAEC9EF01D0E0101826FF90E17
:100F2000836F9FEC87F0E9ECC5F0240E0101826F1E
:100F3000FC0E836F9FEC87F003ECC6F01200840E6A
:100F400001019B6F010E9C6F67EF8EF0250EB119AA
:100F5000D8B405D0B1511BECC6F067EF8EF0000E8F
:100F60000101AE6F000EAD6F000EAC6F000EAB6FE7
:100F700004D00101AB85824B832B82C1F6FF83C174
:100F8000F7FF000EF86E0D0EF76403D00800F55061
:100F900005D0F6CFE9FFF7CFEAFFEF50300AD8B41B
:100FA000E8D782C1F6FF83C1F7FF000EF86E0D0E81
:100FB000F76403D00800F55005D0F6CFE9FFF7CF6E
:100FC000EAFFEF5057ECC5F0D8A04CD0000E01015D
:100FD000AE6F000EAD6FADC117F1AEC118F1000ECE
:100FE00001011A6F0A0E196FD0ECC4F017C1ADF1F0
:100FF00018C1AEF1D00E01018C6FFF0E8D6F82C152
:10100000F6FF83C1F7FF000EF86E0D0EF76403D0F4
:101010000800F55005D0F6CFE9FFF7CFEAFFEF5013
:1010200001018E6F8F6B8C518E278D518F238E51C6
:10103000AD278F51AE23824B832B82C1F6FF83C134
:10104000F7FF000EF86E0D0EF76403D00800F550A0
:1010500005D0F6CFE9FFF7CFEAFFEF5057ECC5F028
:10106000D8B0B9D782C1F6FF83C1F7FF000EF86E82
:101070000D0EF76403D00800F55005D0F6CFE9FF58
:10108000F7CFEAFFEF502E0AD8A449D00101AC8D6A
:10109000824B832B000EB06F000EAF6F2AD0AFC112
:1010A00017F1B0C118F1000E01011A6F0A0E196F85
:1010B000D0ECC4F082C1F6FF83C1F7FF000EF86EDA
:1010C0000D0EF76403D00800F55005D0F6CFE9FF08
:1010D000F7CFEAFFEF5001018C6F8C511727000EFC
:1010E0001823D00E1725AF6FFF0E1821B06F824B5B
:1010F000832B82C1F6FF83C1F7FF000EF86E0D0E41
:10110000F76403D00800F55005D0F6CFE9FFF7CF1C
:10111000EAFFEF5057ECC5F0D8A0A4D0C0D7000E1E
:101120000101B06F000EAF6FAC899CD0AC85D1D0FF
:10113000AB8FCFD09BC1D9FF9CC1DAFFDECF97F137
:10114000DDCF98F1020E9B27000E9C23975198113A
:10115000D8A404D0860E976FFF0E986F000E9A6F7A
:10116000000E996F03D00101994B9A2B9951972545
:101170008C6F9A5198218D6F8CC1F6FF8DC1F7FF4E
:10118000000EF86E0D0EF76403D00800F55005D080
:10119000F6CFE9FFF7CFEAFFEF500009D8A4E3D775
:1011A0000101AF51B011D8B40AD09951AF5D9A5135
:1011B000B059D8B004D0AFC199F1B0C19AF1AD51D6
:1011C000995DAE519A59D8B005D09951AD5F9A51F9
:1011D000AE5B08D0000EAE6F000EAD6F03D0200ED8
:1011E0001BECC6F00101AD07D8A0AE07AD29F7E1B1
:1011F000AE29D8B417D0F3D797C1F6FF98C1F7FF3F
:10120000000EF86E0D0EF76403D00800F55005D0FF
:10121000F6CFE9FFF7CFEAFFEF501BECC6F0010174
:10122000974B982B9907D8A09A079929E5E19A2915
:10123000D8B467EF8EF0E0D79BC1D9FF9CC1DAFF2D
:10124000DF50B16F020E9B27000E9C23B10E976FEB
:10125000010E986F000E9A6F010E996FA1D7C00E04
:10126000AB1337D0010182518C6F83518D6F824B4C
:10127000832B8CC1F6FF8DC1F7FF000EF86E0D0EAB
:10128000F76403D00800F55005D0F6CFE9FFF7CF9B
:10129000EAFFEF500101B16FB151000AD8B412005A
:1012A000580AD8B445D73B0AD8B4C6D7070AD8B429
:1012B00010D0020AD8B43AD70F0AD8B40AD01A0A02
:1012C000D8B438D7060AD8B4CAD70D0AD8B430D79C
:1012D000BDD7070EAC15D8B43DD3ACA904D0000ED1
:1012E000B06F060EAF6F9BC1D9FF9CC1DAFFDECF96
:1012F000A3F1DECFA4F1DECFA5F1DECFA6F1040E7F
:101300009B27000E9C23A6AF15D0A3C125F1A4C135
:1013100026F1A5C127F1A6C128F175ECC4F025C1BD
:10132000A3F126C1A4F127C1A5F128C1A6F1030E9E
:101330000101AB13000EA26F000EA16FA351A41107
:10134000A511A611D8B484D0A535A635820FA16FFA
:10135000A26BFF0EA223A107D8A0A207A1C117F17B
:10136000A2C118F1000E1A6F030E196FD0ECC4F071
:1013700017C1A1F118C1A2F1A1C11DF1A2C11EF1B5
:10138000000E0101206F0A0E1F6FAEECBDF01DC1F3
:10139000A1F11EC1A2F10101A2AF03D0A107D8A003
:1013A000A207A151000858EC9AF06FC19DF170C1DD
:1013B0009EF171C19FF172C1A0F19DC156F19EC114
:1013C00057F19FC158F1A0C159F1A3C15AF1A4C16D
:1013D0005BF1A5C15CF1A6C15DF19EECA0F056C128
:1013E0009DF157C19EF158C19FF159C1A0F19DC116
:1013F00017F19EC118F19FC119F1A0C11AF1000E99
:1014000001011B6F000E1C6F800E1D6F3F0E1E6FC3
:1014100055ECB8F00101D8B004D0A107D8A0A207BC
:1014200017D09DC117F19EC118F19FC119F1A0C13C
:101430001AF1000E1B6F000E1C6F200E1D6F410E67
:101440001E6F55ECB8F00101D8A002D0A14BA22B21
:10145000B0BF06D0B05121E10D0EAF5DD8B01DD0A8
:10146000A3C129F1A4C12AF1A5C12BF1A6C12CF178
:10147000AF5190ECABF06FC12DF170C12EF171C185
:101480002FF172C130F1EFECA3F029C1A3F12AC111
:10149000A4F12BC1A5F12CC1A6F10101A2BF06D078
:1014A000A25122E10A0EA15DD8B01ED0A351A41111
:1014B000A511A611D8B462D0A3C178F1A4C179F165
:1014C000A5C17AF1A6C17BF17FECBAF00101785198
:1014D00079117A117B11D8B4A2BF50D0A25104E186
:1014E000020EA15DD8A04AD09DC117F19EC118F18E
:1014F0009FC119F1A0C11AF15F0E1B6F700E1C6F16
:10150000890E1D6F400E1E6F55ECB8F00101D8B06A
:1015100002D0F70E01D0F80EA127FF0EA223A15191
:1015200058EC9AF06FC19DF170C19EF171C19FF1AD
:1015300072C1A0F1A3C117F1A4C118F1A5C119F19D
:10154000A6C11AF19DC11BF19EC11CF19FC11DF1E5
:10155000A0C11EF19AECB6F017C1A7F118C1A8F10D
:1015600019C1A9F11AC1AAF1000E0101A36F000E61
:10157000A46F000EA56F000EA66F3CD0A3C178F13A
:10158000A4C179F1A5C17AF1A6C17BF17FECBAF0D3
:1015900078C1A7F179C1A8F17AC1A9F17BC1AAF1FB
:1015A000A3C13DF1A4C13EF1A5C13FF1A6C140F1E7
:1015B000A7C117F1A8C118F1A9C119F1AAC11AF15F
:1015C000000E15ECB4F017C141F118C142F119C178
:1015D00043F11AC144F1B8ECC2F03DC1A3F13EC1E0
:1015E000A4F13FC1A5F140C1A6F1000E0101A26F17
:1015F000000EA16F010EB16F0A0EB119D8B41BD045
:10160000B151040DF90EF324F66EE80EF420F76ED6
:10161000F86A000EF8220900F550A75D0900F550A0
:10162000A8590900F550A9590900F550AA59D8A0A0
:1016300002D0B12BE1D7B1C18CF18D6B8CBF8D077E
:10164000AF518C27B0518D23A1518C27A2518D23EE
:101650008C51AD5F8D51AE5BAF51B011D8B403D09A
:10166000AD07D8A0AE07030EAB158C6F000EAC15FE
:101670008D6F8C518D11D8B403D0AD07D8A0AE07B3
:10168000ABA525D0030EAB158C6F000EAC158D6F7E
:101690008C518D11D8B40BD02D0E1BECC6F007D099
:1016A000300E1BECC6F00101AD07D8A0AE0701015A
:1016B000AEBF6CD0AE51F4E1AD05D8A067D0F0D785
:1016C000200E1BECC6F00101AD07D8A0AE07AEBFDF
:1016D00005D0AE51F5E1AD05D8B0F2D7030EAB158C
:1016E0008C6F000EAC158D6F8C518D11D8B44ED00F
:1016F0002D0E1BECC6F04AD0A7C117F1A8C118F1F6
:10170000A9C119F1AAC11AF10101B151040DF90ED3
:10171000F324F66EE80EF420F76EF86A000EF82255
:101720000900F5CF1BF10900F5CF1CF10900F5CF39
:101730001DF10A00F5CF1EF1F1ECBDF017C19DF1CE
:1017400018C19EF119C19FF11AC1A0F19DC124F1E8
:101750009EC125F19FC126F1A0C127F10A0E01010A
:10176000286F000E296F000E2A6F000E2B6F42ECBF
:10177000C0F024C19DF125C19EF126C19FF127C172
:10178000A0F101019D51300F1BECC6F00101B10722
:10179000B129D8B408D0B0D7300E1BECC6F0010187
:1017A000A107D8A0A207A2BF05D0A251F5E1A105CB
:1017B000D8B0F2D7B0BF09D0B05104E1090EAF5D87
:1017C000D8A003D0080EB16F02D0AFC1B1F1B151B2
:1017D000AF5F000EB1BFFF0EB05BB151D8B403D004
:1017E0002E0E1BECC6F00101B15158EC9AF06FC1FE
:1017F00092F170C193F171C194F172C195F1A3C1DD
:101800005AF1A4C15BF1A5C15CF1A6C15DF192C121
:1018100056F193C157F194C158F195C159F19EEC1D
:10182000A0F056C178F157C179F158C17AF159C188
:101830007BF17FECBAF078C1A7F179C1A8F17AC148
:10184000A9F17BC1AAF174D0A7C117F1A8C118F101
:10185000A9C119F1AAC11AF10101B151040DF90E82
:10186000F324F66EE80EF420F76EF86A000EF82204
:101870000900F5CF1BF10900F5CF1CF10900F5CFE8
:101880001DF10A00F5CF1EF1F1ECBDF017C19DF17D
:1018900018C19EF119C19FF11AC1A0F19DC124F197
:1018A0009EC125F19FC126F1A0C127F10A0E0101B9
:1018B000286F000E296F000E2A6F000E2B6F42EC6E
:1018C000C0F024C19DF125C19EF126C19FF127C121
:1018D000A0F101019D51300F1BECC6F0A7C124F10E
:1018E000A8C125F1A9C126F1AAC127F10101B15171
:1018F000040DF90EF324F66EE80EF420F76EF86A84
:10190000000EF8220900F5CF28F10900F5CF29F1E2
:101910000900F5CF2AF10A00F5CF2BF142ECC0F017
:1019200024C1A7F125C1A8F126C1A9F127C1AAF1B7
:101930000101B107B129D8B408D086D7300E1BEC0D
:10194000C6F00101AF07D8A0B007AF51B011D8B4AD
:10195000BED1F4D7C00EAB158C6F000EAC158D6FD9
:101960008C518D11D8A41ED09BC1D9FF9CC1DAFF28
:10197000DECFA7F1DDCFA8F1000EA8BFFF0EA96F43
:10198000AA6F020E9B27000E9C23AAAF1DD0030E48
:10199000AB13AA1FA91FA81FA76D000EA823A92378
:1019A000AA2312D09BC1D9FF9CC1DAFFDECF8CF1F4
:1019B000DDCF8DF18CC1A7F18DC1A8F1A96BAA6B08
:1019C000020E9B27000E9C23AF51B011D8A44BD020
:1019D000A751A811A911AA11D8A445D0AF4BB02B7B
:1019E00042D0010EB16F0A0EB119D8B447D0B1512F
:1019F000040DF90EF324F66EE80EF420F76EF86A83
:101A0000000EF8220900F550A75D0900F550A8590D
:101A10000900F550A9590900F550AA59D8A02ED0AF
:101A2000B12BE1D7010EB16F080EB119D8B426D091
:101A3000B151040D210EF324F66EE90EF420F76E79
:101A4000F86A000EF8220900F550A75D0900F5506C
:101A5000A8590900F550A9590900F550AA59D8A06C
:101A60000DD0B12BE1D7AB51C00B000AD8B4B9D718
:101A7000800AD8B4D7D7400AD8B4B3D7800EB1BF44
:101A80007F0E8C6FAF51B15DB051800A8C59D8B0C8
:101A900003D0AFC1B1F110D0B051800A8C6FB151F9
:101AA000AF5D800EB1BF7F0E8C59D8B005D0B1515B
:101AB000AF6FB06BAFBFB007AD51AE11D8B40DD0A2
:101AC000030EAB158C6F000EAC158D6F8C518D1104
:101AD000D8B403D0AD07D8A0AE07ACAD13D0AD518C
:101AE000AF5DB051800A8C6FAE51800A8C59D8B06E
:101AF00005D0AF51AD5FB051AE5B04D0000EAE6FFC
:101B0000000EAD6F800EB1BF7F0E8C6FAD51B15D19
:101B1000AE51800A8C59D8B007D0B151AD5F000EDC
:101B2000B1BFFF0EAE5B04D0000EAE6F000EAD6F06
:101B3000ABA51AD0030EAB158C6F000EAC158D6FD4
:101B40008C518D11D8B403D02D0E1BECC6F00101C1
:101B5000AD51AE11D8B4B2D0300E1BECC6F00101BD
:101B6000AD07D8A0AE07F4D7AD51AE11D8B40BD0A5
:101B7000200E1BECC6F00101AD07D8A0AE07AD5199
:101B8000AE11D8A4F5D7030EAB158C6F000EAC15B3
:101B90008D6F8C518D11D8B491D02D0E1BECC6F0E9
:101BA0008DD0AFC18CF1B0C18DF10101D8908C37CF
:101BB0008D37D8908C378D37F90E8C25F66EE80E60
:101BC0008D21F76EF86A000EF8220900F5CF1BF19F
:101BD0000900F5CF1CF10900F5CF1DF10A00F5CF82
:101BE0001EF1A7C117F1A8C118F1A9C119F1AAC125
:101BF0001AF1F1ECBDF017C124F118C125F119C19A
:101C000026F11AC127F10A0E0101286F000E296F73
:101C1000000E2A6F000E2B6F42ECC0F00101245120
:101C2000300FB16F48D0A7C117F1A8C118F1A9C1F1
:101C300019F1AAC11AF1AFC18CF1B0C18DF1D890E0
:101C40008C378D37D8908C378D37210E8C25F66EDA
:101C5000E90E8D21F76EF86A000EF8220900F5CF23
:101C60001BF10900F5CF1CF10900F5CF1DF10A00A9
:101C7000F5CF1EF1F1ECBDF0010117510F0B966F7E
:101C80009651010D9F0EF324F66EFD0EF420F76EB3
:101C9000F86A000EF8220800F5CFB1F10CD001016E
:101CA000AB51C00B000AD8B47CD7800AD8B4BBD7DC
:101CB000400AD8B476D7B1511BECC6F00101AF078A
:101CC000D8A0B007AF29EBE1B029D8A4E8D701012B
:101CD00082518C6F83518D6F824B832B8CC1F6FFA9
:101CE0008DC1F7FF000EF86E0D0EF76403D00800EB
:101CF000F55005D0F6CFE9FFF7CFEAFFEF5001012D
:101D0000B16FB151D8B41200A6EF87F08A0E00016E
:101D1000996F000E9A6F49EF95F0250EAF19D8B460
:101D200005D0AF5159ECC6F049EF95F0000E000117
:101D3000AC6F000EAB6F000EAA6F000EA96F04D03F
:101D40000001A985884B892B88C0F6FF89C0F7FF61
:101D5000000EF86E0D0EF76403D00800F55005D0A4
:101D6000F6CFE9FFF7CFEAFFEF50300AD8B4E8D753
:101D700088C0F6FF89C0F7FF000EF86E0D0EF764FD
:101D800003D00800F55005D0F6CFE9FFF7CFEAFF02
:101D9000EF5078ECC5F0D8A04BD0000E0001AC6F2E
:101DA000000EAB6FABC001F0ACC002F0000E046ED1
:101DB0000A0E036E32ECC5F001C0ABF002C0ACF00D
:101DC000D00E00018A6FFF0E8B6F88C0F6FF89C0AE
:101DD000F7FF000EF86E0D0EF76403D00800F55003
:101DE00005D0F6CFE9FFF7CFEAFFEF5000018C6F87
:101DF0008D6B8A518C278B518D238C51AB278D5144
:101E0000AC23884B892B88C0F6FF89C0F7FF000EF2
:101E1000F86E0D0EF76403D00800F55005D0F6CF2C
:101E2000E9FFF7CFEAFFEF5078ECC5F0D8B0BAD7AA
:101E300088C0F6FF89C0F7FF000EF86E0D0EF7643C
:101E400003D00800F55005D0F6CFE9FFF7CFEAFF41
:101E5000EF502E0AD8A448D00001AA8D884B892BB8
:101E6000000EAE6F000EAD6F29D0ADC001F0AEC058
:101E700002F0000E046E0A0E036E32ECC5F088C04C
:101E8000F6FF89C0F7FF000EF86E0D0EF76403D061
:101E90000800F55005D0F6CFE9FFF7CFEAFFEF5085
:101EA00000018A6F8A510126000E0222D00E012401
:101EB000AD6FFF0E0220AE6F884B892B88C0F6FFF6
:101EC00089C0F7FF000EF86E0D0EF76403D008000E
:101ED000F55005D0F6CFE9FFF7CFEAFFEF5078ECE9
:101EE000C5F0D8A0A4D0C1D7000E0001AE6F000E7F
:101EF000AD6FAA899CD0AA85D1D0A98FCFD099C027
:101F0000D9FF9AC0DAFFDECF95F0DDCF96F0020E52
:101F10009927000E9A2395519611D8A404D0860EC5
:101F2000956FFF0E966F000E986F000E976F03D09F
:101F30000001974B982B975195258A6F98519621C0
:101F40008B6F8AC0F6FF8BC0F7FF000EF86E0D0E88
:101F5000F76403D00800F55005D0F6CFE9FFF7CFBE
:101F6000EAFFEF500009D8A4E3D70001AD51AE114C
:101F7000D8B40AD09751AD5D9851AE59D8B004D0BD
:101F8000ADC097F0AEC098F0AB51975DAC51985989
:101F9000D8B005D09751AB5F9851AC5B08D0000E1C
:101FA000AC6F000EAB6F03D0200E59ECC6F00001F1
:101FB000AB07D8A0AC07AB29F7E1AC29D8B417D050
:101FC000F3D795C0F6FF96C0F7FF000EF86E0D0E22
:101FD000F76403D00800F55005D0F6CFE9FFF7CF3E
:101FE000EAFFEF5059ECC6F00001954B962B97078E
:101FF000D8A098079729E5E19829D8B449EF95F03A
:10200000E0D799C0D9FF9AC0DAFFDF50AF6F020E58
:102010009927000E9A23AF0E956F000E966F000E53
:10202000986F010E976FA1D7C00EA91337D000018A
:1020300088518A6F89518B6F884B892B8AC0F6FF34
:102040008BC0F7FF000EF86E0D0EF76403D008008A
:10205000F55005D0F6CFE9FFF7CFEAFFEF500001CA
:10206000AF6FAF51000AD8B41200580AD8B445D7A0
:102070003B0AD8B4C6D7070AD8B410D0020AD8B4DD
:102080003AD70F0AD8B40AD01A0AD8B438D7060AF1
:10209000D8B4CAD70D0AD8B430D7BDD7070EAA1501
:1020A000D8B43BD3AAA904D0000EAE6F060EAD6F14
:1020B00099C0D9FF9AC0DAFFDECFA5F0DECFA6F037
:1020C000DECFA7F0DECFA8F0040E9927000E9A23EA
:1020D000A8AF15D0A5C02CF0A6C02DF0A7C02EF03B
:1020E000A8C02FF0A4ECC4F02CC0A5F02DC0A6F021
:1020F0002EC0A7F02FC0A8F0030E0001A913000EF8
:10210000A06F000E9F6FA551A611A711A811D8B4FA
:1021100082D0A735A835820F9F6FA06BFF0EA0233A
:102120009F07D8A0A0079FC001F0A0C002F0000E3A
:10213000046E030E036E32ECC5F001C09FF002C0C6
:10214000A0F09FC007F0A0C008F0000E0A6E0A0EB3
:10215000096E33ECBEF007C09FF008C0A0F000018C
:10216000A0AF03D09F07D8A0A0079F510008AAECFA
:102170009CF049C09BF04AC09CF04BC09DF04CC005
:102180009EF09BC030F09CC031F09DC032F09EC0EC
:1021900033F0A5C034F0A6C035F0A7C036F0A8C013
:1021A00037F047ECA2F030C09BF031C09CF032C059
:1021B0009DF033C09EF09BC034F09CC035F09DC0B4
:1021C00036F09EC037F0000E386E000E396E800E6D
:1021D0003A6E3F0E3B6EE6ECB8F0D8B005D0000189
:1021E0009F07D8A0A00717D09BC034F09CC035F043
:1021F0009DC036F09EC037F0000E386E000E396E6E
:10220000200E3A6E410E3B6EE6ECB8F0D8A003D03B
:1022100000019F4BA02B0001AEBF06D0AE5121E1C3
:102220000D0EAD5DD8B01DD0A5C056F0A6C057F0BC
:10223000A7C058F0A8C059F0AD51A8ECAFF049C004
:102240005AF04AC05BF04BC05CF04CC05DF08EECC5
:10225000A5F056C0A5F057C0A6F058C0A7F059C0C9
:10226000A8F00001A0BF06D0A05122E10A0E9F5D98
:10227000D8B01ED0A551A611A711A811D8B463D00B
:10228000A5C06CF0A6C06DF0A7C06EF0A8C06FF03E
:10229000EEECBAF000016C516D116E116F11D8B4F3
:1022A000A0BF51D0A05104E1020E9F5DD8A04BD039
:1022B0009BC034F09CC035F09DC036F09EC037F016
:1022C0005F0E386E700E396E890E3A6E400E3B6EA0
:1022D000E6ECB8F0D8B003D00001F70E02D0000150
:1022E000F80E9F27FF0EA0239F51AAEC9CF049C037
:1022F0009BF04AC09CF04BC09DF04CC09EF0A5C026
:1023000001F0A6C002F0A7C003F0A8C004F09BC073
:1023100005F09CC006F09DC007F09EC008F02FECB1
:10232000B7F001C0A1F002C0A2F003C0A3F004C046
:10233000A4F0000E0001A56F000EA66F000EA76F9F
:10234000000EA86F3CD0A5C06CF0A6C06DF0A7C071
:102350006EF0A8C06FF0EEECBAF06CC0A1F06DC0EA
:10236000A2F06EC0A3F06FC0A4F0A5C080F0A6C01C
:1023700081F0A7C082F0A8C083F0A1C005F0A2C080
:1023800006F0A3C007F0A4C008F0000EBFECB4F044
:1023900005C084F006C085F007C086F008C087F04D
:1023A000DCECC2F080C0A5F081C0A6F082C0A7F02E
:1023B00083C0A8F0000E0001A06F000E9F6F010EF9
:1023C000AF6F0A0EAF19D8B41BD0AF51040DF90E80
:1023D000F324F66EE80EF420F76EF86A000EF82289
:1023E0000900F550A15D0900F550A2590900F5500A
:1023F000A3590900F550A459D8A002D0AF2BE1D7BA
:10240000AFC08AF08B6B8ABF8B07AD518A27AE5164
:102410008B239F518A27A0518B238A51AB5F8B510D
:10242000AC5BAD51AE11D8B403D0AB07D8A0AC07AC
:10243000030EA9158A6F000EAA158B6F8A518B1196
:10244000D8B403D0AB07D8A0AC07A9A525D0030EFC
:10245000A9158A6F000EAA158B6F8A518B11D8B4FB
:102460000BD02D0E59ECC6F007D0300E59ECC6F04B
:102470000001AB07D8A0AC070001ACBF6BD0AC51DA
:10248000F4E1AB05D8A066D0F0D7200E59ECC6F029
:102490000001AB07D8A0AC07ACBF05D0AC51F5E14B
:1024A000AB05D8B0F2D7030EA9158A6F000EAA1596
:1024B0008B6F8A518B11D8B44DD02D0E59ECC6F0CC
:1024C00049D0A1C001F0A2C002F0A3C003F0A4C093
:1024D00004F00001AF51040DF90EF324F66EE80E7E
:1024E000F420F76EF86A000EF8220900F5CF05F027
:1024F0000900F5CF06F00900F5CF07F00A00F5CF87
:1025000008F075ECBEF001C09BF002C09CF003C067
:102510009DF004C09EF09BC00EF09CC00FF09DC0CB
:1025200010F09EC011F00A0E126E000E136E000E17
:10253000146E000E156E76ECC0F00EC09BF00FC04E
:102540009CF010C09DF011C09EF000019B51300F17
:1025500059ECC6F00001AF07AF29D8B408D0B1D705
:10256000300E59ECC6F000019F07D8A0A007A0BF0D
:1025700005D0A051F5E19F05D8B0F2D7AEBF09D084
:10258000AE5104E1090EAD5DD8A003D0080EAF6FC7
:1025900002D0ADC0AFF0AF51AD5F000EAFBFFF0EC8
:1025A000AE5BAF51D8B403D02E0E59ECC6F000018B
:1025B000AF51AAEC9CF049C090F04AC091F04BC0DA
:1025C00092F04CC093F0A5C034F0A6C035F0A7C07F
:1025D00036F0A8C037F090C030F091C031F092C012
:1025E00032F093C033F047ECA2F030C06CF031C051
:1025F0006DF032C06EF033C06FF0EEECBAF06CC02C
:10260000A1F06DC0A2F06EC0A3F06FC0A4F073D0B3
:10261000A1C001F0A2C002F0A3C003F0A4C004F066
:102620000001AF51040DF90EF324F66EE80EF4200C
:10263000F76EF86A000EF8220900F5CF05F00900E0
:10264000F5CF06F00900F5CF07F00A00F5CF08F046
:1026500075ECBEF001C09BF002C09CF003C09DF081
:1026600004C09EF09BC00EF09CC00FF09DC010F007
:102670009EC011F00A0E126E000E136E000E146E44
:10268000000E156E76ECC0F00EC09BF00FC09CF0F3
:1026900010C09DF011C09EF000019B51300F59EC0D
:1026A000C6F0A1C00EF0A2C00FF0A3C010F0A4C0ED
:1026B00011F00001AF51040DF90EF324F66EE80E8F
:1026C000F420F76EF86A000EF8220900F5CF12F038
:1026D0000900F5CF13F00900F5CF14F00A00F5CF8B
:1026E00015F076ECC0F00EC0A1F00FC0A2F010C043
:1026F000A3F011C0A4F00001AF07AF29D8B408D0EF
:1027000087D7300E59ECC6F00001AD07D8A0AE0750
:10271000AD51AE11D8B4BDD1F4D7C00EA9158A6F92
:10272000000EAA158B6F8A518B11D8A41ED099C0A8
:10273000D9FF9AC0DAFFDECFA1F0DDCFA2F0000E04
:10274000A2BFFF0EA36FA46F020E9927000E9A235B
:10275000A4AF1DD0030EA913A41FA31FA21FA16D18
:10276000000EA223A323A42312D099C0D9FF9AC09C
:10277000DAFFDECF8AF0DDCF8BF08AC0A1F08BC00C
:10278000A2F0A36BA46B020E9927000E9A23AD5101
:10279000AE11D8A44BD0A151A211A311A411D8A459
:1027A00045D0AD4BAE2B42D0010EAF6F0A0EAF1924
:1027B000D8B447D0AF51040DF90EF324F66EE80EED
:1027C000F420F76EF86A000EF8220900F550A15DBA
:1027D0000900F550A2590900F550A3590900F55018
:1027E000A459D8A02ED0AF2BE1D7010EAF6F080EA1
:1027F000AF19D8B426D0AF51040D210EF324F66ED4
:10280000E90EF420F76EF86A000EF8220900F55080
:10281000A15D0900F550A2590900F550A35909001E
:10282000F550A459D8A00DD0AF2BE1D7A951C00BBA
:10283000000AD8B4B9D7800AD8B4D7D7400AD8B4D8
:10284000B3D7800EAFBF7F0E8A6FAD51AF5DAE5173
:10285000800A8A59D8B003D0ADC0AFF010D0AE51C5
:10286000800A8A6FAF51AD5D800EAFBF7F0E8A596F
:10287000D8B005D0AF51AD6FAE6BADBFAE07AB51A9
:10288000AC11D8B40DD0030EA9158A6F000EAA158D
:102890008B6F8A518B11D8B403D0AB07D8A0AC078B
:1028A000AAAD13D0AB51AD5DAE51800A8A6FAC5169
:1028B000800A8A59D8B005D0AD51AB5FAE51AC5B40
:1028C00004D0000EAC6F000EAB6F800EAFBF7F0E5A
:1028D0008A6FAB51AF5DAC51800A8A59D8B007D02E
:1028E000AF51AB5F000EAFBFFF0EAC5B04D0000E6C
:1028F000AC6F000EAB6FA9A51AD0030EA9158A6F95
:10290000000EAA158B6F8A518B11D8B403D02D0EEF
:1029100059ECC6F00001AB51AC11D8B4B1D0300EB7
:1029200059ECC6F00001AB07D8A0AC07F4D7AB5107
:10293000AC11D8B40BD0200E59ECC6F00001AB0797
:10294000D8A0AC07AB51AC11D8A4F5D7030EA9158C
:102950008A6F000EAA158B6F8A518B11D8B490D054
:102960002D0E59ECC6F08CD0ADC08AF0AEC08BF005
:102970000001D8908A378B37D8908A378B37F90E79
:102980008A25F66EE80E8B21F76EF86A000EF822A3
:102990000900F5CF05F00900F5CF06F00900F5CFE5
:1029A00007F00A00F5CF08F0A1C001F0A2C002F0C4
:1029B000A3C003F0A4C004F075ECBEF001C00EF09B
:1029C00002C00FF003C010F004C011F00A0E126E26
:1029D000000E136E000E146E000E156E76ECC0F035
:1029E0000E50300F0001AF6F48D0A1C001F0A2C05F
:1029F00002F0A3C003F0A4C004F0ADC08AF0AEC0E2
:102A00008BF0D8908A378B37D8908A378B37210E46
:102A10008A25F66EE90E8B21F76EF86A000EF82211
:102A20000900F5CF05F00900F5CF06F00900F5CF54
:102A300007F00A00F5CF08F075ECBEF001500F0B5F
:102A40000001946F9451010D9F0EF324F66EFD0E5C
:102A5000F420F76EF86A000EF8220800F5CFAFF008
:102A60000CD00001A951C00B000AD8B47DD7800A50
:102A7000D8B4BBD7400AD8B477D7AF5159ECC6F019
:102A80000001AD07D8A0AE07AD29EBE1AE29D8A46F
:102A9000E8D7000188518A6F89518B6F884B892B49
:102AA0008AC0F6FF8BC0F7FF000EF86E0D0EF764BC
:102AB00003D00800F55005D0F6CFE9FFF7CFEAFFC5
:102AC000EF500001AF6FAF51D8B412008DEF8EF010
:102AD00076ECC6F05FCFD5F040EF9AF0DFECC5F0B2
:102AE00001C005F002C006F0076A086A000EBFECDC
:102AF000B4F005C030F006C031F007C032F008C0B5
:102B000033F00D0E346E680E356E530E366E3B0E7E
:102B1000376E47ECA2F030C0D3F131C0D4F132C0EF
:102B2000D5F133C0D6F10A0E346ED70E356E230EB2
:102B3000366E3C0E376ED3C138F0D4C139F0D5C1F2
:102B40003AF0D6C13BF0E6ECB8F0D8A005D053EC93
:102B5000C6F00009D8B407D07E865E800E012E9D97
:102B600073ECC6F012003F0E0101E86F12000D0E6B
:102B7000346E680E356E530E366E3B0E376EDFECDC
:102B8000C5F001C005F002C006F0076A086A000E31
:102B9000BFECB4F005C030F006C031F007C032F031
:102BA00008C033F047ECA2F030C056F031C057F007
:102BB00032C058F033C059F0D3C15AF0D4C15BF0E1
:102BC000D5C15CF0D6C15DF08EECA5F056C0E4F145
:102BD00057C0E5F158C0E6F159C0E7F16F0E136E2A
:102BE000120E146E030E156E400E166EE4C117F031
:102BF000E5C118F0E6C119F0E7C11AF04EECAEF0ED
:102C000013C058F214C059F215C05AF216C05BF244
:102C1000000E346E000E356E200E366E400E376E8E
:102C2000E4C138F0E5C139F0E6C13AF0E7C13BF064
:102C3000E6ECB8F0D8A019D0E4C134F0E5C135F025
:102C4000E6C136F0E7C137F0000E386E000E396E7F
:102C5000000E3A6E400E3B6EE6ECB8F0D8A005D000
:102C600053ECC6F00009D8B407D07E865E800E0112
:102C70002E9D73ECC6F01200220E0101E86F1200C7
:102C800058C234F059C235F05AC236F05BC237F040
:102C9000D5ECC5F001C005F002C006F0076A086A6D
:102CA000000EBFECB4F005C030F006C031F007C034
:102CB00032F008C033F047ECA2F030C0D6F031C09B
:102CC000D7F032C0D8F033C0D9F0D6C030F0D7C07A
:102CD00031F0D8C032F0D9C033F00D0E346E680E2A
:102CE000356ED30E366E3B0E376E47ECA2F030C019
:102CF000CFF131C0D0F132C0D1F133C0D2F1000EEA
:102D0000346E000E356E600E366E400E376ECFC1DB
:102D100038F0D0C139F0D1C13AF0D2C13BF0E6EC85
:102D2000B8F0D8A005D053ECC6F00009D8B407D04D
:102D30007E865E800E012E9D73ECC6F01200000EA2
:102D40000101E86F1200000E176EC00E186E7F0EA4
:102D5000196E440E1A6ECFC113F0D0C114F0D1C158
:102D600015F0D2C116F04EECAEF013C034F014C022
:102D700035F015C036F016C037F0D5ECC5F001C0FF
:102D800005F002C006F0076A086A000EBFECB4F056
:102D900005C030F006C031F007C032F008C033F093
:102DA00047ECA2F030C0D6F031C0D7F032C0D8F036
:102DB00033C0D9F0D6C030F0D7C031F0D8C032F02F
:102DC000D9C033F0350E346E5E0E356EF20E366EAF
:102DD0003F0E376E47ECA2F030C0C3F131C0C4F1F2
:102DE00032C0C5F133C0C6F17FB028D15EA2CDD0CC
:102DF000EE0E0001F05D7F0EF159D8B052D0C3C184
:102E0000C7F1C4C1C8F1C5C1C9F1C6C1CAF1F2C098
:102E1000B5F0F3C0B6F0F4C0B7F0F5C0B8F0C7C174
:102E2000B1F0C8C1B2F0C9C1B3F0CAC1B4F0FFEC8F
:102E3000B0F0B1C0DAF0B2C0DBF0B3C0DCF0B4C0C7
:102E4000DDF0C8C25AF0C9C25BF0CAC25CF0CBC2A6
:102E50005DF0DAC056F0DBC057F0DCC058F0DDC0E2
:102E600059F08EECA5F056C06CF057C06DF058C00C
:102E70006EF059C06FF0EEECBAF06CC076F06DC039
:102E800077F0BBECC4F0000176C005F077C006F027
:102E9000000E06BEFF0E076E086E010EBFECB4F00A
:102EA00063D0C3C199F0C4C19AF0C5C19BF0C6C13B
:102EB0009CF0F2C09DF0F3C09EF0F4C09FF0F5C00E
:102EC000A0F0B6ECBEF099C0C7F19AC0C8F19BC0A3
:102ED000C9F19CC0CAF1F2C0B5F0F3C0B6F0F4C0BD
:102EE000B7F0F5C0B8F0C7C1B1F0C8C1B2F0C9C100
:102EF000B3F0CAC1B4F0FFECB0F0B1C0DAF0B2C0C8
:102F0000DBF0B3C0DCF0B4C0DDF0C8C25AF0C9C217
:102F10005BF0CAC25CF0CBC25DF0DAC056F0DBC039
:102F200057F0DCC058F0DDC059F08EECA5F056C06B
:102F30006CF057C06DF058C06EF059C06FF0EEECF9
:102F4000BAF06CC076F06DC077F0BBECC4F0000155
:102F500076C005F077C006F0000E06BEFF0E076EC5
:102F6000086E010EBFECB4F005C0F6F006C0F7F035
:102F700007C0F8F008C0F9F0CCC250F2CDC251F24F
:102F8000CEC252F2CFC253F22CD0000E0101C76F55
:102F9000000EC86F000EC96F000ECA6F000E02014E
:102FA000506F000E516F000E526F000E536FC7C16D
:102FB000B1F0C8C1B2F0C9C1B3F0CAC1B4F0F2C037
:102FC000B5F0F3C0B6F0F4C0B7F0F5C0B8F0FFEC60
:102FD000B0F0B1C0F6F0B2C0F7F0B3C0F8F0B4C0D2
:102FE000F9F050C2B1F051C2B2F052C2B3F053C2C4
:102FF000B4F0F2C0B5F0F3C0B6F0F4C0B7F0F5C06D
:10300000B8F0FFECB0F0B1C0BFF1B2C0C0F1B3C0D6
:10301000C1F1B4C0C2F1BFC130F0C0C131F0C1C113
:1030200032F0C2C133F0F6C034F0F7C035F0F8C06A
:1030300036F0F9C037F047ECA2F087D0C3C1C7F132
:10304000C4C1C8F1C5C1C9F1C6C1CAF1000E0001B1
:10305000B56F000EB66F000EB76F000EB86FC7C128
:10306000B1F0C8C1B2F0C9C1B3F0CAC1B4F0FFEC4D
:10307000B0F0B1C0DAF0B2C0DBF0B3C0DCF0B4C085
:10308000DDF0C8C25AF0C9C25BF0CAC25CF0CBC264
:103090005DF0DAC056F0DBC057F0DCC058F0DDC0A0
:1030A00059F08EECA5F056C06CF057C06DF058C0CA
:1030B0006EF059C06FF0EEECBAF06CC076F06DC0F7
:1030C00077F0BBECC4F0000176C005F077C006F0E5
:1030D000000E06BEFF0E076E086E010EBFECB4F0C8
:1030E00005C0F6F006C0F7F007C0F8F008C0F9F028
:1030F000CCC2B1F0CDC2B2F0CEC2B3F0CFC2B4F008
:10310000000E0001B56F000EB66F000EB76F000E17
:10311000B86FFFECB0F0B1C0BFF1B2C0C0F1B3C046
:10312000C1F1B4C0C2F1BFC130F0C0C131F0C1C102
:1031300032F0C2C133F0F6C034F0F7C035F0F8C059
:1031400036F0F9C037F047ECA2F030C0BBF131C027
:10315000BCF132C0BDF133C0BEF1000E346E000EC2
:10316000356EA00E366E400E376EF6C038F0F7C0E2
:1031700039F0F8C03AF0F9C03BF0E6ECB8F0D8A06E
:1031800005D053ECC6F00009D8B407D07E865E8027
:103190000E012E9D73ECC6F01200040E0101E86FC3
:1031A0001200000E176EC00E186E7F0E196E440EC0
:1031B0001A6ECFC113F0D0C114F0D1C115F0D2C135
:1031C00016F04EECAEF013C034F014C035F015C05C
:1031D00036F016C037F0D5ECC5F001C005F002C0DE
:1031E00006F0076A086A000EBFECB4F005C030F0C4
:1031F00006C031F007C032F008C033F047ECA2F04F
:1032000030C0D6F031C0D7F032C0D8F033C0D9F0DA
:10321000D6C030F0D7C031F0D8C032F0D9C033F0CA
:103220003E0E346EF80E356E800E366E400E376EE2
:1032300047ECA2F030C0CBF131C0CCF132C0CDF1BF
:1032400033C0CEF19A0E346E990E356E590E366E2D
:10325000410E376ECBC138F0CCC139F0CDC13AF058
:10326000CEC13BF0E6ECB8F0D8A005D053ECC6F0E8
:103270000009D8B407D07E865E800E012E9D73ECC7
:10328000C6F012003D0E0101E86F1200000E176E2D
:10329000000E186E000E196E400E1A6ECFC113F09C
:1032A000D0C114F0D1C115F0D2C116F04EECAEF081
:1032B00013C034F014C035F015C036F016C037F026
:1032C000000E5A6E000E5B6E800E5C6E3F0E5D6EE1
:1032D000000E176EC00E186E7F0E196E440E1A6E19
:1032E000D5ECC5F001C005F002C006F0076A086A17
:1032F000000EBFECB4F005C013F006C014F007C018
:1033000015F008C016F04EECAEF013C02CF014C04F
:103310002DF015C02EF016C02FF0A4ECC4F02CC078
:1033200056F02DC057F02EC058F02FC059F08EEC3B
:10333000A5F056C030F057C031F058C032F059C037
:1033400033F047ECA2F030C0C9F031C0CAF032C04F
:10335000CBF033C0CCF0DA0E176E030E186EAD0E44
:10336000196E3A0E1A6E390E5A6EB40E5B6E280E36
:103370005C6E3F0E5D6EC9C02CF0CAC02DF0CBC094
:103380002EF0CCC02FF0A4ECC4F02CC056F02DC011
:1033900057F02EC058F02FC059F08EECA5F056C053
:1033A00013F057C014F058C015F059C016F04EEC89
:1033B000AEF013C0CDF014C0CEF015C0CFF016C0E3
:1033C000D0F0D0C25AF0D1C25BF0D2C25CF0D3C20E
:1033D0005DF0CDC056F0CEC057F0CFC058F0D0C091
:1033E00059F08EECA5F056C0D1F057C0D2F058C0BD
:1033F000D3F059C0D4F0D1C056F0D2C057F0D3C0EA
:1034000058F0D4C059F0000E5A6E000E5B6E200EBC
:103410005C6EC20E5D6E8EECA5F056C054F257C0C5
:1034200055F258C056F259C057F2000E346E000ED5
:10343000356E200E366E420E376E54C238F055C2CD
:1034400039F056C23AF057C23BF0E6ECB8F0D8A0DB
:1034500005D053ECC6F00009D8B407D07E865E8054
:103460000E012E9D73ECC6F012003C0E0101E86FB8
:1034700012007E865E800E012E5173ECC6F01200A3
:103480000001D551000AD8B45ED4040AD8B489D654
:10349000260AD8B440EF96F01E0AD8B46EEF95F025
:1034A000010AD8B4F3D6020AD8B4B7EF95F0E1D741
:1034B0000101776F010177AF27D1776D7751800ACE
:1034C000120FD8A0A5D0000E206F0A0E1F6F000E9D
:1034D0001A6F640E196F7751176F186B17BF1807A3
:1034E00031ECBFF017C11DF118C11EF1AEECBDF0FB
:1034F0000101D8901D371E37D8901D371E37240E76
:103500001D27000E1E23C50E1D25F66EE80E1E217A
:10351000F76EF86A000EF8220900F5CF5AF109009B
:10352000F5CF5BF10900F5CF5CF10A00F5CF5DF155
:10353000000E206F640E1F6F77511D6F1E6B1DBF35
:103540001E07AEECBDF00101D8901D371E37D89094
:103550001D371E37480E1D27000E1E23C50E1D25C4
:10356000F66EE80E1E21F76EF86A000EF8220900CA
:10357000F5CF56F10900F5CF57F10900F5CF58F115
:103580000A00F5CF59F19EECA0F056C173F157C176
:1035900074F158C175F159C176F173C156F174C116
:1035A00057F175C158F176C159F1000E01011A6F3A
:1035B0000A0E196F7751176F186B17BF180731EC88
:1035C000BFF00101D89017371837D8901737183740
:1035D000C50E1725F66EE80E1821F76EF86A000E74
:1035E000F8220900F5CF5AF10900F5CF5BF1090087
:1035F000F5CF5CF10A00F5CF5DF19EECA0F056C16D
:103600006FF157C170F158C171F159C172F11200D7
:1036100001017751800A750FD8A05DD0000E206F90
:103620000A0E1F6F77511D6F1E6B1DBF1E07AEEC7C
:10363000BDF00101D8901D371E37D8901D371E37B9
:10364000240E1D27000E1E23C50E1D25F66EE80E46
:103650001E21F76EF86A000EF8220900F5CF56F128
:103660000900F5CF57F10900F5CF58F10A00F5CF61
:1036700059F1000E1A6F0A0E196F7751176F186BF8
:1036800017BF180731ECBFF00101D8901737183772
:10369000D89017371837C50E1725F66EE80E182183
:1036A000F76EF86A000EF8220900F5CF5AF109000A
:1036B000F5CF5BF10900F5CF5CF10A00F5CF5DF1C4
:1036C0009EECA0F056C16FF157C170F158C171F175
:1036D00059C172F1120001017751040DC50EF32496
:1036E000F66EE80EF420F76EF86A000EF822090074
:1036F000F5CF6FF10900F5CF70F10900F5CF71F149
:103700000A00F5CF72F112007751800A120FD8A08B
:10371000A5D0000E206F0A0E1F6F000E1A6F640EE8
:10372000196F7751176F186B17BF180731ECBFF07F
:1037300017C11DF118C11EF1AEECBDF00101D8900A
:103740001D371E37D8901D371E37240E1D27000E3B
:103750001E23910E1D25F66EE80E1E21F76EF86AE7
:10376000000EF8220900F5CF5AF10900F5CF5BF100
:103770000900F5CF5CF10A00F5CF5DF1000E206F76
:10378000640E1F6F77511D6F1E6B1DBF1E07AEECC1
:10379000BDF00101D8901D371E37D8901D371E3758
:1037A000480E1D27000E1E23910E1D25F66EE80EF5
:1037B0001E21F76EF86A000EF8220900F5CF56F1C7
:1037C0000900F5CF57F10900F5CF58F10A00F5CF00
:1037D00059F19EECA0F056C173F157C174F158C174
:1037E00075F159C176F173C156F174C157F175C1C4
:1037F00058F176C159F1000E01011A6F0A0E196FC6
:103800007751176F186B17BF180731ECBFF0010124
:10381000D89017371837D89017371837910E1725C3
:10382000F66EE80E1821F76EF86A000EF82209000D
:10383000F5CF5AF10900F5CF5BF10900F5CF5CF146
:103840000A00F5CF5DF19EECA0F056C16FF157C1B3
:1038500070F158C171F159C172F112000101775133
:10386000800A750FD8A05DD0000E206F0A0E1F6F62
:1038700077511D6F1E6B1DBF1E07AEECBDF0010121
:10388000D8901D371E37D8901D371E37240E1D27A0
:10389000000E1E23910E1D25F66EE80E1E21F76EFA
:1038A000F86A000EF8220900F5CF56F10900F5CFAD
:1038B00057F10900F5CF58F10A00F5CF59F1000E84
:1038C0001A6F0A0E196F7751176F186B17BF180709
:1038D00031ECBFF00101D89017371837D89017375F
:1038E0001837910E1725F66EE80E1821F76EF86A54
:1038F000000EF8220900F5CF5AF10900F5CF5BF16F
:103900000900F5CF5CF10A00F5CF5DF19EECA0F067
:1039100056C16FF157C170F158C171F159C172F1BF
:10392000120001017751040D910EF324F66EE80E9A
:10393000F420F76EF86A000EF8220900F5CF6FF157
:103940000900F5CF70F10900F5CF71F10A00F5CF4C
:1039500072F11200516E51AE1FD1516C5150800A5C
:10396000120FD8A0A1D0000E0A6E0A0E096E000E2A
:10397000046E640E036E5150016E026A01BE0206AF
:103980006AECBFF001C007F002C008F033ECBEF0F3
:10399000D89007360836D89007360836240E072602
:1039A000000E0822C50E0724F66EE80E0820F76EFA
:1039B000F86A000EF8220900F5CF34F00900F5CFBF
:1039C00035F00900F5CF36F00A00F5CF37F0000EDC
:1039D0000A6E640E096E5150076E086A07BE08062B
:1039E00033ECBEF0D89007360836D8900736083644
:1039F000480E0726000E0822C50E0724F66EE80EB4
:103A00000820F76EF86A000EF8220900F5CF30F0B2
:103A10000900F5CF31F00900F5CF32F00A00F5CFFB
:103A200033F047ECA2F030C04DF031C04EF032C060
:103A30004FF033C050F04DC030F04EC031F04FC0A9
:103A400032F050C033F0000E046E0A0E036E515077
:103A5000016E026A01BE02066AECBFF0D890013620
:103A60000236D89001360236C50E0124F66EE80EF5
:103A70000220F76EF86A000EF8220900F5CF34F044
:103A80000900F5CF35F00900F5CF36F00A00F5CF83
:103A900037F047ECA2F030C049F031C04AF032C0F4
:103AA0004BF033C04CF012005150800A750FD8A073
:103AB0005BD0000E0A6E0A0E096E5150076E086A3E
:103AC00007BE080633ECBEF0D89007360836D8900B
:103AD00007360836240E0726000E0822C50E0724D6
:103AE000F66EE80E0820F76EF86A000EF82209005C
:103AF000F5CF30F00900F5CF31F00900F5CF32F005
:103B00000A00F5CF33F0000E046E0A0E036E51501A
:103B1000016E026A01BE02066AECBFF0D89001365F
:103B20000236D89001360236C50E0124F66EE80E34
:103B30000220F76EF86A000EF8220900F5CF34F083
:103B40000900F5CF35F00900F5CF36F00A00F5CFC2
:103B500037F047ECA2F030C049F031C04AF032C033
:103B60004BF033C04CF012005150040DC50EF3243D
:103B7000F66EE80EF420F76EF86A000EF8220900DF
:103B8000F5CF49F00900F5CF4AF00900F5CF4BF029
:103B90000A00F5CF4CF012005150800A120FD8A045
:103BA000A1D0000E0A6E0A0E096E000E046E640E9D
:103BB000036E5150016E026A01BE02066AECBFF04C
:103BC00001C007F002C008F033ECBEF0D890073611
:103BD0000836D89007360836240E0726000E08222D
:103BE000910E0724F66EE80E0820F76EF86A000EB4
:103BF000F8220900F5CF34F00900F5CF35F00900BF
:103C0000F5CF36F00A00F5CF37F0000E0A6E640EDD
:103C1000096E5150076E086A07BE080633ECBEF005
:103C2000D89007360836D89007360836480E07264B
:103C3000000E0822910E0724F66EE80E0820F76E9B
:103C4000F86A000EF8220900F5CF30F00900F5CF30
:103C500031F00900F5CF32F00A00F5CF33F047EC30
:103C6000A2F030C04DF031C04EF032C04FF033C042
:103C700050F04DC030F04EC031F04FC032F050C067
:103C800033F0000E046E0A0E036E5150016E026A8C
:103C900001BE02066AECBFF0D89001360236D89019
:103CA00001360236910E0124F66EE80E0220F76E00
:103CB000F86A000EF8220900F5CF34F00900F5CFBC
:103CC00035F00900F5CF36F00A00F5CF37F047ECB4
:103CD000A2F030C049F031C04AF032C04BF033C0DE
:103CE0004CF012005150800A750FD8A05BD0000E26
:103CF0000A6E0A0E096E5150076E086A07BE080662
:103D000033ECBEF0D89007360836D8900736083620
:103D1000240E0726000E0822910E0724F66EE80EE8
:103D20000820F76EF86A000EF8220900F5CF30F08F
:103D30000900F5CF31F00900F5CF32F00A00F5CFD8
:103D400033F0000E046E0A0E036E5150016E026ACB
:103D500001BE02066AECBFF0D89001360236D89058
:103D600001360236910E0124F66EE80E0220F76E3F
:103D7000F86A000EF8220900F5CF34F00900F5CFFB
:103D800035F00900F5CF36F00A00F5CF37F047ECF3
:103D9000A2F030C049F031C04AF032C04BF033C01D
:103DA0004CF012005150040D910EF324F66EE80E03
:103DB000F420F76EF86A000EF8220900F5CF49F0FA
:103DC0000900F5CF4AF00900F5CF4BF00A00F5CF16
:103DD0004CF012000201D46FD50E0101176F020ED4
:103DE000186FF60E196FFF0E1A6F000E1C6F0F0E74
:103DF0001B6F0EECC0F054D0D50E0101176F020EF0
:103E0000186FCA0E196FFF0E1A6FFEECC1F05DD06D
:103E1000D50E0101176F020E186F240E196FFD0EDB
:103E20001A6FFEECC1F051D0D50E0101176F020ED2
:103E3000186FDF0E196FFF0E1A6FFEECC1F045D040
:103E4000D50E0101176F020E186FE50E196FFF0EE8
:103E50001A6FFEECC1F039D0D50E0101176F020EBA
:103E6000186FF10E196FFF0E1A6FFEECC1F02DD016
:103E7000D50E0101176F020E186FF90E196FFF0EA4
:103E80001A6FFEECC1F021D0D50E0101176F020EA2
:103E9000186FCA0E196FFF0E1A6FFEECC1F015D025
:103EA0000101B351000AD8B4A7D7010AD8B4B0D7DA
:103EB000030AD8B4B9D7010AD8B4C2D7070AD8B40C
:103EC000CBD7010AD8B4D4D7DFD7D50E0101176FED
:103ED000020E186FFB0E196FFF0E1A6FFEECC1F089
:103EE0006CD0D50E0101176F020E186FC90E196F35
:103EF000FF0E1A6FFEECC1F07BD0D50E0101176FDB
:103F0000020E186FCC0E196FFF0E1A6FFEECC1F087
:103F10006FD0D50E0101176F020E186FD20E196FF8
:103F2000FF0E1A6FFEECC1F063D0D50E0101176FC2
:103F3000020E186FD80E196FFF0E1A6FFEECC1F04B
:103F400057D0D50E0101176F020E186FDE0E196FD4
:103F5000FF0E1A6FFEECC1F04BD0D50E0101176FAA
:103F6000020E186FE40E196FFF0E1A6FFEECC1F00F
:103F70003FD0D50E0101176F020E186FEA0E196FB0
:103F8000FF0E1A6FFEECC1F033D0D50E0101176F92
:103F9000020E186FF00E196FFF0E1A6FFEECC1F0D3
:103FA00027D0D50E0101176F020E186FF00E196F92
:103FB000FF0E1A6FFEECC1F01BD00201D451000AB3
:103FC000D8B48FD7010AD8B498D7030AD8B4A1D7E8
:103FD000010AD8B4AAD7070AD8B4B3D7010AD8B40B
:103FE000BCD7030AD8B4C5D7010AD8B4CED7D9D71D
:103FF000D50E0101176F020E186FFB0E196FFF0E21
:104000001A6FFEECC1F06CD0D50E0101176F020ED5
:10401000186F420E196FFF0E1A6FFEECC1F07BD0C5
:10402000D50E0101176F020E186FCF0E196FFF0E1C
:104030001A6FFEECC1F06FD0D50E0101176F020EA2
:10404000186FD50E196FFF0E1A6FFEECC1F063D01A
:10405000D50E0101176F020E186FDB0E196FFF0EE0
:104060001A6FFEECC1F057D0D50E0101176F020E8A
:10407000186FE10E196FFF0E1A6FFEECC1F04BD0F6
:10408000D50E0101176F020E186FE70E196FFF0EA4
:104090001A6FFEECC1F03FD0D50E0101176F020E72
:1040A000186FED0E196FFF0E1A6FFEECC1F033D0D2
:1040B000D50E0101176F020E186FF30E196FFF0E68
:1040C0001A6FFEECC1F027D0D50E0101176F020E5A
:1040D000186FF30E196FFF0E1A6FFEECC1F01BD0B4
:1040E0000101B251000AD8B48FD7010AD8B498D7C9
:1040F000030AD8B4A1D7010AD8B4AAD7070AD8B4FA
:10410000B3D7010AD8B4BCD7030AD8B4C5D7010ABB
:10411000D8B4CED7D9D7D50E0101176F020E186FBC
:10412000FD0E196FFF0E1A6FFEECC1F0D50E0101E6
:10413000826F020E836F9FEC87F0120001015951CC
:10414000800B626F59515925646F58BF6481645167
:10415000D8B40DD06429D8A408D0000E566F000E34
:10416000576F000E586F000E596F588F08D0000E11
:10417000566F000E576F000E586F000E596F5D514D
:10418000800B621B5D515D25636F5CBF6381635172
:10419000D8B40DD06329D8A408D0000E5A6F000EF1
:1041A0005B6F000E5C6F000E5D6F5C8F08D0000EC1
:1041B0005A6F000E5B6F000E5C6F000E5D6F6351F7
:1041C000D8B403D06451D8A409D0000E566F000EA5
:1041D000576F000E586F000E596F12005C51560356
:1041E000F3CF6DF1F4CF6EF16D51656F666B676B58
:1041F000686B6E51696F6A6B6B6B6C6B5B515703CD
:10420000F3CF6DF1F4CF6EF16D516527000E66238B
:10421000672368236E516927000E6A236B236C2382
:104220005A515803F3CF6DF1F4CF6EF16D516527FC
:10423000000E6623672368236E516927000E6A23E8
:104240006B236C2367C168F166C167F165C166F1D4
:10425000656B5A515703F3CF6DF1F4CF6EF16D5189
