:040000007FEF00F09E
:060008005F8261EFA8F029
:100018005F80D8CF02F1E8CF03F1E0CF04F1FACF47
:1000280005F1FBCF06F1E9CF07F1EACF08F1E1CFFF
:1000380009F1E2CF0AF1D9CF0BF1DACF0CF1F3CF06
:100048000DF1F4CF0EF1F6CF0FF1F7CF10F1F8CF95
:1000580011F1F5CF12F15FC013F160C014F161C066
:1000680015F162C016F10E012EBB38AB03D071EC4E
:10007800B2F015D02CBD36AD0DD001D810D005008A
:10008800FA6E0101D351FD6ED451FE6ED551FF6E4B
:10009800FA5012002EBD38AD02D0E3ECB1F016C113
:1000A80062F015C161F014C160F013C15FF012C1B4
:1000B800F5FF11C1F8FF10C1F7FF0FC1F6FF0EC120
:1000C800F4FF0DC1F3FF0CC1DAFF0BC1D9FF0AC160
:1000D800E2FF09C1E1FF08C1EAFF07C1E9FF06C164
:1000E800FBFF05C1FAFF04C1E0FF03C1E8FF02C13D
:0A00F800D8FF5F9010003CEFAFF05E
:10F0B40000010000000A00000064000000E80300F2
:10F0C4000010270000A086010040420F008096989F
:10F0D4000000E1F50500CA9A3B00803F0020410092
:10F0E400C842007A44401C4650C3472474499718C8
:10F0F4004BBCBE4C6B6E4E03155079AD60F3497139
:10F1040000803FCDCC3DD7233C12833AB7D138C6DB
:10F114002737388635C0D633CC2B32708930E7DBBD
:10F124002EE53C1E42A20D0100000010000000006C
:10F1340001000000100000000001000000100000A9
:10F14400000001000000103C04429F6A429001420A
:10F154004DBB40EC473E8E1FBBF44A489595C7C152
:10F16400DC45DC6DC3B333403C04425A8B42044457
:10F17400429C4F4100803F3401489DB04500DA4233
:10F1840000803F4C697374206F6620737570706FD4
:10F194007274656420636F6D6D616E64733A0A0DF9
:10F1A4000A0D44657669636520436F6D6D616E6415
:10F1B400733A0A0D20202052657365743A20436C1B
:10F1C4006561727320746865207465726D696E611F
:10F1D4006C20616E64207265736574732074686555
:10F1E400206D6963726F0A0D202020436C65617283
:10F1F4003A20436C6561727320746865207465728B
:10F204006D696E616C2062757420646F65736E271E
:10F214007420726573657420746865206D69637207
:10F224006F0A0D2020202A49444E3F3A205265742B
:10F2340075726E7320646576696365206964656EB2
:10F2440074696669636174696F6E20737472696E40
:10F25400670A0D202020446576696365204F6E207F
:10F2640054696D653F3A2052657475726E732064FB
:10F274006576696365206F6E2074696D65207369B6
:10F284006E6365206C6173742064657669636520C0
:10F2940072657365740A0D20202044657669636580
:10F2A4002049443F3A2052657475726E7320646538
:10F2B40076696365204944206173207072652D70FE
:10F2C400726F6772616D6D656420696E20666C6132
:10F2D4007368206D656D6F72790A0D202020486572
:10F2E4006C703A2054686973206D65737361676547
:10F2F4002C206C6973747320737570706F727465ED
:10F304006420636F6D6D616E64730A0D0A0D44654C
:10F3140076696365204D6561737572656D656E749C
:10F3240020436F6D6D616E64733A0A0D2020204D89
:10F3340065617375726520504F533350333F3A20E3
:10F3440052657475726E73202B332E3356204144EC
:10F354004320436F6E76657273696F6E20696E2009
:10F36400766F6C74730A0D2020204D65617375727D
:10F374006520504F5331323F3A2052657475726E96
:10F3840073202B3132562041444320436F6E7665FF
:10F394007273696F6E20696E20766F6C74730A0DD8
:10F3A4002020204D65617375726520446965205481
:10F3B400656D703F3A2052657475726E732074687F
:10F3C40065206D6963726F636F6E74726F6C6C65C8
:10F3D40072206469652074656D70657261747572FC
:10F3E4006520696E206465677265657320430A0D44
:10F3F4002020204D656173757265204656523F3A50
:10F404002052657475726E732074686520696E7419
:10F4140065726E616C20666978656420766F6C74C1
:10F42400616765207265666572656E6365206275E5
:10F43400666665722031206F757470757420696E0C
:10F4440020766F6C74730A0D2020204D65617375EE
:10F45400726520415653533F3A2052657475726E5B
:10F464007320746865206D656173757265642076B8
:10F47400616C7565206F6620416E616C6F67205604
:10F48400535320696E20766F6C74730A0D0A0D5005
:10F4940072696D617279204D6561737572656D6510
:10F4A4006E7420436F6D6D616E64733A0A0D202093
:10F4B400204D656173757265204465746563746578
:10F4C400642043757272656E743F3A205265747598
:10F4D400726E73206D65617375726564206F7574E7
:10F4E4007075742063757272656E7420696E206124
:10F4F4006D7073206173207365656E20627920419D
:10F5040044430A0D2020204D6561737572652052B5
:10F514004D532043757272656E743F3A2052657480
:10F5240075726E73207468652063616C63756C61B9
:10F5340074656420524D53206F7574707574206324
:10F54400757272656E742066726F6D206D6561737D
:10F554007572656D656E747320616E6420545249D2
:10F56400414320666972696E6720616E676C650A43
:10F574000D2020204D65617375726520524D532016
:10F58400566F6C746167653F3A2052657475726E8C
:10F5940073207468652063616C63756C6174656461
:10F5A40020524D53206F757470757420766F6C748F
:10F5B4006167652066726F6D20545249414320662D
:10F5C4006972696E6720616E676C650A0D20202080
:10F5D4004D65617375726520506F7765723F3A208F
:10F5E40052657475726E73207468652063616C6310
:10F5F400756C61746564206F757470757420706FB8
:10F6040077657220696E2057617474730A0D202027
:10F61400204C6F6164204F6E2054696D653F3A2021
:10F6240052657475726E73206C6F6164206F6E2006
:10F6340074696D652073696E6365206C61737420F1
:10F6440064657669636520726573657420696E20EC
:10F654007365636F6E64730A0D0A0D4F757470756C
:10F664007420436F6E74726F6C20436F6D6D616EA6
:10F6740064733A0A0D202020456E61626C65204453
:10F68400696D6D696E673A20456E61626C652054E0
:10F6940052494143206F75747075742064696D6DAF
:10F6A400696E670A0D20202044697361626C6520CD
:10F6B40044696D6D696E673A2044697361626C6573
:10F6C400205452494143206F7574707574206469E5
:10F6D4006D6D696E670A0D202020456E61626C6550
:10F6E400204C6F61643A20456E61626C65732074CE
:10F6F4006865206F757470757420545249414320B5
:10F70400776974682064696D6D696E6720646973D4
:10F7140061626C65640A0D20202044697361626C27
:10F7240065204C6F61643A2044697361626C65734F
:10F7340020746865206F7574707574205452494143
:10F744004320636F6D706C6574656C790A0D2020BD
:10F75400205365742044696D6D696E67205065722D
:10F7640063656E746167653A203C783E3A20536560
:10F77400747320746865206F75747075742064697F
:10F784006D6D696E672070657263656E746167651F
:10F7940020617320782070657263656E740A0D00B1
:10F7A40020202020426F6F7420636F6D706C65742D
:10F7B400650A0D2020202050494331384636374B06
:10F7C4003430206D546F756368205465737420421F
:10F7D4006F6172640A0D202020204576616C75618A
:10F7E40074657320746865206D546F756368206355
:10F7F40061706163697469766520746F75636820EC
:10F804006C69627261727920646973747269627579
:10F81400746564206279204D6963726F63686970EE
:10F824000A0D2020202053657473207468652073AA
:10F8340074617465206F662066697665204C454462
:10F8440073206261736564206F6E206D546F7563FD
:10F85400682063617061636974697665207075738B
:10F8640068627574746F6E730A0D202020204261E3
:10F87400756420726174653A20313135323030203C
:10F884006270730A0D202020204E6F20706172690F
:10F8940074792C203820626974732C206E6F206672
:10F8A4006C6F7720636F6E74726F6C2C20312073D1
:10F8B400746F70206269740A0D20202020436F6DDC
:10F8C4006D616E647320617265206361736520737A
:10F8D400656E7369746976650A0D20202020456E73
:10F8E400746572206120636F6D6D616E642C206F8E
:10F8F4007220656E7465722048656C7020666F7244
:10F90400206C697374206F6620636F6D6D616E6423
:10F91400730A0D00496620796F752764206C696B42
:10F924006520746F20636F6D706C6574656C7920ED
:10F93400656E61626C65206F722064697361626CCC
:10F944006520746865206C6F61642C206469736140
:10F95400626C652064696D6D696E6720616E6420F8
:10F964007573652072657370656374697665206369
:10F974006F6D6D616E64730A0D004552524F523AB9
:10F9840020506C65617365207365742064696D6DC6
:10F99400696E672070657263656E74616765207453
:10F9A4006F20616E20696E74656765722067726589
:10F9B40061746572207468616E203020616E642009
:10F9C4006C657373207468616E203130300A0D00E9
:10F9D400466C617368206D656D6F7279206465761D
:10F9E4006963652049442069733A20307825582E8C
:10F9F400205468697320636F72726573706F6E64EC
:10FA04007320746F2061206465766963652070617A
:10FA14007274206E756D626572206F662025730A9C
:10FA24000D005468697320636F72726573706F6E32
:10FA3400647320746F2061203136206269742074ED
:10FA4400696D6572207072652D6C6F6164207661DA
:10FA54006C7565206F662030782558202825752020
:10FA64004C53427329200A0D0043616C63756C6129
:10FA740074656420545249414320666972696E6713
:10FA840020616E676C6520697320252E33662072B1
:10FA9400616469616E732028252E3366206465676E
:10FAA40072656573290A0D00446576696365206F84
:10FAB4006E2074696D652073696E6365206C617373
:10FAC4007420726573657420636F6E646974696F02
:10FAD4006E206973202564207365636F6E64730AF6
:10FAE4000D004F757470757420706F7765722063A4
:10FAF400616C63756C6174656420617320252E33B9
:10FB0400662057617474732066726F6D20524D5372
:10FB14002076616C7565730A0D004669786564200A
:10FB2400566F6C74616765205265666572656E63B5
:10FB340065204275666665722031206D6561737556
:10FB440072656420617320256620566F6C74730A95
:10FB54000D004C6F6164206F6E2074696D652073B5
:10FB6400696E6365206C617374206465766963658E
:10FB7400207265736574206973202564207365633E
:10FB84006F6E64730A0D004D6172717565747465EE
:10FB940020556E697665727369747920454C454EBB
:10FBA40020333033352046696E616C2050726F6AA1
:10FBB4006563740A0D00456E746572202748656C90
:10FBC400702720666F72206C697374206F662061E1
:10FBD4007661696C61626C6520636F6D6D616E64E2
:10FBE400730A0D004C6F616420686173206265655F
:10FBF4006E20656E61626C65642C2064696D6D694C
:10FC04006E672064697361626C65640A0D00545206
:10FC1400494143206F75747075742064696D6D6912
:10FC24006E6720686173206265656E206469736124
:10FC3400626C65640A0D005452494143206F757427
:10FC44007075742064696D6D696E672068617320D6
:10FC54006265656E20656E61626C65640A0D004DB7
:10FC64006561737572656D656E7420726573706F0E
:10FC74006E7365732061707065617220696E2063B4
:10FC840079616E0A0D0041565353206D6561737599
:10FC940072656420617320252E336620566F6C7460
:10FCA40073206279204144430A0D005379737465CB
:10FCB4006D20706172616D6574657273206170701E
:10FCC4006561727320696E20677265656E0A0D0046
:10FCD40044696D6D696E6720686173206265656E45
:10FCE4002073657420746F202564207065726365C9
:10FCF4006E740A0D002B332E3356207261696C200A
:10FD04006D65617375726564206173202B256620AF
:10FD1400566F6C74730A0D004469652054656D70E8
:10FD240065726174757265206D6561737572656461
:10FD3400206173202566430A0D00524D53204F75F0
:10FD4400747075742043757272656E7420697320C3
:10FD5400252E33662041726D730A0D00524D5320D7
:10FD64004F757470757420566F6C74616765206983
:10FD74007320252E33662056726D730A0D002B31C5
:10FD84003256207261696C206D65617375726564A9
:10FD9400206173202B256620566F6C74730A0D0046
:10FDA40048656C70206D657373616765732061705D
:10FDB4007065617220696E2079656C6C6F770A0DCD
:10FDC400004D656173757265642043757272656E6A
:10FDD4007420697320252E336620416D70730A0DDB
:10FDE400005573657220696E70757420617070655A
:10FDF40061727320696E2077686974650A0D004D1D
:10FE04006561737572652044657465637465642007
:10FE140043757272656E743F004C6F616420686153
:10FE240073206265656E2064697361626C65640A3F
:10FE34000D005365742044696D6D696E67205065CB
:10FE44007263656E746167653A20004572726F7201
:10FE5400732061707065617220696E207265640A36
:10FE64000D004D65617375726520524D5320566FB8
:10FE74006C746167653F004D6561737572652052EE
:10FE84004D532043757272656E743F004D65617306
:10FE9400757265204469652054656D703F0030318A
:10FEA40032333435363738394142434445460041CC
:10FEB4004320506F776572204D657465720A0D009A
:10FEC4004D65617375726520504F533350333F0055
:10FED400446576696365204F6E2054696D653F0003
:10FEE40044697361626C652044696D6D696E670075
:10FEF4004D65617375726520504F5331323F004D2B
:10FF040065617375726520506F7765723F00456E49
:10FF140061626C652044696D6D696E67004D656151
:10FF24007375726520415653533F004C6F616420D2
:10FF34004F6E2054696D653F0050494331384C463B
:10FF440036374B3430004D65617375726520465603
:10FF5400523F0044697361626C65204C6F616400B8
:10FF640050494331384636374B343000456E616270
:10FF74006C65204C6F616400446576696365204953
:10FF8400443F00556E646566696E656400286E754D
:10FF94006C6C29002A49444E3F00436C6561720031
:10FFA40052657365740048656C70001B5B324A00CF
:10FFB40049444E001B5B48001B5B73001B5B7500D0
:10FFC4001B5B4B00333000333100343100333200DB
:10FFD40034320033330034330033340034340033E8
:10FFE40035003435003336003436003337003437C7
:0BFFF400001B5B0038003B006D0000AC
:020000040001F9
:10000000660E01017A6F010E7B6F3EEF85F0250EC3
:100010008D19D8B405D08D5198ECB3F03EEF85F032
:10002000000E01017D6F000E7C6F64C1F6FF65C19B
:10003000F7FF000EF86E0D0EF76403D00800F550C0
:1000400005D0F6CFE9FFF7CFEAFFEF502E0AD8A48C
:1000500049D001017D8D644B652B000E8C6F000E25
:100060008B6F2AD08BC125F18CC126F1000E0101C6
:10007000286F0A0E276F5DECB2F064C1F6FF65C110
:10008000F7FF000EF86E0D0EF76403D00800F55070
:1000900005D0F6CFE9FFF7CFEAFFEF5001016C6F13
:1000A0006C512527000E2623D00E25258B6FFF0EC1
:1000B00026218C6F644B652B64C1F6FF65C1F7FF89
:1000C000000EF86E0D0EF76403D00800F55005D051
:1000D000F6CFE9FFF7CFEAFFEF50F6ECB2F0D8A089
:1000E0007ED0C0D7000E01018C6F000E8B6F7D8912
:1000F00076D07D85A8D07C8FA6D07AC1D9FF7BC170
:10010000DAFFDECF78F1DDCF79F1020E7A27000E2B
:100110007B2378517911D8A404D0910E786FFF0E0B
:10012000796F000E776F000E766F03D00101764B6A
:10013000772B765178256C6F775179216D6F6CC173
:10014000F6FF6DC1F7FF000EF86E0D0EF76403D0D9
:100150000800F55005D0F6CFE9FFF7CFEAFFEF50E2
:100160000009D8A4E3D701018B518C11D8B421D058
:1001700076518B5D77518C59D8B01BD08BC176F1FD
:100180008CC177F116D078C1F6FF79C1F7FF000E68
:10019000F86E0D0EF76403D00800F55005D0F6CFC9
:1001A000E9FFF7CFEAFFEF5098ECB3F00101784B8D
:1001B000792B7607D8A077077629E5E17729D8B497
:1001C0003EEF85F0E0D78D0E786F010E796F000E4F
:1001D000776F010E766FC7D7C00E7C1334D0010144
:1001E00064516C6F65516D6F644B652B6CC1F6FF8C
:1001F0006DC1F7FF000EF86E0D0EF76403D0080016
:10020000F55005D0F6CFE9FFF7CFEAFFEF50010137
:100210008D6F8D51000AD8B41200580AD8B46BD72C
:100220003C0AD8B410D0020AD8B463D70F0AD8B4A5
:100230000AD01A0AD8B461D7060AD8B4CDD70D0AA5
:10024000D8B459D7C0D7070E7D15D8B4C1D27DA96F
:1002500004D0000E8C6F060E8B6F7AC1D9FF7BC164
:10026000DAFFDECF88F1DECF89F1DDCF8AF1030E30
:100270007A27000E7B238AAF11D088C123F189C170
:1002800024F18AC125F199ECB2F023C188F124C18F
:1002900089F125C18AF1030E01017C13000E7F6FE5
:1002A000000E7E6F885189118A11D8B488D0820ED1
:1002B0006C6FFF0E6D6F88C16EF189C16FF18AC1DD
:1002C00070F18BC171F1100E05D0D890713370337D
:1002D0006F336E33E82EF9D76E516C257E6F000EAA
:1002E0006D217F6F7E07D8A07F077EC125F17FC17A
:1002F00026F1000E286F030E276F5DECB2F025C1CA
:100300007EF126C17FF17EC11DF17FC11EF1000E7D
:100310000101206F0A0E1F6F80ECABF01DC17EF152
:100320001EC17FF101017FAF03D07E07D8A07F07F8
:100330007E5100081EEC92F055C180F156C181F14A
:1003400057C182F180C146F181C147F182C148F1B4
:1003500088C149F189C14AF18AC14BF1C3ECA4F0CB
:1003600046C180F147C181F148C182F180C117F1D6
:1003700081C118F182C119F1000E01011A6F800EBE
:100380001B6F3F0E1C6F1CECAAF00101D8B004D00B
:100390007E07D8A07F0713D080C117F181C118F163
:1003A00082C119F1000E1A6F200E1B6F410E1C6FD7
:1003B0001CECAAF00101D8A002D07E4B7F2B8CBF91
:1003C00006D08C511BE10D0E8B5DD8B017D088C1C3
:1003D0002BF189C12CF18AC12DF18B513AEC98F0A7
:1003E00055C12EF156C12FF157C130F1E7EC9EF007
:1003F0002BC188F12CC189F12DC18AF101017FBF88
:1004000006D07F511FE10A0E7E5DD8B01BD0885107
:1004100089118A11D8B454D088C155F189C156F1D7
:100420008AC157F147ECA4F00101555156115711FB
:100430005811D8B47FBF44D07F5104E1020E7E5DD5
:10044000D8A03ED080C117F181C118F182C119F145
:10045000700E1A6F890E1B6F400E1C6F1CECAAF0F9
:100460000101D8B002D0F70E01D0F80E7E27FF0EA2
:100470007F237E511EEC92F055C180F156C181F16F
:1004800057C182F188C117F189C118F18AC119F1E8
:1004900080C11AF181C11BF182C11CF15DECA1F098
:1004A00017C184F118C185F119C186F11AC187F10C
:1004B000000E0101886F000E896F000E8A6F33D025
:1004C00088C155F189C156F18AC157F147ECA4F0B2
:1004D00055C184F156C185F157C186F158C187F1E4
:1004E00088C137F189C138F18AC139F184C11FF15E
:1004F00085C120F186C121F187C122F10DECAFF059
:100500001FC13AF120C13BF121C13CF113ECB1F024
:1005100037C188F138C189F139C18AF1000E010172
:100520007F6F000E7E6F010E8D6F0A0E8D19D8B48D
:100530001BD08D51040DB50EF324F66EF00EF42091
:10054000F76EF86A000EF8220900F550845D090084
:10055000F55085590900F55086590900F55087591D
:10056000D8A002D08D2BE1D7030E7C156C6F000E46
:100570007D156D6F6C516D11D8B44ED02D0E98EC69
:10058000B3F04AD084C117F185C118F186C119F1C1
:1005900087C11AF101018D51040DB50EF324F66ED9
:1005A000F00EF420F76EF86A000EF8220900F5CF7D
:1005B0001BF10900F5CF1CF10900F5CF1DF10A0070
:1005C000F5CF1EF1C3ECABF017C180F118C181F17A
:1005D00019C182F11AC183F180C124F181C125F1D1
:1005E00082C126F183C127F10A0E0101286F000E96
:1005F000296F000E2A6F000E2B6FE0ECADF024C1C6
:1006000080F125C181F126C182F127C183F1010169
:100610008051300F98ECB3F001018D078D29D8B4CB
:1006200008D0B0D7300E98ECB3F001017E07D8A007
:100630007F077FBF05D07F51F5E17E05D8B0F2D7A7
:100640008CBF09D08C5104E1090E8B5DD8A003D07A
:10065000080E8D6F02D08BC18DF18D518B5F000E16
:100660008DBFFF0E8C5B8D51D8B403D02E0E98EC4D
:10067000B3F001018D511EEC92F055C172F156C1DB
:1006800073F157C174F188C149F189C14AF18AC136
:100690004BF172C146F173C147F174C148F1C3EC2B
:1006A000A4F046C155F147C156F148C157F147EC96
:1006B000A4F055C184F156C185F157C186F158C1E6
:1006C00087F174D084C117F185C118F186C119F181
:1006D00087C11AF101018D51040DB50EF324F66E98
:1006E000F00EF420F76EF86A000EF8220900F5CF3C
:1006F0001BF10900F5CF1CF10900F5CF1DF10A002F
:10070000F5CF1EF1C3ECABF017C180F118C181F138
:1007100019C182F11AC183F180C124F181C125F18F
:1007200082C126F183C127F10A0E0101286F000E54
:10073000296F000E2A6F000E2B6FE0ECADF024C184
:1007400080F125C181F126C182F127C183F1010128
:100750008051300F98ECB3F084C124F185C125F1AC
:1007600086C126F187C127F101018D51040DB50E17
:10077000F324F66EF00EF420F76EF86A000EF822FD
:100780000900F5CF28F10900F5CF29F10900F5CFCF
:100790002AF10A00F5CF2BF1E0ECADF024C184F191
:1007A00025C185F126C186F127C187F101018D0799
:1007B0008D29D8B408D086D7300E98ECB3F001015B
:1007C0008B07D8A08C078B518C11D8B457D1F4D794
:1007D000C00E7C156C6F000E7D156D6F6C516D1128
:1007E000D8A41ED07AC1D9FF7BC1DAFFDECF84F155
:1007F000DDCF85F1000E85BFFF0E866F876F020E7D
:100800007A27000E7B2387AF1DD0030E7C13871F32
:10081000861F851F846D000E85238623872312D0B3
:100820007AC1D9FF7BC1DAFFDECF6CF1DDCF6DF18C
:100830006CC184F16DC185F1866B876B020E7A27DE
:10084000000E7B238B518C11D8A44BD08451851181
:1008500086118711D8A445D08B4B8C2B42D0010E2A
:100860008D6F0A0E8D19D8B447D08D51040DB50E79
:10087000F324F66EF00EF420F76EF86A000EF822FC
:100880000900F550845D0900F55085590900F550BF
:1008900086590900F5508759D8A02ED08D2BE1D765
:1008A000010E8D6F080E8D19D8B426D08D51040D10
:1008B0002B0EF324F66EF10EF420F76EF86A000E9C
:1008C000F8220900F550845D0900F55085590900AA
:1008D000F55086590900F5508759D8A00DD08D2BB9
:1008E000E1D77C51C00B000AD8B4B9D7800AD8B47C
:1008F000D7D7400AD8B4B3D7800E8DBF7F0E6C6FA8
:100900008B518D5D8C51800A6C59D8B003D08BC14E
:100910008DF110D08C51800A6C6F8D518B5D800EE3
:100920008DBF7F0E6C59D8B005D08D518B6F8C6BFD
:100930008BBF8C07030E7C156C6F000E7D156D6FE1
:100940006C516D11D8B491D02D0E98ECB3F08DD0C0
:100950008BC16CF18CC16DF10101D8906C376D3792
:10096000D8906C376D37B50E6C25F66EF00E6D2194
:10097000F76EF86A000EF8220900F5CF1BF10900A6
:10098000F5CF1CF10900F5CF1DF10A00F5CF1EF1DE
:1009900084C117F185C118F186C119F187C11AF117
:1009A000C3ECABF017C124F118C125F119C126F130
:1009B0001AC127F10A0E0101286F000E296F000EDF
:1009C0002A6F000E2B6FE0ECADF001012451300FC7
:1009D0008D6F48D084C117F185C118F186C119F116
:1009E00087C11AF18BC16CF18CC16DF1D8906C3755
:1009F0006D37D8906C376D372B0E6C25F66EF10E77
:100A00006D21F76EF86A000EF8220900F5CF1BF190
:100A10000900F5CF1CF10900F5CF1DF10A00F5CF53
:100A20001EF1C3ECABF0010117510F0B756F75513F
:100A3000010DA20EF324F66EFE0EF420F76EF86A96
:100A4000000EF8220800F5CF8DF10CD001017C5189
:100A5000C00B000AD8B47CD7800AD8B4BBD7400AF0
:100A6000D8B476D78D5198ECB3F001018B07D8A09C
:100A70008C078B29EBE18C29D8A4E8D701016451BC
:100A80006C6F65516D6F644B652B6CC1F6FF6DC16A
:100A9000F7FF000EF86E0D0EF76403D00800F55056
:100AA00005D0F6CFE9FFF7CFEAFFEF5001018D6FD8
:100AB0008D51D8B4120007EF80F0680E0001766FF8
:100AC000000E776F98EF8AF0250E8919D8B405D0FB
:100AD0008951D6ECB3F098EF8AF0000E0001796FDF
:100AE000000E786F66C0F6FF67C0F7FF000EF86E65
:100AF0000D0EF76403D00800F55005D0F6CFE9FFDE
:100B0000F7CFEAFFEF502E0AD8A448D00001798D24
:100B1000664B672B000E886F000E876F29D087C049
:100B20000FF088C010F0000E126E0A0E116EBFECAE
:100B3000B2F066C0F6FF67C0F7FF000EF86E0D0E4C
:100B4000F76403D00800F55005D0F6CFE9FFF7CFE2
:100B5000EAFFEF500001686F68510F26000E102267
:100B6000D00E0F24876FFF0E1020886F664B672B07
:100B700066C0F6FF67C0F7FF000EF86E0D0EF76453
:100B800003D00800F55005D0F6CFE9FFF7CFEAFF14
:100B9000EF5017ECB3F0D8A07ED0C1D7000E000103
:100BA000886F000E876F798976D07985A8D0788F85
:100BB000A6D076C0D9FF77C0DAFFDECF74F0DDCFE4
:100BC00075F0020E7627000E772374517511D8A4A4
:100BD00004D0910E746FFF0E756F000E736F000ED0
:100BE000726F03D00001724B732B72517425686FC2
:100BF00073517521696F68C0F6FF69C0F7FF000E79
:100C0000F86E0D0EF76403D00800F55005D0F6CF4E
:100C1000E9FFF7CFEAFFEF500009D8A4E3D70001BE
:100C200087518811D8B421D07251875D735188598A
:100C3000D8B01BD087C072F088C073F016D074C0D3
:100C4000F6FF75C0F7FF000EF86E0D0EF76403D0C7
:100C50000800F55005D0F6CFE9FFF7CFEAFFEF50D7
:100C6000D6ECB3F00001744B752B7207D8A0730754
:100C70007229E5E17329D8B498EF8AF0E0D7890E9C
:100C8000746F000E756F000E736F010E726FC7D711
:100C9000C00E781334D000016651686F6751696FD8
:100CA000664B672B68C0F6FF69C0F7FF000EF86E51
:100CB0000D0EF76403D00800F55005D0F6CFE9FF1C
:100CC000F7CFEAFFEF500001896F8951000AD8B4CD
:100CD0001200580AD8B46BD73C0AD8B410D0020A14
:100CE000D8B463D70F0AD8B40AD01A0AD8B461D7D7
:100CF000060AD8B4CDD70D0AD8B459D7C0D7070E35
:100D00007915D8B4C0D279A904D0000E886F060E28
:100D1000876F76C0D9FF77C0DAFFDECF80F0DECFF5
:100D200081F0DDCF82F0030E7627000E772382AFAD
:100D300011D080C024F081C025F082C026F0D2EC12
:100D4000B2F024C080F025C081F026C082F0030EEE
:100D500000017813000E7B6F000E7A6F80518111B5
:100D60008211D8B486D0820E686FFF0E696F80C082
:100D70006AF081C06BF082C06CF083C06DF0100E21
:100D800005D0D8906D336C336B336A33E82EF9D7C6
:100D90006A5168257A6F000E69217B6F7A07D8A0A7
:100DA0007B077AC00FF07BC010F0000E126E030EAE
:100DB000116EBFECB2F00FC07AF010C07BF07AC0B9
:100DC00007F07BC008F0000E0A6E0A0E096E05ECF3
:100DD000ACF007C07AF008C07BF000017BAF03D015
:100DE0007A07D8A07B077A5100085EEC94F036C0F1
:100DF0007CF037C07DF038C07EF07CC027F07DC02D
:100E000028F07EC029F080C02AF081C02BF082C07B
:100E10002CF0B8ECA5F027C07CF028C07DF029C0EC
:100E20007EF07CC02AF07DC02BF07EC02CF0000E3E
:100E30002D6E800E2E6E3F0E2F6EADECAAF0D8B048
:100E400005D000017A07D8A07B0713D07CC02AF018
:100E50007DC02BF07EC02CF0000E2D6E200E2E6E6D
:100E6000410E2F6EADECAAF0D8A003D000017A4B52
:100E70007B2B000188BF06D088511BE10D0E875DDA
:100E8000D8B017D080C040F081C041F082C042F09D
:100E9000875184EC99F036C043F037C044F038C035
:100EA00045F0BEEC9FF040C080F041C081F042C0F0
:100EB00082F000017BBF06D07B5120E10A0E7A5DF3
:100EC000D8B01CD0805181118211D8B456D080C0C6
:100ED0003DF081C03EF082C03FF03EECA5F03D50B9
:100EE0003E103F104010D8A448D000017BBF45D031
:100EF0007B5104E1020E7A5DD8A03FD07CC02AF07D
:100F00007DC02BF07EC02CF0700E2D6E890E2E6EE3
:100F1000400E2F6EADECAAF0D8B003D00001F70E52
:100F200002D00001F80E7A27FF0E7B237A515EEC87
:100F300094F036C07CF037C07DF038C07EF080C0C1
:100F400001F081C002F082C003F07CC004F07DC0DB
:100F500005F07EC006F0F7ECA1F001C083F002C0FE
:100F600084F003C085F004C086F0000E0001806F9D
:100F7000000E816F000E826F33D080C03DF081C0C3
:100F80003EF082C03FF03EECA5F03DC083F03EC095
:100F900084F03FC085F040C086F080C060F081C022
:100FA00061F082C062F083C009F084C00AF085C09D
:100FB0000BF086C00CF06AECAFF009C063F00AC019
:100FC00064F00BC065F034ECB1F060C080F061C03B
:100FD00081F062C082F0000E00017B6F000E7A6F1C
:100FE000010E896F0A0E8919D8B41BD08951040DDE
:100FF000B50EF324F66EF00EF420F76EF86A000ECC
:10100000F8220900F550835D0900F5508459090064
:10101000F55085590900F5508659D8A002D0892B82
:10102000E1D7030E7815686F000E7915696F685166
:101030006911D8B44DD02D0ED6ECB3F049D083C091
:1010400001F084C002F085C003F086C004F0000106
:101050008951040DB50EF324F66EF00EF420F76EF0
:10106000F86A000EF8220900F5CF05F00900F5CF67
:1010700006F00900F5CF07F00A00F5CF08F047ECBD
:10108000ACF001C07CF002C07DF003C07EF004C073
:101090007FF07CC00EF07DC00FF07EC010F07FC0EE
:1010A00011F00A0E126E000E136E000E146E000E7A
:1010B000156E47ECAEF00EC07CF00FC07DF010C096
:1010C0007EF011C07FF000017C51300FD6ECB3F000
:1010D000000189078929D8B408D0B1D7300ED6ECE1
:1010E000B3F000017A07D8A07B077BBF05D07B5106
:1010F000F5E17A05D8B0F2D788BF09D0885104E16C
:10110000090E875DD8A003D0080E896F02D087C072
:1011100089F08951875F000E89BFFF0E885B895176
:10112000D8B403D02E0ED6ECB3F0000189515EEC9A
:1011300094F036C06EF037C06FF038C070F080C0E9
:101140002AF081C02BF082C02CF06EC027F06FC057
:1011500028F070C029F0B8ECA5F027C03DF028C0F9
:101160003EF029C03FF03EECA5F03DC083F03EC00C
:1011700084F03FC085F040C086F073D083C001F09A
:1011800084C002F085C003F086C004F000018951DC
:10119000040DB50EF324F66EF00EF420F76EF86A27
:1011A000000EF8220900F5CF05F00900F5CF06F092
:1011B0000900F5CF07F00A00F5CF08F047ECACF0D6
:1011C00001C07CF002C07DF003C07EF004C07FF05F
:1011D0007CC00EF07DC00FF07EC010F07FC011F01B
:1011E0000A0E126E000E136E000E146E000E156EB7
:1011F00047ECAEF00EC07CF00FC07DF010C07EF06A
:1012000011C07FF000017C51300FD6ECB3F083C0E9
:101210000EF084C00FF085C010F086C011F0000100
:101220008951040DB50EF324F66EF00EF420F76E1E
:10123000F86A000EF8220900F5CF12F00900F5CF88
:1012400013F00900F5CF14F00A00F5CF15F047ECC4
:10125000AEF00EC083F00FC084F010C085F011C056
:1012600086F0000189078929D8B408D087D7300EC5
:10127000D6ECB3F000018707D8A088078751881102
:10128000D8B456D1F4D7C00E7815686F000E791512
:10129000696F68516911D8A41ED076C0D9FF77C094
:1012A000DAFFDECF83F0DDCF84F0000E84BFFF0EC7
:1012B000856F866F020E7627000E772386AF1DD0CE
:1012C000030E7813861F851F841F836D000E8423F1
:1012D0008523862312D076C0D9FF77C0DAFFDECF10
:1012E00068F0DDCF69F068C083F069C084F0856B79
:1012F000866B020E7627000E772387518811D8A4BB
:101300004BD08351841185118611D8A445D0874BC9
:10131000882B42D0010E896F0A0E8919D8B447D0A4
:101320008951040DB50EF324F66EF00EF420F76E1D
:10133000F86A000EF8220900F550835D0900F550A7
:1013400084590900F55085590900F5508659D8A0EF
:101350002ED0892BE1D7010E896F080E8919D8B4D8
:1013600026D08951040D2B0EF324F66EF10EF420D5
:10137000F76EF86A000EF8220900F550835D090047
:10138000F55084590900F55085590900F5508659E2
:10139000D8A00DD0892BE1D77851C00B000AD8B462
:1013A000B9D7800AD8B4D7D7400AD8B4B3D7800EFB
:1013B00089BF7F0E686F8751895D8851800A68599F
:1013C000D8B003D087C089F010D08851800A686FE8
:1013D0008951875D800E89BF7F0E6859D8B005D0CE
:1013E0008951876F886B87BF8807030E7815686FF0
:1013F000000E7915696F68516911D8B490D02D0E1F
:10140000D6ECB3F08CD087C068F088C069F00001DA
:10141000D89068376937D89068376937B50E68252E
:10142000F66EF00E6921F76EF86A000EF8220900D8
:10143000F5CF05F00900F5CF06F00900F5CF07F06C
:101440000A00F5CF08F083C001F084C002F085C027
:1014500003F086C004F047ECACF001C00EF002C00F
:101460000FF003C010F004C011F00A0E126E000E4F
:10147000136E000E146E000E156E47ECAEF00E509B
:10148000300F0001896F48D083C001F084C002F0A2
:1014900085C003F086C004F087C068F088C069F09A
:1014A000D89068376937D890683769372B0E682528
:1014B000F66EF10E6921F76EF86A000EF822090047
:1014C000F5CF05F00900F5CF06F00900F5CF07F0DC
:1014D0000A00F5CF08F047ECACF001500F0B00010B
:1014E000716F7151010DA20EF324F66EFE0EF42001
:1014F000F76EF86A000EF8220800F5CF89F00CD0DC
:1015000000017851C00B000AD8B47DD7800AD8B446
:10151000BBD7400AD8B477D78951D6ECB3F00001D5
:101520008707D8A088078729EBE18829D8A4E8D7BE
:1015300000016651686F6751696F664B672B68C021
:10154000F6FF69C0F7FF000EF86E0D0EF76403D0CA
:101550000800F55005D0F6CFE9FFF7CFEAFFEF50CE
:101560000001896F8951D8B4120064EF85F0A0C1E1
:1015700017F1A1C118F1A40E0101196FFF0E1A6F26
:10158000EFECAFF0010117511811D8A40FD0AF0E36
:10159000646FFF0E656F00EC80F0B80E0101646FA0
:1015A000FF0E656F00EC80F0FF001200A0C117F184
:1015B000A1C118F19E0E0101196FFF0E1A6FEFEC19
:1015C000AFF0010117511811D8A40ED0AF0E646FFF
:1015D000FF0E656F00EC80F0B80E0101646FFF0E26
:1015E000656F00EC80F01200A0C117F1A1C118F1E5
:1015F000980E0101196FFF0E1A6FEFECAFF00101A9
:1016000017511811D8B40FD0A0C117F1A1C118F10A
:10161000B40E196FFF0E1A6FEFECAFF00101175106
:101620001811D8A41DD081ECB3F0000E01018E6F0B
:10163000000E8F6F020E86EC96F0B30E0101646F00
:10164000FE0E656F00EC80F08B0E0101646FFB0EE7
:10165000656F00EC80F067ECB3F081ECB3F0120042
:10166000A0C117F1A1C118F17C0E0101196FFF0E85
:101670001A6FEFECAFF0010117511811D8A427D061
:1016800081ECB3F0000E01018E6F000E8F6F020E21
:1016900086EC96F0D40E0101646FF90E656F07ECCD
:1016A000B3F022C166F123C167F1660E01011E6F1E
:1016B0000E0E1D6F3BECABF01DC168F11EC169F150
:1016C00000EC80F067ECB3F081ECB3F01200A0C145
:1016D00017F1A1C118F1C40E0101196FFE0E1A6FA6
:1016E000EFECAFF0010117511811D8A41CD081EC18
:1016F000B3F0000E01018E6F000E8F6F060E86ECA8
:1017000096F0F90E0101646FFC0E656FD7C066F1AB
:10171000D8C067F1D9C068F100EC80F067ECB3F095
:1017200081ECB3F01200A0C117F1A1C118F1F40EC1
:101730000101196FFE0E1A6FEFECAFF001011751A6
:101740001811D8A41CD081ECB3F0000E01018E6FEB
:10175000000E8F6F060E86EC96F0820E0101646F0C
:10176000FD0E656FC7C166F1C8C167F1C9C168F1F7
:1017700000EC80F067ECB3F081ECB3F01200A0C194
:1017800017F1A1C118F1900E0101196FFE0E1A6F29
:10179000EFECAFF0010117511811D8A41CD081EC67
:1017A000B3F0000E01018E6F000E8F6F060E86ECF7
:1017B00096F01C0E0101646FFD0E656FC4C166F1E9
:1017C000C5C167F1C6C168F100EC80F067ECB3F009
:1017D00081ECB3F01200A0C117F1A1C118F14A0EBB
:1017E0000101196FFF0E1A6FEFECAFF001011751F5
:1017F0001811D8A41CD081ECB3F0000E01018E6F3B
:10180000000E8F6F060E86EC96F01E0E0101646FBF
:10181000FB0E656FECC066F1EDC067F1EEC068F1DC
:1018200000EC80F067ECB3F081ECB3F01200A0C1E3
:1018300017F1A1C118F1210E0101196FFF0E1A6FE6
:10184000EFECAFF0010117511811D8A41CD081ECB6
:10185000B3F0000E01018E6F000E8F6F060E86EC46
:1018600096F08A0E0101646FFC0E656FDDC066F1B3
:10187000DEC067F1DFC068F100EC80F067ECB3F028
:1018800081ECB3F01200A0C117F1A1C118F1030E51
:101890000101196FFE0E1A6FEFECAFF00101175145
:1018A0001811D8A41CD081ECB3F0000E01018E6F8A
:1018B000000E8F6F060E86EC96F0C50E0101646F68
:1018C000FD0E656FCEC066F1CFC067F1D0C068F184
:1018D00000EC80F067ECB3F081ECB3F01200A0C133
:1018E00017F1A1C118F17B0E0101196FFE0E1A6FDD
:1018F000EFECAFF0010117511811D8A41CD081EC06
:10190000B3F0000E01018E6F000E8F6F060E86EC95
:1019100096F03E0E0101646FFD0E656FCBC066F15F
:10192000CCC067F1CDC068F100EC80F067ECB3F09B
:1019300081ECB3F01200A0C117F1A1C118F1660E3D
:101940000101196FFE0E1A6FEFECAFF00101175194
:101950001811D8A41CD081ECB3F0000E01018E6FD9
:10196000000E8F6F060E86EC96F0600E0101646F1C
:10197000FD0E656FC8C066F1C9C067F1CAC068F1E5
:1019800000EC80F067ECB3F081ECB3F01200A0C182
:1019900017F1A1C118F1030E0101196FFF0E1A6FA3
:1019A000EFECAFF0010117511811D8A41CD081EC55
:1019B000B3F0000E01018E6F000E8F6F060E86ECE5
:1019C00096F0E60E0101646FFA0E656FC1C166F113
:1019D000C2C167F1C3C168F100EC80F067ECB3F0FD
:1019E00081ECB3F01200A0C117F1A1C118F1120EE1
:1019F0000101196FFF0E1A6FEFECAFF001011751E3
:101A00001811D8A417D07F9081ECB3F0000E01011B
:101A10008E6F000E8F6F060E86EC96F03B0E010166
:101A2000646FFC0E656F00EC80F067ECB3F081EC46
:101A3000B3F01200A0C117F1A1C118F1E40E010129
:101A4000196FFE0E1A6FEFECAFF00101175118116C
:101A5000D8A417D07F8081ECB3F0000E01018E6F07
:101A6000000E8F6F060E86EC96F0120E0101646F69
:101A7000FC0E656F00EC80F067ECB3F081ECB3F026
:101A80001200A0C117F1A1C118F1700E0101196F68
:101A9000FF0E1A6FEFECAFF0010117511811D8A427
:101AA00019D07F807F925E8081ECB3F0000E01013F
:101AB0008E6F000E8F6F060E86EC96F0E80E010119
:101AC000646FFB0E656F00EC80F067ECB3F081ECA7
:101AD000B3F01200A0C117F1A1C118F1570E010116
:101AE000196FFF0E1A6FEFECAFF0010117511811CB
:101AF000D8A419D07F927F905E9081ECB3F0000E55
:101B000001018E6F000E8F6F060E86EC96F01D0E93
:101B10000101646FFE0E656F00EC80F067ECB3F0BE
:101B200081ECB3F01200A0C126F1A1C127F1360E5D
:101B30000101286FFE0E296FF5ECAAF00101265174
:101B40002711D8B413D1000EAB6F000EAA6FABBF34
:101B500006D0AB511BE1030EAA5DD8B017D0180E0A
:101B6000AA25A26F000EAB21A36FA251A025D96EAA
:101B7000A351A121DA6EA70EAA25E16E010EAB21B9
:101B8000E26EDFCFE7FFAA4BAB2BE1D7A70E2B6F9F
:101B9000010E2C6FF5ECA7F02BC1ACF12CC1ADF10F
:101BA0000101ADBF06D0AD510BE1640EAC5DD8B004
:101BB00007D0ADBF05D0AD512FE1AC05D8B02CD0CA
:101BC00081ECB3F0000E01018E6F000E8F6F010EDD
:101BD00086EC96F07E0E0101646FF90E656F00ECE5
:101BE00080F0000E01018E6F000E8F6F030E86ECE9
:101BF00096F0180E0101646FF90E656F00EC80F02D
:101C0000BA0E0101646FFB0E656F00EC80F067ECAB
:101C1000B3F081ECB3F01200000E01013A6FC80E70
:101C20003B6F420E3C6F000E2E6FC80E2F6F420EA0
:101C3000306FACC11FF1ADC120F174ECB1F01FC128
:101C400023F120C124F121C125F199ECB2F023C187
:101C50002BF124C12CF125C12DF1E7EC9EF02BC115
:101C600037F12CC138F12DC139F132ECA6F037C172
:101C700046F138C147F139C148F1100E0101496FF1
:101C8000490E4A6F400E4B6FC3ECA4F046C1FAF008
:101C900047C1FBF048C1FCF0FAC046F1FBC047F178
:101CA000FCC048F12F0E0101496F650E4A6F420ECC
:101CB0004B6FC3ECA4F046C1A4F147C1A5F148C1E4
:101CC000A6F1ACC1A2F1ADC1A3F10101A21FA31FF6
:101CD000A24BA32B640EA225256F000EA321266F15
:101CE000020E286F8F0E276F5DECB2F025C1F8F061
:101CF00026C1F9F081ECB3F0000E01018E6F000EE9
:101D00008F6F060E86EC96F0D40E0101646FFC0E08
:101D1000656FACC166F1ADC167F100EC80F06D0E8E
:101D20000101646FFA0E656FFAC066F1FBC067F1DE
:101D3000FCC068F1A4C169F1A5C16AF1A6C16BF14B
:101D400000EC80F0260E0101646FFA0E656FF8C09A
:101D500066F1F9C067F1F8C068F1F9C069F100EC0B
:101D600080F067ECB3F081ECB3F01200A0C117F182
:101D7000A1C118F1D40E0101196FFE0E1A6FEFEC1C
:101D8000AFF0010117511811D8A41ED081ECB3F0A7
:101D9000000E01018E6F000E8F6F060E86EC96F01E
:101DA000AC0E0101646FFA0E656FBDC166F1BEC174
:101DB00067F1BFC168F1C0C169F100EC80F067EC68
:101DC000B3F081ECB3F01200A0C117F1A1C118F17A
:101DD0002F0E0101196FFF0E1A6FEFECAFF001012A
:101DE00017511811D8A41ED081ECB3F0000E0101D8
:101DF0008E6F000E8F6F060E86EC96F0560E010168
:101E0000646FFB0E656FB9C166F1BAC167F1BBC102
:101E100068F1BCC169F100EC80F067ECB3F081ECD3
:101E2000B3F01200A0C117F1A1C118F1AA0E01016F
:101E3000196FFF0E1A6FEFECAFF001011751181177
:101E4000D8A4120081ECB3F0000E01018E6F000ED9
:101E50008F6F030E86EC96F0870E0101646FF10E12
:101E6000656F00EC80F081ECB3F0A40E0101646FAB
:101E7000FD0E656F00EC80F0000E01018E6F000E0C
:101E80008F6F020E86EC96F0AF0E0101646FFC0EB0
:101E9000656F00EC80F0000E01018E6F000E8F6FF9
:101EA000060E86EC96F0630E0101646FFC0E656F02
:101EB00000EC80F0000E01018E6F000E8F6F010E9E
:101EC00086EC96F04F0E0101646FFE0E656F00EC1C
:101ED00080F067ECB3F0E50E0101646FFD0E656FF5
:101EE00000EC80F081ECB3F012005FCFAFF091D244
:101EF0005DECB3F001C009F002C00AF0E4ECB2F00E
:101F000009C027F00AC028F00BC029F0680E2A6E1D
:101F1000530E2B6E3B0E2C6EB8ECA5F027C0DDF0F7
:101F200028C0DEF029C0DFF01200680E2A6E530EC2
:101F30002B6E3B0E2C6E5DECB3F001C009F002C0BD
:101F40000AF0E4ECB2F009C027F00AC028F00BC098
:101F500029F0B8ECA5F027C040F028C041F029C016
:101F600042F0DDC043F0DEC044F0DFC045F0BEEC1F
:101F70009FF040C0ECF041C0EDF042C0EEF0120E18
:101F8000156E030E166E400E176EECC018F0EDC005
:101F900019F0EEC01AF0A6ECA6F015C0DAF016C0E3
:101FA000DBF017C0DCF01200DAC02AF0DBC02BF047
:101FB000DCC02CF05DECB3F001C009F002C00AF007
:101FC000E4ECB2F009C027F00AC028F00BC029F0F9
:101FD000B8ECA5F027C0B3F028C0B4F029C0B5F024
:101FE000B3C027F0B4C028F0B5C029F0680E2A6E3F
:101FF000D30E2B6E3B0E2C6EB8ECA5F027C0D7F09D
:1020000028C0D8F029C0D9F01200C00E186E7F0E7B
:10201000196E440E1A6ED7C015F0D8C016F0D9C08C
:1020200017F0A6ECA6F015C02AF016C02BF017C0CA
:102030002CF05DECB3F001C009F002C00AF0E4EC52
:10204000B2F009C027F00AC028F00BC029F0B8ECA4
:10205000A5F027C0B3F028C0B4F029C0B5F0B3C0D4
:1020600027F0B4C028F0B5C029F05E0E2A6EF20E3B
:102070002B6E3F0E2C6EB8ECA5F027C0CEF028C01A
:10208000CFF029C0D0F07FB089D05EA029D0EE0E6D
:102090000001F85D7F0EF959D8B007D0CEC0D1F05D
:1020A000CFC0D2F0D0C0D3F014D0CEC073F0CFC028
:1020B00074F0D0C075F0FAC076F0FBC077F0FCC0C9
:1020C00078F0DDECAEF073C0D1F074C0D2F075C022
:1020D000D3F0F2C0D4F0F3C0D5F0F4C0D6F00DD0F8
:1020E000000E0001D16F000ED26F000ED36F000EF4
:1020F000D46F000ED56F000ED66FFAC097F0FBC0FC
:1021000098F0FCC099F0D1C094F0D2C095F0D3C043
:1021100096F023EC9DF094C0B0F095C0B1F096C05D
:10212000B2F0B0C040F0B1C041F0B2C042F0EFC078
:1021300043F0F0C044F0F1C045F0BEEC9FF040C069
:10214000CBF041C0CCF042C0CDF0D4C094F0D5C0AB
:1021500095F0D6C096F0FAC097F0FBC098F0FCC09E
:1021600099F023EC9DF094C0C8F095C0C9F096C0DA
:10217000CAF0C8C027F0C9C028F0CAC029F0CBC037
:102180002AF0CCC02BF0CDC02CF0B8ECA5F027C0C5
:10219000C1F128C0C2F129C0C3F11200CEC0D1F0F4
:1021A000CFC0D2F0D0C0D3F0000E0001976F000E68
:1021B000986F000E996FD1C094F0D2C095F0D3C043
:1021C00096F023EC9DF094C0B0F095C0B1F096C0AD
:1021D000B2F0B0C040F0B1C041F0B2C042F0EFC0C8
:1021E00043F0F0C044F0F1C045F0BEEC9FF040C0B9
:1021F000CBF041C0CCF042C0CDF0F2C094F0F3C0BF
:1022000095F0F4C096F0000E0001976F000E986FE5
:10221000000E996F23EC9DF094C0C8F095C0C9F0F2
:1022200096C0CAF0C8C027F0C9C028F0CAC029F0BB
:10223000CBC02AF0CCC02BF0CDC02CF0B8ECA5F070
:1022400027C0C1F128C0C2F129C0C3F11200C00EDD
:10225000186E7F0E196E440E1A6ED7C015F0D8C0D6
:1022600016F0D9C017F0A6ECA6F015C02AF016C0DB
:102270002BF017C02CF05DECB3F001C009F002C0E8
:102280000AF0E4ECB2F009C027F00AC028F00BC055
:1022900029F0B8ECA5F027C0B3F028C0B4F029C0ED
:1022A000B5F0B3C027F0B4C028F0B5C029F0F80EDF
:1022B0002A6E800E2B6E400E2C6EB8ECA5F027C057
:1022C000C7F128C0C8F129C0C9F11200000E186E6C
:1022D000000E196E400E1A6ED7C015F0D8C016F059
:1022E000D9C017F0A6ECA6F015C02AF016C02BF046
:1022F00017C02CF0000E436E800E446E3F0E456EEC
:10230000C00E186E7F0E196E440E1A6E5DECB3F09F
:1023100001C009F002C00AF0E4ECB2F009C015F007
:102320000AC016F00BC017F0A6ECA6F015C024F0FA
:1023300016C025F017C026F0D2ECB2F024C040F051
:1023400025C041F026C042F0BEEC9FF040C027F00F
:1023500041C028F042C029F0B8ECA5F027C0A6F093
:1023600028C0A7F029C0A8F0040E186EAD0E196E93
:102370003A0E1A6EB40E436E280E446E3F0E456E32
:10238000A6C024F0A7C025F0A8C026F0D2ECB2F079
:1023900024C040F025C041F026C042F0BEEC9FF0C2
:1023A00040C015F041C016F042C017F0A6ECA6F0F0
:1023B00015C0A9F016C0AAF017C0ABF0F5C043F0E5
:1023C000F6C044F0F7C045F0A9C040F0AAC041F003
:1023D000ABC042F0BEEC9FF040C0ACF041C0ADF0ED
:1023E00042C0AEF0ACC040F0ADC041F0AEC042F073
:1023F000000E436E200E446EC20E456EBEEC9FF082
:1024000040C0C4F141C0C5F142C0C6F112007E8691
:1024100012000001AF51000AD8B4F7D5040AD8B4AD
:1024200016D7260AD8B4C0D51E0AD8B461D5010A79
:10243000D8B44CD7020AD8B478D5E9D701015B6F7C
:1024400001015BAF1ED15B6D5B51800A120FD8A0FA
:10245000A0D0000E286F030E276F000E206F0A0E0B
:102460001F6F000E1A6F640E196F5B51176F186B98
:1024700017BF18073BECADF017C11DF118C11EF1D5
:1024800080ECABF0090E01011D25256F000E1E2109
:10249000266F5DECB2F0040E01012525F66EF10EFB
:1024A0002621F76EF86A000EF8220900F5CF49F1EF
:1024B0000900F5CF4AF10A00F5CF4BF1000E206F6D
:1024C000640E1F6F5B511D6F1E6B1DBF1E0780ECDE
:1024D000ABF0120E01011D25256F000E1E21266F87
:1024E000000E286F030E276F5DECB2F0040E0101A1
:1024F0002525F66EF10E2621F76EF86A000EF822F9
:102500000900F5CF46F10900F5CF47F10A00F5CFF4
:1025100048F1C3ECA4F046C158F147C159F148C194
:102520005AF158C146F159C147F15AC148F1000E5C
:102530000101286F030E276F000E1A6F0A0E196F24
:102540005B51176F186B17BF18073BECADF017C145
:1025500025F118C126F15DECB2F0040E010125252C
:10256000F66EF10E2621F76EF86A000EF8220900C9
:10257000F5CF49F10900F5CF4AF10A00F5CF4BF14B
:10258000C3ECA4F046C155F147C156F148C157F11B
:10259000120001015B51800A750FD8A05CD0000EBB
:1025A000206F0A0E1F6F5B511D6F1E6B1DBF1E0734
:1025B00080ECABF0090E01011D25256F000E1E21D8
:1025C000266F000E286F030E276F5DECB2F0040E2D
:1025D00001012525F66EF10E2621F76EF86A000E30
:1025E000F8220900F5CF46F10900F5CF47F10A00BE
:1025F000F5CF48F1000E286F030E276F000E1A6FFB
:102600000A0E196F5B51176F186B17BF18073BEC59
:10261000ADF017C125F118C126F15DECB2F0040E42
:1026200001012525F66EF10E2621F76EF86A000EDF
:10263000F8220900F5CF49F10900F5CF4AF10A0067
:10264000F5CF4BF1C3ECA4F046C155F147C156F1AB
:1026500048C157F1120001015B51030D040EF32430
:10266000F66EF10EF420F76EF86A000EF8220900FB
:10267000F5CF55F10900F5CF56F10A00F5CF57F126
:1026800012005B51800A120FD8A0A0D0000E286F54
:10269000030E276F000E206F0A0E1F6F000E1A6FB9
:1026A000640E196F5B51176F186B17BF18073BEC5F
:1026B000ADF017C11DF118C11EF180ECABF0090E91
:1026C00001011D25256F000E1E21266F5DECB2F065
:1026D000DD0E01012525F66EF00E2621F76EF86A53
:1026E000000EF8220900F5CF49F10900F5CF4AF1B3
:1026F0000A00F5CF4BF1000E206F640E1F6F5B5187
:102700001D6F1E6B1DBF1E0780ECABF0120E01018A
:102710001D25256F000E1E21266F000E286F030E4B
:10272000276F5DECB2F0DD0E01012525F66EF00E8F
:102730002621F76EF86A000EF8220900F5CF46F15F
:102740000900F5CF47F10A00F5CF48F1C3ECA4F03A
:1027500046C158F147C159F148C15AF158C146F133
:1027600059C147F15AC148F1000E0101286F030E0B
:10277000276F000E1A6F0A0E196F5B51176F186BD7
:1027800017BF18073BECADF017C125F118C126F1B2
:102790005DECB2F0DD0E01012525F66EF00E26216E
:1027A000F76EF86A000EF8220900F5CF49F109002A
:1027B000F5CF4AF10A00F5CF4BF1C3ECA4F046C1C6
:1027C00055F147C156F148C157F1120001015B5163
:1027D000800A750FD8A05CD0000E206F0A0E1F6F04
:1027E0005B511D6F1E6B1DBF1E0780ECABF0090E09
:1027F00001011D25256F000E1E21266F000E286F7A
:10280000030E276F5DECB2F0DD0E01012525F66E9B
:10281000F00E2621F76EF86A000EF8220900F5CFB7
:1028200046F10900F5CF47F10A00F5CF48F1000E57
:10283000286F030E276F000E1A6F0A0E196F5B5177
:10284000176F186B17BF18073BECADF017C125F1D8
:1028500018C126F15DECB2F0DD0E01012525F66E02
:10286000F00E2621F76EF86A000EF8220900F5CF67
:1028700049F10900F5CF4AF10A00F5CF4BF1C3EC5D
:10288000A4F046C155F147C156F148C157F11200B5
:1028900001015B51030DDD0EF324F66EF00EF42002
:1028A000F76EF86A000EF8220900F5CF55F109001D
:1028B000F5CF56F10A00F5CF57F112003C6E3CAE51
:1028C00013D13C6C3C50800A120FD8A09AD0000E55
:1028D000126E030E116E000E0A6E0A0E096E000EC5
:1028E000046E640E036E3C50016E026A01BE020665
:1028F00074ECADF001C007F002C008F005ECACF0DC
:10290000090E07240F6E000E0820106EBFECB2F007
:10291000040E0F24F66EF10E1020F76EF86A000E0A
:10292000F8220900F5CF2AF00900F5CF2BF00A00B4
:10293000F5CF2CF0000E0A6E640E096E3C50076E47
:10294000086A07BE080605ECACF0120E07240F6EED
:10295000000E0820106E000E126E030E116EBFECFA
:10296000B2F0040E0F24F66EF10E1020F76EF86A26
:10297000000EF8220900F5CF27F00900F5CF28F066
:102980000A00F5CF29F0B8ECA5F027C039F028C02F
:102990003AF029C03BF039C027F03AC028F03BC0DC
:1029A00029F0000E126E030E116E000E046E0A0E58
:1029B000036E3C50016E026A01BE020674ECADF07B
:1029C00001C00FF002C010F0BFECB2F0040E0F24F3
:1029D000F66EF10E1020F76EF86A000EF82209006C
:1029E000F5CF2AF00900F5CF2BF00A00F5CF2CF037
:1029F000B8ECA5F027C036F028C037F029C038F071
:102A000012003C50800A750FD8A059D0000E0A6EF3
:102A10000A0E096E3C50076E086A07BE080605ECF0
:102A2000ACF0090E07240F6E000E0820106E000E89
:102A3000126E030E116EBFECB2F0040E0F24F66E90
:102A4000F10E1020F76EF86A000EF8220900F5CF9B
:102A500027F00900F5CF28F00A00F5CF29F0000E85
:102A6000126E030E116E000E046E0A0E036E3C50C1
:102A7000016E026A01BE020674ECADF001C00FF0F7
:102A800002C010F0BFECB2F0040E0F24F66EF10E8F
:102A90001020F76EF86A000EF8220900F5CF2AF030
:102AA0000900F5CF2BF00A00F5CF2CF0B8ECA5F01B
:102AB00027C036F028C037F029C038F012003C504B
:102AC000030D040EF324F66EF10EF420F76EF86A8F
:102AD000000EF8220900F5CF36F00900F5CF37F0E7
:102AE0000A00F5CF38F012003C50800A120FD8A02F
:102AF0009AD0000E126E030E116E000E0A6E0A0EB0
:102B0000096E000E046E640E036E3C50016E026A84
:102B100001BE020674ECADF001C007F002C008F07F
:102B200005ECACF0090E07240F6E000E0820106EA5
:102B3000BFECB2F0DD0E0F24F66EF00E1020F76E33
:102B4000F86A000EF8220900F5CF2AF00900F5CF47
:102B50002BF00A00F5CF2CF0000E0A6E640E096E01
:102B60003C50076E086A07BE080605ECACF0120E72
:102B700007240F6E000E0820106E000E126E030E5A
:102B8000116EBFECB2F0DD0E0F24F66EF00E1020C9
:102B9000F76EF86A000EF8220900F5CF27F0090059
:102BA000F5CF28F00A00F5CF29F0B8ECA5F027C042
:102BB00039F028C03AF029C03BF039C027F03AC0BC
:102BC00028F03BC029F0000E126E030E116E000EAD
:102BD000046E0A0E036E3C50016E026A01BE0206CC
:102BE00074ECADF001C00FF002C010F0BFECB2F019
:102BF000DD0E0F24F66EF00E1020F76EF86A000E50
:102C0000F8220900F5CF2AF00900F5CF2BF00A00D1
:102C1000F5CF2CF0B8ECA5F027C036F028C037F07F
:102C200029C038F012003C50800A750FD8A059D046
:102C3000000E0A6E0A0E096E3C50076E086A07BE47
:102C4000080605ECACF0090E07240F6E000E0820F4
:102C5000106E000E126E030E116EBFECB2F0DD0EA0
:102C60000F24F66EF00E1020F76EF86A000EF822B0
:102C70000900F5CF27F00900F5CF28F00A00F5CFBD
:102C800029F0000E126E030E116E000E046E0A0E75
:102C9000036E3C50016E026A01BE020674ECADF098
:102CA00001C00FF002C010F0BFECB2F0DD0E0F2437
:102CB000F66EF00E1020F76EF86A000EF82209008A
:102CC000F5CF2AF00900F5CF2BF00A00F5CF2CF054
:102CD000B8ECA5F027C036F028C037F029C038F08E
:102CE00012003C50030DDD0EF324F66EF00EF420BE
:102CF000F76EF86A000EF8220900F5CF36F00900E9
:102D0000F5CF37F00A00F5CF38F012000101906FCF
:102D1000910E0101176F010E186FF50E196FFF0E5E
:102D20001A6F000E1C6F0F0E1B6FACECADF054D081
:102D3000910E0101176F010E186FC90E196FFF0E6A
:102D40001A6F3EECB0F05DD0910E0101176F010ECD
:102D5000186FCC0E196FFF0E1A6F3EECB0F051D009
:102D6000910E0101176F010E186FDE0E196FFF0E25
:102D70001A6F3EECB0F045D0910E0101176F010EB5
:102D8000186FE40E196FFF0E1A6F3EECB0F039D0D9
:102D9000910E0101176F010E186FF00E196FFF0EE3
:102DA0001A6F3EECB0F02DD0910E0101176F010E9D
:102DB000186FF80E196FFF0E1A6F3EECB0F021D0AD
:102DC000910E0101176F010E186FC90E196FFF0EDA
:102DD0001A6F3EECB0F015D001018F51000AD8B443
:102DE000A7D7010AD8B4B0D7030AD8B4B9D7010A13
:102DF000D8B4C2D7070AD8B4CBD7010AD8B4D4D72D
:102E0000DFD7910E0101176F010E186FFA0E196FBF
:102E1000FF0E1A6F3EECB0F06CD0910E0101176FEF
:102E2000010E186FC80E196FFF0E1A6F3EECB0F04E
:102E30007BD0910E0101176F010E186FCB0E196F29
:102E4000FF0E1A6F3EECB0F06FD0910E0101176FBC
:102E5000010E186FD10E196FFF0E1A6F3EECB0F015
:102E600063D0910E0101176F010E186FD70E196F05
:102E7000FF0E1A6F3EECB0F057D0910E0101176FA4
:102E8000010E186FDD0E196FFF0E1A6F3EECB0F0D9
:102E90004BD0910E0101176F010E186FE30E196FE1
:102EA000FF0E1A6F3EECB0F03FD0910E0101176F8C
:102EB000010E186FE90E196FFF0E1A6F3EECB0F09D
:102EC00033D0910E0101176F010E186FEF0E196FBD
:102ED000FF0E1A6F3EECB0F027D0910E0101176F74
:102EE000010E186FEF0E196FFF0E1A6F3EECB0F067
:102EF0001BD001019051000AD8B48FD7010AD8B471
:102F000098D7030AD8B4A1D7010AD8B4AAD7070A18
:102F1000D8B4B3D7010AD8B4BCD7030AD8B4C5D73C
:102F2000010AD8B4CED7D9D7910E0101176F010E7F
:102F3000186FFA0E196FFF0E1A6F3EECB0F06CD0DE
:102F4000910E0101176F010E186F6D0E196FFF0EB4
:102F50001A6F3EECB0F07BD0910E0101176F010E9D
:102F6000186FCE0E196FFF0E1A6F3EECB0F06FD0D7
:102F7000910E0101176F010E186FD40E196FFF0E1D
:102F80001A6F3EECB0F063D0910E0101176F010E85
:102F9000186FDA0E196FFF0E1A6F3EECB0F057D0B3
:102FA000910E0101176F010E186FE00E196FFF0EE1
:102FB0001A6F3EECB0F04BD0910E0101176F010E6D
:102FC000186FE60E196FFF0E1A6F3EECB0F03FD08F
:102FD000910E0101176F010E186FEC0E196FFF0EA5
:102FE0001A6F3EECB0F033D0910E0101176F010E55
:102FF000186FF20E196FFF0E1A6F3EECB0F027D06B
:10300000910E0101176F010E186FF20E196FFF0E6E
:103010001A6F3EECB0F01BD001018E51000AD8B4FB
:103020008FD7010AD8B498D7030AD8B4A1D7010A18
:10303000D8B4AAD7070AD8B4B3D7010AD8B4BCD732
:10304000030AD8B4C5D7010AD8B4CED7D9D7910EC0
:103050000101176F010E186FFC0E196FFF0E1A6F2A
:103060003EECB0F0910E0101646F010E656F00EC53
:1030700080F0120001015E6F6D0E01015E65AFD040
:10308000000E286F030E276F000E206F0A0E1F6FB1
:10309000000E1A6F640E196F5EC117F1186B3BECCE
:1030A000ADF017C11DF118C11EF180ECABF0090E97
:1030B00001011D25256F000E1E21266F5DECB2F06B
:1030C000040E01012525F66EF10E2621F76EF86A31
:1030D000000EF8220900F5CF49F10900F5CF4AF1B9
:1030E0000A00F5CF4BF1000E206F640E1F6F5EC11A
:1030F0001DF11E6B80ECABF0120E01011D25256F3A
:10310000000E1E21266F000E286F030E276F5DEC48
:10311000B2F0040E01012525F66EF10E2621F76EA0
:10312000F86A000EF8220900F5CF46F10900F5CF44
:1031300047F10A00F5CF48F1C3ECA4F046C15BF1BA
:1031400047C15CF148C15DF1000E0101286F030E1B
:10315000276F000E1A6F0A0E196F5EC117F1186BF8
:103160003BECADF017C125F118C126F15DECB2F0D2
:10317000040E01012525F66EF10E2621F76EF86A80
:10318000000EF8220900F5CF49F10900F5CF4AF108
:103190000A00F5CF4BF15BC146F15CC147F15DC15F
:1031A00048F1C3ECA4F046C158F147C159F148C1F8
:1031B0005AF158C146F159C147F15AC148F1000EC0
:1031C0000101496F000E4A6F3F0E4B6FC3ECA4F034
:1031D00046C155F147C156F148C157F112000A0ED8
:1031E00001015E656DD0000E286F030E276F000E83
:1031F0001A6F0A0E196F5EC117F1186B3BECADF038
:1032000017C125F118C126F15DECB2F0040E0101E1
:103210002525F66EF10E2621F76EF86A000EF822CB
:103220000900F5CF49F10900F5CF4AF10A00F5CFC1
:103230004BF1000E206F0A0E1F6F5EC11DF11E6B59
:1032400080ECABF0090E01011D25256F000E1E213B
:10325000266F000E286F030E276F5DECB2F0040E90
:1032600001012525F66EF10E2621F76EF86A000E93
:10327000F8220900F5CF46F10900F5CF47F10A0021
:10328000F5CF48F1C3ECA4F046C15BF147C15CF156
:1032900048C15DF15BC146F15CC147F15DC148F1D8
:1032A000000E0101496F000E4A6F3F0E4B6FC3ECD9
:1032B000A4F046C155F147C156F148C157F112007B
:1032C00001015E51030D040EF324F66EF10EF4209D
:1032D000F76EF86A000EF8220900F5CF46F10900F2
:1032E000F5CF47F10A00F5CF48F1000E496F000E07
:1032F0004A6F3F0E4B6FC3ECA4F046C155F147C176
:1033000056F148C157F112003F6E6D0E3F64A8D0D0
:10331000000E126E030E116E000E0A6E0A0E096E7A
:10332000000E046E640E036E3FC001F0026A74EC7E
:10333000ADF001C007F002C008F005ECACF0090EDA
:1033400007240F6E000E0820106EBFECB2F0040EC2
:103350000F24F66EF10E1020F76EF86A000EF822B8
:103360000900F5CF2AF00900F5CF2BF00A00F5CFC0
:103370002CF0000E0A6E640E096E3FC007F0086A5A
:1033800005ECACF0120E07240F6E000E0820106E34
:10339000000E126E030E116EBFECB2F0040E0F247D
:1033A000F66EF10E1020F76EF86A000EF822090092
:1033B000F5CF27F00900F5CF28F00A00F5CF29F066
:1033C000B8ECA5F027C03CF028C03DF029C03EF085
:1033D000000E126E030E116E000E046E0A0E036EC6
:1033E0003FC001F0026A74ECADF001C00FF002C002
:1033F00010F0BFECB2F0040E0F24F66EF10E1020A8
:10340000F76EF86A000EF8220900F5CF2AF00900DD
:10341000F5CF2BF00A00F5CF2CF03CC027F03DC0D3
:1034200028F03EC029F0B8ECA5F027C039F028C03C
:103430003AF029C03BF039C027F03AC028F03BC031
:1034400029F0000E2A6E000E2B6E3F0E2C6EB8EC8B
:10345000A5F027C036F028C037F029C038F0120098
:103460000A0E3F6469D0000E126E030E116E000E3C
:10347000046E0A0E036E3FC001F0026A74ECADF0F8
:1034800001C00FF002C010F0BFECB2F0040E0F2428
:10349000F66EF10E1020F76EF86A000EF8220900A1
:1034A000F5CF2AF00900F5CF2BF00A00F5CF2CF06C
:1034B000000E0A6E0A0E096E3FC007F0086A05EC9E
:1034C000ACF0090E07240F6E000E0820106E000EDF
:1034D000126E030E116EBFECB2F0040E0F24F66EE6
:1034E000F10E1020F76EF86A000EF8220900F5CFF1
:1034F00027F00900F5CF28F00A00F5CF29F0B8EC45
:10350000A5F027C03CF028C03DF029C03EF03CC0EB
:1035100027F03DC028F03EC029F0000E2A6E000EB4
:103520002B6E3F0E2C6EB8ECA5F027C036F028C0ED
:1035300037F029C038F012003F50030D040EF32479
:10354000F66EF10EF420F76EF86A000EF82209000C
:10355000F5CF27F00900F5CF28F00A00F5CF29F0C4
:10356000000E2A6E000E2B6E3F0E2C6EB8ECA5F0EE
:1035700027C036F028C037F029C038F01200000EFE
:103580002A6E800E2B6E3F0E2C6E79C027F07AC00B
:1035900028F07BC029F030ECB2F027C02DF028C015
:1035A0002EF029C02FF0ADECAAF0D8B00CD0000E50
:1035B0000001E76F210EE66F000E796F000E7A6F43
:1035C000000E7B6F1200000E00017C6F800E7D6F7D
:1035D0003F0E7E6F79C02AF07AC02BF07BC02CF0B2
:1035E00079C027F07AC028F07BC029F0B8ECA5F0AC
:1035F00027C024F028C025F029C026F0D2ECB2F074
:1036000024C040F025C041F026C042F0000E436EB9
:10361000800E446E3F0E456EBEEC9FF040C07FF0C2
:1036200041C080F042C081F07FC066F080C067F08A
:1036300081C068F094ECA0F066C088F067C089F0A3
:1036400068C08AF079C027F07AC028F07BC029F0E2
:1036500030ECB2F027C02AF028C02BF029C02CF0A3
:10366000C30E2D6E350E2E6E3F0E2F6EADECAAF0F2
:10367000D8B023D079C015F07AC016F07BC017F00F
:1036800088C018F089C019F08AC01AF0A6ECA6F01C
:1036900015C08BF016C08CF017C08DF08BC058F0A1
:1036A0008CC059F08DC05AF006EC9EF058C079F0ED
:1036B00059C07AF05AC07BF0120000017BAF55D0A0
:1036C00079C018F07AC019F07BC01AF088C024F0D5
:1036D00089C025F08AC026F0D2ECB2F024C015F0E3
:1036E00025C016F026C017F0A6ECA6F015C08BF08A
:1036F00016C08CF017C08DF08BC058F08CC059F0FC
:103700008DC05AF006EC9EF058C085F059C086F086
:103710005AC087F0100E436EC90E446E3F0E456EC0
:1037200085C024F086C025F087C026F0D2ECB2F028
:1037300024C040F025C041F026C042F0BEEC9FF00E
:1037400040C082F041C083F042C084F082C024F0C7
:1037500083C025F084C026F0D2ECB2F024C079F00A
:1037600025C07AF026C07BF0120079C018F07AC02C
:1037700019F07BC01AF088C015F089C016F08AC015
:1037800017F0A6ECA6F015C08BF016C08CF017C091
:103790008DF08BC058F08CC059F08DC05AF006ECFB
:1037A0009EF058C085F059C086F05AC087F085C099
:1037B00024F086C025F087C026F0D2ECB2F024C0F9
:1037C00040F025C041F026C042F0100E436EC90EF5
:1037D000446E3F0E456EBEEC9FF040C079F041C094
:1037E0007AF042C07BF01200000E0001726F68AFE9
:1037F00011D066C024F067C025F068C026F0D2EC76
:10380000B2F024C066F025C067F026C068F0010E53
:103810000001726F66C027F067C028F068C029F009
:10382000FA0E2A6E220E2B6E3E0E2C6EB8ECA5F010
:1038300027C066F028C067F029C068F066C060F055
:1038400067C061F068C062F066C056F067C057F0AC
:1038500068C058F019ECA7F056C063F057C064F088
:1038600058C065F034ECB1F060C066F061C067F03C
:1038700062C068F066C027F067C028F068C029F011
:10388000000E2A6E800E2B6E400E2C6EB8ECA5F04A
:1038900027C066F028C067F029C068F0000E2A6EC5
:1038A000000E2B6E400E2C6E66C02DF067C02EF001
:1038B00068C02FF0ADECAAF0D8B01DD066C060F0A3
:1038C00067C061F068C062F0000E0001636F000E17
:1038D000646F400E656F34ECB1F060C066F061C09B
:1038E00067F062C068F000017251D8A402D0010EE6
:1038F00001D0000E726F000E2A6E800E2B6E3F0EEE
:103900002C6E66C02DF067C02EF068C02FF0ADECB5
:10391000AAF0D8B01CD066C024F067C025F068C0FB
:1039200026F0D2ECB2F024C040F025C041F026C011
:1039300042F0000E436E000E446E400E456EBEEC2B
:103940009FF040C066F041C067F042C068F066C0BA
:1039500027F067C028F068C029F066C02AF067C069
:103960002BF068C02CF0B8ECA5F027C06FF028C091
:1039700070F029C071F06FC04CF070C04DF071C094
:103980004EF07B0E4F6EF10E506E000E526E030E17
:10399000516E88ECA7F04CC069F04DC06AF04EC083
:1039A0006BF069C018F06AC019F06BC01AF0000E15
:1039B000526E040E516E5D0E4F6EF10E506E6FC062
:1039C0004CF070C04DF071C04EF088ECA7F04CC0C8
:1039D00015F04DC016F04EC017F0A6ECA6F015C0BD
:1039E0006CF016C06DF017C06EF066C027F067C0AF
:1039F00028F068C029F06CC02AF06DC02BF06EC0B2
:103A00002CF0B8ECA5F027C066F028C067F029C0FC
:103A100068F000017251D8B40FD066C024F067C0BE
:103A200025F068C026F0D2ECB2F024C066F025C0C4
:103A300067F026C068F0120066C066F067C067F0E5
:103A400068C068F01200000E0001A36F000EA46FA2
:103A5000000EA56F000E8E6F800E8F6FBF0E906FE1
:103A6000C4ECAFF08EC0A0F08FC0A1F090C0A2F067
:103A7000A0C027F0A1C028F0A2C029F0000E2A6E35
:103A8000000E2B6E400E2C6EB8ECA5F027C0A3F0F4
:103A900028C0A4F029C0A5F0000E2A6E000E2B6EDF
:103AA000400E2C6E97C027F098C028F099C029F0DE
:103AB000B8ECA5F027C024F028C025F029C026F0D6
:103AC000D2ECB2F024C040F025C041F026C042F054
:103AD000A3C043F0A4C044F0A5C045F0BEEC9FF0E5
:103AE00040C0A3F041C0A4F042C0A5F0000E2A6E71
:103AF000000E2B6E400E2C6E97C027F098C028F059
:103B000099C029F0B8ECA5F027C09AF028C09BF026
:103B100029C09CF09AC066F09BC067F09CC068F01A
:103B2000F4EC9BF066C09DF067C09EF068C09FF00B
:103B30009DC040F09EC041F09FC042F0A3C043F042
:103B4000A4C044F0A5C045F0BEEC9FF040C0A3F077
:103B500041C0A4F042C0A5F0000E00018E6F800E9F
:103B60008F6FBF0E906FC4ECAFF08EC0A0F08FC00F
:103B7000A1F090C0A2F0A3C015F0A4C016F0A5C09B
:103B800017F0000E2A6E800E2B6E400E2C6EA0C019
:103B900027F0A1C028F0A2C029F0B8ECA5F027C0FA
:103BA00018F028C019F029C01AF0A6ECA6F015C02C
:103BB000A3F016C0A4F017C0A5F0A3C066F0A4C07F
:103BC00067F0A5C068F094ECA0F066C0A3F067C0F1
:103BD000A4F068C0A5F094C027F095C028F096C066
:103BE00029F0A3C02AF0A4C02BF0A5C02CF0B8EC9B
:103BF000A5F027C0A3F028C0A4F029C0A5F0A3C059
:103C000094F0A4C095F0A5C096F0120058C027F01B
:103C100059C028F05AC029F030ECB2F027C06AF041
:103C200028C06BF029C06CF000016A516B116C1157
:103C3000D8A407D0000E586E000E596E000E5A6EB2
:103C40001200000E2A6E800E2B6E3F0E2C6E6AC084
:103C50002DF06BC02EF06CC02FF0ADECAAF0D8B0F8
:103C600002D0010E01D0000E0001666F6651D8B47B
:103C700014D0000E156E800E166E3F0E176E6AC0C1
:103C800018F06BC019F06CC01AF0A6ECA6F015C0C5
:103C90006AF016C06BF017C06CF06AC027F06BC0FA
:103CA00028F06CC029F06AC02AF06BC02BF06CC001
:103CB0002CF0B8ECA5F027C067F028C068F029C048
:103CC00069F067C04CF068C04DF069C04EF06C0EF2
:103CD0004F6EF10E506E000E526E040E516E88EC57
:103CE000A7F04CC060F04DC061F04EC062F067C0FC
:103CF0004CF068C04DF069C04EF04B0E4F6EF10EA7
:103D0000506E000E526E050E516E88ECA7F04CC03E
:103D100063F04DC064F04EC065F06AC027F06BC020
:103D200028F06CC029F060C018F061C019F062C0C2
:103D30001AF063C015F064C016F065C017F0A6EC69
:103D4000A6F015C02AF016C02BF017C02CF0B8EC66
:103D5000A5F027C06AF028C06BF029C06CF0000104
:103D60006651D8B41CD06AC024F06BC025F06CC07A
:103D700026F0D2ECB2F024C040F025C041F026C0BD
:103D800042F0100E436EC90E446E3F0E456EBEECFF
:103D90009FF040C06AF041C06BF042C06CF05ABE68
:103DA00007D06AC058F06BC059F06CC05AF01200CE
:103DB0006AC024F06BC025F06CC026F0D2ECB2F0E3
:103DC00024C058F025C059F026C05AF012002DC169
:103DD00031F10101326B336B2C35313701E3328124
:103DE0003151366F30C131F1326B336B2F35313792
:103DF00001E332813151356F3651D8B40BD0355192
:103E0000365DD8B00ED0365100083525316F180E0A
:103E1000316507D02EC12BF12FC12CF130C12DF10E
:103E200012003551D8B40BD03651355DD8B00ED014
:103E3000355100083625316F180E316507D02BC17A
:103E40002BF12CC12CF12DC12DF11200060E346F77
:103E50002DBF348F30BF348D2C8FFF0E2B17FF0EEC
:103E60002C17000E2D172F8FFF0E2E17FF0E2F175A
:103E7000000E30173551365DD8B01BD0D8902E3794
:103E80002F373037350736513519D8B40DD03407B0
:103E900034C131F1070E3117D8B406D0EFD7D8901E
:103EA0002D332C332B33362B35513619D8B41FD044
:103EB000F6D73651355DD8B01AD0D8902B372C377D
:103EC0002D37360736513519D8B40DD0340734C1E3
:103ED00031F1070E3117D8B406D0EFD7D890303370
:103EE0002F332E33352B35513619D8A4F7D734AFAD
:103EF0000CD0FF0E2B1BFF0E2C1BFF0E2D1B010EDB
:103F00002B27000E2C23000E2D2334AD0CD0FF0EDA
:103F10002E1BFF0E2F1BFF0E301B010E2E27000E37
:103F20002F23000E3023000E346F2B512E272C51DF
:103F30002F232D51302330AF0ED0FF0E2E1BFF0E3E
:103F40002F1BFF0E301B010E2E27000E2F23000EFD
:103F50003023010E346F2EC117F12FC118F130C17B
:103F600019F136C11AF134C11BF1C7ECA8F017C121
:103F70002BF118C12CF119C12DF1120042C046F0ED
:103F8000476A486A4134463601E3478046504B6EE3
:103F900045C046F0476A486A4434463601E34780E4
:103FA00046504A6E4B50D8B40BD04A504B5CD8B0F8
:103FB0000ED04B5000084A24466E180E466407D0B7
:103FC00043C040F044C041F045C042F012004A50A6
:103FD000D8B40BD04B504A5CD8B00ED04A50000831
:103FE0004B24466E180E466407D040C040F041C0D6
:103FF00041F042C042F01200060E496E42BE498EA8
:1040000045BE498C418EFF0E4016FF0E4116000E34
:104010004216448EFF0E4316FF0E4416000E451640
:104020004A504B5CD8B01BD0D89043364436453606
:104030004A064B504A18D8B40DD0490649C046F03C
:10404000070E4616D8B406D0EFD7D8904232413288
:1040500040324B2A4A504B18D8B41FD0F6D74B5099
:104060004A5CD8B01AD0D8904036413642364B061A
:104070004B504A18D8B40DD0490649C046F0070E37
:104080004616D8B406D0EFD7D890453244324332E2
:104090004A2A4A504B18D8A4F7D749AE0CD0FF0E85
:1040A000401AFF0E411AFF0E421A010E4026000E62
:1040B0004122000E422249AC0CD0FF0E431AFF0EE3
:1040C000441AFF0E451A010E4326000E4422000E2C
:1040D0004522000E496E4050432641504422425032
:1040E000452245AE0ED0FF0E431AFF0E441AFF0EB6
:1040F000451A010E4326000E4422000E4522010EF1
:10410000496E43C001F044C002F045C003F04BC00B
:1041100004F049C005F01FECA9F001C040F002C056
:1041200041F003C042F01200000E2A6E000E2B6E0A
:10413000000E2C6E66C02DF067C02EF068C02FF008
:10414000ADECAAF0D8A00ED0000168AF04D0000EEC
:10415000E76F210EE66F000E666F000E676F000EB0
:10416000686F120066C070F067C071F068C072F0CE
:1041700066C069F067C06AF068C06BF00001691F33
:104180006A1F6B1F692B000E6A236B23C80E6925FB
:10419000766F6E0E6A21776FBE0E6B21786FD890A6
:1041A000783377337633000E705F800E715B000ECC
:1041B000725B040E6F6F76C06CF077C06DF078C0E4
:1041C0006EF076C027F077C028F078C029F070C074
:1041D0002AF071C02BF072C02CF0B8ECA5F027C00B
:1041E00073F028C074F029C075F073C027F074C054
:1041F00028F075C029F076C02AF077C02BF078C07F
:104200002CF0B8ECA5F027C073F028C074F029C0DA
:1042100075F073C027F074C028F075C029F076C01F
:104220002AF077C02BF078C02CF0B8ECA5F027C0AE
:1042300073F028C074F029C075F076C027F077C0FD
:1042400028F078C029F0000E2A6EC00E2B6E3F0EAB
:104250002C6EB8ECA5F027C076F028C077F029C006
:1042600078F076C060F077C061F078C062F073C01B
:1042700063F074C064F075C065F034ECB1F060C0F8
:1042800076F061C077F062C078F000016F2F93D7AD
:1042900076C027F077C028F078C029F066C02AF0F1
:1042A00067C02BF068C02CF0B8ECA5F027C066F012
:1042B00028C067F029C068F0120019C11DF1010182
:1042C0001E6B1F6B18351D3701E31E811D51256FB5
:1042D0002551D8A409D0000E176F000E186F000EDC
:1042E000196F000E1A6F12001CC11DF11E6B1F6B9F
:1042F0001B351D3701E31E811D51246F2451D8A4A5
:1043000009D0000E176F000E186F000E196F000E07
:104310001A6F1200188FFF0E1717FF0E1817000ED6
:1043200019171B8FFF0E1A17FF0E1B17000E1C17F5
:10433000000E206F000E216F000E226F000E236F03
:104340007F0E255F2451980F255F180E246FD8909B
:1043500020372137223723371A51175D1B5118593F
:104360001C511959D8A007D01A51175F1B51185B5F
:104370001C51195B2081D890173718371937242F13
:10438000E6D725AF16D02551800A970FD8B009D0AF
:10439000000E176F000E186F000E196F000E1A6FC7
:1043A0001200D8902333223321332033253FF9D70D
:1043B00015D0170E25650FD0000E176F000E186F61
:1043C000000E196F000E1A6F1200D8902037213797
:1043D0002237233725072551D8A4F7D720C117F155
:1043E00021C118F122C119F123C11AF1120003C031
:1043F00007F0086A096A0234073601E308800750AB
:104400000F6E0F50D8A409D0000E016E000E026E80
:10441000000E036E000E046E120006C007F0086A5C
:10442000096A0534073601E3088007500E6E0E5006
:10443000D8A409D0000E016E000E026E000E036EAD
:10444000000E046E1200028EFF0E0116FF0E021601
:10445000000E0316058EFF0E0416FF0E0516000E45
:104460000616000E0A6E000E0B6E000E0C6E000E8D
:104470000D6E7F0E0F5E0E50980F0F5E180E0E6EB3
:10448000D8900A360B360C360D360450015C0550B8
:10449000025806500358D8A007D00450015E0550BA
:1044A000025A0650035A0A80D89001360236033663
:1044B0000E2EE6D70FAE16D00F50800A970FD8B049
:1044C00009D0000E016E000E026E000E036E000E8B
:1044D000046E1200D8900D320C320B320A320F3EAD
:1044E000F9D715D0170E0F640FD0000E016E000E15
:1044F000026E000E036E000E046E1200D8900A3693
:104500000B360C360D360F060F50D8A4F7D70AC05D
:1045100001F00BC002F00CC003F00DC004F012005B
:10452000010119351A35226F2251D8A409D0000E85
:10453000176F000E186F000E196F000E1A6F120021
:104540001C351D35216F2151D8A409D0000E176FDD
:10455000000E186F000E196F000E1A6F1200198FDF
:10456000FF0E1717FF0E1817FF0E1917000E1A1758
:104570001C8FFF0E1A17FF0E1B17FF0E1C17000EC5
:104580001D17000E1D6F000E1E6F000E1F6F000E18
:10459000206F7F0E225F2151A00F225F200E216F1E
:1045A000D8901D371E371F3720371A51175D1B5102
:1045B00018591C5119591D511A59D8A009D01A510E
:1045C000175F1B51185B1C51195B1D511A5B1D8134
:1045D000D8901737183719371A37212FE1D722AF5C
:1045E00016D02251800A9F0FD8B009D0000E176F45
:1045F000000E186F000E196F000E1A6F1200D8907F
:1046000020331F331E331D33223FF9D715D01F0E21
:1046100022650FD0000E176F000E186F000E196F75
:10462000000E1A6F1200D8901D371E371F37203723
:1046300022072251D8A4F7D71DC117F11EC118F1C6
:104640001FC119F120C11AF11200033404340C6E99
:104650000C50D8A409D0000E016E000E026E000EA0
:10466000036E000E046E1200063407340B6E0B50FE
:10467000D8A409D0000E016E000E026E000E036E6B
:10468000000E046E1200038EFF0E0116FF0E0216BE
:10469000FF0E0316000E0416068EFF0E0416FF0E04
:1046A0000516FF0E0616000E0716000E076E000E0A
:1046B000086E000E096E000E0A6E7F0E0C5E0B5027
:1046C000A00F0C5E200E0B6ED89007360836093608
:1046D0000A360450015C0550025806500358075032
:1046E0000458D8A009D00450015E0550025A065063
:1046F000035A0750045A0780D89001360236033611
:1047000004360B2EE1D70CAE16D00C50800A9F0F4A
:10471000D8B009D0000E016E000E026E000E036EBE
:10472000000E046E1200D8900A32093208320732A5
:104730000C3EF9D715D01F0E0C640FD0000E016E81
:10474000000E026E000E036E000E046E1200D89072
:104750000736083609360A360C060C50D8A4F7D7A7
:1047600007C001F008C002F009C003F00AC004F05D
:104770001200DAC1B1F10101B26B000EB66F000E8A
:10478000B56FB6BF06D0B6510FE1400EB55DD8B0DB
:104790000BD0C00EB525D96E020EB621DA6E000E12
:1047A000DF6EB54BB62BEDD7000EB46F000EB36FB6
:1047B0000ED0D0ECB0F00101AE6FC00EB325D96EB3
:1047C000020EB421DA6EAEC1DFFFB34BB42BB15190
:1047D000B35DB451800AAE6FB251800AAE59D8A011
:1047E000E8D7EBC0DBF117D0FF0EAE6FFF0EAF6F57
:1047F000C00E176F020E186F98ECAFF00101AE51AA
:104800001727AF511823C00E1725D96E020E182195
:10481000DA6E000EDF6EFF0EAE6FFF0EAF6FC00ED2
:10482000176F020E186F98ECAFF00101AE51172709
:10483000AF511823C00E1725D96E020E1821DA6E5B
:104840000A0EDE18D8B4D0D7FF0EAE6FFF0EAF6FD2
:10485000C00E176F020E186F98ECAFF00101AE5149
:104860001727AF511823C00E1725D96E020E182135
:10487000DA6E0D0EDE18D8B4B7D70001FD91C00E68
:104880000101A06F020EA16FB7EC8AF0120057C1B0
:1048900059F101015A6B5B6B5635593701E35A8167
:1048A0005951636F6351D8A409D0000E556F000EA3
:1048B000566F000E576F000E586F1200170E596F8B
:1048C00055C15AF156C15BF157C15CF159295D6F71
:1048D00004D0D8905C335B335A335D2FFAD7010193
:1048E0005A515E6F568FFF0E5517FF0E5617000E6A
:1048F000571755515F6F5651606F5751616F626B1B
:104900008E0E635F63AF16D06351800A8F0FD8B0ED
:1049100009D0000E556F000E566F000E576F000E37
:10492000586F1200D8906233613360335F33633F56
:10493000F9D715D0170E63650FD0000E556F000E16
:10494000566F000E576F000E586F1200D8905F37E9
:1049500060376137623763076351D8A4F7D75E5178
:10496000D8B408D0621F611F601F5F6D000E602306
:10497000612362235FC155F160C156F161C157F1F6
:1049800062C158F1120048C14CF101014D6B4E6BF0
:1049900047354C3701E34D814C514F6F4F51D8A4EF
:1049A00007D0000E466F000E476F000E486F1200D2
:1049B0004BC14CF14D6B4E6B4A354C3701E34D8189
:1049C0004C51546F5451D8A407D0000E466F000EBE
:1049D000476F000E486F120054517B0F4F2748C19C
:1049E00054F14B51541B800E5417478F4A8FFF0EC2
:1049F0004917FF0E4A17000E4B17000E506F000E9E
:104A0000516F000E526F070E536F46A106D04951E9
:104A100050274A5151234B515223D89048334733A2
:104A20004633D89049374A374B37532FEED7090EC4
:104A3000536F46A106D0495150274A5151234B513B
:104A40005223D890483347334633D89052335133AA
:104A50005033532FEED750C117F151C118F152C145
:104A600019F14FC11AF154C11BF1C7ECA8F017C1DD
:104A700046F118C147F119C148F112003FC041F099
:104A8000426A436A3E34413601E3428041504B6EF4
