:0400000085EF00F098
:060008005F8278EFCAF0F0
:100018005F80D8CF3AF1E8CF3BF1E0CF3CF1FACF9F
:100028003DF1FBCF3EF1E9CF3FF1EACF40F1E1CF1F
:1000380041F1E2CF42F1D9CF43F1DACF44F1F3CF26
:1000480045F1F4CF46F1F6CF47F1F7CF48F1F8CFB5
:1000580049F1F5CF4AF15FC04BF160C04CF161C086
:100068004DF162C04EF10E012EBB38AB03D055ECFA
:10007800DDF01BD02CBD36AD0DD001D816D0050053
:10008800FA6E0201DA51FD6EDB51FE6EDC51FF6E35
:10009800FA5012002EBD38AD03D038ECDCF005D094
:1000A8002EB338A302D0A3ECDDF04EC162F04DC1EF
:1000B80061F04CC160F04BC15FF04AC1F5FF49C126
:1000C800F8FF48C1F7FF47C1F6FF46C1F4FF45C135
:1000D800F3FF44C1DAFF43C1D9FF42C1E2FF41C186
:1000E800E1FF40C1EAFF3FC1E9FF3EC1FBFF3DC15F
:1000F800FAFF3CC1E0FF3BC1E8FF3AC1D8FF5F907F
:06010800100049EFCDF0EC
:10CDDC00000000803F000020410000C84200007AA3
:10CDEC004400401C460050C34700247449809618E8
:10CDFC004B20BCBE4C286B6E4EF9021550EC78AD36
:10CE0C0060CAF249710000803FCDCCCC3D0AD723DB
:10CE1C003C6F12833A17B7D138ACC52737BD37866C
:10CE2C003595BFD63377CC2B325F708930FFE6DB7C
:10CE3C002E08E53C1E6042A20D010000000A000015
:10CE4C000064000000E803000010270000A0860129
:10CE5C000040420F008096980000E1F50500CA9A48
:10CE6C003B01000000100000000001000000100059
:10CE7C000000000100000010000000000100000094
:10CE8C0010140010000C0008000400000018000032
:10CE9C000000000000000000005F00000000000027
:10CEAC000007000700000000147F147F140000002E
:10CEBC00242A7F2A12000000231308646200000059
:10CECC003649552250000000000503000000000008
:10CEDC001C2241000000000041221C000000000048
:10CEEC00082A1C2A0800000008083E080800000058
:10CEFC00A0600000000000000808080808000000FE
:10CF0C006060000000000000201008040200000017
:10CF1C003E5149453E00000000427F4000000000A9
:10CF2C00625149494600000022414949360000003F
:10CF3C001814127F100000002745454539000000E9
:10CF4C003C4A49493000000001710905030000000A
:10CF5C003649494936000000064949291E0000009F
:10CF6C00003636000000000000AC6C000000000031
:10CF7C0008142241000000001414141414000000C2
:10CF8C0041221408000000000201510906000000B3
:10CF9C00324979413E0000007E0909097E000000FB
:10CFAC007F494949360000003E41414122000000C2
:10CFBC007F4141221C0000007F494949410000008B
:10CFCC007F090909010000003E4141517200000037
:10CFDC007F0808087F000000417F4100000000002E
:10CFEC002040413F010000007F0814224100000056
:10CFFC007F404040400000007F020C027F00000098
:10D00C007F0408107F0000003E4141413E000000BB
:10D01C007F090909060000003E4151215E00000015
:10D02C007F0919294600000026494949460000009D
:10D03C0001017F01010000003F4040403F00000023
:10D04C001F2040201F0000003F4038403F000000E0
:10D05C006314081463000000030478040300000048
:10D06C0061514945430000007F4141000000000030
:10D07C00020408102000000041417F000000000065
:10D08C000402010204000000808080808000000007
:10D09C0001020400000000002054545478000000E9
:10D0AC007F48444438000000384444280000000005
:10D0BC00384444487F000000385454541800000091
:10D0CC00087E09020000000018A4A4A47C00000043
:10D0DC007F08040478000000007D000000000000C0
:10D0EC0080847D00000000007F10284400000000B8
:10D0FC00417F4000000000007C0418047800000010
:10D10C007C08047C00000000384444380000000017
:10D11C00FC24241800000000182424FC000000004B
:10D12C00007C080400000000485454240000000057
:10D13C00047F4400000000003C40407C00000000E4
:10D14C001C2040201C0000003C4030403C000000F3
:10D15C0044281028440000001CA0A07C0000000003
:10D16C004464544C440000000836410000000000A8
:10D17C00007F0000000000004136080000000000A5
:10D18C000201010201000000020505020000000678
:10D19C003C04427D9F6A425C900142604DBB405111
:10D1AC00EC473EDE8D1FBBECF34A48359595C7170F
:10D1BC00C1DC45FDDB6DC372B33340063C0442C099
:10D1CC00598B4274044442F99B4F410000803F2B21
:10D1DC003401487F9DB045E7FFD9420000803F4CA9
:10D1EC00697374206F6620616C6C20737570706F3E
:10D1FC007274656420636F6D6D616E64733A0A0DB1
:10D20C0044657669636520436F6E74726F6C20435E
:10D21C006F6D6D616E64733A20436F6D6D616E64FA
:10D22C007320746F207669657720616E6420636F5C
:10D23C006E74726F6C206C6F77206C6576656C20E9
:10D24C0073797374656D2066756E6374696F6E6146
:10D25C006C6974790A0D20202052657365743A202C
:10D26C00436C6561727320746865207465726D69B6
:10D27C006E616C20616E64207265736574732074CA
:10D28C006865206D6963726F636F6E74726F6C6C1E
:10D29C0065720A0D202020436C6561723A20436C44
:10D2AC006561727320746865207465726D696E6156
:10D2BC006C2062757420646F65736E2774207265C0
:10D2CC0073657420746865206D6963726F0A0D2034
:10D2DC0020204361757365206F66205265736574F9
:10D2EC003F3A2052657475726E73207468652063C2
:10D2FC0061757365206F6620746865206D6F73743B
:10D30C0020726563656E742064657669636520724E
:10D31C00657365740A0D2020202A49444E3F3A203B
:10D32C0052657475726E73206465766963652069E5
:10D33C0064656E74696669636174696F6E20737479
:10D34C0072696E670A0D202020446576696365203A
:10D35C004F6E2054696D653F3A2052657475726E3C
:10D36C007320646576696365206F6E2074696D65E2
:10D37C002073696E6365206C6173742064657669D3
:10D38C0063652072657365740A0D202020446576F0
:10D39C006963652049443F3A2052657475726E7317
:10D3AC00206465766963652049442061732070723E
:10D3BC00652D70726F6772616D6D656420696E208A
:10D3CC00666C617368206D656D6F72790A0D202033
:10D3DC00205265766973696F6E2049443F3A20523A
:10D3EC00657475726E732064657669636520736904
:10D3FC006C69636F6E207265766973696F6E204914
:10D40C0044206173207072652D70726F6772616D4C
:10D41C006D656420696E20666C617368206D656D46
:10D42C006F72790A0D202020557365722049447360
:10D43C003F3A2052657475726E732061206C69736B
:10D44C0074206F66207573657220494473202864BC
:10D45C006973706C6179656420696E2068657829E0
:10D46C002061732073746F72656420696E20666C22
:10D47C00617368206D656D6F72790A0D20202041F3
:10D48C004443204572726F72733F3A205265747533
:10D49C00726E7320746865206361757365206F66A6
:10D4AC0020616E20414443206572726F7220696660
:10D4BC0020616E206572726F72206F636375727279
:10D4CC0065640A0D202020436C6561722041444341
:10D4DC00204572726F72733A20436C6561727320CF
:10D4EC0074686520414443206572726F7220616ECE
:10D4FC006420726573756D65732041444320636FBE
:10D50C006E76657273696F6E730A0D202020436FFF
:10D51C006D6D204572726F72733F3A20526574754F
:10D52C00726E73206966206120636F6D6D756E6914
:10D53C00636174696F6E73206572726F72206861BB
:10D54C0073206F636375727265640A0D202020432B
:10D55C006C65617220436F6D6D204572726F7273D2
:10D56C003A20436C656172732074686520636F6D3B
:10D57C006D756E69636174696F6E73206572726F1D
:10D58C00720A0D202020436C656172204D61782059
:10D59C0056616C7565733A20457261736573206DC5
:10D5AC006178696D756D207265636F726465642056
:10D5BC0076616C7565732066726F6D2045455052AF
:10D5CC004F4D0A0D20202048656C703A2054686934
:10D5DC0073206D6573736167652C206C697374734C
:10D5EC0020737570706F7274656420636F6D6D61FC
:10D5FC006E64730A0D0A0D446576696365204D658A
:10D60C0061737572656D656E7420436F6D6D616EBF
:10D61C0064733A2056696577206C6F77206C657659
:10D62C00656C2073797374656D206D6561737572AB
:10D63C00656D656E74730A0D2020204D65617375E0
:10D64C00726520504F533350333F3A2052657475F6
:10D65C00726E73202B332E33562041444320436F7C
:10D66C006E76657273696F6E20696E20766F6C745E
:10D67C00730A0D2020204D65617375726520504F23
:10D68C005331323F3A2052657475726E73202B31D0
:10D69C0032562041444320436F6E76657273696F36
:10D6AC006E20696E20766F6C74730A0D2020204DED
:10D6BC00656173757265204469652054656D703FB2
:10D6CC003A2052657475726E7320746865206D69AA
:10D6DC0063726F636F6E74726F6C6C6572206469C9
:10D6EC00652074656D706572617475726520696E04
:10D6FC00206465677265657320430A0D2020204DF8
:10D70C00656173757265204656523F3A20526574B6
:10D71C0075726E732074686520696E7465726E61C3
:10D72C006C20666978656420766F6C74616765201F
:10D73C007265666572656E63652062756666657294
:10D74C002031206F757470757420696E20766F6C43
:10D75C0074730A0D2020204D65617375726520412C
:10D76C005653533F3A2052657475726E7320746829
:10D77C0065206D656173757265642076616C756585
:10D78C00206F6620416E616C6F6720565353206981
:10D79C006E20766F6C74730A0D2020204D617820FA
:10D7AC00504F5333503320566F6C746167653F3A5A
:10D7BC002052657475726E7320746865206D617883
:10D7CC00696D756D207265636F72646564202B33AF
:10D7DC002E3356205261696C20566F6C74616765EC
:10D7EC00206D656173757265640A0D2020204D6192
:10D7FC007820504F53313220566F6C746167653FFF
:10D80C003A2052657475726E7320746865206D6170
:10D81C0078696D756D207265636F72646564202B19
:10D82C00313256205261696C20566F6C7461676599
:10D83C00206D656173757265640A0D2020204D6141
:10D84C0078204469652054656D703F3A20526574A8
:10D85C0075726E7320746865206D6178696D756D75
:10D86C00207265636F7264656420646965207465F9
:10D87C006D7065726174757265206D65617375721A
:10D88C0065640A0D2020204D6178204656522056A2
:10D89C006F6C746167653F3A2052657475726E7374
:10D8AC0020746865206D6178696D756D2072656393
:10D8BC006F726465642046565220427566666572C6
:10D8CC00203120566F6C74616765206D65617375CE
:10D8DC007265640A0D0A0D5072696D617279204D82
:10D8EC006561737572656D656E7420436F6D6D61E6
:10D8FC006E64733A20566965772068696768206C96
:10D90C006576656C206F7574707574206D656173C8
:10D91C007572656D656E747320616E642063616CE5
:10D92C0063756C6174696F6E730A0D2020204D65F0
:10D93C006173757265204465746563746564204316
:10D94C00757272656E743F3A2052657475726E739F
:10D95C00206D65617375726564206F757470757474
:10D96C002063757272656E7420696E20616D7073C0
:10D97C00206173207365656E206279204144430AEF
:10D98C000D2020204D65617375726520524D53201A
:10D99C0043757272656E743F3A2052657475726E7F
:10D9AC0073207468652063616C63756C6174656465
:10D9BC0020524D53206F757470757420637572729C
:10D9CC00656E742066726F6D206D6561737572651E
:10D9DC006D656E747320616E64205452494143200E
:10D9EC00666972696E6720616E676C650A0D20202E
:10D9FC00204D65617375726520524D5320566F6CC6
:10DA0C00746167653F3A2052657475726E73207449
:10DA1C0068652063616C63756C6174656420524D3C
:10DA2C0053206F757470757420766F6C74616765B4
:10DA3C002066726F6D2054524941432066697269A9
:10DA4C006E6720616E676C650A0D2020204D656144
:10DA5C007375726520506F7765723F3A205265740A
:10DA6C0075726E73207468652063616C63756C618C
:10DA7C00746564206F757470757420706F7765723F
:10DA8C0020696E2057617474730A0D2020204D6537
:10DA9C00617375726520456E657267793F3A2052E5
:10DAAC00657475726E73206D656173757265642033
:10DABC00656E657267792073696E6365206D65614B
:10DACC00737572656D656E7420726573657420690B
:10DADC006E205761747420486F7572730A0D202084
:10DAEC0020436C65617220456E657267793A2052ED
:10DAFC00657365747320746865206D6561737572E8
:10DB0C006564206F757470757420656E65726779C5
:10DB1C0020746F207A65726F0A0D2020204C6F6183
:10DB2C0064204F6E2054696D653F3A2052657475C0
:10DB3C00726E73206C6F6164206F6E2074696D65FA
:10DB4C002073696E6365206C6173742064657669FB
:10DB5C00636520726573657420696E207365636FED
:10DB6C006E64730A0D2020204D617820524D532095
:10DB7C0043757272656E743F3A205072696E74739D
:10DB8C0020746865206D6178696D756D20726563B0
:10DB9C006F7264656420524D53206F757470757488
:10DBAC002063757272656E740A0D2020204D6178A9
:10DBBC0020506F7765723F3A205072696E747320F3
:10DBCC00746865206D6178696D756D207265636F21
:10DBDC0072646564206F757470757420706F7765EE
:10DBEC00720A0D0A0D4F757470757420436F6E7444
:10DBFC00726F6C20436F6D6D616E64733A20436F6E
:10DC0C006E74726F6C20746865206F7574707574A7
:10DC1C0020737461746520616E642064696D6D6934
:10DC2C006E672066656174757265730A0D2020201D
:10DC3C00456E61626C652044696D6D696E673A2052
:10DC4C00456E61626C65205452494143206F757476
:10DC5C007075742064696D6D696E670A0D202020E3
:10DC6C0044697361626C652044696D6D696E673AD5
:10DC7C002044697361626C65205452494143206FA2
:10DC8C0075747075742064696D6D696E670A0D200A
:10DC9C002020456E61626C65204C6F61643A2045B2
:10DCAC006E61626C657320746865206F7574707535
:10DCBC007420545249414320776974682064696D1B
:10DCCC006D696E672064697361626C65640A0D200E
:10DCDC00202044697361626C65204C6F61643A204A
:10DCEC0044697361626C657320746865206F757428
:10DCFC0070757420545249414320636F6D706C658C
:10DD0C0074656C790A0D2020204C6F616420456E7F
:10DD1C0061626C65643F3A2052657475726E732053
:10DD2C00696620746865206F7574707574206C6FEB
:10DD3C00616420697320656E61626C6564206F722A
:10DD4C002064697361626C65640A0D20202044694B
:10DD5C006D6D696E6720456E61626C65643F3A203B
:10DD6C0052657475726E732069662064696D6D6995
:10DD7C006E67206F6620746865206F75747075749B
:10DD8C00206C6F616420697320656E61626C6564E0
:10DD9C00206F72206E6F740A0D2020205365742042
:10DDAC0044696D6D696E672050657263656E746150
:10DDBC0067653A203C783E3A20536574732074684A
:10DDCC0065206F75747075742064696D6D696E670C
:10DDDC002070657263656E7461676520617320786D
:10DDEC002070657263656E740A0D0A0D004C6973C0
:10DDFC0074206F6620737570706F72746564204444
:10DE0C00657669636520436F6E74726F6C20436F27
:10DE1C006D6D616E64733A0A0D2020205265736536
:10DE2C00743A20436C656172732074686520746564
:10DE3C00726D696E616C20616E64207265736574BD
:10DE4C007320746865206D6963726F636F6E747292
:10DE5C006F6C6C65720A0D202020436C6561723A00
:10DE6C0020436C6561727320746865207465726DF3
:10DE7C00696E616C2062757420646F65736E2774B3
:10DE8C0020726573657420746865206D6963726FA8
:10DE9C000A0D2020204361757365206F6620526542
:10DEAC007365743F3A2052657475726E7320746892
:10DEBC0065206361757365206F6620746865206DDD
:10DECC006F737420726563656E7420646576696324
:10DEDC00652072657365740A0D2020202A49444E12
:10DEEC003F3A2052657475726E732064657669636F
:10DEFC0065206964656E74696669636174696F6EC7
:10DF0C0020737472696E670A0D202020446576694F
:10DF1C006365204F6E2054696D653F3A20526574DD
:10DF2C0075726E7320646576696365206F6E2074FC
:10DF3C00696D652073696E6365206C617374206410
:10DF4C0065766963652072657365740A0D202020FF
:10DF5C004465766963652049443F3A20526574757F
:10DF6C00726E732064657669636520494420617321
:10DF7C00207072652D70726F6772616D6D656420B3
:10DF8C00696E20666C617368206D656D6F72790ABD
:10DF9C000D2020205265766973696F6E2049443FCD
:10DFAC003A2052657475726E732064657669636588
:10DFBC002073696C69636F6E207265766973696F23
:10DFCC006E204944206173207072652D70726F67EA
:10DFDC0072616D6D656420696E20666C617368207A
:10DFEC006D656D6F72790A0D202020557365722056
:10DFFC004944733F3A2052657475726E73206120E8
:10E00C006C697374206F6620757365722049447354
:10E01C002028646973706C6179656420696E20686E
:10E02C006578292061732073746F72656420696E42
:10E03C0020666C617368206D656D6F72790A0D20B6
:10E04C002020414443204572726F72733F3A205234
:10E05C00657475726E732074686520636175736581
:10E06C00206F6620616E20414443206572726F728E
:10E07C0020696620616E206572726F72206F636317
:10E08C0075727265640A0D202020436C65617220E4
:10E09C00414443204572726F72733A20436C656140
:10E0AC0072732074686520414443206572726F72EC
:10E0BC0020616E6420726573756D657320414443F5
:10E0CC0020636F6E76657273696F6E730A0D202014
:10E0DC0020436F6D6D204572726F72733F3A205200
:10E0EC00657475726E73206966206120636F6D6D47
:10E0FC00756E69636174696F6E73206572726F728D
:10E10C0020686173206F636375727265640A0D20F9
:10E11C002020436C65617220436F6D6D20457272D7
:10E12C006F72733A20436C6561727320746865205A
:10E13C00636F6D6D756E69636174696F6E73206565
:10E14C0072726F720A0D202020436C656172204D33
:10E15C0061782056616C7565733A20457261736500
:10E16C0073206D6178696D756D207265636F726473
:10E17C0065642076616C7565732066726F6D2045E1
:10E18C004550524F4D0A0D20202048656C703A20A6
:10E19C0054686973206D6573736167652C206C69B5
:10E1AC0073747320737570706F7274656420636F11
:10E1BC006D6D616E64730A0D0A0D004C69737420E9
:10E1CC006F6620737570706F72746564205072691D
:10E1DC006D617279204D6561737572656D656E74D4
:10E1EC0020436F6D6D616E64733A0A0D2020204DD3
:10E1FC00656173757265204465746563746564202C
:10E20C0043757272656E743F3A2052657475726E06
:10E21C0073206D65617375726564206F75747075AC
:10E22C00742063757272656E7420696E20616D70F6
:10E23C0073206173207365656E20627920414443BD
:10E24C000A0D2020204D65617375726520524D5367
:10E25C002043757272656E743F3A20526574757204
:10E26C006E73207468652063616C63756C61746592
:10E27C006420524D53206F757470757420637572E1
:10E28C0072656E742066726F6D206D656173757248
:10E29C00656D656E747320616E6420545249414300
:10E2AC0020666972696E6720616E676C650A0D2065
:10E2BC0020204D65617375726520524D5320566F49
:10E2CC006C746167653F3A2052657475726E732089
:10E2DC007468652063616C63756C6174656420524D
:10E2EC004D53206F757470757420766F6C74616704
:10E2FC00652066726F6D20545249414320666972E5
:10E30C00696E6720616E676C650A0D2020204D6573
:10E31C00617375726520506F7765723F3A20526554
:10E32C007475726E73207468652063616C63756CB0
:10E33C0061746564206F757470757420706F776587
:10E34C007220696E2057617474730A0D2020204D61
:10E35C0065617375726520456E657267793F3A2009
:10E36C0052657475726E73206D6561737572656438
:10E37C0020656E657267792073696E6365206D65C3
:10E38C0061737572656D656E74207265736574204A
:10E39C00696E205761747420486F7572730A0D2072
:10E3AC002020436C65617220456E657267793A2056
:10E3BC0052657365747320746865206D656173753F
:10E3CC00726564206F757470757420656E65726704
:10E3DC007920746F207A65726F0A0D2020204C6FA3
:10E3EC006164204F6E2054696D653F3A205265740C
:10E3FC0075726E73206C6F6164206F6E2074696D22
:10E40C00652073696E6365206C6173742064657636
:10E41C0069636520726573657420696E207365632A
:10E42C006F6E64730A0D2020204D617820524D537D
:10E43C002043757272656E743F3A205072696E7427
:10E44C007320746865206D6178696D756D207265D7
:10E45C00636F7264656420524D53206F75747075D0
:10E46C00742063757272656E740A0D2020204D61E4
:10E47C007820506F7765723F3A205072696E7473D2
:10E48C0020746865206D6178696D756D20726563A7
:10E49C006F72646564206F757470757420706F771B
:10E4AC0065720A0D0A0D004C697374206F66207337
:10E4BC007570706F7274656420446576696365204D
:10E4CC004D6561737572656D656E7420436F6D6D0E
:10E4DC00616E64733A0A0D2020204D65617375726C
:10E4EC006520504F533350333F3A20526574757248
:10E4FC006E73202B332E33562041444320436F6ED2
:10E50C0076657273696F6E20696E20766F6C7473AA
:10E51C000A0D2020204D65617375726520504F5394
:10E52C0031323F3A2052657475726E73202B313242
:10E53C00562041444320436F6E76657273696F6E4B
:10E54C0020696E20766F6C74730A0D2020204D6547
:10E55C006173757265204469652054656D703F3A2E
:10E56C002052657475726E7320746865206D6963D2
:10E57C00726F636F6E74726F6C6C65722064696518
:10E58C002074656D706572617475726520696E209A
:10E59C006465677265657320430A0D2020204D6504
:10E5AC006173757265204656523F3A2052657475F8
:10E5BC00726E732074686520696E7465726E616C1E
:10E5CC0020666978656420766F6C7461676520726B
:10E5DC0065666572656E6365206275666665722038
:10E5EC0031206F757470757420696E20766F6C7441
:10E5FC00730A0D2020204D6561737572652041569C
:10E60C0053533F3A2052657475726E73207468656B
:10E61C00206D656173757265642076616C7565201B
:10E62C006F6620416E616C6F672056535320696E84
:10E63C0020766F6C74730A0D2020204D6178205069
:10E64C004F5333503320566F6C746167653F3A20DB
:10E65C0052657475726E7320746865206D6178698B
:10E66C006D756D207265636F72646564202B332E3B
:10E67C003356205261696C20566F6C74616765204B
:10E68C006D656173757265640A0D2020204D61788B
:10E69C0020504F53313220566F6C746167653F3A8E
:10E6AC002052657475726E7320746865206D617884
:10E6BC00696D756D207265636F72646564202B31B2
:10E6CC003256205261696C20566F6C7461676520FC
:10E6DC006D656173757265640A0D2020204D61783B
:10E6EC00204469652054656D703F3A2052657475FD
:10E6FC00726E7320746865206D6178696D756D201C
:10E70C007265636F72646564206469652074656DFD
:10E71C007065726174757265206D65617375726573
:10E72C00640A0D2020204D61782046565220566FE9
:10E73C006C746167653F3A2052657475726E732014
:10E74C00746865206D6178696D756D207265636F95
:10E75C007264656420465652204275666665722066
:10E76C003120566F6C74616765206D6561737572CD
:10E77C0065640A0D0A0D004C697374206F66207372
:10E78C007570706F72746564204F75747075742039
:10E79C00436F6E74726F6C20436F6D6D616E64733A
:10E7AC003A0A0D202020456E61626C652044696D2B
:10E7BC006D696E673A20456E61626C6520545249F2
:10E7CC004143206F75747075742064696D6D696E4A
:10E7DC00670A0D20202044697361626C65204469CE
:10E7EC006D6D696E673A2044697361626C65205483
:10E7FC0052494143206F75747075742064696D6D56
:10E80C00696E670A0D202020456E61626C65204C94
:10E81C006F61643A20456E61626C65732074686543
:10E82C00206F757470757420545249414320776978
:10E83C0074682064696D6D696E67206469736162C8
:10E84C006C65640A0D20202044697361626C65203C
:10E85C004C6F61643A2044697361626C6573207417
:10E86C006865206F7574707574205452494143204B
:10E87C00636F6D706C6574656C790A0D2020204C8B
:10E88C006F616420456E61626C65643F3A2052652D
:10E89C007475726E7320696620746865206F757468
:10E8AC00707574206C6F616420697320656E616291
:10E8BC006C6564206F722064697361626C65640AB4
:10E8CC000D20202044696D6D696E6720456E616274
:10E8DC006C65643F3A2052657475726E732069667C
:10E8EC002064696D6D696E67206F662074686520A1
:10E8FC006F7574707574206C6F616420697320651A
:10E90C006E61626C6564206F72206E6F740A0D20EC
:10E91C0020205365742044696D6D696E67205065C5
:10E92C007263656E746167653A203C783E3A205399
:10E93C0065747320746865206F75747075742064C9
:10E94C00696D6D696E672070657263656E74616761
:10E95C006520617320782070657263656E740A0D92
:10E96C000A0D00506C656173652073706563696690
:10E97C007920776861742074797065206F662063E4
:10E98C006F6D6D616E647320796F752764206C698F
:10E99C006B652068656C7020776974683A0A0D5451
:10E9AC007279202748656C70203C636F6D6D616EC9
:10E9BC0064207365743E270A0D0A0D537570706FD1
:10E9CC007274656420436F6D6D616E642053657461
:10E9DC00733A0A0D20202044657669636520436FE5
:10E9EC006E74726F6C20436F6D6D616E64733A2040
:10E9FC00436F6D6D616E647320746F2076696577FB
:10EA0C0020616E6420636F6E74726F6C206C6F7714
:10EA1C00206C6576656C2073797374656D206675F2
:10EA2C006E6374696F6E616C6974790A0D202020B5
:10EA3C00446576696365204D6561737572656D65B6
:10EA4C006E7420436F6D6D616E64733A2056696508
:10EA5C0077206C6F77206C6576656C207379737496
:10EA6C00656D206D6561737572656D656E74730A85
:10EA7C000D2020205072696D617279204D65617393
:10EA8C007572656D656E7420436F6D6D616E647328
:10EA9C003A20566965772068696768206C657665E9
:10EAAC006C206F7574707574206D6561737572650B
:10EABC006D656E747320616E642063616C63756C3C
:10EACC006174696F6E730A0D2020204F7574707518
:10EADC007420436F6E74726F6C20436F6D6D616E3A
:10EAEC0064733A20436F6E74726F6C207468652087
:10EAFC006F757470757420737461746520616E64C5
:10EB0C002064696D6D696E672066656174757265E8
:10EB1C00730A0D0A0D2748656C7020416C6C272018
:10EB2C0077696C6C206C69737420616C6C20636FFA
:10EB3C006D6D616E64730A0D00202020205F202013
:10EB4C00205F5F5F2020205F5F5F2020202020203F
:10EB5C0020202020202020202020202020202020A9
:10EB6C005F5F20205F5F20202020205F202020205E
:10EB7C002020202020202020202020202020202089
:10EB8C002020202020205F2020205F5F5F20205F3E
:10EB9C002020202020200A0D2020202F5F5C202FF9
:10EBAC00205F5F7C207C205F205C5F5F5F5F5F206D
:10EBBC005F5F205F5F5F5F5F205F205F20207C20B6
:10EBCC00205C2F20207C5F5F5F7C207C5F205F5F60
:10EBDC005F205F205F2020205F5F205F205F205F31
:10EBEC0020205F5F7C207C207C2020205C285F29FB
:10EBFC005F205F5F20205F205F5F20205F5F5F20D2
:10EC0C005F205F200A0D20202F205F205C20285FD2
:10EC1C005F20207C20205F2F205F205C205620204E
:10EC2C0056202F202D5F2920275F7C207C207C5CA8
:10EC3C002F7C202F202D5F2920205F2F202D5F2956
:10EC4C0020275F7C202F205F60207C2027205C2FDA
:10EC5C00205F60207C207C207C29207C207C20274D
:10EC6C0020205C7C202720205C2F202D5F29202752
:10EC7C005F7C0A0D202F5F2F205C5F5C5F5F5F7CE9
:10EC8C00207C5F7C205C5F5F5F2F5C5F2F5C5F2F65
:10EC9C005C5F5F5F7C5F7C2020207C5F7C20207C25
:10ECAC005F5C5F5F5F7C5C5F5F5C5F5F5F7C5F7C1A
:10ECBC002020205C5F5F2C5F7C5F7C7C5F5C5F5FF7
:10ECCC002C5F7C207C5F5F5F2F7C5F7C5F7C5F7C3C
:10ECDC005F7C5F7C5F7C5F5C5F5F5F7C5F7C202028
:10ECEC000A0D0020202020426F6F7420636F6D701E
:10ECFC006C6574650A0D202020205049433138463C
:10ED0C0036374B3430206D546F75636820546573FF
:10ED1C007420426F6172640A0D20202020457661B8
:10ED2C006C756174657320746865206D546F7563C0
:10ED3C0068206361706163697469766520746F75AE
:10ED4C006368206C69627261727920646973747291
:10ED5C00696275746564206279204D6963726F63B2
:10ED6C006869700A0D202020205365747320746824
:10ED7C0065207374617465206F6620666976652002
:10ED8C004C454473206261736564206F6E206D5432
:10ED9C006F7563682063617061636974697665205F
:10EDAC0070757368627574746F6E730A0D20202011
:10EDBC00204261756420726174653A2031313532BC
:10EDCC003030206270730A0D202020204E6F20708E
:10EDDC0061726974792C203820626974732C206EEE
:10EDEC006F20666C6F7720636F6E74726F6C2C2063
:10EDFC00312073746F70206269740A0D20202020FA
:10EE0C00436F6D6D616E6473206172652063617315
:10EE1C00652073656E7369746976650A0D20202010
:10EE2C0020456E746572206120636F6D6D616E6438
:10EE3C002C206F7220656E7465722048656C702092
:10EE4C00666F72206C697374206F6620636F6D6DD2
:10EE5C00616E64730A0D005741524E494E473A2079
:10EE6C005573696E67207468652064696D6D696E91
:10EE7C006720666561747572652077697468206CAB
:10EE8C006F61642064657669636573206F7468656F
:10EE9C0072207468616E2061206C696768742062EE
:10EEAC00756C622063616E20726573756C74206979
:10EEBC006E206465766963652064616D61676500C9
:10EECC004F6E6C7920656E61626C652064696D6D46
:10EEDC00696E6720696620796F75206172652063A1
:10EEEC006F6D706C6574656C7920737572652074C8
:10EEFC006865206C6F616420697320636F6D70614D
:10EF0C007469626C652077697468206120736F6C1A
:10EF1C0069642073746174652064696D6D696E67D2
:10EF2C00206369726375697400496620796F75276F
:10EF3C0064206C696B6520746F20636F6D706C65F9
:10EF4C0074656C7920656E61626C65206F722064EB
:10EF5C00697361626C6520746865206C6F61642CE8
:10EF6C002064697361626C652064696D6D696E679C
:10EF7C0020616E64207573652072657370656374AF
:10EF8C0069766520636F6D6D616E64730A0D004563
:10EF9C0052524F523A20506C656173652073657400
:10EFAC002064696D6D696E672070657263656E743F
:10EFBC0061676520746F20616E20696E746567658A
:10EFCC00722067726561746572207468616E20309E
:10EFDC0020616E64206C657373207468616E2031DF
:10EFEC0030300A0D0044657669636520494420730E
:10EFFC00746F72656420696E20466C617368206959
:10F00C00733A20307825582E205468697320636F2A
:10F01C0072726573706F6E647320746F20612064FC
:10F02C0065766963652070617274206E756D6265BA
:10F03C0072206F662025730A0D004D656173757221
:10F04C006564206F757470757420656E6572677970
:10F05C002073696E6365206C617374206D656173D8
:10F06C007572656D656E7420726573657420697355
:10F07C0020252E3366205761747420486F75727387
:10F08C000A0D005468697320636F72726573706F38
:10F09C006E647320746F2061203136206269742095
:10F0AC0074696D6572207072652D6C6F6164207669
:10F0BC00616C7565206F6620307825582028257581
:10F0CC00204C53427329200A0D00436F6D6D756EF1
:10F0DC0069636174696F6E73206572726F722873E5
:10F0EC00292064657465637465642120496E7465B8
:10F0FC007266616365732063617573696E67206501
:10F10C0072726F722873293A0A0D00546865206672
:10F11C006F6C6C6F77696E6720557365722049440C
:10F12C00732068617665206265656E207265747205
:10F13C0069657665642066726F6D20666C617368B4
:10F14C00206D656D6F72793A0A0D0043616C6375C1
:10F15C006C6174656420545249414320666972693C
:10F16C006E6720616E676C6520697320252E33668F
:10F17C002072616469616E732028252E33662064C9
:10F18C00656772656573290A0D0053797374656D33
:10F19C0020706172616D657465727320616E64209C
:10F1AC0061666669726D61746976652072657370EB
:10F1BC006F6E7365732061707065617220696E206B
:10F1CC00677265656E0A0D0043616C6C2027436C99
:10F1DC0065617220434F4D4D204572726F727327DB
:10F1EC0020746F20636C65617220636F6D6D756E3A
:10F1FC0069636174696F6E73206572726F722873C4
:10F20C00290A0D004465766963652073696C69632E
:10F21C006F6E207265766973696F6E204944206148
:10F22C00732073746F72656420696E20466C617311
:10F23C00682069733A202563253033640A0D004D2C
:10F24C0065617375726564206F7574707574206573
:10F25C006E6572677920686173206265656E2072D5
:10F26C006573657420746F207A65726F20576174B2
:10F27C007420486F7572730A0D0044657669636576
:10F28C00206F6E2074696D652073696E6365206CE8
:10F29C0061737420726573657420636F6E64697436
:10F2AC00696F6E206973202564207365636F6E64CB
:10F2BC00730A0D00466978656420566F6C7461673B
:10F2CC0065205265666572656E636520427566667B
:10F2DC0065722031206D6561737572656420617390
:10F2EC0020252E336620566F6C74730A0D004F75F3
:10F2FC007470757420706F7765722063616C6375C0
:10F30C006C6174656420617320252E33662057610F
:10F31C007474732066726F6D20524D532076616C3D
:10F32C007565730A0D0048656C70206D65737361AB
:10F33C0067657320616E64206E65757472616C20F4
:10F34C00726573706F6E7365732061707065617236
:10F35C0020696E2079656C6C6F770A0D004D6178B1
:10F36C00696D756D207265636F726465642076617A
:10F37C006C756573206572617365642066726F6D60
:10F38C00205352414D20616E6420454550524F4DE3
:10F39C000A0D002020202055736572204944205707
:10F3AC006F72642025642028466C61736820616448
:10F3BC0064726573732030783230303030255829C0
:10F3CC003A20307825580A0D004D6178696D756DBD
:10F3DC00207265636F7264656420465652206275B4
:10F3EC0066666572203120766F6C74616765206982
:10F3FC007320252E336620566F6C74730A0D0049EA
:10F40C0066207965732C207265706C792027456EA7
:10F41C0061626C652044696D6D696E6720592720A7
:10F42C006F6E20746865206E657874206C696E65EB
:10F43C003A0A0D004C6F6164206973206375727217
:10F44C00656E746C7920656E61626C65642C2062EB
:10F45C0075742064696D6D696E67206973206469C9
:10F46C007361626C65640A0D004C6F6164206F6E91
:10F47C002074696D652073696E6365206C617374AB
:10F48C0020646576696365207265736574206973A1
:10F49C00202564207365636F6E64730A0D004172DE
:10F4AC006520796F75207375726520796F75276487
:10F4BC00206C696B6520746F20656E61626C6520D1
:10F4CC006F75747075742064696D6D696E673F0A31
:10F4DC000D00546865206361757365206F66207438
:10F4EC006865206D6F737420726563656E7420643B
:10F4FC006576696365207265736574207761733A0C
:10F50C002025730A0D004D6178696D756D2072654B
:10F51C00636F72646564202B332E335620726169DD
:10F52C006C20766F6C7461676520697320252E33AF
:10F53C006620566F6C74730A0D004D6178696D7599
:10F54C006D207265636F7264656420524D53206F39
:10F55C0075747075742063757272656E742069733E
:10F56C0020252E33662041726D730A0D004D617893
:10F57C00696D756D207265636F72646564202B31E3
:10F58C003256207261696C20766F6C7461676520ED
:10F59C00697320252E336620566F6C74730A0D0028
:10F5AC0043616C6C2027436C65617220414443209D
:10F5BC004572726F72732720746F20636C65617271
:10F5CC0020414443206572726F722873290A0D0022
:10F5DC004D617271756574746520556E69766572CE
:10F5EC007369747920454C454E20333033352046B1
:10F5FC00696E616C2050726F6A6563740A0D0054F9
:10F60C00686520666F6C6C6F77696E6720636861E4
:10F61C006E6E656C732063617573656420616E201A
:10F62C00414443206572726F723A0A0D0045727242
:10F63C006F727320616E64206E65676174697665A4
:10F64C0020726573706F6E73657320617070656185
:10F65C007220696E207265640A0D00456E746572C5
:10F66C00202748656C702720666F72206C69737454
:10F67C00206F6620617661696C61626C6520636FD6
:10F68C006D6D616E64730A0D004D6178696D756DF9
:10F69C00207265636F72646564206F757470757425
:10F6AC0020706F77657220697320252E3366205782
:10F6BC00617474730A0D004D6178696D756D2072FB
:10F6CC0065636F72646564206469652074656D7030
:10F6DC006572617475726520697320252E336620FE
:10F6EC00430A0D004C6F616420686173206265658C
:10F6FC006E20656E61626C65642C2064696D6D6949
:10F70C006E672064697361626C65640A0D004C6FEE
:10F71C00616420616E642064696D6D696E6720613F
:10F72C0072652063757272656E746C79206469738E
:10F73C0061626C65640A0D0057696E646F7765646D
:10F74C0020576174636820446F672054696D65723B
:10F75C002056696F6C6174696F6E205265736574A5
:10F76C00005452494143206F75747075742064695C
:10F77C006D6D696E6720686173206265656E2064CB
:10F78C00697361626C65640A0D004D656173757215
:10F79C00656D656E7420726573706F6E7365732022
:10F7AC0061707065617220696E206379616E0A0DFB
:10F7BC00004E6F20636F6D6D756E69636174696F58
:10F7CC006E73206572726F7228732920646574657C
:10F7DC00637465640A0D0041565353206D65617363
:10F7EC007572656420617320252E336620566F6C0C
:10F7FC007473206279204144430A0D002B332E335D
:10F80C0056207261696C206D656173757265642038
:10F81C006173202B252E336620566F6C74730A0D82
:10F82C000044696D6D696E6720686173206265655F
:10F83C006E2073657420746F20256420706572636C
:10F84C00656E740A0D004469652054656D706572AF
:10F85C006174757265206D65617375726564206184
:10F86C007320252E3366430A0D002B31325620723D
:10F87C0061696C206D6561737572656420617320BC
:10F88C002B252E336620566F6C74730A0D004F7542
:10F89C00747075742064696D6D696E67206861732E
:10F8AC00206265656E20656E61626C65640A0D0090
:10F8BC00436F6D6D756E69636174696F6E732065EE
:10F8CC0072726F7228732920636C65617265640AA9
:10F8DC000D00524D53204F75747075742043757222
:10F8EC0072656E7420697320252E33662041726D0B
:10F8FC00730A0D00524D53204F7574707574205659
:10F90C006F6C7461676520697320252E33662056F1
:10F91C00726D730A0D0048656C70205072696D61D0
:10F92C007279204D6561737572656D656E742043D7
:10F93C006F6D6D616E64730048656C702044657604
:10F94C00696365204D6561737572656D656E7420B4
:10F95C00436F6D6D616E64730020202020555342FF
:10F96C00205541525420287468697320696E74655F
:10F97C007266616365290A0D004D65617375726568
:10F98C00642043757272656E7420697320252E3362
:10F99C006620416D70730A0D0044696D6D696E6768
:10F9AC002069732063757272656E746C7920656E54
:10F9BC0061626C65640A0D0044726577204D61616B
:10F9CC00746D616E20616E642047616265205468BD
:10F9DC00616C6A690A0D005573657220696E7075E9
:10F9EC0074206170706561727320696E207768692C
:10F9FC0074650A0D004C6F61642069732063757225
:10FA0C0072656E746C792064697361626C65640AEA
:10FA1C000D0048656C702044657669636520436F02
:10FA2C006E74726F6C20436F6D6D616E6473004801
:10FA3C00656C70204F757470757420436F6E7472A2
:10FA4C006F6C20436F6D6D616E6473004D617271EC
:10FA5C00756574746520556E697665727369747911
:10FA6C0020454543450A0D004C6F616420697320A5
:10FA7C0063757272656E746C7920656E61626C650B
:10FA8C00640A0D00524553455420496E73747275C7
:10FA9C006374696F6E204578656375746564004E98
:10FAAC006F20414443206572726F72287329206461
:10FABC00657465637465640A0D004D6561737572D8
:10FACC006520446574656374656420437572726562
:10FADC006E743F00414443206572726F7228732923
:10FAEC00206465746563746564210A0D004C6F6154
:10FAFC006420686173206265656E2064697361625D
:10FB0C006C65640A0D005365742044696D6D696EF3
:10FB1C00672050657263656E746167653A200020DA
:10FB2C0020202047656E6572616C2041444320653E
:10FB3C0072726F720A0D00202020204F4C45442019
:10FB4C00446973706C6179204932430A0D00414459
:10FB5C0043204572726F7228732920636C65617241
:10FB6C0065640A0D00537461636B20556E64657295
:10FB7C00666C6F7720526573657400537461636BA8
:10FB8C00204F766572666C6F7720526573657400D2
:10FB9C004D65617375726520524D5320566F6C74B0
:10FBAC006167653F004D65617375726520524D53F9
:10FBBC002043757272656E743F004D617820504F12
:10FBCC005333503320566F6C746167653F0031209E
:10FBDC007374702C206E6F20666C6F772063747258
:10FBEC006C004D617374657220436C6561722052B8
:10FBFC0065736574004D617820504F533132205637
:10FC0C006F6C746167653F004D656173757265203B
:10FC1C004469652054656D703F00436C65617220CA
:10FC2C00436F6D6D204572726F72730030313233D9
:10FC3C003435363738394142434445460041432038
:10FC4C00506F776572204D657465720A0D004469BA
:10FC5C006D6D696E6720456E61626C65643F004D29
:10FC6C0061782046565220566F6C746167653F0070
:10FC7C004D617820524D532043757272656E743FFE
:10FC8C0000456E61626C652044696D6D696E67201C
:10FC9C005900436C656172204D61782056616C751A
:10FCAC00657300436C656172204144432045727258
:10FCBC006F727300556E646566696E65642052657B
:10FCCC007365740042726F776E204F7574205265A5
:10FCDC00736574004D65617375726520504F5333B5
:10FCEC0050333F00446576696365204F6E2054693C
:10FCFC006D653F004361757365206F6620526573B7
:10FD0C0065743F004D65617375726520456E657253
:10FD1C0067793F0044697361626C652044696D6D5D
:10FD2C00696E6700434F4D20506F72742053657499
:10FD3C0075703A00386269742C206E6F2070617295
:10FD4C006974790052455345542045786563757440
:10FD5C00656400506F776572204F6E205265736535
:10FD6C007400202020204469652054656D700A0DB4
:10FD7C00004D65617375726520504F5331323F00F1
:10FD8C004D65617375726520506F7765723F0045E4
:10FD9C006E61626C652044696D6D696E67004143EC
:10FDAC0020506F776572204D65746572004D6561EA
:10FDBC007375726520415653533F004C6F6164203C
:10FDCC00456E61626C65643F004C6F6164204F6EE0
:10FDDC002054696D653F004D61782044696520545D
:10FDEC00656D703F004C6F61642044697361626C97
:10FDFC00656400426F6F7420436F6D706C65746541
:10FE0C000046696E616C2050726F6A6563740050B5
:10FE1C00494331384C4636374B34300020202020B3
:10FE2C00504F533350330A0D0050534F43732053EC
:10FE3C0055434B0A0D005265766973696F6E204904
:10FE4C00443F004D656173757265204656523F0004
:10FE5C00436F6D6D204572726F72733F004469730E
:10FE6C0061626C65204C6F616400436C656172204B
:10FE7C00456E65726779005265766973696F6E209D
:10FE8C0049443A004C6F616420456E61626C656454
:10FE9C000050494331384636374B3430002020204F
:10FEAC0020504F5331320A0D0041444320457272A9
:10FEBC006F72733F00456E61626C65204C6F6164BC
:10FECC0000256C752E25362E366C750053544F4616
:10FEDC002052657365740053545546205265736502
:10FEEC0074004D434C52205265736574005757444F
:10FEFC0054205265736574002020202049534E53C2
:10FF0C000A0D0020202020415653530A0D00446551
:10FF1C00766963652049443F004D617820506F77C6
:10FF2C0065723F00456173746572204567670044D4
:10FF3C0065766963652049443A00424F5220526508
:10FF4C0073657400504F5220526573657400556E82
:10FF5C00646566696E656400202020204656520A4E
:10FF6C000D0055736572204944733F00454C454E56
:10FF7C002033303335003131352E32206B62730033
:10FF8C0048656C7020416C6C00286E756C6C290097
:10FF9C002A49444E3F00436C6561720052656164AE
:10FFAC00790048656C70001B5B324A0049444E0076
:10FFBC001B5B48001B5B73001B5B75001B5B4B00E2
:10FFCC0033300033310034310033320034320033FB
:10FFDC0033003433003334003434003435003336DA
:10FFEC00003436003337003437001B5B0038003BDD
:04FFFC00006D000094
:020000040001F9
:1000000090C44FF191C450F1DD0E0101516FFE0E0D
:10001000526F1BECD7F001014F515011D8A426D0DC
:10002000F0C053F1F1C054F1F2C055F1F3C056F1F4
:10003000990EF66ECE0EF76E000EF86E0900F5CF33
:1000400057F10A00F5CF58F143ECD7F0B30E020197
:10005000856FFF0E866FA0ECDAF0BC0E0201856F93
:10006000FF0E866FA0ECDAF0FF00120090C44FF193
:1000700091C450F1A20E0101516FFF0E526F1BECA3
:10008000D7F001014F515011D8A40FD0B30E020187
:10009000856FFF0E866FA0ECDAF0BC0E0201856F53
:1000A000FF0E866FA0ECDAF0120090C44FF191C4FD
:1000B00050F1000E0101516FFD0E526F1BECD7F095
:1000C00001014F515011D8A419D0000E02018F6FB9
:1000D000000E906F020EA8ECAAF0DE0E0201856FF2
:1000E000F40E866FFE5185ECDCF04FC187F250C1F3
:1000F00088F2A0ECDAF051ECDFF0120090C44FF17E
:1001000091C450F19C0E0101516FFF0E526F1BEC18
:10011000D7F001014F515011D8B40FD090C44FF116
:1001200091C450F1B80E516FFF0E526F1BECD7F017
:1001300001014F515011D8A419D0000E02018F6F48
:10014000000E906F020EA8ECAAF0490E0201856F16
:10015000FC0E866FA0ECDAF0DC0E0201856FF50E66
:10016000866FA0ECDAF051ECDFF0120090C44FF192
:1001700091C450F11A0E0101516FFF0E526F1BEC2A
:10018000D7F001014F515011D8A424D0000E020124
:100190008F6F000E906F020EA8ECAAF0F10E020114
:1001A000856FEF0E866F59ECDEF05AC187F25BC1A6
:1001B00088F259ECDEF05AC15CF15BC15DF1BCEC38
:1001C000D5F05CC189F25DC18AF2A0ECDAF051ECA5
:1001D000DFF0120090C44FF191C450F1420E0101C2
:1001E000516FFE0E526F1BECD7F001014F515011B1
:1001F000D8A425D0000E02018F6F000E906F020E62
:10020000A8ECAAF0100E0201856FF20E866FFDECCD
:10021000DAF00401926F410E92250201876F886B1C
:10022000000E88237DECDDF00401936F93510201F1
:10023000896F8A6BA0ECDAF051ECDFF0120090C409
:100240004FF191C450F16E0E0101516FFF0E526FCC
:100250001BECD7F001014F515011D8A445D0000E2E
:1002600002018F6F000E906F020EA8ECAAF0170E1D
:100270000201856FF10E866FA0ECDAF0000E04012A
:10028000B86F000EB76FB8BF06D0B85124E1080EA2
:10029000B75DD8B020D09F0E0201856FF30E866F38
:1002A000B7C487F2B8C488F2D8900401B735020108
:1002B000896F0401B83502018A6F0401B751A0ECBF
:1002C000D6F05AC18BF25BC18CF2A0ECDAF00401DB
:1002D000B74BB82BD8D751ECDFF001016851D8B437
:1002E0001200000E686F120090C44FF191C450F1DB
:1002F000B50E516FFE0E526F1BECD7F001014F513E
:100300005011D8A48CD01EECDCF00009D8B475D004
:10031000000E02018F6F000E906F010EA8ECAAF084
:10032000E00E0201856FFA0E866FA0ECDAF00B0E7C
:100330000201856FF60E866FA0ECDAF001016651BE
:10034000D8B407D02B0E0201856FFB0E866FA0EC90
:10035000DAF001016351D8B407D00F0E0201856FA6
:10036000FF0E866FA0ECDAF001016551D8B407D01A
:10037000640E0201856FFF0E866FA0ECDAF00101BA
:100380006051D8B407D0040E0201856FFF0E866F4E
:10039000A0ECDAF001016151D8B407D0A90E020136
:1003A000856FFE0E866FA0ECDAF001016251D8B4C1
:1003B00007D0280E0201856FFE0E866FA0ECDAF0E2
:1003C00001016451D8B407D06E0E0201856FFD0E95
:1003D000866FA0ECDAF0000E02018F6F000E906FB6
:1003E000030EA8ECAAF0AC0E0201856FF50E866F25
:1003F000A0ECDAF051ECDFF01200000E02018F6F7A
:10040000000E906F020EA8ECAAF0AB0E0201856FF1
:10041000FA0E866FA0ECDAF051ECDFF0120090C417
:100420004FF191C450F1AF0E0101516FFC0E526FAC
:100430001BECD7F001014F515011D8A414D037EC68
:10044000DEF0000E02018F6F000E906F020EA8EC1E
:10045000AAF05A0E0201856FFB0E866FA0ECDAF04F
:1004600051ECDFF0120090C44FF191C450F15C0EDA
:100470000101516FFE0E526F1BECD7F001014F517D
:100480005011D8A44ED028ECDFF00009D8B437D0F2
:10049000000E02018F6F000E906F010EA8ECAAF003
:1004A000D60E0201856FF00E866FA0ECDAF0010126
:1004B0006751D8B407D0430E0201856FFB0E866FDB
:1004C000A0ECDAF001016851D8B407D0650E020142
:1004D000856FF90E866FA0ECDAF0000E02018F6FC7
:1004E000000E906F030EA8ECAAF0D40E0201856FE7
:1004F000F10E866FA0ECDAF051ECDFF01200000E86
:1005000002018F6F000E906F020EA8ECAAF0BD0ED4
:100510000201856FF70E866FA0ECDAF051ECDFF088
:10052000120090C44FF191C450F1260E0101516F99
:10053000FC0E526F1BECD7F001014F515011D8A4A3
:1005400014D08BECDFF0000E02018F6F000E906F65
:10055000020EA8ECAAF0BC0E0201856FF80E866FA1
:10056000A0ECDAF051ECDFF0120090C44FF191C42E
:1005700050F1E00E0101516FFC0E526F1BECD7F0F1
:1005800001014F515011D8A41AD0000E02018F6FF3
:10059000000E906F060EA8ECAAF0080E0201856FFF
:1005A000F80E866F84C187F285C188F286C189F210
:1005B00087C18AF2A0ECDAF051ECDFF0120090C4AF
:1005C0004FF191C450F17D0E0101516FFD0E526F3C
:1005D0001BECD7F001014F515011D8A41AD0000ED6
:1005E00002018F6F000E906F060EA8ECAAF0760E37
:1005F0000201856FF80E866F80C187F281C188F293
:1006000082C189F283C18AF2A0ECDAF051ECDFF00A
:10061000120090C44FF191C450F1140E0101516FBA
:10062000FC0E526F1BECD7F001014F515011D8A4B2
:100630001AD0000E02018F6F000E906F060EA8EC0C
:10064000AAF0520E0201856FF80E866F7CC187F208
:100650007DC188F27EC189F27FC18AF2A0ECDAF016
:1006600051ECDFF0120090C44FF191C450F14F0EE5
:100670000101516FFE0E526F1BECD7F001014F517B
:100680005011D8A41AD0000E02018F6F000E906F87
:10069000060EA8ECAAF0C00E0201856FF20E866F5E
:1006A000A7C187F2A8C188F2A9C189F2AAC18AF2BA
:1006B000A0ECDAF051ECDFF0120090C44FF191C4DD
:1006C00050F1B90E0101516FFD0E526F1BECD7F0C6
:1006D00001014F515011D8A41AD0000E02018F6FA2
:1006E000000E906F060EA8ECAAF0E30E0201856FD3
:1006F000F70E866FC1C287F2C2C288F2C3C289F206
:10070000C4C28AF2A0ECDAF051ECDFF0120090C41F
:100710004FF191C450F1C60E0101516FFA0E526FA4
:100720001BECD7F001014F515011D8A41AD0000E84
:1007300002018F6F000E906F060EA8ECAAF0850ED6
:100740000201856FF90E866FB5C287F2B6C288F2D4
:10075000B7C289F2B8C28AF2A0ECDAF051ECDFF04D
:10076000120090C44FF191C450F1B10E0101516FCC
:10077000FB0E526F1BECD7F001014F515011D8A462
:100780001AD0000E02018F6F000E906F060EA8ECBB
:10079000AAF0DE0E0201856FF80E866F74C187F233
:1007A00075C188F276C189F277C18AF2A0ECDAF0DD
:1007B00051ECDFF0120090C44FF191C450F19C0E47
:1007C0000101516FFB0E526F1BECD7F001014F512D
:1007D0005011D8A41AD0000E02018F6F000E906F36
:1007E000060EA8ECAAF0000E0201856FF90E866FC6
:1007F000B1C287F2B2C288F2B3C289F2B4C28AF23D
:10080000A0ECDAF051ECDFF0120090C44FF191C48B
:1008100050F18C0E0101516FFD0E526F1BECD7F0A1
:1008200001014F515011D8A41AD0000E02018F6F50
:10083000000E906F060EA8ECAAF0FA0E0201856F6A
:10084000F20E866F70C187F271C188F272C189F2AF
:1008500073C18AF2A0ECDAF051ECDFF0120090C420
:100860004FF191C450F1100E0101516FFD0E526F06
:100870001BECD7F001014F515011D8A41AD0000E33
:1008800002018F6F000E906F060EA8ECAAF0460EC4
:100890000201856FF00E866FF0C087F2F1C088F21A
:1008A000F2C089F2F3C08AF2A0ECDAF051ECDFF08A
:1008B000120090C44FF191C450F1760E0101516FB6
:1008C000FE0E526F1BECD7F001014F515011D8A40E
:1008D00032D0000E0001F06F000EF16F000EF26FCB
:1008E000000EF36F000E0101536F000E546F000EE7
:1008F000556F000E566F990EF66ECE0EF76E000E07
:10090000F86E0900F5CF57F10A00F5CF58F143EC26
:10091000D7F0000E02018F6F000E906F010EA8EC51
:10092000AAF04B0E0201856FF20E866FA0ECDAF092
:1009300051ECDFF0120090C44FF191C450F19B0EC6
:100940000101516FFD0E526F1BECD7F001014F51A9
:100950005011D8A44DD0010E02018F6F020E906F7E
:10096000000EA8ECAAF0630E0201856FEE0E866FF2
:10097000A0ECDAF051ECDFF073ECDFF0010E0201D5
:100980008F6F020E906F000EA8ECAAF0CC0E020141
:10099000856FEE0E866FA0ECDAF051ECDFF073ECB1
:1009A000DFF0030E02018F6F000E906F000EA8ECB7
:1009B000AAF0AA0E0201856FF40E866FA0ECDAF0A1
:1009C000000E02018F6F000E906F030EA8ECAAF0CC
:1009D0000B0E0201856FF40E866FA0ECDAF051EC7D
:1009E000DFF001016851D8B41200000E686F1200E8
:1009F00090C44FF191C450F18D0E516FFC0E526FA7
:100A00001BECD7F001014F515011D8A415D07F90A5
:100A10000E012981000E02018F6F000E906F020EF1
:100A2000A8ECAAF09A0E0201856FF80E866FA0EC72
:100A3000DAF051ECDFF0120090C44FF191C450F1A4
:100A4000200E0101516FFD0E526F1BECD7F001011A
:100A50004F515011D8A417D07F800E0129910BEC73
:100A6000E0F0000E02018F6F000E906F010EA8ECF7
:100A7000AAF06D0E0201856FF70E866FA0ECDAF01A
:100A800051ECDFF0120090C44FF191C450F1C10E4F
:100A90000101516FFE0E526F1BECD7F001014F5157
:100AA0005011D8A419D07F807F925E80060E9D6F72
:100AB000BFECBCF0000E02018F6F000E906F020EB3
:100AC000A8ECAAF0F00E0201856FF60E866FA0EC7E
:100AD000DAF051ECDFF0120090C44FF191C450F104
:100AE000C70E0101516FFD0E526F1BECD7F00101D3
:100AF0004F515011D8A426D05EA012D0000E020192
:100B00008F6F000E906F020EA8ECAAF0740E020117
:100B1000856FFA0E866FA0ECDAF051ECDFF0120070
:100B2000000E02018F6F000E906F010EA8ECAAF06C
:100B3000010E0201856FFA0E866FA0ECDAF051EC1F
:100B4000DFF0120090C44FF191C450F15A0E010130
:100B5000516FFC0E526F1BECD7F001014F51501139
:100B6000D8A43BD05EB07FB012D0000E02018F6FD0
:100B7000000E906F020EA8ECAAF0A50E0201856F80
:100B8000F90E866FA0ECDAF051ECDFF012005EA0F7
:100B900012D0000E02018F6F000E906F030EA8ECB2
:100BA000AAF0400E0201856FF40E866FA0ECDAF019
:100BB00051ECDFF01200000E02018F6F000E906FFB
:100BC000010EA8ECAAF01A0E0201856FF70E866FCF
:100BD000A0ECDAF051ECDFF0120090C44FF191C4B8
:100BE00050F1690E0101516FFE0E526F1BECD7F0F0
:100BF00001014F515011D8A415D07F927F905E9083
:100C0000000E02018F6F000E906F010EA8ECAAF08B
:100C1000F90E0201856FFA0E866FA0ECDAF051EC46
:100C2000DFF0120090C400F291C401F2120E020132
:100C3000026FFB0E036FD2ECD0F0020100510111E4
:100C4000D8B42AD1000E0401B46F000EB36FB4BF44
:100C500006D0B4511BE1030EB35DD8B017D0180E07
:100C6000B325926F000EB421936F92519025D96EE7
:100C700093519121DA6E940EB325E16E040EB421E6
:100C8000E26EDFCFE7FFB34BB42BE1D7940E010147
:100C9000556F040E566FDDECCCF055C1B5F456C15E
:100CA000B6F40401B6BF06D0B6510BE1640EB55DD3
:100CB000D8B007D0B6BF05D0B6512BE1B505D8B036
:100CC00028D0000E02018F6F000E906F010EA8EC6D
:100CD000AAF09B0E0201856FEF0E866FA0ECDAF092
:100CE000000E02018F6F000E906F030EA8ECAAF0A9
:100CF000350E0201856FEF0E866FA0ECDAF0670EFD
:100D00000201856FF60E866FA0ECDAF051ECDFF091
:100D1000BCD0000E02011C6F000E1D6FC80E1E6FAE
:100D2000420E1F6F000E086F000E096FC80E0A6F8B
:100D3000420E0B6FB5C44FF1B6C450F10101000E65
:100D400050BFFF0E516F526F010EE8ECC3F04FC160
:100D500000F250C101F251C102F252C103F2B5ECEE
:100D6000DCF000C204F201C205F202C206F203C2C4
:100D700007F2ADECAFF004C218F205C219F206C2D8
:100D80001AF207C21BF2B3ECB8F018C231F219C262
:100D900032F21AC233F21BC234F2DB0E0201356F9B
:100DA0000F0E366F490E376F400E386F5CECACF0AB
:100DB00031C2F7F032C2F8F033C2F9F034C2FAF0BF
:100DC000F7C031F2F8C032F2F9C033F2FAC034F2AF
:100DD000E10E0201356F2E0E366F650E376F420E33
:100DE000386F5CECACF031C297F432C298F433C285
:100DF00099F434C29AF4B5C44FF1B6C450F1020E5E
:100E00000101526F8F0E516F41ECDDF04FC1FCF2CA
:100E100050C1FDF2000E02018F6F000E906F020EA6
:100E2000A8ECAAF02D0E0201856FF80E866FB5C4EE
:100E300087F2B6C488F2A0ECDAF0570E0201856F93
:100E4000F10E866FF7C087F2F8C088F2F9C089F218
:100E5000FAC08AF297C48BF298C48CF299C48DF2CE
:100E60009AC48EF2A0ECDAF08F0E0201856FF00EBC
:100E7000866FFCC287F2FDC288F2FCC289F2FDC215
:100E80008AF2A0ECDAF051ECDFF001016851D8B43D
:100E90001200000E686F120090C44FF191C450F11F
:100EA000F00E0101516FFC0E526F1BECD7F00101E7
:100EB0004F515011D8A41AD0000E02018F6F000EAE
:100EC000906F020EA8ECAAF0860E0201856FF20E5A
:100ED000866FADC287F2AEC288F2AFC289F2B0C2ED
:100EE0008AF2A0ECDAF051ECDFF0120090C44FF17E
:100EF00091C450F1D50E0101516FFD0E526F1BECE4
:100F0000D7F001014F515011D8A41AD0000E0201A0
:100F10008F6F000E906F020EA8ECAAF0750E020102
:100F2000856FF40E866FA9C287F2AAC288F2ABC29F
:100F300089F2ACC28AF2A0ECDAF051ECDFF01200D8
:100F400090C44FF191C450F17C0E0101516FFC0E21
:100F5000526F1BECD7F001014F515011D8A430D083
:100F6000970EF66ECE0EF76E000EF86E0900F5CFF6
:100F700051F10A00F5CF52F1C9ECD6F051C19BF402
:100F800052C19CF453C19DF454C19EF4000E020161
:100F90008F6F000E906F060EA8ECAAF0460E0201AD
:100FA000856FF50E866F9BC487F29CC488F29DC442
:100FB00089F29EC48AF2A0ECDAF051ECDFF0120064
:100FC00090C44FF191C450F1250E0101516FFF0EF5
:100FD000526F1BECD7F001014F515011D8A430D003
:100FE000950EF66ECE0EF76E000EF86E0900F5CF78
:100FF00051F10A00F5CF52F1C9ECD6F051C19FF47E
:1010000052C1A0F453C1A1F454C1A2F4000E0201D4
:101010008F6F000E906F060EA8ECAAF0950E0201DD
:10102000856FF60E866F9FC487F2A0C488F2A1C4B4
:1010300089F2A2C48AF2A0ECDAF051ECDFF01200DF
:1010400090C44FF191C450F1C60E0101516FFB0ED7
:10105000526F1BECD7F001014F515011D8A430D082
:10106000930EF66ECE0EF76E000EF86E0900F5CFF9
:1010700051F10A00F5CF52F1C9ECD6F051C1A3F4F9
:1010800052C1A4F453C1A5F454C1A6F4000E020148
:101090008F6F000E906F060EA8ECAAF0120E0201E0
:1010A000856FF50E866FA3C487F2A4C488F2A5C429
:1010B00089F2A6C48AF2A0ECDAF051ECDFF012005B
:1010C00090C44FF191C450F1010E0101516FFC0E1B
:1010D000526F1BECD7F001014F515011D8A430D002
:1010E000910EF66ECE0EF76E000EF86E0900F5CF7B
:1010F00051F10A00F5CF52F1C9ECD6F051C1A7F475
:1011000052C1A8F453C1A9F454C1AAF4000E0201BB
:101110008F6F000E906F060EA8ECAAF0790E0201F8
:10112000856FF50E866FA7C487F2A8C488F2A9C49C
:1011300089F2AAC48AF2A0ECDAF051ECDFF01200D6
:1011400090C44FF191C450F1E30E0101516FFD0EB7
:10115000526F1BECD7F001014F515011D8A430D081
:101160008F0EF66ECE0EF76E000EF86E0900F5CFFC
:1011700051F10A00F5CF52F1C9ECD6F051C1ABF4F0
:1011800052C1ACF453C1ADF454C1AEF4000E02012F
:101190008F6F000E906F060EA8ECAAF0C30E02012E
:1011A000856FF60E866FABC487F2ACC488F2ADC40F
:1011B00089F2AEC48AF2A0ECDAF051ECDFF0120052
:1011C00090C44FF191C450F16B0E0101516FFC0EB0
:1011D000526F1BECD7F001014F515011D8A430D001
:1011E0008D0EF66ECE0EF76E000EF86E0900F5CF7E
:1011F00051F10A00F5CF52F1C9ECD6F051C1AFF46C
:1012000052C1B0F453C1B1F454C1B2F4000E0201A2
:101210008F6F000E906F060EA8ECAAF0D50E02019B
:10122000856FF30E866FAFC487F2B0C488F2B1C485
:1012300089F2B2C48AF2A0ECDAF051ECDFF01200CD
:1012400090C44FF191C450F19E0E0101516FFC0EFC
:10125000526F1BECD7F001014F515011D8A4CBD0E5
:10126000000E536F000E546F000E556F000E566F38
:10127000970EF66ECE0EF76E000EF86E0900F5CFE3
:1012800057F10A00F5CF58F143ECD7F0000E0101F9
:10129000536F000E546F000E556F000E566F950E73
:1012A000F66ECE0EF76E000EF86E0900F5CF57F110
:1012B0000A00F5CF58F143ECD7F0000E0101536F4F
:1012C000000E546F000E556F000E566F930EF66EA3
:1012D000CE0EF76E000EF86E0900F5CF57F10A003A
:1012E000F5CF58F143ECD7F0000E0101536F000E1B
:1012F000546F000E556F000E566F910EF66ECE0EA7
:10130000F76E000EF86E0900F5CF57F10A00F5CF21
:1013100058F143ECD7F0000E0101536F000E546FEB
:10132000000E556F000E566F8F0EF66ECE0EF76ED6
:10133000000EF86E0900F5CF57F10A00F5CF58F10D
:1013400043ECD7F0000E0101536F000E546F000EF6
:10135000556F000E566F8D0EF66ECE0EF76E000EA8
:10136000F86E0900F5CF57F10A00F5CF58F143ECBC
:10137000D7F0000E0201A56F000EA66F000EA76F3A
:10138000000EA86F000EA16F000EA26F000EA36FDB
:10139000000EA46F000E9D6F000E9E6F000E9F6FDB
:1013A000000EA06F000E996F000E9A6F000E9B6FDB
:1013B000000E9C6F000E956F000E966F000E976FDB
:1013C000000E986F000E916F000E926F000E936FDB
:1013D000000E946F000E8F6F000E906F020EA8EC3F
:1013E000AAF0690E0201856FF30E866FA0ECDAF0A9
:1013F00051ECDFF0120090C44FF191C450F11E0E79
:101400000101516FFA0E526F1BECD7F001014F51E1
:101410005011D8A418D0000E02018F6F000E906FEB
:10142000030EA8ECAAF0F90E0201856FDD0E866F9F
:10143000A0ECDAF051ECDFF001016851D8B41200F1
:10144000000E686F120090C44FF191C450F1440E29
:10145000516FF90E526F1BECD7F001014F51501133
:10146000D8A418D0000E02018F6F000E906F030EEB
:10147000A8ECAAF0B30E0201856FE40E866FA0EC13
:10148000DAF051ECDFF001016851D8B41200000E1F
:10149000686F120090C44FF191C450F1220E516F49
:1014A000F90E526F1BECD7F001014F515011D8A427
:1014B00018D0000E02018F6F000E906F030EA8EC83
:1014C000AAF0C70E0201856FE10E866FA0ECDAF07C
:1014D00051ECDFF001016851D8B41200000E686FC2
:1014E000120090C44FF191C450F13B0E516FFA0EAF
:1014F000526F1BECD7F001014F515011D8A418D0F6
:10150000000E02018F6F000E906F030EA8ECAAF080
:10151000830E0201856FE70E866FA0ECDAF051ECC6
:10152000DFF001016851D8B41200000E686F12009C
:1015300090C44FF191C450F18C0E516FFF0E526F59
:101540001BECD7F001014F515011D8A418D0000E58
:1015500002018F6F000E906F030EA8ECAAF0EB0E45
:101560000201856FD10E866FA0ECDAF051ECDFF04E
:1015700001016851D8B41200000E686F120090C4C7
:101580004FF191C450F1AE0E516FFF0E526F1BEC34
:10159000D7F001014F515011D8A457D0000E0201CD
:1015A0008F6F000E906F030EA8ECAAF06F0E020171
:1015B000856FE90E866FA0ECDAF073ECDFF0320E87
:1015C0000201856FF30E866FA0ECDAF0000E0201C7
:1015D0008F6F000E906F020EA8ECAAF0960E02011B
:1015E000856FF10E866FA0ECDAF0000E02018F6FAE
:1015F000000E906F060EA8ECAAF0960E0201856F01
:10160000F70E866FA0ECDAF0000E02018F6F000E6D
:10161000906F010EA8ECAAF0390E0201856FF60E4C
:10162000866FA0ECDAF051ECDFF0E30E0201856F7B
:10163000F90E866FA0ECDAF073ECDFF0010168516F
:10164000D8B41200000E686F120090C44FF191C41C
:1016500050F1300E516FFF0E526F1BECD7F00101AD
:101660004F515011D8A4120073ECDFF0000E0201AC
:101670008F6F000E906F010EA8ECAAF0450E0201CC
:10168000856FEB0E866FA0ECDAF073ECDFF0040EE2
:1016900002018F6F000E906F030EA8ECAAF0580E97
:1016A0000201856FFA0E866FA0ECDAF0000E0201DF
:1016B0008F6F000E906F020EA8ECAAF0F10E0201DF
:1016C000856FF50E866FA0ECDAF0C40E0201856F0F
:1016D000F90E866FA0ECDAF0000E02018F6F010E9A
:1016E000906F030EA8ECAAF0350E0201856FFE0E76
:1016F000866FA0ECDAF051ECDFF073ECDFF0010163
:101700006851D8B41200000E686F1200F7EF95F020
:10171000250E02018419D8B436D020EE02F05B51B8
:10172000D9265C51DA22DE50DE10DE10D8B414D097
:1017300020EE02F05B51D9265C51DA2202D8F7EF95
:1017400095F00500FA6EDE50FD6EDE50FE6EDE5046
:10175000FF6EFA50845112005BC2D9FF5CC2DAFFFF
:10176000DECF61F2DDCF62F261C2D9FF62C2DAFF81
:1017700084C2DFFF5BC2D9FF5CC2DAFFDE2A000E43
:10178000DD22F7EF95F0000E02017F6F000E7E6FF5
:10179000000E816F000E806F04D0020180855D4BCA
:1017A0005E2B5DC2F6FF5EC2F7FF000EF86E0D0EF7
:1017B000F76403D00800F55005D0F6CFE9FFF7CF66
:1017C000EAFFEF50300AD8B4E8D75DC2F6FF5EC238
:1017D000F7FF000EF86E0D0EF76403D00800F55009
:1017E00005D0F6CFE9FFF7CFEAFFEF5048ECDEF087
:1017F000D8A04CD0000E02017F6F000E7E6F7EC21B
:101800004FF17FC250F1000E0101526F0A0E516F6D
:1018100041ECDDF04FC17EF250C17FF2D00E0201EB
:10182000616FFF0E626F5DC2F6FF5EC2F7FF000ED2
:10183000F86E0D0EF76403D00800F55005D0F6CF12
:10184000E9FFF7CFEAFFEF500201636F646B61516C
:1018500063276251642363517E2764517F235D4B6C
:101860005E2B5DC2F6FF5EC2F7FF000EF86E0D0E36
:10187000F76403D00800F55005D0F6CFE9FFF7CFA5
:10188000EAFFEF5048ECDEF0D8B0B9D75DC2F6FF02
:101890005EC2F7FF000EF86E0D0EF76403D008006D
:1018A000F55005D0F6CFE9FFF7CFEAFFEF502E0A4B
:1018B000D8A44DD00201818D5D4B5E2B000E836F4D
:1018C000000E826F2ED082C24FF183C250F1000E03
:1018D0000101526F0A0E516F41ECDDF05DC2F6FF5F
:1018E0005EC2F7FF000EF86E0D0EF76403D008001D
:1018F000F55005D0F6CFE9FFF7CFEAFFEF50020130
:10190000616F615101014F27000E5023D00E4F250A
:101910000201826FFF0E010150210201836F5D4BB6
:101920005E2B5DC2F6FF5EC2F7FF000EF86E0D0E75
:10193000F76403D00800F55005D0F6CFE9FFF7CFE4
:10194000EAFFEF5048ECDEF0D8A02AD1BCD7000E59
:101950000201836F000E826F818922D1808920D19C
:10196000818559D1808F57D15FC2D9FF60C2DAFF1C
:10197000DFCF61F2020EDE26DFCF62F2000EDD2243
:1019800061C2D9FF62C2DAFFDECF6CF2DDCF6DF249
:101990006C516D11D8A404D0950E6C6FFF0E6D6F55
:1019A000000E6F6F000E6E6F03D002016E4B6F2B37
:1019B0006E516C25616F6F516D21626F61C2F6FFD0
:1019C00062C2F7FF000EF86E0D0EF76403D0080038
:1019D000F55005D0F6CFE9FFF7CFEAFFEF50000949
:1019E000D8A4E3D7020182518311D8B40AD06E5132
:1019F000825D6F518359D8B004D082C26EF283C227
:101A00006FF27E516E5D7F516F59D8B005D06E5127
:101A10007E5F6F517F5B38D0000E7F6F000E7E6F50
:101A200033D020EE02F05B51D9265C51DA22DE5031
:101A3000DE10DE10D8B413D020EE02F05B51D926B0
:101A40005C51DA2201D820D00500FA6EDE50FD6E1E
:101A5000DE50FE6EDE50FF6EFA50200E12005BC2AA
:101A6000D9FF5CC2DAFFDECF61F2DDCF62F261C284
:101A7000D9FF62C2DAFF200EDF6E5BC2D9FF5CC203
:101A8000DAFFDE2A000EDD2202017E07D8A07F07E2
:101A90007E29C7E17F29D8B45BD0C3D720EE02F0FE
:101AA0005B51D9265C51DA22DE50DE10DE10D8B44C
:101AB00027D020EE02F05B51D9265C51DA2201D802
:101AC0001BD00500FA6EDE50FD6EDE50FE6EDE505D
:101AD000FF6EFA506CC2F6FF6DC2F7FF000EF86E93
:101AE0000D0EF76403D00800F55005D0F6CFE9FFDE
:101AF000F7CFEAFFEF50120002016C4B6D2B28D09C
:101B00006CC2F6FF6DC2F7FF000EF86E5BC2D9FF24
:101B10005CC2DAFFDECF61F2DDCF62F261C2D9FFD3
:101B200062C2DAFF0D0EF76403D00800F55005D04D
:101B3000F6CFE9FFF7CFEAFFEF50DF6E02016C4B03
:101B40006D2B5BC2D9FF5CC2DAFFDE2A000EDD22FC
:101B50006E07D8A06F076E29A1E16F29D8B4F7EFFF
:101B600095F09CD75FC2D9FF60C2DAFFDFCF61F288
:101B7000020EDE26DFCF62F2000EDD2261C2D9FF47
:101B800062C2DAFFDF50846F840E6C6F020E6D6FDD
:101B9000000E6F6F010E6E6F25D7C00E80133BD005
:101BA00002015D51616F5E51626F5D4B5E2B61C2E0
:101BB000F6FF62C2F7FF000EF86E0D0EF76403D059
:101BC0000800F55005D0F6CFE9FFF7CFEAFFEF5058
:101BD0000201846F8451000AD8B415EF96F0580AB8
:101BE000D8B4C0D63B0AD8B4BDD7070AD8B413D0EE
:101BF000020AD8B4B5D60F0AD8B40DD0050AD8B4A5
:101C0000ADD61F0AD8B4B0D6060AD8B4C6D70D0AC6
:101C1000D8B4A8D6B9D7070E8115D8B40AEF93F077
:101C200081A904D0000E836F060E826F5FC2D9FFB8
:101C300060C2DAFFDFCF61F2040EDE26DFCF62F290
:101C4000000EDD2261C2D9FF62C2DAFFDECF76F27A
:101C5000DECF77F2DECF78F2DECF79F279AF15D032
:101C600076C200F277C201F278C202F279C203F2C0
:101C7000B5ECDCF000C276F201C277F202C278F273
:101C800003C279F2030E02018013000E716F000E81
:101C9000706F7651771178117911D8B488D0783572
:101CA0007935820F706F716BFF0E71237007D8A0AA
:101CB000710770C24FF171C250F1000E0101526FF5
:101CC000030E516F41ECDDF04FC170F250C171F263
:101CD00070C255F171C256F1000E0101586F0A0E23
:101CE000576F64ECD1F055C170F256C171F2020128
:101CF00071AF03D07007D8A0710770510008FEECD7
:101D0000A5F04AC272F24BC273F24CC274F24DC2D9
:101D100075F272C231F273C232F274C233F275C21A
:101D200034F276C235F277C236F278C237F279C22F
:101D300038F25CECACF031C272F232C273F233C2F0
:101D400074F234C275F272C24FF173C250F174C2B0
:101D500051F175C252F1000E0101536F000E546F24
:101D6000800E556F3F0E566FCEECC8F00101D8B013
:101D700005D002017007D8A0710719D072C24FF1C7
:101D800073C250F174C251F175C252F1000E0101DB
:101D9000536F000E546F200E556F410E566FCEECF0
:101DA000C8F00101D8A003D00201704B712B0201D1
:101DB00083BF06D0835121E10D0E825DD8B01DD0C6
:101DC00076C204F277C205F278C206F279C207F24F
:101DD0008251EAECB5F04AC208F24BC209F24CC299
:101DE0000AF24DC20BF2ADECAFF004C276F205C2BE
:101DF00077F206C278F207C279F2020171BF06D00B
:101E0000715122E10A0E705DD8B01ED07651771163
:101E100078117911D8B465D076C253F277C254F2F2
:101E200078C255F279C256F27CECCBF002015351E4
:101E3000541155115611D8B471BF53D0715104E1EA
:101E4000020E705DD8A04DD072C24FF173C250F136
:101E500074C251F175C252F15F0E0101536F700EE1
:101E6000546F890E556F400E566FCEECC8F00101CD
:101E7000D8B003D00201F70E02D00201F80E70278D
:101E8000FF0E71237051FEECA5F04AC272F24BC2F4
:101E900073F24CC274F24DC275F276C24FF177C242
:101EA00050F178C251F179C252F172C253F173C24A
:101EB00054F174C255F175C256F1A5ECC7F04FC18B
:101EC0007AF250C17BF251C17CF252C17DF2000E18
:101ED0000201766F000E776F000E786F000E796F3B
:101EE0003CD076C253F277C254F278C255F279C22E
:101EF00056F27CECCBF053C27AF254C27BF255C25C
:101F00007CF256C27DF276C218F277C219F278C21C
:101F10001AF279C21BF27AC24FF17BC250F17CC235
:101F200051F17DC252F1000EE8ECC3F04FC11CF23A
:101F300050C11DF251C11EF252C11FF20DECD9F079
:101F400018C276F219C277F21AC278F21BC279F27D
:101F5000000E0201716F000E706F010E846F0A0E89
:101F60008419D8B41BD08451040D450EF324F66EA9
:101F7000CE0EF420F76EF86A000EF8220900F55034
:101F80007A5D0900F5507B590900F5507C5909002C
:101F9000F5507D59D8A002D0842BE1D784C261F2DC
:101FA000626B61BF62078251612783516223705166
:101FB00061277151622361517E5F62517F5B825163
:101FC0008311D8B403D07E07D8A07F07030E8015F5
:101FD000616F000E8115626F61516211D8B403D038
:101FE0007E07D8A07F0780A5B6D0030E8015616F4D
:101FF000000E8115626F61516211D8B46CD020EE71
:1020000002F05B51D9265C51DA22DE50DE10DE1080
:10201000D8B413D020EE02F05B51D9265C51DA22FD
:1020200001D859D00500FA6EDE50FD6EDE50FE6E0E
:10203000DE50FF6EFA502D0E12005BC2D9FF5CC25B
:10204000DAFFDECF61F2DDCF62F261C2D9FF62C298
:10205000DAFF2D0EDF6E5BC2D9FF5CC2DAFFDE2A2B
:10206000000EDD2238D0020120EE02F05B51D926AD
:102070005C51DA22DE50DE10DE10D8B413D020EE30
:1020800002F05B51D9265C51DA2201D820D005003C
:10209000FA6EDE50FD6EDE50FE6EDE50FF6EFA50C0
:1020A000300E12005BC2D9FF5CC2DAFFDECF61F2F4
:1020B000DDCF62F261C2D9FF62C2DAFF300EDF6E9D
:1020C0005BC2D9FF5CC2DAFFDE2A000EDD2202010C
:1020D0007E07D8A07F0702017FBFF6D07F51C3E102
:1020E0007E05D8A0F1D0BFD720EE02F05B51D926F3
:1020F0005C51DA22DE50DE10DE10D8B413D020EEB0
:1021000002F05B51D9265C51DA2201D820D00500BB
:10211000FA6EDE50FD6EDE50FE6EDE50FF6EFA503F
:10212000200E12005BC2D9FF5CC2DAFFDECF61F283
:10213000DDCF62F261C2D9FF62C2DAFF200EDF6E2C
:102140005BC2D9FF5CC2DAFFDE2A000EDD2202018B
:102150007E07D8A07F077FBF05D07F51C5E17E05F0
:10216000D8B0C2D7030E8015616F000E8115626F63
:1021700061516211D8B4A8D020EE02F05B51D9268B
:102180005C51DA22DE50DE10DE10D8B413D020EE1F
:1021900002F05B51D9265C51DA2201D895D00500B6
:1021A000FA6EDE50FD6EDE50FE6EDE50FF6EFA50AF
:1021B0002D0E12005BC2D9FF5CC2DAFFDECF61F2E6
:1021C000DDCF62F261C2D9FF62C2DAFF2D0E74D098
:1021D0007AC24FF17BC250F17CC251F17DC252F103
:1021E00002018451040D450EF324F66ECE0EF42048
:1021F000F76EF86A000EF8220900F5CF53F10900D6
:10220000F5CF54F10900F5CF55F10A00F5CF56F19D
:10221000A7ECD1F04FC172F250C173F251C174F208
:1022200052C175F272C200F273C201F274C202F2BC
:1022300075C203F20A0E0201046F000E056F000E54
:10224000066F000E076FA2ECD3F000C272F201C25B
:1022500073F202C274F203C275F2020120EE02F0C0
:102260005B51D9265C51DA22DE50DE10DE10D8B484
:1022700014D020EE02F05B51D9265C51DA2201D84D
:1022800023D00500FA6EDE50FD6EDE50FE6EDE508D
:10229000FF6EFA507251300F120002017251300F6E
:1022A0005BC2D9FF5CC2DAFFDECF61F2DDCF62F242
:1022B00061C2D9FF62C2DAFFDF6E5BC2D9FF5CC2C6
:1022C000DAFFDE2A000EDD22020184078429D8B459
:1022D00038D07ED720EE02F05B51D9265C51DA224D
:1022E000DE50DE10DE10D8B413D020EE02F05B51C9
:1022F000D9265C51DA2201D820D00500FA6EDE50D2
:10230000FD6EDE50FE6EDE50FF6EFA50300E120093
:102310005BC2D9FF5CC2DAFFDECF61F2DDCF62F2D1
:1023200061C2D9FF62C2DAFF300EDF6E5BC2D9FF35
:102330005CC2DAFFDE2A000EDD2202017007D8A09F
:10234000710771BF05D07151C5E17005D8B0C2D712
:1023500083BF09D0835104E1090E825DD8A003D068
:10236000080E846F02D082C284F28451825F000E14
:1023700084BFFF0E835B8451D8B433D020EE02F0CB
:102380005B51D9265C51DA22DE50DE10DE10D8B463
:1023900013D020EE02F05B51D9265C51DA2201D82D
:1023A00020D00500FA6EDE50FD6EDE50FE6EDE506F
:1023B000FF6EFA502E0E12005BC2D9FF5CC2DAFF2C
:1023C000DECF61F2DDCF62F261C2D9FF62C2DAFF15
:1023D0002E0EDF6E5BC2D9FF5CC2DAFFDE2A000E72
:1023E000DD2202018451FEECA5F04AC267F24BC225
:1023F00068F24CC269F24DC26AF276C235F277C217
:1024000036F278C237F279C238F267C231F268C266
:1024100032F269C233F26AC234F25CECACF031C21F
:1024200053F232C254F233C255F234C256F27CEC4B
:10243000CBF053C27AF254C27BF255C27CF256C240
:102440007DF2A6D07AC24FF17BC250F17CC251F12D
:102450007DC252F102018451040D450EF324F66E43
:10246000CE0EF420F76EF86A000EF8220900F5CFC0
:1024700053F10900F5CF54F10900F5CF55F10A00E9
:10248000F5CF56F1A7ECD1F04FC172F250C173F203
:1024900051C174F252C175F272C200F273C201F2FC
:1024A00074C202F275C203F20A0E0201046F000E3A
:1024B000056F000E066F000E076FA2ECD3F000C28E
:1024C00072F201C273F202C274F203C275F2020127
:1024D00020EE02F05B51D9265C51DA22DE50DE108C
:1024E000DE10D8B414D020EE02F05B51D9265C5136
:1024F000DA2201D823D00500FA6EDE50FD6EDE50E0
:10250000FE6EDE50FF6EFA507251300F1200020163
:102510007251300F5BC2D9FF5CC2DAFFDECF61F2CD
:10252000DDCF62F261C2D9FF62C2DAFFDF6E5BC249
:10253000D9FF5CC2DAFFDE2A000EDD227AC200F289
:102540007BC201F27CC202F27DC203F2020184511D
:10255000040D450EF324F66ECE0EF420F76EF86AE5
:10256000000EF8220900F5CF04F20900F5CF05F2BC
:102570000900F5CF06F20A00F5CF07F2A2ECD3F07E
:1025800000C27AF201C27BF202C27CF203C27DF287
:10259000020184078429D8B438D054D720EE02F041
:1025A0005B51D9265C51DA22DE50DE10DE10D8B441
:1025B00013D020EE02F05B51D9265C51DA2201D80B
:1025C00020D00500FA6EDE50FD6EDE50FE6EDE504D
:1025D000FF6EFA50300E12005BC2D9FF5CC2DAFF08
:1025E000DECF61F2DDCF62F261C2D9FF62C2DAFFF3
:1025F000300EDF6E5BC2D9FF5CC2DAFFDE2A000E4E
:10260000DD2202018207D8A0830782518311D8B44A
:10261000EED2C4D7C00E8015616F000E8115626FB7
:1026200061516211D8A441D080A919D05FC2D9FFED
:1026300060C2DAFFDFCF61F2040EDE26DFCF62F286
:10264000000EDD2261C2D9FF62C2DAFFDECF7AF26C
:10265000DECF7BF2DECF7CF2DECF7DF219D05FC21F
:10266000D9FF60C2DAFFDFCF61F2020EDE26DFCFD4
:1026700062F2000EDD2261C2D9FF62C2DAFFDECF54
:102680007AF2DDCF7BF2000E7BBFFF0E7C6F7D6F99
:102690007DAF40D0030E80137D1F7C1F7B1F7A6DA2
:1026A000000E7B237C237D2335D080A919D05FC207
:1026B000D9FF60C2DAFFDFCF61F2040EDE26DFCF82
:1026C00062F2000EDD2261C2D9FF62C2DAFFDECF04
:1026D0007AF2DECF7BF2DECF7CF2DECF7DF21AD053
:1026E0005FC2D9FF60C2DAFFDFCF61F2020EDE26E1
:1026F000DFCF62F2000EDD2261C2D9FF62C2DAFFD3
:10270000DECF63F2DDCF64F263C27AF264C27BF2A1
:102710007C6B7D6B82518311D8A44BD07A517B1195
:102720007C117D11D8A445D0824B832B42D0010E61
:10273000846F0A0E8419D8B447D08451040D450E15
:10274000F324F66ECE0EF420F76EF86A000EF8222F
:102750000900F5507A5D0900F5507B590900F550E4
:102760007C590900F5507D59D8A02ED0842BE1D793
:10277000010E846F080E8419D8B426D08451040D3C
:102780006D0EF324F66ECE0EF420F76EF86A000E8E
:10279000F8220900F5507A5D0900F5507B590900CF
:1027A000F5507C590900F5507D59D8A00DD0842BE7
