:040000007FEF00F09E
:060008005F8204EFC8F066
:100018005F80D8CF02F1E8CF03F1E0CF04F1FACF47
:1000280005F1FBCF06F1E9CF07F1EACF08F1E1CFFF
:1000380009F1E2CF0AF1D9CF0BF1DACF0CF1F3CF06
:100048000DF1F4CF0EF1F6CF0FF1F7CF10F1F8CF95
:1000580011F1F5CF12F15FC013F160C014F161C066
:1000680015F162C016F10E012EBB38AB03D0A4EC1B
:10007800D6F015D02CBD36AD0DD001D810D0050066
:10008800FA6E02015951FD6E5A51FE6E5B51FF6EB8
:10009800FA5012002EBD38AD02D0CFECD5F016C103
:1000A80062F015C161F014C160F013C15FF012C1B4
:1000B800F5FF11C1F8FF10C1F7FF0FC1F6FF0EC120
:1000C800F4FF0DC1F3FF0CC1DAFF0BC1D9FF0AC160
:1000D800E2FF09C1E1FF08C1EAFF07C1E9FF06C164
:1000E800FBFF05C1FAFF04C1E0FF03C1E8FF02C13D
:0A00F800D8FF5F901000E7EFCCF096
:10CEA600000000803F000020410000C84200007AD8
:10CEB6004400401C460050C347002474498096181D
:10CEC6004B20BCBE4C286B6E4EF9021550EC78AD6B
:10CED60060CAF249710000803FCDCCCC3D0AD72311
:10CEE6003C6F12833A17B7D138ACC52737BD3786A2
:10CEF6003595BFD63377CC2B325F708930FFE6DBB2
:10CF06002E08E53C1E6042A20D010000000A00004A
:10CF16000064000000E803000010270000A086015E
:10CF26000040420F008096980000E1F50500CA9A7D
:10CF36003B0100000010000000000100000010008E
:10CF460000000001000000100000000001000000C9
:10CF560010140010000C0008000400000018000067
:10CF66000000000000000000005F0000000000005C
:10CF76000007000700000000147F147F1400000063
:10CF8600242A7F2A1200000023130864620000008E
:10CF9600364955225000000000050300000000003D
:10CFA6001C2241000000000041221C00000000007D
:10CFB600082A1C2A0800000008083E08080000008D
:10CFC600A060000000000000080808080800000033
:10CFD600606000000000000020100804020000004D
:10CFE6003E5149453E00000000427F4000000000DF
:10CFF6006251494946000000224149493600000075
:10D006001814127F1000000027454545390000001E
:10D016003C4A49493000000001710905030000003F
:10D026003649494936000000064949291E000000D4
:10D03600003636000000000000AC6C000000000066
:10D0460008142241000000001414141414000000F7
:10D0560041221408000000000201510906000000E8
:10D06600324979413E0000007E0909097E00000030
:10D076007F494949360000003E41414122000000F7
:10D086007F4141221C0000007F49494941000000C0
:10D096007F090909010000003E414151720000006C
:10D0A6007F0808087F000000417F41000000000063
:10D0B6002040413F010000007F081422410000008B
:10D0C6007F404040400000007F020C027F000000CD
:10D0D6007F0408107F0000003E4141413E000000F1
:10D0E6007F090909060000003E4151215E0000004B
:10D0F6007F091929460000002649494946000000D3
:10D1060001017F01010000003F4040403F00000058
:10D116001F2040201F0000003F4038403F00000015
:10D12600631408146300000003047804030000007D
:10D1360061514945430000007F4141000000000065
:10D14600020408102000000041417F00000000009A
:10D15600040201020400000080808080800000003C
:10D16600010204000000000020545454780000001E
:10D176007F4844443800000038444428000000003A
:10D18600384444487F0000003854545418000000C6
:10D19600087E09020000000018A4A4A47C00000078
:10D1A6007F08040478000000007D000000000000F5
:10D1B60080847D00000000007F10284400000000ED
:10D1C600417F4000000000007C0418047800000045
:10D1D6007C08047C0000000038444438000000004D
:10D1E600FC24241800000000182424FC0000000081
:10D1F600007C08040000000048545424000000008D
:10D20600047F4400000000003C40407C0000000019
:10D216001C2040201C0000003C4030403C00000028
:10D2260044281028440000001CA0A07C0000000038
:10D236004464544C440000000836410000000000DD
:10D24600007F0000000000004136080000000000DA
:10D2560002010102010000000205050200000006AD
:10D266003C04427D9F6A425C900142604DBB405146
:10D27600EC473EDE8D1FBBECF34A48359595C71744
:10D28600C1DC45FDDB6DC372B33340063C0442C0CE
:10D29600598B4274044442F99B4F410000803F2B56
:10D2A6003401487F9DB045E7FFD9420000803F4CDE
:10D2B600697374206F6620616C6C20737570706F73
:10D2C6007274656420636F6D6D616E64733A0A0DE6
:10D2D60044657669636520436F6E74726F6C204394
:10D2E6006F6D6D616E64733A20436F6D6D616E6430
:10D2F6007320746F207669657720616E6420636F92
:10D306006E74726F6C206C6F77206C6576656C201E
:10D3160073797374656D2066756E6374696F6E617B
:10D326006C6974790A0D20202052657365743A2061
:10D33600436C6561727320746865207465726D69EB
:10D346006E616C20616E64207265736574732074FF
:10D356006865206D6963726F636F6E74726F6C6C53
:10D3660065720A0D202020436C6561723A20436C79
:10D376006561727320746865207465726D696E618B
:10D386006C2062757420646F65736E2774207265F5
:10D3960073657420746865206D6963726F0A0D2069
:10D3A60020204361757365206F662052657365742E
:10D3B6003F3A2052657475726E73207468652063F7
:10D3C60061757365206F6620746865206D6F737470
:10D3D60020726563656E7420646576696365207284
:10D3E600657365740A0D2020202A49444E3F3A2071
:10D3F60052657475726E732064657669636520691B
:10D4060064656E74696669636174696F6E207374AE
:10D4160072696E670A0D202020446576696365206F
:10D426004F6E2054696D653F3A2052657475726E71
:10D436007320646576696365206F6E2074696D6517
:10D446002073696E6365206C617374206465766908
:10D4560063652072657365740A0D20202044657625
:10D466006963652049443F3A2052657475726E734C
:10D476002064657669636520494420617320707273
:10D48600652D70726F6772616D6D656420696E20BF
:10D49600666C617368206D656D6F72790A0D202068
:10D4A600205265766973696F6E2049443F3A20526F
:10D4B600657475726E732064657669636520736939
:10D4C6006C69636F6E207265766973696F6E204949
:10D4D60044206173207072652D70726F6772616D82
:10D4E6006D656420696E20666C617368206D656D7C
:10D4F6006F72790A0D202020557365722049447396
:10D506003F3A2052657475726E732061206C6973A0
:10D5160074206F66207573657220494473202864F1
:10D526006973706C6179656420696E206865782915
:10D536002061732073746F72656420696E20666C57
:10D54600617368206D656D6F72790A0D2020204128
:10D556004443204572726F72733F3A205265747568
:10D56600726E7320746865206361757365206F66DB
:10D5760020616E20414443206572726F7220696695
:10D5860020616E206572726F72206F6363757272AE
:10D5960065640A0D202020436C6561722041444376
:10D5A600204572726F72733A20436C656172732004
:10D5B60074686520414443206572726F7220616E03
:10D5C6006420726573756D65732041444320636FF3
:10D5D6006E76657273696F6E730A0D202020436F35
:10D5E6006D6D204572726F72733F3A205265747585
:10D5F600726E73206966206120636F6D6D756E694A
:10D60600636174696F6E73206572726F72206861F0
:10D6160073206F636375727265640A0D2020204360
:10D626006C65617220436F6D6D204572726F727307
:10D636003A20436C656172732074686520636F6D70
:10D646006D756E69636174696F6E73206572726F52
:10D65600720A0D202020436C656172204D6178208E
:10D6660056616C7565733A20457261736573206DFA
:10D676006178696D756D207265636F72646564208B
:10D6860076616C7565732066726F6D2045455052E4
:10D696004F4D0A0D20202048656C703A2054686969
:10D6A60073206D6573736167652C206C6973747381
:10D6B60020737570706F7274656420636F6D6D6131
:10D6C6006E64730A0D0A0D446576696365204D65BF
:10D6D60061737572656D656E7420436F6D6D616EF5
:10D6E60064733A2056696577206C6F77206C65768F
:10D6F600656C2073797374656D206D6561737572E1
:10D70600656D656E74730A0D2020204D6561737515
:10D71600726520504F533350333F3A20526574752B
:10D72600726E73202B332E33562041444320436FB1
:10D736006E76657273696F6E20696E20766F6C7493
:10D74600730A0D2020204D65617375726520504F58
:10D756005331323F3A2052657475726E73202B3105
:10D7660032562041444320436F6E76657273696F6B
:10D776006E20696E20766F6C74730A0D2020204D22
:10D78600656173757265204469652054656D703FE7
:10D796003A2052657475726E7320746865206D69DF
:10D7A60063726F636F6E74726F6C6C6572206469FE
:10D7B600652074656D706572617475726520696E39
:10D7C600206465677265657320430A0D2020204D2D
:10D7D600656173757265204656523F3A20526574EC
:10D7E60075726E732074686520696E7465726E61F9
:10D7F6006C20666978656420766F6C746167652055
:10D806007265666572656E636520627566666572C9
:10D816002031206F757470757420696E20766F6C78
:10D8260074730A0D2020204D656173757265204161
:10D836005653533F3A2052657475726E732074685E
:10D8460065206D656173757265642076616C7565BA
:10D85600206F6620416E616C6F67205653532069B6
:10D866006E20766F6C74730A0D2020204D6178202F
:10D87600504F5333503320566F6C746167653F3A8F
:10D886002052657475726E7320746865206D6178B8
:10D89600696D756D207265636F72646564202B33E4
:10D8A6002E3356205261696C20566F6C7461676521
:10D8B600206D656173757265640A0D2020204D61C7
:10D8C6007820504F53313220566F6C746167653F34
:10D8D6003A2052657475726E7320746865206D61A6
:10D8E60078696D756D207265636F72646564202B4F
:10D8F600313256205261696C20566F6C74616765CF
:10D90600206D656173757265640A0D2020204D6176
:10D9160078204469652054656D703F3A20526574DD
:10D9260075726E7320746865206D6178696D756DAA
:10D93600207265636F72646564206469652074652E
:10D946006D7065726174757265206D65617375724F
:10D9560065640A0D2020204D6178204656522056D7
:10D966006F6C746167653F3A2052657475726E73A9
:10D9760020746865206D6178696D756D20726563C8
:10D986006F726465642046565220427566666572FB
:10D99600203120566F6C74616765206D6561737503
:10D9A6007265640A0D0A0D5072696D617279204DB7
:10D9B6006561737572656D656E7420436F6D6D611B
:10D9C6006E64733A20566965772068696768206CCB
:10D9D6006576656C206F7574707574206D656173FE
:10D9E6007572656D656E747320616E642063616C1B
:10D9F60063756C6174696F6E730A0D2020204D6526
:10DA0600617375726520446574656374656420434B
:10DA1600757272656E743F3A2052657475726E73D4
:10DA2600206D65617375726564206F7574707574A9
:10DA36002063757272656E7420696E20616D7073F5
:10DA4600206173207365656E206279204144430A24
:10DA56000D2020204D65617375726520524D53204F
:10DA660043757272656E743F3A2052657475726EB4
:10DA760073207468652063616C63756C617465649A
:10DA860020524D53206F75747075742063757272D1
:10DA9600656E742066726F6D206D65617375726553
:10DAA6006D656E747320616E642054524941432043
:10DAB600666972696E6720616E676C650A0D202063
:10DAC600204D65617375726520524D5320566F6CFB
:10DAD600746167653F3A2052657475726E7320747F
:10DAE60068652063616C63756C6174656420524D72
:10DAF60053206F757470757420766F6C74616765EA
:10DB06002066726F6D2054524941432066697269DE
:10DB16006E6720616E676C650A0D2020204D656179
:10DB26007375726520506F7765723F3A205265743F
:10DB360075726E73207468652063616C63756C61C1
:10DB4600746564206F757470757420706F77657274
:10DB560020696E2057617474730A0D2020204D656C
:10DB6600617375726520456E657267793F3A20521A
:10DB7600657475726E73206D656173757265642068
:10DB8600656E657267792073696E6365206D656180
:10DB9600737572656D656E74207265736574206940
:10DBA6006E205761747420486F7572730A0D2020B9
:10DBB60020436C65617220456E657267793A205222
:10DBC600657365747320746865206D65617375721D
:10DBD6006564206F757470757420656E65726779FB
:10DBE60020746F207A65726F0A0D2020204C6F61B9
:10DBF60064204F6E2054696D653F3A2052657475F6
:10DC0600726E73206C6F6164206F6E2074696D652F
:10DC16002073696E6365206C617374206465766930
:10DC2600636520726573657420696E207365636F22
:10DC36006E64730A0D2020204D617820524D5320CA
:10DC460043757272656E743F3A205072696E7473D2
:10DC560020746865206D6178696D756D20726563E5
:10DC66006F7264656420524D53206F7574707574BD
:10DC76002063757272656E740A0D2020204D6178DE
:10DC860020506F7765723F3A205072696E74732028
:10DC9600746865206D6178696D756D207265636F56
:10DCA60072646564206F757470757420706F776523
:10DCB600720A0D0A0D4F757470757420436F6E7479
:10DCC600726F6C20436F6D6D616E64733A20436FA3
:10DCD6006E74726F6C20746865206F7574707574DD
:10DCE60020737461746520616E642064696D6D696A
:10DCF6006E672066656174757265730A0D20202053
:10DD0600456E61626C652044696D6D696E673A2087
:10DD1600456E61626C65205452494143206F7574AB
:10DD26007075742064696D6D696E670A0D20202018
:10DD360044697361626C652044696D6D696E673A0A
:10DD46002044697361626C65205452494143206FD7
:10DD560075747075742064696D6D696E670A0D203F
:10DD66002020456E61626C65204C6F61643A2045E7
:10DD76006E61626C657320746865206F757470756A
:10DD86007420545249414320776974682064696D50
:10DD96006D696E672064697361626C65640A0D2043
:10DDA600202044697361626C65204C6F61643A207F
:10DDB60044697361626C657320746865206F75745D
:10DDC60070757420545249414320636F6D706C65C1
:10DDD60074656C790A0D2020204C6F616420456EB5
:10DDE60061626C65643F3A2052657475726E732089
:10DDF600696620746865206F7574707574206C6F21
:10DE0600616420697320656E61626C6564206F725F
:10DE16002064697361626C65640A0D202020446980
:10DE26006D6D696E6720456E61626C65643F3A2070
:10DE360052657475726E732069662064696D6D69CA
:10DE46006E67206F6620746865206F7574707574D0
:10DE5600206C6F616420697320656E61626C656415
:10DE6600206F72206E6F740A0D2020205365742077
:10DE760044696D6D696E672050657263656E746185
:10DE860067653A203C783E3A20536574732074687F
:10DE960065206F75747075742064696D6D696E6741
:10DEA6002070657263656E746167652061732078A2
:10DEB6002070657263656E740A0D0A0D004C6973F5
:10DEC60074206F6620737570706F72746564204479
:10DED600657669636520436F6E74726F6C20436F5D
:10DEE6006D6D616E64733A0A0D202020526573656C
:10DEF600743A20436C65617273207468652074659A
:10DF0600726D696E616C20616E64207265736574F2
:10DF16007320746865206D6963726F636F6E7472C7
:10DF26006F6C6C65720A0D202020436C6561723A35
:10DF360020436C6561727320746865207465726D28
:10DF4600696E616C2062757420646F65736E2774E8
:10DF560020726573657420746865206D6963726FDD
:10DF66000A0D2020204361757365206F6620526577
:10DF76007365743F3A2052657475726E73207468C7
:10DF860065206361757365206F6620746865206D12
:10DF96006F737420726563656E7420646576696359
:10DFA600652072657365740A0D2020202A49444E47
:10DFB6003F3A2052657475726E73206465766963A4
:10DFC60065206964656E74696669636174696F6EFC
:10DFD60020737472696E670A0D2020204465766985
:10DFE6006365204F6E2054696D653F3A2052657413
:10DFF60075726E7320646576696365206F6E207432
:10E00600696D652073696E6365206C617374206445
:10E0160065766963652072657365740A0D20202034
:10E026004465766963652049443F3A2052657475B4
:10E03600726E732064657669636520494420617356
:10E04600207072652D70726F6772616D6D656420E8
:10E05600696E20666C617368206D656D6F72790AF2
:10E066000D2020205265766973696F6E2049443F02
:10E076003A2052657475726E7320646576696365BD
:10E086002073696C69636F6E207265766973696F58
:10E096006E204944206173207072652D70726F671F
:10E0A60072616D6D656420696E20666C61736820AF
:10E0B6006D656D6F72790A0D20202055736572208B
:10E0C6004944733F3A2052657475726E732061201D
:10E0D6006C697374206F662075736572204944738A
:10E0E6002028646973706C6179656420696E2068A4
:10E0F6006578292061732073746F72656420696E78
:10E1060020666C617368206D656D6F72790A0D20EB
:10E116002020414443204572726F72733F3A205269
:10E12600657475726E7320746865206361757365B6
:10E13600206F6620616E20414443206572726F72C3
:10E1460020696620616E206572726F72206F63634C
:10E1560075727265640A0D202020436C6561722019
:10E16600414443204572726F72733A20436C656175
:10E1760072732074686520414443206572726F7221
:10E1860020616E6420726573756D6573204144432A
:10E1960020636F6E76657273696F6E730A0D202049
:10E1A60020436F6D6D204572726F72733F3A205235
:10E1B600657475726E73206966206120636F6D6D7C
:10E1C600756E69636174696F6E73206572726F72C2
:10E1D60020686173206F636375727265640A0D202F
:10E1E6002020436C65617220436F6D6D204572720D
:10E1F6006F72733A20436C65617273207468652090
:10E20600636F6D6D756E69636174696F6E7320659A
:10E2160072726F720A0D202020436C656172204D68
:10E2260061782056616C7565733A20457261736535
:10E2360073206D6178696D756D207265636F7264A8
:10E2460065642076616C7565732066726F6D204516
:10E256004550524F4D0A0D20202048656C703A20DB
:10E2660054686973206D6573736167652C206C69EA
:10E2760073747320737570706F7274656420636F46
:10E286006D6D616E64730A0D0A0D004C697374201E
:10E296006F6620737570706F727465642050726952
:10E2A6006D617279204D6561737572656D656E7409
:10E2B60020436F6D6D616E64733A0A0D2020204D08
:10E2C6006561737572652044657465637465642061
:10E2D60043757272656E743F3A2052657475726E3C
:10E2E60073206D65617375726564206F75747075E2
:10E2F600742063757272656E7420696E20616D702C
:10E3060073206173207365656E20627920414443F2
:10E316000A0D2020204D65617375726520524D539C
:10E326002043757272656E743F3A20526574757239
:10E336006E73207468652063616C63756C617465C7
:10E346006420524D53206F75747075742063757216
:10E3560072656E742066726F6D206D65617375727D
:10E36600656D656E747320616E6420545249414335
:10E3760020666972696E6720616E676C650A0D209A
:10E3860020204D65617375726520524D5320566F7E
:10E396006C746167653F3A2052657475726E7320BE
:10E3A6007468652063616C63756C61746564205282
:10E3B6004D53206F757470757420766F6C74616739
:10E3C600652066726F6D205452494143206669721A
:10E3D600696E6720616E676C650A0D2020204D65A9
:10E3E600617375726520506F7765723F3A2052658A
:10E3F6007475726E73207468652063616C63756CE6
:10E4060061746564206F757470757420706F7765BC
:10E416007220696E2057617474730A0D2020204D96
:10E4260065617375726520456E657267793F3A203E
:10E4360052657475726E73206D656173757265646D
:10E4460020656E657267792073696E6365206D65F8
:10E4560061737572656D656E74207265736574207F
:10E46600696E205761747420486F7572730A0D20A7
:10E476002020436C65617220456E657267793A208B
:10E4860052657365747320746865206D6561737574
:10E49600726564206F757470757420656E65726739
:10E4A6007920746F207A65726F0A0D2020204C6FD8
:10E4B6006164204F6E2054696D653F3A2052657441
:10E4C60075726E73206C6F6164206F6E2074696D57
:10E4D600652073696E6365206C617374206465766C
:10E4E60069636520726573657420696E2073656360
:10E4F6006F6E64730A0D2020204D617820524D53B3
:10E506002043757272656E743F3A205072696E745C
:10E516007320746865206D6178696D756D2072650C
:10E52600636F7264656420524D53206F7574707505
:10E53600742063757272656E740A0D2020204D6119
:10E546007820506F7765723F3A205072696E747307
:10E5560020746865206D6178696D756D20726563DC
:10E566006F72646564206F757470757420706F7750
:10E5760065720A0D0A0D004C697374206F6620736C
:10E586007570706F72746564204465766963652082
:10E596004D6561737572656D656E7420436F6D6D43
:10E5A600616E64733A0A0D2020204D6561737572A1
:10E5B6006520504F533350333F3A2052657475727D
:10E5C6006E73202B332E33562041444320436F6E07
:10E5D60076657273696F6E20696E20766F6C7473E0
:10E5E6000A0D2020204D65617375726520504F53CA
:10E5F60031323F3A2052657475726E73202B313278
:10E60600562041444320436F6E76657273696F6E80
:10E6160020696E20766F6C74730A0D2020204D657C
:10E626006173757265204469652054656D703F3A63
:10E636002052657475726E7320746865206D696307
:10E64600726F636F6E74726F6C6C6572206469654D
:10E656002074656D706572617475726520696E20CF
:10E666006465677265657320430A0D2020204D6539
:10E676006173757265204656523F3A20526574752D
:10E68600726E732074686520696E7465726E616C53
:10E6960020666978656420766F6C746167652072A0
:10E6A60065666572656E636520627566666572206D
:10E6B60031206F757470757420696E20766F6C7476
:10E6C600730A0D2020204D656173757265204156D1
:10E6D60053533F3A2052657475726E7320746865A1
:10E6E600206D656173757265642076616C75652051
:10E6F6006F6620416E616C6F672056535320696EBA
:10E7060020766F6C74730A0D2020204D617820509E
:10E716004F5333503320566F6C746167653F3A2010
:10E7260052657475726E7320746865206D617869C0
:10E736006D756D207265636F72646564202B332E70
:10E746003356205261696C20566F6C746167652080
:10E756006D656173757265640A0D2020204D6178C0
:10E7660020504F53313220566F6C746167653F3AC3
:10E776002052657475726E7320746865206D6178B9
:10E78600696D756D207265636F72646564202B31E7
:10E796003256205261696C20566F6C746167652031
:10E7A6006D656173757265640A0D2020204D617870
:10E7B600204469652054656D703F3A205265747532
:10E7C600726E7320746865206D6178696D756D2051
:10E7D6007265636F72646564206469652074656D33
:10E7E6007065726174757265206D656173757265A9
:10E7F600640A0D2020204D61782046565220566F1F
:10E806006C746167653F3A2052657475726E732049
:10E81600746865206D6178696D756D207265636FCA
:10E82600726465642046565220427566666572209B
:10E836003120566F6C74616765206D656173757202
:10E8460065640A0D0A0D004C697374206F662073A7
:10E856007570706F72746564204F7574707574206E
:10E86600436F6E74726F6C20436F6D6D616E64736F
:10E876003A0A0D202020456E61626C652044696D60
:10E886006D696E673A20456E61626C652054524927
:10E896004143206F75747075742064696D6D696E7F
:10E8A600670A0D20202044697361626C6520446903
:10E8B6006D6D696E673A2044697361626C652054B8
:10E8C60052494143206F75747075742064696D6D8B
:10E8D600696E670A0D202020456E61626C65204CCA
:10E8E6006F61643A20456E61626C65732074686579
:10E8F600206F7574707574205452494143207769AE
:10E9060074682064696D6D696E67206469736162FD
:10E916006C65640A0D20202044697361626C652071
:10E926004C6F61643A2044697361626C657320744C
:10E936006865206F75747075742054524941432080
:10E94600636F6D706C6574656C790A0D2020204CC0
:10E956006F616420456E61626C65643F3A20526562
:10E966007475726E7320696620746865206F75749D
:10E97600707574206C6F616420697320656E6162C6
:10E986006C6564206F722064697361626C65640AE9
:10E996000D20202044696D6D696E6720456E6162A9
:10E9A6006C65643F3A2052657475726E73206966B1
:10E9B6002064696D6D696E67206F662074686520D6
:10E9C6006F7574707574206C6F616420697320654F
:10E9D6006E61626C6564206F72206E6F740A0D2022
:10E9E60020205365742044696D6D696E67205065FB
:10E9F6007263656E746167653A203C783E3A2053CF
:10EA060065747320746865206F75747075742064FE
:10EA1600696D6D696E672070657263656E74616796
:10EA26006520617320782070657263656E740A0DC7
:10EA36000A0D00506C6561736520737065636966C5
:10EA46007920776861742074797065206F66206319
:10EA56006F6D6D616E647320796F752764206C69C4
:10EA66006B652068656C7020776974683A0A0D5486
:10EA76007279202748656C70203C636F6D6D616EFE
:10EA860064207365743E270A0D0A0D537570706F06
:10EA96007274656420436F6D6D616E642053657496
:10EAA600733A0A0D20202044657669636520436F1A
:10EAB6006E74726F6C20436F6D6D616E64733A2075
:10EAC600436F6D6D616E647320746F207669657730
:10EAD60020616E6420636F6E74726F6C206C6F774A
:10EAE600206C6576656C2073797374656D20667528
:10EAF6006E6374696F6E616C6974790A0D202020EB
:10EB0600446576696365204D6561737572656D65EB
:10EB16006E7420436F6D6D616E64733A205669653D
:10EB260077206C6F77206C6576656C2073797374CB
:10EB3600656D206D6561737572656D656E74730ABA
:10EB46000D2020205072696D617279204D656173C8
:10EB56007572656D656E7420436F6D6D616E64735D
:10EB66003A20566965772068696768206C6576651E
:10EB76006C206F7574707574206D65617375726540
:10EB86006D656E747320616E642063616C63756C71
:10EB96006174696F6E730A0D2020204F757470754D
:10EBA6007420436F6E74726F6C20436F6D6D616E6F
:10EBB60064733A20436F6E74726F6C2074686520BC
:10EBC6006F757470757420737461746520616E64FA
:10EBD6002064696D6D696E6720666561747572651E
:10EBE600730A0D0A0D2748656C7020416C6C27204E
:10EBF60077696C6C206C69737420616C6C20636F30
:10EC06006D6D616E64730A0D00202020205F202048
:10EC1600205F5F5F2020205F5F5F20202020202074
:10EC260020202020202020202020202020202020DE
:10EC36005F5F20205F5F20202020205F2020202093
:10EC460020202020202020202020202020202020BE
:10EC56002020202020205F2020205F5F5F20205F73
:10EC66002020202020200A0D2020202F5F5C202F2E
:10EC7600205F5F7C207C205F205C5F5F5F5F5F20A2
:10EC86005F5F205F5F5F5F5F205F205F20207C20EB
:10EC9600205C2F20207C5F5F5F7C207C5F205F5F95
:10ECA6005F205F205F2020205F5F205F205F205F66
:10ECB60020205F5F7C207C207C2020205C285F2930
:10ECC6005F205F5F20205F205F5F20205F5F5F2007
:10ECD6005F205F200A0D20202F205F205C20285F08
:10ECE6005F20207C20205F2F205F205C2056202084
:10ECF60056202F202D5F2920275F7C207C207C5CDE
:10ED06002F7C202F202D5F2920205F2F202D5F298B
:10ED160020275F7C202F205F60207C2027205C2F0F
:10ED2600205F60207C207C207C29207C207C202782
:10ED360020205C7C202720205C2F202D5F29202787
:10ED46005F7C0A0D202F5F2F205C5F5C5F5F5F7C1E
:10ED5600207C5F7C205C5F5F5F2F5C5F2F5C5F2F9A
:10ED66005C5F5F5F7C5F7C2020207C5F7C20207C5A
:10ED76005F5C5F5F5F7C5C5F5F5C5F5F5F7C5F7C4F
:10ED86002020205C5F5F2C5F7C5F7C7C5F5C5F5F2C
:10ED96002C5F7C207C5F5F5F2F7C5F7C5F7C5F7C71
:10EDA6005F7C5F7C5F7C5F5C5F5F5F7C5F7C20205D
:10EDB6000A0D0020202020426F6F7420636F6D7053
:10EDC6006C6574650A0D2020202050494331384671
:10EDD60036374B3430206D546F7563682054657335
:10EDE6007420426F6172640A0D20202020457661EE
:10EDF6006C756174657320746865206D546F7563F6
:10EE060068206361706163697469766520746F75E3
:10EE16006368206C696272617279206469737472C6
:10EE2600696275746564206279204D6963726F63E7
:10EE36006869700A0D202020205365747320746859
:10EE460065207374617465206F6620666976652037
:10EE56004C454473206261736564206F6E206D5467
:10EE66006F75636820636170616369746976652094
:10EE760070757368627574746F6E730A0D20202046
:10EE8600204261756420726174653A2031313532F1
:10EE96003030206270730A0D202020204E6F2070C3
:10EEA60061726974792C203820626974732C206E23
:10EEB6006F20666C6F7720636F6E74726F6C2C2098
:10EEC600312073746F70206269740A0D202020202F
:10EED600436F6D6D616E647320617265206361734B
:10EEE600652073656E7369746976650A0D20202046
:10EEF60020456E746572206120636F6D6D616E646E
:10EF06002C206F7220656E7465722048656C7020C7
:10EF1600666F72206C697374206F6620636F6D6D07
:10EF2600616E64730A0D005741524E494E473A20AE
:10EF36005573696E67207468652064696D6D696EC6
:10EF46006720666561747572652077697468206CE0
:10EF56006F61642064657669636573206F746865A4
:10EF660072207468616E2061206C69676874206223
:10EF7600756C622063616E20726573756C742069AE
:10EF86006E206465766963652064616D61676500FE
:10EF96004F6E6C7920656E61626C652064696D6D7B
:10EFA600696E6720696620796F75206172652063D6
:10EFB6006F6D706C6574656C7920737572652074FD
:10EFC6006865206C6F616420697320636F6D706182
:10EFD6007469626C652077697468206120736F6C50
:10EFE60069642073746174652064696D6D696E6708
:10EFF600206369726375697400496620796F7527A5
:10F0060064206C696B6520746F20636F6D706C652E
:10F0160074656C7920656E61626C65206F72206420
:10F02600697361626C6520746865206C6F61642C1D
:10F036002064697361626C652064696D6D696E67D1
:10F0460020616E64207573652072657370656374E4
:10F0560069766520636F6D6D616E64730A0D004598
:10F0660052524F523A20506C656173652073657435
:10F076002064696D6D696E672070657263656E7474
:10F0860061676520746F20616E20696E74656765BF
:10F09600722067726561746572207468616E2030D3
:10F0A60020616E64206C657373207468616E203114
:10F0B60030300A0D00446576696365204944207343
:10F0C600746F72656420696E20466C61736820698E
:10F0D600733A20307825582E205468697320636F60
:10F0E60072726573706F6E647320746F2061206432
:10F0F60065766963652070617274206E756D6265F0
:10F1060072206F662025730A0D004D656173757256
:10F116006564206F757470757420656E65726779A5
:10F126002073696E6365206C617374206D6561730D
:10F136007572656D656E742072657365742069738A
:10F1460020252E3366205761747420486F757273BC
:10F156000A0D005468697320636F72726573706F6D
:10F166006E647320746F20612031362062697420CA
:10F1760074696D6572207072652D6C6F616420769E
:10F18600616C7565206F66203078255820282575B6
:10F19600204C53427329200A0D00436F6D6D756E26
:10F1A60069636174696F6E73206572726F7228731A
:10F1B600292064657465637465642120496E7465ED
:10F1C6007266616365732063617573696E67206536
:10F1D60072726F722873293A0A0D005468652066A8
:10F1E6006F6C6C6F77696E67205573657220494442
:10F1F600732068617665206265656E20726574723B
:10F2060069657665642066726F6D20666C617368E9
:10F21600206D656D6F72793A0A0D0043616C6375F6
:10F226006C61746564205452494143206669726971
:10F236006E6720616E676C6520697320252E3366C4
:10F246002072616469616E732028252E33662064FE
:10F25600656772656573290A0D0053797374656D68
:10F2660020706172616D657465727320616E6420D1
:10F2760061666669726D6174697665207265737020
:10F286006F6E7365732061707065617220696E20A0
:10F29600677265656E0A0D0043616C6C2027436CCE
:10F2A60065617220434F4D4D204572726F72732710
:10F2B60020746F20636C65617220636F6D6D756E6F
:10F2C60069636174696F6E73206572726F722873F9
:10F2D600290A0D004465766963652073696C696364
:10F2E6006F6E207265766973696F6E20494420617E
:10F2F600732073746F72656420696E20466C617347
:10F30600682069733A202563253033640A0D004D61
:10F3160065617375726564206F75747075742065A8
:10F326006E6572677920686173206265656E20720A
:10F336006573657420746F207A65726F20576174E7
:10F346007420486F7572730A0D00446576696365AB
:10F35600206F6E2074696D652073696E6365206C1D
:10F3660061737420726573657420636F6E6469746B
:10F37600696F6E206973202564207365636F6E6400
:10F38600730A0D00466978656420566F6C74616770
:10F3960065205265666572656E63652042756666B0
:10F3A60065722031206D65617375726564206173C5
:10F3B60020252E336620566F6C74730A0D004F7528
:10F3C6007470757420706F7765722063616C6375F5
:10F3D6006C6174656420617320252E336620576145
:10F3E6007474732066726F6D20524D532076616C73
:10F3F6007565730A0D0048656C70206D65737361E1
:10F4060067657320616E64206E65757472616C2029
:10F41600726573706F6E736573206170706561726B
:10F4260020696E2079656C6C6F770A0D004D6178E6
:10F43600696D756D207265636F72646564207661AF
:10F446006C756573206572617365642066726F6D95
:10F45600205352414D20616E6420454550524F4D18
:10F466000A0D00202020205573657220494420573C
:10F476006F72642025642028466C6173682061647D
:10F4860064726573732030783230303030255829F5
:10F496003A20307825580A0D004D6178696D756DF2
:10F4A600207265636F7264656420465652206275E9
:10F4B60066666572203120766F6C746167652069B7
:10F4C6007320252E336620566F6C74730A0D00491F
:10F4D60066207965732C207265706C792027456EDD
:10F4E60061626C652044696D6D696E6720592720DD
:10F4F6006F6E20746865206E657874206C696E6521
:10F506003A0A0D004C6F616420697320637572724C
:10F51600656E746C7920656E61626C65642C206220
:10F5260075742064696D6D696E67206973206469FE
:10F536007361626C65640A0D004C6F6164206F6EC6
:10F546002074696D652073696E6365206C617374E0
:10F5560020646576696365207265736574206973D6
:10F56600202564207365636F6E64730A0D00417213
:10F576006520796F75207375726520796F752764BC
:10F58600206C696B6520746F20656E61626C652006
:10F596006F75747075742064696D6D696E673F0A66
:10F5A6000D00546865206361757365206F6620746D
:10F5B6006865206D6F737420726563656E74206470
:10F5C6006576696365207265736574207761733A41
:10F5D6002025730A0D004D6178696D756D20726581
:10F5E600636F72646564202B332E33562072616913
:10F5F6006C20766F6C7461676520697320252E33E5
:10F606006620566F6C74730A0D004D6178696D75CE
:10F616006D207265636F7264656420524D53206F6E
:10F6260075747075742063757272656E7420697373
:10F6360020252E33662041726D730A0D004D6178C8
:10F64600696D756D207265636F72646564202B3118
:10F656003256207261696C20766F6C746167652022
:10F66600697320252E336620566F6C74730A0D005D
:10F6760043616C6C2027436C6561722041444320D2
:10F686004572726F72732720746F20636C656172A6
:10F6960020414443206572726F722873290A0D0057
:10F6A6004D617271756574746520556E6976657203
:10F6B6007369747920454C454E20333033352046E6
:10F6C600696E616C2050726F6A6563740A0D00542E
:10F6D600686520666F6C6C6F77696E67206368611A
:10F6E6006E6E656C732063617573656420616E2050
:10F6F600414443206572726F723A0A0D0045727278
:10F706006F727320616E64206E65676174697665D9
:10F7160020726573706F6E736573206170706561BA
:10F726007220696E207265640A0D00456E746572FA
:10F73600202748656C702720666F72206C69737489
:10F74600206F6620617661696C61626C6520636F0B
:10F756006D6D616E64730A0D004D6178696D756D2E
:10F76600207265636F72646564206F75747075745A
:10F7760020706F77657220697320252E33662057B7
:10F78600617474730A0D004D6178696D756D207230
:10F7960065636F72646564206469652074656D7065
:10F7A6006572617475726520697320252E33662033
:10F7B600430A0D004C6F61642068617320626565C1
:10F7C6006E20656E61626C65642C2064696D6D697E
:10F7D6006E672064697361626C65640A0D004C6F24
:10F7E600616420616E642064696D6D696E67206175
:10F7F60072652063757272656E746C7920646973C4
:10F8060061626C65640A0D0057696E646F776564A2
:10F8160020576174636820446F672054696D657270
:10F826002056696F6C6174696F6E205265736574DA
:10F83600005452494143206F757470757420646991
:10F846006D6D696E6720686173206265656E206400
:10F85600697361626C65640A0D004D65617375724A
:10F86600656D656E7420726573706F6E7365732057
:10F8760061707065617220696E206379616E0A0D30
:10F88600004E6F20636F6D6D756E69636174696F8D
:10F896006E73206572726F722873292064657465B1
:10F8A600637465640A0D0041565353206D65617398
:10F8B6007572656420617320252E336620566F6C41
:10F8C6007473206279204144430A0D002B332E3392
:10F8D60056207261696C206D65617375726564206E
:10F8E6006173202B252E336620566F6C74730A0DB8
:10F8F6000044696D6D696E67206861732062656595
:10F906006E2073657420746F2025642070657263A1
:10F91600656E740A0D004469652054656D706572E4
:10F926006174757265206D656173757265642061B9
:10F936007320252E3366430A0D002B313256207272
:10F9460061696C206D6561737572656420617320F1
:10F956002B252E336620566F6C74730A0D004F7577
:10F96600747075742064696D6D696E672068617363
:10F97600206265656E20656E61626C65640A0D00C5
:10F98600436F6D6D756E69636174696F6E73206523
:10F9960072726F7228732920636C65617265640ADE
:10F9A6000D00524D53204F75747075742043757257
:10F9B60072656E7420697320252E33662041726D40
:10F9C600730A0D00524D53204F757470757420568E
:10F9D6006F6C7461676520697320252E3366205627
:10F9E600726D730A0D0048656C70205072696D6106
:10F9F6007279204D6561737572656D656E7420430D
:10FA06006F6D6D616E64730048656C702044657639
:10FA1600696365204D6561737572656D656E7420E9
:10FA2600436F6D6D616E6473004D656173757265CC
:10FA3600642043757272656E7420697320252E33B7
:10FA46006620416D70730A0D0044696D6D696E67BD
:10FA56002069732063757272656E746C7920656EA9
:10FA660061626C65640A0D002020202055534220F7
:10FA76005541525420287468697320696E74657202
:10FA8600666163650A0D0044726577204D61617495
:10FA96006D616E20616E6420476162652054686105
:10FAA6006C6A690A0D005573657220696E7075740B
:10FAB600206170706561727320696E207768697461
:10FAC600650A0D004C6F616420697320637572725C
:10FAD600656E746C792064697361626C65640A0D85
:10FAE6000048656C702044657669636520436F6ED7
:10FAF60074726F6C20436F6D6D616E647300486540
:10FB06006C70204F757470757420436F6E74726FCD
:10FB16006C20436F6D6D616E6473004D617271751B
:10FB26006574746520556E6976657273697479209B
:10FB3600454543450A0D004C6F6164206973206397
:10FB4600757272656E746C7920656E61626C65643F
:10FB56000A0D00524553455420496E7374727563FD
:10FB660074696F6E204578656375746564004E6FC1
:10FB760020414443206572726F72287329206465A0
:10FB86007465637465640A0D004D6561737572650D
:10FB96002044657465637465642043757272656E8E
:10FBA600743F00414443206572726F7228732920A6
:10FBB6006465746563746564210A0D004C6F616445
:10FBC60020686173206265656E2064697361626C8A
:10FBD60065640A0D005365742044696D6D696E672E
:10FBE6002050657263656E746167653A2000202057
:10FBF600202047656E6572616C2041444320657222
:10FC0600726F720A0D00202020204F4C454420447C
:10FC16006973706C6179204932430A0D004144438F
:10FC2600204572726F7228732920636C6561726554
:10FC3600640A0D00537461636B20556E64657266C9
:10FC46006C6F7720526573657400537461636B2023
:10FC56004F766572666C6F77205265736574004DDA
:10FC660065617375726520524D5320566F6C7461D1
:10FC760067653F004D65617375726520524D53206F
:10FC860043757272656E743F004D617820504F5314
:10FC960033503320566F6C746167653F004D617356
:10FCA60074657220436C65617220526573657400D9
:10FCB6004D617820504F53313220566F6C74616716
:10FCC600653F004D65617375726520446965205412
:10FCD600656D703F00436C65617220436F6D6D20EA
:10FCE6004572726F727300303132333435363738BD
:10FCF6003941424344454600414320506F7765727F
:10FD0600204D657465720A0D0044696D6D696E67F4
:10FD160020456E61626C65643F004D6178204656F1
:10FD26005220566F6C746167653F004D61782052B2
:10FD36004D532043757272656E743F00456E616265
:10FD46006C652044696D6D696E67205900436C656A
:10FD56006172204D61782056616C75657300436C45
:10FD660065617220414443204572726F727300557B
:10FD76006E646566696E65642052657365740042DB
:10FD8600726F776E204F7574205265736574004DDF
:10FD960065617375726520504F533350333F00448D
:10FDA6006576696365204F6E2054696D653F004333
:10FDB60061757365206F662052657365743F004DEB
:10FDC60065617375726520456E657267793F00449B
:10FDD600697361626C652044696D6D696E67005078
:10FDE6006F776572204F6E20526573657400202010
:10FDF60020204469652054656D700A0D004D6561CB
:10FE06007375726520504F5331323F004D656173F3
:10FE160075726520506F7765723F00456E61626C42
:10FE2600652044696D6D696E6700414320506F77A8
:10FE36006572204D65746572004D656173757265F6
:10FE460020415653533F004C6F616420456E6162FA
:10FE56006C65643F004C6F6164204F6E2054696D81
:10FE6600653F004D6178204469652054656D703F9B
:10FE76000050494331384C4636374B343000202049
:10FE86002020504F533350330A0D0050534F4373C5
:10FE9600205355434B0A0D005265766973696F6EA0
:10FEA6002049443F004D6561737572652046565280
:10FEB6003F00436F6D6D204572726F72733F004451
:10FEC600697361626C65204C6F616400436C6561A7
:10FED6007220456E657267790044726577204D61C0
:10FEE60061746D616E0050494331384636374B3484
:10FEF600300020202020504F5331320A0D0041445B
:10FF060043204572726F72733F00456E61626C6585
:10FF1600204C6F61640047616265205468616C6AB9
:10FF26006900256C752E25362E366C75002020202E
:10FF36002049534E530A0D0020202020415653538A
:10FF46000A0D004465766963652049443F004D61AA
:10FF56007820506F7765723F004561737465722033
:10FF660045676700556E646566696E6564002020A6
:10FF760020204656520A0D00557365722049447377
:10FF86003F00454C454E20333033350048656C7094
:10FF960020416C6C00286E756C6C29002A49444E11
:10FFA6003F00436C6561720048656C70001B5B32F4
:10FFB6004A0049444E001B5B48001B5B73001B5BF9
:10FFC60075001B5B4B003330003331003431003396
:10FFD60032003432003333003433003334003434E7
:10FFE60000343500333600343600333700343700FA
:0AFFF6001B5B0038003B006D0000AB
:020000040001F9
:10000000BFC117F1C0C118F17F0E0101196FFD0EBC
:100010001A6F9FECD1F0010117511811D8A426D006
:10002000F6C01BF1F7C01CF1F8C01DF1F9C01EF1BC
:10003000630EF66ECF0EF76E000EF86E0900F5CF68
:100040001FF10A00F5CF20F1C7ECD1F0B30E01018A
:10005000AC6FFF0EAD6F95ECD4F0BC0E0101AC6F30
:10006000FF0EAD6F95ECD4F0FF001200BFC117F189
:10007000C0C118F1A80E0101196FFF0E1A6F9FEC95
:10008000D1F0010117511811D8A40ED0B30EAC6FE6
:10009000FF0EAD6F95ECD4F0BC0E0101AC6FFF0EFE
:1000A000AD6F95ECD4F01200BFC117F1C0C118F1CB
:1000B000B50E0101196FFD0E1A6F9FECD1F0010111
:1000C00017511811D8A419D0000EBD6F000EBE6FC5
:1000D000020E30ECAAF0A80E0101AC6FF50EAD6F68
:1000E0000201F5511CECD6F017C1AEF118C1AFF109
:1000F00095ECD4F04BECD8F01200BFC117F1C0C1A1
:1001000018F1A20E0101196FFF0E1A6F9FECD1F0CA
:10011000010117511811D8B40FD0BFC117F1C0C1D8
:1001200018F1B80E196FFF0E1A6F9FECD1F0010194
:1001300017511811D8A418D0000EBD6F000EBE6F55
:10014000020E30ECAAF0FE0E0101AC6FFC0EAD6F9A
:1001500095ECD4F0A60E0101AC6FF60EAD6F95ECE8
:10016000D4F04BECD8F01200BFC117F1C0C118F1A8
:10017000490E0101196FFF0E1A6F9FECD1F00101BA
:1001800017511811D8A423D0000EBD6F000EBE6FFA
:10019000020E30ECAAF0BB0E0101AC6FF00EAD6F99
:1001A00071ECD7F022C1AEF123C1AFF171ECD7F001
:1001B00022C124F123C125F19BECD0F024C1B0F180
:1001C00025C1B1F195ECD4F04BECD8F01200BFC1D1
:1001D00017F1C0C118F19E0E0101196FFE0E1A6FC2
:1001E0009FECD1F0010117511811D8A422D0000EB4
:1001F000BD6F000EBE6F020E30ECAAF0DA0E0101E8
:10020000AC6FF20EAD6F77ECD4F00101C16F410E0F
:10021000C125AE6FAF6B000EAF23CCECD6F0010161
:10022000C26FC251B06FB16B95ECD4F04BECD8F00B
:100230001200BFC117F1C0C118F17E0E0101196F84
:10024000FF0E1A6F9FECD1F0010117511811D8A4BD
:100250003ED0000EBD6F000EBE6F020E30ECAAF055
:10026000E10E0101AC6FF10EAD6F95ECD4F0000E14
:100270000201C76F000EC66FC7BF06D0C75124E189
:10028000080EC65DD8B020D0690E0101AC6FF40E27
:10029000AD6FC6C2AEF1C7C2AFF1D8900201C6358C
:1002A0000101B06F0201C7350101B16F0201C651F2
:1002B000B5ECD3F022C1B2F123C1B3F195ECD4F087
:1002C0000201C64BC72BD8D74BECD8F01200BFC1E8
:1002D00017F1C0C118F1040E0101196FFF0E1A6F5A
:1002E0009FECD1F0010117511811D8A48CD0B5ECB6
:1002F000D5F00009D8B475D0000E0101BD6F000E15
:10030000BE6F010E30ECAAF0A90E0101AC6FFB0E1E
:10031000AD6F95ECD4F0D50E0101AC6FF60EAD6F5C
:1003200095ECD4F002010651D8B407D0F40E0101C7
:10033000AC6FFB0EAD6F95ECD4F002010351D8B455
:1003400007D03E0E0101AC6FFF0EAD6F95ECD4F0FF
:1003500002010551D8B407D0740E0101AC6FFF0E35
:10036000AD6F95ECD4F002010051D8B407D0330E34
:100370000101AC6FFF0EAD6F95ECD4F0020101519D
:10038000D8B407D0F80E0101AC6FFE0EAD6F95EC3E
:10039000D4F002010251D8B407D0840E0101AC6F31
:1003A000FE0EAD6F95ECD4F002010451D8B407D025
:1003B000F40E0101AC6FFD0EAD6F95ECD4F0000EA4
:1003C0000101BD6F000EBE6F030E30ECAAF0760E79
:1003D0000101AC6FF60EAD6F95ECD4F04BECD8F09C
:1003E0001200000E0101BD6F000EBE6F020E30EC58
:1003F000AAF0740E0101AC6FFB0EAD6F95ECD4F05A
:100400004BECD8F01200BFC117F1C0C118F1640E57
:100410000101196FFD0E1A6F9FECD1F00101175108
:100420001811D8A414D04FECD7F0000E0101BD6F05
:10043000000EBE6F020E30ECAAF0230E0101AC6F6D
:10044000FC0EAD6F95ECD4F04BECD8F01200BFC1B0
:1004500017F1C0C118F1B80E0101196FFE0E1A6F25
:100460009FECD1F0010117511811D8A44ED022EC05
:10047000D8F00009D8B437D0000E0101BD6F000ECE
:10048000BE6F010E30ECAAF0A00E0101AC6FF10EB0
:10049000AD6F95ECD4F002010751D8B407D00C0E23
:1004A0000101AC6FFC0EAD6F95ECD4F00201085168
:1004B000D8B407D06E0E0101AC6FFA0EAD6F95EC9B
:1004C000D4F0000E0101BD6F000EBE6F030E30ECC4
:1004D000AAF09E0E0101AC6FF20EAD6F95ECD4F058
:1004E0004BECD8F01200000E0101BD6F000EBE6F84
:1004F000020E30ECAAF0870E0101AC6FF80EAD6F62
:1005000095ECD4F04BECD8F01200BFC117F1C0C18C
:1005100018F1DB0E0101196FFC0E1A6F9FECD1F080
:10052000010117511811D8A414D07DECD8F0000E99
:100530000101BD6F000EBE6F020E30ECAAF0860EF8
:100540000101AC6FF90EAD6F95ECD4F04BECD8F027
:100550001200BFC117F1C0C118F1950E0101196F4A
:10056000FD0E1A6F9FECD1F0010117511811D8A49C
:1005700019D0000EBD6F000EBE6F060E30ECAAF053
:10058000D20E0101AC6FF80EAD6FDAC1AEF1DBC176
:10059000AFF1DCC1B0F1DDC1B1F195ECD4F04BECC1
:1005A000D8F01200BFC117F1C0C118F1030E01014C
:1005B000196FFE0E1A6F9FECD1F00101175118113F
:1005C000D8A419D0000EBD6F000EBE6F060E30EC21
:1005D000AAF0400E0101AC6FF90EAD6FD6C1AEF1BD
:1005E000D7C1AFF1D8C1B0F1D9C1B1F195ECD4F018
:1005F0004BECD8F01200BFC117F1C0C118F1C90E01
:100600000101196FFC0E1A6F9FECD1F00101175117
:100610001811D8A419D0000EBD6F000EBE6F060EC3
:1006200030ECAAF01C0E0101AC6FF90EAD6FD2C117
:10063000AEF1D3C1AFF1D4C1B0F1D5C1B1F195ECF8
:10064000D4F04BECD8F01200BFC117F1C0C118F1C3
:10065000AB0E0101196FFE0E1A6F9FECD1F0010174
:1006600017511811D8A419D0000EBD6F000EBE6F1F
:10067000060E30ECAAF08A0E0101AC6FF30EAD6FDE
:10068000E2C1AEF1E3C1AFF1E4C1B0F1E5C1B1F156
:1006900095ECD4F04BECD8F01200BFC117F1C0C1FB
:1006A00018F13F0E0101196FFE0E1A6F9FECD1F089
:1006B000010117511811D8A419D0000EBD6F000EFA
:1006C000BE6F060E30ECAAF0AD0E0101AC6FF80E55
:1006D000AD6F40C2AEF141C2AFF142C2B0F143C210
:1006E000B1F195ECD4F04BECD8F01200BFC117F18A
:1006F000C0C118F18F0E0101196FFB0E1A6F9FEC2C
:10070000D1F0010117511811D8A419D0000EBD6FF6
:10071000000EBE6F060E30ECAAF02F0E0101AC6F7A
:10072000FA0EAD6F34C2AEF135C2AFF136C2B0F1E0
:1007300037C2B1F195ECD4F04BECD8F01200BFC148
:1007400017F1C0C118F17A0E0101196FFC0E1A6F72
:100750009FECD1F0010117511811D8A419D0000E47
:10076000BD6F000EBE6F060E30ECAAF0A80E0101A0
:10077000AC6FF90EAD6FCAC1AEF1CBC1AFF1CCC158
:10078000B0F1CDC1B1F195ECD4F04BECD8F0120042
:10079000BFC117F1C0C118F1650E0101196FFC0E40
:1007A0001A6F9FECD1F0010117511811D8A419D07C
:1007B000000EBD6F000EBE6F060E30ECAAF0CA0E22
:1007C0000101AC6FF90EAD6F30C2AEF131C2AFF1C5
:1007D00032C2B0F133C2B1F195ECD4F04BECD8F0A9
:1007E0001200BFC117F1C0C118F1120E0101196F3B
:1007F000FE0E1A6F9FECD1F0010117511811D8A409
:1008000019D0000EBD6F000EBE6F060E30ECAAF0C0
:10081000C40E0101AC6FF30EAD6FC6C1AEF1C7C11E
:10082000AFF1C8C1B0F1C9C1B1F195ECD4F04BEC56
:10083000D8F01200BFC117F1C0C118F1C50E0101F7
:10084000196FFD0E1A6F9FECD1F0010117511811AD
:10085000D8A419D0000EBD6F000EBE6F060E30EC8E
:10086000AAF0100E0101AC6FF10EAD6FF6C0AEF143
:10087000F7C0AFF1F8C0B0F1F9C0B1F195ECD4F028
:100880004BECD8F01200BFC117F1C0C118F1D20E65
:100890000101196FFE0E1A6F9FECD1F00101175183
:1008A0001811D8A432D0000E0001F66F000EF76FB9
:1008B000000EF86F000EF96F000E01011B6F000EA5
:1008C0001C6F000E1D6F000E1E6F630EF66ECF0EB6
:1008D000F76E000EF86E0900F5CF1FF10A00F5CF94
:1008E00020F1C7ECD1F0000E0101BD6F000EBE6F0C
:1008F000010E30ECAAF0150E0101AC6FF30EAD6FD6
:1009000095ECD4F04BECD8F01200BFC117F1C0C188
:1009100018F1210E0101196FFE0E1A6F9FECD1F034
:10092000010117511811D8A446D0010EBD6F020E57
:10093000BE6F000E30ECAAF02D0E0101AC6FEF0E71
:10094000AD6F95ECD4F04BECD8F065ECD8F0010E1F
:100950000101BD6F020EBE6F000E30ECAAF0960EC4
:100960000101AC6FEF0EAD6F95ECD4F04BECD8F00D
:1009700065ECD8F0030E0101BD6F000EBE6F000ED6
:1009800030ECAAF0740E0101AC6FF50EAD6F95EC72
:10099000D4F0000E0101BD6F000EBE6F030E30ECEF
:1009A000AAF0D50E0101AC6FF40EAD6F95ECD4F04A
:1009B0004BECD8F01200BFC117F1C0C118F1420EC4
:1009C0000101196FFD0E1A6F9FECD1F00101175153
:1009D0001811D8A415D07F900E012981000E0101B5
:1009E000BD6F000EBE6F020E30ECAAF0640E010166
:1009F000AC6FF90EAD6F95ECD4F04BECD8F0120063
:100A0000BFC117F1C0C118F1D50E0101196FFD0E5C
:100A10001A6F9FECD1F0010117511811D8A417D00B
:100A20007F800E012991EFECD8F0000E0101BD6F1F
:100A3000000EBE6F010E30ECAAF0370E0101AC6F54
:100A4000F80EAD6F95ECD4F04BECD8F01200BFC1AE
:100A500017F1C0C118F1100E0101196FFF0E1A6FC6
:100A60009FECD1F0010117511811D8A414D07F8048
:100A70007F925E80000EBD6F000EBE6F020E30ECE6
:100A8000AAF0BA0E0101AC6FF70EAD6F95ECD4F081
:100A90004BECD8F01200BFC117F1C0C118F14D0ED8
:100AA0000101196FFE0E1A6F9FECD1F00101175171
:100AB0001811D8A425D05EA011D0000EBD6F000E75
:100AC000BE6F020E30ECAAF03D0E0101AC6FFB0EC2
:100AD000AD6F95ECD4F04BECD8F01200000E010194
:100AE000BD6F000EBE6F010E30ECAAF0CA0E010100
:100AF000AC6FFA0EAD6F95ECD4F04BECD8F0120061
:100B0000BFC117F1C0C118F10F0E0101196FFD0E21
:100B10001A6F9FECD1F0010117511811D8A439D0E8
:100B20005EB07FB011D0000EBD6F000EBE6F020E22
:100B300030ECAAF04F0E0101AC6FFA0EAD6F95ECE0
:100B4000D4F04BECD8F012005EA011D0000EBD6FB7
:100B5000000EBE6F030E30ECAAF00A0E0101AC6F5E
:100B6000F50EAD6F95ECD4F04BECD8F01200000E02
:100B70000101BD6F000EBE6F010E30ECAAF0E40E55
:100B80000101AC6FF70EAD6F95ECD4F04BECD8F0E3
:100B90001200BFC117F1C0C118F1C50E0101196FD4
:100BA000FE0E1A6F9FECD1F0010117511811D8A455
:100BB00014D07F927F905E90000EBD6F000EBE6FCE
:100BC000010E30ECAAF0C20E0101AC6FFB0EAD6F4E
:100BD00095ECD4F04BECD8F01200BFC126F1C0C1A7
:100BE00027F1DB0E0101286FFB0E296FA1ECCCF081
:100BF000010126512711D8B427D1000E0201C36F7D
:100C0000000EC26FC3BF06D0C3511FE1030EC25D09
:100C1000D8B01BD0180EC2250101C16F000E020111
:100C2000C3210101C26FC151BF25D96EC251C0217C
:100C3000DA6EA30E0201C225E16E020EC321E26E3E
:100C4000DFCFE7FFC24BC32BDDD7A30E01011D6F22
:100C5000020E1E6FE6ECC9F01DC1C4F21EC1C5F242
:100C60000201C5BF06D0C5510BE1640EC45DD8B00A
:100C700007D0C5BF05D0C5512BE1C405D8B028D0D9
:100C8000000E0101BD6F000EBE6F010E30ECAAF028
:100C9000650E0101AC6FF00EAD6F95ECD4F0000E57
:100CA0000101BD6F000EBE6F030E30ECAAF0FF0E07
:100CB0000101AC6FEF0EAD6F95ECD4F0310E010178
:100CC000AC6FF70EAD6F95ECD4F04BECD8F0120092
:100CD000000E0101416F000E426FC80E436F420EBD
:100CE000446F000E2D6F000E2E6FC80E2F6F420E38
:100CF000306FC4C217F1C5C218F1000E18BFFF0E45
:100D0000196F1A6F010EE4ECC0F017C125F118C17C
:100D100026F119C127F11AC128F134ECD6F025C10A
:100D200029F126C12AF127C12BF128C12CF135EC7C
:100D3000AFF029C13DF12AC13EF12BC13FF12CC1D9
:100D400040F139ECB8F03DC156F13EC157F13FC119
:100D500058F140C159F1DB0E01015A6F0F0E5B6F64
:100D6000490E5C6F400E5D6FE4ECABF056C1F2F0E3
:100D700057C1F3F058C1F4F059C1F5F0F2C056F183
:100D8000F3C057F1F4C058F1F5C059F1E10E01017B
:100D90005A6F2E0E5B6F650E5C6F420E5D6FE4EC5A
:100DA000ABF056C1A6F257C1A7F258C1A8F259C17B
:100DB000A9F2C4C217F1C5C218F1020E01011A6FDF
:100DC0008F0E196F90ECD6F017C1F0F018C1F1F04A
:100DD000000E0101BD6F000EBE6F020E30ECAAF0D6
:100DE000F70E0101AC6FF80EAD6FC4C2AEF1C5C213
:100DF000AFF195ECD4F0210E0101AC6FF20EAD6FA6
:100E0000F2C0AEF1F3C0AFF1F4C0B0F1F5C0B1F192
:100E1000A6C2B2F1A7C2B3F1A8C2B4F1A9C2B5F19A
:100E200095ECD4F0590E0101AC6FF10EAD6FF0C02E
:100E3000AEF1F1C0AFF1F0C0B0F1F1C0B1F195EC9D
:100E4000D4F04BECD8F01200BFC117F1C0C118F1BB
:100E5000A50E0101196FFD0E1A6F9FECD1F0010173
:100E600017511811D8A419D0000EBD6F000EBE6F17
:100E7000020E30ECAAF0500E0101AC6FF30EAD6F14
:100E80002CC2AEF12DC2AFF12EC2B0F12FC2B1F122
:100E900095ECD4F04BECD8F01200BFC117F1C0C1F3
:100EA00018F15B0E0101196FFE0E1A6F9FECD1F065
:100EB000010117511811D8A419D0000EBD6F000EF2
:100EC000BE6F020E30ECAAF03F0E0101AC6FF50EC2
:100ED000AD6F28C2AEF129C2AFF12AC2B0F12BC268
:100EE000B1F195ECD4F04BECD8F01200BFC117F182
:100EF000C0C118F1310E0101196FFD0E1A6F9FEC80
:100F0000D1F0010117511811D8A430D0610EF66E3E
:100F1000CF0EF76E000EF86E0900F5CF19F10A003A
:100F2000F5CF1AF14DECD1F019C1AAF21AC1ABF20A
:100F30001BC1ACF21CC1ADF2000E0101BD6F000E71
:100F4000BE6F060E30ECAAF0100E0101AC6FF60E6B
:100F5000AD6FAAC2AEF1ABC2AFF1ACC2B0F1ADC2DF
:100F6000B1F195ECD4F04BECD8F01200BFC117F101
:100F7000C0C118F1540E0101196FFF0E1A6F9FECDA
:100F8000D1F0010117511811D8A430D05F0EF66EC0
:100F9000CF0EF76E000EF86E0900F5CF19F10A00BA
:100FA000F5CF1AF14DECD1F019C1AEF21AC1AFF282
:100FB0001BC1B0F21CC1B1F2000E0101BD6F000EE9
:100FC000BE6F060E30ECAAF05F0E0101AC6FF70E9B
:100FD000AD6FAEC2AEF1AFC2AFF1B0C2B0F1B1C24F
:100FE000B1F195ECD4F04BECD8F01200BFC117F181
:100FF000C0C118F18F0E0101196FFC0E1A6F9FEC22
:10100000D1F0010117511811D8A430D05D0EF66E41
:10101000CF0EF76E000EF86E0900F5CF19F10A0039
:10102000F5CF1AF14DECD1F019C1B2F21AC1B3F2F9
:101030001BC1B4F21CC1B5F2000E0101BD6F000E60
:10104000BE6F060E30ECAAF0DC0E0101AC6FF50E9F
:10105000AD6FB2C2AEF1B3C2AFF1B4C2B0F1B5C2BE
:10106000B1F195ECD4F04BECD8F01200BFC117F100
:10107000C0C118F1B60E0101196FFC0E1A6F9FEC7A
:10108000D1F0010117511811D8A430D05B0EF66EC3
:10109000CF0EF76E000EF86E0900F5CF19F10A00B9
:1010A000F5CF1AF14DECD1F019C1B6F21AC1B7F271
:1010B0001BC1B8F21CC1B9F2000E0101BD6F000ED8
:1010C000BE6F060E30ECAAF0430E0101AC6FF60EB7
:1010D000AD6FB6C2AEF1B7C2AFF1B8C2B0F1B9C22E
:1010E000B1F195ECD4F04BECD8F01200BFC117F180
:1010F000C0C118F1690E0101196FFE0E1A6F9FEC45
:10110000D1F0010117511811D8A430D0590EF66E44
:10111000CF0EF76E000EF86E0900F5CF19F10A0038
:10112000F5CF1AF14DECD1F019C1BAF21AC1BBF2E8
:101130001BC1BCF21CC1BDF2000E0101BD6F000E4F
:10114000BE6F060E30ECAAF08D0E0101AC6FF70EEB
:10115000AD6FBAC2AEF1BBC2AFF1BCC2B0F1BDC29D
:10116000B1F195ECD4F04BECD8F01200BFC117F1FF
:10117000C0C118F1200E0101196FFD0E1A6F9FEC0E
:10118000D1F0010117511811D8A430D0570EF66EC6
:10119000CF0EF76E000EF86E0900F5CF19F10A00B8
:1011A000F5CF1AF14DECD1F019C1BEF21AC1BFF260
:1011B0001BC1C0F21CC1C1F2000E0101BD6F000EC7
:1011C000BE6F060E30ECAAF09F0E0101AC6FF40E5C
:1011D000AD6FBEC2AEF1BFC2AFF1C0C2B0F1C1C20D
:1011E000B1F195ECD4F04BECD8F01200BFC117F17F
:1011F000C0C118F1530E0101196FFD0E1A6F9FEC5B
:10120000D1F0010117511811D8A4CCD0000E1B6FDA
:10121000000E1C6F000E1D6F000E1E6F610EF66E2D
:10122000CF0EF76E000EF86E0900F5CF1FF10A0021
:10123000F5CF20F1C7ECD1F0000E01011B6F000EBD
:101240001C6F000E1D6F000E1E6F5F0EF66ECF0E30
:10125000F76E000EF86E0900F5CF1FF10A00F5CF0A
:1012600020F1C7ECD1F0000E01011B6F000E1C6FC6
:10127000000E1D6F000E1E6F5D0EF66ECF0EF76E28
:10128000000EF86E0900F5CF1FF10A00F5CF20F12E
:10129000C7ECD1F0000E01011B6F000E1C6F000E99
:1012A0001D6F000E1E6F5B0EF66ECF0EF76E000EFA
:1012B000F86E0900F5CF1FF10A00F5CF20F1C7EC59
:1012C000D1F0000E01011B6F000E1C6F000E1D6F90
:1012D000000E1E6F590EF66ECF0EF76E000EF86EF2
:1012E0000900F5CF1FF10A00F5CF20F1C7ECD1F0CE
:1012F000000E01011B6F000E1C6F000E1D6F000E13
:101300001E6F570EF66ECF0EF76E000EF86E0900C8
:10131000F5CF1FF10A00F5CF20F1C7ECD1F0000E98
:101320000201246F000E256F000E266F000E276F3E
:10133000000E206F000E216F000E226F000E236F33
:10134000000E1C6F000E1D6F000E1E6F000E1F6F33
:10135000000E186F000E196F000E1A6F000E1B6F33
:10136000000E146F000E156F000E166F000E176F33
:10137000000E106F000E116F000E126F000E136F33
:10138000000E0101BD6F000EBE6F020E30ECAAF020
:10139000330E0101AC6FF40EAD6F95ECD4F04BEC55
:1013A000D8F01200BFC117F1C0C118F1E70E01015A
:1013B000196FFA0E1A6F9FECD1F001011751181135
:1013C000D8A411D0000EBD6F000EBE6F030E30EC1E
:1013D000AAF0C30E0101AC6FDE0EAD6F95ECD4F038
:1013E0004BECD8F01200BFC117F1C0C118F10E0EBE
:1013F0000101196FFA0E1A6F9FECD1F0010117511C
:101400001811D8A411D0000EBD6F000EBE6F030ED0
:1014100030ECAAF07D0E0101AC6FE50EAD6F95ECDE
:10142000D4F04BECD8F01200BFC117F1C0C118F1D5
:10143000EC0E0101196FF90E1A6F9FECD1F001014A
:1014400017511811D8A411D0000EBD6F000EBE6F39
:10145000030E30ECAAF0910E0101AC6FE20EAD6FFD
:1014600095ECD4F04BECD8F01200BFC117F1C0C11D
:1014700018F1040E0101196FFB0E1A6F9FECD1F0E9
:10148000010117511811D8A411D0000EBD6F000E24
:10149000BE6F030E30ECAAF04D0E0101AC6FE80EEA
:1014A000AD6F95ECD4F04BECD8F01200BFC117F142
:1014B000C0C118F1920E0101196FFF0E1A6F9FEC57
:1014C000D1F0010117511811D8A411D0000EBD6F31
:1014D000000EBE6F030E30ECAAF0B50E0101AC6F2A
:1014E000D20EAD6F95ECD4F04BECD8F01200BFC12A
:1014F00017F1C0C118F1AE0E0101196FFF0E1A6F7E
:101500009FECD1F0010117511811D8A450D0000E52
:10151000BD6F000EBE6F030E30ECAAF0390E010154
:10152000AC6FEA0EAD6F95ECD4F065ECD8F0FC0E24
:101530000101AC6FF30EAD6F95ECD4F0000E01011C
:10154000BD6F000EBE6F020E30ECAAF0600E0101FE
:10155000AC6FF20EAD6F95ECD4F0000E0101BD6FD3
:10156000000EBE6F060E30ECAAF0600E0101AC6FEB
:10157000F80EAD6F95ECD4F0000E0101BD6F000EBA
:10158000BE6F010E30ECAAF0030E0101AC6FF70E36
:10159000AD6F95ECD4F04BECD8F0AC0E0101AC6F14
:1015A000FA0EAD6F95ECD4F065ECD8F01200BFC127
:1015B00017F1C0C118F15F0E0101196FFF0E1A6F0C
:1015C0009FECD1F0010117511811D8A4120065EC5D
:1015D000D8F0000E0101BD6F000EBE6F010E30ECA1
:1015E000AAF00F0E0101AC6FEC0EAD6F95ECD4F0CC
:1015F00065ECD8F0040E0101BD6F000EBE6F030E46
:1016000030ECAAF0210E0101AC6FFB0EAD6F95EC32
:10161000D4F0000E0101BD6F000EBE6F020E30EC63
:10162000AAF0BB0E0101AC6FF60EAD6F95ECD4F0D5
:101630008D0E0101AC6FFA0EAD6F95ECD4F0000E7B
:101640000101BD6F010EBE6F030E30ECAAF0910ECA
:101650000101AC6FFE0EAD6F95ECD4F04BECD8F001
:1016600065ECD8F0120097EF95F0250E0101AB194B
:10167000D8B436D020EE02F08251D9268351DA2236
:10168000DE50DE10DE10D8B414D020EE02F082510D
:10169000D9268351DA2202D897EF95F00500FA6E29
:1016A000DE50FD6EDE50FE6EDE50FF6EFA50AB5126
:1016B000120082C1D9FF83C1DAFFDECF88F1DDCF0E
:1016C00089F188C1D9FF89C1DAFFABC1DFFF82C1CF
:1016D000D9FF83C1DAFFDE2A000EDD2297EF95F0F5
:1016E000000E0101A66F000EA56F000EA86F000E80
:1016F000A76F04D00101A785844B852B84C1F6FF19
:1017000085C1F7FF000EF86E0D0EF76403D00800D8
:10171000F55005D0F6CFE9FFF7CFEAFFEF50300ADA
:10172000D8B4E8D784C1F6FF85C1F7FF000EF86E84
:101730000D0EF76403D00800F55005D0F6CFE9FF91
:10174000F7CFEAFFEF5060ECD7F0D8A04CD0000EF6
:101750000101A66F000EA56FA5C117F1A6C118F172
:10176000000E01011A6F0A0E196F90ECD6F017C126
:10177000A5F118C1A6F1D00E0101886FFF0E896F87
:1017800084C1F6FF85C1F7FF000EF86E0D0EF764F9
:1017900003D00800F55005D0F6CFE9FFF7CFEAFFF8
:1017A000EF5001018A6F8B6B88518A2789518B23F7
:1017B0008A51A5278B51A623844B852B84C1F6FF24
:1017C00085C1F7FF000EF86E0D0EF76403D0080018
:1017D000F55005D0F6CFE9FFF7CFEAFFEF5060EC08
:1017E000D7F0D8B0B9D784C1F6FF85C1F7FF000E96
:1017F000F86E0D0EF76403D00800F55005D0F6CF53
:10180000E9FFF7CFEAFFEF502E0AD8A449D0010133
:10181000A88D844B852B000EAA6F000EA96F2AD0CD
:10182000A9C117F1AAC118F1000E01011A6F0A0E21
:10183000196F90ECD6F084C1F6FF85C1F7FF000E5A
:10184000F86E0D0EF76403D00800F55005D0F6CF02
:10185000E9FFF7CFEAFFEF500101886F88511727A2
:10186000000E1823D00E1725A96FFF0E1821AA6F9E
:10187000844B852B84C1F6FF85C1F7FF000EF86EFF
:101880000D0EF76403D00800F55005D0F6CFE9FF40
:10189000F7CFEAFFEF5060ECD7F0D8A02AD1C0D73D
:1018A000000E0101AA6F000EA96FA88922D1A78995
:1018B00020D1A88559D1A78F57D186C1D9FF87C11B
:1018C000DAFFDFCF88F1020EDE26DFCF89F1000ECE
:1018D000DD2288C1D9FF89C1DAFFDECF93F1DDCFE8
:1018E00094F193519411D8A404D09B0E936FFF0EE2
:1018F000946F000E966F000E956F03D00101954B0B
:10190000962B95519325886F96519421896F88C1A4
:10191000F6FF89C1F7FF000EF86E0D0EF76403D0D5
:101920000800F55005D0F6CFE9FFF7CFEAFFEF50FA
:101930000009D8A4E3D70101A951AA11D8B40AD04B
:101940009551A95D9651AA59D8B004D0A9C195F175
:10195000AAC196F1A551955DA6519659D8B005D06A
:101960009551A55F9651A65B38D0000EA66F000E6C
:10197000A56F33D020EE02F08251D9268351DA22AE
:10198000DE50DE10DE10D8B413D020EE02F082510B
:10199000D9268351DA2201D820D00500FA6EDE5014
:1019A000FD6EDE50FE6EDE50FF6EFA50200E12000D
:1019B00082C1D9FF83C1DAFFDECF88F1DDCF89F1A3
:1019C00088C1D9FF89C1DAFF200EDF6E82C1D9FF3D
:1019D00083C1DAFFDE2A000EDD220101A507D8A0AF
:1019E000A607A529C7E1A629D8B45BD0C3D720EEA6
:1019F00002F08251D9268351DA22DE50DE10DE1049
:101A0000D8B427D020EE02F08251D9268351DA22B1
:101A100001D81BD00500FA6EDE50FD6EDE50FE6E62
:101A2000DE50FF6EFA5093C1F6FF94C1F7FF000E2F
:101A3000F86E0D0EF76403D00800F55005D0F6CF10
:101A4000E9FFF7CFEAFFEF5012000101934B942B0F
:101A500028D093C1F6FF94C1F7FF000EF86E82C143
:101A6000D9FF83C1DAFFDECF88F1DDCF89F188C1EC
:101A7000D9FF89C1DAFF0D0EF76403D00800F550D5
:101A800005D0F6CFE9FFF7CFEAFFEF50DF6E010197
:101A9000934B942B82C1D9FF83C1DAFFDE2A000E5B
:101AA000DD229507D8A096079529A1E19629D8B4FB
:101AB00097EF95F09CD786C1D9FF87C1DAFFDFCFBA
:101AC00088F1020EDE26DFCF89F1000EDD2288C10B
:101AD000D9FF89C1DAFFDF50AB6FAB0E936F010EF8
:101AE000946F000E966F010E956F25D7C00EA71349
:101AF0003BD001018451886F8551896F844B852BC0
:101B000088C1F6FF89C1F7FF000EF86E0D0EF7646D
:101B100003D00800F55005D0F6CFE9FFF7CFEAFF74
:101B2000EF500101AB6FAB51000AD8B4B5EF95F09F
:101B3000580AD8B4C0D63B0AD8B4BDD7070AD8B41F
:101B400013D0020AD8B4B5D60F0AD8B40DD0050AFE
:101B5000D8B4ADD61F0AD8B4B0D6060AD8B4C6D702
:101B60000D0AD8B4A8D6B9D7070EA815D8B4ABEFCC
:101B700092F0A8A904D0000EAA6F060EA96F86C124
:101B8000D9FF87C1DAFFDFCF88F1040EDE26DFCF71
:101B900089F1000EDD2288C1D9FF89C1DAFFDECFCD
:101BA0009DF1DECF9EF1DECF9FF1DECFA0F1A0AFA1
:101BB00015D09DC125F19EC126F19FC127F1A0C17D
:101BC00028F134ECD6F025C19DF126C19EF127C144
:101BD0009FF128C1A0F1030E0101A713000E986F19
:101BE000000E976F9D519E119F11A011D8B484D003
:101BF0009F35A035820F976F986BFF0E982397073C
:101C0000D8A0980797C117F198C118F1000E1A6F64
:101C1000030E196F90ECD6F017C197F118C198F127
:101C200097C11DF198C11EF1000E0101206F0A0E2F
:101C30001F6F2BECCDF01DC197F11EC198F1010172
:101C400098AF03D09707D8A09807975100089EEC4B
:101C5000A5F06FC199F170C19AF171C19BF172C188
:101C60009CF199C156F19AC157F19BC158F19CC1A1
:101C700059F19DC15AF19EC15BF19FC15CF1A0C1B8
:101C80005DF1E4ECABF056C199F157C19AF158C13E
:101C90009BF159C19CF199C117F19AC118F19BC1EF
:101CA00019F19CC11AF1000E01011B6F000E1C6F8F
:101CB000800E1D6F3F0E1E6F5AECC6F00101D8B0AA
:101CC00004D09707D8A0980717D099C117F19AC1E7
:101CD00018F19BC119F19CC11AF1000E1B6F000E87
:101CE0001C6F200E1D6F410E1E6F5AECC6F00101D5
:101CF000D8A002D0974B982BAABF06D0AA5121E1B9
:101D00000D0EA95DD8B01DD09DC129F19EC12AF14B
:101D10009FC12BF1A0C12CF1A951D6ECB6F06FC137
:101D20002DF170C12EF171C12FF172C130F135EC7E
:101D3000AFF029C19DF12AC19EF12BC19FF12CC1A9
:101D4000A0F1010198BF06D0985122E10A0E975DDB
:101D5000D8B01ED09D519E119F11A011D8B462D051
:101D60009DC178F19EC179F19FC17AF1A0C17BF14B
:101D700008ECC9F00101785179117A117B11D8B4BE
:101D800098BF50D0985104E1020E975DD8A04AD078
:101D900099C117F19AC118F19BC119F19CC11AF1AF
:101DA0005F0E1B6F700E1C6F890E1D6F400E1E6F35
:101DB0005AECC6F00101D8B002D0F70E01D0F80EEF
:101DC0009727FF0E982397519EECA5F06FC199F1CC
:101DD00070C19AF171C19BF172C19CF19DC117F163
:101DE0009EC118F19FC119F1A0C11AF199C11BF14F
:101DF0009AC11CF19BC11DF19CC11EF19FECC4F066
:101E000017C1A1F118C1A2F119C1A3F11AC1A4F11E
:101E1000000E01019D6F000E9E6F000E9F6F000E61
:101E2000A06F3CD09DC178F19EC179F19FC17AF13C
:101E3000A0C17BF108ECC9F078C1A1F179C1A2F190
:101E40007AC1A3F17BC1A4F19DC13DF19EC13EF1D8
:101E50009FC13FF1A0C140F1A1C117F1A2C118F18A
:101E6000A3C119F1A4C11AF1000EE4ECC0F017C12E
:101E700041F118C142F119C143F11AC144F14AECD0
:101E8000D3F03DC19DF13EC19EF13FC19FF140C1E4
:101E9000A0F1000E0101986F000E976F010EAB6F5D
:101EA0000A0EAB19D8B41BD0AB51040D0F0EF3249E
:101EB000F66ECF0EF420F76EF86A000EF8220900D5
:101EC000F550A15D0900F550A2590900F550A3593C
:101ED0000900F550A459D8A002D0AB2BE1D7ABC173
:101EE00088F1896B88BF8907A9518827AA5189235E
:101EF00097518827985189238851A55F8951A65BFE
:101F0000A951AA11D8B403D0A507D8A0A607030EDB
:101F1000A715886F000EA815896F88518911D8B44C
:101F200003D0A507D8A0A607A7A5B6D0030EA7156E
:101F3000886F000EA815896F88518911D8B46CD0AC
:101F400020EE02F08251D9268351DA22DE50DE10D3
:101F5000DE10D8B413D020EE02F08251D92683517E
:101F6000DA2201D859D00500FA6EDE50FD6EDE503F
:101F7000FE6EDE50FF6EFA502D0E120082C1D9FFA8
:101F800083C1DAFFDECF88F1DDCF89F188C1D9FFC7
:101F900089C1DAFF2D0EDF6E82C1D9FF83C1DAFF5E
:101FA000DE2A000EDD2238D0010120EE02F082513F
:101FB000D9268351DA22DE50DE10DE10D8B413D0D9
:101FC00020EE02F08251D9268351DA2201D820D0A6
:101FD0000500FA6EDE50FD6EDE50FE6EDE50FF6EC6
:101FE000FA50300E120082C1D9FF83C1DAFFDECF72
:101FF00088F1DDCF89F188C1D9FF89C1DAFF300EC0
:10200000DF6E82C1D9FF83C1DAFFDE2A000EDD2236
:102010000101A507D8A0A6070101A6BFF6D0A651C9
:10202000C3E1A505D8A0F1D0BFD720EE02F08251C0
:10203000D9268351DA22DE50DE10DE10D8B413D058
:1020400020EE02F08251D9268351DA2201D820D025
:102050000500FA6EDE50FD6EDE50FE6EDE50FF6E45
:10206000FA50200E120082C1D9FF83C1DAFFDECF01
:1020700088F1DDCF89F188C1D9FF89C1DAFF200E4F
:10208000DF6E82C1D9FF83C1DAFFDE2A000EDD22B6
:102090000101A507D8A0A607A6BF05D0A651C5E196
:1020A000A505D8B0C2D7030EA715886F000EA815D6
:1020B000896F88518911D8B4A8D020EE02F08251DE
:1020C000D9268351DA22DE50DE10DE10D8B413D0C8
:1020D00020EE02F08251D9268351DA2201D895D020
:1020E0000500FA6EDE50FD6EDE50FE6EDE50FF6EB5
:1020F000FA502D0E120082C1D9FF83C1DAFFDECF64
:1021000088F1DDCF89F188C1D9FF89C1DAFF2D0EB1
:1021100074D0A1C117F1A2C118F1A3C119F1A4C1D2
:102120001AF10101AB51040D0F0EF324F66ECF0E20
:10213000F420F76EF86A000EF8220900F5CF1BF1C3
:102140000900F5CF1CF10900F5CF1DF10A00F5CF0C
:102150001EF16EECCDF017C199F118C19AF119C1B9
:102160009BF11AC19CF199C124F19AC125F19BC13F
:1021700026F19CC127F10A0E0101286F000E296F7C
:10218000000E2A6F000E2B6F00ECD0F024C199F1E5
:1021900025C19AF126C19BF127C19CF1010120EED6
:1021A00002F08251D9268351DA22DE50DE10DE1091
:1021B000D8B414D020EE02F08251D9268351DA220D
:1021C00001D823D00500FA6EDE50FD6EDE50FE6EA3
:1021D000DE50FF6EFA509951300F120001019951F3
:1021E000300F82C1D9FF83C1DAFFDECF88F1DDCFA6
:1021F00089F188C1D9FF89C1DAFFDF6E82C1D9FFB9
:1022000083C1DAFFDE2A000EDD220101AB07AB2914
:10221000D8B438D07ED720EE02F08251D92683512F
:10222000DA22DE50DE10DE10D8B413D020EE02F039
:102230008251D9268351DA2201D820D00500FA6EC6
:10224000DE50FD6EDE50FE6EDE50FF6EFA50300E38
:10225000120082C1D9FF83C1DAFFDECF88F1DDCF62
:1022600089F188C1D9FF89C1DAFF300EDF6E82C1E2
:10227000D9FF83C1DAFFDE2A000EDD2201019707B4
:10228000D8A0980798BF05D09851C5E19705D8B058
:10229000C2D7AABF09D0AA5104E1090EA95DD8A0EE
:1022A00003D0080EAB6F02D0A9C1ABF1AB51A95F4F
:1022B000000EABBFFF0EAA5BAB51D8B433D020EEFB
:1022C00002F08251D9268351DA22DE50DE10DE1070
:1022D000D8B413D020EE02F08251D9268351DA22ED
:1022E00001D820D00500FA6EDE50FD6EDE50FE6E85
:1022F000DE50FF6EFA502E0E120082C1D9FF83C14C
:10230000DAFFDECF88F1DDCF89F188C1D9FF89C13D
:10231000DAFF2E0EDF6E82C1D9FF83C1DAFFDE2A1B
:10232000000EDD220101AB519EECA5F06FC18EF1D4
:1023300070C18FF171C190F172C191F19DC15AF1DB
:102340009EC15BF19FC15CF1A0C15DF18EC156F1F0
:102350008FC157F190C158F191C159F1E4ECABF044
:1023600056C178F157C179F158C17AF159C17BF161
:1023700008ECC9F078C1A1F179C1A2F17AC1A3F149
:102380007BC1A4F1A6D0A1C117F1A2C118F1A3C1CC
:1023900019F1A4C11AF10101AB51040D0F0EF32480
:1023A000F66ECF0EF420F76EF86A000EF8220900E0
:1023B000F5CF1BF10900F5CF1CF10900F5CF1DF198
:1023C0000A00F5CF1EF16EECCDF017C199F118C1DE
:1023D0009AF119C19BF11AC19CF199C124F19AC1DA
:1023E00025F19BC126F19CC127F10A0E0101286F3E
:1023F000000E296F000E2A6F000E2B6F00ECD0F03C
:1024000024C199F125C19AF126C19BF127C19CF104
:10241000010120EE02F08251D9268351DA22DE50EA
:10242000DE10DE10D8B414D020EE02F08251D9268E
:102430008351DA2201D823D00500FA6EDE50FD6EFA
:10244000DE50FE6EDE50FF6EFA509951300F1200D2
:1024500001019951300F82C1D9FF83C1DAFFDECF6C
:1024600088F1DDCF89F188C1D9FF89C1DAFFDF6E3C
:1024700082C1D9FF83C1DAFFDE2A000EDD22A1C1AD
:1024800024F1A2C125F1A3C126F1A4C127F10101C4
:10249000AB51040D0F0EF324F66ECF0EF420F76E41
:1024A000F86A000EF8220900F5CF28F10900F5CFEF
:1024B00029F10900F5CF2AF10A00F5CF2BF100EC44
:1024C000D0F024C1A1F125C1A2F126C1A3F127C1F9
:1024D000A4F10101AB07AB29D8B438D054D720EE12
:1024E00002F08251D9268351DA22DE50DE10DE104E
:1024F000D8B413D020EE02F08251D9268351DA22CB
:1025000001D820D00500FA6EDE50FD6EDE50FE6E62
:10251000DE50FF6EFA50300E120082C1D9FF83C127
:10252000DAFFDECF88F1DDCF89F188C1D9FF89C11B
:10253000DAFF300EDF6E82C1D9FF83C1DAFFDE2AF7
:10254000000EDD220101A907D8A0AA07A951AA11EE
:10255000D8B4EDD2C4D7C00EA715886F000EA81549
:10256000896F88518911D8A441D0A7A919D086C1F3
:10257000D9FF87C1DAFFDFCF88F1040EDE26DFCF77
:1025800089F1000EDD2288C1D9FF89C1DAFFDECFD3
:10259000A1F1DECFA2F1DECFA3F1DECFA4F119D0FD
:1025A00086C1D9FF87C1DAFFDFCF88F1020EDE26B0
:1025B000DFCF89F1000EDD2288C1D9FF89C1DAFFA2
:1025C000DECFA1F1DDCFA2F1000EA2BFFF0EA36FFF
:1025D000A46FA4AF40D0030EA713A41FA31FA21F74
:1025E000A16D000EA223A323A42335D0A7A919D03F
:1025F00086C1D9FF87C1DAFFDFCF88F1040EDE265E
:10260000DFCF89F1000EDD2288C1D9FF89C1DAFF51
:10261000DECFA1F1DECFA2F1DECFA3F1DECFA4F1B8
:102620001AD086C1D9FF87C1DAFFDFCF88F1020E49
:10263000DE26DFCF89F1000EDD2288C1D9FF89C1F6
:10264000DAFFDECF8AF1DDCF8BF18AC1A1F18BC138
:10265000A2F1A36BA46BA951AA11D8A44BD0A1518C
:10266000A211A311A411D8A445D0A94BAA2B42D0E2
:10267000010EAB6F0A0EAB19D8B447D0AB51040DA5
:102680000F0EF324F66ECF0EF420F76EF86A000EEC
:10269000F8220900F550A15D0900F550A259090082
:1026A000F550A3590900F550A459D8A02ED0AB2B52
:1026B000E1D7010EAB6F080EAB19D8B426D0AB51E1
:1026C000040D370EF324F66ECF0EF420F76EF86A81
:1026D000000EF8220900F550A15D0900F550A2593D
:1026E0000900F550A3590900F550A459D8A00DD000
:1026F000AB2BE1D7A751C00B000AD8B4B9D7800AD9
:10270000D8B4D7D7400AD8B4B3D7800EABBF7F0EAA
:10271000886FA951AB5DAA51800A8859D8B003D0FF
:10272000A9C1ABF110D0AA51800A886FAB51A95D45
:10273000800EABBF7F0E8859D8B005D0AB51A96FC2
:10274000AA6BA9BFAA07A551A611D8B40DD0030E34
:10275000A715886F000EA815896F88518911D8B404
:1027600003D0A507D8A0A607A8AD13D0A551A95D91
:10277000AA51800A886FA651800A8859D8B005D01E
:10278000A951A55FAA51A65B04D0000EA66F000E4A
:10279000A56F800EABBF7F0E886FA551AB5DA651B4
:1027A000800A8859D8B007D0AB51A55F000EABBFE7
:1027B000FF0EA65B04D0000EA66F000EA56FA7A5A6
:1027C0007AD0030EA715886F000EA815896F88515F
:1027D0008911D8B433D020EE02F08251D92683512A
:1027E000DA22DE50DE10DE10D8B413D020EE02F074
:1027F0008251D9268351DA2201D820D00500FA6E01
:10280000DE50FD6EDE50FE6EDE50FF6EFA502D0E75
:10281000120082C1D9FF83C1DAFFDECF88F1DDCF9C
:1028200089F188C1D9FF89C1DAFF2D0EDF6E82C11F
:10283000D9FF83C1DAFFDE2A000EDD220101A55196
:10284000A611D8B46BD120EE02F08251D926835163
:10285000DA22DE50DE10DE10D8B413D020EE02F003
:102860008251D9268351DA2201D820D00500FA6E90
:10287000DE50FD6EDE50FE6EDE50FF6EFA50300E02
