:0400000085EF00F098
:060008005F82F7EFAAF091
:100018005F80D8CF02F1E8CF03F1E0CF04F1FACF47
:1000280005F1FBCF06F1E9CF07F1EACF08F1E1CFFF
:1000380009F1E2CF0AF1D9CF0BF1DACF0CF1F3CF06
:100048000DF1F4CF0EF1F6CF0FF1F7CF10F1F8CF95
:1000580011F1F5CF12F15FC013F160C014F161C066
:1000680015F162C016F10E012EBB38AB03D0C6ECF9
:10007800B5F01BD02CBD36AD0DD001D816D005007B
:10008800FA6E0101C651FD6EC751FE6EC851FF6E72
:10009800FA5012002EBD38AD03D01EECB5F005D0D5
:1000A8002BBF35AF02D05CECB7F016C162F015C1BA
:1000B80061F014C160F013C15FF012C1F5FF11C106
:1000C800F8FF10C1F7FF0FC1F6FF0EC1F4FF0DC115
:1000D800F3FF0CC1DAFF0BC1D9FF0AC1E2FF09C166
:1000E800E1FF08C1EAFF07C1E9FF06C1FBFF05C13F
:1000F800FAFF04C1E0FF03C1E8FF02C1D8FF5F9027
:0601080010003CEFAFF017
:10EBE20000010000000A00000064000000E80300C9
:10EBF2000010270000A086010040420F0080969876
:10EC02000000E1F50500CA9A3B00803F0020410068
:10EC1200C842007A44401C4650C34724744997189E
:10EC22004BBCBE4C6B6E4E03155079AD60F349710F
:10EC320000803FCDCC3DD7233C12833AB7D138C6B2
:10EC42002737388635C0D633CC2B32708930E7DB94
:10EC52002EE53C1E42A20D01000000100000000043
:10EC62000100000010000000000100000010000080
:10EC7200000001000000103C04429F6A42900142E1
:10EC82004DBB40EC473E8E1FBBF44A489595C7C129
:10EC9200DC45DC6DC3B333403C04425A8B4204442E
:10ECA200429C4F4100803F3401489DB04500DA420A
:10ECB20000803F4C697374206F6620737570706FAB
:10ECC2007274656420636F6D6D616E64733A0A0DD0
:10ECD2000A0D44657669636520436F6D6D616E64EC
:10ECE200733A0A0D20202052657365743A20436CF2
:10ECF2006561727320746865207465726D696E61F6
:10ED02006C20616E6420726573657473207468652B
:10ED1200206D6963726F0A0D202020436C65617259
:10ED22003A20436C65617273207468652074657261
:10ED32006D696E616C2062757420646F65736E27F5
:10ED42007420726573657420746865206D696372DE
:10ED52006F0A0D2020204361757365206F66205273
:10ED6200657365743F3A2052657475726E732074D0
:10ED72006865206361757365206F6620746865201D
:10ED82006D6F737420726563656E74206465766955
:10ED920063652072657365740A0D2020202A494438
:10EDA2004E3F3A2052657475726E732064657669BF
:10EDB2006365206964656E74696669636174696F0D
:10EDC2006E20737472696E670A0D20202044657686
:10EDD200696365204F6E2054696D653F3A20526524
:10EDE2007475726E7320646576696365206F6E2038
:10EDF20074696D652073696E6365206C617374203C
:10EE02006465766963652072657365740A0D2020F6
:10EE1200204465766963652049443F3A205265740F
:10EE220075726E732064657669636520494420615A
:10EE320073207072652D70726F6772616D6D65649B
:10EE420020696E20666C617368206D656D6F7279E2
:10EE52000A0D2020205265766973696F6E2049443D
:10EE62003F3A2052657475726E73206465766963E9
:10EE7200652073696C69636F6E2072657669736968
:10EE82006F6E204944206173207072652D70726F1D
:10EE92006772616D6D656420696E20666C6173686E
:10EEA200206D656D6F72790A0D2020205573657291
:10EEB200204944733F3A2052657475726E73206123
:10EEC200206C697374206F662075736572204944E3
:10EED200732028646973706C6179656420696E209F
:10EEE200686578292061732073746F726564206984
:10EEF2006E20666C617368206D656D6F72790A0DA4
:10EF0200202020414443204572726F723F3A2052C2
:10EF1200657475726E7320746865206361757365BC
:10EF2200206F6620616E20414443206572726F72C9
:10EF320020696620616E206572726F72206F636352
:10EF420075727265640A0D202020436C656172201F
:10EF5200414443204572726F723A20436C6561727C
:10EF6200732074686520414443206572726F722079
:10EF7200616E6420726573756D6573204144432030
:10EF8200636F6E76657273696F6E730A0D2020204F
:10EF9200564343204F766572766F6C746167653FA6
:10EFA2003A20537461746573206966206120564368
:10EFB20043206F766572766F6C7461676520636F4C
:10EFC2006E646974696F6E20686173206F63637524
:10EFD20072726564206F72206E6F740A0D20202099
:10EFE20048656C703A2054686973206D657373616B
:10EFF20067652C206C6973747320737570706F72FF
:10F0020074656420636F6D6D616E64730A0D0A0D21
:10F01200446576696365204D6561737572656D65DA
:10F022006E7420436F6D6D616E64733A0A0D202019
:10F03200204D65617375726520504F533350333FD5
:10F042003A2052657475726E73202B332E3356201C
:10F0520041444320436F6E76657273696F6E206917
:10F062006E20766F6C74730A0D2020204D656173DB
:10F0720075726520504F5331323F3A205265747594
:10F08200726E73202B3132562041444320436F6EFF
:10F0920076657273696F6E20696E20766F6C747319
:10F0A2000A0D2020204D65617375726520446965E3
:10F0B2002054656D703F3A2052657475726E7320EC
:10F0C200746865206D6963726F636F6E74726F6CC2
:10F0D2006C6572206469652074656D706572617417
:10F0E20075726520696E2064656772656573204379
:10F0F2000A0D2020204D65617375726520465652B7
:10F102003F3A2052657475726E7320746865206987
:10F112006E7465726E616C20666978656420766FC4
:10F122006C74616765207265666572656E636520E1
:10F132006275666665722031206F75747075742011
:10F14200696E20766F6C74730A0D2020204D656104
:10F152007375726520415653533F3A205265747558
:10F16200726E7320746865206D6561737572656473
:10F172002076616C7565206F6620416E616C6F67E9
:10F182002056535320696E20766F6C74730A0D0AF1
:10F192000D5072696D617279204D6561737572658A
:10F1A2006D656E7420436F6D6D616E64733A0A0D06
:10F1B2002020204D65617375726520446574656316
:10F1C2007465642043757272656E743F3A205265AD
:10F1D2007475726E73206D65617375726564206FEC
:10F1E20075747075742063757272656E7420696EC1
:10F1F20020616D7073206173207365656E20627982
:10F20200204144430A0D2020204D656173757265CB
:10F2120020524D532043757272656E743F3A2052EC
:10F22200657475726E73207468652063616C6375B2
:10F232006C6174656420524D53206F7574707574DF
:10F242002063757272656E742066726F6D206D65D3
:10F2520061737572656D656E747320616E6420549E
:10F262005249414320666972696E6720616E676C1C
:10F27200650A0D2020204D65617375726520524D1F
:10F282005320566F6C746167653F3A2052657475FE
:10F29200726E73207468652063616C63756C61744F
:10F2A200656420524D53206F757470757420766FAB
:10F2B2006C746167652066726F6D205452494143D8
:10F2C20020666972696E6720616E676C650A0D203F
:10F2D20020204D65617375726520506F7765723FAE
:10F2E2003A2052657475726E73207468652063618A
:10F2F2006C63756C61746564206F757470757420CD
:10F30200706F77657220696E2057617474730A0D8D
:10F312002020204C6F6164204F6E2054696D653F40
:10F322003A2052657475726E73206C6F6164206F3F
:10F332006E2074696D652073696E6365206C6173FC
:10F3420074206465766963652072657365742069EB
:10F352006E207365636F6E64730A0D0A0D4F7574C8
:10F3620070757420436F6E74726F6C20436F6D6D95
:10F37200616E64733A0A0D202020456E61626C65ED
:10F382002044696D6D696E673A20456E61626C65F5
:10F39200205452494143206F75747075742064691A
:10F3A2006D6D696E670A0D20202044697361626C7D
:10F3B200652044696D6D696E673A204469736162C4
:10F3C2006C65205452494143206F757470757420E6
:10F3D20064696D6D696E670A0D202020456E616259
:10F3E2006C65204C6F61643A20456E61626C657396
:10F3F20020746865206F7574707574205452494189
:10F402004320776974682064696D6D696E67206452
:10F41200697361626C65640A0D202020446973611E
:10F42200626C65204C6F61643A2044697361626C5E
:10F43200657320746865206F7574707574205452FA
:10F4420049414320636F6D706C6574656C790A0D78
:10F452002020205365742044696D6D696E672050C9
:10F46200657263656E746167653A203C783E3A2046
:10F472005365747320746865206F75747075742099
:10F4820064696D6D696E672070657263656E746123
:10F49200676520617320782070657263656E740AF7
:10F4A2000D0020202020426F6F7420636F6D706CFE
:10F4B2006574650A0D2020202050494331384636B4
:10F4C200374B3430206D546F756368205465737404
:10F4D20020426F6172640A0D202020204576616C03
:10F4E200756174657320746865206D546F75636807
:10F4F200206361706163697469766520746F7563F6
:10F5020068206C69627261727920646973747269CD
:10F512006275746564206279204D6963726F6368F5
:10F5220069700A0D20202020536574732074686569
:10F53200207374617465206F662066697665204C5D
:10F54200454473206261736564206F6E206D546F51
:10F5520075636820636170616369746976652070A0
:10F56200757368627574746F6E730A0D20202020A3
:10F572004261756420726174653A203131353230EE
:10F5820030206270730A0D202020204E6F2070619F
:10F59200726974792C203820626974732C206E6F22
:10F5A20020666C6F7720636F6E74726F6C2C2031E3
:10F5B2002073746F70206269740A0D20202020432A
:10F5C2006F6D6D616E647320617265206361736536
:10F5D2002073656E7369746976650A0D2020202098
:10F5E200456E746572206120636F6D6D616E642C6F
:10F5F200206F7220656E7465722048656C7020669B
:10F602006F72206C697374206F6620636F6D6D6119
:10F612006E64730A0D00496620796F752764206C49
:10F62200696B6520746F20636F6D706C6574656CB7
:10F632007920656E61626C65206F72206469736106
:10F64200626C6520746865206C6F61642C2064694B
:10F652007361626C652064696D6D696E6720616EAD
:10F66200642075736520726573706563746976656D
:10F6720020636F6D6D616E64730A0D004552524FC7
:10F68200523A20506C656173652073657420646919
:10F692006D6D696E672070657263656E7461676512
:10F6A20020746F20616E20696E74656765722067D1
:10F6B200726561746572207468616E203020616EBB
:10F6C20064206C657373207468616E203130300A77
:10F6D2000D004465766963652049442073746F7236
:10F6E200656420696E20466C6173682069733A20F4
:10F6F200307825582E205468697320636F727265C2
:10F7020073706F6E647320746F2061206465766914
:10F7120063652070617274206E756D626572206F10
:10F72200662025730A0D005468697320636F727234
:10F732006573706F6E647320746F206120313620A0
:10F742006269742074696D6572207072652D6C6FC8
:10F7520061642076616C7565206F6620307825586B
:10F7620020282575204C53427329200A0D00564348
:10F7720043204F766572766F6C7461676520636FA4
:10F782006E646974696F6E20686173206F6363755C
:10F79200727265642028564343206861732065783D
:10F7A20063656564656420332E343056290A0D0082
:10F7B20054686520666F6C6C6F77696E672055734D
:10F7C2006572204944732068617665206265656EC2
:10F7D200207265747269657665642066726F6D2049
:10F7E200666C617368206D656D6F72793A0A0D00FF
:10F7F20043616C63756C6174656420545249414382
:10F8020020666972696E6720616E676C6520697334
:10F8120020252E33662072616469616E732028256B
:10F822002E33662064656772656573290A0D00448C
:10F832006576696365206F6E2074696D65207369F2
:10F842006E6365206C6173742072657365742063E6
:10F852006F6E646974696F6E20697320256420730A
:10F8620065636F6E64730A0D004465766963652093
:10F8720073696C69636F6E207265766973696F6E06
:10F882002049442061732073746F72656420696E2D
:10F8920020466C6173682069733A20256325640AE7
:10F8A2000D004F757470757420706F7765722063E8
:10F8B200616C63756C6174656420617320252E33FD
:10F8C200662057617474732066726F6D20524D53B7
:10F8D2002076616C7565730A0D004669786564204F
:10F8E200566F6C74616765205265666572656E63FA
:10F8F20065204275666665722031206D656173759B
:10F9020072656420617320256620566F6C74730AD9
:10F912000D00202020205573657220494420576F26
:10F9220072642025642028466C61736820616464D7
:10F932007265737320307832303030302558293A6E
:10F9420020307825580A0D004C6F6164206F6E20BC
:10F9520074696D652073696E6365206C61737420D0
:10F9620064657669636520726573657420697320C6
:10F972002564207365636F6E64730A0D00546865B5
:10F98200206361757365206F6620746865206D6FF2
:10F99200737420726563656E74206465766963654D
:10F9A200207265736574207761733A2025730A0D9E
:10F9B2000054686520666F6C6C6F77696E672063B0
:10F9C20068616E6E656C2063617573656420616E3B
:10F9D20020414443206572726F723A2025730A0DEA
:10F9E200004D617271756574746520556E69766536
:10F9F200727369747920454C454E2033303335207B
:10FA020046696E616C2050726F6A6563740A0D00FC
:10FA1200456E746572202748656C702720666F7288
:10FA2200206C697374206F6620617661696C616213
:10FA32006C6520636F6D6D616E64730A0D005643D1
:10FA420043204F766572766F6C7461676520636FD1
:10FA52006E646974696F6E20686173206E6F7420C2
:10FA62006F636375727265640A0D004C6F61642086
:10FA7200686173206265656E20656E61626C6564A3
:10FA82002C2064696D6D696E672064697361626CB4
:10FA920065640A0D0057696E646F7765642057616B
:10FAA20074636820446F672054696D6572205669DB
:10FAB2006F6C6174696F6E20526573657400545285
:10FAC200494143206F75747075742064696D6D6966
:10FAD2006E6720686173206265656E206469736178
:10FAE200626C65640A0D005452494143206F75747B
:10FAF2007075742064696D6D696E6720686173202A
:10FB02006265656E20656E61626C65640A0D004D0A
:10FB12006561737572656D656E7420726573706F61
:10FB22006E7365732061707065617220696E206307
:10FB320079616E0A0D0041565353206D65617375EC
:10FB420072656420617320252E336620566F6C74B3
:10FB520073206279204144430A0D0044696D6D6946
:10FB62006E6720686173206265656E20736574201C
:10FB7200746F2025642070657263656E740A0D00CF
:10FB820053797374656D20706172616D657465720D
:10FB9200732061707065617220696E20677265659D
:10FBA2006E0A0D002B332E3356207261696C206D64
:10FBB20065617375726564206173202B256620561A
:10FBC2006F6C74730A0D004469652054656D70652D
:10FBD200726174757265206D6561737572656420FA
:10FBE2006173202566430A0D00524D53204F7574F0
:10FBF2007075742043757272656E74206973202566
:10FC02002E33662041726D730A0D00524D53204F00
:10FC1200757470757420566F6C74616765206973B2
:10FC220020252E33662056726D730A0D002B313259
:10FC320056207261696C206D65617375726564200E
:10FC42006173202B256620566F6C74730A0D004871
:10FC5200656C70206D657373616765732061707088
:10FC620065617220696E2079656C6C6F770A0D0090
:10FC72004D656173757265642043757272656E7449
:10FC820020697320252E336620416D70730A0D00A2
:10FC92005573657220696E7075742061707065614C
:10FCA200727320696E2077686974650A0D00524587
:10FCB20053455420496E737472756374696F6E2074
:10FCC2004578656375746564004D65617375726529
:10FCD2002044657465637465642043757272656E51
:10FCE200743F004C6F616420686173206265656EC9
:10FCF2002064697361626C65640A0D005365742047
:10FD020044696D6D696E672050657263656E7461DA
:10FD120067653A20004E6F20414443204572726F5E
:10FD2200722064657465637465640A0D00457272BD
:10FD32006F72732061707065617220696E207265E6
:10FD4200640A0D00537461636B20556E64657266BC
:10FD52006C6F7720526573657400496E7465726EBC
:10FD6200616C2046565220427566666572203100EB
:10FD7200537461636B204F766572666C6F772052A5
:10FD82006573657400436C656172696E67204144F6
:10FD920043204572726F720A0D004D656173757270
:10FDA2006520524D5320566F6C746167653F004D5C
:10FDB20065617375726520524D5320437572726589
:10FDC2006E743F004D617374657220436C6561729D
:10FDD200205265736574004D6561737572652044C8
:10FDE20069652054656D703F0030313233343536E9
:10FDF20037383941424344454600414320506F77EA
:10FE02006572204D657465720A0D00564343204F9A
:10FE1200766572766F6C746167653F00556E6465D6
:10FE220066696E65642052657365740042726F770D
:10FE32006E204F7574205265736574004D65617351
:10FE420075726520504F533350333F0044657669D5
:10FE52006365204F6E2054696D653F004361757381
:10FE620065206F662052657365743F004469736153
:10FE7200626C652044696D6D696E6700436C6561F3
:10FE82007220414443204572726F7200506F776551
:10FE920072204F6E205265736574004D65617375F3
:10FEA200726520504F5331323F004D656173757258
:10FEB2006520506F7765723F00456E61626C652008
:10FEC20044696D6D696E6700496E7465726E616C2E
:10FED2002044414331004D6561737572652041567E
:10FEE20053533F004C6F6164204F6E2054696D651F
:10FEF2003F00496E7465726E616C20415653530027
:10FF0200496E7465726E616C2054656D7000504963
:10FF12004331384C4636374B34300052657669737C
:10FF2200696F6E2049443F004D65617375726520AB
:10FF32004656523F0044697361626C65204C6F61A2
:10FF4200640050494331384636374B343000456EF1
:10FF520061626C65204C6F6164004465766963651B
:10FF62002049443F00414443204572726F723F0072
:10FF720055736572204944733F00556E6465666926
:10FF82006E656400286E756C6C2900504F533350B7
:10FF92003300504F533132002A49444E3F00436CE4
:10FFA2006561720049534E530048656C70001B5BDB
:10FFB200324A0049444E001B5B48001B5B73001B26
:10FFC2005B75001B5B4B0033300033310034310072
:10FFD20033320034320033330034330033340034EC
:10FFE20034003335003435003336003436003337CD
:0EFFF200003437001B5B0038003B006D000040
:020000040001F9
:10000000A0C117F1A1C118F1280E0101196FFE0E50
:100010001A6FE4ECB2F0010117511811D8A40FD0F7
:10002000B00E646FFF0E656FA4EC86F0B90E01018F
:10003000646FFF0E656FA4EC86F0FF001200A0C194
:1000400017F1A1C118F1A00E0101196FFF0E1A6F6F
:10005000E4ECB2F0010117511811D8A40ED0B00E83
:10006000646FFF0E656FA4EC86F0B90E0101646F3A
:10007000FF0E656FA4EC86F01200A0C117F1A1C1BC
:1000800018F15E0E0101196FFE0E1A6FE4ECB2F06A
:10009000010117511811D8A41DD0F6ECB6F0000ECE
:1000A00001018E6F000E8F6F020E19EC99F07F0E1A
:1000B0000101646FF90E656FD5516BECB5F017C196
:1000C00066F118C167F1A4EC86F0E5ECB6F0F6EC49
:1000D000B6F01200A0C117F1A1C118F19A0E0101EA
:1000E000196FFF0E1A6FE4ECB2F0010117511811ED
:1000F000D8B40FD0A0C117F1A1C118F1B50E196F76
:10010000FF0E1A6FE4ECB2F0010117511811D8A4D8
:100110001DD0F6ECB6F0000E01018E6F000E8F6F51
:10012000020E19EC99F0FC0E0101646FFD0E656F73
:10013000A4EC86F0E30E0101646FF90E656FA4EC88
:1001400086F0E5ECB6F0F6ECB6F01200A0C117F1BF
:10015000A1C118F15C0E0101196FFF0E1A6FE4ECDA
:10016000B2F0010117511811D8A428D0F6ECB6F05E
:10017000000E01018E6F000E8F6F020E19EC99F0C8
:10018000D40E0101646FF60E656F6FECB6F022C1FC
:1001900066F123C167F16FECB6F022C124F123C1EF
:1001A00025F1A7ECB1F024C168F125C169F1A4ECF7
:1001B00086F0E5ECB6F0F6ECB6F01200A0C117F14F
:1001C000A1C118F11D0E0101196FFF0E1A6FE4ECA9
:1001D000B2F0010117511811D8A427D0F6ECB6F0EF
:1001E000000E01018E6F000E8F6F020E19EC99F058
:1001F0006B0E0101646FF80E656F91ECB4F00101B4
:10020000A26F410EA225666F676B000E6723EEECAE
:10021000B5F00101A36FA351686F696BA4EC86F080
:10022000E5ECB6F0F6ECB6F01200A0C117F1A1C1F2
:1002300018F1720E0101196FFF0E1A6FE4ECB2F0A3
:10024000010117511811D8A443D0F6ECB6F0000EF6
:1002500001018E6F000E8F6F020E19EC99F0B20E35
:100260000101646FF70E656FA4EC86F0000E0201C9
:10027000A16F000EA06FA1BF06D0A15124E1080E0E
:10028000A05DD8B020D0140E0101646FF90E656F27
:10029000A0C266F1A1C267F1D8900201A0350101A8
:1002A000686F0201A1350101696F0201A051EDECF7
:1002B000B3F022C16AF123C16BF1A4EC86F0020114
:1002C000A04BA12BD8D7E5ECB6F0F6ECB6F01200B7
:1002D000A0C117F1A1C118F1670E0101196FFF0E3E
:1002E0001A6FE4ECB2F0010117511811D8A4ADD087
:1002F0005EA095D0F6ECB6F0000E01018E6F000EF8
:100300008F6F010E19EC99F05FCFCFF160D0800EA6
:100310000101176F020E186FA60E196FFF0E1A6FEC
:10032000E8ECB4F06CD0800E0101176F020E186F6C
:10033000940E196FFF0E1A6FE8ECB4F060D0800EC7
:100340000101176F020E186F8D0E196FFF0E1A6FD5
:10035000E8ECB4F054D0800E0101176F020E186F54
:10036000F40E196FFE0E1A6FE8ECB4F048D0800E50
:100370000101176F020E186F020E196FFF0E1A6F30
:10038000E8ECB4F03CD0800E0101176F020E186F3C
:10039000CA0E196FFE0E1A6FE8ECB4F030D0800E62
:1003A0000101176F020E186F5C0E196FFD0E1A6FA8
:1003B000E8ECB4F024D0800E0101176F020E186F24
:1003C0007C0E196FFF0E1A6FE8ECB4F018D0010123
:1003D000CF51000AD8B49BD7040AD8B4A4D7260AB0
:1003E000D8B4ADD71E0AD8B4B6D7010AD8B4BFD78F
:1003F000030AD8B4C8D7010AD8B4D1D7DCD7B30E12
:100400000101646FF90E656F800E666F020E676FF3
:10041000A4EC86F0E5ECB6F0F6ECB6F01200F6ECE3
:10042000B6F0000E01018E6F000E8F6F020E19ECF8
:1004300099F0170E0101646FFD0E656FA4EC86F054
:10044000E5ECB6F0F6ECB6F01200A0C117F1A1C1D0
:1004500018F17E0E0101196FFE0E1A6FE4ECB2F076
:10046000010117511811D8A41CD07E965E900E0180
:100470002E5160ECB7F0F6ECB6F0000E01018E6F75
:10048000000E8F6F020E19EC99F0870E0101646F58
:10049000FD0E656FA4EC86F0E5ECB6F0F6ECB6F078
:1004A0001200A0C117F1A1C118F10D0E0101196FC1
:1004B000FE0E1A6FE4ECB2F0010117511811D8A426
:1004C0002FD05EA417D0F6ECB6F0000E01018E6FAF
:1004D000000E8F6F010E19EC99F0700E0101646F20
:1004E000F70E656FA4EC86F0E5ECB6F0F6ECB6F02E
:1004F0005E941200F6ECB6F0000E01018E6F000E55
:100500008F6F020E19EC99F0400E0101646FFA0E24
:10051000656FA4EC86F0E5ECB6F0F6ECB6F01200F0
:10052000A0C117F1A1C118F13E0E0101196FFE0E15
:100530001A6FE4ECB2F0010117511811D8A41CD0C5
:10054000F6ECB6F0000E01018E6F000E8F6F060EF6
:1005500019EC99F0A60E0101646FFB0E656FDDC00A
:1005600066F1DEC067F1DFC068F1A4EC86F0E5EC6F
:10057000B6F0F6ECB6F01200A0C117F1A1C118F167
:100580009D0E0101196FFE0E1A6FE4ECB2F001012D
:1005900017511811D8A41CD0F6ECB6F0000E0101CA
:1005A0008E6F000E8F6F060E19EC99F02F0E010161
:1005B000646FFC0E656FDAC066F1DBC067F1DCC00A
:1005C00068F1A4EC86F0E5ECB6F0F6ECB6F01200BB
:1005D000A0C117F1A1C118F1D90E0101196FFD0ECB
:1005E0001A6FE4ECB2F0010117511811D8A41CD015
:1005F000F6ECB6F0000E01018E6F000E8F6F060E46
:1006000019EC99F0C90E0101646FFB0E656FD7C03C
:1006100066F1D8C067F1D9C068F1A4EC86F0E5ECCA
:10062000B6F0F6ECB6F01200A0C117F1A1C118F1B6
:100630002A0E0101196FFF0E1A6FE4ECB2F00101EE
:1006400017511811D8A41CD0F6ECB6F0000E010119
:100650008E6F000E8F6F060E19EC99F0DC0E010103
:10066000646FF80E656FEDC066F1EEC067F1EFC024
:1006700068F1A4EC86F0E5ECB6F0F6ECB6F012000A
:10068000A0C117F1A1C118F1D80E0101196FFE0E1A
:100690001A6FE4ECB2F0010117511811D8A41CD064
:1006A000F6ECB6F0000E01018E6F000E8F6F060E95
:1006B00019EC99F0380E0101646FFB0E656FE3C011
:1006C00066F1E4C067F1E5C068F1A4EC86F0E5EC02
:1006D000B6F0F6ECB6F01200A0C117F1A1C118F106
:1006E000CB0E0101196FFC0E1A6FE4ECB2F00101A0
:1006F00017511811D8A41CD0F6ECB6F0000E010169
:100700008E6F000E8F6F060E19EC99F0720E0101BC
:10071000646FFC0E656FCEC066F1CFC067F1D0C0CC
:1007200068F1A4EC86F0E5ECB6F0F6ECB6F0120059
:10073000A0C117F1A1C118F1B10E0101196FFD0E91
:100740001A6FE4ECB2F0010117511811D8A41CD0B3
:10075000F6ECB6F0000E01018E6F000E8F6F060EE4
:1007600019EC99F0EB0E0101646FFB0E656FCBC0C5
:1007700066F1CCC067F1CDC068F1A4EC86F0E5EC81
:10078000B6F0F6ECB6F01200A0C117F1A1C118F155
:100790009C0E0101196FFD0E1A6FE4ECB2F001011D
:1007A00017511811D8A41CD0F6ECB6F0000E0101B8
:1007B0008E6F000E8F6F060E19EC99F00D0E010171
:1007C000646FFC0E656FC8C066F1C9C067F1CAC02E
:1007D00068F1A4EC86F0E5ECB6F0F6ECB6F01200A9
:1007E000A0C117F1A1C118F1AC0E0101196FFE0EE5
:1007F0001A6FE4ECB2F0010117511811D8A41CD003
:10080000F6ECB6F0000E01018E6F000E8F6F060E33
:1008100019EC99F0A40E0101646FF80E656FB7C171
:1008200066F1B8C167F1B9C168F1A4EC86F0E5ECF6
:10083000B6F0F6ECB6F01200A0C117F1A1C118F1A4
:10084000BB0E0101196FFE0E1A6FE4ECB2F001014C
:1008500017511811D8A417D07F90F6ECB6F0000EFF
:1008600001018E6F000E8F6F060E19EC99F0E90EE4
:100870000101646FFA0E656FA4EC86F0E5ECB6F04A
:10088000F6ECB6F01200A0C117F1A1C118F16E0E7E
:100890000101196FFE0E1A6FE4ECB2F0010117515D
:1008A0001811D8A417D07F80F6ECB6F0000E010125
:1008B0008E6F000E8F6F060E19EC99F0C00E0101BD
:1008C000646FFA0E656FA4EC86F0E5ECB6F0F6EC1A
:1008D000B6F01200A0C117F1A1C118F1500E01012C
:1008E000196FFF0E1A6FE4ECB2F0010117511811E5
:1008F000D8A419D07F807F925E82F6ECB6F0000E0D
:1009000001018E6F000E8F6F060E19EC99F06D0EBF
:100910000101646FFA0E656FA4EC86F0E5ECB6F0A9
:10092000F6ECB6F01200A0C117F1A1C118F1370E14
:100930000101196FFF0E1A6FE4ECB2F001011751BB
:100940001811D8A419D07F927F905E92F6ECB6F081
:10095000000E01018E6F000E8F6F060E19EC99F0DC
:10096000E50E0101646FFC0E656FA4EC86F0E5EC0A
:10097000B6F0F6ECB6F01200A0C126F1A1C127F145
:10098000FE0E0101286FFC0E296FEEECADF00101A7
:1009900026512711D8B419D1000E02019D6F000E07
:1009A0009C6F9DBF06D09D511FE1030E9C5DD8B08A
:1009B0001BD0180E9C250101A26F000E02019D2183
:1009C0000101A36FA251A025D96EA351A121DA6E16
:1009D000990E02019C25E16E020E9D21E26EDFCF91
:1009E000E7FF9C4B9D2BDDD7990E01012B6F020E6B
:1009F0002C6F8BECAAF02BC19EF22CC19FF202014E
:100A00009FBF06D09F510BE1640E9E5DD8B007D00A
:100A10009FBF05D09F512FE19E05D8B02CD0F6EC9A
:100A2000B6F0000E01018E6F000E8F6F010E19ECF3
:100A300099F07E0E0101646FF60E656FA4EC86F0EE
:100A4000000E01018E6F000E8F6F030E19EC99F0EE
:100A5000180E0101646FF60E656FA4EC86F0120E9D
:100A60000101646FFA0E656FA4EC86F0E5ECB6F058
:100A7000F6ECB6F01200000E01013A6FC80E3B6FA3
:100A8000420E3C6F000E2E6FC80E2F6F420E306F5D
:100A90009EC21FF19FC220F1AFECB4F01FC123F141
:100AA00020C124F121C125F101ECB6F023C12BF1C5
:100AB00024C12CF125C12DF17BECA1F02BC137F124
:100AC0002CC138F12DC139F1C8ECA8F037C146F17D
:100AD00038C147F139C148F1100E0101496F490E83
:100AE0004A6F400E4B6F59ECA7F046C1FBF047C16F
:100AF000FCF048C1FDF0FBC046F1FCC047F1FDC071
:100B000048F12F0E0101496F650E4A6F420E4B6F7F
:100B100059ECA7F046C196F247C197F248C198F246
:100B20009EC2A2F19FC2A3F10101A21FA31FA24B6B
:100B3000A32B640EA225256F000EA321266F020EA3
:100B4000286F8F0E276FB2ECB5F025C1F9F026C1E2
:100B5000FAF0F6ECB6F0000E01018E6F000E8F6F0A
:100B6000020E19EC99F05D0E0101646FFB0E656FCA
:100B70009EC266F19FC267F1A4EC86F0F20E0101FD
:100B8000646FF70E656FFBC066F1FCC067F1FDC0D6
:100B900068F196C269F197C26AF198C26BF1A4EC50
:100BA00086F0290E0101646FF70E656FF9C066F1DA
:100BB000FAC067F1F9C068F1FAC069F1A4EC86F0F7
:100BC000E5ECB6F0F6ECB6F01200A0C117F1A1C149
:100BD00018F14E0E0101196FFE0E1A6FE4ECB2F01F
:100BE000010117511811D8A41ED0F6ECB6F0000E72
:100BF00001018E6F000E8F6F020E19EC99F0310E0D
:100C00000101646FF80E656FB3C166F1B4C167F19D
:100C1000B5C168F1B6C169F1A4EC86F0E5ECB6F0B7
:100C2000F6ECB6F01200A0C117F1A1C118F1E60E62
:100C30000101196FFE0E1A6FE4ECB2F001011751B9
:100C40001811D8A41ED0F6ECB6F0000E01018E6F7C
:100C5000000E8F6F060E19EC99F04A0E0101646FB9
:100C6000F90E656FAFC166F1B0C167F1B1C168F14E
:100C7000B2C169F1A4EC86F0E5ECB6F0F6ECB6F0A2
:100C80001200A0C117F1A1C118F1AB0E0101196F3B
:100C9000FF0E1A6FE4ECB2F0010117511811D8A43D
:100CA0001200F6ECB6F0000E01018E6F000E8F6F91
:100CB000030E19EC99F0B50E0101646FEC0E656F2F
:100CC000A4EC86F0F6ECB6F0510E0101646FFC0E58
:100CD000656FA4EC86F0000E01018E6F000E8F6F21
:100CE000020E19EC99F0820E0101646FFB0E656F24
:100CF000A4EC86F0000E01018E6F000E8F6F060EC1
:100D000019EC99F0110E0101646FFB0E656FA4ECF4
:100D100086F0000E01018E6F000E8F6F010E19EC30
:100D200099F02F0E0101646FFD0E656FA4EC86F043
:100D3000E5ECB6F0920E0101646FFC0E656FA4EC59
:100D400086F0F6ECB6F01200660E01017A6F010E25
:100D50007B6FEFEF8BF0250E8D19D8B405D08D5138
:100D600015ECB7F0EFEF8BF0000E01017D6F000E78
:100D70007C6F64C1F6FF65C1F7FF000EF86E0D0EC3
:100D8000F76403D00800F55005D0F6CFE9FFF7CFA0
:100D9000EAFFEF502E0AD8A449D001017D8D644BA3
:100DA000652B000E8C6F000E8B6F2AD08BC125F146
:100DB0008CC126F1000E0101286F0A0E276FB2ECDC
:100DC000B5F064C1F6FF65C1F7FF000EF86E0D0EB9
:100DD000F76403D00800F55005D0F6CFE9FFF7CF50
:100DE000EAFFEF5001016C6F6C512527000E26239E
:100DF000D00E25258B6FFF0E26218C6F644B652B43
:100E000064C1F6FF65C1F7FF000EF86E0D0EF764C2
:100E100003D00800F55005D0F6CFE9FFF7CFEAFF81
:100E2000EF505EECB6F0D8A088D0C0D7000E01011C
:100E30008C6F000E8B6F7D8980D07D85B5D07C8FC7
:100E4000B3D07AC1D9FF7BC1DAFFDECF78F1DDCF35
:100E500079F1020E7A27000E7B2378517911D8A4FC
:100E600004D0860E786FFF0E796F000E776F000E3C
:100E7000766F03D00101764B772B765178256C6F16
:100E8000775179216D6F6CC1F6FF6DC1F7FF000ED0
:100E9000F86E0D0EF76403D00800F55005D0F6CFBC
:100EA000E9FFF7CFEAFFEF500009D8A4E3D701012B
:100EB0008B518C11D8B421D076518B5D77518C59E0
:100EC000D8B01BD08BC176F18CC177F116D078C128
:100ED000F6FF79C1F7FF000EF86E0D0EF76403D030
:100EE0000800F55005D0F6CFE9FFF7CFEAFFEF5045
:100EF00015ECB7F00101784B792B7607D8A077076E
:100F00007629E5E17729D8B4EFEF8BF0E0D77AC105
:100F1000D9FF7BC1DAFFDF508D6F020E7A27000EFA
:100F20007B238D0E786F010E796F000E776F010EA7
:100F3000766FBDD7C00E7C1337D0010164516C6F42
:100F400065516D6F644B652B6CC1F6FF6DC1F7FF8A
:100F5000000EF86E0D0EF76403D00800F55005D0B2
:100F6000F6CFE9FFF7CFEAFFEF5001018D6F8D510A
:100F7000000AD8B41200580AD8B461D73B0AD8B4D2
:100F8000C6D7070AD8B410D0020AD8B456D70F0A69
:100F9000D8B40AD01A0AD8B454D7060AD8B4CAD7D3
:100FA0000D0AD8B44CD7BDD7070E7D15D8B4C1D221
:100FB0007DA904D0000E8C6F060E8B6F7AC1D9FF0D
:100FC0007BC1DAFFDECF88F1DECF89F1DDCF8AF198
:100FD000030E7A27000E7B238AAF11D088C123F13C
:100FE00089C124F18AC125F101ECB6F023C188F151
:100FF00024C189F125C18AF1030E01017C13000E81
:101000007F6F000E7E6F885189118A11D8B488D005
:10101000820E6C6FFF0E6D6F88C16EF189C16FF12A
:101020008AC170F18BC171F1100E05D0D890713367
:1010300070336F336E33E82EF9D76E516C257E6FA7
:10104000000E6D217F6F7E07D8A07F077EC125F13E
:101050007FC126F1000E286F030E276FB2ECB5F0AA
:1010600025C17EF126C17FF17EC11DF17FC11EF138
:10107000000E0101206F0A0E1F6F34ECAEF01DC18F
:101080007EF11EC17FF101017FAF03D07E07D8A0A2
:101090007F077E510008B1EC94F055C180F156C134
:1010A00081F157C182F180C146F181C147F182C10E
:1010B00048F188C149F189C14AF18AC14BF159EC23
:1010C000A7F046C180F147C181F148C182F180C1DA
:1010D00017F181C118F182C119F1000E01011A6FD7
:1010E000800E1B6F3F0E1C6F15ECADF00101D8B0E8
:1010F00004D07E07D8A07F0713D080C117F181C12B
:1011000018F182C119F1000E1A6F200E1B6F410EEB
:101110001C6F15ECADF00101D8A002D07E4B7F2BE7
:101120008CBF06D08C511BE10D0E8B5DD8B017D053
:1011300088C12BF189C12CF18AC12DF18B51CDECE5
:101140009AF055C12EF156C12FF157C130F17BEC09
:10115000A1F02BC188F12CC189F12DC18AF10101C7
:101160007FBF06D07F511FE10A0E7E5DD8B01BD035
:10117000885189118A11D8B454D088C155F189C1D8
:1011800056F18AC157F1DDECA6F001015551561117
:1011900057115811D8B47FBF44D07F5104E1020EDB
:1011A0007E5DD8A03ED080C117F181C118F182C107
:1011B00019F1700E1A6F890E1B6F400E1C6F15EC23
:1011C000ADF00101D8B002D0F70E01D0F80E7E27A5
:1011D000FF0E7F237E51B1EC94F055C180F156C1D2
:1011E00081F157C182F188C117F189C118F18AC113
:1011F00019F180C11AF181C11BF182C11CF1F3EC1C
:10120000A3F017C184F118C185F119C186F11AC183
:1012100087F1000E0101886F000E896F000E8A6F42
:1012200033D088C155F189C156F18AC157F1DDEC3F
:10123000A6F055C184F156C185F157C186F158C158
:1012400087F188C137F189C138F18AC139F184C188
:101250001FF185C120F186C121F187C122F107EC80
:10126000B2F01FC13AF120C13BF121C13CF130EC99
:10127000B4F037C188F138C189F139C18AF1000E63
:1012800001017F6F000E7E6F010E8D6F0A0E8D19AA
:10129000D8B41BD08D51040DE30EF324F66EEB0E83
:1012A000F420F76EF86A000EF8220900F550845D0C
:1012B0000900F55085590900F55086590900F55087
:1012C0008759D8A002D08D2BE1D7030E7C156C6F07
:1012D000000E7D156D6F6C516D11D8B44ED02D0E72
:1012E00015ECB7F04AD084C117F185C118F186C159
:1012F00019F187C11AF101018D51040DE30EF32498
:10130000F66EEB0EF420F76EF86A000EF822090074
:10131000F5CF1BF10900F5CF1CF10900F5CF1DF148
:101320000A00F5CF1EF177ECAEF017C180F118C1BD
:1013300081F119C182F11AC183F180C124F181C107
:1013400025F182C126F183C127F10A0E0101286F20
:10135000000E296F000E2A6F000E2B6F0EECB1F0FD
:1013600024C180F125C181F126C182F127C183F119
:1013700001018051300F15ECB7F001018D078D2967
:10138000D8B408D0B0D7300E15ECB7F001017E0705
:10139000D8A07F077FBF05D07F51F5E17E05D8B08B
:1013A000F2D78CBF09D08C5104E1090E8B5DD8A017
:1013B00003D0080E8D6F02D08BC18DF18D518B5FE4
:1013C000000E8DBFFF0E8C5B8D51D8B403D02E0E56
:1013D00015ECB7F001018D51B1EC94F055C172F1EB
:1013E00056C173F157C174F188C149F189C14AF1FD
:1013F0008AC14BF172C146F173C147F174C148F122
:1014000059ECA7F046C155F147C156F148C157F113
:10141000DDECA6F055C184F156C185F157C186F1C6
:1014200058C187F174D084C117F185C118F186C104
:1014300019F187C11AF101018D51040DE30EF32456
:10144000F66EEB0EF420F76EF86A000EF822090033
:10145000F5CF1BF10900F5CF1CF10900F5CF1DF107
:101460000A00F5CF1EF177ECAEF017C180F118C17C
:1014700081F119C182F11AC183F180C124F181C1C6
:1014800025F182C126F183C127F10A0E0101286FDF
:10149000000E296F000E2A6F000E2B6F0EECB1F0BC
:1014A00024C180F125C181F126C182F127C183F1D8
:1014B00001018051300F15ECB7F084C124F185C1D2
:1014C00025F186C126F187C127F101018D51040D57
:1014D000E30EF324F66EEB0EF420F76EF86A000EBE
:1014E000F8220900F5CF28F10900F5CF29F109000C
:1014F000F5CF2AF10A00F5CF2BF10EECB1F024C1A3
:1015000084F125C185F126C186F127C187F101014A
:101510008D078D29D8B408D086D7300E15ECB7F0DA
:1015200001018B07D8A08C078B518C11D8B457D1EF
:10153000F4D7C00E7C156C6F000E7D156D6F6C516D
:101540006D11D8A41ED07AC1D9FF7BC1DAFFDECFDE
:1015500084F1DDCF85F1000E85BFFF0E866F876FAA
:10156000020E7A27000E7B2387AF1DD0030E7C135B
:10157000871F861F851F846D000E85238623872382
:1015800012D07AC1D9FF7BC1DAFFDECF6CF1DDCF9B
:101590006DF16CC184F16DC185F1866B876B020EB4
:1015A0007A27000E7B238B518C11D8A44BD0845109
:1015B000851186118711D8A445D08B4B8C2B42D036
:1015C000010E8D6F0A0E8D19D8B447D08D51040DC0
:1015D000E30EF324F66EEB0EF420F76EF86A000EBD
:1015E000F8220900F550845D0900F550855909007D
:1015F000F55086590900F5508759D8A02ED08D2B6B
:10160000E1D7010E8D6F080E8D19D8B426D08D51FB
:10161000040D590EF324F66EEC0EF420F76EF86A02
:10162000000EF8220900F550845D0900F550855937
:101630000900F55086590900F5508759D8A00DD0FA
:101640008D2BE1D77C51C00B000AD8B4B9D7800AE2
:10165000D8B4D7D7400AD8B4B3D7800E8DBF7F0E89
:101660006C6F8B518D5D8C51800A6C59D8B003D052
:101670008BC18DF110D08C51800A6C6F8D518B5DB8
:10168000800E8DBF7F0E6C59D8B005D08D518B6FF9
:101690008C6B8BBF8C07030E7C156C6F000E7D1559
:1016A0006D6F6C516D11D8B491D02D0E15ECB7F053
:1016B0008DD08BC16CF18CC16DF10101D8906C376C
:1016C0006D37D8906C376D37E30E6C25F66EEB0EE8
:1016D0006D21F76EF86A000EF8220900F5CF1BF1B4
:1016E0000900F5CF1CF10900F5CF1DF10A00F5CF77
:1016F0001EF184C117F185C118F186C119F187C1A6
:101700001AF177ECAEF017C124F118C125F119C117
:1017100026F11AC127F10A0E0101286F000E296F68
:10172000000E2A6F000E2B6F0EECB1F00101245158
:10173000300F8D6F48D084C117F185C118F186C173
:1017400019F187C11AF18BC16CF18CC16DF1D89080
:101750006C376D37D8906C376D37590E6C25F66E37
:10176000EC0E6D21F76EF86A000EF8220900F5CF35
:101770001BF10900F5CF1CF10900F5CF1DF10A009E
:10178000F5CF1EF177ECAEF0010117510F0B756F1D
:101790007551010DEB0EF324F66EFD0EF420F76E7D
:1017A000F86A000EF8220800F5CF8DF10CD0010187
:1017B0007C51C00B000AD8B47CD7800AD8B4BBD700
:1017C000400AD8B476D78D5115ECB7F001018B07DC
:1017D000D8A08C078B29EBE18C29D8A4E8D701018C
:1017E00064516C6F65516D6F644B652B6CC1F6FF76
:1017F0006DC1F7FF000EF86E0D0EF76403D0080000
:10180000F55005D0F6CFE9FFF7CFEAFFEF50010121
:101810008D6F8D51D8B41200ABEF86F0680E0001C9
:10182000766F000E776F56EF91F0250E8919D8B4B8
:1018300005D0895153ECB7F056EF91F0000E00013E
:10184000796F000E786F66C0F6FF67C0F7FF000E75
:10185000F86E0D0EF76403D00800F55005D0F6CFF2
:10186000E9FFF7CFEAFFEF502E0AD8A448D00001D5
:10187000798D664B672B000E886F000E876F29D01D
:1018800087C00FF088C010F0000E126E0A0E116EA5
:1018900027ECB6F066C0F6FF67C0F7FF000EF86EE3
:1018A0000D0EF76403D00800F55005D0F6CFE9FF20
:1018B000F7CFEAFFEF500001686F68510F26000E66
:1018C0001022D00E0F24876FFF0E1020886F664BFA
:1018D000672B66C0F6FF67C0F7FF000EF86E0D0EAF
:1018E000F76403D00800F55005D0F6CFE9FFF7CF35
:1018F000EAFFEF507FECB6F0D8A088D0C1D7000E39
:101900000001886F000E876F798980D07985B5D006
:10191000788FB3D076C0D9FF77C0DAFFDECF74F00E
:10192000DDCF75F0020E7627000E77237451751106
:10193000D8A404D0860E746FFF0E756F000E736FFF
:10194000000E726F03D00001724B732B725174251D
:10195000686F73517521696F68C0F6FF69C0F7FF42
:10196000000EF86E0D0EF76403D00800F55005D098
:10197000F6CFE9FFF7CFEAFFEF500009D8A4E3D78D
:10198000000187518811D8B421D07251875D7351FD
:101990008859D8B01BD087C072F088C073F016D0B9
:1019A00074C0F6FF75C0F7FF000EF86E0D0EF764F9
:1019B00003D00800F55005D0F6CFE9FFF7CFEAFFD6
:1019C000EF5053ECB7F00001744B752B7207D8A0A1
:1019D00073077229E5E17329D8B456EF91F0E0D787
:1019E00076C0D9FF77C0DAFFDF50896F020E762705
:1019F000000E7723890E746F000E756F000E736FE3
:101A0000010E726FBDD7C00E781337D0000166513A
:101A1000686F6751696F664B672B68C0F6FF69C0D6
:101A2000F7FF000EF86E0D0EF76403D00800F550B6
:101A300005D0F6CFE9FFF7CFEAFFEF500001896F3D
:101A40008951000AD8B41200580AD8B461D73B0AA9
:101A5000D8B4C6D7070AD8B410D0020AD8B456D71B
:101A60000F0AD8B40AD01A0AD8B454D7060AD8B480
:101A7000CAD70D0AD8B44CD7BDD7070E7915D8B43C
:101A8000C0D279A904D0000E886F060E876F76C089
:101A9000D9FF77C0DAFFDECF80F0DECF81F0DDCF77
:101AA00082F0030E7627000E772382AF11D080C01C
:101AB00024F081C025F082C026F03AECB6F024C0B4
:101AC00080F025C081F026C082F0030E000178135B
:101AD000000E7B6F000E7A6F805181118211D8B495
:101AE00086D0820E686FFF0E696F80C06AF081C079
:101AF0006BF082C06CF083C06DF0100E05D0D890F2
:101B00006D336C336B336A33E82EF9D76A5168252D
:101B10007A6F000E69217B6F7A07D8A07B077AC0A5
:101B20000FF07BC010F0000E126E030E116E27EC4A
:101B3000B6F00FC07AF010C07BF07AC007F07BC01F
:101B400008F0000E0A6E0A0E096EB9ECAEF007C07E
:101B50007AF008C07BF000017BAF03D07A07D8A0F1
:101B60007B077A510008F1EC96F036C07CF037C064
:101B70007DF038C07EF07CC027F07DC028F07EC0AC
:101B800029F080C02AF081C02BF082C02CF04EECEE
:101B9000A8F027C07CF028C07DF029C07EF07CC072
:101BA0002AF07DC02BF07EC02CF0000E2D6E800E32
:101BB0002E6E3F0E2F6EA6ECADF0D8B005D0000112
:101BC0007A07D8A07B0713D07CC02AF07DC02BF009
:101BD0007EC02CF0000E2D6E200E2E6E410E2F6E4C
:101BE000A6ECADF0D8A003D000017A4B7B2B00010E
:101BF00088BF06D088511BE10D0E875DD8B017D085
:101C000080C040F081C041F082C042F0875117ECA3
:101C10009CF036C043F037C044F038C045F052EC79
:101C2000A2F040C080F041C081F042C082F00001CB
:101C30007BBF06D07B5120E10A0E7A5DD8B01CD064
:101C4000805181118211D8B456D080C03DF081C03E
:101C50003EF082C03FF0D4ECA7F03D503E103F1064
:101C60004010D8A448D000017BBF45D07B5104E18F
:101C7000020E7A5DD8A03FD07CC02AF07DC02BF048
:101C80007EC02CF0700E2D6E890E2E6E400E2F6EC3
:101C9000A6ECADF0D8B003D00001F70E02D00001E1
:101CA000F80E7A27FF0E7B237A51F1EC96F036C0BE
:101CB0007CF037C07DF038C07EF080C001F081C07C
:101CC00002F082C003F07CC004F07DC005F07EC04D
:101CD00006F08DECA4F001C083F002C084F003C0D4
:101CE00085F004C086F0000E0001806F000E816F49
:101CF000000E826F33D080C03DF081C03EF082C0C4
:101D00003FF0D4ECA7F03DC083F03EC084F03FC06C
:101D100085F040C086F080C060F081C061F082C074
:101D200062F083C009F084C00AF085C00BF086C061
:101D30000CF036ECB2F009C063F00AC064F00BC0DE
:101D400065F051ECB4F060C080F061C081F062C019
:101D500082F0000E00017B6F000E7A6F010E896F1A
:101D60000A0E8919D8B41BD08951040DE30EF3244F
:101D7000F66EEB0EF420F76EF86A000EF8220900FA
:101D8000F550835D0900F55084590900F5508559D7
:101D90000900F5508659D8A002D0892BE1D7030E4F
:101DA0007815686F000E7915696F68516911D8B49C
:101DB0004DD02D0E53ECB7F049D083C001F084C054
:101DC00002F085C003F086C004F000018951040DC3
:101DD000E30EF324F66EEB0EF420F76EF86A000EB5
:101DE000F8220900F5CF05F00900F5CF06F009004B
:101DF000F5CF07F00A00F5CF08F0FBECAEF001C01C
:101E00007CF002C07DF003C07EF004C07FF07CC097
:101E10000EF07DC00FF07EC010F07FC011F00A0EF2
:101E2000126E000E136E000E146E000E156E42EC54
:101E3000B1F00EC07CF00FC07DF010C07EF011C07C
:101E40007FF000017C51300F53ECB7F0000189079F
:101E50008929D8B408D0B1D7300E53ECB7F00001BF
:101E60007A07D8A07B077BBF05D07B51F5E17A05C7
:101E7000D8B0F2D788BF09D0885104E1090E875D38
:101E8000D8A003D0080E896F02D087C089F089518D
:101E9000875F000E89BFFF0E885B8951D8B403D0DD
:101EA0002E0E53ECB7F000018951F1EC96F036C0DC
:101EB0006EF037C06FF038C070F080C02AF081C07B
:101EC0002BF082C02CF06EC027F06FC028F070C0DD
:101ED00029F04EECA8F027C03DF028C03EF029C004
:101EE0003FF0D4ECA7F03DC083F03EC084F03FC08B
:101EF00085F040C086F073D083C001F084C002F04A
:101F000085C003F086C004F000018951040DE30E82
:101F1000F324F66EEB0EF420F76EF86A000EF8224A
:101F20000900F5CF05F00900F5CF06F00900F5CF5F
:101F300007F00A00F5CF08F0FBECAEF001C07CF032
:101F400002C07DF003C07EF004C07FF07CC00EF0C4
:101F50007DC00FF07EC010F07FC011F00A0E126E2F
:101F6000000E136E000E146E000E156E42ECB1F0F2
:101F70000EC07CF00FC07DF010C07EF011C07FF06D
:101F800000017C51300F53ECB7F083C00EF084C0D9
:101F90000FF085C010F086C011F000018951040DCA
:101FA000E30EF324F66EEB0EF420F76EF86A000EE3
:101FB000F8220900F5CF12F00900F5CF13F009005F
:101FC000F5CF14F00A00F5CF15F042ECB1F00EC0D9
:101FD00083F00FC084F010C085F011C086F00001BE
:101FE00089078929D8B408D087D7300E53ECB7F0C9
:101FF00000018707D8A0880787518811D8B456D127
:10200000F4D7C00E7815686F000E7915696F6851A6
:102010006911D8A41ED076C0D9FF77C0DAFFDECF11
:1020200083F0DDCF84F0000E84BFFF0E856F866FD6
:10203000020E7627000E772386AF1DD0030E78138D
:10204000861F851F841F836D000E842385238623AE
:1020500012D076C0D9FF77C0DAFFDECF68F0DDCFCF
:1020600069F068C083F069C084F0856B866B020EEE
:102070007627000E772387518811D8A44BD083513F
:10208000841185118611D8A445D0874B882B42D066
:10209000010E896F0A0E8919D8B447D08951040DF1
:1020A000E30EF324F66EEB0EF420F76EF86A000EE2
:1020B000F8220900F550835D0900F55084590900A4
:1020C000F55085590900F5508659D8A02ED0892B96
:1020D000E1D7010E896F080E8919D8B426D089512D
:1020E000040D590EF324F66EEC0EF420F76EF86A28
:1020F000000EF8220900F550835D0900F55084595F
:102100000900F55085590900F5508659D8A00DD021
:10211000892BE1D77851C00B000AD8B4B9D7800A0F
:10212000D8B4D7D7400AD8B4B3D7800E89BF7F0EB2
:10213000686F8751895D8851800A6859D8B003D08B
:1021400087C089F010D08851800A686F8951875DF7
:10215000800E89BF7F0E6859D8B005D08951876F2E
:10216000886B87BF8807030E7815686F000E791596
:10217000696F68516911D8B490D02D0E53ECB7F047
:102180008CD087C068F088C069F00001D8906837AB
:102190006937D89068376937E30E6825F66EEB0E1D
:1021A0006921F76EF86A000EF8220900F5CF05F0F4
:1021B0000900F5CF06F00900F5CF07F00A00F5CFCA
:1021C00008F083C001F084C002F085C003F086C02F
:1021D00004F0FBECAEF001C00EF002C00FF003C043
:1021E00010F004C011F00A0E126E000E136E000EF5
:1021F000146E000E156E42ECB1F00E50300F00015F
:10220000896F48D083C001F084C002F085C003F01C
:1022100086C004F087C068F088C069F0D89068373D
:102220006937D89068376937590E6825F66EEC0E15
:102230006921F76EF86A000EF8220900F5CF05F063
:102240000900F5CF06F00900F5CF07F00A00F5CF39
:1022500008F0FBECAEF001500F0B0001716F7151F3
:10226000010DEB0EF324F66EFD0EF420F76EF86A06
:10227000000EF8220800F5CF89F00CD0000178514B
:10228000C00B000AD8B47DD7800AD8B4BBD7400AA7
:10229000D8B477D7895153ECB7F000018707D8A09D
:1022A00088078729EBE18829D8A4E8D7000166517F
:1022B000686F6751696F664B672B68C0F6FF69C02E
:1022C000F7FF000EF86E0D0EF76403D00800F5500E
:1022D00005D0F6CFE9FFF7CFEAFFEF500001896F95
:1022E0008951D8B4120015EF8CF05FCFAFF024D332
:1022F000DBECB6F001C009F002C00AF04CECB6F01D
:1023000009C027F00AC028F00BC029F0680E2A6E19
:10231000530E2B6E3B0E2C6E4EECA8F027C0E3F054
:1023200028C0E4F029C0E5F0D70E2A6E230E2B6EEC
:102330003C0E2C6EE3C02DF0E4C02EF0E5C02FF073
:10234000A6ECADF0D8B012007E865E800E012E5154
:1023500066ECB7F01200680E2A6E530E2B6E3B0E21
:102360002C6EDBECB6F001C009F002C00AF04CECB8
:10237000B6F009C027F00AC028F00BC029F04EECD7
:10238000A8F027C040F028C041F029C042F0E3C0C7
:1023900043F0E4C044F0E5C045F052ECA2F040C088
:1023A000EDF041C0EEF042C0EFF0120E156E030EDC
:1023B000166E400E176EEDC018F0EEC019F0EFC0AB
:1023C0001AF03CECA9F015C0E0F016C0E1F017C01F
:1023D000E2F0000E2A6E200E2B6E400E2C6EEDC029
:1023E0002DF0EEC02EF0EFC02FF0A6ECADF0D8A08F
:1023F00010D0EDC02AF0EEC02BF0EFC02CF0000E94
:102400002D6E000E2E6E400E2F6EA6ECADF0D8B0E5
:1024100012007E865E800E012E5166ECB7F012002F
:10242000E0C02AF0E1C02BF0E2C02CF0DBECB6F00B
:1024300001C009F002C00AF04CECB6F009C027F068
:102440000AC028F00BC029F04EECA8F027C0B3F06A
:1024500028C0B4F029C0B5F0B3C027F0B4C028F04C
:10246000B5C029F0680E2A6ED30E2B6E3B0E2C6E73
:102470004EECA8F027C0DDF028C0DEF029C0DFF068
:10248000000E2A6E600E2B6E400E2C6EDDC02DF0FD
:10249000DEC02EF0DFC02FF0A6ECADF0D8B01200F9
:1024A0007E865E800E012E5166ECB7F01200C00EE3
:1024B000186E7F0E196E440E1A6EDDC015F0DEC068
:1024C00016F0DFC017F03CECA9F015C02AF016C0DA
:1024D0002BF017C02CF0DBECB6F001C009F002C005
:1024E0000AF04CECB6F009C027F00AC028F00BC087
:1024F00029F04EECA8F027C0B3F028C0B4F029C0F2
:10250000B5F0B3C027F0B4C028F0B5C029F05E0E16
:102510002A6EF20E2B6E3F0E2C6E4EECA8F027C0EA
:10252000CEF028C0CFF029C0D0F07FB083D05EA21B
:1025300029D0EE0E0001F95D7F0EFA59D8B007D010
:10254000CEC0D1F0CFC0D2F0D0C0D3F014D0CEC026
:1025500073F0CFC074F0D0C075F0FBC076F0FCC053
:1025600077F0FDC078F0D7ECB1F073C0D1F074C053
:10257000D2F075C0D3F0F3C0D4F0F4C0D5F0F5C0FC
:10258000D6F00DD0000E0001D16F000ED26F000EFC
:10259000D36F000ED46F000ED56F000ED66FFBC048
:1025A00097F0FCC098F0FDC099F0D1C094F0D2C073
:1025B00095F0D3C096F0B7EC9FF094C0B0F095C002
:1025C000B1F096C0B2F0B0C040F0B1C041F0B2C0BE
:1025D00042F0F0C043F0F1C044F0F2C045F052ECDC
:1025E000A2F040C0CBF041C0CCF042C0CDF0D4C08E
:1025F00094F0D5C095F0D6C096F0FBC097F0FCC023
:1026000098F0FDC099F0B7EC9FF094C0C8F095C069
:10261000C9F096C0CAF0C8C027F0C9C028F0CAC027
:1026200029F0CBC02AF0CCC02BF0CDC02CF04EEC62
:10263000A8F052D0CEC0D1F0CFC0D2F0D0C0D3F0ED
:10264000000E0001976F000E986F000E996FD1C0B9
:1026500094F0D2C095F0D3C096F0B7EC9FF094C040
:10266000B0F095C0B1F096C0B2F0B0C040F0B1C0CB
:1026700041F0B2C042F0F0C043F0F1C044F0F2C00B
:1026800045F052ECA2F040C0CBF041C0CCF042C0CB
:10269000CDF0F3C094F0F4C095F0F5C096F0000EC4
:1026A0000001976F000E986F000E996FB7EC9FF0C6
:1026B00094C0C8F095C0C9F096C0CAF0C8C027F051
:1026C000C9C028F0CAC029F0CBC02AF0CCC02BF07A
:1026D000CDC02CF04EECA8F027C0B7F128C0B8F15F
:1026E00029C0B9F1000E2A6EA00E2B6E400E2C6E82
:1026F000CBC02DF0CCC02EF0CDC02FF0A6ECADF0AD
:10270000D8B012007E865E800E012E5166ECB7F0C6
:102710001200C00E186E7F0E196E440E1A6EDDC0C8
:1027200015F0DEC016F0DFC017F03CECA9F015C0C4
:102730002AF016C02BF017C02CF0DBECB6F001C06D
:1027400009F002C00AF04CECB6F009C027F00AC04C
:1027500028F00BC029F04EECA8F027C0B3F028C039
:10276000B4F029C0B5F0B3C027F0B4C028F0B5C0AC
:1027700029F0F80E2A6E800E2B6E400E2C6E4EEC59
:10278000A8F027C0DAF028C0DBF029C0DCF09A0EF0
:102790002A6E590E2B6E410E2C6EDAC02DF0DBC066
:1027A0002EF0DCC02FF0A6ECADF0D8B012007E8683
:1027B0005E800E012E5166ECB7F01200000E186E0E
:1027C000000E196E400E1A6EDDC015F0DEC016F058
:1027D000DFC017F03CECA9F015C02AF016C02BF0B2
:1027E00017C02CF0000E436E800E446E3F0E456EF7
:1027F000C00E186E7F0E196E440E1A6EDBECB6F02A
:1028000001C009F002C00AF04CECB6F009C015F0A6
:102810000AC016F00BC017F03CECA9F015C024F06C
:1028200016C025F017C026F03AECB6F024C040F0F0
:1028300025C041F026C042F052ECA2F040C027F083
:1028400041C028F042C029F04EECA8F027C0A6F005
:1028500028C0A7F029C0A8F0040E186EAD0E196E9E
:102860003A0E1A6EB40E436E280E446E3F0E456E3D
:10287000A6C024F0A7C025F0A8C026F03AECB6F018
:1028800024C040F025C041F026C042F052ECA2F036
:1028900040C015F041C016F042C017F03CECA9F062
:1028A00015C0A9F016C0AAF017C0ABF0F6C043F0EF
:1028B000F7C044F0F8C045F0A9C040F0AAC041F00C
:1028C000ABC042F052ECA2F040C0ACF041C0ADF061
:1028D00042C0AEF0ACC040F0ADC041F0AEC042F07E
:1028E000000E436E200E446EC20E456E52ECA2F0F6
:1028F00040C0D7F041C0D8F042C0D9F0000E2A6ED7
:10290000200E2B6E420E2C6ED7C02DF0D8C02EF0AC
:10291000D9C02FF0A6ECADF0D8B012007E865E8054
:102920000E012E5166ECB7F012007E865E800E011D
:102930002E5166ECB7F012000001AF51000AD8B476
:10294000B6D5040AD8B4E5D6260AD8B469D51E0A85
:10295000D8B4CED4010AD8B431D7020AD8B4FBD443
:10296000E4D701015B6F01015BAF1ED15B6D5B5171
:10297000800A120FD8A0A0D0000E286F030E276F78
:10298000000E206F0A0E1F6F000E1A6F640E196F73
:102990005B51176F186B17BF180734ECB0F017C1F5
:1029A0001DF118C11EF134ECAEF0090E01011D2518
:1029B000256F000E1E21266FB2ECB5F0320E01011C
:1029C0002525F66EEC0E2621F76EF86A000EF82229
:1029D0000900F5CF49F10900F5CF4AF10A00F5CF1A
:1029E0004BF1000E206F640E1F6F5B511D6F1E6B4D
:1029F0001DBF1E0734ECAEF0120E01011D25256F20
:102A0000000E1E21266F000E286F030E276FB2ECFA
:102A1000B5F0320E01012525F66EEC0E2621F76E7B
:102A2000F86A000EF8220900F5CF46F10900F5CF4B
:102A300047F10A00F5CF48F159ECA7F046C158F12B
:102A400047C159F148C15AF158C146F159C147F13E
:102A50005AC148F1000E0101286F030E276F000EC6
:102A60001A6F0A0E196F5B51176F186B17BF180793
:102A700034ECB0F017C125F118C126F1B2ECB5F075
:102A8000320E01012525F66EEC0E2621F76EF86A4E
:102A9000000EF8220900F5CF49F10900F5CF4AF1FF
:102AA0000A00F5CF4BF159ECA7F046C155F147C1EB
:102AB00056F148C157F1120001015B51800A750FB0
:102AC000D8A05CD0000E206F0A0E1F6F5B511D6FE7
:102AD0001E6B1DBF1E0734ECAEF0090E01011D2553
:102AE000256F000E1E21266F000E286F030E276F24
:102AF000B2ECB5F0320E01012525F66EEC0E262162
:102B0000F76EF86A000EF8220900F5CF46F10900C9
:102B1000F5CF47F10A00F5CF48F1000E286F030EFC
:102B2000276F000E1A6F0A0E196F5B51176F186B23
:102B300017BF180734ECB0F017C125F118C126F102
:102B4000B2ECB5F0320E01012525F66EEC0E262111
:102B5000F76EF86A000EF8220900F5CF49F1090076
:102B6000F5CF4AF10A00F5CF4BF159ECA7F046C179
:102B700055F147C156F148C157F1120001015B51AF
:102B8000030D320EF324F66EEC0EF420F76EF86AA5
:102B9000000EF8220900F5CF55F10900F5CF56F1E6
:102BA0000A00F5CF57F112005B51800A120FD8A02E
:102BB000A0D0000E286F030E276F000E206F0A0EA4
:102BC0001F6F000E1A6F640E196F5B51176F186B31
:102BD00017BF180734ECB0F017C11DF118C11EF172
:102BE00034ECAEF0090E01011D25256F000E1E21EB
:102BF000266FB2ECB5F00B0E01012525F66EEC0E3A
:102C00002621F76EF86A000EF8220900F5CF49F187
:102C10000900F5CF4AF10A00F5CF4BF1000E206F05
:102C2000640E1F6F5B511D6F1E6B1DBF1E0734ECC2
:102C3000AEF0120E01011D25256F000E1E21266F1C
:102C4000000E286F030E276FB2ECB5F00B0E0101DA
:102C50002525F66EEC0E2621F76EF86A000EF82296
:102C60000900F5CF46F10900F5CF47F10A00F5CF8D
:102C700048F159ECA7F046C158F147C159F148C194
:102C80005AF158C146F159C147F15AC148F1000EF5
:102C90000101286F030E276F000E1A6F0A0E196FBD
:102CA0005B51176F186B17BF180734ECB0F017C1E2
:102CB00025F118C126F1B2ECB5F00B0E0101252566
:102CC000F66EEC0E2621F76EF86A000EF822090067
:102CD000F5CF49F10900F5CF4AF10A00F5CF4BF1E4
:102CE00059ECA7F046C155F147C156F148C157F11B
:102CF000120001015B51800A750FD8A05CD0000E54
:102D0000206F0A0E1F6F5B511D6F1E6B1DBF1E07CC
:102D100034ECAEF0090E01011D25256F000E1E21B9
:102D2000266F000E286F030E276FB2ECB5F00B0E66
:102D300001012525F66EEC0E2621F76EF86A000ECD
:102D4000F8220900F5CF46F10900F5CF47F10A0056
:102D5000F5CF48F1000E286F030E276F000E1A6F93
:102D60000A0E196F5B51176F186B17BF180734ECF9
:102D7000B0F017C125F118C126F1B2ECB5F00B0E79
:102D800001012525F66EEC0E2621F76EF86A000E7D
:102D9000F8220900F5CF49F10900F5CF4AF10A0000
:102DA000F5CF4BF159ECA7F046C155F147C156F1AB
:102DB00048C157F1120001015B51030D0B0EF324C2
:102DC000F66EEC0EF420F76EF86A000EF822090099
:102DD000F5CF55F10900F5CF56F10A00F5CF57F1BF
:102DE00012003C6E3CAE13D13C6C3C50800A120F7A
:102DF000D8A09AD0000E126E030E116E000E0A6E4D
:102E00000A0E096E000E046E640E036E3C50016ED5
:102E1000026A01BE02066DECB0F001C007F002C00C
:102E200008F0B9ECAEF0090E07240F6E000E082072
:102E3000106E27ECB6F0320E0F24F66EEC0E10205A
:102E4000F76EF86A000EF8220900F5CF2AF00900A3
:102E5000F5CF2BF00A00F5CF2CF0000E0A6E640EB1
:102E6000096E3C50076E086A07BE0806B9ECAEF062
:102E7000120E07240F6E000E0820106E000E126E48
:102E8000030E116E27ECB6F0320E0F24F66EEC0E28
:102E90001020F76EF86A000EF8220900F5CF27F02F
:102EA0000900F5CF28F00A00F5CF29F04EECA8F084
:102EB00027C039F028C03AF029C03BF039C027F0CC
:102EC0003AC028F03BC029F0000E126E030E116EBE
:102ED000000E046E0A0E036E3C50016E026A01BEC3
:102EE00002066DECB0F001C00FF002C010F027EC4C
:102EF000B6F0320E0F24F66EEC0E1020F76EF86A64
:102F0000000EF8220900F5CF2AF00900F5CF2BF0CA
:102F10000A00F5CF2CF04EECA8F027C036F028C000
:102F200037F029C038F012003C50800A750FD8A045
:102F300059D0000E0A6E0A0E096E3C50076E086AE0
:102F400007BE0806B9ECAEF0090E07240F6E000E9E
:102F50000820106E000E126E030E116E27ECB6F0F4
:102F6000320E0F24F66EEC0E1020F76EF86A000E8B
:102F7000F8220900F5CF27F00900F5CF28F00A0064
:102F8000F5CF29F0000E126E030E116E000E046EC6
:102F90000A0E036E3C50016E026A01BE02066DEC21
:102FA000B0F001C00FF002C010F027ECB6F0320E06
:102FB0000F24F66EEC0E1020F76EF86A000EF82261
:102FC0000900F5CF2AF00900F5CF2BF00A00F5CF64
:102FD0002CF04EECA8F027C036F028C037F029C0FE
:102FE00038F012003C50030D320EF324F66EEC0E56
:102FF000F420F76EF86A000EF8220900F5CF36F0DB
:103000000900F5CF37F00A00F5CF38F012003C5038
:10301000800A120FD8A09AD0000E126E030E116E05
:10302000000E0A6E0A0E096E000E046E640E036E28
:103030003C50016E026A01BE02066DECB0F001C0A8
:1030400007F002C008F0B9ECAEF0090E07240F6ECD
:10305000000E0820106E27ECB6F00B0E0F24F66E53
:10306000EC0E1020F76EF86A000EF8220900F5CF7A
:103070002AF00900F5CF2BF00A00F5CF2CF0000E56
:103080000A6E640E096E3C50076E086A07BE080699
:10309000B9ECAEF0120E07240F6E000E0820106E71
:1030A000000E126E030E116E27ECB6F00B0E0F24FD
:1030B000F66EEC0E1020F76EF86A000EF82209008A
:1030C000F5CF27F00900F5CF28F00A00F5CF29F059
:1030D0004EECA8F027C039F028C03AF029C03BF0E8
:1030E00039C027F03AC028F03BC029F0000E126E1C
:1030F000030E116E000E046E0A0E036E3C50016E3C
:10310000026A01BE02066DECB0F001C00FF002C011
:1031100010F027ECB6F00B0E0F24F66EEC0E10201C
:10312000F76EF86A000EF8220900F5CF2AF00900C0
:10313000F5CF2BF00A00F5CF2CF04EECA8F027C00D
:1031400036F028C037F029C038F012003C50800A11
:10315000750FD8A059D0000E0A6E0A0E096E3C50A9
:10316000076E086A07BE0806B9ECAEF0090E072420
:103170000F6E000E0820106E000E126E030E116E00
:1031800027ECB6F00B0E0F24F66EEC0E1020F76E47
:10319000F86A000EF8220900F5CF27F00900F5CFF4
:1031A00028F00A00F5CF29F0000E126E030E116E02
:1031B000000E046E0A0E036E3C50016E026A01BEE0
:1031C00002066DECB0F001C00FF002C010F027EC69
:1031D000B6F00B0E0F24F66EEC0E1020F76EF86AA8
:1031E000000EF8220900F5CF2AF00900F5CF2BF0E8
:1031F0000A00F5CF2CF04EECA8F027C036F028C01E
:1032000037F029C038F012003C50030D0B0EF324A8
:10321000F66EEC0EF420F76EF86A000EF822090044
:10322000F5CF36F00900F5CF37F00A00F5CF38F0CA
:1032300012000101906F910E0101176F010E186FBE
:10324000F60E196FFF0E1A6F000E1C6F0F0E1B6F1C
:10325000DAECB0F054D0910E0101176F010E186F27
:10326000CA0E196FFF0E1A6F33ECB3F05DD0910EDA
:103270000101176F010E186F700E196FFD0E1A6F96
:1032800033ECB3F051D0910E0101176F010E186F9E
:10329000DF0E196FFF0E1A6F33ECB3F045D0910EAD
:1032A0000101176F010E186FE50E196FFF0E1A6FEF
:1032B00033ECB3F039D0910E0101176F010E186F86
:1032C000F10E196FFF0E1A6F33ECB3F02DD0910E83
:1032D0000101176F010E186FF90E196FFF0E1A6FAB
:1032E00033ECB3F021D0910E0101176F010E186F6E
:1032F000CA0E196FFF0E1A6F33ECB3F015D001012F
:103300008F51000AD8B4A7D7010AD8B4B0D7030A9E
:10331000D8B4B9D7010AD8B4C2D7070AD8B4CBD722
:10332000010AD8B4D4D7DFD7910E0101176F010E6F
:10333000186FFB0E196FFF0E1A6F33ECB3F06CD0E1
:10334000910E0101176F010E186FC90E196FFF0E54
:103350001A6F33ECB3F07BD0910E0101176F010EA1
:10336000186FCC0E196FFF0E1A6F33ECB3F06FD0DD
:10337000910E0101176F010E186FD20E196FFF0E1B
:103380001A6F33ECB3F063D0910E0101176F010E89
:10339000186FD80E196FFF0E1A6F33ECB3F057D0B9
:1033A000910E0101176F010E186FDE0E196FFF0EDF
:1033B0001A6F33ECB3F04BD0910E0101176F010E71
:1033C000186FE40E196FFF0E1A6F33ECB3F03FD095
:1033D000910E0101176F010E186FEA0E196FFF0EA3
:1033E0001A6F33ECB3F033D0910E0101176F010E59
:1033F000186FF00E196FFF0E1A6F33ECB3F027D071
:10340000910E0101176F010E186FF00E196FFF0E6C
:103410001A6F33ECB3F01BD001019051000AD8B4FD
:103420008FD7010AD8B498D7030AD8B4A1D7010A14
:10343000D8B4AAD7070AD8B4B3D7010AD8B4BCD72E
:10344000030AD8B4C5D7010AD8B4CED7D9D7910EBC
:103450000101176F010E186FFB0E196FFF0E1A6F27
:1034600033ECB3F06CD0910E0101176F010E186FA1
:103470004D0E196FFF0E1A6F33ECB3F07BD0910E27
:103480000101176F010E186FCF0E196FFF0E1A6F23
:1034900033ECB3F06FD0910E0101176F010E186F6E
:1034A000D50E196FFF0E1A6F33ECB3F063D0910E87
:1034B0000101176F010E186FDB0E196FFF0E1A6FE7
:1034C00033ECB3F057D0910E0101176F010E186F56
:1034D000E10E196FFF0E1A6F33ECB3F04BD0910E63
:1034E0000101176F010E186FE70E196FFF0E1A6FAB
:1034F00033ECB3F03FD0910E0101176F010E186F3E
:10350000ED0E196FFF0E1A6F33ECB3F033D0910E3E
:103510000101176F010E186FF30E196FFF0E1A6F6E
:1035200033ECB3F027D0910E0101176F010E186F25
:10353000F30E196FFF0E1A6F33ECB3F01BD00101BD
:103540008E51000AD8B48FD7010AD8B498D7030A8D
:10355000D8B4A1D7010AD8B4AAD7070AD8B4B3D728
:10356000010AD8B4BCD7030AD8B4C5D7010AD8B465
:10357000CED7D9D7910E0101176F010E186FFD0E2E
:10358000196FFF0E1A6F33ECB3F0910E0101646FE7
:10359000010E656FA4EC86F0120001015E6F6D0EE6
:1035A00001015E65AFD0000E286F030E276F000E7D
:1035B000206F0A0E1F6F000E1A6F640E196F5EC126
:1035C00017F1186B34ECB0F017C11DF118C11EF1E2
:1035D00034ECAEF0090E01011D25256F000E1E21F1
:1035E000266FB2ECB5F0320E01012525F66EEC0E19
:1035F0002621F76EF86A000EF8220900F5CF49F18E
:103600000900F5CF4AF10A00F5CF4BF1000E206F0B
:10361000640E1F6F5EC11DF11E6B34ECAEF0120E16
:1036200001011D25256F000E1E21266F000E286F3B
:10363000030E276FB2ECB5F0320E01012525F66EB0
:10364000EC0E2621F76EF86A000EF8220900F5CF7D
:1036500046F10900F5CF47F10A00F5CF48F159ECE2
:10366000A7F046C15BF147C15CF148C15DF1000EB6
:103670000101286F030E276F000E1A6F0A0E196FD3
:103680005EC117F1186B34ECB0F017C125F118C109
:1036900026F1B2ECB5F0320E01012525F66EEC0EE6
:1036A0002621F76EF86A000EF8220900F5CF49F1DD
:1036B0000900F5CF4AF10A00F5CF4BF15BC146F1A5
:1036C0005CC147F15DC148F159ECA7F046C158F122
:1036D00047C159F148C15AF158C146F159C147F1A2
:1036E0005AC148F1000E0101496F000E4A6F3F0EAA
:1036F0004B6F59ECA7F046C155F147C156F148C18F
:1037000057F112000A0E01015E656DD0000E286FA0
:10371000030E276F000E1A6F0A0E196F5EC117F1A4
:10372000186B34ECB0F017C125F118C126F1B2ECDA
:10373000B5F0320E01012525F66EEC0E2621F76E4E
:10374000F86A000EF8220900F5CF49F10900F5CF1B
:103750004AF10A00F5CF4BF1000E206F0A0E1F6FE1
:103760005EC11DF11E6B34ECAEF0090E01011D258A
:10377000256F000E1E21266F000E286F030E276F87
:10378000B2ECB5F0320E01012525F66EEC0E2621C5
:10379000F76EF86A000EF8220900F5CF46F109002D
:1037A000F5CF47F10A00F5CF48F159ECA7F046C133
:1037B0005BF147C15CF148C15DF15BC146F15CC1A1
:1037C00047F15DC148F1000E0101496F000E4A6FDB
:1037D0003F0E4B6F59ECA7F046C155F147C156F16A
:1037E00048C157F1120001015E51030D320EF3245E
:1037F000F66EEC0EF420F76EF86A000EF82209005F
:10380000F5CF46F10900F5CF47F10A00F5CF48F1B1
:10381000000E496F000E4A6F3F0E4B6F59ECA7F038
:1038200046C155F147C156F148C157F112003F6EEC
:103830006D0E3F64A8D0000E126E030E116E000EC6
:103840000A6E0A0E096E000E046E640E036E3FC00F
:1038500001F0026A6DECB0F001C007F002C008F0A0
:10386000B9ECAEF0090E07240F6E000E0820106EA2
:1038700027ECB6F0320E0F24F66EEC0E1020F76E29
:10388000F86A000EF8220900F5CF2AF00900F5CFFA
:103890002BF00A00F5CF2CF0000E0A6E640E096EB4
:1038A0003FC007F0086AB9ECAEF0120E07240F6EA5
:1038B000000E0820106E000E126E030E116E27EC23
:1038C000B6F0320E0F24F66EEC0E1020F76EF86A8A
:1038D000000EF8220900F5CF27F00900F5CF28F0F7
:1038E0000A00F5CF29F04EECA8F027C03CF028C024
:1038F0003DF029C03EF0000E126E030E116E000E58
:10390000046E0A0E036E3FC001F0026A6DECB0F067
:1039100001C00FF002C010F027ECB6F0320E0F24F9
:10392000F66EEC0E1020F76EF86A000EF822090011
:10393000F5CF2AF00900F5CF2BF00A00F5CF2CF0D7
:103940003CC027F03DC028F03EC029F04EECA8F066
:1039500027C039F028C03AF029C03BF039C027F021
:103960003AC028F03BC029F0000E2A6E000E2B6EE4
:103970003F0E2C6E4EECA8F027C036F028C037F072
:1039800029C038F012000A0E3F6469D0000E126E92
:10399000030E116E000E046E0A0E036E3FC001F09E
:1039A000026A6DECB0F001C00FF002C010F027EC1D
:1039B000B6F0320E0F24F66EEC0E1020F76EF86A99
:1039C000000EF8220900F5CF2AF00900F5CF2BF000
:1039D0000A00F5CF2CF0000E0A6E0A0E096E3FC0E9
:1039E00007F0086AB9ECAEF0090E07240F6E000E5E
:1039F0000820106E000E126E030E116E27ECB6F04A
:103A0000320E0F24F66EEC0E1020F76EF86A000EE0
:103A1000F8220900F5CF27F00900F5CF28F00A00B9
:103A2000F5CF29F04EECA8F027C03CF028C03DF0BF
:103A300029C03EF03CC027F03DC028F03EC029F030
:103A4000000E2A6E000E2B6E3F0E2C6E4EECA8F070
:103A500027C036F028C037F029C038F012003F5098
:103A6000030D320EF324F66EEC0EF420F76EF86AB6
:103A7000000EF8220900F5CF27F00900F5CF28F055
:103A80000A00F5CF29F0000E2A6E000E2B6E3F0EB5
:103A90002C6E4EECA8F027C036F028C037F029C0B5
:103AA00038F01200000E2A6E800E2B6E3F0E2C6E28
:103AB00079C027F07AC028F07BC029F083ECB5F0FC
:103AC00027C02DF028C02EF029C02FF0A6ECADF0B5
:103AD000D8B00DD0000E0101CA6F210EC96F000EC3
:103AE0000001796F000E7A6F000E7B6F1200000EDE
:103AF00000017C6F800E7D6F3F0E7E6F79C02AF0D3
:103B00007AC02BF07BC02CF079C027F07AC028F067
:103B10007BC029F04EECA8F027C024F028C025F087
:103B200029C026F03AECB6F024C040F025C041F0A0
:103B300026C042F0000E436E800E446E3F0E456E6E
:103B400052ECA2F040C07FF041C080F042C081F052
:103B50007FC066F080C067F081C068F028ECA3F0F9
:103B600066C088F067C089F068C08AF079C027F025
:103B70007AC028F07BC029F083ECB5F027C02AF08A
:103B800028C02BF029C02CF0C30E2D6E350E2E6EE2
:103B90003F0E2F6EA6ECADF0D8B023D079C015F053
:103BA0007AC016F07BC017F088C018F089C019F0F1
:103BB0008AC01AF03CECA9F015C08BF016C08CF04E
:103BC00017C08DF08BC058F08CC059F08DC05AF0E2
:103BD0009AECA0F058C079F059C07AF05AC07BF046
:103BE000120000017BAF55D079C018F07AC019F0EF
:103BF0007BC01AF088C024F089C025F08AC026F066
:103C00003AECB6F024C015F025C016F026C017F027
:103C10003CECA9F015C08BF016C08CF017C08DF0ED
:103C20008BC058F08CC059F08DC05AF09AECA0F0BF
:103C300058C085F059C086F05AC087F0100E436E08
:103C4000C90E446E3F0E456E85C024F086C025F037
:103C500087C026F03AECB6F024C040F025C041F011
:103C600026C042F052ECA2F040C082F041C083F086
:103C700042C084F082C024F083C025F084C026F0C6
:103C80003AECB6F024C079F025C07AF026C07BF07B
:103C9000120079C018F07AC019F07BC01AF088C001
:103CA00015F089C016F08AC017F03CECA9F015C0D9
:103CB0008BF016C08CF017C08DF08BC058F08CC004
:103CC00059F08DC05AF09AECA0F058C085F059C058
:103CD00086F05AC087F085C024F086C025F087C0E2
:103CE00026F03AECB6F024C040F025C041F026C0E2
:103CF00042F0100E436EC90E446E3F0E456E52ECFC
:103D0000A2F040C079F041C07AF042C07BF01200CE
:103D1000000E0001726F68AF11D066C024F067C05A
:103D200025F068C026F03AECB6F024C066F025C055
:103D300067F026C068F0010E0001726F66C027F0C0
:103D400067C028F068C029F0FA0E2A6E220E2B6E8A
:103D50003E0E2C6E4EECA8F027C066F028C067F02F
:103D600029C068F066C060F067C061F068C062F0AA
:103D700066C056F067C057F068C058F0AFECA9F0C5
:103D800056C063F057C064F058C065F051ECB4F011
:103D900060C066F061C067F062C068F066C027F07E
:103DA00067C028F068C029F0000E2A6E800E2B6EC6
:103DB000400E2C6E4EECA8F027C066F028C067F0CD
:103DC00029C068F0000E2A6E000E2B6E400E2C6E7D
:103DD00066C02DF067C02EF068C02FF0A6ECADF0E5
:103DE000D8B01DD066C060F067C061F068C062F0F6
:103DF000000E0001636F000E646F400E656F51ECA2
:103E0000B4F060C066F061C067F062C068F00001A5
:103E10007251D8A402D0010E01D0000E726F000EB4
:103E20002A6E800E2B6E3F0E2C6E66C02DF067C082
:103E30002EF068C02FF0A6ECADF0D8B01CD066C054
:103E400024F067C025F068C026F03AECB6F024C034
:103E500040F025C041F026C042F0000E436E000E37
:103E6000446E400E456E52ECA2F040C066F041C078
:103E700067F042C068F066C027F067C028F068C0ED
:103E800029F066C02AF067C02BF068C02CF04EEC19
:103E9000A8F027C06FF028C070F029C071F06FC083
:103EA0004CF070C04DF071C04EF0A90E4F6EEC0E8C
:103EB000506E000E526E030E516E1EECAAF04CC0F6
:103EC00069F04DC06AF04EC06BF069C018F06AC06E
:103ED00019F06BC01AF0000E526E040E516E8B0E6C
:103EE0004F6EEC0E506E6FC04CF070C04DF071C054
:103EF0004EF01EECAAF04CC015F04DC016F04EC0AE
:103F000017F03CECA9F015C06CF016C06DF017C0AE
:103F10006EF066C027F067C028F068C029F06CC05A
:103F20002AF06DC02BF06EC02CF04EECA8F027C02C
:103F300066F028C067F029C068F000017251D8B45B
:103F40000FD066C024F067C025F068C026F03AECB8
:103F5000B6F024C066F025C067F026C068F01200F5
:103F600066C066F067C067F068C068F01200000EB7
:103F70000001A36F000EA46F000EA56F000E8E6FE0
:103F8000800E8F6FBF0E906F90ECB2F08EC0A0F0DD
:103F90008FC0A1F090C0A2F0A0C027F0A1C028F06F
:103FA000A2C029F0000E2A6E000E2B6E400E2C6E61
:103FB0004EECA8F027C0A3F028C0A4F029C0A5F0BB
:103FC000000E2A6E000E2B6E400E2C6E97C027F04E
:103FD00098C028F099C029F04EECA8F027C024F032
:103FE00028C025F029C026F03AECB6F024C040F0F5
:103FF00025C041F026C042F0A3C043F0A4C044F065
:10400000A5C045F052ECA2F040C0A3F041C0A4F01E
:1040100042C0A5F0000E2A6E000E2B6E400E2C6ED4
:1040200097C027F098C028F099C029F04EECA8F06E
:1040300027C09AF028C09BF029C09CF09AC066F077
:104040009BC067F09CC068F088EC9EF066C09DF055
:1040500067C09EF068C09FF09DC040F09EC041F0D8
:104060009FC042F0A3C043F0A4C044F0A5C045F0F7
:1040700052ECA2F040C0A3F041C0A4F042C0A5F0B1
:10408000000E00018E6F800E8F6FBF0E906F90EC50
:10409000B2F08EC0A0F08FC0A1F090C0A2F0A3C07B
:1040A00015F0A4C016F0A5C017F0000E2A6E800E01
:1040B0002B6E400E2C6EA0C027F0A1C028F0A2C02D
:1040C00029F04EECA8F027C018F028C019F029C03C
:1040D0001AF03CECA9F015C0A3F016C0A4F017C06C
:1040E000A5F0A3C066F0A4C067F0A5C068F028ECF6
:1040F000A3F066C0A3F067C0A4F068C0A5F094C0A8
:1041000027F095C028F096C029F0A3C02AF0A4C0DB
:104110002BF0A5C02CF04EECA8F027C0A3F028C0CF
:10412000A4F029C0A5F0A3C094F0A4C095F0A5C048
:1041300096F0120058C027F059C028F05AC029F054
:1041400083ECB5F027C06AF028C06BF029C06CF092
:1041500000016A516B116C11D8A407D0000E586E83
:10416000000E596E000E5A6E1200000E2A6E800E5E
:104170002B6E3F0E2C6E6AC02DF06BC02EF06CC003
:104180002FF0A6ECADF0D8B002D0010E01D0000E99
:104190000001666F6651D8B414D0000E156E800E03
:1041A000166E3F0E176E6AC018F06BC019F06CC027
:1041B0001AF03CECA9F015C06AF016C06BF017C0FD
:1041C0006CF06AC027F06BC028F06CC029F06AC0A0
:1041D0002AF06BC02BF06CC02CF04EECA8F027C07E
:1041E00067F028C068F029C069F067C04CF068C06B
:1041F0004DF069C04EF09A0E4F6EEC0E506E000EF0
:10420000526E040E516E1EECAAF04CC060F04DC010
:1042100061F04EC062F067C04CF068C04DF069C0FC
:104220004EF0790E4F6EEC0E506E000E526E050E73
:10423000516E1EECAAF04CC063F04DC064F04EC04D
:1042400065F06AC027F06BC028F06CC029F060C030
:1042500018F061C019F062C01AF063C015F064C0B4
:1042600016F065C017F03CECA9F015C02AF016C096
:104270002BF017C02CF04EECA8F027C06AF028C035
:104280006BF029C06CF000016651D8B41CD06AC034
:1042900024F06BC025F06CC026F03AECB6F024C0D8
:1042A00040F025C041F026C042F0100E436EC90E0A
:1042B000446E3F0E456E52ECA2F040C06AF041C021
:1042C0006BF042C06CF05ABE07D06AC058F06BC0A9
:1042D00059F06CC05AF012006AC024F06BC025F08F
:1042E0006CC026F03AECB6F024C058F025C059F066
:1042F00026C05AF012002DC131F10101326B336B2F
:104300002C35313701E332813151366F30C131F113
:10431000326B336B2F35313701E332813151356FD9
:104320003651D8B40BD03551365DD8B00ED0365199
:1043300000083525316F180E316507D02EC12BF1DD
:104340002FC12CF130C12DF112003551D8B40BD052
:104350003651355DD8B00ED0355100083625316F55
:10436000180E316507D02BC12BF12CC12CF12DC1BA
:104370002DF11200060E346F2DBF348F30BF348DF7
:104380002C8FFF0E2B17FF0E2C17000E2D172F8FC3
:10439000FF0E2E17FF0E2F17000E30173551365D0A
:1043A000D8B01BD0D8902E372F373037350736513D
:1043B0003519D8B40DD0340734C131F1070E311797
:1043C000D8B406D0EFD7D8902D332C332B33362BDF
:1043D00035513619D8B41FD0F6D73651355DD8B01F
:1043E0001AD0D8902B372C372D3736073651351940
:1043F000D8B40DD0340734C131F1070E3117D8B419
:1044000006D0EFD7D89030332F332E33352B35519C
:104410003619D8A4F7D734AF0CD0FF0E2B1BFF0EE4
:104420002C1BFF0E2D1B010E2B27000E2C23000E24
:104430002D2334AD0CD0FF0E2E1BFF0E2F1BFF0EB5
:10444000301B010E2E27000E2F23000E3023000EEE
:10445000346F2B512E272C512F232D51302330AF69
:104460000ED0FF0E2E1BFF0E2F1BFF0E301B010E5A
:104470002E27000E2F23000E3023010E346F2EC185
:1044800017F12FC118F130C119F136C11AF134C139
:104490001BF1BEECABF017C12BF118C12CF119C107
:1044A0002DF1120042C046F0476A486A4134463650
:1044B00001E3478046504B6E45C046F0476A486A64
:1044C0004434463601E3478046504A6E4B50D8B4D8
:1044D0000BD04A504B5CD8B00ED04B5000084A2449
:1044E000466E180E466407D043C040F044C041F009
:1044F00045C042F012004A50D8B40BD04B504A5C31
:10450000D8B00ED04A5000084B24466E180E4664B0
:1045100007D040C040F041C041F042C042F012001C
:10452000060E496E42BE498E45BE498C418EFF0E35
:104530004016FF0E4116000E4216448EFF0E431623
:10454000FF0E4416000E45164A504B5CD8B01BD0E7
:10455000D8904336443645364A064B504A18D8B4AC
:104560000DD0490649C046F0070E4616D8B406D00D
:10457000EFD7D8904232413240324B2A4A504B1842
:10458000D8B41FD0F6D74B504A5CD8B01AD0D890C8
:104590004036413642364B064B504A18D8B40DD0FF
:1045A000490649C046F0070E4616D8B406D0EFD7E4
